{
  "_format": "hh-sol-artifact-1",
  "contractName": "CreditRegistryV3Upgradeable",
  "sourceName": "contracts/upgradeable/CreditRegistryV3Upgradeable.sol",
  "abi": [
    {
      "inputs": [],
      "stateMutability": "nonpayable",
      "type": "constructor"
    },
    {
      "inputs": [
        {
          "internalType": "address",
          "name": "target",
          "type": "address"
        }
      ],
      "name": "AddressEmptyCode",
      "type": "error"
    },
    {
      "inputs": [
        {
          "internalType": "address",
          "name": "implementation",
          "type": "address"
        }
      ],
      "name": "ERC1967InvalidImplementation",
      "type": "error"
    },
    {
      "inputs": [],
      "name": "ERC1967NonPayable",
      "type": "error"
    },
    {
      "inputs": [],
      "name": "FailedInnerCall",
      "type": "error"
    },
    {
      "inputs": [],
      "name": "InvalidInitialization",
      "type": "error"
    },
    {
      "inputs": [],
      "name": "NotInitializing",
      "type": "error"
    },
    {
      "inputs": [
        {
          "internalType": "address",
          "name": "owner",
          "type": "address"
        }
      ],
      "name": "OwnableInvalidOwner",
      "type": "error"
    },
    {
      "inputs": [
        {
          "internalType": "address",
          "name": "account",
          "type": "address"
        }
      ],
      "name": "OwnableUnauthorizedAccount",
      "type": "error"
    },
    {
      "inputs": [],
      "name": "ReentrancyGuardReentrantCall",
      "type": "error"
    },
    {
      "inputs": [],
      "name": "UUPSUnauthorizedCallContext",
      "type": "error"
    },
    {
      "inputs": [
        {
          "internalType": "bytes32",
          "name": "slot",
          "type": "bytes32"
        }
      ],
      "name": "UUPSUnsupportedProxiableUUID",
      "type": "error"
    },
    {
      "anonymous": false,
      "inputs": [
        {
          "indexed": true,
          "internalType": "address",
          "name": "sender",
          "type": "address"
        },
        {
          "indexed": false,
          "internalType": "bool",
          "name": "allowed",
          "type": "bool"
        }
      ],
      "name": "CCIPSenderAuthorized",
      "type": "event"
    },
    {
      "anonymous": false,
      "inputs": [
        {
          "indexed": true,
          "internalType": "uint256",
          "name": "loanId",
          "type": "uint256"
        },
        {
          "indexed": true,
          "internalType": "address",
          "name": "collateralToken",
          "type": "address"
        },
        {
          "indexed": false,
          "internalType": "uint256",
          "name": "collateralValueUsd18",
          "type": "uint256"
        },
        {
          "indexed": false,
          "internalType": "uint16",
          "name": "userScore",
          "type": "uint16"
        }
      ],
      "name": "CollateralDataRecorded",
      "type": "event"
    },
    {
      "anonymous": false,
      "inputs": [
        {
          "indexed": true,
          "internalType": "address",
          "name": "user",
          "type": "address"
        },
        {
          "indexed": true,
          "internalType": "uint64",
          "name": "sourceChainSelector",
          "type": "uint64"
        },
        {
          "indexed": false,
          "internalType": "uint16",
          "name": "score",
          "type": "uint16"
        },
        {
          "indexed": false,
          "internalType": "uint256",
          "name": "timestamp",
          "type": "uint256"
        }
      ],
      "name": "CrossChainReputationReceived",
      "type": "event"
    },
    {
      "anonymous": false,
      "inputs": [
        {
          "indexed": true,
          "internalType": "address",
          "name": "wallet",
          "type": "address"
        },
        {
          "indexed": false,
          "internalType": "uint256",
          "name": "timestamp",
          "type": "uint256"
        }
      ],
      "name": "FirstSeenRecorded",
      "type": "event"
    },
    {
      "anonymous": false,
      "inputs": [
        {
          "indexed": true,
          "internalType": "address",
          "name": "governance",
          "type": "address"
        },
        {
          "indexed": false,
          "internalType": "bool",
          "name": "allowed",
          "type": "bool"
        }
      ],
      "name": "GovernanceAuthorized",
      "type": "event"
    },
    {
      "anonymous": false,
      "inputs": [
        {
          "indexed": false,
          "internalType": "uint64",
          "name": "version",
          "type": "uint64"
        }
      ],
      "name": "Initialized",
      "type": "event"
    },
    {
      "anonymous": false,
      "inputs": [
        {
          "indexed": true,
          "internalType": "address",
          "name": "user",
          "type": "address"
        },
        {
          "indexed": false,
          "internalType": "bytes32",
          "name": "credentialHash",
          "type": "bytes32"
        },
        {
          "indexed": false,
          "internalType": "uint256",
          "name": "expiresAt",
          "type": "uint256"
        }
      ],
      "name": "KYCVerified",
      "type": "event"
    },
    {
      "anonymous": false,
      "inputs": [
        {
          "indexed": true,
          "internalType": "address",
          "name": "lender",
          "type": "address"
        },
        {
          "indexed": false,
          "internalType": "bool",
          "name": "allowed",
          "type": "bool"
        }
      ],
      "name": "LenderAuthorized",
      "type": "event"
    },
    {
      "anonymous": false,
      "inputs": [
        {
          "indexed": true,
          "internalType": "address",
          "name": "borrower",
          "type": "address"
        },
        {
          "indexed": true,
          "internalType": "uint256",
          "name": "loanId",
          "type": "uint256"
        },
        {
          "indexed": false,
          "internalType": "uint256",
          "name": "amountUsd18",
          "type": "uint256"
        },
        {
          "indexed": false,
          "internalType": "uint256",
          "name": "timestamp",
          "type": "uint256"
        },
        {
          "indexed": true,
          "internalType": "address",
          "name": "liquidator",
          "type": "address"
        }
      ],
      "name": "LiquidationRegistered",
      "type": "event"
    },
    {
      "anonymous": false,
      "inputs": [
        {
          "indexed": true,
          "internalType": "address",
          "name": "borrower",
          "type": "address"
        },
        {
          "indexed": true,
          "internalType": "uint256",
          "name": "loanId",
          "type": "uint256"
        },
        {
          "indexed": false,
          "internalType": "uint256",
          "name": "principalUsd18",
          "type": "uint256"
        },
        {
          "indexed": false,
          "internalType": "uint256",
          "name": "timestamp",
          "type": "uint256"
        },
        {
          "indexed": true,
          "internalType": "address",
          "name": "lender",
          "type": "address"
        }
      ],
      "name": "LoanRegistered",
      "type": "event"
    },
    {
      "anonymous": false,
      "inputs": [
        {
          "indexed": true,
          "internalType": "address",
          "name": "previousOwner",
          "type": "address"
        },
        {
          "indexed": true,
          "internalType": "address",
          "name": "newOwner",
          "type": "address"
        }
      ],
      "name": "OwnershipTransferred",
      "type": "event"
    },
    {
      "anonymous": false,
      "inputs": [
        {
          "indexed": true,
          "internalType": "address",
          "name": "proposer",
          "type": "address"
        },
        {
          "indexed": true,
          "internalType": "uint256",
          "name": "proposalId",
          "type": "uint256"
        },
        {
          "indexed": false,
          "internalType": "uint256",
          "name": "timestamp",
          "type": "uint256"
        }
      ],
      "name": "ProposalRecorded",
      "type": "event"
    },
    {
      "anonymous": false,
      "inputs": [
        {
          "indexed": true,
          "internalType": "address",
          "name": "borrower",
          "type": "address"
        },
        {
          "indexed": true,
          "internalType": "uint256",
          "name": "loanId",
          "type": "uint256"
        },
        {
          "indexed": false,
          "internalType": "uint256",
          "name": "amountUsd18",
          "type": "uint256"
        },
        {
          "indexed": false,
          "internalType": "uint256",
          "name": "timestamp",
          "type": "uint256"
        },
        {
          "indexed": true,
          "internalType": "address",
          "name": "payer",
          "type": "address"
        }
      ],
      "name": "RepaymentRegistered",
      "type": "event"
    },
    {
      "anonymous": false,
      "inputs": [
        {
          "indexed": true,
          "internalType": "address",
          "name": "staker",
          "type": "address"
        },
        {
          "indexed": false,
          "internalType": "uint256",
          "name": "amount",
          "type": "uint256"
        },
        {
          "indexed": false,
          "internalType": "uint256",
          "name": "lockUntil",
          "type": "uint256"
        }
      ],
      "name": "StakeDeposited",
      "type": "event"
    },
    {
      "anonymous": false,
      "inputs": [
        {
          "indexed": true,
          "internalType": "address",
          "name": "staker",
          "type": "address"
        },
        {
          "indexed": false,
          "internalType": "uint256",
          "name": "amount",
          "type": "uint256"
        }
      ],
      "name": "StakeWithdrawn",
      "type": "event"
    },
    {
      "anonymous": false,
      "inputs": [
        {
          "indexed": true,
          "internalType": "address",
          "name": "implementation",
          "type": "address"
        }
      ],
      "name": "Upgraded",
      "type": "event"
    },
    {
      "anonymous": false,
      "inputs": [
        {
          "indexed": true,
          "internalType": "address",
          "name": "voter",
          "type": "address"
        },
        {
          "indexed": true,
          "internalType": "uint256",
          "name": "proposalId",
          "type": "uint256"
        },
        {
          "indexed": false,
          "internalType": "uint256",
          "name": "timestamp",
          "type": "uint256"
        }
      ],
      "name": "VoteRecorded",
      "type": "event"
    },
    {
      "inputs": [],
      "name": "UPGRADE_INTERFACE_VERSION",
      "outputs": [
        {
          "internalType": "string",
          "name": "",
          "type": "string"
        }
      ],
      "stateMutability": "view",
      "type": "function"
    },
    {
      "inputs": [
        {
          "internalType": "address",
          "name": "",
          "type": "address"
        }
      ],
      "name": "aggregateCreditData",
      "outputs": [
        {
          "internalType": "uint256",
          "name": "totalLoans",
          "type": "uint256"
        },
        {
          "internalType": "uint256",
          "name": "repaidLoans",
          "type": "uint256"
        },
        {
          "internalType": "uint256",
          "name": "liquidatedLoans",
          "type": "uint256"
        },
        {
          "internalType": "uint256",
          "name": "activeLoans",
          "type": "uint256"
        },
        {
          "internalType": "uint256",
          "name": "totalCollateralUsd18",
          "type": "uint256"
        },
        {
          "internalType": "uint256",
          "name": "totalBorrowedUsd18",
          "type": "uint256"
        },
        {
          "internalType": "uint256",
          "name": "maxLtvBorrowCount",
          "type": "uint256"
        },
        {
          "internalType": "uint256",
          "name": "firstSeen",
          "type": "uint256"
        },
        {
          "components": [
            {
              "internalType": "bytes32",
              "name": "credentialHash",
              "type": "bytes32"
            },
            {
              "internalType": "uint256",
              "name": "verifiedAt",
              "type": "uint256"
            },
            {
              "internalType": "uint256",
              "name": "expiresAt",
              "type": "uint256"
            }
          ],
          "internalType": "struct CreditRegistryV3Upgradeable.KYCProof",
          "name": "kyc",
          "type": "tuple"
        },
        {
          "components": [
            {
              "internalType": "uint256",
              "name": "amount",
              "type": "uint256"
            },
            {
              "internalType": "uint256",
              "name": "lockUntil",
              "type": "uint256"
            }
          ],
          "internalType": "struct CreditRegistryV3Upgradeable.StakeInfo",
          "name": "stake",
          "type": "tuple"
        }
      ],
      "stateMutability": "view",
      "type": "function"
    },
    {
      "inputs": [
        {
          "internalType": "address",
          "name": "",
          "type": "address"
        }
      ],
      "name": "authorizedCCIPSenders",
      "outputs": [
        {
          "internalType": "bool",
          "name": "",
          "type": "bool"
        }
      ],
      "stateMutability": "view",
      "type": "function"
    },
    {
      "inputs": [
        {
          "internalType": "address",
          "name": "",
          "type": "address"
        }
      ],
      "name": "authorizedGovernance",
      "outputs": [
        {
          "internalType": "bool",
          "name": "",
          "type": "bool"
        }
      ],
      "stateMutability": "view",
      "type": "function"
    },
    {
      "inputs": [
        {
          "internalType": "address",
          "name": "",
          "type": "address"
        }
      ],
      "name": "authorizedLenders",
      "outputs": [
        {
          "internalType": "bool",
          "name": "",
          "type": "bool"
        }
      ],
      "stateMutability": "view",
      "type": "function"
    },
    {
      "inputs": [
        {
          "internalType": "uint256",
          "name": "",
          "type": "uint256"
        }
      ],
      "name": "collateralData",
      "outputs": [
        {
          "internalType": "address",
          "name": "collateralToken",
          "type": "address"
        },
        {
          "internalType": "uint256",
          "name": "collateralValueUsd18",
          "type": "uint256"
        },
        {
          "internalType": "uint256",
          "name": "principalUsd18",
          "type": "uint256"
        },
        {
          "internalType": "uint16",
          "name": "userScoreAtBorrow",
          "type": "uint16"
        }
      ],
      "stateMutability": "view",
      "type": "function"
    },
    {
      "inputs": [
        {
          "internalType": "address",
          "name": "",
          "type": "address"
        },
        {
          "internalType": "uint64",
          "name": "",
          "type": "uint64"
        }
      ],
      "name": "crossChainScores",
      "outputs": [
        {
          "internalType": "uint16",
          "name": "overallScore",
          "type": "uint16"
        },
        {
          "internalType": "uint256",
          "name": "updatedAt",
          "type": "uint256"
        }
      ],
      "stateMutability": "view",
      "type": "function"
    },
    {
      "inputs": [
        {
          "internalType": "uint256",
          "name": "amount",
          "type": "uint256"
        },
        {
          "internalType": "uint256",
          "name": "lockDuration",
          "type": "uint256"
        }
      ],
      "name": "depositStake",
      "outputs": [],
      "stateMutability": "nonpayable",
      "type": "function"
    },
    {
      "inputs": [
        {
          "internalType": "address",
          "name": "user",
          "type": "address"
        }
      ],
      "name": "getAggregateCreditData",
      "outputs": [
        {
          "components": [
            {
              "internalType": "uint256",
              "name": "totalLoans",
              "type": "uint256"
            },
            {
              "internalType": "uint256",
              "name": "repaidLoans",
              "type": "uint256"
            },
            {
              "internalType": "uint256",
              "name": "liquidatedLoans",
              "type": "uint256"
            },
            {
              "internalType": "uint256",
              "name": "activeLoans",
              "type": "uint256"
            },
            {
              "internalType": "uint256",
              "name": "totalCollateralUsd18",
              "type": "uint256"
            },
            {
              "internalType": "uint256",
              "name": "totalBorrowedUsd18",
              "type": "uint256"
            },
            {
              "internalType": "uint256",
              "name": "maxLtvBorrowCount",
              "type": "uint256"
            },
            {
              "internalType": "uint256",
              "name": "firstSeen",
              "type": "uint256"
            },
            {
              "components": [
                {
                  "internalType": "bytes32",
                  "name": "credentialHash",
                  "type": "bytes32"
                },
                {
                  "internalType": "uint256",
                  "name": "verifiedAt",
                  "type": "uint256"
                },
                {
                  "internalType": "uint256",
                  "name": "expiresAt",
                  "type": "uint256"
                }
              ],
              "internalType": "struct CreditRegistryV3Upgradeable.KYCProof",
              "name": "kyc",
              "type": "tuple"
            },
            {
              "components": [
                {
                  "internalType": "uint256",
                  "name": "amount",
                  "type": "uint256"
                },
                {
                  "internalType": "uint256",
                  "name": "lockUntil",
                  "type": "uint256"
                }
              ],
              "internalType": "struct CreditRegistryV3Upgradeable.StakeInfo",
              "name": "stake",
              "type": "tuple"
            }
          ],
          "internalType": "struct CreditRegistryV3Upgradeable.AggregateCreditData",
          "name": "",
          "type": "tuple"
        }
      ],
      "stateMutability": "view",
      "type": "function"
    },
    {
      "inputs": [
        {
          "internalType": "address",
          "name": "user",
          "type": "address"
        },
        {
          "internalType": "uint64",
          "name": "chainSelector",
          "type": "uint64"
        }
      ],
      "name": "getCrossChainScore",
      "outputs": [
        {
          "components": [
            {
              "internalType": "uint16",
              "name": "overallScore",
              "type": "uint16"
            },
            {
              "internalType": "uint256",
              "name": "updatedAt",
              "type": "uint256"
            }
          ],
          "internalType": "struct CreditRegistryV3Upgradeable.CrossChainScore",
          "name": "",
          "type": "tuple"
        }
      ],
      "stateMutability": "view",
      "type": "function"
    },
    {
      "inputs": [
        {
          "internalType": "address",
          "name": "user",
          "type": "address"
        }
      ],
      "name": "getGovernanceActivity",
      "outputs": [
        {
          "components": [
            {
              "internalType": "uint256",
              "name": "voteCount",
              "type": "uint256"
            },
            {
              "internalType": "uint256",
              "name": "proposalCount",
              "type": "uint256"
            },
            {
              "internalType": "uint256",
              "name": "lastVoteTimestamp",
              "type": "uint256"
            }
          ],
          "internalType": "struct CreditRegistryV3Upgradeable.GovernanceActivity",
          "name": "",
          "type": "tuple"
        }
      ],
      "stateMutability": "view",
      "type": "function"
    },
    {
      "inputs": [
        {
          "internalType": "uint256",
          "name": "loanId",
          "type": "uint256"
        }
      ],
      "name": "getLoan",
      "outputs": [
        {
          "components": [
            {
              "internalType": "uint256",
              "name": "loanId",
              "type": "uint256"
            },
            {
              "internalType": "address",
              "name": "borrower",
              "type": "address"
            },
            {
              "internalType": "uint256",
              "name": "principalUsd18",
              "type": "uint256"
            },
            {
              "internalType": "uint256",
              "name": "repaidUsd18",
              "type": "uint256"
            },
            {
              "internalType": "uint256",
              "name": "timestamp",
              "type": "uint256"
            },
            {
              "internalType": "enum CreditRegistryV3Upgradeable.LoanStatus",
              "name": "status",
              "type": "uint8"
            },
            {
              "internalType": "address",
              "name": "lender",
              "type": "address"
            }
          ],
          "internalType": "struct CreditRegistryV3Upgradeable.LoanRecord",
          "name": "",
          "type": "tuple"
        }
      ],
      "stateMutability": "view",
      "type": "function"
    },
    {
      "inputs": [
        {
          "internalType": "address",
          "name": "user",
          "type": "address"
        }
      ],
      "name": "getUserCollateralAssets",
      "outputs": [
        {
          "internalType": "address[]",
          "name": "",
          "type": "address[]"
        }
      ],
      "stateMutability": "view",
      "type": "function"
    },
    {
      "inputs": [
        {
          "internalType": "address",
          "name": "borrower",
          "type": "address"
        }
      ],
      "name": "getUserLoans",
      "outputs": [
        {
          "internalType": "uint256[]",
          "name": "",
          "type": "uint256[]"
        }
      ],
      "stateMutability": "view",
      "type": "function"
    },
    {
      "inputs": [
        {
          "internalType": "address",
          "name": "",
          "type": "address"
        }
      ],
      "name": "governanceActivity",
      "outputs": [
        {
          "internalType": "uint256",
          "name": "voteCount",
          "type": "uint256"
        },
        {
          "internalType": "uint256",
          "name": "proposalCount",
          "type": "uint256"
        },
        {
          "internalType": "uint256",
          "name": "lastVoteTimestamp",
          "type": "uint256"
        }
      ],
      "stateMutability": "view",
      "type": "function"
    },
    {
      "inputs": [
        {
          "internalType": "address",
          "name": "_owner",
          "type": "address"
        },
        {
          "internalType": "address",
          "name": "_stakeToken",
          "type": "address"
        }
      ],
      "name": "initialize",
      "outputs": [],
      "stateMutability": "nonpayable",
      "type": "function"
    },
    {
      "inputs": [
        {
          "internalType": "uint256",
          "name": "",
          "type": "uint256"
        }
      ],
      "name": "loans",
      "outputs": [
        {
          "internalType": "uint256",
          "name": "loanId",
          "type": "uint256"
        },
        {
          "internalType": "address",
          "name": "borrower",
          "type": "address"
        },
        {
          "internalType": "uint256",
          "name": "principalUsd18",
          "type": "uint256"
        },
        {
          "internalType": "uint256",
          "name": "repaidUsd18",
          "type": "uint256"
        },
        {
          "internalType": "uint256",
          "name": "timestamp",
          "type": "uint256"
        },
        {
          "internalType": "enum CreditRegistryV3Upgradeable.LoanStatus",
          "name": "status",
          "type": "uint8"
        },
        {
          "internalType": "address",
          "name": "lender",
          "type": "address"
        }
      ],
      "stateMutability": "view",
      "type": "function"
    },
    {
      "inputs": [],
      "name": "nextLoanId",
      "outputs": [
        {
          "internalType": "uint256",
          "name": "",
          "type": "uint256"
        }
      ],
      "stateMutability": "view",
      "type": "function"
    },
    {
      "inputs": [],
      "name": "owner",
      "outputs": [
        {
          "internalType": "address",
          "name": "",
          "type": "address"
        }
      ],
      "stateMutability": "view",
      "type": "function"
    },
    {
      "inputs": [],
      "name": "proxiableUUID",
      "outputs": [
        {
          "internalType": "bytes32",
          "name": "",
          "type": "bytes32"
        }
      ],
      "stateMutability": "view",
      "type": "function"
    },
    {
      "inputs": [
        {
          "internalType": "address",
          "name": "user",
          "type": "address"
        },
        {
          "internalType": "uint64",
          "name": "sourceChainSelector",
          "type": "uint64"
        },
        {
          "internalType": "uint16",
          "name": "score",
          "type": "uint16"
        }
      ],
      "name": "receiveCrossChainScore",
      "outputs": [],
      "stateMutability": "nonpayable",
      "type": "function"
    },
    {
      "inputs": [
        {
          "internalType": "uint256",
          "name": "loanId",
          "type": "uint256"
        },
        {
          "internalType": "address",
          "name": "collateralToken",
          "type": "address"
        },
        {
          "internalType": "uint256",
          "name": "collateralValueUsd18",
          "type": "uint256"
        },
        {
          "internalType": "uint16",
          "name": "userScore",
          "type": "uint16"
        }
      ],
      "name": "recordCollateralData",
      "outputs": [],
      "stateMutability": "nonpayable",
      "type": "function"
    },
    {
      "inputs": [
        {
          "internalType": "address",
          "name": "user",
          "type": "address"
        },
        {
          "internalType": "bytes32",
          "name": "credentialHash",
          "type": "bytes32"
        },
        {
          "internalType": "uint256",
          "name": "expiresAt",
          "type": "uint256"
        },
        {
          "internalType": "bytes",
          "name": "proof",
          "type": "bytes"
        }
      ],
      "name": "recordKYCProof",
      "outputs": [],
      "stateMutability": "nonpayable",
      "type": "function"
    },
    {
      "inputs": [
        {
          "internalType": "address",
          "name": "proposer",
          "type": "address"
        },
        {
          "internalType": "uint256",
          "name": "proposalId",
          "type": "uint256"
        }
      ],
      "name": "recordProposal",
      "outputs": [],
      "stateMutability": "nonpayable",
      "type": "function"
    },
    {
      "inputs": [
        {
          "internalType": "address",
          "name": "voter",
          "type": "address"
        },
        {
          "internalType": "uint256",
          "name": "proposalId",
          "type": "uint256"
        }
      ],
      "name": "recordVote",
      "outputs": [],
      "stateMutability": "nonpayable",
      "type": "function"
    },
    {
      "inputs": [
        {
          "internalType": "uint256",
          "name": "loanId",
          "type": "uint256"
        },
        {
          "internalType": "uint256",
          "name": "recoveredUsd18",
          "type": "uint256"
        }
      ],
      "name": "registerLiquidation",
      "outputs": [],
      "stateMutability": "nonpayable",
      "type": "function"
    },
    {
      "inputs": [
        {
          "internalType": "address",
          "name": "borrower",
          "type": "address"
        },
        {
          "internalType": "uint256",
          "name": "principalUsd18",
          "type": "uint256"
        }
      ],
      "name": "registerLoan",
      "outputs": [
        {
          "internalType": "uint256",
          "name": "loanId",
          "type": "uint256"
        }
      ],
      "stateMutability": "nonpayable",
      "type": "function"
    },
    {
      "inputs": [
        {
          "internalType": "uint256",
          "name": "loanId",
          "type": "uint256"
        },
        {
          "internalType": "uint256",
          "name": "amountUsd18",
          "type": "uint256"
        }
      ],
      "name": "registerRepayment",
      "outputs": [],
      "stateMutability": "nonpayable",
      "type": "function"
    },
    {
      "inputs": [],
      "name": "renounceOwnership",
      "outputs": [],
      "stateMutability": "nonpayable",
      "type": "function"
    },
    {
      "inputs": [
        {
          "internalType": "address",
          "name": "sender",
          "type": "address"
        },
        {
          "internalType": "bool",
          "name": "allowed",
          "type": "bool"
        }
      ],
      "name": "setCCIPSenderAuthorization",
      "outputs": [],
      "stateMutability": "nonpayable",
      "type": "function"
    },
    {
      "inputs": [
        {
          "internalType": "address",
          "name": "governance",
          "type": "address"
        },
        {
          "internalType": "bool",
          "name": "allowed",
          "type": "bool"
        }
      ],
      "name": "setGovernanceAuthorization",
      "outputs": [],
      "stateMutability": "nonpayable",
      "type": "function"
    },
    {
      "inputs": [
        {
          "internalType": "address",
          "name": "lender",
          "type": "address"
        },
        {
          "internalType": "bool",
          "name": "allowed",
          "type": "bool"
        }
      ],
      "name": "setLenderAuthorization",
      "outputs": [],
      "stateMutability": "nonpayable",
      "type": "function"
    },
    {
      "inputs": [],
      "name": "stakeToken",
      "outputs": [
        {
          "internalType": "address",
          "name": "",
          "type": "address"
        }
      ],
      "stateMutability": "view",
      "type": "function"
    },
    {
      "inputs": [
        {
          "internalType": "address",
          "name": "newOwner",
          "type": "address"
        }
      ],
      "name": "transferOwnership",
      "outputs": [],
      "stateMutability": "nonpayable",
      "type": "function"
    },
    {
      "inputs": [
        {
          "internalType": "address",
          "name": "newImplementation",
          "type": "address"
        },
        {
          "internalType": "bytes",
          "name": "data",
          "type": "bytes"
        }
      ],
      "name": "upgradeToAndCall",
      "outputs": [],
      "stateMutability": "payable",
      "type": "function"
    },
    {
      "inputs": [
        {
          "internalType": "address",
          "name": "",
          "type": "address"
        },
        {
          "internalType": "uint256",
          "name": "",
          "type": "uint256"
        }
      ],
      "name": "userLoanIds",
      "outputs": [
        {
          "internalType": "uint256",
          "name": "",
          "type": "uint256"
        }
      ],
      "stateMutability": "view",
      "type": "function"
    },
    {
      "inputs": [],
      "name": "version",
      "outputs": [
        {
          "internalType": "string",
          "name": "",
          "type": "string"
        }
      ],
      "stateMutability": "pure",
      "type": "function"
    },
    {
      "inputs": [],
      "name": "withdrawStake",
      "outputs": [],
      "stateMutability": "nonpayable",
      "type": "function"
    }
  ],
  "bytecode": "0x60a0604052306080523480156200001557600080fd5b506200002062000026565b620000da565b7ff0c57e16840df040f15088dc2f81fe391c3923bec73e23a9662efc9c229c6a00805468010000000000000000900460ff1615620000775760405163f92ee8a960e01b815260040160405180910390fd5b80546001600160401b0390811614620000d75780546001600160401b0319166001600160401b0390811782556040519081527fc7f505b2f371ae2175ee4913f4499e1f2633a7b5936321eed1cdaeb6115181d29060200160405180910390a15b50565b608051612e096200010460003960008181611fe80152818161201101526121570152612e096000f3fe6080604052600436106102255760003560e01c8063715018a611610123578063a446b900116100ab578063e1ec3c681161006f578063e1ec3c6814610804578063eb905ce81461087d578063f2ecc2b514610933578063f2fde38b14610953578063fcc230041461097357600080fd5b8063a446b9001461075e578063ad3cb1cc1461077e578063bed9d861146107af578063c45831a9146107c4578063dcce2e08146107e457600080fd5b806387c51459116100f257806387c51459146106ab5780638da5cb5b146106c15780638ee0b0f5146106fe5780638ef6dce91461071e578063999a2f401461073e57600080fd5b8063715018a6146105e65780637644dd17146105fb5780637ec59eef1461062b57806386160a161461064b57600080fd5b80634d35593c116101b157806351ed6a301161017557806351ed6a30146104b557806352d1902d146104ed57806354fd4d50146105025780635bb2376e1461053957806369cde9d71461056657600080fd5b80634d35593c146104085780634db332ba146104285780634f1ef28614610455578063504006ca1461046857806351264e3f1461049557600080fd5b80632c287f98116101f85780632c287f981461031b578063308cc5381461035b57806340c7e39d1461037b578063485cc955146103ba57806348defde3146103da57600080fd5b806302bf321f1461022a57806308a869ed146102605780630a97bde4146102825780630d9439c1146102c4575b600080fd5b34801561023657600080fd5b5061024a610245366004612610565b6109a3565b604051610257919061262b565b60405180910390f35b34801561026c57600080fd5b5061028061027b36600461266f565b610a0f565b005b34801561028e57600080fd5b506102a261029d366004612610565b610b2c565b6040805182518152602080840151908201529181015190820152606001610257565b3480156102d057600080fd5b506103006102df366004612610565b60076020526000908152604090208054600182015460029092015490919083565b60408051938452602084019290925290820152606001610257565b34801561032757600080fd5b5061034b610336366004612610565b600b6020526000908152604090205460ff1681565b6040519015158152602001610257565b34801561036757600080fd5b5061028061037636600461272d565b610b92565b34801561038757600080fd5b5061039b610396366004612770565b610c8e565b60408051825161ffff1681526020928301519281019290925201610257565b3480156103c657600080fd5b506102806103d53660046127a3565b610ce8565b3480156103e657600080fd5b506103fa6103f53660046127cd565b610e29565b604051908152602001610257565b34801561041457600080fd5b506102806104233660046127f7565b610e5a565b34801561043457600080fd5b50610448610443366004612610565b610fd6565b6040516102579190612819565b6102806104633660046128c9565b61109a565b34801561047457600080fd5b5061048861048336600461298b565b6110b5565b60405161025791906129dc565b3480156104a157600080fd5b506102806104b0366004612a50565b611166565b3480156104c157600080fd5b506005546104d5906001600160a01b031681565b6040516001600160a01b039091168152602001610257565b3480156104f957600080fd5b506103fa6111ce565b34801561050e57600080fd5b506040805180820190915260058152640332e302e360dc1b60208201525b6040516102579190612aab565b34801561054557600080fd5b50610559610554366004612610565b6111eb565b6040516102579190612ade565b34801561057257600080fd5b506105b861058136600461298b565b600360208190526000918252604090912080546001820154600283015492909301546001600160a01b0390911692919061ffff1684565b604080516001600160a01b03909516855260208501939093529183015261ffff166060820152608001610257565b3480156105f257600080fd5b50610280611260565b34801561060757600080fd5b5061034b610616366004612610565b60096020526000908152604090205460ff1681565b34801561063757600080fd5b506102806106463660046127f7565b611274565b34801561065757600080fd5b50610691610666366004612770565b60066020908152600092835260408084209091529082529020805460019091015461ffff9091169082565b6040805161ffff9093168352602083019190915201610257565b3480156106b757600080fd5b506103fa60005481565b3480156106cd57600080fd5b507f9016d09d72d40fdae2fd8ceac6b6234c7706214fd39c1cd1e609a0528c199300546001600160a01b03166104d5565b34801561070a57600080fd5b50610280610719366004612a50565b61140e565b34801561072a57600080fd5b506102806107393660046127f7565b61146e565b34801561074a57600080fd5b506103fa6107593660046127cd565b6115d6565b34801561076a57600080fd5b506102806107793660046127cd565b6118b2565b34801561078a57600080fd5b5061052c604051806040016040528060058152602001640352e302e360dc1b81525081565b3480156107bb57600080fd5b5061028061197e565b3480156107d057600080fd5b506102806107df3660046127cd565b611aec565b3480156107f057600080fd5b506102806107ff366004612b1f565b611bb1565b34801561081057600080fd5b5061086a61081f36600461298b565b60016020819052600091825260409091208054918101546002820154600383015460048401546005909401546001600160a01b0393841694929391929160ff82169161010090041687565b6040516102579796959493929190612b65565b34801561088957600080fd5b5061091d610898366004612610565b600860208181526000928352604092839020805460018201546002830154600384015460048501546005860154600687015460078801548b51606081018d529a8901548b5260098901548b8b0152600a8901548b8d01528b51808d01909c52600b8901548c52600c90980154988b01989098529498939792969195909493919290918a565b6040516102579a99989796959493929190612bb4565b34801561093f57600080fd5b5061028061094e366004612a50565b611e6f565b34801561095f57600080fd5b5061028061096e366004612610565b611ecf565b34801561097f57600080fd5b5061034b61098e366004612610565b600a6020526000908152604090205460ff1681565b6001600160a01b038116600090815260026020908152604091829020805483518184028101840190945280845260609392830182828015610a0357602002820191906000526020600020905b8154815260200190600101908083116109ef575b50505050509050919050565b610a17611f0d565b6001600160a01b038516610a615760405162461bcd60e51b815260206004820152600c60248201526b24b73b30b634b2103ab9b2b960a11b60448201526064015b60405180910390fd5b428311610aa25760405162461bcd60e51b815260206004820152600f60248201526e105b1c9958591e48195e1c1a5c9959608a1b6044820152606401610a58565b6001600160a01b0385166000818152600860208181526040928390208351606081018552898152428184018190529085018990529281018990556009810192909255600a820187905582518881529081018790529092917ff79bdf1b7d434a5250254c74d2900f9edaf4d76396642ddaddcb2d0e65255868910160405180910390a2505050505050565b610b5060405180606001604052806000815260200160008152602001600081525090565b506001600160a01b0316600090815260076020908152604091829020825160608101845281548152600182015492810192909252600201549181019190915290565b336000908152600a602052604090205460ff16610bf15760405162461bcd60e51b815260206004820152601a60248201527f4e6f7420617574686f72697a656420434349502073656e6465720000000000006044820152606401610a58565b60408051808201825261ffff8381168083524260208085018281526001600160a01b038a1660008181526006845288812067ffffffffffffffff8c16808352908552908990209751885461ffff191697169690961787559051600190960195909555855192835282015290927f86b1a1128d1675cb8789d3c397aa7ced426435a7255ef0d2bb8f32957a5ecb6491015b60405180910390a3505050565b604080518082018252600080825260209182018190526001600160a01b03851681526006825282812067ffffffffffffffff8516825282528290208251808401909352805461ffff16835260010154908201525b92915050565b7ff0c57e16840df040f15088dc2f81fe391c3923bec73e23a9662efc9c229c6a008054600160401b810460ff16159067ffffffffffffffff16600081158015610d2e5750825b905060008267ffffffffffffffff166001148015610d4b5750303b155b905081158015610d59575080155b15610d775760405163f92ee8a960e01b815260040160405180910390fd5b845467ffffffffffffffff191660011785558315610da157845460ff60401b1916600160401b1785555b610daa87611f68565b610db2611f79565b610dba611f89565b600580546001600160a01b0319166001600160a01b03881617905560016000558315610e2057845460ff60401b19168555604051600181527fc7f505b2f371ae2175ee4913f4499e1f2633a7b5936321eed1cdaeb6115181d29060200160405180910390a15b50505050505050565b60026020528160005260406000208181548110610e4557600080fd5b90600052602060002001600091509150505481565b3360009081526009602052604090205460ff16610e895760405162461bcd60e51b8152600401610a5890612c2e565b610e91611f91565b600082815260016020819052604090912090600582015460ff166003811115610ebc57610ebc6129a4565b14610ed95760405162461bcd60e51b8152600401610a5890612c5d565b60058101805460ff1916600390811790915581018054839190600090610f00908490612c9c565b909155505060018101546001600160a01b031660009081526008602052604081206002810180549192610f3283612caf565b9091555050600381018054906000610f4983612cc8565b91905055508160020154816005016000828254610f669190612cdf565b9091555050600182015460408051858152426020820152339287926001600160a01b03909116917fc9f19e0158ee81ee65e2efd94386349a13bc4f2957e0b9eacaef4a8acd181d0f91015b60405180910390a45050610fd26001600080516020612db483398151915255565b5050565b610fde61250b565b506001600160a01b031660009081526008602081815260409283902083516101408101855281548152600182015481840152600282015481860152600382015460608083019190915260048301546080830152600583015460a0830152600683015460c0830152600783015460e083015285519081018652938201548452600982015484840152600a820154848601526101008101939093528351808501909452600b8101548452600c01549083015261012081019190915290565b6110a2611fdd565b6110ab82612082565b610fd2828261208a565b6110bd61259d565b600082815260016020818152604092839020835160e08101855281548152928101546001600160a01b031691830191909152600281015492820192909252600380830154606083015260048301546080830152600583015491929160a084019160ff90911690811115611132576111326129a4565b6003811115611143576111436129a4565b81526005919091015461010090046001600160a01b031660209091015292915050565b61116e611f0d565b6001600160a01b0382166000818152600b6020908152604091829020805460ff191685151590811790915591519182527faf3b5a9cdec6c86041c875d4433b97a76f4ba0faa73ee88c830c699a3d76ef0c91015b60405180910390a25050565b60006111d861214c565b50600080516020612d9483398151915290565b6001600160a01b038116600090815260046020908152604091829020805483518184028101840190945280845260609392830182828015610a0357602002820191906000526020600020905b81546001600160a01b031681526001909101906020018083116112375750505050509050919050565b611268611f0d565b6112726000612195565b565b61127c611f91565b600082116112bd5760405162461bcd60e51b815260206004820152600e60248201526d125b9d985b1a5908185b5bdd5b9d60921b6044820152606401610a58565b62278d008110156112fe5760405162461bcd60e51b815260206004820152600b60248201526a4d696e203330206461797360a81b6044820152606401610a58565b6005546040516323b872dd60e01b8152336004820152306024820152604481018490526001600160a01b03909116906323b872dd906064016020604051808303816000875af1158015611355573d6000803e3d6000fd5b505050506040513d601f19601f820116820180604052508101906113799190612cf2565b50336000908152600860205260408120600b810180549192859261139e908490612c9c565b909155506113ae90508242612c9c565b600c820181905560405133917f05cce4a371bf9816b1a7594f1d76c98eba4ed025ff3e471234ae598f17899bd4916113ee91878252602082015260400190565b60405180910390a250610fd26001600080516020612db483398151915255565b611416611f0d565b6001600160a01b0382166000818152600a6020908152604091829020805460ff191685151590811790915591519182527f70c00f8b1add5e4221a3aa6b3a55a3a0746ddb7c4c9a7f23187f816c56ac2bad91016111c2565b3360009081526009602052604090205460ff1661149d5760405162461bcd60e51b8152600401610a5890612c2e565b6114a5611f91565b600082815260016020819052604090912090600582015460ff1660038111156114d0576114d06129a4565b146114ed5760405162461bcd60e51b8152600401610a5890612c5d565b818160030160008282546115019190612c9c565b909155505060018101546001600160a01b03166000908152600860205260409020600282015460038301541061158c5760058201805460ff1916600217905560018101805490600061155283612caf565b909155505060038101805490600061156983612cc8565b919050555081600201548160050160008282546115869190612cdf565b90915550505b600182015460408051858152426020820152339287926001600160a01b03909116917fd393845a15e253c2056008d7581a313611dad1db01b660bb2e4e4a09dd22b3539101610fb1565b3360009081526009602052604081205460ff166116055760405162461bcd60e51b8152600401610a5890612c2e565b61160d611f91565b6001600160a01b0383166116565760405162461bcd60e51b815260206004820152601060248201526f24b73b30b634b2103137b93937bbb2b960811b6044820152606401610a58565b6000821161169a5760405162461bcd60e51b8152602060048201526011602482015270125b9d985b1a59081c1c9a5b98da5c185b607a1b6044820152606401610a58565b6000805490806116a983612caf565b909155506040805160e0810182528281526001600160a01b0386811660208084019182528385018881526000606086018181524260808801908152600160a089018181523360c08b01528b8552958190529890922087518155945185890180546001600160a01b031916919097161790955590516002840155925160038084019190915592516004830155516005820180549697509395919490939260ff1990921691849081111561175d5761175d6129a4565b021790555060c0919091015160059091018054610100600160a81b0319166101006001600160a01b039384160217905583166000818152600260209081526040808320805460018101825590845282842001859055928252600890529081208054909182906117cb83612caf565b90915550506003810180549060006117e283612caf565b9190505550828160050160008282546117fb9190612c9c565b909155505060078101546000036118535742600782018190556040519081526001600160a01b038516907f786c11af1c6b4162ea93236e732e32873d8ac3a6ea0d1ae32b38840ecd375a2a9060200160405180910390a25b60408051848152426020820152339184916001600160a01b038816917f8f4051137ee17dad566f459b318cc7bf9781d5afa1cd9b5262c2b1231b3f2e85910160405180910390a450610ce26001600080516020612db483398151915255565b336000908152600b602052604090205460ff1661190d5760405162461bcd60e51b81526020600482015260196024820152784e6f7420617574686f72697a656420676f7665726e616e636560381b6044820152606401610a58565b6001600160a01b038216600090815260076020526040812080549091829061193483612caf565b919050555042816002018190555081836001600160a01b03167f30befe21dd895620c3a73403f6e63aea5c3c6729202dbdc8eef2e8f8bd78de8042604051610c8191815260200190565b611986611f91565b336000908152600860205260409020600b8101546119d15760405162461bcd60e51b81526020600482015260086024820152674e6f207374616b6560c01b6044820152606401610a58565b600c810154421015611a145760405162461bcd60e51b815260206004820152600c60248201526b14dd1a5b1b081b1bd8dad95960a21b6044820152606401610a58565b600b81018054600091829055600c83019190915560055460405163a9059cbb60e01b8152336004820152602481018390526001600160a01b039091169063a9059cbb906044016020604051808303816000875af1158015611a79573d6000803e3d6000fd5b505050506040513d601f19601f82011682018060405250810190611a9d9190612cf2565b5060405181815233907f8108595eb6bad3acefa9da467d90cc2217686d5c5ac85460f8b7849c840645fc9060200160405180910390a250506112726001600080516020612db483398151915255565b336000908152600b602052604090205460ff16611b475760405162461bcd60e51b81526020600482015260196024820152784e6f7420617574686f72697a656420676f7665726e616e636560381b6044820152606401610a58565b6001600160a01b03821660009081526007602052604081206001810180549192611b7083612caf565b919050555081836001600160a01b03167f831900954074f7455449f3209f747f130bf3b7cda14d3f736f158370ffc5140042604051610c8191815260200190565b3360009081526009602052604090205460ff16611be05760405162461bcd60e51b8152600401610a5890612c2e565b611be8611f91565b6000848152600160208181526040808420815160e08101835281548152938101546001600160a01b031692840192909252600282015490830152600380820154606084015260048201546080840152600582015460a084019160ff90911690811115611c5657611c566129a4565b6003811115611c6757611c676129a4565b81526005919091015461010090046001600160a01b0316602090910152905060018160a001516003811115611c9e57611c9e6129a4565b14611cbb5760405162461bcd60e51b8152600401610a5890612c5d565b604080516080810182526001600160a01b03868116825260208083018781528585015184860190815261ffff8881166060870190815260008d81526003808752989020965187546001600160a01b031916961695909517865591516001860155516002850155915192909301805461ffff191692909116919091179055810151611d459085612206565b611d8e576020818101516001600160a01b0390811660009081526004835260408120805460018101825590825292902090910180546001600160a01b0319169186169190911790555b6020808201516001600160a01b0316600090815260089091526040812060048101805491928692611dc0908490612c9c565b909155505060408201516000908590611dda906064612d0f565b611de49190612d26565b905060508110611e0657600682018054906000611e0083612caf565b91905055505b6040805186815261ffff861660208201526001600160a01b0388169189917f9441d3414c1707a23ed1588ab029d3d4c740bf06fc0163357b45cd352f990f70910160405180910390a3505050611e696001600080516020612db483398151915255565b50505050565b611e77611f0d565b6001600160a01b038216600081815260096020908152604091829020805460ff191685151590811790915591519182527f854b7acf01e906a6a59a420e42dbfeb0c32d87790e2a7f4779581d899aed81d191016111c2565b611ed7611f0d565b6001600160a01b038116611f0157604051631e4fbdf760e01b815260006004820152602401610a58565b611f0a81612195565b50565b33611f3f7f9016d09d72d40fdae2fd8ceac6b6234c7706214fd39c1cd1e609a0528c199300546001600160a01b031690565b6001600160a01b0316146112725760405163118cdaa760e01b8152336004820152602401610a58565b611f706122da565b611f0a81612323565b611f816122da565b61127261232b565b6112726122da565b600080516020612db4833981519152805460011901611fc357604051633ee5aeb560e01b815260040160405180910390fd5b60029055565b6001600080516020612db483398151915255565b306001600160a01b037f000000000000000000000000000000000000000000000000000000000000000016148061206457507f00000000000000000000000000000000000000000000000000000000000000006001600160a01b0316612058600080516020612d94833981519152546001600160a01b031690565b6001600160a01b031614155b156112725760405163703e46dd60e11b815260040160405180910390fd5b611f0a611f0d565b816001600160a01b03166352d1902d6040518163ffffffff1660e01b8152600401602060405180830381865afa9250505080156120e4575060408051601f3d908101601f191682019092526120e191810190612d48565b60015b61210c57604051634c9c8ce360e01b81526001600160a01b0383166004820152602401610a58565b600080516020612d94833981519152811461213d57604051632a87526960e21b815260048101829052602401610a58565b6121478383612333565b505050565b306001600160a01b037f000000000000000000000000000000000000000000000000000000000000000016146112725760405163703e46dd60e11b815260040160405180910390fd5b7f9016d09d72d40fdae2fd8ceac6b6234c7706214fd39c1cd1e609a0528c19930080546001600160a01b031981166001600160a01b03848116918217845560405192169182907f8be0079c531659141344cd1fd0a4f28419497f9722a3daafe3b4186f6b6457e090600090a3505050565b6001600160a01b03821660009081526004602090815260408083208054825181850281018501909352808352849383018282801561226d57602002820191906000526020600020905b81546001600160a01b0316815260019091019060200180831161224f575b5050505050905060005b81518110156122cf57836001600160a01b031682828151811061229c5761229c612d61565b60200260200101516001600160a01b0316036122bd57600192505050610ce2565b806122c781612caf565b915050612277565b506000949350505050565b7ff0c57e16840df040f15088dc2f81fe391c3923bec73e23a9662efc9c229c6a0054600160401b900460ff1661127257604051631afcd79f60e31b815260040160405180910390fd5b611ed76122da565b611fc96122da565b61233c82612389565b6040516001600160a01b038316907fbc7cd75a20ee27fd9adebab32041f755214dbc6bffa90cc0225b39da2e5c2d3b90600090a28051156123815761214782826123ee565b610fd2612464565b806001600160a01b03163b6000036123bf57604051634c9c8ce360e01b81526001600160a01b0382166004820152602401610a58565b600080516020612d9483398151915280546001600160a01b0319166001600160a01b0392909216919091179055565b6060600080846001600160a01b03168460405161240b9190612d77565b600060405180830381855af49150503d8060008114612446576040519150601f19603f3d011682016040523d82523d6000602084013e61244b565b606091505b509150915061245b858383612483565b95945050505050565b34156112725760405163b398979f60e01b815260040160405180910390fd5b60608261249857612493826124e2565b6124db565b81511580156124af57506001600160a01b0384163b155b156124d857604051639996b31560e01b81526001600160a01b0385166004820152602401610a58565b50805b9392505050565b8051156124f25780518082602001fd5b604051630a12f52160e11b815260040160405180910390fd5b604051806101400160405280600081526020016000815260200160008152602001600081526020016000815260200160008152602001600081526020016000815260200161257660405180606001604052806000801916815260200160008152602001600081525090565b8152602001612598604051806040016040528060008152602001600081525090565b905290565b6040518060e001604052806000815260200160006001600160a01b03168152602001600081526020016000815260200160008152602001600060038111156125e7576125e76129a4565b8152600060209091015290565b80356001600160a01b038116811461260b57600080fd5b919050565b60006020828403121561262257600080fd5b6124db826125f4565b6020808252825182820181905260009190848201906040850190845b8181101561266357835183529284019291840191600101612647565b50909695505050505050565b60008060008060006080868803121561268757600080fd5b612690866125f4565b94506020860135935060408601359250606086013567ffffffffffffffff808211156126bb57600080fd5b818801915088601f8301126126cf57600080fd5b8135818111156126de57600080fd5b8960208285010111156126f057600080fd5b9699959850939650602001949392505050565b803567ffffffffffffffff8116811461260b57600080fd5b803561ffff8116811461260b57600080fd5b60008060006060848603121561274257600080fd5b61274b846125f4565b925061275960208501612703565b91506127676040850161271b565b90509250925092565b6000806040838503121561278357600080fd5b61278c836125f4565b915061279a60208401612703565b90509250929050565b600080604083850312156127b657600080fd5b6127bf836125f4565b915061279a602084016125f4565b600080604083850312156127e057600080fd5b6127e9836125f4565b946020939093013593505050565b6000806040838503121561280a57600080fd5b50508035926020909101359150565b60006101a082019050825182526020830151602083015260408301516040830152606083015160608301526080830151608083015260a083015160a083015260c083015160c083015260e083015160e083015261010080840151612893828501828051825260208082015190830152604090810151910152565b505061012092909201518051610160830152602001516101809091015290565b634e487b7160e01b600052604160045260246000fd5b600080604083850312156128dc57600080fd5b6128e5836125f4565b9150602083013567ffffffffffffffff8082111561290257600080fd5b818501915085601f83011261291657600080fd5b813581811115612928576129286128b3565b604051601f8201601f19908116603f01168101908382118183101715612950576129506128b3565b8160405282815288602084870101111561296957600080fd5b8260208601602083013760006020848301015280955050505050509250929050565b60006020828403121561299d57600080fd5b5035919050565b634e487b7160e01b600052602160045260246000fd5b600481106129d857634e487b7160e01b600052602160045260246000fd5b9052565b600060e08201905082518252602083015160018060a01b03808216602085015260408501516040850152606085015160608501526080850151608085015260a08501519150612a2e60a08501836129ba565b8060c08601511660c0850152505092915050565b8015158114611f0a57600080fd5b60008060408385031215612a6357600080fd5b612a6c836125f4565b91506020830135612a7c81612a42565b809150509250929050565b60005b83811015612aa2578181015183820152602001612a8a565b50506000910152565b6020815260008251806020840152612aca816040850160208701612a87565b601f01601f19169190910160400192915050565b6020808252825182820181905260009190848201906040850190845b818110156126635783516001600160a01b031683529284019291840191600101612afa565b60008060008060808587031215612b3557600080fd5b84359350612b45602086016125f4565b925060408501359150612b5a6060860161271b565b905092959194509250565b8781526001600160a01b03878116602083015260408201879052606082018690526080820185905260e0820190612b9f60a08401866129ba565b80841660c08401525098975050505050505050565b60006101a0820190508b82528a60208301528960408301528860608301528760808301528660a08301528560c08301528460e0830152612c0c6101008301858051825260208082015190830152604090810151910152565b825161016083015260208301516101808301529b9a5050505050505050505050565b6020808252601590820152742737ba1030baba3437b934bd32b2103632b73232b960591b604082015260600190565b6020808252600f908201526e4c6f616e206e6f742061637469766560881b604082015260600190565b634e487b7160e01b600052601160045260246000fd5b80820180821115610ce257610ce2612c86565b600060018201612cc157612cc1612c86565b5060010190565b600081612cd757612cd7612c86565b506000190190565b81810381811115610ce257610ce2612c86565b600060208284031215612d0457600080fd5b81516124db81612a42565b8082028115828204841417610ce257610ce2612c86565b600082612d4357634e487b7160e01b600052601260045260246000fd5b500490565b600060208284031215612d5a57600080fd5b5051919050565b634e487b7160e01b600052603260045260246000fd5b60008251612d89818460208701612a87565b919091019291505056fe360894a13ba1a3210667c828492db98dca3e2076cc3735a920a3ca505d382bbc9b779b17422d0df92223018b32b4d1fa46e071723d6817e2486d003becc55f00a26469706673582212206dc3db02420049835600623239f301241f22e066fc4907a6b1fd852a82874d5164736f6c63430008140033",
  "linkReferences": {},
  "deployedLinkReferences": {}
}