{
  "_format": "hh-sol-artifact-1",
  "contractName": "CreditVaultV3",
  "sourceName": "contracts/CreditVaultV3.sol",
  "abi": [
    {
      "inputs": [
        {
          "internalType": "address payable",
          "name": "_registry",
          "type": "address"
        },
        {
          "internalType": "address",
          "name": "_oracle",
          "type": "address"
        },
        {
          "internalType": "address",
          "name": "_priceOracle",
          "type": "address"
        }
      ],
      "stateMutability": "nonpayable",
      "type": "constructor"
    },
    {
      "inputs": [
        {
          "internalType": "address",
          "name": "target",
          "type": "address"
        }
      ],
      "name": "AddressEmptyCode",
      "type": "error"
    },
    {
      "inputs": [
        {
          "internalType": "address",
          "name": "account",
          "type": "address"
        }
      ],
      "name": "AddressInsufficientBalance",
      "type": "error"
    },
    {
      "inputs": [],
      "name": "EnforcedPause",
      "type": "error"
    },
    {
      "inputs": [],
      "name": "ExpectedPause",
      "type": "error"
    },
    {
      "inputs": [],
      "name": "FailedInnerCall",
      "type": "error"
    },
    {
      "inputs": [
        {
          "internalType": "address",
          "name": "owner",
          "type": "address"
        }
      ],
      "name": "OwnableInvalidOwner",
      "type": "error"
    },
    {
      "inputs": [
        {
          "internalType": "address",
          "name": "account",
          "type": "address"
        }
      ],
      "name": "OwnableUnauthorizedAccount",
      "type": "error"
    },
    {
      "inputs": [],
      "name": "ReentrancyGuardReentrantCall",
      "type": "error"
    },
    {
      "inputs": [
        {
          "internalType": "address",
          "name": "token",
          "type": "address"
        }
      ],
      "name": "SafeERC20FailedOperation",
      "type": "error"
    },
    {
      "anonymous": false,
      "inputs": [
        {
          "indexed": true,
          "internalType": "uint256",
          "name": "loanId",
          "type": "uint256"
        },
        {
          "indexed": false,
          "internalType": "uint256",
          "name": "timestamp",
          "type": "uint256"
        }
      ],
      "name": "GracePeriodStarted",
      "type": "event"
    },
    {
      "anonymous": false,
      "inputs": [
        {
          "indexed": true,
          "internalType": "uint256",
          "name": "loanId",
          "type": "uint256"
        },
        {
          "indexed": true,
          "internalType": "address",
          "name": "borrower",
          "type": "address"
        },
        {
          "indexed": false,
          "internalType": "uint256",
          "name": "principalUsd18",
          "type": "uint256"
        },
        {
          "indexed": false,
          "internalType": "uint256",
          "name": "collateralAmount",
          "type": "uint256"
        }
      ],
      "name": "LoanCreated",
      "type": "event"
    },
    {
      "anonymous": false,
      "inputs": [
        {
          "indexed": true,
          "internalType": "uint256",
          "name": "loanId",
          "type": "uint256"
        },
        {
          "indexed": true,
          "internalType": "address",
          "name": "borrower",
          "type": "address"
        },
        {
          "indexed": true,
          "internalType": "address",
          "name": "liquidator",
          "type": "address"
        },
        {
          "indexed": false,
          "internalType": "uint256",
          "name": "collateralAmount",
          "type": "uint256"
        }
      ],
      "name": "LoanLiquidated",
      "type": "event"
    },
    {
      "anonymous": false,
      "inputs": [
        {
          "indexed": true,
          "internalType": "uint256",
          "name": "loanId",
          "type": "uint256"
        },
        {
          "indexed": true,
          "internalType": "address",
          "name": "borrower",
          "type": "address"
        },
        {
          "indexed": false,
          "internalType": "uint256",
          "name": "amountUsd18",
          "type": "uint256"
        }
      ],
      "name": "LoanRepaid",
      "type": "event"
    },
    {
      "anonymous": false,
      "inputs": [
        {
          "indexed": true,
          "internalType": "address",
          "name": "previousOwner",
          "type": "address"
        },
        {
          "indexed": true,
          "internalType": "address",
          "name": "newOwner",
          "type": "address"
        }
      ],
      "name": "OwnershipTransferred",
      "type": "event"
    },
    {
      "anonymous": false,
      "inputs": [
        {
          "indexed": false,
          "internalType": "address",
          "name": "account",
          "type": "address"
        }
      ],
      "name": "Paused",
      "type": "event"
    },
    {
      "anonymous": false,
      "inputs": [
        {
          "indexed": false,
          "internalType": "address",
          "name": "account",
          "type": "address"
        }
      ],
      "name": "Unpaused",
      "type": "event"
    },
    {
      "inputs": [],
      "name": "GRACE_BRONZE",
      "outputs": [
        {
          "internalType": "uint256",
          "name": "",
          "type": "uint256"
        }
      ],
      "stateMutability": "view",
      "type": "function"
    },
    {
      "inputs": [],
      "name": "GRACE_GOLD",
      "outputs": [
        {
          "internalType": "uint256",
          "name": "",
          "type": "uint256"
        }
      ],
      "stateMutability": "view",
      "type": "function"
    },
    {
      "inputs": [],
      "name": "GRACE_PLATINUM",
      "outputs": [
        {
          "internalType": "uint256",
          "name": "",
          "type": "uint256"
        }
      ],
      "stateMutability": "view",
      "type": "function"
    },
    {
      "inputs": [],
      "name": "GRACE_SILVER",
      "outputs": [
        {
          "internalType": "uint256",
          "name": "",
          "type": "uint256"
        }
      ],
      "stateMutability": "view",
      "type": "function"
    },
    {
      "inputs": [],
      "name": "INSURANCE_SHARE_BPS",
      "outputs": [
        {
          "internalType": "uint256",
          "name": "",
          "type": "uint256"
        }
      ],
      "stateMutability": "view",
      "type": "function"
    },
    {
      "inputs": [],
      "name": "LIQUIDATOR_SHARE_BPS",
      "outputs": [
        {
          "internalType": "uint256",
          "name": "",
          "type": "uint256"
        }
      ],
      "stateMutability": "view",
      "type": "function"
    },
    {
      "inputs": [],
      "name": "MIN_HEALTH_FACTOR",
      "outputs": [
        {
          "internalType": "uint256",
          "name": "",
          "type": "uint256"
        }
      ],
      "stateMutability": "view",
      "type": "function"
    },
    {
      "inputs": [
        {
          "internalType": "address",
          "name": "",
          "type": "address"
        }
      ],
      "name": "assets",
      "outputs": [
        {
          "internalType": "bool",
          "name": "allowed",
          "type": "bool"
        },
        {
          "internalType": "address",
          "name": "priceFeed",
          "type": "address"
        }
      ],
      "stateMutability": "view",
      "type": "function"
    },
    {
      "inputs": [
        {
          "internalType": "address",
          "name": "collateralToken",
          "type": "address"
        },
        {
          "internalType": "uint256",
          "name": "collateralAmount",
          "type": "uint256"
        },
        {
          "internalType": "uint256",
          "name": "principalUsd18",
          "type": "uint256"
        }
      ],
      "name": "borrow",
      "outputs": [
        {
          "internalType": "uint256",
          "name": "loanId",
          "type": "uint256"
        }
      ],
      "stateMutability": "nonpayable",
      "type": "function"
    },
    {
      "inputs": [
        {
          "internalType": "uint256",
          "name": "loanId",
          "type": "uint256"
        }
      ],
      "name": "calculateDebt",
      "outputs": [
        {
          "internalType": "uint256",
          "name": "",
          "type": "uint256"
        }
      ],
      "stateMutability": "view",
      "type": "function"
    },
    {
      "inputs": [],
      "name": "insurancePool",
      "outputs": [
        {
          "internalType": "address",
          "name": "",
          "type": "address"
        }
      ],
      "stateMutability": "view",
      "type": "function"
    },
    {
      "inputs": [
        {
          "internalType": "uint256",
          "name": "loanId",
          "type": "uint256"
        }
      ],
      "name": "liquidate",
      "outputs": [],
      "stateMutability": "nonpayable",
      "type": "function"
    },
    {
      "inputs": [],
      "name": "oracle",
      "outputs": [
        {
          "internalType": "contract ScoreOraclePhase3B",
          "name": "",
          "type": "address"
        }
      ],
      "stateMutability": "view",
      "type": "function"
    },
    {
      "inputs": [],
      "name": "owner",
      "outputs": [
        {
          "internalType": "address",
          "name": "",
          "type": "address"
        }
      ],
      "stateMutability": "view",
      "type": "function"
    },
    {
      "inputs": [],
      "name": "pause",
      "outputs": [],
      "stateMutability": "nonpayable",
      "type": "function"
    },
    {
      "inputs": [],
      "name": "paused",
      "outputs": [
        {
          "internalType": "bool",
          "name": "",
          "type": "bool"
        }
      ],
      "stateMutability": "view",
      "type": "function"
    },
    {
      "inputs": [],
      "name": "priceOracle",
      "outputs": [
        {
          "internalType": "contract ChainlinkPriceOracle",
          "name": "",
          "type": "address"
        }
      ],
      "stateMutability": "view",
      "type": "function"
    },
    {
      "inputs": [],
      "name": "registry",
      "outputs": [
        {
          "internalType": "contract CreditRegistryV3",
          "name": "",
          "type": "address"
        }
      ],
      "stateMutability": "view",
      "type": "function"
    },
    {
      "inputs": [],
      "name": "renounceOwnership",
      "outputs": [],
      "stateMutability": "nonpayable",
      "type": "function"
    },
    {
      "inputs": [
        {
          "internalType": "uint256",
          "name": "loanId",
          "type": "uint256"
        },
        {
          "internalType": "uint256",
          "name": "amountUsd18",
          "type": "uint256"
        }
      ],
      "name": "repay",
      "outputs": [],
      "stateMutability": "nonpayable",
      "type": "function"
    },
    {
      "inputs": [
        {
          "internalType": "address",
          "name": "token",
          "type": "address"
        },
        {
          "internalType": "address",
          "name": "priceFeed",
          "type": "address"
        },
        {
          "internalType": "bool",
          "name": "allowed",
          "type": "bool"
        }
      ],
      "name": "setAsset",
      "outputs": [],
      "stateMutability": "nonpayable",
      "type": "function"
    },
    {
      "inputs": [
        {
          "internalType": "address",
          "name": "_insurancePool",
          "type": "address"
        }
      ],
      "name": "setInsurancePool",
      "outputs": [],
      "stateMutability": "nonpayable",
      "type": "function"
    },
    {
      "inputs": [
        {
          "internalType": "address",
          "name": "newOwner",
          "type": "address"
        }
      ],
      "name": "transferOwnership",
      "outputs": [],
      "stateMutability": "nonpayable",
      "type": "function"
    },
    {
      "inputs": [],
      "name": "unpause",
      "outputs": [],
      "stateMutability": "nonpayable",
      "type": "function"
    },
    {
      "inputs": [
        {
          "internalType": "uint256",
          "name": "",
          "type": "uint256"
        }
      ],
      "name": "vaultLoans",
      "outputs": [
        {
          "internalType": "address",
          "name": "collateralToken",
          "type": "address"
        },
        {
          "internalType": "uint256",
          "name": "collateralAmount",
          "type": "uint256"
        },
        {
          "internalType": "uint16",
          "name": "aprBps",
          "type": "uint16"
        },
        {
          "internalType": "uint256",
          "name": "startTimestamp",
          "type": "uint256"
        },
        {
          "internalType": "uint256",
          "name": "graceStart",
          "type": "uint256"
        },
        {
          "internalType": "bool",
          "name": "exists",
          "type": "bool"
        }
      ],
      "stateMutability": "view",
      "type": "function"
    }
  ],
  "bytecode": "0x60806040523480156200001157600080fd5b5060405162001bf138038062001bf183398101604081905262000034916200011f565b33806200005b57604051631e4fbdf760e01b81526000600482015260240160405180910390fd5b6200006681620000b6565b5060018055600280546001600160a01b03948516610100026001600160a81b0319909116179055600380549284166001600160a01b03199384161790556004805491909316911617905562000173565b600080546001600160a01b038381166001600160a01b0319831681178455604051919092169283917f8be0079c531659141344cd1fd0a4f28419497f9722a3daafe3b4186f6b6457e09190a35050565b6001600160a01b03811681146200011c57600080fd5b50565b6000806000606084860312156200013557600080fd5b8351620001428162000106565b6020850151909350620001558162000106565b6040850151909250620001688162000106565b809150509250925092565b611a6e80620001836000396000f3fe608060405234801561001057600080fd5b50600436106101735760003560e01c80638da5cb5b116100de578063c41c22fc11610097578063d8aed14511610071578063d8aed14514610361578063dd94932814610374578063f11b81881461037e578063f2fde38b146103d057600080fd5b8063c41c22fc14610178578063cb0dc99d14610344578063d850342f1461035757600080fd5b80638da5cb5b146102e1578063a94c487e146102f2578063ab2adc0014610305578063b32a531414610318578063b5627e4214610322578063c1bce0b71461033157600080fd5b80635c975abb116101305780635c975abb146101f957806364ca1c691461020f578063715018a6146102a65780637b103999146102ae5780637dc0d1d0146102c65780638456cb59146102d957600080fd5b80631d1a54ce146101785780632630c12f1461019457806328cd5a99146101bf5780633f4ba83a146101d2578063415f1240146101dc5780634f0f29f4146101ef575b600080fd5b6101816101f481565b6040519081526020015b60405180910390f35b6004546101a7906001600160a01b031681565b6040516001600160a01b03909116815260200161018b565b6101816101cd366004611698565b6103e3565b6101da6103f4565b005b6101da6101ea366004611698565b610406565b6101816202a30081565b60025460ff16604051901515815260200161018b565b61026461021d366004611698565b6006602052600090815260409020805460018201546002830154600384015460048501546005909501546001600160a01b0390941694929361ffff90921692909160ff1686565b604080516001600160a01b039097168752602087019590955261ffff9093169385019390935260608401526080830191909152151560a082015260c00161018b565b6101da610579565b6002546101a79061010090046001600160a01b031681565b6003546101a7906001600160a01b031681565b6101da61058b565b6000546001600160a01b03166101a7565b6101da6103003660046116c6565b61059b565b6007546101a7906001600160a01b031681565b6101816201518081565b6101816710a741a46278000081565b61018161033f3660046116e3565b6105c5565b6101da610352366004611726565b610a29565b6101816203f48081565b6101da61036f366004611771565b610a92565b6101816201fa4081565b6103b161038c3660046116c6565b60056020526000908152604090205460ff81169061010090046001600160a01b031682565b6040805192151583526001600160a01b0390911660208301520161018b565b6101da6103de3660046116c6565b610d34565b60006103ee82610d6f565b92915050565b6103fc610ee8565b610404610f15565b565b61040e610f67565b610416610f91565b6000818152600660205260409020600581015460ff1661046e5760405162461bcd60e51b815260206004820152600e60248201526d131bd85b881b9bdd08199bdd5b9960921b60448201526064015b60405180910390fd5b600254604051632820036560e11b81526004810184905260009161010090046001600160a01b03169063504006ca9060240160e060405180830381865afa1580156104bd573d6000803e3d6000fd5b505050506040513d601f19601f820116820180604052508101906104e191906117da565b905060018160a0015160038111156104fb576104fb61185a565b1461053a5760405162461bcd60e51b815260206004820152600f60248201526e4c6f616e206e6f742061637469766560881b6044820152606401610465565b600061054b84848460200151610fb5565b90508061055a5750505061056d565b6105698484846020015161114b565b5050505b61057660018055565b50565b610581610ee8565b61040460006112db565b610593610ee8565b61040461132b565b6105a3610ee8565b600780546001600160a01b0319166001600160a01b0392909216919091179055565b60006105cf610f67565b6105d7610f91565b6001600160a01b03841660009081526005602052604090205460ff166106335760405162461bcd60e51b8152602060048201526011602482015270105cdcd95d081b9bdd08185b1b1bddd959607a1b6044820152606401610465565b600083116106755760405162461bcd60e51b815260206004820152600f60248201526e16995c9bc818dbdb1b185d195c985b608a1b6044820152606401610465565b600082116106b65760405162461bcd60e51b815260206004820152600e60248201526d16995c9bc81c1c9a5b98da5c185b60921b6044820152606401610465565b6003546040516331751b7f60e21b81523360048201526000916001600160a01b03169063c5d46dfc9060240160e060405180830381865afa1580156106ff573d6000803e3d6000fd5b505050506040513d601f19601f820116820180604052508101906107239190611893565b905060006107348260000151611368565b9050600061074287876113ae565b905061075261ffff831682611937565b61075d866064611937565b11156107a15760405162461bcd60e51b815260206004820152601360248201527222bc31b2b2b2399030b63637bbb2b210262a2b60691b6044820152606401610465565b6107b66001600160a01b038816333089611429565b60025460405163026668bd60e61b8152336004820152602481018790526101009091046001600160a01b03169063999a2f40906044016020604051808303816000875af115801561080b573d6000803e3d6000fd5b505050506040513d601f19601f8201168201806040525081019061082f919061194e565b6002548451604051631b99c5c160e31b8152600481018490526001600160a01b038b811660248301526044820186905261ffff9092166064820152929650610100909104169063dcce2e0890608401600060405180830381600087803b15801561089857600080fd5b505af11580156108ac573d6000803e3d6000fd5b50506040805160c0810182526001600160a01b038b81168252602082018b90526003548851845163fb4ceaa360e01b815261ffff90911660048201529295509285019350919091169063fb4ceaa390602401602060405180830381865afa15801561091b573d6000803e3d6000fd5b505050506040513d601f19601f8201168201806040525081019061093f9190611967565b61ffff90811682524260208084019190915260006040808501829052600160609586018190528a83526006845291819020865181546001600160a01b0319166001600160a01b0390911617815586840151928101929092558581015160028301805461ffff191691909516179093559284015160038401556080840151600484015560a0909301516005909201805460ff1916921515929092179091558051878152918201889052339186917f3373919ad665425d2cddb4072830e5935b6ee308440fa99b23383648da473bc0910160405180910390a3505050610a2260018055565b9392505050565b610a31610ee8565b60408051808201825291151582526001600160a01b0392831660208084019182529484166000908152600590955293209051815493516001600160a81b0319909416901515610100600160a81b031916176101009390921692909202179055565b610a9a610f67565b610aa2610f91565b6000828152600660205260409020600581015460ff16610af55760405162461bcd60e51b815260206004820152600e60248201526d131bd85b881b9bdd08199bdd5b9960921b6044820152606401610465565b600254604051632820036560e11b81526004810185905260009161010090046001600160a01b03169063504006ca9060240160e060405180830381865afa158015610b44573d6000803e3d6000fd5b505050506040513d601f19601f82011682018060405250810190610b6891906117da565b905060018160a001516003811115610b8257610b8261185a565b14610bc15760405162461bcd60e51b815260206004820152600f60248201526e4c6f616e206e6f742061637469766560881b6044820152606401610465565b60208101516001600160a01b03163314610c0c5760405162461bcd60e51b815260206004820152600c60248201526b2737ba103137b93937bbb2b960a11b6044820152606401610465565b6000610c1785610d6f565b905080841115610c5f5760405162461bcd60e51b8152602060048201526013602482015272105b5bdd5b9d08195e18d959591cc81919589d606a1b6044820152606401610465565b600254604051638ef6dce960e01b815260048101879052602481018690526101009091046001600160a01b031690638ef6dce990604401600060405180830381600087803b158015610cb057600080fd5b505af1158015610cc4573d6000803e3d6000fd5b50505050808410610ced5760018301548354610ced916001600160a01b03909116903390611496565b604051848152339086907f512d3e65b3e58c2187bb1872aa435dba5bd09c1c03823ba56ab70aac411e4a219060200160405180910390a3505050610d3060018055565b5050565b610d3c610ee8565b6001600160a01b038116610d6657604051631e4fbdf760e01b815260006004820152602401610465565b610576816112db565b600254604051632820036560e11b81526004810183905260009182916101009091046001600160a01b03169063504006ca9060240160e060405180830381865afa158015610dc1573d6000803e3d6000fd5b505050506040513d601f19601f82011682018060405250810190610de591906117da565b600084815260066020908152604091829020825160c08101845281546001600160a01b0316815260018083015493820193909352600282015461ffff169381019390935260038101546060840152600481015460808401526005015460ff16151560a0830152919250908260a001516003811115610e6557610e6561185a565b14610e74575060009392505050565b6000816060015142610e869190611982565b9050600064496cebb80082846040015161ffff168660400151610ea99190611937565b610eb39190611937565b610ebd9190611995565b90508360600151818560400151610ed491906119b7565b610ede9190611982565b9695505050505050565b6000546001600160a01b031633146104045760405163118cdaa760e01b8152336004820152602401610465565b610f1d6114cc565b6002805460ff191690557f5db9ee0a495bf2e6ff9c91a7834c1ba4fdd244a5e8aa4e537bd38aeae4b073aa335b6040516001600160a01b03909116815260200160405180910390a1565b600260015403610f8a57604051633ee5aeb560e01b815260040160405180910390fd5b6002600155565b60025460ff16156104045760405163d93c066560e01b815260040160405180910390fd5b600080610fc185610d6f565b84546001860154919250600091610fe1916001600160a01b0316906113ae565b6003546040516331751b7f60e21b81526001600160a01b0387811660048301529293506000929091169063c5d46dfc9060240160e060405180830381865afa158015611031573d6000803e3d6000fd5b505050506040513d601f19601f820116820180604052508101906110559190611893565b905060006110668260000151611368565b9050600061107582600a6119ca565b61ffff16905060006110878286611937565b611092876064611937565b11905080156110aa5760019650505050505050610a22565b60006110b985600001516114ef565b90508960040154600003611114574260048b018190556040519081528b907f850e821388cbf246fb93b12357651e23887c72f848742c21dbff137031b1356b9060200160405180910390a26000975050505050505050610a22565b808a6004015461112491906119b7565b421061113a576001975050505050505050610a22565b5060009a9950505050505050505050565b600182015482546001600160a01b0316600061271061116c6101f485611937565b6111769190611995565b905060006127106111896101f486611937565b6111939190611995565b905060006111a182846119b7565b905060006111af8287611982565b90506111c56001600160a01b0386163386611496565b6007546001600160a01b0316156111f0576007546111f0906001600160a01b03878116911685611496565b801561120a5761120a6001600160a01b0386168883611496565b600061121686846113ae565b60025460405163134d564f60e21b8152600481018d90526024810183905291925061010090046001600160a01b031690634d35593c90604401600060405180830381600087803b15801561126957600080fd5b505af115801561127d573d6000803e3d6000fd5b50505050336001600160a01b0316886001600160a01b03168b7fe4b3cb24da49cbaa1989989a720518b9c8c12f4a6e0d848853745d9271104b0f8a6040516112c791815260200190565b60405180910390a450505050505050505050565b600080546001600160a01b038381166001600160a01b0319831681178455604051919092169283917f8be0079c531659141344cd1fd0a4f28419497f9722a3daafe3b4186f6b6457e09190a35050565b611333610f91565b6002805460ff191660011790557f62e78cea01bee320cd4e420270b5ea74000d11b0c9f74754ebdbfc544b05a258610f4a3390565b6000605a8261ffff161061137e5750605a919050565b604b8261ffff161061139257506050919050565b603c8261ffff16106113a657506046919050565b506032919050565b600480546040516317a3625360e31b81526001600160a01b0385811693820193909352602481018490526000929091169063bd1b129890604401602060405180830381865afa158015611405573d6000803e3d6000fd5b505050506040513d601f19601f82011682018060405250810190610a22919061194e565b6040516001600160a01b0384811660248301528381166044830152606482018390526114909186918216906323b872dd906084015b604051602081830303815290604052915060e01b6020820180516001600160e01b03838183161783525050505061153d565b50505050565b6040516001600160a01b038381166024830152604482018390526114c791859182169063a9059cbb9060640161145e565b505050565b60025460ff1661040457604051638dfc202b60e01b815260040160405180910390fd5b6000605a8261ffff161061150757506203f480919050565b604b8261ffff161061151d57506202a300919050565b603c8261ffff161061153357506201fa40919050565b5062015180919050565b60006115526001600160a01b038416836115a0565b9050805160001415801561157757508080602001905181019061157591906119ec565b155b156114c757604051635274afe760e01b81526001600160a01b0384166004820152602401610465565b6060610a228383600084600080856001600160a01b031684866040516115c69190611a09565b60006040518083038185875af1925050503d8060008114611603576040519150601f19603f3d011682016040523d82523d6000602084013e611608565b606091505b5091509150610ede868383606082611628576116238261166f565b610a22565b815115801561163f57506001600160a01b0384163b155b1561166857604051639996b31560e01b81526001600160a01b0385166004820152602401610465565b5080610a22565b80511561167f5780518082602001fd5b604051630a12f52160e11b815260040160405180910390fd5b6000602082840312156116aa57600080fd5b5035919050565b6001600160a01b038116811461057657600080fd5b6000602082840312156116d857600080fd5b8135610a22816116b1565b6000806000606084860312156116f857600080fd5b8335611703816116b1565b95602085013595506040909401359392505050565b801515811461057657600080fd5b60008060006060848603121561173b57600080fd5b8335611746816116b1565b92506020840135611756816116b1565b9150604084013561176681611718565b809150509250925092565b6000806040838503121561178457600080fd5b50508035926020909101359150565b60405160e0810167ffffffffffffffff811182821017156117c457634e487b7160e01b600052604160045260246000fd5b60405290565b80516117d5816116b1565b919050565b600060e082840312156117ec57600080fd5b6117f4611793565b825181526020830151611806816116b1565b8060208301525060408301516040820152606083015160608201526080830151608082015260a08301516004811061183d57600080fd5b60a082015261184e60c084016117ca565b60c08201529392505050565b634e487b7160e01b600052602160045260246000fd5b805161ffff811681146117d557600080fd5b805160ff811681146117d557600080fd5b600060e082840312156118a557600080fd5b6118ad611793565b6118b683611870565b81526118c460208401611882565b60208201526118d560408401611882565b60408201526118e660608401611882565b60608201526118f760808401611882565b608082015261190860a08401611882565b60a082015260c08301518060010b811461184e57600080fd5b634e487b7160e01b600052601160045260246000fd5b80820281158282048414176103ee576103ee611921565b60006020828403121561196057600080fd5b5051919050565b60006020828403121561197957600080fd5b610a2282611870565b818103818111156103ee576103ee611921565b6000826119b257634e487b7160e01b600052601260045260246000fd5b500490565b808201808211156103ee576103ee611921565b61ffff8181168382160190808211156119e5576119e5611921565b5092915050565b6000602082840312156119fe57600080fd5b8151610a2281611718565b6000825160005b81811015611a2a5760208186018101518583015201611a10565b50600092019182525091905056fea2646970667358221220792efaa507adff4831312529476cb6046243538bd374394448d5c6d79bca87a264736f6c63430008140033",
  "linkReferences": {},
  "deployedLinkReferences": {}
}