{"contracts/ScoreOraclePhase3.sol":{"ScoreOraclePhase3":{"abi":[{"inputs":[{"internalType":"address payable","name":"_registry","type":"address"}],"stateMutability":"nonpayable","type":"constructor"},{"inputs":[{"internalType":"address","name":"owner","type":"address"}],"name":"OwnableInvalidOwner","type":"error"},{"inputs":[{"internalType":"address","name":"account","type":"address"}],"name":"OwnableUnauthorizedAccount","type":"error"},{"anonymous":false,"inputs":[{"indexed":false,"internalType":"uint16","name":"baseAPR","type":"uint16"},{"indexed":false,"internalType":"uint16","name":"minAPR","type":"uint16"},{"indexed":false,"internalType":"uint16","name":"maxAPR","type":"uint16"}],"name":"APRConfigUpdated","type":"event"},{"anonymous":false,"inputs":[{"indexed":true,"internalType":"address","name":"previousOwner","type":"address"},{"indexed":true,"internalType":"address","name":"newOwner","type":"address"}],"name":"OwnershipTransferred","type":"event"},{"anonymous":false,"inputs":[{"indexed":true,"internalType":"address","name":"subject","type":"address"},{"indexed":false,"internalType":"uint8","name":"s1","type":"uint8"},{"indexed":false,"internalType":"uint8","name":"s2","type":"uint8"},{"indexed":false,"internalType":"int16","name":"s3","type":"int16"},{"indexed":false,"internalType":"uint8","name":"s4","type":"uint8"},{"indexed":false,"internalType":"uint8","name":"s5","type":"uint8"},{"indexed":false,"internalType":"uint16","name":"overall","type":"uint16"}],"name":"ScoreComputed","type":"event"},{"inputs":[],"name":"MAX_SCORE","outputs":[{"internalType":"uint8","name":"","type":"uint8"}],"stateMutability":"view","type":"function"},{"inputs":[],"name":"MIN_SCORE","outputs":[{"internalType":"uint8","name":"","type":"uint8"}],"stateMutability":"view","type":"function"},{"inputs":[],"name":"WEIGHT_COLLATERAL","outputs":[{"internalType":"uint8","name":"","type":"uint8"}],"stateMutability":"view","type":"function"},{"inputs":[],"name":"WEIGHT_CROSSCHAIN","outputs":[{"internalType":"uint8","name":"","type":"uint8"}],"stateMutability":"view","type":"function"},{"inputs":[],"name":"WEIGHT_PARTICIPATION","outputs":[{"internalType":"uint8","name":"","type":"uint8"}],"stateMutability":"view","type":"function"},{"inputs":[],"name":"WEIGHT_REPAYMENT","outputs":[{"internalType":"uint8","name":"","type":"uint8"}],"stateMutability":"view","type":"function"},{"inputs":[],"name":"WEIGHT_SYBIL","outputs":[{"internalType":"uint8","name":"","type":"uint8"}],"stateMutability":"view","type":"function"},{"inputs":[],"name":"baseAPR","outputs":[{"internalType":"uint16","name":"","type":"uint16"}],"stateMutability":"view","type":"function"},{"inputs":[{"internalType":"address","name":"subject","type":"address"}],"name":"computeScore","outputs":[{"components":[{"internalType":"uint8","name":"s1_repayment","type":"uint8"},{"internalType":"uint8","name":"s2_collateral","type":"uint8"},{"internalType":"int16","name":"s3_sybil","type":"int16"},{"internalType":"uint8","name":"s4_crosschain","type":"uint8"},{"internalType":"uint8","name":"s5_participation","type":"uint8"},{"internalType":"uint16","name":"overall","type":"uint16"}],"internalType":"struct ScoreOraclePhase3.ScoreBreakdown","name":"breakdown","type":"tuple"}],"stateMutability":"view","type":"function"},{"inputs":[{"internalType":"uint16","name":"overall","type":"uint16"}],"name":"getAPR","outputs":[{"internalType":"uint16","name":"aprBps","type":"uint16"}],"stateMutability":"view","type":"function"},{"inputs":[{"internalType":"uint16","name":"overall","type":"uint16"}],"name":"getScoreTier","outputs":[{"internalType":"string","name":"","type":"string"}],"stateMutability":"pure","type":"function"},{"inputs":[{"internalType":"address","name":"subject","type":"address"},{"internalType":"uint256","name":"maxAge","type":"uint256"}],"name":"hasRecentActivity","outputs":[{"internalType":"bool","name":"","type":"bool"}],"stateMutability":"view","type":"function"},{"inputs":[],"name":"maxAPR","outputs":[{"internalType":"uint16","name":"","type":"uint16"}],"stateMutability":"view","type":"function"},{"inputs":[],"name":"minAPR","outputs":[{"internalType":"uint16","name":"","type":"uint16"}],"stateMutability":"view","type":"function"},{"inputs":[],"name":"owner","outputs":[{"internalType":"address","name":"","type":"address"}],"stateMutability":"view","type":"function"},{"inputs":[],"name":"registry","outputs":[{"internalType":"contract CreditRegistryV2","name":"","type":"address"}],"stateMutability":"view","type":"function"},{"inputs":[],"name":"renounceOwnership","outputs":[],"stateMutability":"nonpayable","type":"function"},{"inputs":[{"internalType":"uint16","name":"_baseAPR","type":"uint16"},{"internalType":"uint16","name":"_minAPR","type":"uint16"},{"internalType":"uint16","name":"_maxAPR","type":"uint16"}],"name":"setAPRConfig","outputs":[],"stateMutability":"nonpayable","type":"function"},{"inputs":[{"internalType":"address payable","name":"_registry","type":"address"}],"name":"setRegistry","outputs":[],"stateMutability":"nonpayable","type":"function"},{"inputs":[{"internalType":"address","name":"newOwner","type":"address"}],"name":"transferOwnership","outputs":[],"stateMutability":"nonpayable","type":"function"}],"evm":{"bytecode":{"linkReferences":{},"object":"60806040526001805465ffffffffffff60a01b1916642ee00c801960a51b17905534801561002c57600080fd5b5060405161145438038061145483398101604081905261004b9161013a565b338061007257604051631e4fbdf760e01b8152600060048201526024015b60405180910390fd5b61007b816100ea565b506001600160a01b0381166100c55760405162461bcd60e51b815260206004820152601060248201526f496e76616c696420726567697374727960801b6044820152606401610069565b600180546001600160a01b0319166001600160a01b039290921691909117905561016a565b600080546001600160a01b038381166001600160a01b0319831681178455604051919092169283917f8be0079c531659141344cd1fd0a4f28419497f9722a3daafe3b4186f6b6457e09190a35050565b60006020828403121561014c57600080fd5b81516001600160a01b038116811461016357600080fd5b9392505050565b6112db806101796000396000f3fe608060405234801561001057600080fd5b506004361061012c5760003560e01c806386720f1f116100ad578063b0af0b9b11610071578063b0af0b9b14610264578063c5d46dfc1461026c578063e0e79dde146102de578063f2fde38b146102f3578063fb4ceaa31461030657600080fd5b806386720f1f146102105780638da5cb5b1461021857806394970a80146102295780639c0c87b514610231578063a91ee0dc1461025157600080fd5b806358ac0e80116100f457806358ac0e80146101ab57806370d7642b146101c0578063715018a6146101d55780637b103999146101dd5780638203b5fa1461020857600080fd5b8063231320011461013157806327ff62231461015957806340b892701461017357806353704f9a1461017b57806356db75cd146101a3575b600080fd5b61014461013f366004610e34565b610319565b60405190151581526020015b60405180910390f35b610161606481565b60405160ff9091168152602001610150565b610161600081565b60015461019090600160c01b900461ffff1681565b60405161ffff9091168152602001610150565b610161601981565b60015461019090600160a01b900461ffff1681565b6101d36101ce366004610e77565b6104e6565b005b6101d3610618565b6001546101f0906001600160a01b031681565b6040516001600160a01b039091168152602001610150565b610161600581565b610161600a81565b6000546001600160a01b03166101f0565b610161601481565b61024461023f366004610eba565b61062c565b6040516101509190610ed5565b6101d361025f366004610f23565b6106da565b610161602881565b61027f61027a366004610f23565b61074d565b6040516101509190600060c08201905060ff835116825260ff6020840151166020830152604083015160010b604083015260ff606084015116606083015260ff608084015116608083015261ffff60a08401511660a083015292915050565b60015461019090600160b01b900461ffff1681565b6101d3610301366004610f23565b6107ca565b610190610314366004610eba565b610808565b600154604051630e470e6560e21b81526001600160a01b038481166004830152600092839291169063391c399490602401602060405180830381865afa158015610367573d6000803e3d6000fd5b505050506040513d601f19601f8201168201806040525081019061038b9190610f40565b90508060000361039f5760009150506104e0565b6001546040516346dc972760e11b81526001600160a01b0386811660048301526000921690638db92e4e90602401600060405180830381865afa1580156103ea573d6000803e3d6000fd5b505050506040513d6000823e601f3d908101601f191682016040526104129190810190610fc9565b90508051600003610428576000925050506104e0565b6001805482516000926001600160a01b039092169163504006ca91859161044e91611085565b8151811061045e5761045e611098565b60200260200101516040518263ffffffff1660e01b815260040161048491815260200190565b60e060405180830381865afa1580156104a1573d6000803e3d6000fd5b505050506040513d601f19601f820116820180604052508101906104c591906110b9565b9050848160800151426104d89190611085565b111593505050505b92915050565b6104ee6108c1565b8261ffff168261ffff161061053c5760405162461bcd60e51b815260206004820152600f60248201526e24b73b30b634b21036b4b71020a82960891b60448201526064015b60405180910390fd5b8061ffff168361ffff16106105855760405162461bcd60e51b815260206004820152600f60248201526e24b73b30b634b21036b0bc1020a82960891b6044820152606401610533565b6001805463ffffffff60a01b1916600160a01b61ffff86811691820261ffff60b01b191692909217600160b01b8684169081029190911761ffff60c01b1916600160c01b93861693840217909355604080519182526020820193909352918201527f083bbb36b45a0d300dab404594d8a73dce5f9a8cb6281e44051e0d6b3276ee509060600160405180910390a1505050565b6106206108c1565b61062a60006108ee565b565b6060605a8261ffff161061065e575050604080518082019091526008815267506c6174696e756d60c01b602082015290565b604b8261ffff161061068a57505060408051808201909152600481526311dbdb1960e21b602082015290565b603c8261ffff16106106b857505060408051808201909152600681526529b4b63b32b960d11b602082015290565b505060408051808201909152600681526542726f6e7a6560d01b602082015290565b6106e26108c1565b6001600160a01b03811661072b5760405162461bcd60e51b815260206004820152601060248201526f496e76616c696420726567697374727960801b6044820152606401610533565b600180546001600160a01b0319166001600160a01b0392909216919091179055565b6040805160c081018252600080825260208201819052918101829052606081018290526080810182905260a08101919091526107888261093e565b60ff1681526032602082015261079d82610b45565b60010b604082015260006060820181905260808201526107bc81610d47565b61ffff1660a0820152919050565b6107d26108c1565b6001600160a01b0381166107fc57604051631e4fbdf760e01b815260006004820152602401610533565b610805816108ee565b50565b6000606461ffff8316111561084f5760405162461bcd60e51b815260206004820152600d60248201526c496e76616c69642073636f726560981b6044820152606401610533565b605a8261ffff16106108645750610190919050565b604b8261ffff16106108795750610258919050565b603c8261ffff161061088e5750610320919050565b602d8261ffff16106108a357506103e8919050565b601e8261ffff16106108b857506104b0919050565b506105dc919050565b6000546001600160a01b0316331461062a5760405163118cdaa760e01b8152336004820152602401610533565b600080546001600160a01b038381166001600160a01b0319831681178455604051919092169283917f8be0079c531659141344cd1fd0a4f28419497f9722a3daafe3b4186f6b6457e09190a35050565b6001546040516346dc972760e11b81526001600160a01b0383811660048301526000928392911690638db92e4e90602401600060405180830381865afa15801561098c573d6000803e3d6000fd5b505050506040513d6000823e601f3d908101601f191682016040526109b49190810190610fc9565b905080516000036109c85750603292915050565b8051600080805b8451811015610ad85760015485516000916001600160a01b03169063504006ca90889085908110610a0257610a02611098565b60200260200101516040518263ffffffff1660e01b8152600401610a2891815260200190565b60e060405180830381865afa158015610a45573d6000803e3d6000fd5b505050506040513d601f19601f82011682018060405250810190610a6991906110b9565b905060028160a001516003811115610a8357610a83611139565b03610a9a5783610a928161114f565b945050610ac5565b60038160a001516003811115610ab257610ab2611139565b03610ac55782610ac18161114f565b9350505b5080610ad08161114f565b9150506109cf565b50600083610ae7846064611168565b610af19190611195565b90506000610b00836014611168565b610b0a90836111a9565b90506000811215610b2357506000979650505050505050565b6064811315610b3a57506064979650505050505050565b979650505050505050565b600154604051630e470e6560e21b81526001600160a01b0383811660048301526000926095199284929091169063391c399490602401602060405180830381865afa158015610b98573d6000803e3d6000fd5b505050506040513d601f19601f82011682018060405250810190610bbc9190610f40565b905080600003610bd957610bd261012c836111a9565b9150610c4d565b6000610be58242611085565b905062278d00811015610c0557610bfe61012c846111a9565b9250610c4b565b6276a700811015610c1b57610bfe60c8846111a9565b62ed4e00811015610c3157610bfe6064846111a9565b6301e13380811015610c4b57610c486032846111a9565b92505b505b60015460405163c345315360e01b81526001600160a01b038681166004830152600092169063c3453153906024016040805180830381865afa158015610c97573d6000803e3d6000fd5b505050506040513d601f19601f82011682018060405250810190610cbb91906111d0565b9050683635c9adc5dea00000816000015110610ce357610cdc604b8461121f565b9250610d1e565b8051681b1ae4d6e2ef50000011610cff57610cdc60328461121f565b805168056bc75e2d6310000011610d1e57610d1b60198461121f565b92505b61012b19831215610d305761012b1992505b6064831315610d3e57606492505b50909392505050565b604081015160009060010b81811215610d5e575060005b6064811315610d6b575060645b60006064600560ff16856080015160ff16610d869190611247565b6060860151610d9a90600a9060ff16611247565b610da5601486611247565b6020880151610db99060199060ff16611247565b8851610dca9060289060ff16611247565b610dd4919061121f565b610dde919061121f565b610de8919061121f565b610df2919061121f565b610dfc9190611277565b90506000811215610e0b575060005b6064811315610e18575060645b9392505050565b6001600160a01b038116811461080557600080fd5b60008060408385031215610e4757600080fd5b8235610e5281610e1f565b946020939093013593505050565b803561ffff81168114610e7257600080fd5b919050565b600080600060608486031215610e8c57600080fd5b610e9584610e60565b9250610ea360208501610e60565b9150610eb160408501610e60565b90509250925092565b600060208284031215610ecc57600080fd5b610e1882610e60565b600060208083528351808285015260005b81811015610f0257858101830151858201604001528201610ee6565b506000604082860101526040601f19601f8301168501019250505092915050565b600060208284031215610f3557600080fd5b8135610e1881610e1f565b600060208284031215610f5257600080fd5b5051919050565b634e487b7160e01b600052604160045260246000fd5b60405160e0810167ffffffffffffffff81118282101715610f9257610f92610f59565b60405290565b604051601f8201601f1916810167ffffffffffffffff81118282101715610fc157610fc1610f59565b604052919050565b60006020808385031215610fdc57600080fd5b825167ffffffffffffffff80821115610ff457600080fd5b818501915085601f83011261100857600080fd5b81518181111561101a5761101a610f59565b8060051b915061102b848301610f98565b818152918301840191848101908884111561104557600080fd5b938501935b838510156110635784518252938501939085019061104a565b98975050505050505050565b634e487b7160e01b600052601160045260246000fd5b818103818111156104e0576104e061106f565b634e487b7160e01b600052603260045260246000fd5b8051610e7281610e1f565b600060e082840312156110cb57600080fd5b6110d3610f6f565b8251815260208301516110e581610e1f565b8060208301525060408301516040820152606083015160608201526080830151608082015260a08301516004811061111c57600080fd5b60a082015261112d60c084016110ae565b60c08201529392505050565b634e487b7160e01b600052602160045260246000fd5b6000600182016111615761116161106f565b5060010190565b80820281158282048414176104e0576104e061106f565b634e487b7160e01b600052601260045260246000fd5b6000826111a4576111a461117f565b500490565b81810360008312801583831316838312821617156111c9576111c961106f565b5092915050565b6000604082840312156111e257600080fd5b6040516040810181811067ffffffffffffffff8211171561120557611205610f59565b604052825181526020928301519281019290925250919050565b808201828112600083128015821682158216171561123f5761123f61106f565b505092915050565b80820260008212600160ff1b841416156112635761126361106f565b81810583148215176104e0576104e061106f565b6000826112865761128661117f565b600160ff1b8214600019841416156112a0576112a061106f565b50059056fea26469706673582212208e1dd363e5de8c58602afbe34d7747dcf970baae1f1ccd3ca6abf199eb137e5b64736f6c63430008140033","opcodes":"PUSH1 0x80 PUSH1 0x40 MSTORE PUSH1 0x1 DUP1 SLOAD PUSH6 0xFFFFFFFFFFFF PUSH1 0xA0 SHL NOT AND PUSH5 0x2EE00C8019 PUSH1 0xA5 SHL OR SWAP1 SSTORE CALLVALUE DUP1 ISZERO PUSH2 0x2C JUMPI PUSH1 0x0 DUP1 REVERT JUMPDEST POP PUSH1 0x40 MLOAD PUSH2 0x1454 CODESIZE SUB DUP1 PUSH2 0x1454 DUP4 CODECOPY DUP2 ADD PUSH1 0x40 DUP2 SWAP1 MSTORE PUSH2 0x4B SWAP2 PUSH2 0x13A JUMP JUMPDEST CALLER DUP1 PUSH2 0x72 JUMPI PUSH1 0x40 MLOAD PUSH4 0x1E4FBDF7 PUSH1 0xE0 SHL DUP2 MSTORE PUSH1 0x0 PUSH1 0x4 DUP3 ADD MSTORE PUSH1 0x24 ADD JUMPDEST PUSH1 0x40 MLOAD DUP1 SWAP2 SUB SWAP1 REVERT JUMPDEST PUSH2 0x7B DUP2 PUSH2 0xEA JUMP JUMPDEST POP PUSH1 0x1 PUSH1 0x1 PUSH1 0xA0 SHL SUB DUP2 AND PUSH2 0xC5 JUMPI PUSH1 0x40 MLOAD PUSH3 0x461BCD PUSH1 0xE5 SHL DUP2 MSTORE PUSH1 0x20 PUSH1 0x4 DUP3 ADD MSTORE PUSH1 0x10 PUSH1 0x24 DUP3 ADD MSTORE PUSH16 0x496E76616C6964207265676973747279 PUSH1 0x80 SHL PUSH1 0x44 DUP3 ADD MSTORE PUSH1 0x64 ADD PUSH2 0x69 JUMP JUMPDEST PUSH1 0x1 DUP1 SLOAD PUSH1 0x1 PUSH1 0x1 PUSH1 0xA0 SHL SUB NOT AND PUSH1 0x1 PUSH1 0x1 PUSH1 0xA0 SHL SUB SWAP3 SWAP1 SWAP3 AND SWAP2 SWAP1 SWAP2 OR SWAP1 SSTORE PUSH2 0x16A JUMP JUMPDEST PUSH1 0x0 DUP1 SLOAD PUSH1 0x1 PUSH1 0x1 PUSH1 0xA0 SHL SUB DUP4 DUP2 AND PUSH1 0x1 PUSH1 0x1 PUSH1 0xA0 SHL SUB NOT DUP4 AND DUP2 OR DUP5 SSTORE PUSH1 0x40 MLOAD SWAP2 SWAP1 SWAP3 AND SWAP3 DUP4 SWAP2 PUSH32 0x8BE0079C531659141344CD1FD0A4F28419497F9722A3DAAFE3B4186F6B6457E0 SWAP2 SWAP1 LOG3 POP POP JUMP JUMPDEST PUSH1 0x0 PUSH1 0x20 DUP3 DUP5 SUB SLT ISZERO PUSH2 0x14C JUMPI PUSH1 0x0 DUP1 REVERT JUMPDEST DUP2 MLOAD PUSH1 0x1 PUSH1 0x1 PUSH1 0xA0 SHL SUB DUP2 AND DUP2 EQ PUSH2 0x163 JUMPI PUSH1 0x0 DUP1 REVERT JUMPDEST SWAP4 SWAP3 POP POP POP JUMP JUMPDEST PUSH2 0x12DB DUP1 PUSH2 0x179 PUSH1 0x0 CODECOPY PUSH1 0x0 RETURN INVALID PUSH1 0x80 PUSH1 0x40 MSTORE CALLVALUE DUP1 ISZERO PUSH2 0x10 JUMPI PUSH1 0x0 DUP1 REVERT JUMPDEST POP PUSH1 0x4 CALLDATASIZE LT PUSH2 0x12C JUMPI PUSH1 0x0 CALLDATALOAD PUSH1 0xE0 SHR DUP1 PUSH4 0x86720F1F GT PUSH2 0xAD JUMPI DUP1 PUSH4 0xB0AF0B9B GT PUSH2 0x71 JUMPI DUP1 PUSH4 0xB0AF0B9B EQ PUSH2 0x264 JUMPI DUP1 PUSH4 0xC5D46DFC EQ PUSH2 0x26C JUMPI DUP1 PUSH4 0xE0E79DDE EQ PUSH2 0x2DE JUMPI DUP1 PUSH4 0xF2FDE38B EQ PUSH2 0x2F3 JUMPI DUP1 PUSH4 0xFB4CEAA3 EQ PUSH2 0x306 JUMPI PUSH1 0x0 DUP1 REVERT JUMPDEST DUP1 PUSH4 0x86720F1F EQ PUSH2 0x210 JUMPI DUP1 PUSH4 0x8DA5CB5B EQ PUSH2 0x218 JUMPI DUP1 PUSH4 0x94970A80 EQ PUSH2 0x229 JUMPI DUP1 PUSH4 0x9C0C87B5 EQ PUSH2 0x231 JUMPI DUP1 PUSH4 0xA91EE0DC EQ PUSH2 0x251 JUMPI PUSH1 0x0 DUP1 REVERT JUMPDEST DUP1 PUSH4 0x58AC0E80 GT PUSH2 0xF4 JUMPI DUP1 PUSH4 0x58AC0E80 EQ PUSH2 0x1AB JUMPI DUP1 PUSH4 0x70D7642B EQ PUSH2 0x1C0 JUMPI DUP1 PUSH4 0x715018A6 EQ PUSH2 0x1D5 JUMPI DUP1 PUSH4 0x7B103999 EQ PUSH2 0x1DD JUMPI DUP1 PUSH4 0x8203B5FA EQ PUSH2 0x208 JUMPI PUSH1 0x0 DUP1 REVERT JUMPDEST DUP1 PUSH4 0x23132001 EQ PUSH2 0x131 JUMPI DUP1 PUSH4 0x27FF6223 EQ PUSH2 0x159 JUMPI DUP1 PUSH4 0x40B89270 EQ PUSH2 0x173 JUMPI DUP1 PUSH4 0x53704F9A EQ PUSH2 0x17B JUMPI DUP1 PUSH4 0x56DB75CD EQ PUSH2 0x1A3 JUMPI JUMPDEST PUSH1 0x0 DUP1 REVERT JUMPDEST PUSH2 0x144 PUSH2 0x13F CALLDATASIZE PUSH1 0x4 PUSH2 0xE34 JUMP JUMPDEST PUSH2 0x319 JUMP JUMPDEST PUSH1 0x40 MLOAD SWAP1 ISZERO ISZERO DUP2 MSTORE PUSH1 0x20 ADD JUMPDEST PUSH1 0x40 MLOAD DUP1 SWAP2 SUB SWAP1 RETURN JUMPDEST PUSH2 0x161 PUSH1 0x64 DUP2 JUMP JUMPDEST PUSH1 0x40 MLOAD PUSH1 0xFF SWAP1 SWAP2 AND DUP2 MSTORE PUSH1 0x20 ADD PUSH2 0x150 JUMP JUMPDEST PUSH2 0x161 PUSH1 0x0 DUP2 JUMP JUMPDEST PUSH1 0x1 SLOAD PUSH2 0x190 SWAP1 PUSH1 0x1 PUSH1 0xC0 SHL SWAP1 DIV PUSH2 0xFFFF AND DUP2 JUMP JUMPDEST PUSH1 0x40 MLOAD PUSH2 0xFFFF SWAP1 SWAP2 AND DUP2 MSTORE PUSH1 0x20 ADD PUSH2 0x150 JUMP JUMPDEST PUSH2 0x161 PUSH1 0x19 DUP2 JUMP JUMPDEST PUSH1 0x1 SLOAD PUSH2 0x190 SWAP1 PUSH1 0x1 PUSH1 0xA0 SHL SWAP1 DIV PUSH2 0xFFFF AND DUP2 JUMP JUMPDEST PUSH2 0x1D3 PUSH2 0x1CE CALLDATASIZE PUSH1 0x4 PUSH2 0xE77 JUMP JUMPDEST PUSH2 0x4E6 JUMP JUMPDEST STOP JUMPDEST PUSH2 0x1D3 PUSH2 0x618 JUMP JUMPDEST PUSH1 0x1 SLOAD PUSH2 0x1F0 SWAP1 PUSH1 0x1 PUSH1 0x1 PUSH1 0xA0 SHL SUB AND DUP2 JUMP JUMPDEST PUSH1 0x40 MLOAD PUSH1 0x1 PUSH1 0x1 PUSH1 0xA0 SHL SUB SWAP1 SWAP2 AND DUP2 MSTORE PUSH1 0x20 ADD PUSH2 0x150 JUMP JUMPDEST PUSH2 0x161 PUSH1 0x5 DUP2 JUMP JUMPDEST PUSH2 0x161 PUSH1 0xA DUP2 JUMP JUMPDEST PUSH1 0x0 SLOAD PUSH1 0x1 PUSH1 0x1 PUSH1 0xA0 SHL SUB AND PUSH2 0x1F0 JUMP JUMPDEST PUSH2 0x161 PUSH1 0x14 DUP2 JUMP JUMPDEST PUSH2 0x244 PUSH2 0x23F CALLDATASIZE PUSH1 0x4 PUSH2 0xEBA JUMP JUMPDEST PUSH2 0x62C JUMP JUMPDEST PUSH1 0x40 MLOAD PUSH2 0x150 SWAP2 SWAP1 PUSH2 0xED5 JUMP JUMPDEST PUSH2 0x1D3 PUSH2 0x25F CALLDATASIZE PUSH1 0x4 PUSH2 0xF23 JUMP JUMPDEST PUSH2 0x6DA JUMP JUMPDEST PUSH2 0x161 PUSH1 0x28 DUP2 JUMP JUMPDEST PUSH2 0x27F PUSH2 0x27A CALLDATASIZE PUSH1 0x4 PUSH2 0xF23 JUMP JUMPDEST PUSH2 0x74D JUMP JUMPDEST PUSH1 0x40 MLOAD PUSH2 0x150 SWAP2 SWAP1 PUSH1 0x0 PUSH1 0xC0 DUP3 ADD SWAP1 POP PUSH1 0xFF DUP4 MLOAD AND DUP3 MSTORE PUSH1 0xFF PUSH1 0x20 DUP5 ADD MLOAD AND PUSH1 0x20 DUP4 ADD MSTORE PUSH1 0x40 DUP4 ADD MLOAD PUSH1 0x1 SIGNEXTEND PUSH1 0x40 DUP4 ADD MSTORE PUSH1 0xFF PUSH1 0x60 DUP5 ADD MLOAD AND PUSH1 0x60 DUP4 ADD MSTORE PUSH1 0xFF PUSH1 0x80 DUP5 ADD MLOAD AND PUSH1 0x80 DUP4 ADD MSTORE PUSH2 0xFFFF PUSH1 0xA0 DUP5 ADD MLOAD AND PUSH1 0xA0 DUP4 ADD MSTORE SWAP3 SWAP2 POP POP JUMP JUMPDEST PUSH1 0x1 SLOAD PUSH2 0x190 SWAP1 PUSH1 0x1 PUSH1 0xB0 SHL SWAP1 DIV PUSH2 0xFFFF AND DUP2 JUMP JUMPDEST PUSH2 0x1D3 PUSH2 0x301 CALLDATASIZE PUSH1 0x4 PUSH2 0xF23 JUMP JUMPDEST PUSH2 0x7CA JUMP JUMPDEST PUSH2 0x190 PUSH2 0x314 CALLDATASIZE PUSH1 0x4 PUSH2 0xEBA JUMP JUMPDEST PUSH2 0x808 JUMP JUMPDEST PUSH1 0x1 SLOAD PUSH1 0x40 MLOAD PUSH4 0xE470E65 PUSH1 0xE2 SHL DUP2 MSTORE PUSH1 0x1 PUSH1 0x1 PUSH1 0xA0 SHL SUB DUP5 DUP2 AND PUSH1 0x4 DUP4 ADD MSTORE PUSH1 0x0 SWAP3 DUP4 SWAP3 SWAP2 AND SWAP1 PUSH4 0x391C3994 SWAP1 PUSH1 0x24 ADD PUSH1 0x20 PUSH1 0x40 MLOAD DUP1 DUP4 SUB DUP2 DUP7 GAS STATICCALL ISZERO DUP1 ISZERO PUSH2 0x367 JUMPI RETURNDATASIZE PUSH1 0x0 DUP1 RETURNDATACOPY RETURNDATASIZE PUSH1 0x0 REVERT JUMPDEST POP POP POP POP PUSH1 0x40 MLOAD RETURNDATASIZE PUSH1 0x1F NOT PUSH1 0x1F DUP3 ADD AND DUP3 ADD DUP1 PUSH1 0x40 MSTORE POP DUP2 ADD SWAP1 PUSH2 0x38B SWAP2 SWAP1 PUSH2 0xF40 JUMP JUMPDEST SWAP1 POP DUP1 PUSH1 0x0 SUB PUSH2 0x39F JUMPI PUSH1 0x0 SWAP2 POP POP PUSH2 0x4E0 JUMP JUMPDEST PUSH1 0x1 SLOAD PUSH1 0x40 MLOAD PUSH4 0x46DC9727 PUSH1 0xE1 SHL DUP2 MSTORE PUSH1 0x1 PUSH1 0x1 PUSH1 0xA0 SHL SUB DUP7 DUP2 AND PUSH1 0x4 DUP4 ADD MSTORE PUSH1 0x0 SWAP3 AND SWAP1 PUSH4 0x8DB92E4E SWAP1 PUSH1 0x24 ADD PUSH1 0x0 PUSH1 0x40 MLOAD DUP1 DUP4 SUB DUP2 DUP7 GAS STATICCALL ISZERO DUP1 ISZERO PUSH2 0x3EA JUMPI RETURNDATASIZE PUSH1 0x0 DUP1 RETURNDATACOPY RETURNDATASIZE PUSH1 0x0 REVERT JUMPDEST POP POP POP POP PUSH1 0x40 MLOAD RETURNDATASIZE PUSH1 0x0 DUP3 RETURNDATACOPY PUSH1 0x1F RETURNDATASIZE SWAP1 DUP2 ADD PUSH1 0x1F NOT AND DUP3 ADD PUSH1 0x40 MSTORE PUSH2 0x412 SWAP2 SWAP1 DUP2 ADD SWAP1 PUSH2 0xFC9 JUMP JUMPDEST SWAP1 POP DUP1 MLOAD PUSH1 0x0 SUB PUSH2 0x428 JUMPI PUSH1 0x0 SWAP3 POP POP POP PUSH2 0x4E0 JUMP JUMPDEST PUSH1 0x1 DUP1 SLOAD DUP3 MLOAD PUSH1 0x0 SWAP3 PUSH1 0x1 PUSH1 0x1 PUSH1 0xA0 SHL SUB SWAP1 SWAP3 AND SWAP2 PUSH4 0x504006CA SWAP2 DUP6 SWAP2 PUSH2 0x44E SWAP2 PUSH2 0x1085 JUMP JUMPDEST DUP2 MLOAD DUP2 LT PUSH2 0x45E JUMPI PUSH2 0x45E PUSH2 0x1098 JUMP JUMPDEST PUSH1 0x20 MUL PUSH1 0x20 ADD ADD MLOAD PUSH1 0x40 MLOAD DUP3 PUSH4 0xFFFFFFFF AND PUSH1 0xE0 SHL DUP2 MSTORE PUSH1 0x4 ADD PUSH2 0x484 SWAP2 DUP2 MSTORE PUSH1 0x20 ADD SWAP1 JUMP JUMPDEST PUSH1 0xE0 PUSH1 0x40 MLOAD DUP1 DUP4 SUB DUP2 DUP7 GAS STATICCALL ISZERO DUP1 ISZERO PUSH2 0x4A1 JUMPI RETURNDATASIZE PUSH1 0x0 DUP1 RETURNDATACOPY RETURNDATASIZE PUSH1 0x0 REVERT JUMPDEST POP POP POP POP PUSH1 0x40 MLOAD RETURNDATASIZE PUSH1 0x1F NOT PUSH1 0x1F DUP3 ADD AND DUP3 ADD DUP1 PUSH1 0x40 MSTORE POP DUP2 ADD SWAP1 PUSH2 0x4C5 SWAP2 SWAP1 PUSH2 0x10B9 JUMP JUMPDEST SWAP1 POP DUP5 DUP2 PUSH1 0x80 ADD MLOAD TIMESTAMP PUSH2 0x4D8 SWAP2 SWAP1 PUSH2 0x1085 JUMP JUMPDEST GT ISZERO SWAP4 POP POP POP POP JUMPDEST SWAP3 SWAP2 POP POP JUMP JUMPDEST PUSH2 0x4EE PUSH2 0x8C1 JUMP JUMPDEST DUP3 PUSH2 0xFFFF AND DUP3 PUSH2 0xFFFF AND LT PUSH2 0x53C JUMPI PUSH1 0x40 MLOAD PUSH3 0x461BCD PUSH1 0xE5 SHL DUP2 MSTORE PUSH1 0x20 PUSH1 0x4 DUP3 ADD MSTORE PUSH1 0xF PUSH1 0x24 DUP3 ADD MSTORE PUSH15 0x24B73B30B634B21036B4B71020A829 PUSH1 0x89 SHL PUSH1 0x44 DUP3 ADD MSTORE PUSH1 0x64 ADD JUMPDEST PUSH1 0x40 MLOAD DUP1 SWAP2 SUB SWAP1 REVERT JUMPDEST DUP1 PUSH2 0xFFFF AND DUP4 PUSH2 0xFFFF AND LT PUSH2 0x585 JUMPI PUSH1 0x40 MLOAD PUSH3 0x461BCD PUSH1 0xE5 SHL DUP2 MSTORE PUSH1 0x20 PUSH1 0x4 DUP3 ADD MSTORE PUSH1 0xF PUSH1 0x24 DUP3 ADD MSTORE PUSH15 0x24B73B30B634B21036B0BC1020A829 PUSH1 0x89 SHL PUSH1 0x44 DUP3 ADD MSTORE PUSH1 0x64 ADD PUSH2 0x533 JUMP JUMPDEST PUSH1 0x1 DUP1 SLOAD PUSH4 0xFFFFFFFF PUSH1 0xA0 SHL NOT AND PUSH1 0x1 PUSH1 0xA0 SHL PUSH2 0xFFFF DUP7 DUP2 AND SWAP2 DUP3 MUL PUSH2 0xFFFF PUSH1 0xB0 SHL NOT AND SWAP3 SWAP1 SWAP3 OR PUSH1 0x1 PUSH1 0xB0 SHL DUP7 DUP5 AND SWAP1 DUP2 MUL SWAP2 SWAP1 SWAP2 OR PUSH2 0xFFFF PUSH1 0xC0 SHL NOT AND PUSH1 0x1 PUSH1 0xC0 SHL SWAP4 DUP7 AND SWAP4 DUP5 MUL OR SWAP1 SWAP4 SSTORE PUSH1 0x40 DUP1 MLOAD SWAP2 DUP3 MSTORE PUSH1 0x20 DUP3 ADD SWAP4 SWAP1 SWAP4 MSTORE SWAP2 DUP3 ADD MSTORE PUSH32 0x83BBB36B45A0D300DAB404594D8A73DCE5F9A8CB6281E44051E0D6B3276EE50 SWAP1 PUSH1 0x60 ADD PUSH1 0x40 MLOAD DUP1 SWAP2 SUB SWAP1 LOG1 POP POP POP JUMP JUMPDEST PUSH2 0x620 PUSH2 0x8C1 JUMP JUMPDEST PUSH2 0x62A PUSH1 0x0 PUSH2 0x8EE JUMP JUMPDEST JUMP JUMPDEST PUSH1 0x60 PUSH1 0x5A DUP3 PUSH2 0xFFFF AND LT PUSH2 0x65E JUMPI POP POP PUSH1 0x40 DUP1 MLOAD DUP1 DUP3 ADD SWAP1 SWAP2 MSTORE PUSH1 0x8 DUP2 MSTORE PUSH8 0x506C6174696E756D PUSH1 0xC0 SHL PUSH1 0x20 DUP3 ADD MSTORE SWAP1 JUMP JUMPDEST PUSH1 0x4B DUP3 PUSH2 0xFFFF AND LT PUSH2 0x68A JUMPI POP POP PUSH1 0x40 DUP1 MLOAD DUP1 DUP3 ADD SWAP1 SWAP2 MSTORE PUSH1 0x4 DUP2 MSTORE PUSH4 0x11DBDB19 PUSH1 0xE2 SHL PUSH1 0x20 DUP3 ADD MSTORE SWAP1 JUMP JUMPDEST PUSH1 0x3C DUP3 PUSH2 0xFFFF AND LT PUSH2 0x6B8 JUMPI POP POP PUSH1 0x40 DUP1 MLOAD DUP1 DUP3 ADD SWAP1 SWAP2 MSTORE PUSH1 0x6 DUP2 MSTORE PUSH6 0x29B4B63B32B9 PUSH1 0xD1 SHL PUSH1 0x20 DUP3 ADD MSTORE SWAP1 JUMP JUMPDEST POP POP PUSH1 0x40 DUP1 MLOAD DUP1 DUP3 ADD SWAP1 SWAP2 MSTORE PUSH1 0x6 DUP2 MSTORE PUSH6 0x42726F6E7A65 PUSH1 0xD0 SHL PUSH1 0x20 DUP3 ADD MSTORE SWAP1 JUMP JUMPDEST PUSH2 0x6E2 PUSH2 0x8C1 JUMP JUMPDEST PUSH1 0x1 PUSH1 0x1 PUSH1 0xA0 SHL SUB DUP2 AND PUSH2 0x72B JUMPI PUSH1 0x40 MLOAD PUSH3 0x461BCD PUSH1 0xE5 SHL DUP2 MSTORE PUSH1 0x20 PUSH1 0x4 DUP3 ADD MSTORE PUSH1 0x10 PUSH1 0x24 DUP3 ADD MSTORE PUSH16 0x496E76616C6964207265676973747279 PUSH1 0x80 SHL PUSH1 0x44 DUP3 ADD MSTORE PUSH1 0x64 ADD PUSH2 0x533 JUMP JUMPDEST PUSH1 0x1 DUP1 SLOAD PUSH1 0x1 PUSH1 0x1 PUSH1 0xA0 SHL SUB NOT AND PUSH1 0x1 PUSH1 0x1 PUSH1 0xA0 SHL SUB SWAP3 SWAP1 SWAP3 AND SWAP2 SWAP1 SWAP2 OR SWAP1 SSTORE JUMP JUMPDEST PUSH1 0x40 DUP1 MLOAD PUSH1 0xC0 DUP2 ADD DUP3 MSTORE PUSH1 0x0 DUP1 DUP3 MSTORE PUSH1 0x20 DUP3 ADD DUP2 SWAP1 MSTORE SWAP2 DUP2 ADD DUP3 SWAP1 MSTORE PUSH1 0x60 DUP2 ADD DUP3 SWAP1 MSTORE PUSH1 0x80 DUP2 ADD DUP3 SWAP1 MSTORE PUSH1 0xA0 DUP2 ADD SWAP2 SWAP1 SWAP2 MSTORE PUSH2 0x788 DUP3 PUSH2 0x93E JUMP JUMPDEST PUSH1 0xFF AND DUP2 MSTORE PUSH1 0x32 PUSH1 0x20 DUP3 ADD MSTORE PUSH2 0x79D DUP3 PUSH2 0xB45 JUMP JUMPDEST PUSH1 0x1 SIGNEXTEND PUSH1 0x40 DUP3 ADD MSTORE PUSH1 0x0 PUSH1 0x60 DUP3 ADD DUP2 SWAP1 MSTORE PUSH1 0x80 DUP3 ADD MSTORE PUSH2 0x7BC DUP2 PUSH2 0xD47 JUMP JUMPDEST PUSH2 0xFFFF AND PUSH1 0xA0 DUP3 ADD MSTORE SWAP2 SWAP1 POP JUMP JUMPDEST PUSH2 0x7D2 PUSH2 0x8C1 JUMP JUMPDEST PUSH1 0x1 PUSH1 0x1 PUSH1 0xA0 SHL SUB DUP2 AND PUSH2 0x7FC JUMPI PUSH1 0x40 MLOAD PUSH4 0x1E4FBDF7 PUSH1 0xE0 SHL DUP2 MSTORE PUSH1 0x0 PUSH1 0x4 DUP3 ADD MSTORE PUSH1 0x24 ADD PUSH2 0x533 JUMP JUMPDEST PUSH2 0x805 DUP2 PUSH2 0x8EE JUMP JUMPDEST POP JUMP JUMPDEST PUSH1 0x0 PUSH1 0x64 PUSH2 0xFFFF DUP4 AND GT ISZERO PUSH2 0x84F JUMPI PUSH1 0x40 MLOAD PUSH3 0x461BCD PUSH1 0xE5 SHL DUP2 MSTORE PUSH1 0x20 PUSH1 0x4 DUP3 ADD MSTORE PUSH1 0xD PUSH1 0x24 DUP3 ADD MSTORE PUSH13 0x496E76616C69642073636F7265 PUSH1 0x98 SHL PUSH1 0x44 DUP3 ADD MSTORE PUSH1 0x64 ADD PUSH2 0x533 JUMP JUMPDEST PUSH1 0x5A DUP3 PUSH2 0xFFFF AND LT PUSH2 0x864 JUMPI POP PUSH2 0x190 SWAP2 SWAP1 POP JUMP JUMPDEST PUSH1 0x4B DUP3 PUSH2 0xFFFF AND LT PUSH2 0x879 JUMPI POP PUSH2 0x258 SWAP2 SWAP1 POP JUMP JUMPDEST PUSH1 0x3C DUP3 PUSH2 0xFFFF AND LT PUSH2 0x88E JUMPI POP PUSH2 0x320 SWAP2 SWAP1 POP JUMP JUMPDEST PUSH1 0x2D DUP3 PUSH2 0xFFFF AND LT PUSH2 0x8A3 JUMPI POP PUSH2 0x3E8 SWAP2 SWAP1 POP JUMP JUMPDEST PUSH1 0x1E DUP3 PUSH2 0xFFFF AND LT PUSH2 0x8B8 JUMPI POP PUSH2 0x4B0 SWAP2 SWAP1 POP JUMP JUMPDEST POP PUSH2 0x5DC SWAP2 SWAP1 POP JUMP JUMPDEST PUSH1 0x0 SLOAD PUSH1 0x1 PUSH1 0x1 PUSH1 0xA0 SHL SUB AND CALLER EQ PUSH2 0x62A JUMPI PUSH1 0x40 MLOAD PUSH4 0x118CDAA7 PUSH1 0xE0 SHL DUP2 MSTORE CALLER PUSH1 0x4 DUP3 ADD MSTORE PUSH1 0x24 ADD PUSH2 0x533 JUMP JUMPDEST PUSH1 0x0 DUP1 SLOAD PUSH1 0x1 PUSH1 0x1 PUSH1 0xA0 SHL SUB DUP4 DUP2 AND PUSH1 0x1 PUSH1 0x1 PUSH1 0xA0 SHL SUB NOT DUP4 AND DUP2 OR DUP5 SSTORE PUSH1 0x40 MLOAD SWAP2 SWAP1 SWAP3 AND SWAP3 DUP4 SWAP2 PUSH32 0x8BE0079C531659141344CD1FD0A4F28419497F9722A3DAAFE3B4186F6B6457E0 SWAP2 SWAP1 LOG3 POP POP JUMP JUMPDEST PUSH1 0x1 SLOAD PUSH1 0x40 MLOAD PUSH4 0x46DC9727 PUSH1 0xE1 SHL DUP2 MSTORE PUSH1 0x1 PUSH1 0x1 PUSH1 0xA0 SHL SUB DUP4 DUP2 AND PUSH1 0x4 DUP4 ADD MSTORE PUSH1 0x0 SWAP3 DUP4 SWAP3 SWAP2 AND SWAP1 PUSH4 0x8DB92E4E SWAP1 PUSH1 0x24 ADD PUSH1 0x0 PUSH1 0x40 MLOAD DUP1 DUP4 SUB DUP2 DUP7 GAS STATICCALL ISZERO DUP1 ISZERO PUSH2 0x98C JUMPI RETURNDATASIZE PUSH1 0x0 DUP1 RETURNDATACOPY RETURNDATASIZE PUSH1 0x0 REVERT JUMPDEST POP POP POP POP PUSH1 0x40 MLOAD RETURNDATASIZE PUSH1 0x0 DUP3 RETURNDATACOPY PUSH1 0x1F RETURNDATASIZE SWAP1 DUP2 ADD PUSH1 0x1F NOT AND DUP3 ADD PUSH1 0x40 MSTORE PUSH2 0x9B4 SWAP2 SWAP1 DUP2 ADD SWAP1 PUSH2 0xFC9 JUMP JUMPDEST SWAP1 POP DUP1 MLOAD PUSH1 0x0 SUB PUSH2 0x9C8 JUMPI POP PUSH1 0x32 SWAP3 SWAP2 POP POP JUMP JUMPDEST DUP1 MLOAD PUSH1 0x0 DUP1 DUP1 JUMPDEST DUP5 MLOAD DUP2 LT ISZERO PUSH2 0xAD8 JUMPI PUSH1 0x1 SLOAD DUP6 MLOAD PUSH1 0x0 SWAP2 PUSH1 0x1 PUSH1 0x1 PUSH1 0xA0 SHL SUB AND SWAP1 PUSH4 0x504006CA SWAP1 DUP9 SWAP1 DUP6 SWAP1 DUP2 LT PUSH2 0xA02 JUMPI PUSH2 0xA02 PUSH2 0x1098 JUMP JUMPDEST PUSH1 0x20 MUL PUSH1 0x20 ADD ADD MLOAD PUSH1 0x40 MLOAD DUP3 PUSH4 0xFFFFFFFF AND PUSH1 0xE0 SHL DUP2 MSTORE PUSH1 0x4 ADD PUSH2 0xA28 SWAP2 DUP2 MSTORE PUSH1 0x20 ADD SWAP1 JUMP JUMPDEST PUSH1 0xE0 PUSH1 0x40 MLOAD DUP1 DUP4 SUB DUP2 DUP7 GAS STATICCALL ISZERO DUP1 ISZERO PUSH2 0xA45 JUMPI RETURNDATASIZE PUSH1 0x0 DUP1 RETURNDATACOPY RETURNDATASIZE PUSH1 0x0 REVERT JUMPDEST POP POP POP POP PUSH1 0x40 MLOAD RETURNDATASIZE PUSH1 0x1F NOT PUSH1 0x1F DUP3 ADD AND DUP3 ADD DUP1 PUSH1 0x40 MSTORE POP DUP2 ADD SWAP1 PUSH2 0xA69 SWAP2 SWAP1 PUSH2 0x10B9 JUMP JUMPDEST SWAP1 POP PUSH1 0x2 DUP2 PUSH1 0xA0 ADD MLOAD PUSH1 0x3 DUP2 GT ISZERO PUSH2 0xA83 JUMPI PUSH2 0xA83 PUSH2 0x1139 JUMP JUMPDEST SUB PUSH2 0xA9A JUMPI DUP4 PUSH2 0xA92 DUP2 PUSH2 0x114F JUMP JUMPDEST SWAP5 POP POP PUSH2 0xAC5 JUMP JUMPDEST PUSH1 0x3 DUP2 PUSH1 0xA0 ADD MLOAD PUSH1 0x3 DUP2 GT ISZERO PUSH2 0xAB2 JUMPI PUSH2 0xAB2 PUSH2 0x1139 JUMP JUMPDEST SUB PUSH2 0xAC5 JUMPI DUP3 PUSH2 0xAC1 DUP2 PUSH2 0x114F JUMP JUMPDEST SWAP4 POP POP JUMPDEST POP DUP1 PUSH2 0xAD0 DUP2 PUSH2 0x114F JUMP JUMPDEST SWAP2 POP POP PUSH2 0x9CF JUMP JUMPDEST POP PUSH1 0x0 DUP4 PUSH2 0xAE7 DUP5 PUSH1 0x64 PUSH2 0x1168 JUMP JUMPDEST PUSH2 0xAF1 SWAP2 SWAP1 PUSH2 0x1195 JUMP JUMPDEST SWAP1 POP PUSH1 0x0 PUSH2 0xB00 DUP4 PUSH1 0x14 PUSH2 0x1168 JUMP JUMPDEST PUSH2 0xB0A SWAP1 DUP4 PUSH2 0x11A9 JUMP JUMPDEST SWAP1 POP PUSH1 0x0 DUP2 SLT ISZERO PUSH2 0xB23 JUMPI POP PUSH1 0x0 SWAP8 SWAP7 POP POP POP POP POP POP POP JUMP JUMPDEST PUSH1 0x64 DUP2 SGT ISZERO PUSH2 0xB3A JUMPI POP PUSH1 0x64 SWAP8 SWAP7 POP POP POP POP POP POP POP JUMP JUMPDEST SWAP8 SWAP7 POP POP POP POP POP POP POP JUMP JUMPDEST PUSH1 0x1 SLOAD PUSH1 0x40 MLOAD PUSH4 0xE470E65 PUSH1 0xE2 SHL DUP2 MSTORE PUSH1 0x1 PUSH1 0x1 PUSH1 0xA0 SHL SUB DUP4 DUP2 AND PUSH1 0x4 DUP4 ADD MSTORE PUSH1 0x0 SWAP3 PUSH1 0x95 NOT SWAP3 DUP5 SWAP3 SWAP1 SWAP2 AND SWAP1 PUSH4 0x391C3994 SWAP1 PUSH1 0x24 ADD PUSH1 0x20 PUSH1 0x40 MLOAD DUP1 DUP4 SUB DUP2 DUP7 GAS STATICCALL ISZERO DUP1 ISZERO PUSH2 0xB98 JUMPI RETURNDATASIZE PUSH1 0x0 DUP1 RETURNDATACOPY RETURNDATASIZE PUSH1 0x0 REVERT JUMPDEST POP POP POP POP PUSH1 0x40 MLOAD RETURNDATASIZE PUSH1 0x1F NOT PUSH1 0x1F DUP3 ADD AND DUP3 ADD DUP1 PUSH1 0x40 MSTORE POP DUP2 ADD SWAP1 PUSH2 0xBBC SWAP2 SWAP1 PUSH2 0xF40 JUMP JUMPDEST SWAP1 POP DUP1 PUSH1 0x0 SUB PUSH2 0xBD9 JUMPI PUSH2 0xBD2 PUSH2 0x12C DUP4 PUSH2 0x11A9 JUMP JUMPDEST SWAP2 POP PUSH2 0xC4D JUMP JUMPDEST PUSH1 0x0 PUSH2 0xBE5 DUP3 TIMESTAMP PUSH2 0x1085 JUMP JUMPDEST SWAP1 POP PUSH3 0x278D00 DUP2 LT ISZERO PUSH2 0xC05 JUMPI PUSH2 0xBFE PUSH2 0x12C DUP5 PUSH2 0x11A9 JUMP JUMPDEST SWAP3 POP PUSH2 0xC4B JUMP JUMPDEST PUSH3 0x76A700 DUP2 LT ISZERO PUSH2 0xC1B JUMPI PUSH2 0xBFE PUSH1 0xC8 DUP5 PUSH2 0x11A9 JUMP JUMPDEST PUSH3 0xED4E00 DUP2 LT ISZERO PUSH2 0xC31 JUMPI PUSH2 0xBFE PUSH1 0x64 DUP5 PUSH2 0x11A9 JUMP JUMPDEST PUSH4 0x1E13380 DUP2 LT ISZERO PUSH2 0xC4B JUMPI PUSH2 0xC48 PUSH1 0x32 DUP5 PUSH2 0x11A9 JUMP JUMPDEST SWAP3 POP JUMPDEST POP JUMPDEST PUSH1 0x1 SLOAD PUSH1 0x40 MLOAD PUSH4 0xC3453153 PUSH1 0xE0 SHL DUP2 MSTORE PUSH1 0x1 PUSH1 0x1 PUSH1 0xA0 SHL SUB DUP7 DUP2 AND PUSH1 0x4 DUP4 ADD MSTORE PUSH1 0x0 SWAP3 AND SWAP1 PUSH4 0xC3453153 SWAP1 PUSH1 0x24 ADD PUSH1 0x40 DUP1 MLOAD DUP1 DUP4 SUB DUP2 DUP7 GAS STATICCALL ISZERO DUP1 ISZERO PUSH2 0xC97 JUMPI RETURNDATASIZE PUSH1 0x0 DUP1 RETURNDATACOPY RETURNDATASIZE PUSH1 0x0 REVERT JUMPDEST POP POP POP POP PUSH1 0x40 MLOAD RETURNDATASIZE PUSH1 0x1F NOT PUSH1 0x1F DUP3 ADD AND DUP3 ADD DUP1 PUSH1 0x40 MSTORE POP DUP2 ADD SWAP1 PUSH2 0xCBB SWAP2 SWAP1 PUSH2 0x11D0 JUMP JUMPDEST SWAP1 POP PUSH9 0x3635C9ADC5DEA00000 DUP2 PUSH1 0x0 ADD MLOAD LT PUSH2 0xCE3 JUMPI PUSH2 0xCDC PUSH1 0x4B DUP5 PUSH2 0x121F JUMP JUMPDEST SWAP3 POP PUSH2 0xD1E JUMP JUMPDEST DUP1 MLOAD PUSH9 0x1B1AE4D6E2EF500000 GT PUSH2 0xCFF JUMPI PUSH2 0xCDC PUSH1 0x32 DUP5 PUSH2 0x121F JUMP JUMPDEST DUP1 MLOAD PUSH9 0x56BC75E2D63100000 GT PUSH2 0xD1E JUMPI PUSH2 0xD1B PUSH1 0x19 DUP5 PUSH2 0x121F JUMP JUMPDEST SWAP3 POP JUMPDEST PUSH2 0x12B NOT DUP4 SLT ISZERO PUSH2 0xD30 JUMPI PUSH2 0x12B NOT SWAP3 POP JUMPDEST PUSH1 0x64 DUP4 SGT ISZERO PUSH2 0xD3E JUMPI PUSH1 0x64 SWAP3 POP JUMPDEST POP SWAP1 SWAP4 SWAP3 POP POP POP JUMP JUMPDEST PUSH1 0x40 DUP2 ADD MLOAD PUSH1 0x0 SWAP1 PUSH1 0x1 SIGNEXTEND DUP2 DUP2 SLT ISZERO PUSH2 0xD5E JUMPI POP PUSH1 0x0 JUMPDEST PUSH1 0x64 DUP2 SGT ISZERO PUSH2 0xD6B JUMPI POP PUSH1 0x64 JUMPDEST PUSH1 0x0 PUSH1 0x64 PUSH1 0x5 PUSH1 0xFF AND DUP6 PUSH1 0x80 ADD MLOAD PUSH1 0xFF AND PUSH2 0xD86 SWAP2 SWAP1 PUSH2 0x1247 JUMP JUMPDEST PUSH1 0x60 DUP7 ADD MLOAD PUSH2 0xD9A SWAP1 PUSH1 0xA SWAP1 PUSH1 0xFF AND PUSH2 0x1247 JUMP JUMPDEST PUSH2 0xDA5 PUSH1 0x14 DUP7 PUSH2 0x1247 JUMP JUMPDEST PUSH1 0x20 DUP9 ADD MLOAD PUSH2 0xDB9 SWAP1 PUSH1 0x19 SWAP1 PUSH1 0xFF AND PUSH2 0x1247 JUMP JUMPDEST DUP9 MLOAD PUSH2 0xDCA SWAP1 PUSH1 0x28 SWAP1 PUSH1 0xFF AND PUSH2 0x1247 JUMP JUMPDEST PUSH2 0xDD4 SWAP2 SWAP1 PUSH2 0x121F JUMP JUMPDEST PUSH2 0xDDE SWAP2 SWAP1 PUSH2 0x121F JUMP JUMPDEST PUSH2 0xDE8 SWAP2 SWAP1 PUSH2 0x121F JUMP JUMPDEST PUSH2 0xDF2 SWAP2 SWAP1 PUSH2 0x121F JUMP JUMPDEST PUSH2 0xDFC SWAP2 SWAP1 PUSH2 0x1277 JUMP JUMPDEST SWAP1 POP PUSH1 0x0 DUP2 SLT ISZERO PUSH2 0xE0B JUMPI POP PUSH1 0x0 JUMPDEST PUSH1 0x64 DUP2 SGT ISZERO PUSH2 0xE18 JUMPI POP PUSH1 0x64 JUMPDEST SWAP4 SWAP3 POP POP POP JUMP JUMPDEST PUSH1 0x1 PUSH1 0x1 PUSH1 0xA0 SHL SUB DUP2 AND DUP2 EQ PUSH2 0x805 JUMPI PUSH1 0x0 DUP1 REVERT JUMPDEST PUSH1 0x0 DUP1 PUSH1 0x40 DUP4 DUP6 SUB SLT ISZERO PUSH2 0xE47 JUMPI PUSH1 0x0 DUP1 REVERT JUMPDEST DUP3 CALLDATALOAD PUSH2 0xE52 DUP2 PUSH2 0xE1F JUMP JUMPDEST SWAP5 PUSH1 0x20 SWAP4 SWAP1 SWAP4 ADD CALLDATALOAD SWAP4 POP POP POP JUMP JUMPDEST DUP1 CALLDATALOAD PUSH2 0xFFFF DUP2 AND DUP2 EQ PUSH2 0xE72 JUMPI PUSH1 0x0 DUP1 REVERT JUMPDEST SWAP2 SWAP1 POP JUMP JUMPDEST PUSH1 0x0 DUP1 PUSH1 0x0 PUSH1 0x60 DUP5 DUP7 SUB SLT ISZERO PUSH2 0xE8C JUMPI PUSH1 0x0 DUP1 REVERT JUMPDEST PUSH2 0xE95 DUP5 PUSH2 0xE60 JUMP JUMPDEST SWAP3 POP PUSH2 0xEA3 PUSH1 0x20 DUP6 ADD PUSH2 0xE60 JUMP JUMPDEST SWAP2 POP PUSH2 0xEB1 PUSH1 0x40 DUP6 ADD PUSH2 0xE60 JUMP JUMPDEST SWAP1 POP SWAP3 POP SWAP3 POP SWAP3 JUMP JUMPDEST PUSH1 0x0 PUSH1 0x20 DUP3 DUP5 SUB SLT ISZERO PUSH2 0xECC JUMPI PUSH1 0x0 DUP1 REVERT JUMPDEST PUSH2 0xE18 DUP3 PUSH2 0xE60 JUMP JUMPDEST PUSH1 0x0 PUSH1 0x20 DUP1 DUP4 MSTORE DUP4 MLOAD DUP1 DUP3 DUP6 ADD MSTORE PUSH1 0x0 JUMPDEST DUP2 DUP2 LT ISZERO PUSH2 0xF02 JUMPI DUP6 DUP2 ADD DUP4 ADD MLOAD DUP6 DUP3 ADD PUSH1 0x40 ADD MSTORE DUP3 ADD PUSH2 0xEE6 JUMP JUMPDEST POP PUSH1 0x0 PUSH1 0x40 DUP3 DUP7 ADD ADD MSTORE PUSH1 0x40 PUSH1 0x1F NOT PUSH1 0x1F DUP4 ADD AND DUP6 ADD ADD SWAP3 POP POP POP SWAP3 SWAP2 POP POP JUMP JUMPDEST PUSH1 0x0 PUSH1 0x20 DUP3 DUP5 SUB SLT ISZERO PUSH2 0xF35 JUMPI PUSH1 0x0 DUP1 REVERT JUMPDEST DUP2 CALLDATALOAD PUSH2 0xE18 DUP2 PUSH2 0xE1F JUMP JUMPDEST PUSH1 0x0 PUSH1 0x20 DUP3 DUP5 SUB SLT ISZERO PUSH2 0xF52 JUMPI PUSH1 0x0 DUP1 REVERT JUMPDEST POP MLOAD SWAP2 SWAP1 POP JUMP JUMPDEST PUSH4 0x4E487B71 PUSH1 0xE0 SHL PUSH1 0x0 MSTORE PUSH1 0x41 PUSH1 0x4 MSTORE PUSH1 0x24 PUSH1 0x0 REVERT JUMPDEST PUSH1 0x40 MLOAD PUSH1 0xE0 DUP2 ADD PUSH8 0xFFFFFFFFFFFFFFFF DUP2 GT DUP3 DUP3 LT OR ISZERO PUSH2 0xF92 JUMPI PUSH2 0xF92 PUSH2 0xF59 JUMP JUMPDEST PUSH1 0x40 MSTORE SWAP1 JUMP JUMPDEST PUSH1 0x40 MLOAD PUSH1 0x1F DUP3 ADD PUSH1 0x1F NOT AND DUP2 ADD PUSH8 0xFFFFFFFFFFFFFFFF DUP2 GT DUP3 DUP3 LT OR ISZERO PUSH2 0xFC1 JUMPI PUSH2 0xFC1 PUSH2 0xF59 JUMP JUMPDEST PUSH1 0x40 MSTORE SWAP2 SWAP1 POP JUMP JUMPDEST PUSH1 0x0 PUSH1 0x20 DUP1 DUP4 DUP6 SUB SLT ISZERO PUSH2 0xFDC JUMPI PUSH1 0x0 DUP1 REVERT JUMPDEST DUP3 MLOAD PUSH8 0xFFFFFFFFFFFFFFFF DUP1 DUP3 GT ISZERO PUSH2 0xFF4 JUMPI PUSH1 0x0 DUP1 REVERT JUMPDEST DUP2 DUP6 ADD SWAP2 POP DUP6 PUSH1 0x1F DUP4 ADD SLT PUSH2 0x1008 JUMPI PUSH1 0x0 DUP1 REVERT JUMPDEST DUP2 MLOAD DUP2 DUP2 GT ISZERO PUSH2 0x101A JUMPI PUSH2 0x101A PUSH2 0xF59 JUMP JUMPDEST DUP1 PUSH1 0x5 SHL SWAP2 POP PUSH2 0x102B DUP5 DUP4 ADD PUSH2 0xF98 JUMP JUMPDEST DUP2 DUP2 MSTORE SWAP2 DUP4 ADD DUP5 ADD SWAP2 DUP5 DUP2 ADD SWAP1 DUP9 DUP5 GT ISZERO PUSH2 0x1045 JUMPI PUSH1 0x0 DUP1 REVERT JUMPDEST SWAP4 DUP6 ADD SWAP4 JUMPDEST DUP4 DUP6 LT ISZERO PUSH2 0x1063 JUMPI DUP5 MLOAD DUP3 MSTORE SWAP4 DUP6 ADD SWAP4 SWAP1 DUP6 ADD SWAP1 PUSH2 0x104A JUMP JUMPDEST SWAP9 SWAP8 POP POP POP POP POP POP POP POP JUMP JUMPDEST PUSH4 0x4E487B71 PUSH1 0xE0 SHL PUSH1 0x0 MSTORE PUSH1 0x11 PUSH1 0x4 MSTORE PUSH1 0x24 PUSH1 0x0 REVERT JUMPDEST DUP2 DUP2 SUB DUP2 DUP2 GT ISZERO PUSH2 0x4E0 JUMPI PUSH2 0x4E0 PUSH2 0x106F JUMP JUMPDEST PUSH4 0x4E487B71 PUSH1 0xE0 SHL PUSH1 0x0 MSTORE PUSH1 0x32 PUSH1 0x4 MSTORE PUSH1 0x24 PUSH1 0x0 REVERT JUMPDEST DUP1 MLOAD PUSH2 0xE72 DUP2 PUSH2 0xE1F JUMP JUMPDEST PUSH1 0x0 PUSH1 0xE0 DUP3 DUP5 SUB SLT ISZERO PUSH2 0x10CB JUMPI PUSH1 0x0 DUP1 REVERT JUMPDEST PUSH2 0x10D3 PUSH2 0xF6F JUMP JUMPDEST DUP3 MLOAD DUP2 MSTORE PUSH1 0x20 DUP4 ADD MLOAD PUSH2 0x10E5 DUP2 PUSH2 0xE1F JUMP JUMPDEST DUP1 PUSH1 0x20 DUP4 ADD MSTORE POP PUSH1 0x40 DUP4 ADD MLOAD PUSH1 0x40 DUP3 ADD MSTORE PUSH1 0x60 DUP4 ADD MLOAD PUSH1 0x60 DUP3 ADD MSTORE PUSH1 0x80 DUP4 ADD MLOAD PUSH1 0x80 DUP3 ADD MSTORE PUSH1 0xA0 DUP4 ADD MLOAD PUSH1 0x4 DUP2 LT PUSH2 0x111C JUMPI PUSH1 0x0 DUP1 REVERT JUMPDEST PUSH1 0xA0 DUP3 ADD MSTORE PUSH2 0x112D PUSH1 0xC0 DUP5 ADD PUSH2 0x10AE JUMP JUMPDEST PUSH1 0xC0 DUP3 ADD MSTORE SWAP4 SWAP3 POP POP POP JUMP JUMPDEST PUSH4 0x4E487B71 PUSH1 0xE0 SHL PUSH1 0x0 MSTORE PUSH1 0x21 PUSH1 0x4 MSTORE PUSH1 0x24 PUSH1 0x0 REVERT JUMPDEST PUSH1 0x0 PUSH1 0x1 DUP3 ADD PUSH2 0x1161 JUMPI PUSH2 0x1161 PUSH2 0x106F JUMP JUMPDEST POP PUSH1 0x1 ADD SWAP1 JUMP JUMPDEST DUP1 DUP3 MUL DUP2 ISZERO DUP3 DUP3 DIV DUP5 EQ OR PUSH2 0x4E0 JUMPI PUSH2 0x4E0 PUSH2 0x106F JUMP JUMPDEST PUSH4 0x4E487B71 PUSH1 0xE0 SHL PUSH1 0x0 MSTORE PUSH1 0x12 PUSH1 0x4 MSTORE PUSH1 0x24 PUSH1 0x0 REVERT JUMPDEST PUSH1 0x0 DUP3 PUSH2 0x11A4 JUMPI PUSH2 0x11A4 PUSH2 0x117F JUMP JUMPDEST POP DIV SWAP1 JUMP JUMPDEST DUP2 DUP2 SUB PUSH1 0x0 DUP4 SLT DUP1 ISZERO DUP4 DUP4 SGT AND DUP4 DUP4 SLT DUP3 AND OR ISZERO PUSH2 0x11C9 JUMPI PUSH2 0x11C9 PUSH2 0x106F JUMP JUMPDEST POP SWAP3 SWAP2 POP POP JUMP JUMPDEST PUSH1 0x0 PUSH1 0x40 DUP3 DUP5 SUB SLT ISZERO PUSH2 0x11E2 JUMPI PUSH1 0x0 DUP1 REVERT JUMPDEST PUSH1 0x40 MLOAD PUSH1 0x40 DUP2 ADD DUP2 DUP2 LT PUSH8 0xFFFFFFFFFFFFFFFF DUP3 GT OR ISZERO PUSH2 0x1205 JUMPI PUSH2 0x1205 PUSH2 0xF59 JUMP JUMPDEST PUSH1 0x40 MSTORE DUP3 MLOAD DUP2 MSTORE PUSH1 0x20 SWAP3 DUP4 ADD MLOAD SWAP3 DUP2 ADD SWAP3 SWAP1 SWAP3 MSTORE POP SWAP2 SWAP1 POP JUMP JUMPDEST DUP1 DUP3 ADD DUP3 DUP2 SLT PUSH1 0x0 DUP4 SLT DUP1 ISZERO DUP3 AND DUP3 ISZERO DUP3 AND OR ISZERO PUSH2 0x123F JUMPI PUSH2 0x123F PUSH2 0x106F JUMP JUMPDEST POP POP SWAP3 SWAP2 POP POP JUMP JUMPDEST DUP1 DUP3 MUL PUSH1 0x0 DUP3 SLT PUSH1 0x1 PUSH1 0xFF SHL DUP5 EQ AND ISZERO PUSH2 0x1263 JUMPI PUSH2 0x1263 PUSH2 0x106F JUMP JUMPDEST DUP2 DUP2 SDIV DUP4 EQ DUP3 ISZERO OR PUSH2 0x4E0 JUMPI PUSH2 0x4E0 PUSH2 0x106F JUMP JUMPDEST PUSH1 0x0 DUP3 PUSH2 0x1286 JUMPI PUSH2 0x1286 PUSH2 0x117F JUMP JUMPDEST PUSH1 0x1 PUSH1 0xFF SHL DUP3 EQ PUSH1 0x0 NOT DUP5 EQ AND ISZERO PUSH2 0x12A0 JUMPI PUSH2 0x12A0 PUSH2 0x106F JUMP JUMPDEST POP SDIV SWAP1 JUMP INVALID LOG2 PUSH5 0x6970667358 0x22 SLT KECCAK256 DUP15 SAR 0xD3 PUSH4 0xE5DE8C58 PUSH1 0x2A 0xFB 0xE3 0x4D PUSH24 0x47DCF970BAAE1F1CCD3CA6ABF199EB137E5B64736F6C6343 STOP ADDMOD EQ STOP CALLER "},"methodIdentifiers":{"MAX_SCORE()":"27ff6223","MIN_SCORE()":"40b89270","WEIGHT_COLLATERAL()":"56db75cd","WEIGHT_CROSSCHAIN()":"86720f1f","WEIGHT_PARTICIPATION()":"8203b5fa","WEIGHT_REPAYMENT()":"b0af0b9b","WEIGHT_SYBIL()":"94970a80","baseAPR()":"58ac0e80","computeScore(address)":"c5d46dfc","getAPR(uint16)":"fb4ceaa3","getScoreTier(uint16)":"9c0c87b5","hasRecentActivity(address,uint256)":"23132001","maxAPR()":"53704f9a","minAPR()":"e0e79dde","owner()":"8da5cb5b","registry()":"7b103999","renounceOwnership()":"715018a6","setAPRConfig(uint16,uint16,uint16)":"70d7642b","setRegistry(address)":"a91ee0dc","transferOwnership(address)":"f2fde38b"}}}}}