{"contracts/CreditVault.sol":{"CreditVault":{"abi":[{"inputs":[{"internalType":"address payable","name":"_registry","type":"address"},{"internalType":"address","name":"_oracle","type":"address"}],"stateMutability":"nonpayable","type":"constructor"},{"inputs":[],"name":"EnforcedPause","type":"error"},{"inputs":[],"name":"ExpectedPause","type":"error"},{"inputs":[{"internalType":"address","name":"owner","type":"address"}],"name":"OwnableInvalidOwner","type":"error"},{"inputs":[{"internalType":"address","name":"account","type":"address"}],"name":"OwnableUnauthorizedAccount","type":"error"},{"inputs":[],"name":"ReentrancyGuardReentrantCall","type":"error"},{"inputs":[{"internalType":"address","name":"token","type":"address"}],"name":"SafeERC20FailedOperation","type":"error"},{"anonymous":false,"inputs":[{"indexed":true,"internalType":"address","name":"token","type":"address"},{"indexed":false,"internalType":"address","name":"priceFeed","type":"address"},{"indexed":false,"internalType":"bool","name":"allowed","type":"bool"}],"name":"AssetConfigured","type":"event"},{"anonymous":false,"inputs":[{"indexed":true,"internalType":"address","name":"user","type":"address"},{"indexed":true,"internalType":"address","name":"token","type":"address"},{"indexed":false,"internalType":"uint256","name":"amount","type":"uint256"},{"indexed":false,"internalType":"uint256","name":"usdValue","type":"uint256"}],"name":"CollateralDeposited","type":"event"},{"anonymous":false,"inputs":[{"indexed":true,"internalType":"address","name":"user","type":"address"},{"indexed":true,"internalType":"address","name":"token","type":"address"},{"indexed":false,"internalType":"uint256","name":"amount","type":"uint256"},{"indexed":false,"internalType":"uint256","name":"usdValue","type":"uint256"}],"name":"CollateralWithdrawn","type":"event"},{"anonymous":false,"inputs":[{"indexed":true,"internalType":"uint256","name":"loanId","type":"uint256"},{"indexed":false,"internalType":"uint256","name":"timestamp","type":"uint256"}],"name":"GracePeriodStarted","type":"event"},{"anonymous":false,"inputs":[{"indexed":true,"internalType":"address","name":"pool","type":"address"}],"name":"InsurancePoolSet","type":"event"},{"anonymous":false,"inputs":[{"indexed":true,"internalType":"uint256","name":"loanId","type":"uint256"},{"indexed":true,"internalType":"address","name":"borrower","type":"address"},{"indexed":false,"internalType":"uint256","name":"principal","type":"uint256"},{"indexed":false,"internalType":"uint256","name":"collateral","type":"uint256"},{"indexed":false,"internalType":"address","name":"collateralToken","type":"address"}],"name":"LoanCreated","type":"event"},{"anonymous":false,"inputs":[{"indexed":true,"internalType":"uint256","name":"loanId","type":"uint256"},{"indexed":true,"internalType":"address","name":"borrower","type":"address"},{"indexed":true,"internalType":"address","name":"liquidator","type":"address"},{"indexed":false,"internalType":"uint256","name":"collateralSeized","type":"uint256"}],"name":"LoanLiquidated","type":"event"},{"anonymous":false,"inputs":[{"indexed":true,"internalType":"uint256","name":"loanId","type":"uint256"},{"indexed":true,"internalType":"address","name":"borrower","type":"address"},{"indexed":false,"internalType":"uint256","name":"amount","type":"uint256"},{"indexed":false,"internalType":"uint256","name":"remaining","type":"uint256"}],"name":"LoanRepaid","type":"event"},{"anonymous":false,"inputs":[{"indexed":true,"internalType":"address","name":"newOracle","type":"address"}],"name":"OracleUpdated","type":"event"},{"anonymous":false,"inputs":[{"indexed":true,"internalType":"address","name":"previousOwner","type":"address"},{"indexed":true,"internalType":"address","name":"newOwner","type":"address"}],"name":"OwnershipTransferred","type":"event"},{"anonymous":false,"inputs":[{"indexed":false,"internalType":"address","name":"account","type":"address"}],"name":"Paused","type":"event"},{"anonymous":false,"inputs":[{"indexed":false,"internalType":"address","name":"account","type":"address"}],"name":"Unpaused","type":"event"},{"inputs":[],"name":"GRACE_BRONZE","outputs":[{"internalType":"uint256","name":"","type":"uint256"}],"stateMutability":"view","type":"function"},{"inputs":[],"name":"GRACE_GOLD","outputs":[{"internalType":"uint256","name":"","type":"uint256"}],"stateMutability":"view","type":"function"},{"inputs":[],"name":"GRACE_PLATINUM","outputs":[{"internalType":"uint256","name":"","type":"uint256"}],"stateMutability":"view","type":"function"},{"inputs":[],"name":"GRACE_SILVER","outputs":[{"internalType":"uint256","name":"","type":"uint256"}],"stateMutability":"view","type":"function"},{"inputs":[],"name":"INSURANCE_SHARE_BPS","outputs":[{"internalType":"uint16","name":"","type":"uint16"}],"stateMutability":"view","type":"function"},{"inputs":[],"name":"LIQUIDATION_PENALTY_BPS","outputs":[{"internalType":"uint16","name":"","type":"uint16"}],"stateMutability":"view","type":"function"},{"inputs":[],"name":"LIQUIDATOR_SHARE_BPS","outputs":[{"internalType":"uint16","name":"","type":"uint16"}],"stateMutability":"view","type":"function"},{"inputs":[],"name":"LTV_BRONZE","outputs":[{"internalType":"uint16","name":"","type":"uint16"}],"stateMutability":"view","type":"function"},{"inputs":[],"name":"LTV_GOLD","outputs":[{"internalType":"uint16","name":"","type":"uint16"}],"stateMutability":"view","type":"function"},{"inputs":[],"name":"LTV_PLATINUM","outputs":[{"internalType":"uint16","name":"","type":"uint16"}],"stateMutability":"view","type":"function"},{"inputs":[],"name":"LTV_SILVER","outputs":[{"internalType":"uint16","name":"","type":"uint16"}],"stateMutability":"view","type":"function"},{"inputs":[],"name":"MIN_HEALTH_FACTOR","outputs":[{"internalType":"uint256","name":"","type":"uint256"}],"stateMutability":"view","type":"function"},{"inputs":[{"internalType":"address","name":"","type":"address"}],"name":"assets","outputs":[{"internalType":"bool","name":"allowed","type":"bool"},{"internalType":"address","name":"priceFeed","type":"address"}],"stateMutability":"view","type":"function"},{"inputs":[{"internalType":"address","name":"collateralToken","type":"address"},{"internalType":"uint256","name":"collateralAmount","type":"uint256"},{"internalType":"uint256","name":"principalUsd18","type":"uint256"}],"name":"borrow","outputs":[{"internalType":"uint256","name":"loanId","type":"uint256"}],"stateMutability":"nonpayable","type":"function"},{"inputs":[{"internalType":"uint256","name":"loanId","type":"uint256"}],"name":"calculateDebt","outputs":[{"internalType":"uint256","name":"","type":"uint256"}],"stateMutability":"view","type":"function"},{"inputs":[{"internalType":"address","name":"token","type":"address"},{"internalType":"uint256","name":"amount","type":"uint256"}],"name":"depositCollateral","outputs":[],"stateMutability":"nonpayable","type":"function"},{"inputs":[{"internalType":"uint256","name":"loanId","type":"uint256"}],"name":"getHealthFactor","outputs":[{"internalType":"uint256","name":"","type":"uint256"}],"stateMutability":"view","type":"function"},{"inputs":[{"internalType":"uint256","name":"loanId","type":"uint256"}],"name":"getLoan","outputs":[{"components":[{"internalType":"address","name":"borrower","type":"address"},{"internalType":"uint256","name":"principal","type":"uint256"},{"internalType":"uint256","name":"collateralAmount","type":"uint256"},{"internalType":"address","name":"collateralToken","type":"address"},{"internalType":"uint256","name":"aprBps","type":"uint256"},{"internalType":"uint256","name":"startTimestamp","type":"uint256"},{"internalType":"bool","name":"active","type":"bool"},{"internalType":"uint256","name":"graceStart","type":"uint256"}],"internalType":"struct CreditVault.Loan","name":"","type":"tuple"}],"stateMutability":"view","type":"function"},{"inputs":[{"internalType":"address","name":"user","type":"address"}],"name":"getUserHealthFactor","outputs":[{"internalType":"uint256","name":"","type":"uint256"}],"stateMutability":"view","type":"function"},{"inputs":[],"name":"insurancePool","outputs":[{"internalType":"address","name":"","type":"address"}],"stateMutability":"view","type":"function"},{"inputs":[{"internalType":"uint256","name":"loanId","type":"uint256"}],"name":"liquidate","outputs":[],"stateMutability":"nonpayable","type":"function"},{"inputs":[{"internalType":"uint256","name":"","type":"uint256"}],"name":"loans","outputs":[{"internalType":"address","name":"borrower","type":"address"},{"internalType":"uint256","name":"principal","type":"uint256"},{"internalType":"uint256","name":"collateralAmount","type":"uint256"},{"internalType":"address","name":"collateralToken","type":"address"},{"internalType":"uint256","name":"aprBps","type":"uint256"},{"internalType":"uint256","name":"startTimestamp","type":"uint256"},{"internalType":"bool","name":"active","type":"bool"},{"internalType":"uint256","name":"graceStart","type":"uint256"}],"stateMutability":"view","type":"function"},{"inputs":[],"name":"nextLoanId","outputs":[{"internalType":"uint256","name":"","type":"uint256"}],"stateMutability":"view","type":"function"},{"inputs":[],"name":"oracle","outputs":[{"internalType":"contract ScoreOracleSimple","name":"","type":"address"}],"stateMutability":"view","type":"function"},{"inputs":[],"name":"owner","outputs":[{"internalType":"address","name":"","type":"address"}],"stateMutability":"view","type":"function"},{"inputs":[],"name":"pause","outputs":[],"stateMutability":"nonpayable","type":"function"},{"inputs":[],"name":"paused","outputs":[{"internalType":"bool","name":"","type":"bool"}],"stateMutability":"view","type":"function"},{"inputs":[],"name":"registry","outputs":[{"internalType":"contract CreditRegistryV1_1","name":"","type":"address"}],"stateMutability":"view","type":"function"},{"inputs":[],"name":"renounceOwnership","outputs":[],"stateMutability":"nonpayable","type":"function"},{"inputs":[{"internalType":"uint256","name":"loanId","type":"uint256"},{"internalType":"uint256","name":"amountUsd18","type":"uint256"}],"name":"repay","outputs":[],"stateMutability":"nonpayable","type":"function"},{"inputs":[{"internalType":"address","name":"token","type":"address"},{"internalType":"address","name":"priceFeed","type":"address"},{"internalType":"bool","name":"allowed","type":"bool"}],"name":"setAsset","outputs":[],"stateMutability":"nonpayable","type":"function"},{"inputs":[{"internalType":"address","name":"_pool","type":"address"}],"name":"setInsurancePool","outputs":[],"stateMutability":"nonpayable","type":"function"},{"inputs":[{"internalType":"address","name":"_oracle","type":"address"}],"name":"setOracle","outputs":[],"stateMutability":"nonpayable","type":"function"},{"inputs":[{"internalType":"address","name":"newOwner","type":"address"}],"name":"transferOwnership","outputs":[],"stateMutability":"nonpayable","type":"function"},{"inputs":[],"name":"unpause","outputs":[],"stateMutability":"nonpayable","type":"function"},{"inputs":[{"internalType":"address","name":"","type":"address"}],"name":"userCollateral","outputs":[{"internalType":"uint256","name":"","type":"uint256"}],"stateMutability":"view","type":"function"},{"inputs":[{"internalType":"address","name":"token","type":"address"},{"internalType":"uint256","name":"amount","type":"uint256"}],"name":"withdrawCollateral","outputs":[],"stateMutability":"nonpayable","type":"function"}],"evm":{"bytecode":{"linkReferences":{},"object":"60a06040523480156200001157600080fd5b50604051620024c1380380620024c1833981016040819052620000349162000199565b33806200005c57604051631e4fbdf760e01b8152600060048201526024015b60405180910390fd5b620000678162000130565b50600180556001600160a01b038216620000b75760405162461bcd60e51b815260206004820152601060248201526f496e76616c696420726567697374727960801b604482015260640162000053565b6001600160a01b038116620001005760405162461bcd60e51b815260206004820152600e60248201526d496e76616c6964206f7261636c6560901b604482015260640162000053565b6001600160a01b03918216608052600280549190921661010002610100600160a81b0319909116179055620001d8565b600080546001600160a01b038381166001600160a01b0319831681178455604051919092169283917f8be0079c531659141344cd1fd0a4f28419497f9722a3daafe3b4186f6b6457e09190a35050565b6001600160a01b03811681146200019657600080fd5b50565b60008060408385031215620001ad57600080fd5b8251620001ba8162000180565b6020840151909250620001cd8162000180565b809150509250929050565b6080516122cd620001f4600039600061039601526122cd6000f3fe608060405234801561001057600080fd5b50600436106102275760003560e01c80638da5cb5b11610130578063d850342f116100b8578063f11b81881161007c578063f11b81881461055f578063f1e35f13146105b1578063f2fde38b146105b9578063f69f1e4a146105cc578063fc54ddfb146105ec57600080fd5b8063d850342f14610482578063d8aed1451461048c578063dd9493281461049f578063e1ec3c68146104a9578063eb32bd9d1461055757600080fd5b8063b32a5314116100ff578063b32a531414610443578063b5627e421461044d578063c1bce0b71461045c578063c41c22fc14610275578063cb0dc99d1461046f57600080fd5b80638da5cb5b146103f9578063a5d5db0c1461040a578063a94c487e1461041d578063ab2adc001461043057600080fd5b8063504006ca116101b35780637adbf973116101825780637adbf9731461037e5780637b103999146103915780637dc0d1d0146103d05780638456cb59146103e857806387c51459146103f057600080fd5b8063504006ca146102cb5780635c975abb1461034d578063715018a61461036357806371cbfc981461036b57600080fd5b806328cd5a99116101fa57806328cd5a991461027e578063350c35e9146102915780633f4ba83a146102a6578063415f1240146102ae5780634f0f29f4146102c157600080fd5b806306057c5c1461022c5780630943a9541461024c57806317845c69146102545780631d1a54ce14610275575b600080fd5b610234604681565b60405161ffff90911681526020015b60405180910390f35b610234605081565b610267610262366004611dfa565b6105f5565b604051908152602001610243565b6102346101f481565b61026761028c366004611dfa565b6106c9565b6102a461029f366004611e2a565b6106da565b005b6102a46108dd565b6102a46102bc366004611dfa565b6108ef565b6102676202a30081565b6102de6102d9366004611dfa565b610c9a565b604051610243919060006101008201905060018060a01b038084511683526020840151602084015260408401516040840152806060850151166060840152506080830151608083015260a083015160a083015260c0830151151560c083015260e083015160e083015292915050565b60025460ff166040519015158152602001610243565b6102a4610d72565b610267610379366004611e54565b610d84565b6102a461038c366004611e54565b610de2565b6103b87f000000000000000000000000000000000000000000000000000000000000000081565b6040516001600160a01b039091168152602001610243565b6002546103b89061010090046001600160a01b031681565b6102a4610e83565b61026760075481565b6000546001600160a01b03166103b8565b6102a4610418366004611e2a565b610e93565b6102a461042b366004611e54565b610f95565b6006546103b8906001600160a01b031681565b6102676201518081565b6102676710a741a46278000081565b61026761046a366004611e6f565b61102c565b6102a461047d366004611ea2565b6113ae565b6102676203f48081565b6102a461049a366004611eee565b6114e8565b6102676201fa4081565b61050c6104b7366004611dfa565b6003602081905260009182526040909120805460018201546002830154938301546004840154600585015460068601546007909601546001600160a01b039586169794969495909316939192909160ff169088565b604080516001600160a01b03998a1681526020810198909852870195909552959092166060850152608084015260a083015291151560c082015260e081019190915261010001610243565b610234605a81565b61059261056d366004611e54565b60046020526000908152604090205460ff81169061010090046001600160a01b031682565b6040805192151583526001600160a01b03909116602083015201610243565b610234603281565b6102a46105c7366004611e54565b61169c565b6102676105da366004611e54565b60056020526000908152604090205481565b6102346103e881565b600081815260036020818152604080842081516101008101835281546001600160a01b03908116825260018301549482019490945260028201549281019290925292830154909116606082015260048201546080820152600582015460a0820152600682015460ff16151560c0820181905260079092015460e0820152906106805750600092915050565b600061068b846116d7565b905060006106a1836060015184604001516117b9565b9050816106b682670de0b6b3a7640000611f26565b6106c09190611f3d565b95945050505050565b60006106d4826116d7565b92915050565b6106e2611982565b6106ea6119ac565b6001600160a01b03821660009081526004602052604090205460ff1661072b5760405162461bcd60e51b815260040161072290611f5f565b60405180910390fd5b6000811161074b5760405162461bcd60e51b815260040161072290611f8a565b600061075783836117b9565b336000908152600560205260409020549091508111156107b95760405162461bcd60e51b815260206004820152601760248201527f496e73756666696369656e7420636f6c6c61746572616c0000000000000000006044820152606401610722565b33600090815260056020526040812080548392906107d8908490611faf565b90915550600090506107e9336119d0565b905080156108735733600090815260056020526040812054829061081590670de0b6b3a7640000611f26565b61081f9190611f3d565b90506710a741a4627800008110156108715760405162461bcd60e51b81526020600482015260156024820152744865616c746820666163746f7220746f6f206c6f7760581b6044820152606401610722565b505b6108876001600160a01b0385163385611ab0565b60408051848152602081018490526001600160a01b0386169133917f4700a5c58c58ea6536703185e43dae38bfd4158ee5330c70988f02a65562a36e91015b60405180910390a350506108d960018055565b5050565b6108e5611b14565b6108ed611b41565b565b6108f7611982565b6108ff6119ac565b6000818152600360205260409020600681015460ff166109535760405162461bcd60e51b815260206004820152600f60248201526e4c6f616e206e6f742061637469766560881b6044820152606401610722565b600061095e836116d7565b60038301546002840154919250600091610981916001600160a01b0316906117b9565b60025484546040516331751b7f60e21b81526001600160a01b039182166004820152929350600092610100909204169063c5d46dfc9060240160c060405180830381865afa1580156109d7573d6000803e3d6000fd5b505050506040513d601f19601f820116820180604052508101906109fb9190611ff7565b90506000610a0c8260a00151611b93565b90506000610a1b82600a6120a4565b61ffff1690506000610a2d8286611f26565b610a38876064611f26565b11905080610b3a576000610a4f8560a00151611bdc565b90508760070154600003610ad957426007890181905560405190815289907f850e821388cbf246fb93b12357651e23887c72f848742c21dbff137031b1356b9060200160405180910390a260405162461bcd60e51b815260206004820152601460248201527311dc9858d9481c195c9a5bd9081cdd185c9d195960621b6044820152606401610722565b808860070154610ae991906120bf565b421015610b385760405162461bcd60e51b815260206004820152601860248201527f477261636520706572696f64206e6f74206578706972656400000000000000006044820152606401610722565b505b60068701805460ff19169055600287015460009061271090610b5f906103e890611f26565b610b699190611f3d565b905060006127106101f461ffff168a60020154610b869190611f26565b610b909190611f3d565b905060006127106101f461ffff168b60020154610bad9190611f26565b610bb79190611f3d565b90506000838b60020154610bcb9190611faf565b60038c0154909150610be7906001600160a01b03163385611ab0565b6006546001600160a01b031615610c175760065460038c0154610c17916001600160a01b03918216911684611ab0565b8015610c3b578a5460038c0154610c3b916001600160a01b03918216911683611ab0565b8a5460028c015460405190815233916001600160a01b0316908e907fe4b3cb24da49cbaa1989989a720518b9c8c12f4a6e0d848853745d9271104b0f9060200160405180910390a45050505050505050505050610c9760018055565b50565b610cf660405180610100016040528060006001600160a01b03168152602001600081526020016000815260200160006001600160a01b031681526020016000815260200160008152602001600015158152602001600081525090565b5060009081526003602081815260409283902083516101008101855281546001600160a01b0390811682526001830154938201939093526002820154948101949094529182015416606083015260048101546080830152600581015460a0830152600681015460ff16151560c08301526007015460e082015290565b610d7a611b14565b6108ed6000611c2d565b600080610d90836119d0565b905080600003610da4575060001992915050565b6001600160a01b0383166000908152600560205260409020548190610dd190670de0b6b3a7640000611f26565b610ddb9190611f3d565b9392505050565b610dea611b14565b6001600160a01b038116610e315760405162461bcd60e51b815260206004820152600e60248201526d496e76616c6964206f7261636c6560901b6044820152606401610722565b60028054610100600160a81b0319166101006001600160a01b038416908102919091179091556040517f3df77beb5db05fcdd70a30fc8adf3f83f9501b68579455adbd100b818094039490600090a250565b610e8b611b14565b6108ed611c7d565b610e9b611982565b610ea36119ac565b6001600160a01b03821660009081526004602052604090205460ff16610edb5760405162461bcd60e51b815260040161072290611f5f565b60008111610efb5760405162461bcd60e51b815260040161072290611f8a565b610f106001600160a01b038316333084611cba565b6000610f1c83836117b9565b33600090815260056020526040812080549293508392909190610f409084906120bf565b909155505060408051838152602081018390526001600160a01b0385169133917f95d16db8c4932fcf5d6de67364791e7178ec505c7d3829a8b34d18959c01552c910160405180910390a3506108d960018055565b610f9d611b14565b6001600160a01b038116610fe25760405162461bcd60e51b815260206004820152600c60248201526b125b9d985b1a59081c1bdbdb60a21b6044820152606401610722565b600680546001600160a01b0319166001600160a01b0383169081179091556040517fdb94373ec3215b3142c9088cb1f834141c88090d24a7172315200cd92b85306590600090a250565b6000611036611982565b61103e6119ac565b6001600160a01b03841660009081526004602052604090205460ff166110765760405162461bcd60e51b815260040161072290611f5f565b600083116110b85760405162461bcd60e51b815260206004820152600f60248201526e16995c9bc818dbdb1b185d195c985b608a1b6044820152606401610722565b600082116110f95760405162461bcd60e51b815260206004820152600e60248201526d16995c9bc81c1c9a5b98da5c185b60921b6044820152606401610722565b6002546040516331751b7f60e21b815233600482015260009161010090046001600160a01b03169063c5d46dfc9060240160c060405180830381865afa158015611147573d6000803e3d6000fd5b505050506040513d601f19601f8201168201806040525081019061116b9190611ff7565b9050600061117c8260a00151611b93565b9050600061118a87876117b9565b905061119a61ffff831682611f26565b6111a5866064611f26565b11156111e95760405162461bcd60e51b815260206004820152601360248201527222bc31b2b2b2399030b63637bbb2b210262a2b60691b6044820152606401610722565b60025460a084015160405163fb4ceaa360e01b815261ffff909116600482015260009161010090046001600160a01b03169063fb4ceaa390602401602060405180830381865afa158015611241573d6000803e3d6000fd5b505050506040513d601f19601f8201168201806040525081019061126591906120d2565b600780549192506000611277836120ed565b9091555060408051610100810182523380825260208083018b81528385018d81526001600160a01b038f81166060870181815261ffff8b16608089019081524260a08a01908152600160c08b01818152600060e08d018181528f825260039b8c90529d90209b518c546001600160a01b0319908116918916919091178d559851918c0191909155955160028b015591519689018054909616969093169590951790935551600486015591516005850155905160068401805460ff1916911515919091179055925160079092019190915591965061135591308a611cba565b60408051878152602081018990526001600160a01b038a16818301529051339187917fc64023e02d0cb6f8d0b71a27b868cf100ab2b029455da648672e0522de0f4ce59181900360600190a350505050610ddb60018055565b6113b6611b14565b6001600160a01b0383166113fc5760405162461bcd60e51b815260206004820152600d60248201526c24b73b30b634b2103a37b5b2b760991b6044820152606401610722565b6001600160a01b0382166114475760405162461bcd60e51b8152602060048201526012602482015271125b9d985b1a59081c1c9a58d9481999595960721b6044820152606401610722565b6040805180820182528215158082526001600160a01b0385811660208085018281528984166000818152600484528890209651875492516001600160a81b0319909316901515610100600160a81b03191617610100929095169190910293909317909455845190815292830191909152917f93c63ede467bb2aab36216973fe7ae0908f66f1f5de14fe7f1b754f58798060b910160405180910390a2505050565b6114f0611982565b6114f86119ac565b6000828152600360205260409020600681015460ff1661154c5760405162461bcd60e51b815260206004820152600f60248201526e4c6f616e206e6f742061637469766560881b6044820152606401610722565b6000821161156c5760405162461bcd60e51b815260040161072290611f8a565b6000611577846116d7565b9050808311156115bf5760405162461bcd60e51b8152602060048201526013602482015272105b5bdd5b9d08195e18d959591cc81919589d606a1b6044820152606401610722565b8083106116445760068201805460ff191690558154600283015460038401546115f6926001600160a01b0391821692911690611ab0565b815460408051858152600060208201526001600160a01b039092169186917f553c9087bff5b534e499a66dac3fa9db2962cd252ea01165239755836ae5345e910160405180910390a3611691565b81546001600160a01b0316847f553c9087bff5b534e499a66dac3fa9db2962cd252ea01165239755836ae5345e8561167c8186611faf565b604080519283526020830191909152016108c6565b50506108d960018055565b6116a4611b14565b6001600160a01b0381166116ce57604051631e4fbdf760e01b815260006004820152602401610722565b610c9781611c2d565b600081815260036020818152604080842081516101008101835281546001600160a01b03908116825260018301549482019490945260028201549281019290925292830154909116606082015260048201546080820152600582015460a0820152600682015460ff16151560c0820181905260079092015460e0820152906117625750600092915050565b60008160a00151426117749190611faf565b9050600064496cebb80082846080015185602001516117939190611f26565b61179d9190611f26565b6117a79190611f3d565b90508083602001516106c091906120bf565b6001600160a01b03808316600090815260046020908152604080832081518083019092525460ff811615158083526101009091049094169181019190915290916118155760405162461bcd60e51b815260040161072290611f5f565b6000816020015190506000816001600160a01b031663feaf968c6040518163ffffffff1660e01b815260040160a060405180830381865afa15801561185e573d6000803e3d6000fd5b505050506040513d601f19601f820116820180604052508101906118829190612120565b505050915050600081136118c85760405162461bcd60e51b815260206004820152600d60248201526c496e76616c696420707269636560981b6044820152606401610722565b6000826001600160a01b031663313ce5676040518163ffffffff1660e01b8152600401602060405180830381865afa158015611908573d6000803e3d6000fd5b505050506040513d601f19601f8201168201806040525081019061192c9190612170565b9050600061193988611cf9565b9050611945828261218b565b61195090600a612288565b61195a8489611f26565b61196c90670de0b6b3a7640000611f26565b6119769190611f3d565b98975050505050505050565b6002600154036119a557604051633ee5aeb560e01b815260040160405180910390fd5b6002600155565b60025460ff16156108ed5760405163d93c066560e01b815260040160405180910390fd5b600080805b600754811015611aa95760008181526003602081815260409283902083516101008101855281546001600160a01b0390811682526001830154938201939093526002820154948101949094529182015416606083015260048101546080830152600581015460a0830152600681015460ff1615801560c0840181905260079092015460e0840152611a7b5750846001600160a01b031681600001516001600160a01b0316145b15611a9657611a89826116d7565b611a9390846120bf565b92505b5080611aa1816120ed565b9150506119d5565b5092915050565b6040516001600160a01b03838116602483015260448201839052611b0f91859182169063a9059cbb906064015b604051602081830303815290604052915060e01b6020820180516001600160e01b038381831617835250505050611d66565b505050565b6000546001600160a01b031633146108ed5760405163118cdaa760e01b8152336004820152602401610722565b611b49611dd7565b6002805460ff191690557f5db9ee0a495bf2e6ff9c91a7834c1ba4fdd244a5e8aa4e537bd38aeae4b073aa335b6040516001600160a01b03909116815260200160405180910390a1565b60006102e48261ffff1610611baa5750605a919050565b61029e8261ffff1610611bbf57506050919050565b6102448261ffff1610611bd457506046919050565b506032919050565b60006102e48261ffff1610611bf557506203f480919050565b61029e8261ffff1610611c0c57506202a300919050565b6102448261ffff1610611c2357506201fa40919050565b5062015180919050565b600080546001600160a01b038381166001600160a01b0319831681178455604051919092169283917f8be0079c531659141344cd1fd0a4f28419497f9722a3daafe3b4186f6b6457e09190a35050565b611c856119ac565b6002805460ff191660011790557f62e78cea01bee320cd4e420270b5ea74000d11b0c9f74754ebdbfc544b05a258611b763390565b6040516001600160a01b038481166024830152838116604483015260648201839052611cf39186918216906323b872dd90608401611add565b50505050565b6000816001600160a01b031663313ce5676040518163ffffffff1660e01b8152600401602060405180830381865afa925050508015611d55575060408051601f3d908101601f19168201909252611d5291810190612170565b60015b6106d457506012919050565b919050565b600080602060008451602086016000885af180611d89576040513d6000823e3d81fd5b50506000513d91508115611da1578060011415611dae565b6001600160a01b0384163b155b15611cf357604051635274afe760e01b81526001600160a01b0385166004820152602401610722565b60025460ff166108ed57604051638dfc202b60e01b815260040160405180910390fd5b600060208284031215611e0c57600080fd5b5035919050565b80356001600160a01b0381168114611d6157600080fd5b60008060408385031215611e3d57600080fd5b611e4683611e13565b946020939093013593505050565b600060208284031215611e6657600080fd5b610ddb82611e13565b600080600060608486031215611e8457600080fd5b611e8d84611e13565b95602085013595506040909401359392505050565b600080600060608486031215611eb757600080fd5b611ec084611e13565b9250611ece60208501611e13565b915060408401358015158114611ee357600080fd5b809150509250925092565b60008060408385031215611f0157600080fd5b50508035926020909101359150565b634e487b7160e01b600052601160045260246000fd5b80820281158282048414176106d4576106d4611f10565b600082611f5a57634e487b7160e01b600052601260045260246000fd5b500490565b602080825260119082015270105cdcd95d081b9bdd08185b1b1bddd959607a1b604082015260600190565b6020808252600b908201526a16995c9bc8185b5bdd5b9d60aa1b604082015260600190565b818103818111156106d4576106d4611f10565b805160ff81168114611d6157600080fd5b8051600181900b8114611d6157600080fd5b805161ffff81168114611d6157600080fd5b600060c0828403121561200957600080fd5b60405160c0810181811067ffffffffffffffff8211171561203a57634e487b7160e01b600052604160045260246000fd5b60405261204683611fc2565b815261205460208401611fc2565b602082015261206560408401611fd3565b604082015261207660608401611fc2565b606082015261208760808401611fc2565b608082015261209860a08401611fe5565b60a08201529392505050565b61ffff818116838216019080821115611aa957611aa9611f10565b808201808211156106d4576106d4611f10565b6000602082840312156120e457600080fd5b610ddb82611fe5565b6000600182016120ff576120ff611f10565b5060010190565b805169ffffffffffffffffffff81168114611d6157600080fd5b600080600080600060a0868803121561213857600080fd5b61214186612106565b945060208601519350604086015192506060860151915061216460808701612106565b90509295509295909350565b60006020828403121561218257600080fd5b610ddb82611fc2565b60ff81811683821601908111156106d4576106d4611f10565b600181815b808511156121df5781600019048211156121c5576121c5611f10565b808516156121d257918102915b93841c93908002906121a9565b509250929050565b6000826121f6575060016106d4565b81612203575060006106d4565b816001811461221957600281146122235761223f565b60019150506106d4565b60ff84111561223457612234611f10565b50506001821b6106d4565b5060208310610133831016604e8410600b8410161715612262575081810a6106d4565b61226c83836121a4565b806000190482111561228057612280611f10565b029392505050565b6000610ddb60ff8416836121e756fea2646970667358221220fe290f44c28775a701a8ef6fffaae8c7d1589a5cac32c7a8b72434bdb14df2dd64736f6c63430008140033","opcodes":"PUSH1 0xA0 PUSH1 0x40 MSTORE CALLVALUE DUP1 ISZERO PUSH3 0x11 JUMPI PUSH1 0x0 DUP1 REVERT JUMPDEST POP PUSH1 0x40 MLOAD PUSH3 0x24C1 CODESIZE SUB DUP1 PUSH3 0x24C1 DUP4 CODECOPY DUP2 ADD PUSH1 0x40 DUP2 SWAP1 MSTORE PUSH3 0x34 SWAP2 PUSH3 0x199 JUMP JUMPDEST CALLER DUP1 PUSH3 0x5C JUMPI PUSH1 0x40 MLOAD PUSH4 0x1E4FBDF7 PUSH1 0xE0 SHL DUP2 MSTORE PUSH1 0x0 PUSH1 0x4 DUP3 ADD MSTORE PUSH1 0x24 ADD JUMPDEST PUSH1 0x40 MLOAD DUP1 SWAP2 SUB SWAP1 REVERT JUMPDEST PUSH3 0x67 DUP2 PUSH3 0x130 JUMP JUMPDEST POP PUSH1 0x1 DUP1 SSTORE PUSH1 0x1 PUSH1 0x1 PUSH1 0xA0 SHL SUB DUP3 AND PUSH3 0xB7 JUMPI PUSH1 0x40 MLOAD PUSH3 0x461BCD PUSH1 0xE5 SHL DUP2 MSTORE PUSH1 0x20 PUSH1 0x4 DUP3 ADD MSTORE PUSH1 0x10 PUSH1 0x24 DUP3 ADD MSTORE PUSH16 0x496E76616C6964207265676973747279 PUSH1 0x80 SHL PUSH1 0x44 DUP3 ADD MSTORE PUSH1 0x64 ADD PUSH3 0x53 JUMP JUMPDEST PUSH1 0x1 PUSH1 0x1 PUSH1 0xA0 SHL SUB DUP2 AND PUSH3 0x100 JUMPI PUSH1 0x40 MLOAD PUSH3 0x461BCD PUSH1 0xE5 SHL DUP2 MSTORE PUSH1 0x20 PUSH1 0x4 DUP3 ADD MSTORE PUSH1 0xE PUSH1 0x24 DUP3 ADD MSTORE PUSH14 0x496E76616C6964206F7261636C65 PUSH1 0x90 SHL PUSH1 0x44 DUP3 ADD MSTORE PUSH1 0x64 ADD PUSH3 0x53 JUMP JUMPDEST PUSH1 0x1 PUSH1 0x1 PUSH1 0xA0 SHL SUB SWAP2 DUP3 AND PUSH1 0x80 MSTORE PUSH1 0x2 DUP1 SLOAD SWAP2 SWAP1 SWAP3 AND PUSH2 0x100 MUL PUSH2 0x100 PUSH1 0x1 PUSH1 0xA8 SHL SUB NOT SWAP1 SWAP2 AND OR SWAP1 SSTORE PUSH3 0x1D8 JUMP JUMPDEST PUSH1 0x0 DUP1 SLOAD PUSH1 0x1 PUSH1 0x1 PUSH1 0xA0 SHL SUB DUP4 DUP2 AND PUSH1 0x1 PUSH1 0x1 PUSH1 0xA0 SHL SUB NOT DUP4 AND DUP2 OR DUP5 SSTORE PUSH1 0x40 MLOAD SWAP2 SWAP1 SWAP3 AND SWAP3 DUP4 SWAP2 PUSH32 0x8BE0079C531659141344CD1FD0A4F28419497F9722A3DAAFE3B4186F6B6457E0 SWAP2 SWAP1 LOG3 POP POP JUMP JUMPDEST PUSH1 0x1 PUSH1 0x1 PUSH1 0xA0 SHL SUB DUP2 AND DUP2 EQ PUSH3 0x196 JUMPI PUSH1 0x0 DUP1 REVERT JUMPDEST POP JUMP JUMPDEST PUSH1 0x0 DUP1 PUSH1 0x40 DUP4 DUP6 SUB SLT ISZERO PUSH3 0x1AD JUMPI PUSH1 0x0 DUP1 REVERT JUMPDEST DUP3 MLOAD PUSH3 0x1BA DUP2 PUSH3 0x180 JUMP JUMPDEST PUSH1 0x20 DUP5 ADD MLOAD SWAP1 SWAP3 POP PUSH3 0x1CD DUP2 PUSH3 0x180 JUMP JUMPDEST DUP1 SWAP2 POP POP SWAP3 POP SWAP3 SWAP1 POP JUMP JUMPDEST PUSH1 0x80 MLOAD PUSH2 0x22CD PUSH3 0x1F4 PUSH1 0x0 CODECOPY PUSH1 0x0 PUSH2 0x396 ADD MSTORE PUSH2 0x22CD PUSH1 0x0 RETURN INVALID PUSH1 0x80 PUSH1 0x40 MSTORE CALLVALUE DUP1 ISZERO PUSH2 0x10 JUMPI PUSH1 0x0 DUP1 REVERT JUMPDEST POP PUSH1 0x4 CALLDATASIZE LT PUSH2 0x227 JUMPI PUSH1 0x0 CALLDATALOAD PUSH1 0xE0 SHR DUP1 PUSH4 0x8DA5CB5B GT PUSH2 0x130 JUMPI DUP1 PUSH4 0xD850342F GT PUSH2 0xB8 JUMPI DUP1 PUSH4 0xF11B8188 GT PUSH2 0x7C JUMPI DUP1 PUSH4 0xF11B8188 EQ PUSH2 0x55F JUMPI DUP1 PUSH4 0xF1E35F13 EQ PUSH2 0x5B1 JUMPI DUP1 PUSH4 0xF2FDE38B EQ PUSH2 0x5B9 JUMPI DUP1 PUSH4 0xF69F1E4A EQ PUSH2 0x5CC JUMPI DUP1 PUSH4 0xFC54DDFB EQ PUSH2 0x5EC JUMPI PUSH1 0x0 DUP1 REVERT JUMPDEST DUP1 PUSH4 0xD850342F EQ PUSH2 0x482 JUMPI DUP1 PUSH4 0xD8AED145 EQ PUSH2 0x48C JUMPI DUP1 PUSH4 0xDD949328 EQ PUSH2 0x49F JUMPI DUP1 PUSH4 0xE1EC3C68 EQ PUSH2 0x4A9 JUMPI DUP1 PUSH4 0xEB32BD9D EQ PUSH2 0x557 JUMPI PUSH1 0x0 DUP1 REVERT JUMPDEST DUP1 PUSH4 0xB32A5314 GT PUSH2 0xFF JUMPI DUP1 PUSH4 0xB32A5314 EQ PUSH2 0x443 JUMPI DUP1 PUSH4 0xB5627E42 EQ PUSH2 0x44D JUMPI DUP1 PUSH4 0xC1BCE0B7 EQ PUSH2 0x45C JUMPI DUP1 PUSH4 0xC41C22FC EQ PUSH2 0x275 JUMPI DUP1 PUSH4 0xCB0DC99D EQ PUSH2 0x46F JUMPI PUSH1 0x0 DUP1 REVERT JUMPDEST DUP1 PUSH4 0x8DA5CB5B EQ PUSH2 0x3F9 JUMPI DUP1 PUSH4 0xA5D5DB0C EQ PUSH2 0x40A JUMPI DUP1 PUSH4 0xA94C487E EQ PUSH2 0x41D JUMPI DUP1 PUSH4 0xAB2ADC00 EQ PUSH2 0x430 JUMPI PUSH1 0x0 DUP1 REVERT JUMPDEST DUP1 PUSH4 0x504006CA GT PUSH2 0x1B3 JUMPI DUP1 PUSH4 0x7ADBF973 GT PUSH2 0x182 JUMPI DUP1 PUSH4 0x7ADBF973 EQ PUSH2 0x37E JUMPI DUP1 PUSH4 0x7B103999 EQ PUSH2 0x391 JUMPI DUP1 PUSH4 0x7DC0D1D0 EQ PUSH2 0x3D0 JUMPI DUP1 PUSH4 0x8456CB59 EQ PUSH2 0x3E8 JUMPI DUP1 PUSH4 0x87C51459 EQ PUSH2 0x3F0 JUMPI PUSH1 0x0 DUP1 REVERT JUMPDEST DUP1 PUSH4 0x504006CA EQ PUSH2 0x2CB JUMPI DUP1 PUSH4 0x5C975ABB EQ PUSH2 0x34D JUMPI DUP1 PUSH4 0x715018A6 EQ PUSH2 0x363 JUMPI DUP1 PUSH4 0x71CBFC98 EQ PUSH2 0x36B JUMPI PUSH1 0x0 DUP1 REVERT JUMPDEST DUP1 PUSH4 0x28CD5A99 GT PUSH2 0x1FA JUMPI DUP1 PUSH4 0x28CD5A99 EQ PUSH2 0x27E JUMPI DUP1 PUSH4 0x350C35E9 EQ PUSH2 0x291 JUMPI DUP1 PUSH4 0x3F4BA83A EQ PUSH2 0x2A6 JUMPI DUP1 PUSH4 0x415F1240 EQ PUSH2 0x2AE JUMPI DUP1 PUSH4 0x4F0F29F4 EQ PUSH2 0x2C1 JUMPI PUSH1 0x0 DUP1 REVERT JUMPDEST DUP1 PUSH4 0x6057C5C EQ PUSH2 0x22C JUMPI DUP1 PUSH4 0x943A954 EQ PUSH2 0x24C JUMPI DUP1 PUSH4 0x17845C69 EQ PUSH2 0x254 JUMPI DUP1 PUSH4 0x1D1A54CE EQ PUSH2 0x275 JUMPI JUMPDEST PUSH1 0x0 DUP1 REVERT JUMPDEST PUSH2 0x234 PUSH1 0x46 DUP2 JUMP JUMPDEST PUSH1 0x40 MLOAD PUSH2 0xFFFF SWAP1 SWAP2 AND DUP2 MSTORE PUSH1 0x20 ADD JUMPDEST PUSH1 0x40 MLOAD DUP1 SWAP2 SUB SWAP1 RETURN JUMPDEST PUSH2 0x234 PUSH1 0x50 DUP2 JUMP JUMPDEST PUSH2 0x267 PUSH2 0x262 CALLDATASIZE PUSH1 0x4 PUSH2 0x1DFA JUMP JUMPDEST PUSH2 0x5F5 JUMP JUMPDEST PUSH1 0x40 MLOAD SWAP1 DUP2 MSTORE PUSH1 0x20 ADD PUSH2 0x243 JUMP JUMPDEST PUSH2 0x234 PUSH2 0x1F4 DUP2 JUMP JUMPDEST PUSH2 0x267 PUSH2 0x28C CALLDATASIZE PUSH1 0x4 PUSH2 0x1DFA JUMP JUMPDEST PUSH2 0x6C9 JUMP JUMPDEST PUSH2 0x2A4 PUSH2 0x29F CALLDATASIZE PUSH1 0x4 PUSH2 0x1E2A JUMP JUMPDEST PUSH2 0x6DA JUMP JUMPDEST STOP JUMPDEST PUSH2 0x2A4 PUSH2 0x8DD JUMP JUMPDEST PUSH2 0x2A4 PUSH2 0x2BC CALLDATASIZE PUSH1 0x4 PUSH2 0x1DFA JUMP JUMPDEST PUSH2 0x8EF JUMP JUMPDEST PUSH2 0x267 PUSH3 0x2A300 DUP2 JUMP JUMPDEST PUSH2 0x2DE PUSH2 0x2D9 CALLDATASIZE PUSH1 0x4 PUSH2 0x1DFA JUMP JUMPDEST PUSH2 0xC9A JUMP JUMPDEST PUSH1 0x40 MLOAD PUSH2 0x243 SWAP2 SWAP1 PUSH1 0x0 PUSH2 0x100 DUP3 ADD SWAP1 POP PUSH1 0x1 DUP1 PUSH1 0xA0 SHL SUB DUP1 DUP5 MLOAD AND DUP4 MSTORE PUSH1 0x20 DUP5 ADD MLOAD PUSH1 0x20 DUP5 ADD MSTORE PUSH1 0x40 DUP5 ADD MLOAD PUSH1 0x40 DUP5 ADD MSTORE DUP1 PUSH1 0x60 DUP6 ADD MLOAD AND PUSH1 0x60 DUP5 ADD MSTORE POP PUSH1 0x80 DUP4 ADD MLOAD PUSH1 0x80 DUP4 ADD MSTORE PUSH1 0xA0 DUP4 ADD MLOAD PUSH1 0xA0 DUP4 ADD MSTORE PUSH1 0xC0 DUP4 ADD MLOAD ISZERO ISZERO PUSH1 0xC0 DUP4 ADD MSTORE PUSH1 0xE0 DUP4 ADD MLOAD PUSH1 0xE0 DUP4 ADD MSTORE SWAP3 SWAP2 POP POP JUMP JUMPDEST PUSH1 0x2 SLOAD PUSH1 0xFF AND PUSH1 0x40 MLOAD SWAP1 ISZERO ISZERO DUP2 MSTORE PUSH1 0x20 ADD PUSH2 0x243 JUMP JUMPDEST PUSH2 0x2A4 PUSH2 0xD72 JUMP JUMPDEST PUSH2 0x267 PUSH2 0x379 CALLDATASIZE PUSH1 0x4 PUSH2 0x1E54 JUMP JUMPDEST PUSH2 0xD84 JUMP JUMPDEST PUSH2 0x2A4 PUSH2 0x38C CALLDATASIZE PUSH1 0x4 PUSH2 0x1E54 JUMP JUMPDEST PUSH2 0xDE2 JUMP JUMPDEST PUSH2 0x3B8 PUSH32 0x0 DUP2 JUMP JUMPDEST PUSH1 0x40 MLOAD PUSH1 0x1 PUSH1 0x1 PUSH1 0xA0 SHL SUB SWAP1 SWAP2 AND DUP2 MSTORE PUSH1 0x20 ADD PUSH2 0x243 JUMP JUMPDEST PUSH1 0x2 SLOAD PUSH2 0x3B8 SWAP1 PUSH2 0x100 SWAP1 DIV PUSH1 0x1 PUSH1 0x1 PUSH1 0xA0 SHL SUB AND DUP2 JUMP JUMPDEST PUSH2 0x2A4 PUSH2 0xE83 JUMP JUMPDEST PUSH2 0x267 PUSH1 0x7 SLOAD DUP2 JUMP JUMPDEST PUSH1 0x0 SLOAD PUSH1 0x1 PUSH1 0x1 PUSH1 0xA0 SHL SUB AND PUSH2 0x3B8 JUMP JUMPDEST PUSH2 0x2A4 PUSH2 0x418 CALLDATASIZE PUSH1 0x4 PUSH2 0x1E2A JUMP JUMPDEST PUSH2 0xE93 JUMP JUMPDEST PUSH2 0x2A4 PUSH2 0x42B CALLDATASIZE PUSH1 0x4 PUSH2 0x1E54 JUMP JUMPDEST PUSH2 0xF95 JUMP JUMPDEST PUSH1 0x6 SLOAD PUSH2 0x3B8 SWAP1 PUSH1 0x1 PUSH1 0x1 PUSH1 0xA0 SHL SUB AND DUP2 JUMP JUMPDEST PUSH2 0x267 PUSH3 0x15180 DUP2 JUMP JUMPDEST PUSH2 0x267 PUSH8 0x10A741A462780000 DUP2 JUMP JUMPDEST PUSH2 0x267 PUSH2 0x46A CALLDATASIZE PUSH1 0x4 PUSH2 0x1E6F JUMP JUMPDEST PUSH2 0x102C JUMP JUMPDEST PUSH2 0x2A4 PUSH2 0x47D CALLDATASIZE PUSH1 0x4 PUSH2 0x1EA2 JUMP JUMPDEST PUSH2 0x13AE JUMP JUMPDEST PUSH2 0x267 PUSH3 0x3F480 DUP2 JUMP JUMPDEST PUSH2 0x2A4 PUSH2 0x49A CALLDATASIZE PUSH1 0x4 PUSH2 0x1EEE JUMP JUMPDEST PUSH2 0x14E8 JUMP JUMPDEST PUSH2 0x267 PUSH3 0x1FA40 DUP2 JUMP JUMPDEST PUSH2 0x50C PUSH2 0x4B7 CALLDATASIZE PUSH1 0x4 PUSH2 0x1DFA JUMP JUMPDEST PUSH1 0x3 PUSH1 0x20 DUP2 SWAP1 MSTORE PUSH1 0x0 SWAP2 DUP3 MSTORE PUSH1 0x40 SWAP1 SWAP2 KECCAK256 DUP1 SLOAD PUSH1 0x1 DUP3 ADD SLOAD PUSH1 0x2 DUP4 ADD SLOAD SWAP4 DUP4 ADD SLOAD PUSH1 0x4 DUP5 ADD SLOAD PUSH1 0x5 DUP6 ADD SLOAD PUSH1 0x6 DUP7 ADD SLOAD PUSH1 0x7 SWAP1 SWAP7 ADD SLOAD PUSH1 0x1 PUSH1 0x1 PUSH1 0xA0 SHL SUB SWAP6 DUP7 AND SWAP8 SWAP5 SWAP7 SWAP5 SWAP6 SWAP1 SWAP4 AND SWAP4 SWAP2 SWAP3 SWAP1 SWAP2 PUSH1 0xFF AND SWAP1 DUP9 JUMP JUMPDEST PUSH1 0x40 DUP1 MLOAD PUSH1 0x1 PUSH1 0x1 PUSH1 0xA0 SHL SUB SWAP10 DUP11 AND DUP2 MSTORE PUSH1 0x20 DUP2 ADD SWAP9 SWAP1 SWAP9 MSTORE DUP8 ADD SWAP6 SWAP1 SWAP6 MSTORE SWAP6 SWAP1 SWAP3 AND PUSH1 0x60 DUP6 ADD MSTORE PUSH1 0x80 DUP5 ADD MSTORE PUSH1 0xA0 DUP4 ADD MSTORE SWAP2 ISZERO ISZERO PUSH1 0xC0 DUP3 ADD MSTORE PUSH1 0xE0 DUP2 ADD SWAP2 SWAP1 SWAP2 MSTORE PUSH2 0x100 ADD PUSH2 0x243 JUMP JUMPDEST PUSH2 0x234 PUSH1 0x5A DUP2 JUMP JUMPDEST PUSH2 0x592 PUSH2 0x56D CALLDATASIZE PUSH1 0x4 PUSH2 0x1E54 JUMP JUMPDEST PUSH1 0x4 PUSH1 0x20 MSTORE PUSH1 0x0 SWAP1 DUP2 MSTORE PUSH1 0x40 SWAP1 KECCAK256 SLOAD PUSH1 0xFF DUP2 AND SWAP1 PUSH2 0x100 SWAP1 DIV PUSH1 0x1 PUSH1 0x1 PUSH1 0xA0 SHL SUB AND DUP3 JUMP JUMPDEST PUSH1 0x40 DUP1 MLOAD SWAP3 ISZERO ISZERO DUP4 MSTORE PUSH1 0x1 PUSH1 0x1 PUSH1 0xA0 SHL SUB SWAP1 SWAP2 AND PUSH1 0x20 DUP4 ADD MSTORE ADD PUSH2 0x243 JUMP JUMPDEST PUSH2 0x234 PUSH1 0x32 DUP2 JUMP JUMPDEST PUSH2 0x2A4 PUSH2 0x5C7 CALLDATASIZE PUSH1 0x4 PUSH2 0x1E54 JUMP JUMPDEST PUSH2 0x169C JUMP JUMPDEST PUSH2 0x267 PUSH2 0x5DA CALLDATASIZE PUSH1 0x4 PUSH2 0x1E54 JUMP JUMPDEST PUSH1 0x5 PUSH1 0x20 MSTORE PUSH1 0x0 SWAP1 DUP2 MSTORE PUSH1 0x40 SWAP1 KECCAK256 SLOAD DUP2 JUMP JUMPDEST PUSH2 0x234 PUSH2 0x3E8 DUP2 JUMP JUMPDEST PUSH1 0x0 DUP2 DUP2 MSTORE PUSH1 0x3 PUSH1 0x20 DUP2 DUP2 MSTORE PUSH1 0x40 DUP1 DUP5 KECCAK256 DUP2 MLOAD PUSH2 0x100 DUP2 ADD DUP4 MSTORE DUP2 SLOAD PUSH1 0x1 PUSH1 0x1 PUSH1 0xA0 SHL SUB SWAP1 DUP2 AND DUP3 MSTORE PUSH1 0x1 DUP4 ADD SLOAD SWAP5 DUP3 ADD SWAP5 SWAP1 SWAP5 MSTORE PUSH1 0x2 DUP3 ADD SLOAD SWAP3 DUP2 ADD SWAP3 SWAP1 SWAP3 MSTORE SWAP3 DUP4 ADD SLOAD SWAP1 SWAP2 AND PUSH1 0x60 DUP3 ADD MSTORE PUSH1 0x4 DUP3 ADD SLOAD PUSH1 0x80 DUP3 ADD MSTORE PUSH1 0x5 DUP3 ADD SLOAD PUSH1 0xA0 DUP3 ADD MSTORE PUSH1 0x6 DUP3 ADD SLOAD PUSH1 0xFF AND ISZERO ISZERO PUSH1 0xC0 DUP3 ADD DUP2 SWAP1 MSTORE PUSH1 0x7 SWAP1 SWAP3 ADD SLOAD PUSH1 0xE0 DUP3 ADD MSTORE SWAP1 PUSH2 0x680 JUMPI POP PUSH1 0x0 SWAP3 SWAP2 POP POP JUMP JUMPDEST PUSH1 0x0 PUSH2 0x68B DUP5 PUSH2 0x16D7 JUMP JUMPDEST SWAP1 POP PUSH1 0x0 PUSH2 0x6A1 DUP4 PUSH1 0x60 ADD MLOAD DUP5 PUSH1 0x40 ADD MLOAD PUSH2 0x17B9 JUMP JUMPDEST SWAP1 POP DUP2 PUSH2 0x6B6 DUP3 PUSH8 0xDE0B6B3A7640000 PUSH2 0x1F26 JUMP JUMPDEST PUSH2 0x6C0 SWAP2 SWAP1 PUSH2 0x1F3D JUMP JUMPDEST SWAP6 SWAP5 POP POP POP POP POP JUMP JUMPDEST PUSH1 0x0 PUSH2 0x6D4 DUP3 PUSH2 0x16D7 JUMP JUMPDEST SWAP3 SWAP2 POP POP JUMP JUMPDEST PUSH2 0x6E2 PUSH2 0x1982 JUMP JUMPDEST PUSH2 0x6EA PUSH2 0x19AC JUMP JUMPDEST PUSH1 0x1 PUSH1 0x1 PUSH1 0xA0 SHL SUB DUP3 AND PUSH1 0x0 SWAP1 DUP2 MSTORE PUSH1 0x4 PUSH1 0x20 MSTORE PUSH1 0x40 SWAP1 KECCAK256 SLOAD PUSH1 0xFF AND PUSH2 0x72B JUMPI PUSH1 0x40 MLOAD PUSH3 0x461BCD PUSH1 0xE5 SHL DUP2 MSTORE PUSH1 0x4 ADD PUSH2 0x722 SWAP1 PUSH2 0x1F5F JUMP JUMPDEST PUSH1 0x40 MLOAD DUP1 SWAP2 SUB SWAP1 REVERT JUMPDEST PUSH1 0x0 DUP2 GT PUSH2 0x74B JUMPI PUSH1 0x40 MLOAD PUSH3 0x461BCD PUSH1 0xE5 SHL DUP2 MSTORE PUSH1 0x4 ADD PUSH2 0x722 SWAP1 PUSH2 0x1F8A JUMP JUMPDEST PUSH1 0x0 PUSH2 0x757 DUP4 DUP4 PUSH2 0x17B9 JUMP JUMPDEST CALLER PUSH1 0x0 SWAP1 DUP2 MSTORE PUSH1 0x5 PUSH1 0x20 MSTORE PUSH1 0x40 SWAP1 KECCAK256 SLOAD SWAP1 SWAP2 POP DUP2 GT ISZERO PUSH2 0x7B9 JUMPI PUSH1 0x40 MLOAD PUSH3 0x461BCD PUSH1 0xE5 SHL DUP2 MSTORE PUSH1 0x20 PUSH1 0x4 DUP3 ADD MSTORE PUSH1 0x17 PUSH1 0x24 DUP3 ADD MSTORE PUSH32 0x496E73756666696369656E7420636F6C6C61746572616C000000000000000000 PUSH1 0x44 DUP3 ADD MSTORE PUSH1 0x64 ADD PUSH2 0x722 JUMP JUMPDEST CALLER PUSH1 0x0 SWAP1 DUP2 MSTORE PUSH1 0x5 PUSH1 0x20 MSTORE PUSH1 0x40 DUP2 KECCAK256 DUP1 SLOAD DUP4 SWAP3 SWAP1 PUSH2 0x7D8 SWAP1 DUP5 SWAP1 PUSH2 0x1FAF JUMP JUMPDEST SWAP1 SWAP2 SSTORE POP PUSH1 0x0 SWAP1 POP PUSH2 0x7E9 CALLER PUSH2 0x19D0 JUMP JUMPDEST SWAP1 POP DUP1 ISZERO PUSH2 0x873 JUMPI CALLER PUSH1 0x0 SWAP1 DUP2 MSTORE PUSH1 0x5 PUSH1 0x20 MSTORE PUSH1 0x40 DUP2 KECCAK256 SLOAD DUP3 SWAP1 PUSH2 0x815 SWAP1 PUSH8 0xDE0B6B3A7640000 PUSH2 0x1F26 JUMP JUMPDEST PUSH2 0x81F SWAP2 SWAP1 PUSH2 0x1F3D JUMP JUMPDEST SWAP1 POP PUSH8 0x10A741A462780000 DUP2 LT ISZERO PUSH2 0x871 JUMPI PUSH1 0x40 MLOAD PUSH3 0x461BCD PUSH1 0xE5 SHL DUP2 MSTORE PUSH1 0x20 PUSH1 0x4 DUP3 ADD MSTORE PUSH1 0x15 PUSH1 0x24 DUP3 ADD MSTORE PUSH21 0x4865616C746820666163746F7220746F6F206C6F77 PUSH1 0x58 SHL PUSH1 0x44 DUP3 ADD MSTORE PUSH1 0x64 ADD PUSH2 0x722 JUMP JUMPDEST POP JUMPDEST PUSH2 0x887 PUSH1 0x1 PUSH1 0x1 PUSH1 0xA0 SHL SUB DUP6 AND CALLER DUP6 PUSH2 0x1AB0 JUMP JUMPDEST PUSH1 0x40 DUP1 MLOAD DUP5 DUP2 MSTORE PUSH1 0x20 DUP2 ADD DUP5 SWAP1 MSTORE PUSH1 0x1 PUSH1 0x1 PUSH1 0xA0 SHL SUB DUP7 AND SWAP2 CALLER SWAP2 PUSH32 0x4700A5C58C58EA6536703185E43DAE38BFD4158EE5330C70988F02A65562A36E SWAP2 ADD JUMPDEST PUSH1 0x40 MLOAD DUP1 SWAP2 SUB SWAP1 LOG3 POP POP PUSH2 0x8D9 PUSH1 0x1 DUP1 SSTORE JUMP JUMPDEST POP POP JUMP JUMPDEST PUSH2 0x8E5 PUSH2 0x1B14 JUMP JUMPDEST PUSH2 0x8ED PUSH2 0x1B41 JUMP JUMPDEST JUMP JUMPDEST PUSH2 0x8F7 PUSH2 0x1982 JUMP JUMPDEST PUSH2 0x8FF PUSH2 0x19AC JUMP JUMPDEST PUSH1 0x0 DUP2 DUP2 MSTORE PUSH1 0x3 PUSH1 0x20 MSTORE PUSH1 0x40 SWAP1 KECCAK256 PUSH1 0x6 DUP2 ADD SLOAD PUSH1 0xFF AND PUSH2 0x953 JUMPI PUSH1 0x40 MLOAD PUSH3 0x461BCD PUSH1 0xE5 SHL DUP2 MSTORE PUSH1 0x20 PUSH1 0x4 DUP3 ADD MSTORE PUSH1 0xF PUSH1 0x24 DUP3 ADD MSTORE PUSH15 0x4C6F616E206E6F7420616374697665 PUSH1 0x88 SHL PUSH1 0x44 DUP3 ADD MSTORE PUSH1 0x64 ADD PUSH2 0x722 JUMP JUMPDEST PUSH1 0x0 PUSH2 0x95E DUP4 PUSH2 0x16D7 JUMP JUMPDEST PUSH1 0x3 DUP4 ADD SLOAD PUSH1 0x2 DUP5 ADD SLOAD SWAP2 SWAP3 POP PUSH1 0x0 SWAP2 PUSH2 0x981 SWAP2 PUSH1 0x1 PUSH1 0x1 PUSH1 0xA0 SHL SUB AND SWAP1 PUSH2 0x17B9 JUMP JUMPDEST PUSH1 0x2 SLOAD DUP5 SLOAD PUSH1 0x40 MLOAD PUSH4 0x31751B7F PUSH1 0xE2 SHL DUP2 MSTORE PUSH1 0x1 PUSH1 0x1 PUSH1 0xA0 SHL SUB SWAP2 DUP3 AND PUSH1 0x4 DUP3 ADD MSTORE SWAP3 SWAP4 POP PUSH1 0x0 SWAP3 PUSH2 0x100 SWAP1 SWAP3 DIV AND SWAP1 PUSH4 0xC5D46DFC SWAP1 PUSH1 0x24 ADD PUSH1 0xC0 PUSH1 0x40 MLOAD DUP1 DUP4 SUB DUP2 DUP7 GAS STATICCALL ISZERO DUP1 ISZERO PUSH2 0x9D7 JUMPI RETURNDATASIZE PUSH1 0x0 DUP1 RETURNDATACOPY RETURNDATASIZE PUSH1 0x0 REVERT JUMPDEST POP POP POP POP PUSH1 0x40 MLOAD RETURNDATASIZE PUSH1 0x1F NOT PUSH1 0x1F DUP3 ADD AND DUP3 ADD DUP1 PUSH1 0x40 MSTORE POP DUP2 ADD SWAP1 PUSH2 0x9FB SWAP2 SWAP1 PUSH2 0x1FF7 JUMP JUMPDEST SWAP1 POP PUSH1 0x0 PUSH2 0xA0C DUP3 PUSH1 0xA0 ADD MLOAD PUSH2 0x1B93 JUMP JUMPDEST SWAP1 POP PUSH1 0x0 PUSH2 0xA1B DUP3 PUSH1 0xA PUSH2 0x20A4 JUMP JUMPDEST PUSH2 0xFFFF AND SWAP1 POP PUSH1 0x0 PUSH2 0xA2D DUP3 DUP7 PUSH2 0x1F26 JUMP JUMPDEST PUSH2 0xA38 DUP8 PUSH1 0x64 PUSH2 0x1F26 JUMP JUMPDEST GT SWAP1 POP DUP1 PUSH2 0xB3A JUMPI PUSH1 0x0 PUSH2 0xA4F DUP6 PUSH1 0xA0 ADD MLOAD PUSH2 0x1BDC JUMP JUMPDEST SWAP1 POP DUP8 PUSH1 0x7 ADD SLOAD PUSH1 0x0 SUB PUSH2 0xAD9 JUMPI TIMESTAMP PUSH1 0x7 DUP10 ADD DUP2 SWAP1 SSTORE PUSH1 0x40 MLOAD SWAP1 DUP2 MSTORE DUP10 SWAP1 PUSH32 0x850E821388CBF246FB93B12357651E23887C72F848742C21DBFF137031B1356B SWAP1 PUSH1 0x20 ADD PUSH1 0x40 MLOAD DUP1 SWAP2 SUB SWAP1 LOG2 PUSH1 0x40 MLOAD PUSH3 0x461BCD PUSH1 0xE5 SHL DUP2 MSTORE PUSH1 0x20 PUSH1 0x4 DUP3 ADD MSTORE PUSH1 0x14 PUSH1 0x24 DUP3 ADD MSTORE PUSH20 0x11DC9858D9481C195C9A5BD9081CDD185C9D1959 PUSH1 0x62 SHL PUSH1 0x44 DUP3 ADD MSTORE PUSH1 0x64 ADD PUSH2 0x722 JUMP JUMPDEST DUP1 DUP9 PUSH1 0x7 ADD SLOAD PUSH2 0xAE9 SWAP2 SWAP1 PUSH2 0x20BF JUMP JUMPDEST TIMESTAMP LT ISZERO PUSH2 0xB38 JUMPI PUSH1 0x40 MLOAD PUSH3 0x461BCD PUSH1 0xE5 SHL DUP2 MSTORE PUSH1 0x20 PUSH1 0x4 DUP3 ADD MSTORE PUSH1 0x18 PUSH1 0x24 DUP3 ADD MSTORE PUSH32 0x477261636520706572696F64206E6F7420657870697265640000000000000000 PUSH1 0x44 DUP3 ADD MSTORE PUSH1 0x64 ADD PUSH2 0x722 JUMP JUMPDEST POP JUMPDEST PUSH1 0x6 DUP8 ADD DUP1 SLOAD PUSH1 0xFF NOT AND SWAP1 SSTORE PUSH1 0x2 DUP8 ADD SLOAD PUSH1 0x0 SWAP1 PUSH2 0x2710 SWAP1 PUSH2 0xB5F SWAP1 PUSH2 0x3E8 SWAP1 PUSH2 0x1F26 JUMP JUMPDEST PUSH2 0xB69 SWAP2 SWAP1 PUSH2 0x1F3D JUMP JUMPDEST SWAP1 POP PUSH1 0x0 PUSH2 0x2710 PUSH2 0x1F4 PUSH2 0xFFFF AND DUP11 PUSH1 0x2 ADD SLOAD PUSH2 0xB86 SWAP2 SWAP1 PUSH2 0x1F26 JUMP JUMPDEST PUSH2 0xB90 SWAP2 SWAP1 PUSH2 0x1F3D JUMP JUMPDEST SWAP1 POP PUSH1 0x0 PUSH2 0x2710 PUSH2 0x1F4 PUSH2 0xFFFF AND DUP12 PUSH1 0x2 ADD SLOAD PUSH2 0xBAD SWAP2 SWAP1 PUSH2 0x1F26 JUMP JUMPDEST PUSH2 0xBB7 SWAP2 SWAP1 PUSH2 0x1F3D JUMP JUMPDEST SWAP1 POP PUSH1 0x0 DUP4 DUP12 PUSH1 0x2 ADD SLOAD PUSH2 0xBCB SWAP2 SWAP1 PUSH2 0x1FAF JUMP JUMPDEST PUSH1 0x3 DUP13 ADD SLOAD SWAP1 SWAP2 POP PUSH2 0xBE7 SWAP1 PUSH1 0x1 PUSH1 0x1 PUSH1 0xA0 SHL SUB AND CALLER DUP6 PUSH2 0x1AB0 JUMP JUMPDEST PUSH1 0x6 SLOAD PUSH1 0x1 PUSH1 0x1 PUSH1 0xA0 SHL SUB AND ISZERO PUSH2 0xC17 JUMPI PUSH1 0x6 SLOAD PUSH1 0x3 DUP13 ADD SLOAD PUSH2 0xC17 SWAP2 PUSH1 0x1 PUSH1 0x1 PUSH1 0xA0 SHL SUB SWAP2 DUP3 AND SWAP2 AND DUP5 PUSH2 0x1AB0 JUMP JUMPDEST DUP1 ISZERO PUSH2 0xC3B JUMPI DUP11 SLOAD PUSH1 0x3 DUP13 ADD SLOAD PUSH2 0xC3B SWAP2 PUSH1 0x1 PUSH1 0x1 PUSH1 0xA0 SHL SUB SWAP2 DUP3 AND SWAP2 AND DUP4 PUSH2 0x1AB0 JUMP JUMPDEST DUP11 SLOAD PUSH1 0x2 DUP13 ADD SLOAD PUSH1 0x40 MLOAD SWAP1 DUP2 MSTORE CALLER SWAP2 PUSH1 0x1 PUSH1 0x1 PUSH1 0xA0 SHL SUB AND SWAP1 DUP15 SWAP1 PUSH32 0xE4B3CB24DA49CBAA1989989A720518B9C8C12F4A6E0D848853745D9271104B0F SWAP1 PUSH1 0x20 ADD PUSH1 0x40 MLOAD DUP1 SWAP2 SUB SWAP1 LOG4 POP POP POP POP POP POP POP POP POP POP POP PUSH2 0xC97 PUSH1 0x1 DUP1 SSTORE JUMP JUMPDEST POP JUMP JUMPDEST PUSH2 0xCF6 PUSH1 0x40 MLOAD DUP1 PUSH2 0x100 ADD PUSH1 0x40 MSTORE DUP1 PUSH1 0x0 PUSH1 0x1 PUSH1 0x1 PUSH1 0xA0 SHL SUB AND DUP2 MSTORE PUSH1 0x20 ADD PUSH1 0x0 DUP2 MSTORE PUSH1 0x20 ADD PUSH1 0x0 DUP2 MSTORE PUSH1 0x20 ADD PUSH1 0x0 PUSH1 0x1 PUSH1 0x1 PUSH1 0xA0 SHL SUB AND DUP2 MSTORE PUSH1 0x20 ADD PUSH1 0x0 DUP2 MSTORE PUSH1 0x20 ADD PUSH1 0x0 DUP2 MSTORE PUSH1 0x20 ADD PUSH1 0x0 ISZERO ISZERO DUP2 MSTORE PUSH1 0x20 ADD PUSH1 0x0 DUP2 MSTORE POP SWAP1 JUMP JUMPDEST POP PUSH1 0x0 SWAP1 DUP2 MSTORE PUSH1 0x3 PUSH1 0x20 DUP2 DUP2 MSTORE PUSH1 0x40 SWAP3 DUP4 SWAP1 KECCAK256 DUP4 MLOAD PUSH2 0x100 DUP2 ADD DUP6 MSTORE DUP2 SLOAD PUSH1 0x1 PUSH1 0x1 PUSH1 0xA0 SHL SUB SWAP1 DUP2 AND DUP3 MSTORE PUSH1 0x1 DUP4 ADD SLOAD SWAP4 DUP3 ADD SWAP4 SWAP1 SWAP4 MSTORE PUSH1 0x2 DUP3 ADD SLOAD SWAP5 DUP2 ADD SWAP5 SWAP1 SWAP5 MSTORE SWAP2 DUP3 ADD SLOAD AND PUSH1 0x60 DUP4 ADD MSTORE PUSH1 0x4 DUP2 ADD SLOAD PUSH1 0x80 DUP4 ADD MSTORE PUSH1 0x5 DUP2 ADD SLOAD PUSH1 0xA0 DUP4 ADD MSTORE PUSH1 0x6 DUP2 ADD SLOAD PUSH1 0xFF AND ISZERO ISZERO PUSH1 0xC0 DUP4 ADD MSTORE PUSH1 0x7 ADD SLOAD PUSH1 0xE0 DUP3 ADD MSTORE SWAP1 JUMP JUMPDEST PUSH2 0xD7A PUSH2 0x1B14 JUMP JUMPDEST PUSH2 0x8ED PUSH1 0x0 PUSH2 0x1C2D JUMP JUMPDEST PUSH1 0x0 DUP1 PUSH2 0xD90 DUP4 PUSH2 0x19D0 JUMP JUMPDEST SWAP1 POP DUP1 PUSH1 0x0 SUB PUSH2 0xDA4 JUMPI POP PUSH1 0x0 NOT SWAP3 SWAP2 POP POP JUMP JUMPDEST PUSH1 0x1 PUSH1 0x1 PUSH1 0xA0 SHL SUB DUP4 AND PUSH1 0x0 SWAP1 DUP2 MSTORE PUSH1 0x5 PUSH1 0x20 MSTORE PUSH1 0x40 SWAP1 KECCAK256 SLOAD DUP2 SWAP1 PUSH2 0xDD1 SWAP1 PUSH8 0xDE0B6B3A7640000 PUSH2 0x1F26 JUMP JUMPDEST PUSH2 0xDDB SWAP2 SWAP1 PUSH2 0x1F3D JUMP JUMPDEST SWAP4 SWAP3 POP POP POP JUMP JUMPDEST PUSH2 0xDEA PUSH2 0x1B14 JUMP JUMPDEST PUSH1 0x1 PUSH1 0x1 PUSH1 0xA0 SHL SUB DUP2 AND PUSH2 0xE31 JUMPI PUSH1 0x40 MLOAD PUSH3 0x461BCD PUSH1 0xE5 SHL DUP2 MSTORE PUSH1 0x20 PUSH1 0x4 DUP3 ADD MSTORE PUSH1 0xE PUSH1 0x24 DUP3 ADD MSTORE PUSH14 0x496E76616C6964206F7261636C65 PUSH1 0x90 SHL PUSH1 0x44 DUP3 ADD MSTORE PUSH1 0x64 ADD PUSH2 0x722 JUMP JUMPDEST PUSH1 0x2 DUP1 SLOAD PUSH2 0x100 PUSH1 0x1 PUSH1 0xA8 SHL SUB NOT AND PUSH2 0x100 PUSH1 0x1 PUSH1 0x1 PUSH1 0xA0 SHL SUB DUP5 AND SWAP1 DUP2 MUL SWAP2 SWAP1 SWAP2 OR SWAP1 SWAP2 SSTORE PUSH1 0x40 MLOAD PUSH32 0x3DF77BEB5DB05FCDD70A30FC8ADF3F83F9501B68579455ADBD100B8180940394 SWAP1 PUSH1 0x0 SWAP1 LOG2 POP JUMP JUMPDEST PUSH2 0xE8B PUSH2 0x1B14 JUMP JUMPDEST PUSH2 0x8ED PUSH2 0x1C7D JUMP JUMPDEST PUSH2 0xE9B PUSH2 0x1982 JUMP JUMPDEST PUSH2 0xEA3 PUSH2 0x19AC JUMP JUMPDEST PUSH1 0x1 PUSH1 0x1 PUSH1 0xA0 SHL SUB DUP3 AND PUSH1 0x0 SWAP1 DUP2 MSTORE PUSH1 0x4 PUSH1 0x20 MSTORE PUSH1 0x40 SWAP1 KECCAK256 SLOAD PUSH1 0xFF AND PUSH2 0xEDB JUMPI PUSH1 0x40 MLOAD PUSH3 0x461BCD PUSH1 0xE5 SHL DUP2 MSTORE PUSH1 0x4 ADD PUSH2 0x722 SWAP1 PUSH2 0x1F5F JUMP JUMPDEST PUSH1 0x0 DUP2 GT PUSH2 0xEFB JUMPI PUSH1 0x40 MLOAD PUSH3 0x461BCD PUSH1 0xE5 SHL DUP2 MSTORE PUSH1 0x4 ADD PUSH2 0x722 SWAP1 PUSH2 0x1F8A JUMP JUMPDEST PUSH2 0xF10 PUSH1 0x1 PUSH1 0x1 PUSH1 0xA0 SHL SUB DUP4 AND CALLER ADDRESS DUP5 PUSH2 0x1CBA JUMP JUMPDEST PUSH1 0x0 PUSH2 0xF1C DUP4 DUP4 PUSH2 0x17B9 JUMP JUMPDEST CALLER PUSH1 0x0 SWAP1 DUP2 MSTORE PUSH1 0x5 PUSH1 0x20 MSTORE PUSH1 0x40 DUP2 KECCAK256 DUP1 SLOAD SWAP3 SWAP4 POP DUP4 SWAP3 SWAP1 SWAP2 SWAP1 PUSH2 0xF40 SWAP1 DUP5 SWAP1 PUSH2 0x20BF JUMP JUMPDEST SWAP1 SWAP2 SSTORE POP POP PUSH1 0x40 DUP1 MLOAD DUP4 DUP2 MSTORE PUSH1 0x20 DUP2 ADD DUP4 SWAP1 MSTORE PUSH1 0x1 PUSH1 0x1 PUSH1 0xA0 SHL SUB DUP6 AND SWAP2 CALLER SWAP2 PUSH32 0x95D16DB8C4932FCF5D6DE67364791E7178EC505C7D3829A8B34D18959C01552C SWAP2 ADD PUSH1 0x40 MLOAD DUP1 SWAP2 SUB SWAP1 LOG3 POP PUSH2 0x8D9 PUSH1 0x1 DUP1 SSTORE JUMP JUMPDEST PUSH2 0xF9D PUSH2 0x1B14 JUMP JUMPDEST PUSH1 0x1 PUSH1 0x1 PUSH1 0xA0 SHL SUB DUP2 AND PUSH2 0xFE2 JUMPI PUSH1 0x40 MLOAD PUSH3 0x461BCD PUSH1 0xE5 SHL DUP2 MSTORE PUSH1 0x20 PUSH1 0x4 DUP3 ADD MSTORE PUSH1 0xC PUSH1 0x24 DUP3 ADD MSTORE PUSH12 0x125B9D985B1A59081C1BDBDB PUSH1 0xA2 SHL PUSH1 0x44 DUP3 ADD MSTORE PUSH1 0x64 ADD PUSH2 0x722 JUMP JUMPDEST PUSH1 0x6 DUP1 SLOAD PUSH1 0x1 PUSH1 0x1 PUSH1 0xA0 SHL SUB NOT AND PUSH1 0x1 PUSH1 0x1 PUSH1 0xA0 SHL SUB DUP4 AND SWAP1 DUP2 OR SWAP1 SWAP2 SSTORE PUSH1 0x40 MLOAD PUSH32 0xDB94373EC3215B3142C9088CB1F834141C88090D24A7172315200CD92B853065 SWAP1 PUSH1 0x0 SWAP1 LOG2 POP JUMP JUMPDEST PUSH1 0x0 PUSH2 0x1036 PUSH2 0x1982 JUMP JUMPDEST PUSH2 0x103E PUSH2 0x19AC JUMP JUMPDEST PUSH1 0x1 PUSH1 0x1 PUSH1 0xA0 SHL SUB DUP5 AND PUSH1 0x0 SWAP1 DUP2 MSTORE PUSH1 0x4 PUSH1 0x20 MSTORE PUSH1 0x40 SWAP1 KECCAK256 SLOAD PUSH1 0xFF AND PUSH2 0x1076 JUMPI PUSH1 0x40 MLOAD PUSH3 0x461BCD PUSH1 0xE5 SHL DUP2 MSTORE PUSH1 0x4 ADD PUSH2 0x722 SWAP1 PUSH2 0x1F5F JUMP JUMPDEST PUSH1 0x0 DUP4 GT PUSH2 0x10B8 JUMPI PUSH1 0x40 MLOAD PUSH3 0x461BCD PUSH1 0xE5 SHL DUP2 MSTORE PUSH1 0x20 PUSH1 0x4 DUP3 ADD MSTORE PUSH1 0xF PUSH1 0x24 DUP3 ADD MSTORE PUSH15 0x16995C9BC818DBDB1B185D195C985B PUSH1 0x8A SHL PUSH1 0x44 DUP3 ADD MSTORE PUSH1 0x64 ADD PUSH2 0x722 JUMP JUMPDEST PUSH1 0x0 DUP3 GT PUSH2 0x10F9 JUMPI PUSH1 0x40 MLOAD PUSH3 0x461BCD PUSH1 0xE5 SHL DUP2 MSTORE PUSH1 0x20 PUSH1 0x4 DUP3 ADD MSTORE PUSH1 0xE PUSH1 0x24 DUP3 ADD MSTORE PUSH14 0x16995C9BC81C1C9A5B98DA5C185B PUSH1 0x92 SHL PUSH1 0x44 DUP3 ADD MSTORE PUSH1 0x64 ADD PUSH2 0x722 JUMP JUMPDEST PUSH1 0x2 SLOAD PUSH1 0x40 MLOAD PUSH4 0x31751B7F PUSH1 0xE2 SHL DUP2 MSTORE CALLER PUSH1 0x4 DUP3 ADD MSTORE PUSH1 0x0 SWAP2 PUSH2 0x100 SWAP1 DIV PUSH1 0x1 PUSH1 0x1 PUSH1 0xA0 SHL SUB AND SWAP1 PUSH4 0xC5D46DFC SWAP1 PUSH1 0x24 ADD PUSH1 0xC0 PUSH1 0x40 MLOAD DUP1 DUP4 SUB DUP2 DUP7 GAS STATICCALL ISZERO DUP1 ISZERO PUSH2 0x1147 JUMPI RETURNDATASIZE PUSH1 0x0 DUP1 RETURNDATACOPY RETURNDATASIZE PUSH1 0x0 REVERT JUMPDEST POP POP POP POP PUSH1 0x40 MLOAD RETURNDATASIZE PUSH1 0x1F NOT PUSH1 0x1F DUP3 ADD AND DUP3 ADD DUP1 PUSH1 0x40 MSTORE POP DUP2 ADD SWAP1 PUSH2 0x116B SWAP2 SWAP1 PUSH2 0x1FF7 JUMP JUMPDEST SWAP1 POP PUSH1 0x0 PUSH2 0x117C DUP3 PUSH1 0xA0 ADD MLOAD PUSH2 0x1B93 JUMP JUMPDEST SWAP1 POP PUSH1 0x0 PUSH2 0x118A DUP8 DUP8 PUSH2 0x17B9 JUMP JUMPDEST SWAP1 POP PUSH2 0x119A PUSH2 0xFFFF DUP4 AND DUP3 PUSH2 0x1F26 JUMP JUMPDEST PUSH2 0x11A5 DUP7 PUSH1 0x64 PUSH2 0x1F26 JUMP JUMPDEST GT ISZERO PUSH2 0x11E9 JUMPI PUSH1 0x40 MLOAD PUSH3 0x461BCD PUSH1 0xE5 SHL DUP2 MSTORE PUSH1 0x20 PUSH1 0x4 DUP3 ADD MSTORE PUSH1 0x13 PUSH1 0x24 DUP3 ADD MSTORE PUSH19 0x22BC31B2B2B2399030B63637BBB2B210262A2B PUSH1 0x69 SHL PUSH1 0x44 DUP3 ADD MSTORE PUSH1 0x64 ADD PUSH2 0x722 JUMP JUMPDEST PUSH1 0x2 SLOAD PUSH1 0xA0 DUP5 ADD MLOAD PUSH1 0x40 MLOAD PUSH4 0xFB4CEAA3 PUSH1 0xE0 SHL DUP2 MSTORE PUSH2 0xFFFF SWAP1 SWAP2 AND PUSH1 0x4 DUP3 ADD MSTORE PUSH1 0x0 SWAP2 PUSH2 0x100 SWAP1 DIV PUSH1 0x1 PUSH1 0x1 PUSH1 0xA0 SHL SUB AND SWAP1 PUSH4 0xFB4CEAA3 SWAP1 PUSH1 0x24 ADD PUSH1 0x20 PUSH1 0x40 MLOAD DUP1 DUP4 SUB DUP2 DUP7 GAS STATICCALL ISZERO DUP1 ISZERO PUSH2 0x1241 JUMPI RETURNDATASIZE PUSH1 0x0 DUP1 RETURNDATACOPY RETURNDATASIZE PUSH1 0x0 REVERT JUMPDEST POP POP POP POP PUSH1 0x40 MLOAD RETURNDATASIZE PUSH1 0x1F NOT PUSH1 0x1F DUP3 ADD AND DUP3 ADD DUP1 PUSH1 0x40 MSTORE POP DUP2 ADD SWAP1 PUSH2 0x1265 SWAP2 SWAP1 PUSH2 0x20D2 JUMP JUMPDEST PUSH1 0x7 DUP1 SLOAD SWAP2 SWAP3 POP PUSH1 0x0 PUSH2 0x1277 DUP4 PUSH2 0x20ED JUMP JUMPDEST SWAP1 SWAP2 SSTORE POP PUSH1 0x40 DUP1 MLOAD PUSH2 0x100 DUP2 ADD DUP3 MSTORE CALLER DUP1 DUP3 MSTORE PUSH1 0x20 DUP1 DUP4 ADD DUP12 DUP2 MSTORE DUP4 DUP6 ADD DUP14 DUP2 MSTORE PUSH1 0x1 PUSH1 0x1 PUSH1 0xA0 SHL SUB DUP16 DUP2 AND PUSH1 0x60 DUP8 ADD DUP2 DUP2 MSTORE PUSH2 0xFFFF DUP12 AND PUSH1 0x80 DUP10 ADD SWAP1 DUP2 MSTORE TIMESTAMP PUSH1 0xA0 DUP11 ADD SWAP1 DUP2 MSTORE PUSH1 0x1 PUSH1 0xC0 DUP12 ADD DUP2 DUP2 MSTORE PUSH1 0x0 PUSH1 0xE0 DUP14 ADD DUP2 DUP2 MSTORE DUP16 DUP3 MSTORE PUSH1 0x3 SWAP12 DUP13 SWAP1 MSTORE SWAP14 SWAP1 KECCAK256 SWAP12 MLOAD DUP13 SLOAD PUSH1 0x1 PUSH1 0x1 PUSH1 0xA0 SHL SUB NOT SWAP1 DUP2 AND SWAP2 DUP10 AND SWAP2 SWAP1 SWAP2 OR DUP14 SSTORE SWAP9 MLOAD SWAP2 DUP13 ADD SWAP2 SWAP1 SWAP2 SSTORE SWAP6 MLOAD PUSH1 0x2 DUP12 ADD SSTORE SWAP2 MLOAD SWAP7 DUP10 ADD DUP1 SLOAD SWAP1 SWAP7 AND SWAP7 SWAP1 SWAP4 AND SWAP6 SWAP1 SWAP6 OR SWAP1 SWAP4 SSTORE MLOAD PUSH1 0x4 DUP7 ADD SSTORE SWAP2 MLOAD PUSH1 0x5 DUP6 ADD SSTORE SWAP1 MLOAD PUSH1 0x6 DUP5 ADD DUP1 SLOAD PUSH1 0xFF NOT AND SWAP2 ISZERO ISZERO SWAP2 SWAP1 SWAP2 OR SWAP1 SSTORE SWAP3 MLOAD PUSH1 0x7 SWAP1 SWAP3 ADD SWAP2 SWAP1 SWAP2 SSTORE SWAP2 SWAP7 POP PUSH2 0x1355 SWAP2 ADDRESS DUP11 PUSH2 0x1CBA JUMP JUMPDEST PUSH1 0x40 DUP1 MLOAD DUP8 DUP2 MSTORE PUSH1 0x20 DUP2 ADD DUP10 SWAP1 MSTORE PUSH1 0x1 PUSH1 0x1 PUSH1 0xA0 SHL SUB DUP11 AND DUP2 DUP4 ADD MSTORE SWAP1 MLOAD CALLER SWAP2 DUP8 SWAP2 PUSH32 0xC64023E02D0CB6F8D0B71A27B868CF100AB2B029455DA648672E0522DE0F4CE5 SWAP2 DUP2 SWAP1 SUB PUSH1 0x60 ADD SWAP1 LOG3 POP POP POP POP PUSH2 0xDDB PUSH1 0x1 DUP1 SSTORE JUMP JUMPDEST PUSH2 0x13B6 PUSH2 0x1B14 JUMP JUMPDEST PUSH1 0x1 PUSH1 0x1 PUSH1 0xA0 SHL SUB DUP4 AND PUSH2 0x13FC JUMPI PUSH1 0x40 MLOAD PUSH3 0x461BCD PUSH1 0xE5 SHL DUP2 MSTORE PUSH1 0x20 PUSH1 0x4 DUP3 ADD MSTORE PUSH1 0xD PUSH1 0x24 DUP3 ADD MSTORE PUSH13 0x24B73B30B634B2103A37B5B2B7 PUSH1 0x99 SHL PUSH1 0x44 DUP3 ADD MSTORE PUSH1 0x64 ADD PUSH2 0x722 JUMP JUMPDEST PUSH1 0x1 PUSH1 0x1 PUSH1 0xA0 SHL SUB DUP3 AND PUSH2 0x1447 JUMPI PUSH1 0x40 MLOAD PUSH3 0x461BCD PUSH1 0xE5 SHL DUP2 MSTORE PUSH1 0x20 PUSH1 0x4 DUP3 ADD MSTORE PUSH1 0x12 PUSH1 0x24 DUP3 ADD MSTORE PUSH18 0x125B9D985B1A59081C1C9A58D94819995959 PUSH1 0x72 SHL PUSH1 0x44 DUP3 ADD MSTORE PUSH1 0x64 ADD PUSH2 0x722 JUMP JUMPDEST PUSH1 0x40 DUP1 MLOAD DUP1 DUP3 ADD DUP3 MSTORE DUP3 ISZERO ISZERO DUP1 DUP3 MSTORE PUSH1 0x1 PUSH1 0x1 PUSH1 0xA0 SHL SUB DUP6 DUP2 AND PUSH1 0x20 DUP1 DUP6 ADD DUP3 DUP2 MSTORE DUP10 DUP5 AND PUSH1 0x0 DUP2 DUP2 MSTORE PUSH1 0x4 DUP5 MSTORE DUP9 SWAP1 KECCAK256 SWAP7 MLOAD DUP8 SLOAD SWAP3 MLOAD PUSH1 0x1 PUSH1 0x1 PUSH1 0xA8 SHL SUB NOT SWAP1 SWAP4 AND SWAP1 ISZERO ISZERO PUSH2 0x100 PUSH1 0x1 PUSH1 0xA8 SHL SUB NOT AND OR PUSH2 0x100 SWAP3 SWAP1 SWAP6 AND SWAP2 SWAP1 SWAP2 MUL SWAP4 SWAP1 SWAP4 OR SWAP1 SWAP5 SSTORE DUP5 MLOAD SWAP1 DUP2 MSTORE SWAP3 DUP4 ADD SWAP2 SWAP1 SWAP2 MSTORE SWAP2 PUSH32 0x93C63EDE467BB2AAB36216973FE7AE0908F66F1F5DE14FE7F1B754F58798060B SWAP2 ADD PUSH1 0x40 MLOAD DUP1 SWAP2 SUB SWAP1 LOG2 POP POP POP JUMP JUMPDEST PUSH2 0x14F0 PUSH2 0x1982 JUMP JUMPDEST PUSH2 0x14F8 PUSH2 0x19AC JUMP JUMPDEST PUSH1 0x0 DUP3 DUP2 MSTORE PUSH1 0x3 PUSH1 0x20 MSTORE PUSH1 0x40 SWAP1 KECCAK256 PUSH1 0x6 DUP2 ADD SLOAD PUSH1 0xFF AND PUSH2 0x154C JUMPI PUSH1 0x40 MLOAD PUSH3 0x461BCD PUSH1 0xE5 SHL DUP2 MSTORE PUSH1 0x20 PUSH1 0x4 DUP3 ADD MSTORE PUSH1 0xF PUSH1 0x24 DUP3 ADD MSTORE PUSH15 0x4C6F616E206E6F7420616374697665 PUSH1 0x88 SHL PUSH1 0x44 DUP3 ADD MSTORE PUSH1 0x64 ADD PUSH2 0x722 JUMP JUMPDEST PUSH1 0x0 DUP3 GT PUSH2 0x156C JUMPI PUSH1 0x40 MLOAD PUSH3 0x461BCD PUSH1 0xE5 SHL DUP2 MSTORE PUSH1 0x4 ADD PUSH2 0x722 SWAP1 PUSH2 0x1F8A JUMP JUMPDEST PUSH1 0x0 PUSH2 0x1577 DUP5 PUSH2 0x16D7 JUMP JUMPDEST SWAP1 POP DUP1 DUP4 GT ISZERO PUSH2 0x15BF JUMPI PUSH1 0x40 MLOAD PUSH3 0x461BCD PUSH1 0xE5 SHL DUP2 MSTORE PUSH1 0x20 PUSH1 0x4 DUP3 ADD MSTORE PUSH1 0x13 PUSH1 0x24 DUP3 ADD MSTORE PUSH19 0x105B5BDD5B9D08195E18D959591CC81919589D PUSH1 0x6A SHL PUSH1 0x44 DUP3 ADD MSTORE PUSH1 0x64 ADD PUSH2 0x722 JUMP JUMPDEST DUP1 DUP4 LT PUSH2 0x1644 JUMPI PUSH1 0x6 DUP3 ADD DUP1 SLOAD PUSH1 0xFF NOT AND SWAP1 SSTORE DUP2 SLOAD PUSH1 0x2 DUP4 ADD SLOAD PUSH1 0x3 DUP5 ADD SLOAD PUSH2 0x15F6 SWAP3 PUSH1 0x1 PUSH1 0x1 PUSH1 0xA0 SHL SUB SWAP2 DUP3 AND SWAP3 SWAP2 AND SWAP1 PUSH2 0x1AB0 JUMP JUMPDEST DUP2 SLOAD PUSH1 0x40 DUP1 MLOAD DUP6 DUP2 MSTORE PUSH1 0x0 PUSH1 0x20 DUP3 ADD MSTORE PUSH1 0x1 PUSH1 0x1 PUSH1 0xA0 SHL SUB SWAP1 SWAP3 AND SWAP2 DUP7 SWAP2 PUSH32 0x553C9087BFF5B534E499A66DAC3FA9DB2962CD252EA01165239755836AE5345E SWAP2 ADD PUSH1 0x40 MLOAD DUP1 SWAP2 SUB SWAP1 LOG3 PUSH2 0x1691 JUMP JUMPDEST DUP2 SLOAD PUSH1 0x1 PUSH1 0x1 PUSH1 0xA0 SHL SUB AND DUP5 PUSH32 0x553C9087BFF5B534E499A66DAC3FA9DB2962CD252EA01165239755836AE5345E DUP6 PUSH2 0x167C DUP2 DUP7 PUSH2 0x1FAF JUMP JUMPDEST PUSH1 0x40 DUP1 MLOAD SWAP3 DUP4 MSTORE PUSH1 0x20 DUP4 ADD SWAP2 SWAP1 SWAP2 MSTORE ADD PUSH2 0x8C6 JUMP JUMPDEST POP POP PUSH2 0x8D9 PUSH1 0x1 DUP1 SSTORE JUMP JUMPDEST PUSH2 0x16A4 PUSH2 0x1B14 JUMP JUMPDEST PUSH1 0x1 PUSH1 0x1 PUSH1 0xA0 SHL SUB DUP2 AND PUSH2 0x16CE JUMPI PUSH1 0x40 MLOAD PUSH4 0x1E4FBDF7 PUSH1 0xE0 SHL DUP2 MSTORE PUSH1 0x0 PUSH1 0x4 DUP3 ADD MSTORE PUSH1 0x24 ADD PUSH2 0x722 JUMP JUMPDEST PUSH2 0xC97 DUP2 PUSH2 0x1C2D JUMP JUMPDEST PUSH1 0x0 DUP2 DUP2 MSTORE PUSH1 0x3 PUSH1 0x20 DUP2 DUP2 MSTORE PUSH1 0x40 DUP1 DUP5 KECCAK256 DUP2 MLOAD PUSH2 0x100 DUP2 ADD DUP4 MSTORE DUP2 SLOAD PUSH1 0x1 PUSH1 0x1 PUSH1 0xA0 SHL SUB SWAP1 DUP2 AND DUP3 MSTORE PUSH1 0x1 DUP4 ADD SLOAD SWAP5 DUP3 ADD SWAP5 SWAP1 SWAP5 MSTORE PUSH1 0x2 DUP3 ADD SLOAD SWAP3 DUP2 ADD SWAP3 SWAP1 SWAP3 MSTORE SWAP3 DUP4 ADD SLOAD SWAP1 SWAP2 AND PUSH1 0x60 DUP3 ADD MSTORE PUSH1 0x4 DUP3 ADD SLOAD PUSH1 0x80 DUP3 ADD MSTORE PUSH1 0x5 DUP3 ADD SLOAD PUSH1 0xA0 DUP3 ADD MSTORE PUSH1 0x6 DUP3 ADD SLOAD PUSH1 0xFF AND ISZERO ISZERO PUSH1 0xC0 DUP3 ADD DUP2 SWAP1 MSTORE PUSH1 0x7 SWAP1 SWAP3 ADD SLOAD PUSH1 0xE0 DUP3 ADD MSTORE SWAP1 PUSH2 0x1762 JUMPI POP PUSH1 0x0 SWAP3 SWAP2 POP POP JUMP JUMPDEST PUSH1 0x0 DUP2 PUSH1 0xA0 ADD MLOAD TIMESTAMP PUSH2 0x1774 SWAP2 SWAP1 PUSH2 0x1FAF JUMP JUMPDEST SWAP1 POP PUSH1 0x0 PUSH5 0x496CEBB800 DUP3 DUP5 PUSH1 0x80 ADD MLOAD DUP6 PUSH1 0x20 ADD MLOAD PUSH2 0x1793 SWAP2 SWAP1 PUSH2 0x1F26 JUMP JUMPDEST PUSH2 0x179D SWAP2 SWAP1 PUSH2 0x1F26 JUMP JUMPDEST PUSH2 0x17A7 SWAP2 SWAP1 PUSH2 0x1F3D JUMP JUMPDEST SWAP1 POP DUP1 DUP4 PUSH1 0x20 ADD MLOAD PUSH2 0x6C0 SWAP2 SWAP1 PUSH2 0x20BF JUMP JUMPDEST PUSH1 0x1 PUSH1 0x1 PUSH1 0xA0 SHL SUB DUP1 DUP4 AND PUSH1 0x0 SWAP1 DUP2 MSTORE PUSH1 0x4 PUSH1 0x20 SWAP1 DUP2 MSTORE PUSH1 0x40 DUP1 DUP4 KECCAK256 DUP2 MLOAD DUP1 DUP4 ADD SWAP1 SWAP3 MSTORE SLOAD PUSH1 0xFF DUP2 AND ISZERO ISZERO DUP1 DUP4 MSTORE PUSH2 0x100 SWAP1 SWAP2 DIV SWAP1 SWAP5 AND SWAP2 DUP2 ADD SWAP2 SWAP1 SWAP2 MSTORE SWAP1 SWAP2 PUSH2 0x1815 JUMPI PUSH1 0x40 MLOAD PUSH3 0x461BCD PUSH1 0xE5 SHL DUP2 MSTORE PUSH1 0x4 ADD PUSH2 0x722 SWAP1 PUSH2 0x1F5F JUMP JUMPDEST PUSH1 0x0 DUP2 PUSH1 0x20 ADD MLOAD SWAP1 POP PUSH1 0x0 DUP2 PUSH1 0x1 PUSH1 0x1 PUSH1 0xA0 SHL SUB AND PUSH4 0xFEAF968C PUSH1 0x40 MLOAD DUP2 PUSH4 0xFFFFFFFF AND PUSH1 0xE0 SHL DUP2 MSTORE PUSH1 0x4 ADD PUSH1 0xA0 PUSH1 0x40 MLOAD DUP1 DUP4 SUB DUP2 DUP7 GAS STATICCALL ISZERO DUP1 ISZERO PUSH2 0x185E JUMPI RETURNDATASIZE PUSH1 0x0 DUP1 RETURNDATACOPY RETURNDATASIZE PUSH1 0x0 REVERT JUMPDEST POP POP POP POP PUSH1 0x40 MLOAD RETURNDATASIZE PUSH1 0x1F NOT PUSH1 0x1F DUP3 ADD AND DUP3 ADD DUP1 PUSH1 0x40 MSTORE POP DUP2 ADD SWAP1 PUSH2 0x1882 SWAP2 SWAP1 PUSH2 0x2120 JUMP JUMPDEST POP POP POP SWAP2 POP POP PUSH1 0x0 DUP2 SGT PUSH2 0x18C8 JUMPI PUSH1 0x40 MLOAD PUSH3 0x461BCD PUSH1 0xE5 SHL DUP2 MSTORE PUSH1 0x20 PUSH1 0x4 DUP3 ADD MSTORE PUSH1 0xD PUSH1 0x24 DUP3 ADD MSTORE PUSH13 0x496E76616C6964207072696365 PUSH1 0x98 SHL PUSH1 0x44 DUP3 ADD MSTORE PUSH1 0x64 ADD PUSH2 0x722 JUMP JUMPDEST PUSH1 0x0 DUP3 PUSH1 0x1 PUSH1 0x1 PUSH1 0xA0 SHL SUB AND PUSH4 0x313CE567 PUSH1 0x40 MLOAD DUP2 PUSH4 0xFFFFFFFF AND PUSH1 0xE0 SHL DUP2 MSTORE PUSH1 0x4 ADD PUSH1 0x20 PUSH1 0x40 MLOAD DUP1 DUP4 SUB DUP2 DUP7 GAS STATICCALL ISZERO DUP1 ISZERO PUSH2 0x1908 JUMPI RETURNDATASIZE PUSH1 0x0 DUP1 RETURNDATACOPY RETURNDATASIZE PUSH1 0x0 REVERT JUMPDEST POP POP POP POP PUSH1 0x40 MLOAD RETURNDATASIZE PUSH1 0x1F NOT PUSH1 0x1F DUP3 ADD AND DUP3 ADD DUP1 PUSH1 0x40 MSTORE POP DUP2 ADD SWAP1 PUSH2 0x192C SWAP2 SWAP1 PUSH2 0x2170 JUMP JUMPDEST SWAP1 POP PUSH1 0x0 PUSH2 0x1939 DUP9 PUSH2 0x1CF9 JUMP JUMPDEST SWAP1 POP PUSH2 0x1945 DUP3 DUP3 PUSH2 0x218B JUMP JUMPDEST PUSH2 0x1950 SWAP1 PUSH1 0xA PUSH2 0x2288 JUMP JUMPDEST PUSH2 0x195A DUP5 DUP10 PUSH2 0x1F26 JUMP JUMPDEST PUSH2 0x196C SWAP1 PUSH8 0xDE0B6B3A7640000 PUSH2 0x1F26 JUMP JUMPDEST PUSH2 0x1976 SWAP2 SWAP1 PUSH2 0x1F3D JUMP JUMPDEST SWAP9 SWAP8 POP POP POP POP POP POP POP POP JUMP JUMPDEST PUSH1 0x2 PUSH1 0x1 SLOAD SUB PUSH2 0x19A5 JUMPI PUSH1 0x40 MLOAD PUSH4 0x3EE5AEB5 PUSH1 0xE0 SHL DUP2 MSTORE PUSH1 0x4 ADD PUSH1 0x40 MLOAD DUP1 SWAP2 SUB SWAP1 REVERT JUMPDEST PUSH1 0x2 PUSH1 0x1 SSTORE JUMP JUMPDEST PUSH1 0x2 SLOAD PUSH1 0xFF AND ISZERO PUSH2 0x8ED JUMPI PUSH1 0x40 MLOAD PUSH4 0xD93C0665 PUSH1 0xE0 SHL DUP2 MSTORE PUSH1 0x4 ADD PUSH1 0x40 MLOAD DUP1 SWAP2 SUB SWAP1 REVERT JUMPDEST PUSH1 0x0 DUP1 DUP1 JUMPDEST PUSH1 0x7 SLOAD DUP2 LT ISZERO PUSH2 0x1AA9 JUMPI PUSH1 0x0 DUP2 DUP2 MSTORE PUSH1 0x3 PUSH1 0x20 DUP2 DUP2 MSTORE PUSH1 0x40 SWAP3 DUP4 SWAP1 KECCAK256 DUP4 MLOAD PUSH2 0x100 DUP2 ADD DUP6 MSTORE DUP2 SLOAD PUSH1 0x1 PUSH1 0x1 PUSH1 0xA0 SHL SUB SWAP1 DUP2 AND DUP3 MSTORE PUSH1 0x1 DUP4 ADD SLOAD SWAP4 DUP3 ADD SWAP4 SWAP1 SWAP4 MSTORE PUSH1 0x2 DUP3 ADD SLOAD SWAP5 DUP2 ADD SWAP5 SWAP1 SWAP5 MSTORE SWAP2 DUP3 ADD SLOAD AND PUSH1 0x60 DUP4 ADD MSTORE PUSH1 0x4 DUP2 ADD SLOAD PUSH1 0x80 DUP4 ADD MSTORE PUSH1 0x5 DUP2 ADD SLOAD PUSH1 0xA0 DUP4 ADD MSTORE PUSH1 0x6 DUP2 ADD SLOAD PUSH1 0xFF AND ISZERO DUP1 ISZERO PUSH1 0xC0 DUP5 ADD DUP2 SWAP1 MSTORE PUSH1 0x7 SWAP1 SWAP3 ADD SLOAD PUSH1 0xE0 DUP5 ADD MSTORE PUSH2 0x1A7B JUMPI POP DUP5 PUSH1 0x1 PUSH1 0x1 PUSH1 0xA0 SHL SUB AND DUP2 PUSH1 0x0 ADD MLOAD PUSH1 0x1 PUSH1 0x1 PUSH1 0xA0 SHL SUB AND EQ JUMPDEST ISZERO PUSH2 0x1A96 JUMPI PUSH2 0x1A89 DUP3 PUSH2 0x16D7 JUMP JUMPDEST PUSH2 0x1A93 SWAP1 DUP5 PUSH2 0x20BF JUMP JUMPDEST SWAP3 POP JUMPDEST POP DUP1 PUSH2 0x1AA1 DUP2 PUSH2 0x20ED JUMP JUMPDEST SWAP2 POP POP PUSH2 0x19D5 JUMP JUMPDEST POP SWAP3 SWAP2 POP POP JUMP JUMPDEST PUSH1 0x40 MLOAD PUSH1 0x1 PUSH1 0x1 PUSH1 0xA0 SHL SUB DUP4 DUP2 AND PUSH1 0x24 DUP4 ADD MSTORE PUSH1 0x44 DUP3 ADD DUP4 SWAP1 MSTORE PUSH2 0x1B0F SWAP2 DUP6 SWAP2 DUP3 AND SWAP1 PUSH4 0xA9059CBB SWAP1 PUSH1 0x64 ADD JUMPDEST PUSH1 0x40 MLOAD PUSH1 0x20 DUP2 DUP4 SUB SUB DUP2 MSTORE SWAP1 PUSH1 0x40 MSTORE SWAP2 POP PUSH1 0xE0 SHL PUSH1 0x20 DUP3 ADD DUP1 MLOAD PUSH1 0x1 PUSH1 0x1 PUSH1 0xE0 SHL SUB DUP4 DUP2 DUP4 AND OR DUP4 MSTORE POP POP POP POP PUSH2 0x1D66 JUMP JUMPDEST POP POP POP JUMP JUMPDEST PUSH1 0x0 SLOAD PUSH1 0x1 PUSH1 0x1 PUSH1 0xA0 SHL SUB AND CALLER EQ PUSH2 0x8ED JUMPI PUSH1 0x40 MLOAD PUSH4 0x118CDAA7 PUSH1 0xE0 SHL DUP2 MSTORE CALLER PUSH1 0x4 DUP3 ADD MSTORE PUSH1 0x24 ADD PUSH2 0x722 JUMP JUMPDEST PUSH2 0x1B49 PUSH2 0x1DD7 JUMP JUMPDEST PUSH1 0x2 DUP1 SLOAD PUSH1 0xFF NOT AND SWAP1 SSTORE PUSH32 0x5DB9EE0A495BF2E6FF9C91A7834C1BA4FDD244A5E8AA4E537BD38AEAE4B073AA CALLER JUMPDEST PUSH1 0x40 MLOAD PUSH1 0x1 PUSH1 0x1 PUSH1 0xA0 SHL SUB SWAP1 SWAP2 AND DUP2 MSTORE PUSH1 0x20 ADD PUSH1 0x40 MLOAD DUP1 SWAP2 SUB SWAP1 LOG1 JUMP JUMPDEST PUSH1 0x0 PUSH2 0x2E4 DUP3 PUSH2 0xFFFF AND LT PUSH2 0x1BAA JUMPI POP PUSH1 0x5A SWAP2 SWAP1 POP JUMP JUMPDEST PUSH2 0x29E DUP3 PUSH2 0xFFFF AND LT PUSH2 0x1BBF JUMPI POP PUSH1 0x50 SWAP2 SWAP1 POP JUMP JUMPDEST PUSH2 0x244 DUP3 PUSH2 0xFFFF AND LT PUSH2 0x1BD4 JUMPI POP PUSH1 0x46 SWAP2 SWAP1 POP JUMP JUMPDEST POP PUSH1 0x32 SWAP2 SWAP1 POP JUMP JUMPDEST PUSH1 0x0 PUSH2 0x2E4 DUP3 PUSH2 0xFFFF AND LT PUSH2 0x1BF5 JUMPI POP PUSH3 0x3F480 SWAP2 SWAP1 POP JUMP JUMPDEST PUSH2 0x29E DUP3 PUSH2 0xFFFF AND LT PUSH2 0x1C0C JUMPI POP PUSH3 0x2A300 SWAP2 SWAP1 POP JUMP JUMPDEST PUSH2 0x244 DUP3 PUSH2 0xFFFF AND LT PUSH2 0x1C23 JUMPI POP PUSH3 0x1FA40 SWAP2 SWAP1 POP JUMP JUMPDEST POP PUSH3 0x15180 SWAP2 SWAP1 POP JUMP JUMPDEST PUSH1 0x0 DUP1 SLOAD PUSH1 0x1 PUSH1 0x1 PUSH1 0xA0 SHL SUB DUP4 DUP2 AND PUSH1 0x1 PUSH1 0x1 PUSH1 0xA0 SHL SUB NOT DUP4 AND DUP2 OR DUP5 SSTORE PUSH1 0x40 MLOAD SWAP2 SWAP1 SWAP3 AND SWAP3 DUP4 SWAP2 PUSH32 0x8BE0079C531659141344CD1FD0A4F28419497F9722A3DAAFE3B4186F6B6457E0 SWAP2 SWAP1 LOG3 POP POP JUMP JUMPDEST PUSH2 0x1C85 PUSH2 0x19AC JUMP JUMPDEST PUSH1 0x2 DUP1 SLOAD PUSH1 0xFF NOT AND PUSH1 0x1 OR SWAP1 SSTORE PUSH32 0x62E78CEA01BEE320CD4E420270B5EA74000D11B0C9F74754EBDBFC544B05A258 PUSH2 0x1B76 CALLER SWAP1 JUMP JUMPDEST PUSH1 0x40 MLOAD PUSH1 0x1 PUSH1 0x1 PUSH1 0xA0 SHL SUB DUP5 DUP2 AND PUSH1 0x24 DUP4 ADD MSTORE DUP4 DUP2 AND PUSH1 0x44 DUP4 ADD MSTORE PUSH1 0x64 DUP3 ADD DUP4 SWAP1 MSTORE PUSH2 0x1CF3 SWAP2 DUP7 SWAP2 DUP3 AND SWAP1 PUSH4 0x23B872DD SWAP1 PUSH1 0x84 ADD PUSH2 0x1ADD JUMP JUMPDEST POP POP POP POP JUMP JUMPDEST PUSH1 0x0 DUP2 PUSH1 0x1 PUSH1 0x1 PUSH1 0xA0 SHL SUB AND PUSH4 0x313CE567 PUSH1 0x40 MLOAD DUP2 PUSH4 0xFFFFFFFF AND PUSH1 0xE0 SHL DUP2 MSTORE PUSH1 0x4 ADD PUSH1 0x20 PUSH1 0x40 MLOAD DUP1 DUP4 SUB DUP2 DUP7 GAS STATICCALL SWAP3 POP POP POP DUP1 ISZERO PUSH2 0x1D55 JUMPI POP PUSH1 0x40 DUP1 MLOAD PUSH1 0x1F RETURNDATASIZE SWAP1 DUP2 ADD PUSH1 0x1F NOT AND DUP3 ADD SWAP1 SWAP3 MSTORE PUSH2 0x1D52 SWAP2 DUP2 ADD SWAP1 PUSH2 0x2170 JUMP JUMPDEST PUSH1 0x1 JUMPDEST PUSH2 0x6D4 JUMPI POP PUSH1 0x12 SWAP2 SWAP1 POP JUMP JUMPDEST SWAP2 SWAP1 POP JUMP JUMPDEST PUSH1 0x0 DUP1 PUSH1 0x20 PUSH1 0x0 DUP5 MLOAD PUSH1 0x20 DUP7 ADD PUSH1 0x0 DUP9 GAS CALL DUP1 PUSH2 0x1D89 JUMPI PUSH1 0x40 MLOAD RETURNDATASIZE PUSH1 0x0 DUP3 RETURNDATACOPY RETURNDATASIZE DUP2 REVERT JUMPDEST POP POP PUSH1 0x0 MLOAD RETURNDATASIZE SWAP2 POP DUP2 ISZERO PUSH2 0x1DA1 JUMPI DUP1 PUSH1 0x1 EQ ISZERO PUSH2 0x1DAE JUMP JUMPDEST PUSH1 0x1 PUSH1 0x1 PUSH1 0xA0 SHL SUB DUP5 AND EXTCODESIZE ISZERO JUMPDEST ISZERO PUSH2 0x1CF3 JUMPI PUSH1 0x40 MLOAD PUSH4 0x5274AFE7 PUSH1 0xE0 SHL DUP2 MSTORE PUSH1 0x1 PUSH1 0x1 PUSH1 0xA0 SHL SUB DUP6 AND PUSH1 0x4 DUP3 ADD MSTORE PUSH1 0x24 ADD PUSH2 0x722 JUMP JUMPDEST PUSH1 0x2 SLOAD PUSH1 0xFF AND PUSH2 0x8ED JUMPI PUSH1 0x40 MLOAD PUSH4 0x8DFC202B PUSH1 0xE0 SHL DUP2 MSTORE PUSH1 0x4 ADD PUSH1 0x40 MLOAD DUP1 SWAP2 SUB SWAP1 REVERT JUMPDEST PUSH1 0x0 PUSH1 0x20 DUP3 DUP5 SUB SLT ISZERO PUSH2 0x1E0C JUMPI PUSH1 0x0 DUP1 REVERT JUMPDEST POP CALLDATALOAD SWAP2 SWAP1 POP JUMP JUMPDEST DUP1 CALLDATALOAD PUSH1 0x1 PUSH1 0x1 PUSH1 0xA0 SHL SUB DUP2 AND DUP2 EQ PUSH2 0x1D61 JUMPI PUSH1 0x0 DUP1 REVERT JUMPDEST PUSH1 0x0 DUP1 PUSH1 0x40 DUP4 DUP6 SUB SLT ISZERO PUSH2 0x1E3D JUMPI PUSH1 0x0 DUP1 REVERT JUMPDEST PUSH2 0x1E46 DUP4 PUSH2 0x1E13 JUMP JUMPDEST SWAP5 PUSH1 0x20 SWAP4 SWAP1 SWAP4 ADD CALLDATALOAD SWAP4 POP POP POP JUMP JUMPDEST PUSH1 0x0 PUSH1 0x20 DUP3 DUP5 SUB SLT ISZERO PUSH2 0x1E66 JUMPI PUSH1 0x0 DUP1 REVERT JUMPDEST PUSH2 0xDDB DUP3 PUSH2 0x1E13 JUMP JUMPDEST PUSH1 0x0 DUP1 PUSH1 0x0 PUSH1 0x60 DUP5 DUP7 SUB SLT ISZERO PUSH2 0x1E84 JUMPI PUSH1 0x0 DUP1 REVERT JUMPDEST PUSH2 0x1E8D DUP5 PUSH2 0x1E13 JUMP JUMPDEST SWAP6 PUSH1 0x20 DUP6 ADD CALLDATALOAD SWAP6 POP PUSH1 0x40 SWAP1 SWAP5 ADD CALLDATALOAD SWAP4 SWAP3 POP POP POP JUMP JUMPDEST PUSH1 0x0 DUP1 PUSH1 0x0 PUSH1 0x60 DUP5 DUP7 SUB SLT ISZERO PUSH2 0x1EB7 JUMPI PUSH1 0x0 DUP1 REVERT JUMPDEST PUSH2 0x1EC0 DUP5 PUSH2 0x1E13 JUMP JUMPDEST SWAP3 POP PUSH2 0x1ECE PUSH1 0x20 DUP6 ADD PUSH2 0x1E13 JUMP JUMPDEST SWAP2 POP PUSH1 0x40 DUP5 ADD CALLDATALOAD DUP1 ISZERO ISZERO DUP2 EQ PUSH2 0x1EE3 JUMPI PUSH1 0x0 DUP1 REVERT JUMPDEST DUP1 SWAP2 POP POP SWAP3 POP SWAP3 POP SWAP3 JUMP JUMPDEST PUSH1 0x0 DUP1 PUSH1 0x40 DUP4 DUP6 SUB SLT ISZERO PUSH2 0x1F01 JUMPI PUSH1 0x0 DUP1 REVERT JUMPDEST POP POP DUP1 CALLDATALOAD SWAP3 PUSH1 0x20 SWAP1 SWAP2 ADD CALLDATALOAD SWAP2 POP JUMP JUMPDEST PUSH4 0x4E487B71 PUSH1 0xE0 SHL PUSH1 0x0 MSTORE PUSH1 0x11 PUSH1 0x4 MSTORE PUSH1 0x24 PUSH1 0x0 REVERT JUMPDEST DUP1 DUP3 MUL DUP2 ISZERO DUP3 DUP3 DIV DUP5 EQ OR PUSH2 0x6D4 JUMPI PUSH2 0x6D4 PUSH2 0x1F10 JUMP JUMPDEST PUSH1 0x0 DUP3 PUSH2 0x1F5A JUMPI PUSH4 0x4E487B71 PUSH1 0xE0 SHL PUSH1 0x0 MSTORE PUSH1 0x12 PUSH1 0x4 MSTORE PUSH1 0x24 PUSH1 0x0 REVERT JUMPDEST POP DIV SWAP1 JUMP JUMPDEST PUSH1 0x20 DUP1 DUP3 MSTORE PUSH1 0x11 SWAP1 DUP3 ADD MSTORE PUSH17 0x105CDCD95D081B9BDD08185B1B1BDDD959 PUSH1 0x7A SHL PUSH1 0x40 DUP3 ADD MSTORE PUSH1 0x60 ADD SWAP1 JUMP JUMPDEST PUSH1 0x20 DUP1 DUP3 MSTORE PUSH1 0xB SWAP1 DUP3 ADD MSTORE PUSH11 0x16995C9BC8185B5BDD5B9D PUSH1 0xAA SHL PUSH1 0x40 DUP3 ADD MSTORE PUSH1 0x60 ADD SWAP1 JUMP JUMPDEST DUP2 DUP2 SUB DUP2 DUP2 GT ISZERO PUSH2 0x6D4 JUMPI PUSH2 0x6D4 PUSH2 0x1F10 JUMP JUMPDEST DUP1 MLOAD PUSH1 0xFF DUP2 AND DUP2 EQ PUSH2 0x1D61 JUMPI PUSH1 0x0 DUP1 REVERT JUMPDEST DUP1 MLOAD PUSH1 0x1 DUP2 SWAP1 SIGNEXTEND DUP2 EQ PUSH2 0x1D61 JUMPI PUSH1 0x0 DUP1 REVERT JUMPDEST DUP1 MLOAD PUSH2 0xFFFF DUP2 AND DUP2 EQ PUSH2 0x1D61 JUMPI PUSH1 0x0 DUP1 REVERT JUMPDEST PUSH1 0x0 PUSH1 0xC0 DUP3 DUP5 SUB SLT ISZERO PUSH2 0x2009 JUMPI PUSH1 0x0 DUP1 REVERT JUMPDEST PUSH1 0x40 MLOAD PUSH1 0xC0 DUP2 ADD DUP2 DUP2 LT PUSH8 0xFFFFFFFFFFFFFFFF DUP3 GT OR ISZERO PUSH2 0x203A JUMPI PUSH4 0x4E487B71 PUSH1 0xE0 SHL PUSH1 0x0 MSTORE PUSH1 0x41 PUSH1 0x4 MSTORE PUSH1 0x24 PUSH1 0x0 REVERT JUMPDEST PUSH1 0x40 MSTORE PUSH2 0x2046 DUP4 PUSH2 0x1FC2 JUMP JUMPDEST DUP2 MSTORE PUSH2 0x2054 PUSH1 0x20 DUP5 ADD PUSH2 0x1FC2 JUMP JUMPDEST PUSH1 0x20 DUP3 ADD MSTORE PUSH2 0x2065 PUSH1 0x40 DUP5 ADD PUSH2 0x1FD3 JUMP JUMPDEST PUSH1 0x40 DUP3 ADD MSTORE PUSH2 0x2076 PUSH1 0x60 DUP5 ADD PUSH2 0x1FC2 JUMP JUMPDEST PUSH1 0x60 DUP3 ADD MSTORE PUSH2 0x2087 PUSH1 0x80 DUP5 ADD PUSH2 0x1FC2 JUMP JUMPDEST PUSH1 0x80 DUP3 ADD MSTORE PUSH2 0x2098 PUSH1 0xA0 DUP5 ADD PUSH2 0x1FE5 JUMP JUMPDEST PUSH1 0xA0 DUP3 ADD MSTORE SWAP4 SWAP3 POP POP POP JUMP JUMPDEST PUSH2 0xFFFF DUP2 DUP2 AND DUP4 DUP3 AND ADD SWAP1 DUP1 DUP3 GT ISZERO PUSH2 0x1AA9 JUMPI PUSH2 0x1AA9 PUSH2 0x1F10 JUMP JUMPDEST DUP1 DUP3 ADD DUP1 DUP3 GT ISZERO PUSH2 0x6D4 JUMPI PUSH2 0x6D4 PUSH2 0x1F10 JUMP JUMPDEST PUSH1 0x0 PUSH1 0x20 DUP3 DUP5 SUB SLT ISZERO PUSH2 0x20E4 JUMPI PUSH1 0x0 DUP1 REVERT JUMPDEST PUSH2 0xDDB DUP3 PUSH2 0x1FE5 JUMP JUMPDEST PUSH1 0x0 PUSH1 0x1 DUP3 ADD PUSH2 0x20FF JUMPI PUSH2 0x20FF PUSH2 0x1F10 JUMP JUMPDEST POP PUSH1 0x1 ADD SWAP1 JUMP JUMPDEST DUP1 MLOAD PUSH10 0xFFFFFFFFFFFFFFFFFFFF DUP2 AND DUP2 EQ PUSH2 0x1D61 JUMPI PUSH1 0x0 DUP1 REVERT JUMPDEST PUSH1 0x0 DUP1 PUSH1 0x0 DUP1 PUSH1 0x0 PUSH1 0xA0 DUP7 DUP9 SUB SLT ISZERO PUSH2 0x2138 JUMPI PUSH1 0x0 DUP1 REVERT JUMPDEST PUSH2 0x2141 DUP7 PUSH2 0x2106 JUMP JUMPDEST SWAP5 POP PUSH1 0x20 DUP7 ADD MLOAD SWAP4 POP PUSH1 0x40 DUP7 ADD MLOAD SWAP3 POP PUSH1 0x60 DUP7 ADD MLOAD SWAP2 POP PUSH2 0x2164 PUSH1 0x80 DUP8 ADD PUSH2 0x2106 JUMP JUMPDEST SWAP1 POP SWAP3 SWAP6 POP SWAP3 SWAP6 SWAP1 SWAP4 POP JUMP JUMPDEST PUSH1 0x0 PUSH1 0x20 DUP3 DUP5 SUB SLT ISZERO PUSH2 0x2182 JUMPI PUSH1 0x0 DUP1 REVERT JUMPDEST PUSH2 0xDDB DUP3 PUSH2 0x1FC2 JUMP JUMPDEST PUSH1 0xFF DUP2 DUP2 AND DUP4 DUP3 AND ADD SWAP1 DUP2 GT ISZERO PUSH2 0x6D4 JUMPI PUSH2 0x6D4 PUSH2 0x1F10 JUMP JUMPDEST PUSH1 0x1 DUP2 DUP2 JUMPDEST DUP1 DUP6 GT ISZERO PUSH2 0x21DF JUMPI DUP2 PUSH1 0x0 NOT DIV DUP3 GT ISZERO PUSH2 0x21C5 JUMPI PUSH2 0x21C5 PUSH2 0x1F10 JUMP JUMPDEST DUP1 DUP6 AND ISZERO PUSH2 0x21D2 JUMPI SWAP2 DUP2 MUL SWAP2 JUMPDEST SWAP4 DUP5 SHR SWAP4 SWAP1 DUP1 MUL SWAP1 PUSH2 0x21A9 JUMP JUMPDEST POP SWAP3 POP SWAP3 SWAP1 POP JUMP JUMPDEST PUSH1 0x0 DUP3 PUSH2 0x21F6 JUMPI POP PUSH1 0x1 PUSH2 0x6D4 JUMP JUMPDEST DUP2 PUSH2 0x2203 JUMPI POP PUSH1 0x0 PUSH2 0x6D4 JUMP JUMPDEST DUP2 PUSH1 0x1 DUP2 EQ PUSH2 0x2219 JUMPI PUSH1 0x2 DUP2 EQ PUSH2 0x2223 JUMPI PUSH2 0x223F JUMP JUMPDEST PUSH1 0x1 SWAP2 POP POP PUSH2 0x6D4 JUMP JUMPDEST PUSH1 0xFF DUP5 GT ISZERO PUSH2 0x2234 JUMPI PUSH2 0x2234 PUSH2 0x1F10 JUMP JUMPDEST POP POP PUSH1 0x1 DUP3 SHL PUSH2 0x6D4 JUMP JUMPDEST POP PUSH1 0x20 DUP4 LT PUSH2 0x133 DUP4 LT AND PUSH1 0x4E DUP5 LT PUSH1 0xB DUP5 LT AND OR ISZERO PUSH2 0x2262 JUMPI POP DUP2 DUP2 EXP PUSH2 0x6D4 JUMP JUMPDEST PUSH2 0x226C DUP4 DUP4 PUSH2 0x21A4 JUMP JUMPDEST DUP1 PUSH1 0x0 NOT DIV DUP3 GT ISZERO PUSH2 0x2280 JUMPI PUSH2 0x2280 PUSH2 0x1F10 JUMP JUMPDEST MUL SWAP4 SWAP3 POP POP POP JUMP JUMPDEST PUSH1 0x0 PUSH2 0xDDB PUSH1 0xFF DUP5 AND DUP4 PUSH2 0x21E7 JUMP INVALID LOG2 PUSH5 0x6970667358 0x22 SLT KECCAK256 INVALID 0x29 0xF PREVRANDAO 0xC2 DUP8 PUSH22 0xA701A8EF6FFFAAE8C7D1589A5CAC32C7A8B72434BDB1 0x4D CALLCODE 0xDD PUSH5 0x736F6C6343 STOP ADDMOD EQ STOP CALLER "},"methodIdentifiers":{"GRACE_BRONZE()":"b32a5314","GRACE_GOLD()":"4f0f29f4","GRACE_PLATINUM()":"d850342f","GRACE_SILVER()":"dd949328","INSURANCE_SHARE_BPS()":"1d1a54ce","LIQUIDATION_PENALTY_BPS()":"fc54ddfb","LIQUIDATOR_SHARE_BPS()":"c41c22fc","LTV_BRONZE()":"f1e35f13","LTV_GOLD()":"0943a954","LTV_PLATINUM()":"eb32bd9d","LTV_SILVER()":"06057c5c","MIN_HEALTH_FACTOR()":"b5627e42","assets(address)":"f11b8188","borrow(address,uint256,uint256)":"c1bce0b7","calculateDebt(uint256)":"28cd5a99","depositCollateral(address,uint256)":"a5d5db0c","getHealthFactor(uint256)":"17845c69","getLoan(uint256)":"504006ca","getUserHealthFactor(address)":"71cbfc98","insurancePool()":"ab2adc00","liquidate(uint256)":"415f1240","loans(uint256)":"e1ec3c68","nextLoanId()":"87c51459","oracle()":"7dc0d1d0","owner()":"8da5cb5b","pause()":"8456cb59","paused()":"5c975abb","registry()":"7b103999","renounceOwnership()":"715018a6","repay(uint256,uint256)":"d8aed145","setAsset(address,address,bool)":"cb0dc99d","setInsurancePool(address)":"a94c487e","setOracle(address)":"7adbf973","transferOwnership(address)":"f2fde38b","unpause()":"3f4ba83a","userCollateral(address)":"f69f1e4a","withdrawCollateral(address,uint256)":"350c35e9"}}}}}