{"contracts/ScoreOracleSimple.sol":{"ScoreOracleSimple":{"abi":[{"inputs":[{"internalType":"address payable","name":"_registry","type":"address"}],"stateMutability":"nonpayable","type":"constructor"},{"inputs":[{"internalType":"address","name":"owner","type":"address"}],"name":"OwnableInvalidOwner","type":"error"},{"inputs":[{"internalType":"address","name":"account","type":"address"}],"name":"OwnableUnauthorizedAccount","type":"error"},{"anonymous":false,"inputs":[{"indexed":false,"internalType":"uint16","name":"baseAPR","type":"uint16"},{"indexed":false,"internalType":"uint16","name":"minAPR","type":"uint16"},{"indexed":false,"internalType":"uint16","name":"maxAPR","type":"uint16"}],"name":"APRConfigUpdated","type":"event"},{"anonymous":false,"inputs":[{"indexed":true,"internalType":"address","name":"previousOwner","type":"address"},{"indexed":true,"internalType":"address","name":"newOwner","type":"address"}],"name":"OwnershipTransferred","type":"event"},{"inputs":[],"name":"MAX_SCORE","outputs":[{"internalType":"uint16","name":"","type":"uint16"}],"stateMutability":"view","type":"function"},{"inputs":[],"name":"MIN_SCORE","outputs":[{"internalType":"uint16","name":"","type":"uint16"}],"stateMutability":"view","type":"function"},{"inputs":[],"name":"baseAPR","outputs":[{"internalType":"uint16","name":"","type":"uint16"}],"stateMutability":"view","type":"function"},{"inputs":[{"internalType":"address","name":"subject","type":"address"}],"name":"computeScore","outputs":[{"components":[{"internalType":"uint8","name":"repayment","type":"uint8"},{"internalType":"uint8","name":"collateral","type":"uint8"},{"internalType":"int16","name":"sybil","type":"int16"},{"internalType":"uint8","name":"crossChain","type":"uint8"},{"internalType":"uint8","name":"participation","type":"uint8"},{"internalType":"uint16","name":"overall","type":"uint16"}],"internalType":"struct ScoreOracleSimple.ScoreBreakdown","name":"breakdown","type":"tuple"}],"stateMutability":"view","type":"function"},{"inputs":[{"internalType":"uint16","name":"score","type":"uint16"}],"name":"getAPR","outputs":[{"internalType":"uint16","name":"aprBps","type":"uint16"}],"stateMutability":"view","type":"function"},{"inputs":[],"name":"maxAPR","outputs":[{"internalType":"uint16","name":"","type":"uint16"}],"stateMutability":"view","type":"function"},{"inputs":[],"name":"minAPR","outputs":[{"internalType":"uint16","name":"","type":"uint16"}],"stateMutability":"view","type":"function"},{"inputs":[],"name":"owner","outputs":[{"internalType":"address","name":"","type":"address"}],"stateMutability":"view","type":"function"},{"inputs":[],"name":"registry","outputs":[{"internalType":"contract CreditRegistryV1_1","name":"","type":"address"}],"stateMutability":"view","type":"function"},{"inputs":[],"name":"renounceOwnership","outputs":[],"stateMutability":"nonpayable","type":"function"},{"inputs":[{"internalType":"uint16","name":"_baseAPR","type":"uint16"},{"internalType":"uint16","name":"_minAPR","type":"uint16"},{"internalType":"uint16","name":"_maxAPR","type":"uint16"}],"name":"setAPRConfig","outputs":[],"stateMutability":"nonpayable","type":"function"},{"inputs":[{"internalType":"address","name":"newOwner","type":"address"}],"name":"transferOwnership","outputs":[],"stateMutability":"nonpayable","type":"function"}],"evm":{"bytecode":{"linkReferences":{},"object":"60a06040526000805465ffffffffffff60a01b1916643e8006401960a51b17905534801561002c57600080fd5b506040516109e03803806109e083398101604081905261004b91610126565b338061007257604051631e4fbdf760e01b8152600060048201526024015b60405180910390fd5b61007b816100d6565b506001600160a01b0381166100c55760405162461bcd60e51b815260206004820152601060248201526f496e76616c696420726567697374727960801b6044820152606401610069565b6001600160a01b0316608052610156565b600080546001600160a01b038381166001600160a01b0319831681178455604051919092169283917f8be0079c531659141344cd1fd0a4f28419497f9722a3daafe3b4186f6b6457e09190a35050565b60006020828403121561013857600080fd5b81516001600160a01b038116811461014f57600080fd5b9392505050565b6080516108686101786000396000818161012f01526103bf01526108686000f3fe608060405234801561001057600080fd5b50600436106100b45760003560e01c80637b103999116100715780637b1039991461012a5780638da5cb5b14610169578063c5d46dfc1461017a578063e0e79dde146101ec578063f2fde38b14610201578063fb4ceaa31461021457600080fd5b806327ff6223146100b957806340b89270146100da57806353704f9a146100e357806358ac0e80146100f857806370d7642b1461010d578063715018a614610122575b600080fd5b6100c261035281565b60405161ffff90911681526020015b60405180910390f35b6100c261012c81565b6000546100c290600160c01b900461ffff1681565b6000546100c290600160a01b900461ffff1681565b61012061011b36600461062a565b610227565b005b610120610359565b6101517f000000000000000000000000000000000000000000000000000000000000000081565b6040516001600160a01b0390911681526020016100d1565b6000546001600160a01b0316610151565b61018d610188366004610675565b61036d565b6040516100d19190600060c08201905060ff835116825260ff6020840151166020830152604083015160010b604083015260ff606084015116606083015260ff608084015116608083015261ffff60a08401511660a083015292915050565b6000546100c290600160b01b900461ffff1681565b61012061020f366004610675565b610478565b6100c26102223660046106a5565b6104b6565b61022f61059d565b8261ffff168261ffff161061027d5760405162461bcd60e51b815260206004820152600f60248201526e24b73b30b634b21036b4b71020a82960891b60448201526064015b60405180910390fd5b8061ffff168361ffff16106102c65760405162461bcd60e51b815260206004820152600f60248201526e24b73b30b634b21036b0bc1020a82960891b6044820152606401610274565b6000805463ffffffff60a01b1916600160a01b61ffff86811691820261ffff60b01b191692909217600160b01b8684169081029190911761ffff60c01b1916600160c01b93861693840217909355604080519182526020820193909352918201527f083bbb36b45a0d300dab404594d8a73dce5f9a8cb6281e44051e0d6b3276ee509060600160405180910390a1505050565b61036161059d565b61036b60006105ca565b565b6040805160c081018252600080825260208201819052818301819052606082018190526080820181905260a082018190529151630d47875d60e41b81526001600160a01b0384811660048301529192917f0000000000000000000000000000000000000000000000000000000000000000169063d47875d09060240160c060405180830381865afa158015610406573d6000803e3d6000fd5b505050506040513d601f19601f8201168201806040525081019061042a91906106fb565b805190915061ffff166000036104475761012c60a0830152610453565b805161ffff1660a08301525b5060328082526020820152600060408201819052606082018190526080820152919050565b61048061059d565b6001600160a01b0381166104aa57604051631e4fbdf760e01b815260006004820152602401610274565b6104b3816105ca565b50565b600061012c61ffff8316108015906104d4575061035261ffff831611155b6105105760405162461bcd60e51b815260206004820152600d60248201526c496e76616c69642073636f726560981b6044820152606401610274565b600061052061012c6103526107be565b6000805461ffff9283169350909161054a91600160b01b8104821691600160c01b909104166107be565b61ffff1690506000828261056061012c886107be565b61ffff1661056e91906107e0565b61057891906107fd565b600054909150610594908290600160c01b900461ffff1661081f565b95945050505050565b6000546001600160a01b0316331461036b5760405163118cdaa760e01b8152336004820152602401610274565b600080546001600160a01b038381166001600160a01b0319831681178455604051919092169283917f8be0079c531659141344cd1fd0a4f28419497f9722a3daafe3b4186f6b6457e09190a35050565b61ffff811681146104b357600080fd5b60008060006060848603121561063f57600080fd5b833561064a8161061a565b9250602084013561065a8161061a565b9150604084013561066a8161061a565b809150509250925092565b60006020828403121561068757600080fd5b81356001600160a01b038116811461069e57600080fd5b9392505050565b6000602082840312156106b757600080fd5b813561069e8161061a565b80516106cd8161061a565b919050565b805160ff811681146106cd57600080fd5b805167ffffffffffffffff811681146106cd57600080fd5b600060c0828403121561070d57600080fd5b60405160c0810181811067ffffffffffffffff8211171561073e57634e487b7160e01b600052604160045260246000fd5b60405261074a836106c2565b8152610758602084016106d2565b6020820152610769604084016106d2565b604082015261077a606084016106c2565b606082015261078b608084016106e3565b608082015261079c60a084016106d2565b60a08201529392505050565b634e487b7160e01b600052601160045260246000fd5b61ffff8281168282160390808211156107d9576107d96107a8565b5092915050565b80820281158282048414176107f7576107f76107a8565b92915050565b60008261081a57634e487b7160e01b600052601260045260246000fd5b500490565b818103818111156107f7576107f76107a856fea26469706673582212208c6784b00b72992ccb032e17b41ba8cb9a2e94ec11788dfdf7c158204385dff964736f6c63430008140033","opcodes":"PUSH1 0xA0 PUSH1 0x40 MSTORE PUSH1 0x0 DUP1 SLOAD PUSH6 0xFFFFFFFFFFFF PUSH1 0xA0 SHL NOT AND PUSH5 0x3E80064019 PUSH1 0xA5 SHL OR SWAP1 SSTORE CALLVALUE DUP1 ISZERO PUSH2 0x2C JUMPI PUSH1 0x0 DUP1 REVERT JUMPDEST POP PUSH1 0x40 MLOAD PUSH2 0x9E0 CODESIZE SUB DUP1 PUSH2 0x9E0 DUP4 CODECOPY DUP2 ADD PUSH1 0x40 DUP2 SWAP1 MSTORE PUSH2 0x4B SWAP2 PUSH2 0x126 JUMP JUMPDEST CALLER DUP1 PUSH2 0x72 JUMPI PUSH1 0x40 MLOAD PUSH4 0x1E4FBDF7 PUSH1 0xE0 SHL DUP2 MSTORE PUSH1 0x0 PUSH1 0x4 DUP3 ADD MSTORE PUSH1 0x24 ADD JUMPDEST PUSH1 0x40 MLOAD DUP1 SWAP2 SUB SWAP1 REVERT JUMPDEST PUSH2 0x7B DUP2 PUSH2 0xD6 JUMP JUMPDEST POP PUSH1 0x1 PUSH1 0x1 PUSH1 0xA0 SHL SUB DUP2 AND PUSH2 0xC5 JUMPI PUSH1 0x40 MLOAD PUSH3 0x461BCD PUSH1 0xE5 SHL DUP2 MSTORE PUSH1 0x20 PUSH1 0x4 DUP3 ADD MSTORE PUSH1 0x10 PUSH1 0x24 DUP3 ADD MSTORE PUSH16 0x496E76616C6964207265676973747279 PUSH1 0x80 SHL PUSH1 0x44 DUP3 ADD MSTORE PUSH1 0x64 ADD PUSH2 0x69 JUMP JUMPDEST PUSH1 0x1 PUSH1 0x1 PUSH1 0xA0 SHL SUB AND PUSH1 0x80 MSTORE PUSH2 0x156 JUMP JUMPDEST PUSH1 0x0 DUP1 SLOAD PUSH1 0x1 PUSH1 0x1 PUSH1 0xA0 SHL SUB DUP4 DUP2 AND PUSH1 0x1 PUSH1 0x1 PUSH1 0xA0 SHL SUB NOT DUP4 AND DUP2 OR DUP5 SSTORE PUSH1 0x40 MLOAD SWAP2 SWAP1 SWAP3 AND SWAP3 DUP4 SWAP2 PUSH32 0x8BE0079C531659141344CD1FD0A4F28419497F9722A3DAAFE3B4186F6B6457E0 SWAP2 SWAP1 LOG3 POP POP JUMP JUMPDEST PUSH1 0x0 PUSH1 0x20 DUP3 DUP5 SUB SLT ISZERO PUSH2 0x138 JUMPI PUSH1 0x0 DUP1 REVERT JUMPDEST DUP2 MLOAD PUSH1 0x1 PUSH1 0x1 PUSH1 0xA0 SHL SUB DUP2 AND DUP2 EQ PUSH2 0x14F JUMPI PUSH1 0x0 DUP1 REVERT JUMPDEST SWAP4 SWAP3 POP POP POP JUMP JUMPDEST PUSH1 0x80 MLOAD PUSH2 0x868 PUSH2 0x178 PUSH1 0x0 CODECOPY PUSH1 0x0 DUP2 DUP2 PUSH2 0x12F ADD MSTORE PUSH2 0x3BF ADD MSTORE PUSH2 0x868 PUSH1 0x0 RETURN INVALID PUSH1 0x80 PUSH1 0x40 MSTORE CALLVALUE DUP1 ISZERO PUSH2 0x10 JUMPI PUSH1 0x0 DUP1 REVERT JUMPDEST POP PUSH1 0x4 CALLDATASIZE LT PUSH2 0xB4 JUMPI PUSH1 0x0 CALLDATALOAD PUSH1 0xE0 SHR DUP1 PUSH4 0x7B103999 GT PUSH2 0x71 JUMPI DUP1 PUSH4 0x7B103999 EQ PUSH2 0x12A JUMPI DUP1 PUSH4 0x8DA5CB5B EQ PUSH2 0x169 JUMPI DUP1 PUSH4 0xC5D46DFC EQ PUSH2 0x17A JUMPI DUP1 PUSH4 0xE0E79DDE EQ PUSH2 0x1EC JUMPI DUP1 PUSH4 0xF2FDE38B EQ PUSH2 0x201 JUMPI DUP1 PUSH4 0xFB4CEAA3 EQ PUSH2 0x214 JUMPI PUSH1 0x0 DUP1 REVERT JUMPDEST DUP1 PUSH4 0x27FF6223 EQ PUSH2 0xB9 JUMPI DUP1 PUSH4 0x40B89270 EQ PUSH2 0xDA JUMPI DUP1 PUSH4 0x53704F9A EQ PUSH2 0xE3 JUMPI DUP1 PUSH4 0x58AC0E80 EQ PUSH2 0xF8 JUMPI DUP1 PUSH4 0x70D7642B EQ PUSH2 0x10D JUMPI DUP1 PUSH4 0x715018A6 EQ PUSH2 0x122 JUMPI JUMPDEST PUSH1 0x0 DUP1 REVERT JUMPDEST PUSH2 0xC2 PUSH2 0x352 DUP2 JUMP JUMPDEST PUSH1 0x40 MLOAD PUSH2 0xFFFF SWAP1 SWAP2 AND DUP2 MSTORE PUSH1 0x20 ADD JUMPDEST PUSH1 0x40 MLOAD DUP1 SWAP2 SUB SWAP1 RETURN JUMPDEST PUSH2 0xC2 PUSH2 0x12C DUP2 JUMP JUMPDEST PUSH1 0x0 SLOAD PUSH2 0xC2 SWAP1 PUSH1 0x1 PUSH1 0xC0 SHL SWAP1 DIV PUSH2 0xFFFF AND DUP2 JUMP JUMPDEST PUSH1 0x0 SLOAD PUSH2 0xC2 SWAP1 PUSH1 0x1 PUSH1 0xA0 SHL SWAP1 DIV PUSH2 0xFFFF AND DUP2 JUMP JUMPDEST PUSH2 0x120 PUSH2 0x11B CALLDATASIZE PUSH1 0x4 PUSH2 0x62A JUMP JUMPDEST PUSH2 0x227 JUMP JUMPDEST STOP JUMPDEST PUSH2 0x120 PUSH2 0x359 JUMP JUMPDEST PUSH2 0x151 PUSH32 0x0 DUP2 JUMP JUMPDEST PUSH1 0x40 MLOAD PUSH1 0x1 PUSH1 0x1 PUSH1 0xA0 SHL SUB SWAP1 SWAP2 AND DUP2 MSTORE PUSH1 0x20 ADD PUSH2 0xD1 JUMP JUMPDEST PUSH1 0x0 SLOAD PUSH1 0x1 PUSH1 0x1 PUSH1 0xA0 SHL SUB AND PUSH2 0x151 JUMP JUMPDEST PUSH2 0x18D PUSH2 0x188 CALLDATASIZE PUSH1 0x4 PUSH2 0x675 JUMP JUMPDEST PUSH2 0x36D JUMP JUMPDEST PUSH1 0x40 MLOAD PUSH2 0xD1 SWAP2 SWAP1 PUSH1 0x0 PUSH1 0xC0 DUP3 ADD SWAP1 POP PUSH1 0xFF DUP4 MLOAD AND DUP3 MSTORE PUSH1 0xFF PUSH1 0x20 DUP5 ADD MLOAD AND PUSH1 0x20 DUP4 ADD MSTORE PUSH1 0x40 DUP4 ADD MLOAD PUSH1 0x1 SIGNEXTEND PUSH1 0x40 DUP4 ADD MSTORE PUSH1 0xFF PUSH1 0x60 DUP5 ADD MLOAD AND PUSH1 0x60 DUP4 ADD MSTORE PUSH1 0xFF PUSH1 0x80 DUP5 ADD MLOAD AND PUSH1 0x80 DUP4 ADD MSTORE PUSH2 0xFFFF PUSH1 0xA0 DUP5 ADD MLOAD AND PUSH1 0xA0 DUP4 ADD MSTORE SWAP3 SWAP2 POP POP JUMP JUMPDEST PUSH1 0x0 SLOAD PUSH2 0xC2 SWAP1 PUSH1 0x1 PUSH1 0xB0 SHL SWAP1 DIV PUSH2 0xFFFF AND DUP2 JUMP JUMPDEST PUSH2 0x120 PUSH2 0x20F CALLDATASIZE PUSH1 0x4 PUSH2 0x675 JUMP JUMPDEST PUSH2 0x478 JUMP JUMPDEST PUSH2 0xC2 PUSH2 0x222 CALLDATASIZE PUSH1 0x4 PUSH2 0x6A5 JUMP JUMPDEST PUSH2 0x4B6 JUMP JUMPDEST PUSH2 0x22F PUSH2 0x59D JUMP JUMPDEST DUP3 PUSH2 0xFFFF AND DUP3 PUSH2 0xFFFF AND LT PUSH2 0x27D JUMPI PUSH1 0x40 MLOAD PUSH3 0x461BCD PUSH1 0xE5 SHL DUP2 MSTORE PUSH1 0x20 PUSH1 0x4 DUP3 ADD MSTORE PUSH1 0xF PUSH1 0x24 DUP3 ADD MSTORE PUSH15 0x24B73B30B634B21036B4B71020A829 PUSH1 0x89 SHL PUSH1 0x44 DUP3 ADD MSTORE PUSH1 0x64 ADD JUMPDEST PUSH1 0x40 MLOAD DUP1 SWAP2 SUB SWAP1 REVERT JUMPDEST DUP1 PUSH2 0xFFFF AND DUP4 PUSH2 0xFFFF AND LT PUSH2 0x2C6 JUMPI PUSH1 0x40 MLOAD PUSH3 0x461BCD PUSH1 0xE5 SHL DUP2 MSTORE PUSH1 0x20 PUSH1 0x4 DUP3 ADD MSTORE PUSH1 0xF PUSH1 0x24 DUP3 ADD MSTORE PUSH15 0x24B73B30B634B21036B0BC1020A829 PUSH1 0x89 SHL PUSH1 0x44 DUP3 ADD MSTORE PUSH1 0x64 ADD PUSH2 0x274 JUMP JUMPDEST PUSH1 0x0 DUP1 SLOAD PUSH4 0xFFFFFFFF PUSH1 0xA0 SHL NOT AND PUSH1 0x1 PUSH1 0xA0 SHL PUSH2 0xFFFF DUP7 DUP2 AND SWAP2 DUP3 MUL PUSH2 0xFFFF PUSH1 0xB0 SHL NOT AND SWAP3 SWAP1 SWAP3 OR PUSH1 0x1 PUSH1 0xB0 SHL DUP7 DUP5 AND SWAP1 DUP2 MUL SWAP2 SWAP1 SWAP2 OR PUSH2 0xFFFF PUSH1 0xC0 SHL NOT AND PUSH1 0x1 PUSH1 0xC0 SHL SWAP4 DUP7 AND SWAP4 DUP5 MUL OR SWAP1 SWAP4 SSTORE PUSH1 0x40 DUP1 MLOAD SWAP2 DUP3 MSTORE PUSH1 0x20 DUP3 ADD SWAP4 SWAP1 SWAP4 MSTORE SWAP2 DUP3 ADD MSTORE PUSH32 0x83BBB36B45A0D300DAB404594D8A73DCE5F9A8CB6281E44051E0D6B3276EE50 SWAP1 PUSH1 0x60 ADD PUSH1 0x40 MLOAD DUP1 SWAP2 SUB SWAP1 LOG1 POP POP POP JUMP JUMPDEST PUSH2 0x361 PUSH2 0x59D JUMP JUMPDEST PUSH2 0x36B PUSH1 0x0 PUSH2 0x5CA JUMP JUMPDEST JUMP JUMPDEST PUSH1 0x40 DUP1 MLOAD PUSH1 0xC0 DUP2 ADD DUP3 MSTORE PUSH1 0x0 DUP1 DUP3 MSTORE PUSH1 0x20 DUP3 ADD DUP2 SWAP1 MSTORE DUP2 DUP4 ADD DUP2 SWAP1 MSTORE PUSH1 0x60 DUP3 ADD DUP2 SWAP1 MSTORE PUSH1 0x80 DUP3 ADD DUP2 SWAP1 MSTORE PUSH1 0xA0 DUP3 ADD DUP2 SWAP1 MSTORE SWAP2 MLOAD PUSH4 0xD47875D PUSH1 0xE4 SHL DUP2 MSTORE PUSH1 0x1 PUSH1 0x1 PUSH1 0xA0 SHL SUB DUP5 DUP2 AND PUSH1 0x4 DUP4 ADD MSTORE SWAP2 SWAP3 SWAP2 PUSH32 0x0 AND SWAP1 PUSH4 0xD47875D0 SWAP1 PUSH1 0x24 ADD PUSH1 0xC0 PUSH1 0x40 MLOAD DUP1 DUP4 SUB DUP2 DUP7 GAS STATICCALL ISZERO DUP1 ISZERO PUSH2 0x406 JUMPI RETURNDATASIZE PUSH1 0x0 DUP1 RETURNDATACOPY RETURNDATASIZE PUSH1 0x0 REVERT JUMPDEST POP POP POP POP PUSH1 0x40 MLOAD RETURNDATASIZE PUSH1 0x1F NOT PUSH1 0x1F DUP3 ADD AND DUP3 ADD DUP1 PUSH1 0x40 MSTORE POP DUP2 ADD SWAP1 PUSH2 0x42A SWAP2 SWAP1 PUSH2 0x6FB JUMP JUMPDEST DUP1 MLOAD SWAP1 SWAP2 POP PUSH2 0xFFFF AND PUSH1 0x0 SUB PUSH2 0x447 JUMPI PUSH2 0x12C PUSH1 0xA0 DUP4 ADD MSTORE PUSH2 0x453 JUMP JUMPDEST DUP1 MLOAD PUSH2 0xFFFF AND PUSH1 0xA0 DUP4 ADD MSTORE JUMPDEST POP PUSH1 0x32 DUP1 DUP3 MSTORE PUSH1 0x20 DUP3 ADD MSTORE PUSH1 0x0 PUSH1 0x40 DUP3 ADD DUP2 SWAP1 MSTORE PUSH1 0x60 DUP3 ADD DUP2 SWAP1 MSTORE PUSH1 0x80 DUP3 ADD MSTORE SWAP2 SWAP1 POP JUMP JUMPDEST PUSH2 0x480 PUSH2 0x59D JUMP JUMPDEST PUSH1 0x1 PUSH1 0x1 PUSH1 0xA0 SHL SUB DUP2 AND PUSH2 0x4AA JUMPI PUSH1 0x40 MLOAD PUSH4 0x1E4FBDF7 PUSH1 0xE0 SHL DUP2 MSTORE PUSH1 0x0 PUSH1 0x4 DUP3 ADD MSTORE PUSH1 0x24 ADD PUSH2 0x274 JUMP JUMPDEST PUSH2 0x4B3 DUP2 PUSH2 0x5CA JUMP JUMPDEST POP JUMP JUMPDEST PUSH1 0x0 PUSH2 0x12C PUSH2 0xFFFF DUP4 AND LT DUP1 ISZERO SWAP1 PUSH2 0x4D4 JUMPI POP PUSH2 0x352 PUSH2 0xFFFF DUP4 AND GT ISZERO JUMPDEST PUSH2 0x510 JUMPI PUSH1 0x40 MLOAD PUSH3 0x461BCD PUSH1 0xE5 SHL DUP2 MSTORE PUSH1 0x20 PUSH1 0x4 DUP3 ADD MSTORE PUSH1 0xD PUSH1 0x24 DUP3 ADD MSTORE PUSH13 0x496E76616C69642073636F7265 PUSH1 0x98 SHL PUSH1 0x44 DUP3 ADD MSTORE PUSH1 0x64 ADD PUSH2 0x274 JUMP JUMPDEST PUSH1 0x0 PUSH2 0x520 PUSH2 0x12C PUSH2 0x352 PUSH2 0x7BE JUMP JUMPDEST PUSH1 0x0 DUP1 SLOAD PUSH2 0xFFFF SWAP3 DUP4 AND SWAP4 POP SWAP1 SWAP2 PUSH2 0x54A SWAP2 PUSH1 0x1 PUSH1 0xB0 SHL DUP2 DIV DUP3 AND SWAP2 PUSH1 0x1 PUSH1 0xC0 SHL SWAP1 SWAP2 DIV AND PUSH2 0x7BE JUMP JUMPDEST PUSH2 0xFFFF AND SWAP1 POP PUSH1 0x0 DUP3 DUP3 PUSH2 0x560 PUSH2 0x12C DUP9 PUSH2 0x7BE JUMP JUMPDEST PUSH2 0xFFFF AND PUSH2 0x56E SWAP2 SWAP1 PUSH2 0x7E0 JUMP JUMPDEST PUSH2 0x578 SWAP2 SWAP1 PUSH2 0x7FD JUMP JUMPDEST PUSH1 0x0 SLOAD SWAP1 SWAP2 POP PUSH2 0x594 SWAP1 DUP3 SWAP1 PUSH1 0x1 PUSH1 0xC0 SHL SWAP1 DIV PUSH2 0xFFFF AND PUSH2 0x81F JUMP JUMPDEST SWAP6 SWAP5 POP POP POP POP POP JUMP JUMPDEST PUSH1 0x0 SLOAD PUSH1 0x1 PUSH1 0x1 PUSH1 0xA0 SHL SUB AND CALLER EQ PUSH2 0x36B JUMPI PUSH1 0x40 MLOAD PUSH4 0x118CDAA7 PUSH1 0xE0 SHL DUP2 MSTORE CALLER PUSH1 0x4 DUP3 ADD MSTORE PUSH1 0x24 ADD PUSH2 0x274 JUMP JUMPDEST PUSH1 0x0 DUP1 SLOAD PUSH1 0x1 PUSH1 0x1 PUSH1 0xA0 SHL SUB DUP4 DUP2 AND PUSH1 0x1 PUSH1 0x1 PUSH1 0xA0 SHL SUB NOT DUP4 AND DUP2 OR DUP5 SSTORE PUSH1 0x40 MLOAD SWAP2 SWAP1 SWAP3 AND SWAP3 DUP4 SWAP2 PUSH32 0x8BE0079C531659141344CD1FD0A4F28419497F9722A3DAAFE3B4186F6B6457E0 SWAP2 SWAP1 LOG3 POP POP JUMP JUMPDEST PUSH2 0xFFFF DUP2 AND DUP2 EQ PUSH2 0x4B3 JUMPI PUSH1 0x0 DUP1 REVERT JUMPDEST PUSH1 0x0 DUP1 PUSH1 0x0 PUSH1 0x60 DUP5 DUP7 SUB SLT ISZERO PUSH2 0x63F JUMPI PUSH1 0x0 DUP1 REVERT JUMPDEST DUP4 CALLDATALOAD PUSH2 0x64A DUP2 PUSH2 0x61A JUMP JUMPDEST SWAP3 POP PUSH1 0x20 DUP5 ADD CALLDATALOAD PUSH2 0x65A DUP2 PUSH2 0x61A JUMP JUMPDEST SWAP2 POP PUSH1 0x40 DUP5 ADD CALLDATALOAD PUSH2 0x66A DUP2 PUSH2 0x61A JUMP JUMPDEST DUP1 SWAP2 POP POP SWAP3 POP SWAP3 POP SWAP3 JUMP JUMPDEST PUSH1 0x0 PUSH1 0x20 DUP3 DUP5 SUB SLT ISZERO PUSH2 0x687 JUMPI PUSH1 0x0 DUP1 REVERT JUMPDEST DUP2 CALLDATALOAD PUSH1 0x1 PUSH1 0x1 PUSH1 0xA0 SHL SUB DUP2 AND DUP2 EQ PUSH2 0x69E JUMPI PUSH1 0x0 DUP1 REVERT JUMPDEST SWAP4 SWAP3 POP POP POP JUMP JUMPDEST PUSH1 0x0 PUSH1 0x20 DUP3 DUP5 SUB SLT ISZERO PUSH2 0x6B7 JUMPI PUSH1 0x0 DUP1 REVERT JUMPDEST DUP2 CALLDATALOAD PUSH2 0x69E DUP2 PUSH2 0x61A JUMP JUMPDEST DUP1 MLOAD PUSH2 0x6CD DUP2 PUSH2 0x61A JUMP JUMPDEST SWAP2 SWAP1 POP JUMP JUMPDEST DUP1 MLOAD PUSH1 0xFF DUP2 AND DUP2 EQ PUSH2 0x6CD JUMPI PUSH1 0x0 DUP1 REVERT JUMPDEST DUP1 MLOAD PUSH8 0xFFFFFFFFFFFFFFFF DUP2 AND DUP2 EQ PUSH2 0x6CD JUMPI PUSH1 0x0 DUP1 REVERT JUMPDEST PUSH1 0x0 PUSH1 0xC0 DUP3 DUP5 SUB SLT ISZERO PUSH2 0x70D JUMPI PUSH1 0x0 DUP1 REVERT JUMPDEST PUSH1 0x40 MLOAD PUSH1 0xC0 DUP2 ADD DUP2 DUP2 LT PUSH8 0xFFFFFFFFFFFFFFFF DUP3 GT OR ISZERO PUSH2 0x73E JUMPI PUSH4 0x4E487B71 PUSH1 0xE0 SHL PUSH1 0x0 MSTORE PUSH1 0x41 PUSH1 0x4 MSTORE PUSH1 0x24 PUSH1 0x0 REVERT JUMPDEST PUSH1 0x40 MSTORE PUSH2 0x74A DUP4 PUSH2 0x6C2 JUMP JUMPDEST DUP2 MSTORE PUSH2 0x758 PUSH1 0x20 DUP5 ADD PUSH2 0x6D2 JUMP JUMPDEST PUSH1 0x20 DUP3 ADD MSTORE PUSH2 0x769 PUSH1 0x40 DUP5 ADD PUSH2 0x6D2 JUMP JUMPDEST PUSH1 0x40 DUP3 ADD MSTORE PUSH2 0x77A PUSH1 0x60 DUP5 ADD PUSH2 0x6C2 JUMP JUMPDEST PUSH1 0x60 DUP3 ADD MSTORE PUSH2 0x78B PUSH1 0x80 DUP5 ADD PUSH2 0x6E3 JUMP JUMPDEST PUSH1 0x80 DUP3 ADD MSTORE PUSH2 0x79C PUSH1 0xA0 DUP5 ADD PUSH2 0x6D2 JUMP JUMPDEST PUSH1 0xA0 DUP3 ADD MSTORE SWAP4 SWAP3 POP POP POP JUMP JUMPDEST PUSH4 0x4E487B71 PUSH1 0xE0 SHL PUSH1 0x0 MSTORE PUSH1 0x11 PUSH1 0x4 MSTORE PUSH1 0x24 PUSH1 0x0 REVERT JUMPDEST PUSH2 0xFFFF DUP3 DUP2 AND DUP3 DUP3 AND SUB SWAP1 DUP1 DUP3 GT ISZERO PUSH2 0x7D9 JUMPI PUSH2 0x7D9 PUSH2 0x7A8 JUMP JUMPDEST POP SWAP3 SWAP2 POP POP JUMP JUMPDEST DUP1 DUP3 MUL DUP2 ISZERO DUP3 DUP3 DIV DUP5 EQ OR PUSH2 0x7F7 JUMPI PUSH2 0x7F7 PUSH2 0x7A8 JUMP JUMPDEST SWAP3 SWAP2 POP POP JUMP JUMPDEST PUSH1 0x0 DUP3 PUSH2 0x81A JUMPI PUSH4 0x4E487B71 PUSH1 0xE0 SHL PUSH1 0x0 MSTORE PUSH1 0x12 PUSH1 0x4 MSTORE PUSH1 0x24 PUSH1 0x0 REVERT JUMPDEST POP DIV SWAP1 JUMP JUMPDEST DUP2 DUP2 SUB DUP2 DUP2 GT ISZERO PUSH2 0x7F7 JUMPI PUSH2 0x7F7 PUSH2 0x7A8 JUMP INVALID LOG2 PUSH5 0x6970667358 0x22 SLT KECCAK256 DUP13 PUSH8 0x84B00B72992CCB03 0x2E OR 0xB4 SHL 0xA8 0xCB SWAP11 0x2E SWAP5 0xEC GT PUSH25 0x8DFDF7C158204385DFF964736F6C6343000814003300000000 "},"methodIdentifiers":{"MAX_SCORE()":"27ff6223","MIN_SCORE()":"40b89270","baseAPR()":"58ac0e80","computeScore(address)":"c5d46dfc","getAPR(uint16)":"fb4ceaa3","maxAPR()":"53704f9a","minAPR()":"e0e79dde","owner()":"8da5cb5b","registry()":"7b103999","renounceOwnership()":"715018a6","setAPRConfig(uint16,uint16,uint16)":"70d7642b","transferOwnership(address)":"f2fde38b"}}}}}