{"contracts/ReputationScorer.sol":{"ReputationScorer":{"abi":[{"inputs":[],"stateMutability":"nonpayable","type":"constructor"},{"inputs":[{"internalType":"address","name":"owner","type":"address"}],"name":"OwnableInvalidOwner","type":"error"},{"inputs":[{"internalType":"address","name":"account","type":"address"}],"name":"OwnableUnauthorizedAccount","type":"error"},{"inputs":[],"name":"ReentrancyGuardReentrantCall","type":"error"},{"anonymous":false,"inputs":[{"indexed":true,"internalType":"address","name":"updater","type":"address"},{"indexed":false,"internalType":"bool","name":"authorized","type":"bool"}],"name":"AuthorizedUpdaterSet","type":"event"},{"anonymous":false,"inputs":[{"indexed":true,"internalType":"address","name":"previousOwner","type":"address"},{"indexed":true,"internalType":"address","name":"newOwner","type":"address"}],"name":"OwnershipTransferred","type":"event"},{"anonymous":false,"inputs":[{"indexed":true,"internalType":"address","name":"borrower","type":"address"},{"indexed":true,"internalType":"uint256","name":"loanId","type":"uint256"},{"indexed":false,"internalType":"bool","name":"onTime","type":"bool"},{"indexed":false,"internalType":"uint8","name":"lateDays","type":"uint8"}],"name":"PaymentRecorded","type":"event"},{"anonymous":false,"inputs":[{"indexed":true,"internalType":"address","name":"user","type":"address"},{"indexed":false,"internalType":"uint256","name":"totalScore","type":"uint256"},{"indexed":false,"internalType":"uint256","name":"baseScore","type":"uint256"},{"indexed":false,"internalType":"uint256","name":"paymentScore","type":"uint256"},{"indexed":false,"internalType":"uint256","name":"walletAgeScore","type":"uint256"},{"indexed":false,"internalType":"uint256","name":"protocolScore","type":"uint256"}],"name":"ScoreUpdated","type":"event"},{"inputs":[],"name":"BASE_WEIGHT","outputs":[{"internalType":"uint8","name":"","type":"uint8"}],"stateMutability":"view","type":"function"},{"inputs":[],"name":"PAYMENT_WEIGHT","outputs":[{"internalType":"uint8","name":"","type":"uint8"}],"stateMutability":"view","type":"function"},{"inputs":[],"name":"PROTOCOL_WEIGHT","outputs":[{"internalType":"uint8","name":"","type":"uint8"}],"stateMutability":"view","type":"function"},{"inputs":[],"name":"WALLET_AGE_WEIGHT","outputs":[{"internalType":"uint8","name":"","type":"uint8"}],"stateMutability":"view","type":"function"},{"inputs":[{"internalType":"address","name":"","type":"address"}],"name":"authorizedUpdaters","outputs":[{"internalType":"bool","name":"","type":"bool"}],"stateMutability":"view","type":"function"},{"inputs":[{"internalType":"address","name":"user","type":"address"},{"internalType":"uint256","name":"baseScore","type":"uint256"}],"name":"calculateScore","outputs":[{"internalType":"uint256","name":"","type":"uint256"}],"stateMutability":"nonpayable","type":"function"},{"inputs":[{"internalType":"address","name":"user","type":"address"}],"name":"getCreditTier","outputs":[{"internalType":"string","name":"","type":"string"}],"stateMutability":"view","type":"function"},{"inputs":[{"internalType":"address","name":"user","type":"address"}],"name":"getDynamicLTV","outputs":[{"internalType":"uint256","name":"","type":"uint256"}],"stateMutability":"view","type":"function"},{"inputs":[{"internalType":"address","name":"user","type":"address"}],"name":"getPaymentHistory","outputs":[{"components":[{"internalType":"uint256","name":"loanId","type":"uint256"},{"internalType":"uint256","name":"amount","type":"uint256"},{"internalType":"uint256","name":"dueDate","type":"uint256"},{"internalType":"uint256","name":"paidDate","type":"uint256"},{"internalType":"bool","name":"onTime","type":"bool"},{"internalType":"uint8","name":"lateDays","type":"uint8"}],"internalType":"struct ReputationScorer.PaymentRecord[]","name":"","type":"tuple[]"}],"stateMutability":"view","type":"function"},{"inputs":[{"internalType":"address","name":"user","type":"address"}],"name":"getScoreBreakdown","outputs":[{"components":[{"internalType":"uint256","name":"baseScore","type":"uint256"},{"internalType":"uint256","name":"paymentScore","type":"uint256"},{"internalType":"uint256","name":"walletAgeScore","type":"uint256"},{"internalType":"uint256","name":"protocolScore","type":"uint256"},{"internalType":"uint256","name":"totalScore","type":"uint256"},{"internalType":"string","name":"tier","type":"string"},{"internalType":"uint256","name":"ltv","type":"uint256"},{"internalType":"uint256","name":"lastUpdated","type":"uint256"}],"internalType":"struct ReputationScorer.CreditScore","name":"","type":"tuple"}],"stateMutability":"view","type":"function"},{"inputs":[{"internalType":"address","name":"user","type":"address"}],"name":"incrementProtocolInteractions","outputs":[],"stateMutability":"nonpayable","type":"function"},{"inputs":[],"name":"owner","outputs":[{"internalType":"address","name":"","type":"address"}],"stateMutability":"view","type":"function"},{"inputs":[{"internalType":"address","name":"","type":"address"},{"internalType":"uint256","name":"","type":"uint256"}],"name":"paymentHistory","outputs":[{"internalType":"uint256","name":"loanId","type":"uint256"},{"internalType":"uint256","name":"amount","type":"uint256"},{"internalType":"uint256","name":"dueDate","type":"uint256"},{"internalType":"uint256","name":"paidDate","type":"uint256"},{"internalType":"bool","name":"onTime","type":"bool"},{"internalType":"uint8","name":"lateDays","type":"uint8"}],"stateMutability":"view","type":"function"},{"inputs":[{"internalType":"address","name":"","type":"address"}],"name":"protocolInteractions","outputs":[{"internalType":"uint256","name":"","type":"uint256"}],"stateMutability":"view","type":"function"},{"inputs":[{"internalType":"address","name":"borrower","type":"address"},{"internalType":"uint256","name":"loanId","type":"uint256"},{"internalType":"uint256","name":"amount","type":"uint256"},{"internalType":"uint256","name":"dueDate","type":"uint256"},{"internalType":"bool","name":"onTime","type":"bool"}],"name":"recordPayment","outputs":[],"stateMutability":"nonpayable","type":"function"},{"inputs":[{"internalType":"address","name":"user","type":"address"}],"name":"recordWalletCreation","outputs":[],"stateMutability":"nonpayable","type":"function"},{"inputs":[],"name":"renounceOwnership","outputs":[],"stateMutability":"nonpayable","type":"function"},{"inputs":[{"internalType":"address","name":"","type":"address"}],"name":"scores","outputs":[{"internalType":"uint256","name":"baseScore","type":"uint256"},{"internalType":"uint256","name":"paymentScore","type":"uint256"},{"internalType":"uint256","name":"walletAgeScore","type":"uint256"},{"internalType":"uint256","name":"protocolScore","type":"uint256"},{"internalType":"uint256","name":"totalScore","type":"uint256"},{"internalType":"string","name":"tier","type":"string"},{"internalType":"uint256","name":"ltv","type":"uint256"},{"internalType":"uint256","name":"lastUpdated","type":"uint256"}],"stateMutability":"view","type":"function"},{"inputs":[{"internalType":"address","name":"updater","type":"address"},{"internalType":"bool","name":"authorized","type":"bool"}],"name":"setAuthorizedUpdater","outputs":[],"stateMutability":"nonpayable","type":"function"},{"inputs":[{"internalType":"address","name":"newOwner","type":"address"}],"name":"transferOwnership","outputs":[],"stateMutability":"nonpayable","type":"function"},{"inputs":[{"internalType":"address","name":"","type":"address"}],"name":"walletCreationTime","outputs":[{"internalType":"uint256","name":"","type":"uint256"}],"stateMutability":"view","type":"function"}],"evm":{"bytecode":{"linkReferences":{},"object":"608060405234801561001057600080fd5b50338061003757604051631e4fbdf760e01b81526000600482015260240160405180910390fd5b6100408161004a565b506001805561009a565b600080546001600160a01b038381166001600160a01b0319831681178455604051919092169283917f8be0079c531659141344cd1fd0a4f28419497f9722a3daafe3b4186f6b6457e09190a35050565b61153d806100a96000396000f3fe608060405234801561001057600080fd5b50600436106101375760003560e01c80638da5cb5b116100b8578063cc38b4771161007c578063cc38b477146102af578063d46b1ab0146102f4578063d4b1049814610314578063d7a6946614610327578063e16fd0ec14610347578063f2fde38b1461034f57600080fd5b80638da5cb5b146102465780638ee05bea146102615780638ff29cfe1461026957806399fc65d41461029c578063c0b1ecd41461026157600080fd5b806369a264d8116100ff57806369a264d8146101ca578063715018a6146101dd57806376dd110f146101e55780637da2ba7c1461020c578063844f0cac1461022c57600080fd5b8063119c5bab1461013c5780632c27750a146101625780634e9ef7391461018257806361075f8e14610197578063669023cd146101b7575b600080fd5b61014f61014a36600461107f565b610362565b6040519081526020015b60405180910390f35b61017561017036600461107f565b6103bd565b60405161015991906110e7565b610195610190366004611168565b610515565b005b6101aa6101a536600461107f565b610690565b60405161015991906111b8565b6101956101c536600461107f565b61075a565b61014f6101d83660046111cb565b6107dc565b610195610ac0565b6101f86101f336600461107f565b610ad4565b6040516101599897969594939291906111f5565b61021f61021a36600461107f565b610ba4565b604051610159919061123f565b610234601e81565b60405160ff9091168152602001610159565b6000546040516001600160a01b039091168152602001610159565b610234600a81565b61028c61027736600461107f565b60066020526000908152604090205460ff1681565b6040519015158152602001610159565b6101956102aa3660046112bc565b610c58565b6102c26102bd3660046111cb565b610cbf565b6040805196875260208701959095529385019290925260608401521515608083015260ff1660a082015260c001610159565b61014f61030236600461107f565b60056020526000908152604090205481565b61019561032236600461107f565b610d19565b61014f61033536600461107f565b60046020526000908152604090205481565b610234603281565b61019561035d36600461107f565b610d89565b6001600160a01b03811660009081526002602052604081206004015461032081106103905750605a92915050565b61025881106103a25750604b92915050565b61019081106103b45750604192915050565b50603292915050565b61040560405180610100016040528060008152602001600081526020016000815260200160008152602001600081526020016060815260200160008152602001600081525090565b60026000836001600160a01b03166001600160a01b03168152602001908152602001600020604051806101000160405290816000820154815260200160018201548152602001600282015481526020016003820154815260200160048201548152602001600582018054610478906112ef565b80601f01602080910402602001604051908101604052809291908181526020018280546104a4906112ef565b80156104f15780601f106104c6576101008083540402835291602001916104f1565b820191906000526020600020905b8154815290600101906020018083116104d457829003601f168201915b50505050508152602001600682015481526020016007820154815250509050919050565b3360009081526006602052604090205460ff168061053d57506000546001600160a01b031633145b6105625760405162461bcd60e51b815260040161055990611329565b60405180910390fd5b60008115801561057157508242115b1561059157620151806105848442611367565b61058e919061137a565b90505b6040805160c081018252868152602080820187815282840187815242606085019081528715156080860190815260ff80891660a088019081526001600160a01b038f1660008181526003808a528b82208054600181810183559184529a9092208b516005909b0201998a5597519089015594516002880155925194860194909455516004909401805491519093166101000261ff00199415159490941661ffff19909116179290921790559151909187917f7ec7a3349a232406234930b08f6ea5472ee68b16335e356e72ec3993239a65649061067f9087908790911515825260ff16602082015260400190565b60405180910390a350505050505050565b6001600160a01b03811660009081526002602052604090206004015460609061032081106106de575050604080518082019091526008815267506c6174696e756d60c01b6020820152919050565b610258811061070957505060408051808201909152600481526311dbdb1960e21b6020820152919050565b610190811061073657505060408051808201909152600681526529b4b63b32b960d11b6020820152919050565b505060408051808201909152600681526542726f6e7a6560d01b6020820152919050565b3360009081526006602052604090205460ff168061078257506000546001600160a01b031633145b61079e5760405162461bcd60e51b815260040161055990611329565b6001600160a01b03811660009081526004602052604081205490036107d9576001600160a01b03811660009081526004602052604090204290555b50565b3360009081526006602052604081205460ff168061080457506000546001600160a01b031633145b6108205760405162461bcd60e51b815260040161055990611329565b6001600160a01b03831661086d5760405162461bcd60e51b8152602060048201526014602482015273496e76616c69642075736572206164647265737360601b6044820152606401610559565b6103e88211156108bf5760405162461bcd60e51b815260206004820152601a60248201527f426173652073636f72652065786365656473206d6178696d756d0000000000006044820152606401610559565b60006108ca84610dc4565b905060006108d785610f44565b905060006108e486610fbc565b90508460606000610320831061091c575050604080518082019091526008815267506c6174696e756d60c01b6020820152605a61099a565b610258831061094957505060408051808201909152600481526311dbdb1960e21b6020820152604b61099a565b610190831061097857505060408051808201909152600681526529b4b63b32b960d11b6020820152604161099a565b505060408051808201909152600681526542726f6e7a6560d01b602082015260325b60405180610100016040528089815260200187815260200186815260200185815260200184815260200183815260200182815260200142815250600260008b6001600160a01b03166001600160a01b03168152602001908152602001600020600082015181600001556020820151816001015560408201518160020155606082015181600301556080820151816004015560a0820151816005019081610a409190611401565b5060c0820151600682015560e09091015160079091015560408051848152602081018a905290810187905260608101869052608081018590526001600160a01b038a16907fc812417344bffd7ff1981b90e5ccb2843052eb0a7ee2f683e82bbcd6a0c3aa1d9060a00160405180910390a250909450505050505b92915050565b610ac8610fe6565b610ad26000611013565b565b6002602052806000526040600020600091509050806000015490806001015490806002015490806003015490806004015490806005018054610b15906112ef565b80601f0160208091040260200160405190810160405280929190818152602001828054610b41906112ef565b8015610b8e5780601f10610b6357610100808354040283529160200191610b8e565b820191906000526020600020905b815481529060010190602001808311610b7157829003601f168201915b5050505050908060060154908060070154905088565b6001600160a01b0381166000908152600360209081526040808320805482518185028101850190935280835260609492939192909184015b82821015610c4d5760008481526020908190206040805160c081018252600586029092018054835260018082015484860152600282015492840192909252600381015460608401526004015460ff808216151560808501526101009091041660a08301529083529092019101610bdc565b505050509050919050565b610c60610fe6565b6001600160a01b038216600081815260066020908152604091829020805460ff191685151590811790915591519182527f0b820fe6cf998498ff3199cab21fb6482c7a422cbdf4ea7e8f1d390405889985910160405180910390a25050565b60036020528160005260406000208181548110610cdb57600080fd5b600091825260209091206005909102018054600182015460028301546003840154600490940154929550909350919060ff8082169161010090041686565b3360009081526006602052604090205460ff1680610d4157506000546001600160a01b031633145b610d5d5760405162461bcd60e51b815260040161055990611329565b6001600160a01b0381166000908152600560205260408120805491610d81836114c1565b919050555050565b610d91610fe6565b6001600160a01b038116610dbb57604051631e4fbdf760e01b815260006004820152602401610559565b6107d981611013565b6001600160a01b038116600090815260036020908152604080832080548251818502810185019093528083528493849084015b82821015610e685760008481526020908190206040805160c081018252600586029092018054835260018082015484860152600282015492840192909252600381015460608401526004015460ff808216151560808501526101009091041660a08301529083529092019101610df7565b5050505090508051600003610e805750606492915050565b6000600c825111610e92578151610e95565b600c5b9050600080828451610ea79190611367565b9050805b8451811015610ef757848181518110610ec657610ec66114da565b60200260200101516080015115610ee55782610ee1816114c1565b9350505b80610eef816114c1565b915050610eab565b50600083610f068460646114f0565b610f10919061137a565b905060006064610f218360c86114f0565b610f2b919061137a565b905081606403610f39575060c85b979650505050505050565b6001600160a01b038116600090815260046020526040812054808203610f6d5750600092915050565b600062015180610f7d8342611367565b610f87919061137a565b90506102da8110610f9c575060649392505050565b6102da610faa8260646114f0565b610fb4919061137a565b949350505050565b6001600160a01b03811660009081526005602052604081205460648110610aba5750606492915050565b6000546001600160a01b03163314610ad25760405163118cdaa760e01b8152336004820152602401610559565b600080546001600160a01b038381166001600160a01b0319831681178455604051919092169283917f8be0079c531659141344cd1fd0a4f28419497f9722a3daafe3b4186f6b6457e09190a35050565b80356001600160a01b038116811461107a57600080fd5b919050565b60006020828403121561109157600080fd5b61109a82611063565b9392505050565b6000815180845260005b818110156110c7576020818501810151868301820152016110ab565b506000602082860101526020601f19601f83011685010191505092915050565b6020815281516020820152602082015160408201526040820151606082015260608201516080820152608082015160a0820152600060a08301516101008060c08501526111386101208501836110a1565b915060c085015160e085015260e085015181850152508091505092915050565b8035801515811461107a57600080fd5b600080600080600060a0868803121561118057600080fd5b61118986611063565b94506020860135935060408601359250606086013591506111ac60808701611158565b90509295509295909350565b60208152600061109a60208301846110a1565b600080604083850312156111de57600080fd5b6111e783611063565b946020939093013593505050565b60006101008a83528960208401528860408401528760608401528660808401528060a0840152611227818401876110a1565b60c0840195909552505060e001529695505050505050565b602080825282518282018190526000919060409081850190868401855b828110156112af57815180518552868101518786015285810151868601526060808201519086015260808082015115159086015260a09081015160ff169085015260c0909301929085019060010161125c565b5091979650505050505050565b600080604083850312156112cf57600080fd5b6112d883611063565b91506112e660208401611158565b90509250929050565b600181811c9082168061130357607f821691505b60208210810361132357634e487b7160e01b600052602260045260246000fd5b50919050565b6020808252600e908201526d139bdd08185d5d1a1bdc9a5e995960921b604082015260600190565b634e487b7160e01b600052601160045260246000fd5b81810381811115610aba57610aba611351565b60008261139757634e487b7160e01b600052601260045260246000fd5b500490565b634e487b7160e01b600052604160045260246000fd5b601f8211156113fc57600081815260208120601f850160051c810160208610156113d95750805b601f850160051c820191505b818110156113f8578281556001016113e5565b5050505b505050565b815167ffffffffffffffff81111561141b5761141b61139c565b61142f8161142984546112ef565b846113b2565b602080601f831160018114611464576000841561144c5750858301515b600019600386901b1c1916600185901b1785556113f8565b600085815260208120601f198616915b8281101561149357888601518255948401946001909101908401611474565b50858210156114b15787850151600019600388901b60f8161c191681555b5050505050600190811b01905550565b6000600182016114d3576114d3611351565b5060010190565b634e487b7160e01b600052603260045260246000fd5b8082028115828204841417610aba57610aba61135156fea2646970667358221220f71e180cb522e9b41a6f73652de3c405919cc177b175e626bbafa91fb82a977864736f6c63430008140033","opcodes":"PUSH1 0x80 PUSH1 0x40 MSTORE CALLVALUE DUP1 ISZERO PUSH2 0x10 JUMPI PUSH1 0x0 DUP1 REVERT JUMPDEST POP CALLER DUP1 PUSH2 0x37 JUMPI PUSH1 0x40 MLOAD PUSH4 0x1E4FBDF7 PUSH1 0xE0 SHL DUP2 MSTORE PUSH1 0x0 PUSH1 0x4 DUP3 ADD MSTORE PUSH1 0x24 ADD PUSH1 0x40 MLOAD DUP1 SWAP2 SUB SWAP1 REVERT JUMPDEST PUSH2 0x40 DUP2 PUSH2 0x4A JUMP JUMPDEST POP PUSH1 0x1 DUP1 SSTORE PUSH2 0x9A JUMP JUMPDEST PUSH1 0x0 DUP1 SLOAD PUSH1 0x1 PUSH1 0x1 PUSH1 0xA0 SHL SUB DUP4 DUP2 AND PUSH1 0x1 PUSH1 0x1 PUSH1 0xA0 SHL SUB NOT DUP4 AND DUP2 OR DUP5 SSTORE PUSH1 0x40 MLOAD SWAP2 SWAP1 SWAP3 AND SWAP3 DUP4 SWAP2 PUSH32 0x8BE0079C531659141344CD1FD0A4F28419497F9722A3DAAFE3B4186F6B6457E0 SWAP2 SWAP1 LOG3 POP POP JUMP JUMPDEST PUSH2 0x153D DUP1 PUSH2 0xA9 PUSH1 0x0 CODECOPY PUSH1 0x0 RETURN INVALID PUSH1 0x80 PUSH1 0x40 MSTORE CALLVALUE DUP1 ISZERO PUSH2 0x10 JUMPI PUSH1 0x0 DUP1 REVERT JUMPDEST POP PUSH1 0x4 CALLDATASIZE LT PUSH2 0x137 JUMPI PUSH1 0x0 CALLDATALOAD PUSH1 0xE0 SHR DUP1 PUSH4 0x8DA5CB5B GT PUSH2 0xB8 JUMPI DUP1 PUSH4 0xCC38B477 GT PUSH2 0x7C JUMPI DUP1 PUSH4 0xCC38B477 EQ PUSH2 0x2AF JUMPI DUP1 PUSH4 0xD46B1AB0 EQ PUSH2 0x2F4 JUMPI DUP1 PUSH4 0xD4B10498 EQ PUSH2 0x314 JUMPI DUP1 PUSH4 0xD7A69466 EQ PUSH2 0x327 JUMPI DUP1 PUSH4 0xE16FD0EC EQ PUSH2 0x347 JUMPI DUP1 PUSH4 0xF2FDE38B EQ PUSH2 0x34F JUMPI PUSH1 0x0 DUP1 REVERT JUMPDEST DUP1 PUSH4 0x8DA5CB5B EQ PUSH2 0x246 JUMPI DUP1 PUSH4 0x8EE05BEA EQ PUSH2 0x261 JUMPI DUP1 PUSH4 0x8FF29CFE EQ PUSH2 0x269 JUMPI DUP1 PUSH4 0x99FC65D4 EQ PUSH2 0x29C JUMPI DUP1 PUSH4 0xC0B1ECD4 EQ PUSH2 0x261 JUMPI PUSH1 0x0 DUP1 REVERT JUMPDEST DUP1 PUSH4 0x69A264D8 GT PUSH2 0xFF JUMPI DUP1 PUSH4 0x69A264D8 EQ PUSH2 0x1CA JUMPI DUP1 PUSH4 0x715018A6 EQ PUSH2 0x1DD JUMPI DUP1 PUSH4 0x76DD110F EQ PUSH2 0x1E5 JUMPI DUP1 PUSH4 0x7DA2BA7C EQ PUSH2 0x20C JUMPI DUP1 PUSH4 0x844F0CAC EQ PUSH2 0x22C JUMPI PUSH1 0x0 DUP1 REVERT JUMPDEST DUP1 PUSH4 0x119C5BAB EQ PUSH2 0x13C JUMPI DUP1 PUSH4 0x2C27750A EQ PUSH2 0x162 JUMPI DUP1 PUSH4 0x4E9EF739 EQ PUSH2 0x182 JUMPI DUP1 PUSH4 0x61075F8E EQ PUSH2 0x197 JUMPI DUP1 PUSH4 0x669023CD EQ PUSH2 0x1B7 JUMPI JUMPDEST PUSH1 0x0 DUP1 REVERT JUMPDEST PUSH2 0x14F PUSH2 0x14A CALLDATASIZE PUSH1 0x4 PUSH2 0x107F JUMP JUMPDEST PUSH2 0x362 JUMP JUMPDEST PUSH1 0x40 MLOAD SWAP1 DUP2 MSTORE PUSH1 0x20 ADD JUMPDEST PUSH1 0x40 MLOAD DUP1 SWAP2 SUB SWAP1 RETURN JUMPDEST PUSH2 0x175 PUSH2 0x170 CALLDATASIZE PUSH1 0x4 PUSH2 0x107F JUMP JUMPDEST PUSH2 0x3BD JUMP JUMPDEST PUSH1 0x40 MLOAD PUSH2 0x159 SWAP2 SWAP1 PUSH2 0x10E7 JUMP JUMPDEST PUSH2 0x195 PUSH2 0x190 CALLDATASIZE PUSH1 0x4 PUSH2 0x1168 JUMP JUMPDEST PUSH2 0x515 JUMP JUMPDEST STOP JUMPDEST PUSH2 0x1AA PUSH2 0x1A5 CALLDATASIZE PUSH1 0x4 PUSH2 0x107F JUMP JUMPDEST PUSH2 0x690 JUMP JUMPDEST PUSH1 0x40 MLOAD PUSH2 0x159 SWAP2 SWAP1 PUSH2 0x11B8 JUMP JUMPDEST PUSH2 0x195 PUSH2 0x1C5 CALLDATASIZE PUSH1 0x4 PUSH2 0x107F JUMP JUMPDEST PUSH2 0x75A JUMP JUMPDEST PUSH2 0x14F PUSH2 0x1D8 CALLDATASIZE PUSH1 0x4 PUSH2 0x11CB JUMP JUMPDEST PUSH2 0x7DC JUMP JUMPDEST PUSH2 0x195 PUSH2 0xAC0 JUMP JUMPDEST PUSH2 0x1F8 PUSH2 0x1F3 CALLDATASIZE PUSH1 0x4 PUSH2 0x107F JUMP JUMPDEST PUSH2 0xAD4 JUMP JUMPDEST PUSH1 0x40 MLOAD PUSH2 0x159 SWAP9 SWAP8 SWAP7 SWAP6 SWAP5 SWAP4 SWAP3 SWAP2 SWAP1 PUSH2 0x11F5 JUMP JUMPDEST PUSH2 0x21F PUSH2 0x21A CALLDATASIZE PUSH1 0x4 PUSH2 0x107F JUMP JUMPDEST PUSH2 0xBA4 JUMP JUMPDEST PUSH1 0x40 MLOAD PUSH2 0x159 SWAP2 SWAP1 PUSH2 0x123F JUMP JUMPDEST PUSH2 0x234 PUSH1 0x1E DUP2 JUMP JUMPDEST PUSH1 0x40 MLOAD PUSH1 0xFF SWAP1 SWAP2 AND DUP2 MSTORE PUSH1 0x20 ADD PUSH2 0x159 JUMP JUMPDEST PUSH1 0x0 SLOAD PUSH1 0x40 MLOAD PUSH1 0x1 PUSH1 0x1 PUSH1 0xA0 SHL SUB SWAP1 SWAP2 AND DUP2 MSTORE PUSH1 0x20 ADD PUSH2 0x159 JUMP JUMPDEST PUSH2 0x234 PUSH1 0xA DUP2 JUMP JUMPDEST PUSH2 0x28C PUSH2 0x277 CALLDATASIZE PUSH1 0x4 PUSH2 0x107F JUMP JUMPDEST PUSH1 0x6 PUSH1 0x20 MSTORE PUSH1 0x0 SWAP1 DUP2 MSTORE PUSH1 0x40 SWAP1 KECCAK256 SLOAD PUSH1 0xFF AND DUP2 JUMP JUMPDEST PUSH1 0x40 MLOAD SWAP1 ISZERO ISZERO DUP2 MSTORE PUSH1 0x20 ADD PUSH2 0x159 JUMP JUMPDEST PUSH2 0x195 PUSH2 0x2AA CALLDATASIZE PUSH1 0x4 PUSH2 0x12BC JUMP JUMPDEST PUSH2 0xC58 JUMP JUMPDEST PUSH2 0x2C2 PUSH2 0x2BD CALLDATASIZE PUSH1 0x4 PUSH2 0x11CB JUMP JUMPDEST PUSH2 0xCBF JUMP JUMPDEST PUSH1 0x40 DUP1 MLOAD SWAP7 DUP8 MSTORE PUSH1 0x20 DUP8 ADD SWAP6 SWAP1 SWAP6 MSTORE SWAP4 DUP6 ADD SWAP3 SWAP1 SWAP3 MSTORE PUSH1 0x60 DUP5 ADD MSTORE ISZERO ISZERO PUSH1 0x80 DUP4 ADD MSTORE PUSH1 0xFF AND PUSH1 0xA0 DUP3 ADD MSTORE PUSH1 0xC0 ADD PUSH2 0x159 JUMP JUMPDEST PUSH2 0x14F PUSH2 0x302 CALLDATASIZE PUSH1 0x4 PUSH2 0x107F JUMP JUMPDEST PUSH1 0x5 PUSH1 0x20 MSTORE PUSH1 0x0 SWAP1 DUP2 MSTORE PUSH1 0x40 SWAP1 KECCAK256 SLOAD DUP2 JUMP JUMPDEST PUSH2 0x195 PUSH2 0x322 CALLDATASIZE PUSH1 0x4 PUSH2 0x107F JUMP JUMPDEST PUSH2 0xD19 JUMP JUMPDEST PUSH2 0x14F PUSH2 0x335 CALLDATASIZE PUSH1 0x4 PUSH2 0x107F JUMP JUMPDEST PUSH1 0x4 PUSH1 0x20 MSTORE PUSH1 0x0 SWAP1 DUP2 MSTORE PUSH1 0x40 SWAP1 KECCAK256 SLOAD DUP2 JUMP JUMPDEST PUSH2 0x234 PUSH1 0x32 DUP2 JUMP JUMPDEST PUSH2 0x195 PUSH2 0x35D CALLDATASIZE PUSH1 0x4 PUSH2 0x107F JUMP JUMPDEST PUSH2 0xD89 JUMP JUMPDEST PUSH1 0x1 PUSH1 0x1 PUSH1 0xA0 SHL SUB DUP2 AND PUSH1 0x0 SWAP1 DUP2 MSTORE PUSH1 0x2 PUSH1 0x20 MSTORE PUSH1 0x40 DUP2 KECCAK256 PUSH1 0x4 ADD SLOAD PUSH2 0x320 DUP2 LT PUSH2 0x390 JUMPI POP PUSH1 0x5A SWAP3 SWAP2 POP POP JUMP JUMPDEST PUSH2 0x258 DUP2 LT PUSH2 0x3A2 JUMPI POP PUSH1 0x4B SWAP3 SWAP2 POP POP JUMP JUMPDEST PUSH2 0x190 DUP2 LT PUSH2 0x3B4 JUMPI POP PUSH1 0x41 SWAP3 SWAP2 POP POP JUMP JUMPDEST POP PUSH1 0x32 SWAP3 SWAP2 POP POP JUMP JUMPDEST PUSH2 0x405 PUSH1 0x40 MLOAD DUP1 PUSH2 0x100 ADD PUSH1 0x40 MSTORE DUP1 PUSH1 0x0 DUP2 MSTORE PUSH1 0x20 ADD PUSH1 0x0 DUP2 MSTORE PUSH1 0x20 ADD PUSH1 0x0 DUP2 MSTORE PUSH1 0x20 ADD PUSH1 0x0 DUP2 MSTORE PUSH1 0x20 ADD PUSH1 0x0 DUP2 MSTORE PUSH1 0x20 ADD PUSH1 0x60 DUP2 MSTORE PUSH1 0x20 ADD PUSH1 0x0 DUP2 MSTORE PUSH1 0x20 ADD PUSH1 0x0 DUP2 MSTORE POP SWAP1 JUMP JUMPDEST PUSH1 0x2 PUSH1 0x0 DUP4 PUSH1 0x1 PUSH1 0x1 PUSH1 0xA0 SHL SUB AND PUSH1 0x1 PUSH1 0x1 PUSH1 0xA0 SHL SUB AND DUP2 MSTORE PUSH1 0x20 ADD SWAP1 DUP2 MSTORE PUSH1 0x20 ADD PUSH1 0x0 KECCAK256 PUSH1 0x40 MLOAD DUP1 PUSH2 0x100 ADD PUSH1 0x40 MSTORE SWAP1 DUP2 PUSH1 0x0 DUP3 ADD SLOAD DUP2 MSTORE PUSH1 0x20 ADD PUSH1 0x1 DUP3 ADD SLOAD DUP2 MSTORE PUSH1 0x20 ADD PUSH1 0x2 DUP3 ADD SLOAD DUP2 MSTORE PUSH1 0x20 ADD PUSH1 0x3 DUP3 ADD SLOAD DUP2 MSTORE PUSH1 0x20 ADD PUSH1 0x4 DUP3 ADD SLOAD DUP2 MSTORE PUSH1 0x20 ADD PUSH1 0x5 DUP3 ADD DUP1 SLOAD PUSH2 0x478 SWAP1 PUSH2 0x12EF JUMP JUMPDEST DUP1 PUSH1 0x1F ADD PUSH1 0x20 DUP1 SWAP2 DIV MUL PUSH1 0x20 ADD PUSH1 0x40 MLOAD SWAP1 DUP2 ADD PUSH1 0x40 MSTORE DUP1 SWAP3 SWAP2 SWAP1 DUP2 DUP2 MSTORE PUSH1 0x20 ADD DUP3 DUP1 SLOAD PUSH2 0x4A4 SWAP1 PUSH2 0x12EF JUMP JUMPDEST DUP1 ISZERO PUSH2 0x4F1 JUMPI DUP1 PUSH1 0x1F LT PUSH2 0x4C6 JUMPI PUSH2 0x100 DUP1 DUP4 SLOAD DIV MUL DUP4 MSTORE SWAP2 PUSH1 0x20 ADD SWAP2 PUSH2 0x4F1 JUMP JUMPDEST DUP3 ADD SWAP2 SWAP1 PUSH1 0x0 MSTORE PUSH1 0x20 PUSH1 0x0 KECCAK256 SWAP1 JUMPDEST DUP2 SLOAD DUP2 MSTORE SWAP1 PUSH1 0x1 ADD SWAP1 PUSH1 0x20 ADD DUP1 DUP4 GT PUSH2 0x4D4 JUMPI DUP3 SWAP1 SUB PUSH1 0x1F AND DUP3 ADD SWAP2 JUMPDEST POP POP POP POP POP DUP2 MSTORE PUSH1 0x20 ADD PUSH1 0x6 DUP3 ADD SLOAD DUP2 MSTORE PUSH1 0x20 ADD PUSH1 0x7 DUP3 ADD SLOAD DUP2 MSTORE POP POP SWAP1 POP SWAP2 SWAP1 POP JUMP JUMPDEST CALLER PUSH1 0x0 SWAP1 DUP2 MSTORE PUSH1 0x6 PUSH1 0x20 MSTORE PUSH1 0x40 SWAP1 KECCAK256 SLOAD PUSH1 0xFF AND DUP1 PUSH2 0x53D JUMPI POP PUSH1 0x0 SLOAD PUSH1 0x1 PUSH1 0x1 PUSH1 0xA0 SHL SUB AND CALLER EQ JUMPDEST PUSH2 0x562 JUMPI PUSH1 0x40 MLOAD PUSH3 0x461BCD PUSH1 0xE5 SHL DUP2 MSTORE PUSH1 0x4 ADD PUSH2 0x559 SWAP1 PUSH2 0x1329 JUMP JUMPDEST PUSH1 0x40 MLOAD DUP1 SWAP2 SUB SWAP1 REVERT JUMPDEST PUSH1 0x0 DUP2 ISZERO DUP1 ISZERO PUSH2 0x571 JUMPI POP DUP3 TIMESTAMP GT JUMPDEST ISZERO PUSH2 0x591 JUMPI PUSH3 0x15180 PUSH2 0x584 DUP5 TIMESTAMP PUSH2 0x1367 JUMP JUMPDEST PUSH2 0x58E SWAP2 SWAP1 PUSH2 0x137A JUMP JUMPDEST SWAP1 POP JUMPDEST PUSH1 0x40 DUP1 MLOAD PUSH1 0xC0 DUP2 ADD DUP3 MSTORE DUP7 DUP2 MSTORE PUSH1 0x20 DUP1 DUP3 ADD DUP8 DUP2 MSTORE DUP3 DUP5 ADD DUP8 DUP2 MSTORE TIMESTAMP PUSH1 0x60 DUP6 ADD SWAP1 DUP2 MSTORE DUP8 ISZERO ISZERO PUSH1 0x80 DUP7 ADD SWAP1 DUP2 MSTORE PUSH1 0xFF DUP1 DUP10 AND PUSH1 0xA0 DUP9 ADD SWAP1 DUP2 MSTORE PUSH1 0x1 PUSH1 0x1 PUSH1 0xA0 SHL SUB DUP16 AND PUSH1 0x0 DUP2 DUP2 MSTORE PUSH1 0x3 DUP1 DUP11 MSTORE DUP12 DUP3 KECCAK256 DUP1 SLOAD PUSH1 0x1 DUP2 DUP2 ADD DUP4 SSTORE SWAP2 DUP5 MSTORE SWAP11 SWAP1 SWAP3 KECCAK256 DUP12 MLOAD PUSH1 0x5 SWAP1 SWAP12 MUL ADD SWAP10 DUP11 SSTORE SWAP8 MLOAD SWAP1 DUP10 ADD SSTORE SWAP5 MLOAD PUSH1 0x2 DUP9 ADD SSTORE SWAP3 MLOAD SWAP5 DUP7 ADD SWAP5 SWAP1 SWAP5 SSTORE MLOAD PUSH1 0x4 SWAP1 SWAP5 ADD DUP1 SLOAD SWAP2 MLOAD SWAP1 SWAP4 AND PUSH2 0x100 MUL PUSH2 0xFF00 NOT SWAP5 ISZERO ISZERO SWAP5 SWAP1 SWAP5 AND PUSH2 0xFFFF NOT SWAP1 SWAP2 AND OR SWAP3 SWAP1 SWAP3 OR SWAP1 SSTORE SWAP2 MLOAD SWAP1 SWAP2 DUP8 SWAP2 PUSH32 0x7EC7A3349A232406234930B08F6EA5472EE68B16335E356E72EC3993239A6564 SWAP1 PUSH2 0x67F SWAP1 DUP8 SWAP1 DUP8 SWAP1 SWAP2 ISZERO ISZERO DUP3 MSTORE PUSH1 0xFF AND PUSH1 0x20 DUP3 ADD MSTORE PUSH1 0x40 ADD SWAP1 JUMP JUMPDEST PUSH1 0x40 MLOAD DUP1 SWAP2 SUB SWAP1 LOG3 POP POP POP POP POP POP POP JUMP JUMPDEST PUSH1 0x1 PUSH1 0x1 PUSH1 0xA0 SHL SUB DUP2 AND PUSH1 0x0 SWAP1 DUP2 MSTORE PUSH1 0x2 PUSH1 0x20 MSTORE PUSH1 0x40 SWAP1 KECCAK256 PUSH1 0x4 ADD SLOAD PUSH1 0x60 SWAP1 PUSH2 0x320 DUP2 LT PUSH2 0x6DE JUMPI POP POP PUSH1 0x40 DUP1 MLOAD DUP1 DUP3 ADD SWAP1 SWAP2 MSTORE PUSH1 0x8 DUP2 MSTORE PUSH8 0x506C6174696E756D PUSH1 0xC0 SHL PUSH1 0x20 DUP3 ADD MSTORE SWAP2 SWAP1 POP JUMP JUMPDEST PUSH2 0x258 DUP2 LT PUSH2 0x709 JUMPI POP POP PUSH1 0x40 DUP1 MLOAD DUP1 DUP3 ADD SWAP1 SWAP2 MSTORE PUSH1 0x4 DUP2 MSTORE PUSH4 0x11DBDB19 PUSH1 0xE2 SHL PUSH1 0x20 DUP3 ADD MSTORE SWAP2 SWAP1 POP JUMP JUMPDEST PUSH2 0x190 DUP2 LT PUSH2 0x736 JUMPI POP POP PUSH1 0x40 DUP1 MLOAD DUP1 DUP3 ADD SWAP1 SWAP2 MSTORE PUSH1 0x6 DUP2 MSTORE PUSH6 0x29B4B63B32B9 PUSH1 0xD1 SHL PUSH1 0x20 DUP3 ADD MSTORE SWAP2 SWAP1 POP JUMP JUMPDEST POP POP PUSH1 0x40 DUP1 MLOAD DUP1 DUP3 ADD SWAP1 SWAP2 MSTORE PUSH1 0x6 DUP2 MSTORE PUSH6 0x42726F6E7A65 PUSH1 0xD0 SHL PUSH1 0x20 DUP3 ADD MSTORE SWAP2 SWAP1 POP JUMP JUMPDEST CALLER PUSH1 0x0 SWAP1 DUP2 MSTORE PUSH1 0x6 PUSH1 0x20 MSTORE PUSH1 0x40 SWAP1 KECCAK256 SLOAD PUSH1 0xFF AND DUP1 PUSH2 0x782 JUMPI POP PUSH1 0x0 SLOAD PUSH1 0x1 PUSH1 0x1 PUSH1 0xA0 SHL SUB AND CALLER EQ JUMPDEST PUSH2 0x79E JUMPI PUSH1 0x40 MLOAD PUSH3 0x461BCD PUSH1 0xE5 SHL DUP2 MSTORE PUSH1 0x4 ADD PUSH2 0x559 SWAP1 PUSH2 0x1329 JUMP JUMPDEST PUSH1 0x1 PUSH1 0x1 PUSH1 0xA0 SHL SUB DUP2 AND PUSH1 0x0 SWAP1 DUP2 MSTORE PUSH1 0x4 PUSH1 0x20 MSTORE PUSH1 0x40 DUP2 KECCAK256 SLOAD SWAP1 SUB PUSH2 0x7D9 JUMPI PUSH1 0x1 PUSH1 0x1 PUSH1 0xA0 SHL SUB DUP2 AND PUSH1 0x0 SWAP1 DUP2 MSTORE PUSH1 0x4 PUSH1 0x20 MSTORE PUSH1 0x40 SWAP1 KECCAK256 TIMESTAMP SWAP1 SSTORE JUMPDEST POP JUMP JUMPDEST CALLER PUSH1 0x0 SWAP1 DUP2 MSTORE PUSH1 0x6 PUSH1 0x20 MSTORE PUSH1 0x40 DUP2 KECCAK256 SLOAD PUSH1 0xFF AND DUP1 PUSH2 0x804 JUMPI POP PUSH1 0x0 SLOAD PUSH1 0x1 PUSH1 0x1 PUSH1 0xA0 SHL SUB AND CALLER EQ JUMPDEST PUSH2 0x820 JUMPI PUSH1 0x40 MLOAD PUSH3 0x461BCD PUSH1 0xE5 SHL DUP2 MSTORE PUSH1 0x4 ADD PUSH2 0x559 SWAP1 PUSH2 0x1329 JUMP JUMPDEST PUSH1 0x1 PUSH1 0x1 PUSH1 0xA0 SHL SUB DUP4 AND PUSH2 0x86D JUMPI PUSH1 0x40 MLOAD PUSH3 0x461BCD PUSH1 0xE5 SHL DUP2 MSTORE PUSH1 0x20 PUSH1 0x4 DUP3 ADD MSTORE PUSH1 0x14 PUSH1 0x24 DUP3 ADD MSTORE PUSH20 0x496E76616C696420757365722061646472657373 PUSH1 0x60 SHL PUSH1 0x44 DUP3 ADD MSTORE PUSH1 0x64 ADD PUSH2 0x559 JUMP JUMPDEST PUSH2 0x3E8 DUP3 GT ISZERO PUSH2 0x8BF JUMPI PUSH1 0x40 MLOAD PUSH3 0x461BCD PUSH1 0xE5 SHL DUP2 MSTORE PUSH1 0x20 PUSH1 0x4 DUP3 ADD MSTORE PUSH1 0x1A PUSH1 0x24 DUP3 ADD MSTORE PUSH32 0x426173652073636F72652065786365656473206D6178696D756D000000000000 PUSH1 0x44 DUP3 ADD MSTORE PUSH1 0x64 ADD PUSH2 0x559 JUMP JUMPDEST PUSH1 0x0 PUSH2 0x8CA DUP5 PUSH2 0xDC4 JUMP JUMPDEST SWAP1 POP PUSH1 0x0 PUSH2 0x8D7 DUP6 PUSH2 0xF44 JUMP JUMPDEST SWAP1 POP PUSH1 0x0 PUSH2 0x8E4 DUP7 PUSH2 0xFBC JUMP JUMPDEST SWAP1 POP DUP5 PUSH1 0x60 PUSH1 0x0 PUSH2 0x320 DUP4 LT PUSH2 0x91C JUMPI POP POP PUSH1 0x40 DUP1 MLOAD DUP1 DUP3 ADD SWAP1 SWAP2 MSTORE PUSH1 0x8 DUP2 MSTORE PUSH8 0x506C6174696E756D PUSH1 0xC0 SHL PUSH1 0x20 DUP3 ADD MSTORE PUSH1 0x5A PUSH2 0x99A JUMP JUMPDEST PUSH2 0x258 DUP4 LT PUSH2 0x949 JUMPI POP POP PUSH1 0x40 DUP1 MLOAD DUP1 DUP3 ADD SWAP1 SWAP2 MSTORE PUSH1 0x4 DUP2 MSTORE PUSH4 0x11DBDB19 PUSH1 0xE2 SHL PUSH1 0x20 DUP3 ADD MSTORE PUSH1 0x4B PUSH2 0x99A JUMP JUMPDEST PUSH2 0x190 DUP4 LT PUSH2 0x978 JUMPI POP POP PUSH1 0x40 DUP1 MLOAD DUP1 DUP3 ADD SWAP1 SWAP2 MSTORE PUSH1 0x6 DUP2 MSTORE PUSH6 0x29B4B63B32B9 PUSH1 0xD1 SHL PUSH1 0x20 DUP3 ADD MSTORE PUSH1 0x41 PUSH2 0x99A JUMP JUMPDEST POP POP PUSH1 0x40 DUP1 MLOAD DUP1 DUP3 ADD SWAP1 SWAP2 MSTORE PUSH1 0x6 DUP2 MSTORE PUSH6 0x42726F6E7A65 PUSH1 0xD0 SHL PUSH1 0x20 DUP3 ADD MSTORE PUSH1 0x32 JUMPDEST PUSH1 0x40 MLOAD DUP1 PUSH2 0x100 ADD PUSH1 0x40 MSTORE DUP1 DUP10 DUP2 MSTORE PUSH1 0x20 ADD DUP8 DUP2 MSTORE PUSH1 0x20 ADD DUP7 DUP2 MSTORE PUSH1 0x20 ADD DUP6 DUP2 MSTORE PUSH1 0x20 ADD DUP5 DUP2 MSTORE PUSH1 0x20 ADD DUP4 DUP2 MSTORE PUSH1 0x20 ADD DUP3 DUP2 MSTORE PUSH1 0x20 ADD TIMESTAMP DUP2 MSTORE POP PUSH1 0x2 PUSH1 0x0 DUP12 PUSH1 0x1 PUSH1 0x1 PUSH1 0xA0 SHL SUB AND PUSH1 0x1 PUSH1 0x1 PUSH1 0xA0 SHL SUB AND DUP2 MSTORE PUSH1 0x20 ADD SWAP1 DUP2 MSTORE PUSH1 0x20 ADD PUSH1 0x0 KECCAK256 PUSH1 0x0 DUP3 ADD MLOAD DUP2 PUSH1 0x0 ADD SSTORE PUSH1 0x20 DUP3 ADD MLOAD DUP2 PUSH1 0x1 ADD SSTORE PUSH1 0x40 DUP3 ADD MLOAD DUP2 PUSH1 0x2 ADD SSTORE PUSH1 0x60 DUP3 ADD MLOAD DUP2 PUSH1 0x3 ADD SSTORE PUSH1 0x80 DUP3 ADD MLOAD DUP2 PUSH1 0x4 ADD SSTORE PUSH1 0xA0 DUP3 ADD MLOAD DUP2 PUSH1 0x5 ADD SWAP1 DUP2 PUSH2 0xA40 SWAP2 SWAP1 PUSH2 0x1401 JUMP JUMPDEST POP PUSH1 0xC0 DUP3 ADD MLOAD PUSH1 0x6 DUP3 ADD SSTORE PUSH1 0xE0 SWAP1 SWAP2 ADD MLOAD PUSH1 0x7 SWAP1 SWAP2 ADD SSTORE PUSH1 0x40 DUP1 MLOAD DUP5 DUP2 MSTORE PUSH1 0x20 DUP2 ADD DUP11 SWAP1 MSTORE SWAP1 DUP2 ADD DUP8 SWAP1 MSTORE PUSH1 0x60 DUP2 ADD DUP7 SWAP1 MSTORE PUSH1 0x80 DUP2 ADD DUP6 SWAP1 MSTORE PUSH1 0x1 PUSH1 0x1 PUSH1 0xA0 SHL SUB DUP11 AND SWAP1 PUSH32 0xC812417344BFFD7FF1981B90E5CCB2843052EB0A7EE2F683E82BBCD6A0C3AA1D SWAP1 PUSH1 0xA0 ADD PUSH1 0x40 MLOAD DUP1 SWAP2 SUB SWAP1 LOG2 POP SWAP1 SWAP5 POP POP POP POP POP JUMPDEST SWAP3 SWAP2 POP POP JUMP JUMPDEST PUSH2 0xAC8 PUSH2 0xFE6 JUMP JUMPDEST PUSH2 0xAD2 PUSH1 0x0 PUSH2 0x1013 JUMP JUMPDEST JUMP JUMPDEST PUSH1 0x2 PUSH1 0x20 MSTORE DUP1 PUSH1 0x0 MSTORE PUSH1 0x40 PUSH1 0x0 KECCAK256 PUSH1 0x0 SWAP2 POP SWAP1 POP DUP1 PUSH1 0x0 ADD SLOAD SWAP1 DUP1 PUSH1 0x1 ADD SLOAD SWAP1 DUP1 PUSH1 0x2 ADD SLOAD SWAP1 DUP1 PUSH1 0x3 ADD SLOAD SWAP1 DUP1 PUSH1 0x4 ADD SLOAD SWAP1 DUP1 PUSH1 0x5 ADD DUP1 SLOAD PUSH2 0xB15 SWAP1 PUSH2 0x12EF JUMP JUMPDEST DUP1 PUSH1 0x1F ADD PUSH1 0x20 DUP1 SWAP2 DIV MUL PUSH1 0x20 ADD PUSH1 0x40 MLOAD SWAP1 DUP2 ADD PUSH1 0x40 MSTORE DUP1 SWAP3 SWAP2 SWAP1 DUP2 DUP2 MSTORE PUSH1 0x20 ADD DUP3 DUP1 SLOAD PUSH2 0xB41 SWAP1 PUSH2 0x12EF JUMP JUMPDEST DUP1 ISZERO PUSH2 0xB8E JUMPI DUP1 PUSH1 0x1F LT PUSH2 0xB63 JUMPI PUSH2 0x100 DUP1 DUP4 SLOAD DIV MUL DUP4 MSTORE SWAP2 PUSH1 0x20 ADD SWAP2 PUSH2 0xB8E JUMP JUMPDEST DUP3 ADD SWAP2 SWAP1 PUSH1 0x0 MSTORE PUSH1 0x20 PUSH1 0x0 KECCAK256 SWAP1 JUMPDEST DUP2 SLOAD DUP2 MSTORE SWAP1 PUSH1 0x1 ADD SWAP1 PUSH1 0x20 ADD DUP1 DUP4 GT PUSH2 0xB71 JUMPI DUP3 SWAP1 SUB PUSH1 0x1F AND DUP3 ADD SWAP2 JUMPDEST POP POP POP POP POP SWAP1 DUP1 PUSH1 0x6 ADD SLOAD SWAP1 DUP1 PUSH1 0x7 ADD SLOAD SWAP1 POP DUP9 JUMP JUMPDEST PUSH1 0x1 PUSH1 0x1 PUSH1 0xA0 SHL SUB DUP2 AND PUSH1 0x0 SWAP1 DUP2 MSTORE PUSH1 0x3 PUSH1 0x20 SWAP1 DUP2 MSTORE PUSH1 0x40 DUP1 DUP4 KECCAK256 DUP1 SLOAD DUP3 MLOAD DUP2 DUP6 MUL DUP2 ADD DUP6 ADD SWAP1 SWAP4 MSTORE DUP1 DUP4 MSTORE PUSH1 0x60 SWAP5 SWAP3 SWAP4 SWAP2 SWAP3 SWAP1 SWAP2 DUP5 ADD JUMPDEST DUP3 DUP3 LT ISZERO PUSH2 0xC4D JUMPI PUSH1 0x0 DUP5 DUP2 MSTORE PUSH1 0x20 SWAP1 DUP2 SWAP1 KECCAK256 PUSH1 0x40 DUP1 MLOAD PUSH1 0xC0 DUP2 ADD DUP3 MSTORE PUSH1 0x5 DUP7 MUL SWAP1 SWAP3 ADD DUP1 SLOAD DUP4 MSTORE PUSH1 0x1 DUP1 DUP3 ADD SLOAD DUP5 DUP7 ADD MSTORE PUSH1 0x2 DUP3 ADD SLOAD SWAP3 DUP5 ADD SWAP3 SWAP1 SWAP3 MSTORE PUSH1 0x3 DUP2 ADD SLOAD PUSH1 0x60 DUP5 ADD MSTORE PUSH1 0x4 ADD SLOAD PUSH1 0xFF DUP1 DUP3 AND ISZERO ISZERO PUSH1 0x80 DUP6 ADD MSTORE PUSH2 0x100 SWAP1 SWAP2 DIV AND PUSH1 0xA0 DUP4 ADD MSTORE SWAP1 DUP4 MSTORE SWAP1 SWAP3 ADD SWAP2 ADD PUSH2 0xBDC JUMP JUMPDEST POP POP POP POP SWAP1 POP SWAP2 SWAP1 POP JUMP JUMPDEST PUSH2 0xC60 PUSH2 0xFE6 JUMP JUMPDEST PUSH1 0x1 PUSH1 0x1 PUSH1 0xA0 SHL SUB DUP3 AND PUSH1 0x0 DUP2 DUP2 MSTORE PUSH1 0x6 PUSH1 0x20 SWAP1 DUP2 MSTORE PUSH1 0x40 SWAP2 DUP3 SWAP1 KECCAK256 DUP1 SLOAD PUSH1 0xFF NOT AND DUP6 ISZERO ISZERO SWAP1 DUP2 OR SWAP1 SWAP2 SSTORE SWAP2 MLOAD SWAP2 DUP3 MSTORE PUSH32 0xB820FE6CF998498FF3199CAB21FB6482C7A422CBDF4EA7E8F1D390405889985 SWAP2 ADD PUSH1 0x40 MLOAD DUP1 SWAP2 SUB SWAP1 LOG2 POP POP JUMP JUMPDEST PUSH1 0x3 PUSH1 0x20 MSTORE DUP2 PUSH1 0x0 MSTORE PUSH1 0x40 PUSH1 0x0 KECCAK256 DUP2 DUP2 SLOAD DUP2 LT PUSH2 0xCDB JUMPI PUSH1 0x0 DUP1 REVERT JUMPDEST PUSH1 0x0 SWAP2 DUP3 MSTORE PUSH1 0x20 SWAP1 SWAP2 KECCAK256 PUSH1 0x5 SWAP1 SWAP2 MUL ADD DUP1 SLOAD PUSH1 0x1 DUP3 ADD SLOAD PUSH1 0x2 DUP4 ADD SLOAD PUSH1 0x3 DUP5 ADD SLOAD PUSH1 0x4 SWAP1 SWAP5 ADD SLOAD SWAP3 SWAP6 POP SWAP1 SWAP4 POP SWAP2 SWAP1 PUSH1 0xFF DUP1 DUP3 AND SWAP2 PUSH2 0x100 SWAP1 DIV AND DUP7 JUMP JUMPDEST CALLER PUSH1 0x0 SWAP1 DUP2 MSTORE PUSH1 0x6 PUSH1 0x20 MSTORE PUSH1 0x40 SWAP1 KECCAK256 SLOAD PUSH1 0xFF AND DUP1 PUSH2 0xD41 JUMPI POP PUSH1 0x0 SLOAD PUSH1 0x1 PUSH1 0x1 PUSH1 0xA0 SHL SUB AND CALLER EQ JUMPDEST PUSH2 0xD5D JUMPI PUSH1 0x40 MLOAD PUSH3 0x461BCD PUSH1 0xE5 SHL DUP2 MSTORE PUSH1 0x4 ADD PUSH2 0x559 SWAP1 PUSH2 0x1329 JUMP JUMPDEST PUSH1 0x1 PUSH1 0x1 PUSH1 0xA0 SHL SUB DUP2 AND PUSH1 0x0 SWAP1 DUP2 MSTORE PUSH1 0x5 PUSH1 0x20 MSTORE PUSH1 0x40 DUP2 KECCAK256 DUP1 SLOAD SWAP2 PUSH2 0xD81 DUP4 PUSH2 0x14C1 JUMP JUMPDEST SWAP2 SWAP1 POP SSTORE POP POP JUMP JUMPDEST PUSH2 0xD91 PUSH2 0xFE6 JUMP JUMPDEST PUSH1 0x1 PUSH1 0x1 PUSH1 0xA0 SHL SUB DUP2 AND PUSH2 0xDBB JUMPI PUSH1 0x40 MLOAD PUSH4 0x1E4FBDF7 PUSH1 0xE0 SHL DUP2 MSTORE PUSH1 0x0 PUSH1 0x4 DUP3 ADD MSTORE PUSH1 0x24 ADD PUSH2 0x559 JUMP JUMPDEST PUSH2 0x7D9 DUP2 PUSH2 0x1013 JUMP JUMPDEST PUSH1 0x1 PUSH1 0x1 PUSH1 0xA0 SHL SUB DUP2 AND PUSH1 0x0 SWAP1 DUP2 MSTORE PUSH1 0x3 PUSH1 0x20 SWAP1 DUP2 MSTORE PUSH1 0x40 DUP1 DUP4 KECCAK256 DUP1 SLOAD DUP3 MLOAD DUP2 DUP6 MUL DUP2 ADD DUP6 ADD SWAP1 SWAP4 MSTORE DUP1 DUP4 MSTORE DUP5 SWAP4 DUP5 SWAP1 DUP5 ADD JUMPDEST DUP3 DUP3 LT ISZERO PUSH2 0xE68 JUMPI PUSH1 0x0 DUP5 DUP2 MSTORE PUSH1 0x20 SWAP1 DUP2 SWAP1 KECCAK256 PUSH1 0x40 DUP1 MLOAD PUSH1 0xC0 DUP2 ADD DUP3 MSTORE PUSH1 0x5 DUP7 MUL SWAP1 SWAP3 ADD DUP1 SLOAD DUP4 MSTORE PUSH1 0x1 DUP1 DUP3 ADD SLOAD DUP5 DUP7 ADD MSTORE PUSH1 0x2 DUP3 ADD SLOAD SWAP3 DUP5 ADD SWAP3 SWAP1 SWAP3 MSTORE PUSH1 0x3 DUP2 ADD SLOAD PUSH1 0x60 DUP5 ADD MSTORE PUSH1 0x4 ADD SLOAD PUSH1 0xFF DUP1 DUP3 AND ISZERO ISZERO PUSH1 0x80 DUP6 ADD MSTORE PUSH2 0x100 SWAP1 SWAP2 DIV AND PUSH1 0xA0 DUP4 ADD MSTORE SWAP1 DUP4 MSTORE SWAP1 SWAP3 ADD SWAP2 ADD PUSH2 0xDF7 JUMP JUMPDEST POP POP POP POP SWAP1 POP DUP1 MLOAD PUSH1 0x0 SUB PUSH2 0xE80 JUMPI POP PUSH1 0x64 SWAP3 SWAP2 POP POP JUMP JUMPDEST PUSH1 0x0 PUSH1 0xC DUP3 MLOAD GT PUSH2 0xE92 JUMPI DUP2 MLOAD PUSH2 0xE95 JUMP JUMPDEST PUSH1 0xC JUMPDEST SWAP1 POP PUSH1 0x0 DUP1 DUP3 DUP5 MLOAD PUSH2 0xEA7 SWAP2 SWAP1 PUSH2 0x1367 JUMP JUMPDEST SWAP1 POP DUP1 JUMPDEST DUP5 MLOAD DUP2 LT ISZERO PUSH2 0xEF7 JUMPI DUP5 DUP2 DUP2 MLOAD DUP2 LT PUSH2 0xEC6 JUMPI PUSH2 0xEC6 PUSH2 0x14DA JUMP JUMPDEST PUSH1 0x20 MUL PUSH1 0x20 ADD ADD MLOAD PUSH1 0x80 ADD MLOAD ISZERO PUSH2 0xEE5 JUMPI DUP3 PUSH2 0xEE1 DUP2 PUSH2 0x14C1 JUMP JUMPDEST SWAP4 POP POP JUMPDEST DUP1 PUSH2 0xEEF DUP2 PUSH2 0x14C1 JUMP JUMPDEST SWAP2 POP POP PUSH2 0xEAB JUMP JUMPDEST POP PUSH1 0x0 DUP4 PUSH2 0xF06 DUP5 PUSH1 0x64 PUSH2 0x14F0 JUMP JUMPDEST PUSH2 0xF10 SWAP2 SWAP1 PUSH2 0x137A JUMP JUMPDEST SWAP1 POP PUSH1 0x0 PUSH1 0x64 PUSH2 0xF21 DUP4 PUSH1 0xC8 PUSH2 0x14F0 JUMP JUMPDEST PUSH2 0xF2B SWAP2 SWAP1 PUSH2 0x137A JUMP JUMPDEST SWAP1 POP DUP2 PUSH1 0x64 SUB PUSH2 0xF39 JUMPI POP PUSH1 0xC8 JUMPDEST SWAP8 SWAP7 POP POP POP POP POP POP POP JUMP JUMPDEST PUSH1 0x1 PUSH1 0x1 PUSH1 0xA0 SHL SUB DUP2 AND PUSH1 0x0 SWAP1 DUP2 MSTORE PUSH1 0x4 PUSH1 0x20 MSTORE PUSH1 0x40 DUP2 KECCAK256 SLOAD DUP1 DUP3 SUB PUSH2 0xF6D JUMPI POP PUSH1 0x0 SWAP3 SWAP2 POP POP JUMP JUMPDEST PUSH1 0x0 PUSH3 0x15180 PUSH2 0xF7D DUP4 TIMESTAMP PUSH2 0x1367 JUMP JUMPDEST PUSH2 0xF87 SWAP2 SWAP1 PUSH2 0x137A JUMP JUMPDEST SWAP1 POP PUSH2 0x2DA DUP2 LT PUSH2 0xF9C JUMPI POP PUSH1 0x64 SWAP4 SWAP3 POP POP POP JUMP JUMPDEST PUSH2 0x2DA PUSH2 0xFAA DUP3 PUSH1 0x64 PUSH2 0x14F0 JUMP JUMPDEST PUSH2 0xFB4 SWAP2 SWAP1 PUSH2 0x137A JUMP JUMPDEST SWAP5 SWAP4 POP POP POP POP JUMP JUMPDEST PUSH1 0x1 PUSH1 0x1 PUSH1 0xA0 SHL SUB DUP2 AND PUSH1 0x0 SWAP1 DUP2 MSTORE PUSH1 0x5 PUSH1 0x20 MSTORE PUSH1 0x40 DUP2 KECCAK256 SLOAD PUSH1 0x64 DUP2 LT PUSH2 0xABA JUMPI POP PUSH1 0x64 SWAP3 SWAP2 POP POP JUMP JUMPDEST PUSH1 0x0 SLOAD PUSH1 0x1 PUSH1 0x1 PUSH1 0xA0 SHL SUB AND CALLER EQ PUSH2 0xAD2 JUMPI PUSH1 0x40 MLOAD PUSH4 0x118CDAA7 PUSH1 0xE0 SHL DUP2 MSTORE CALLER PUSH1 0x4 DUP3 ADD MSTORE PUSH1 0x24 ADD PUSH2 0x559 JUMP JUMPDEST PUSH1 0x0 DUP1 SLOAD PUSH1 0x1 PUSH1 0x1 PUSH1 0xA0 SHL SUB DUP4 DUP2 AND PUSH1 0x1 PUSH1 0x1 PUSH1 0xA0 SHL SUB NOT DUP4 AND DUP2 OR DUP5 SSTORE PUSH1 0x40 MLOAD SWAP2 SWAP1 SWAP3 AND SWAP3 DUP4 SWAP2 PUSH32 0x8BE0079C531659141344CD1FD0A4F28419497F9722A3DAAFE3B4186F6B6457E0 SWAP2 SWAP1 LOG3 POP POP JUMP JUMPDEST DUP1 CALLDATALOAD PUSH1 0x1 PUSH1 0x1 PUSH1 0xA0 SHL SUB DUP2 AND DUP2 EQ PUSH2 0x107A JUMPI PUSH1 0x0 DUP1 REVERT JUMPDEST SWAP2 SWAP1 POP JUMP JUMPDEST PUSH1 0x0 PUSH1 0x20 DUP3 DUP5 SUB SLT ISZERO PUSH2 0x1091 JUMPI PUSH1 0x0 DUP1 REVERT JUMPDEST PUSH2 0x109A DUP3 PUSH2 0x1063 JUMP JUMPDEST SWAP4 SWAP3 POP POP POP JUMP JUMPDEST PUSH1 0x0 DUP2 MLOAD DUP1 DUP5 MSTORE PUSH1 0x0 JUMPDEST DUP2 DUP2 LT ISZERO PUSH2 0x10C7 JUMPI PUSH1 0x20 DUP2 DUP6 ADD DUP2 ADD MLOAD DUP7 DUP4 ADD DUP3 ADD MSTORE ADD PUSH2 0x10AB JUMP JUMPDEST POP PUSH1 0x0 PUSH1 0x20 DUP3 DUP7 ADD ADD MSTORE PUSH1 0x20 PUSH1 0x1F NOT PUSH1 0x1F DUP4 ADD AND DUP6 ADD ADD SWAP2 POP POP SWAP3 SWAP2 POP POP JUMP JUMPDEST PUSH1 0x20 DUP2 MSTORE DUP2 MLOAD PUSH1 0x20 DUP3 ADD MSTORE PUSH1 0x20 DUP3 ADD MLOAD PUSH1 0x40 DUP3 ADD MSTORE PUSH1 0x40 DUP3 ADD MLOAD PUSH1 0x60 DUP3 ADD MSTORE PUSH1 0x60 DUP3 ADD MLOAD PUSH1 0x80 DUP3 ADD MSTORE PUSH1 0x80 DUP3 ADD MLOAD PUSH1 0xA0 DUP3 ADD MSTORE PUSH1 0x0 PUSH1 0xA0 DUP4 ADD MLOAD PUSH2 0x100 DUP1 PUSH1 0xC0 DUP6 ADD MSTORE PUSH2 0x1138 PUSH2 0x120 DUP6 ADD DUP4 PUSH2 0x10A1 JUMP JUMPDEST SWAP2 POP PUSH1 0xC0 DUP6 ADD MLOAD PUSH1 0xE0 DUP6 ADD MSTORE PUSH1 0xE0 DUP6 ADD MLOAD DUP2 DUP6 ADD MSTORE POP DUP1 SWAP2 POP POP SWAP3 SWAP2 POP POP JUMP JUMPDEST DUP1 CALLDATALOAD DUP1 ISZERO ISZERO DUP2 EQ PUSH2 0x107A JUMPI PUSH1 0x0 DUP1 REVERT JUMPDEST PUSH1 0x0 DUP1 PUSH1 0x0 DUP1 PUSH1 0x0 PUSH1 0xA0 DUP7 DUP9 SUB SLT ISZERO PUSH2 0x1180 JUMPI PUSH1 0x0 DUP1 REVERT JUMPDEST PUSH2 0x1189 DUP7 PUSH2 0x1063 JUMP JUMPDEST SWAP5 POP PUSH1 0x20 DUP7 ADD CALLDATALOAD SWAP4 POP PUSH1 0x40 DUP7 ADD CALLDATALOAD SWAP3 POP PUSH1 0x60 DUP7 ADD CALLDATALOAD SWAP2 POP PUSH2 0x11AC PUSH1 0x80 DUP8 ADD PUSH2 0x1158 JUMP JUMPDEST SWAP1 POP SWAP3 SWAP6 POP SWAP3 SWAP6 SWAP1 SWAP4 POP JUMP JUMPDEST PUSH1 0x20 DUP2 MSTORE PUSH1 0x0 PUSH2 0x109A PUSH1 0x20 DUP4 ADD DUP5 PUSH2 0x10A1 JUMP JUMPDEST PUSH1 0x0 DUP1 PUSH1 0x40 DUP4 DUP6 SUB SLT ISZERO PUSH2 0x11DE JUMPI PUSH1 0x0 DUP1 REVERT JUMPDEST PUSH2 0x11E7 DUP4 PUSH2 0x1063 JUMP JUMPDEST SWAP5 PUSH1 0x20 SWAP4 SWAP1 SWAP4 ADD CALLDATALOAD SWAP4 POP POP POP JUMP JUMPDEST PUSH1 0x0 PUSH2 0x100 DUP11 DUP4 MSTORE DUP10 PUSH1 0x20 DUP5 ADD MSTORE DUP9 PUSH1 0x40 DUP5 ADD MSTORE DUP8 PUSH1 0x60 DUP5 ADD MSTORE DUP7 PUSH1 0x80 DUP5 ADD MSTORE DUP1 PUSH1 0xA0 DUP5 ADD MSTORE PUSH2 0x1227 DUP2 DUP5 ADD DUP8 PUSH2 0x10A1 JUMP JUMPDEST PUSH1 0xC0 DUP5 ADD SWAP6 SWAP1 SWAP6 MSTORE POP POP PUSH1 0xE0 ADD MSTORE SWAP7 SWAP6 POP POP POP POP POP POP JUMP JUMPDEST PUSH1 0x20 DUP1 DUP3 MSTORE DUP3 MLOAD DUP3 DUP3 ADD DUP2 SWAP1 MSTORE PUSH1 0x0 SWAP2 SWAP1 PUSH1 0x40 SWAP1 DUP2 DUP6 ADD SWAP1 DUP7 DUP5 ADD DUP6 JUMPDEST DUP3 DUP2 LT ISZERO PUSH2 0x12AF JUMPI DUP2 MLOAD DUP1 MLOAD DUP6 MSTORE DUP7 DUP2 ADD MLOAD DUP8 DUP7 ADD MSTORE DUP6 DUP2 ADD MLOAD DUP7 DUP7 ADD MSTORE PUSH1 0x60 DUP1 DUP3 ADD MLOAD SWAP1 DUP7 ADD MSTORE PUSH1 0x80 DUP1 DUP3 ADD MLOAD ISZERO ISZERO SWAP1 DUP7 ADD MSTORE PUSH1 0xA0 SWAP1 DUP2 ADD MLOAD PUSH1 0xFF AND SWAP1 DUP6 ADD MSTORE PUSH1 0xC0 SWAP1 SWAP4 ADD SWAP3 SWAP1 DUP6 ADD SWAP1 PUSH1 0x1 ADD PUSH2 0x125C JUMP JUMPDEST POP SWAP2 SWAP8 SWAP7 POP POP POP POP POP POP POP JUMP JUMPDEST PUSH1 0x0 DUP1 PUSH1 0x40 DUP4 DUP6 SUB SLT ISZERO PUSH2 0x12CF JUMPI PUSH1 0x0 DUP1 REVERT JUMPDEST PUSH2 0x12D8 DUP4 PUSH2 0x1063 JUMP JUMPDEST SWAP2 POP PUSH2 0x12E6 PUSH1 0x20 DUP5 ADD PUSH2 0x1158 JUMP JUMPDEST SWAP1 POP SWAP3 POP SWAP3 SWAP1 POP JUMP JUMPDEST PUSH1 0x1 DUP2 DUP2 SHR SWAP1 DUP3 AND DUP1 PUSH2 0x1303 JUMPI PUSH1 0x7F DUP3 AND SWAP2 POP JUMPDEST PUSH1 0x20 DUP3 LT DUP2 SUB PUSH2 0x1323 JUMPI PUSH4 0x4E487B71 PUSH1 0xE0 SHL PUSH1 0x0 MSTORE PUSH1 0x22 PUSH1 0x4 MSTORE PUSH1 0x24 PUSH1 0x0 REVERT JUMPDEST POP SWAP2 SWAP1 POP JUMP JUMPDEST PUSH1 0x20 DUP1 DUP3 MSTORE PUSH1 0xE SWAP1 DUP3 ADD MSTORE PUSH14 0x139BDD08185D5D1A1BDC9A5E9959 PUSH1 0x92 SHL PUSH1 0x40 DUP3 ADD MSTORE PUSH1 0x60 ADD SWAP1 JUMP JUMPDEST PUSH4 0x4E487B71 PUSH1 0xE0 SHL PUSH1 0x0 MSTORE PUSH1 0x11 PUSH1 0x4 MSTORE PUSH1 0x24 PUSH1 0x0 REVERT JUMPDEST DUP2 DUP2 SUB DUP2 DUP2 GT ISZERO PUSH2 0xABA JUMPI PUSH2 0xABA PUSH2 0x1351 JUMP JUMPDEST PUSH1 0x0 DUP3 PUSH2 0x1397 JUMPI PUSH4 0x4E487B71 PUSH1 0xE0 SHL PUSH1 0x0 MSTORE PUSH1 0x12 PUSH1 0x4 MSTORE PUSH1 0x24 PUSH1 0x0 REVERT JUMPDEST POP DIV SWAP1 JUMP JUMPDEST PUSH4 0x4E487B71 PUSH1 0xE0 SHL PUSH1 0x0 MSTORE PUSH1 0x41 PUSH1 0x4 MSTORE PUSH1 0x24 PUSH1 0x0 REVERT JUMPDEST PUSH1 0x1F DUP3 GT ISZERO PUSH2 0x13FC JUMPI PUSH1 0x0 DUP2 DUP2 MSTORE PUSH1 0x20 DUP2 KECCAK256 PUSH1 0x1F DUP6 ADD PUSH1 0x5 SHR DUP2 ADD PUSH1 0x20 DUP7 LT ISZERO PUSH2 0x13D9 JUMPI POP DUP1 JUMPDEST PUSH1 0x1F DUP6 ADD PUSH1 0x5 SHR DUP3 ADD SWAP2 POP JUMPDEST DUP2 DUP2 LT ISZERO PUSH2 0x13F8 JUMPI DUP3 DUP2 SSTORE PUSH1 0x1 ADD PUSH2 0x13E5 JUMP JUMPDEST POP POP POP JUMPDEST POP POP POP JUMP JUMPDEST DUP2 MLOAD PUSH8 0xFFFFFFFFFFFFFFFF DUP2 GT ISZERO PUSH2 0x141B JUMPI PUSH2 0x141B PUSH2 0x139C JUMP JUMPDEST PUSH2 0x142F DUP2 PUSH2 0x1429 DUP5 SLOAD PUSH2 0x12EF JUMP JUMPDEST DUP5 PUSH2 0x13B2 JUMP JUMPDEST PUSH1 0x20 DUP1 PUSH1 0x1F DUP4 GT PUSH1 0x1 DUP2 EQ PUSH2 0x1464 JUMPI PUSH1 0x0 DUP5 ISZERO PUSH2 0x144C JUMPI POP DUP6 DUP4 ADD MLOAD JUMPDEST PUSH1 0x0 NOT PUSH1 0x3 DUP7 SWAP1 SHL SHR NOT AND PUSH1 0x1 DUP6 SWAP1 SHL OR DUP6 SSTORE PUSH2 0x13F8 JUMP JUMPDEST PUSH1 0x0 DUP6 DUP2 MSTORE PUSH1 0x20 DUP2 KECCAK256 PUSH1 0x1F NOT DUP7 AND SWAP2 JUMPDEST DUP3 DUP2 LT ISZERO PUSH2 0x1493 JUMPI DUP9 DUP7 ADD MLOAD DUP3 SSTORE SWAP5 DUP5 ADD SWAP5 PUSH1 0x1 SWAP1 SWAP2 ADD SWAP1 DUP5 ADD PUSH2 0x1474 JUMP JUMPDEST POP DUP6 DUP3 LT ISZERO PUSH2 0x14B1 JUMPI DUP8 DUP6 ADD MLOAD PUSH1 0x0 NOT PUSH1 0x3 DUP9 SWAP1 SHL PUSH1 0xF8 AND SHR NOT AND DUP2 SSTORE JUMPDEST POP POP POP POP POP PUSH1 0x1 SWAP1 DUP2 SHL ADD SWAP1 SSTORE POP JUMP JUMPDEST PUSH1 0x0 PUSH1 0x1 DUP3 ADD PUSH2 0x14D3 JUMPI PUSH2 0x14D3 PUSH2 0x1351 JUMP JUMPDEST POP PUSH1 0x1 ADD SWAP1 JUMP JUMPDEST PUSH4 0x4E487B71 PUSH1 0xE0 SHL PUSH1 0x0 MSTORE PUSH1 0x32 PUSH1 0x4 MSTORE PUSH1 0x24 PUSH1 0x0 REVERT JUMPDEST DUP1 DUP3 MUL DUP2 ISZERO DUP3 DUP3 DIV DUP5 EQ OR PUSH2 0xABA JUMPI PUSH2 0xABA PUSH2 0x1351 JUMP INVALID LOG2 PUSH5 0x6970667358 0x22 SLT KECCAK256 0xF7 0x1E XOR 0xC 0xB5 0x22 0xE9 0xB4 BYTE PUSH16 0x73652DE3C405919CC177B175E626BBAF 0xA9 0x1F 0xB8 0x2A SWAP8 PUSH25 0x64736F6C634300081400330000000000000000000000000000 "},"methodIdentifiers":{"BASE_WEIGHT()":"e16fd0ec","PAYMENT_WEIGHT()":"844f0cac","PROTOCOL_WEIGHT()":"8ee05bea","WALLET_AGE_WEIGHT()":"c0b1ecd4","authorizedUpdaters(address)":"8ff29cfe","calculateScore(address,uint256)":"69a264d8","getCreditTier(address)":"61075f8e","getDynamicLTV(address)":"119c5bab","getPaymentHistory(address)":"7da2ba7c","getScoreBreakdown(address)":"2c27750a","incrementProtocolInteractions(address)":"d4b10498","owner()":"8da5cb5b","paymentHistory(address,uint256)":"cc38b477","protocolInteractions(address)":"d46b1ab0","recordPayment(address,uint256,uint256,uint256,bool)":"4e9ef739","recordWalletCreation(address)":"669023cd","renounceOwnership()":"715018a6","scores(address)":"76dd110f","setAuthorizedUpdater(address,bool)":"99fc65d4","transferOwnership(address)":"f2fde38b","walletCreationTime(address)":"d7a69466"}}}}}