{"contracts/LendingPoolV1.sol":{"LendingPoolV1":{"abi":[{"inputs":[{"internalType":"address","name":"_creditRegistry","type":"address"},{"internalType":"address","name":"_treasury","type":"address"}],"stateMutability":"nonpayable","type":"constructor"},{"inputs":[],"name":"AssetNotEnabled","type":"error"},{"inputs":[],"name":"ExceedsMaxLTV","type":"error"},{"inputs":[],"name":"HealthFactorTooLow","type":"error"},{"inputs":[],"name":"InsufficientLiquidity","type":"error"},{"inputs":[],"name":"InvalidAmount","type":"error"},{"inputs":[],"name":"InvalidCreditScore","type":"error"},{"inputs":[],"name":"NoDebtToRepay","type":"error"},{"inputs":[{"internalType":"address","name":"owner","type":"address"}],"name":"OwnableInvalidOwner","type":"error"},{"inputs":[{"internalType":"address","name":"account","type":"address"}],"name":"OwnableUnauthorizedAccount","type":"error"},{"inputs":[],"name":"PositionHealthy","type":"error"},{"inputs":[],"name":"ReentrancyGuardReentrantCall","type":"error"},{"inputs":[{"internalType":"address","name":"token","type":"address"}],"name":"SafeERC20FailedOperation","type":"error"},{"anonymous":false,"inputs":[{"indexed":true,"internalType":"address","name":"asset","type":"address"},{"indexed":false,"internalType":"bool","name":"collateral","type":"bool"},{"indexed":false,"internalType":"bool","name":"borrowable","type":"bool"}],"name":"AssetEnabled","type":"event"},{"anonymous":false,"inputs":[{"indexed":true,"internalType":"address","name":"user","type":"address"},{"indexed":false,"internalType":"address","name":"borrowAsset","type":"address"},{"indexed":false,"internalType":"address","name":"collateralAsset","type":"address"},{"indexed":false,"internalType":"uint256","name":"borrowAmount","type":"uint256"},{"indexed":false,"internalType":"uint256","name":"collateralAmount","type":"uint256"}],"name":"Borrow","type":"event"},{"anonymous":false,"inputs":[{"indexed":true,"internalType":"address","name":"lp","type":"address"},{"indexed":true,"internalType":"address","name":"asset","type":"address"},{"indexed":false,"internalType":"uint256","name":"amount","type":"uint256"}],"name":"Deposit","type":"event"},{"anonymous":false,"inputs":[{"indexed":true,"internalType":"address","name":"user","type":"address"},{"indexed":true,"internalType":"address","name":"asset","type":"address"},{"indexed":false,"internalType":"uint256","name":"interestAmount","type":"uint256"}],"name":"InterestAccrued","type":"event"},{"anonymous":false,"inputs":[{"indexed":true,"internalType":"address","name":"user","type":"address"},{"indexed":true,"internalType":"address","name":"liquidator","type":"address"},{"indexed":false,"internalType":"uint256","name":"debtRepaid","type":"uint256"},{"indexed":false,"internalType":"uint256","name":"collateralSeized","type":"uint256"}],"name":"Liquidate","type":"event"},{"anonymous":false,"inputs":[{"indexed":true,"internalType":"address","name":"previousOwner","type":"address"},{"indexed":true,"internalType":"address","name":"newOwner","type":"address"}],"name":"OwnershipTransferred","type":"event"},{"anonymous":false,"inputs":[{"indexed":true,"internalType":"address","name":"user","type":"address"},{"indexed":true,"internalType":"address","name":"asset","type":"address"},{"indexed":false,"internalType":"uint256","name":"amount","type":"uint256"}],"name":"Repay","type":"event"},{"anonymous":false,"inputs":[{"indexed":true,"internalType":"address","name":"lp","type":"address"},{"indexed":true,"internalType":"address","name":"asset","type":"address"},{"indexed":false,"internalType":"uint256","name":"amount","type":"uint256"}],"name":"Withdraw","type":"event"},{"inputs":[],"name":"BASE_RATE","outputs":[{"internalType":"uint256","name":"","type":"uint256"}],"stateMutability":"view","type":"function"},{"inputs":[],"name":"BRONZE_LTV","outputs":[{"internalType":"uint256","name":"","type":"uint256"}],"stateMutability":"view","type":"function"},{"inputs":[],"name":"BRONZE_PREMIUM","outputs":[{"internalType":"uint256","name":"","type":"uint256"}],"stateMutability":"view","type":"function"},{"inputs":[],"name":"GOLD_LTV","outputs":[{"internalType":"uint256","name":"","type":"uint256"}],"stateMutability":"view","type":"function"},{"inputs":[],"name":"GOLD_PREMIUM","outputs":[{"internalType":"uint256","name":"","type":"uint256"}],"stateMutability":"view","type":"function"},{"inputs":[],"name":"MIN_HEALTH_FACTOR","outputs":[{"internalType":"uint256","name":"","type":"uint256"}],"stateMutability":"view","type":"function"},{"inputs":[],"name":"OPTIMAL_UTILIZATION","outputs":[{"internalType":"uint256","name":"","type":"uint256"}],"stateMutability":"view","type":"function"},{"inputs":[],"name":"PLATINUM_LTV","outputs":[{"internalType":"uint256","name":"","type":"uint256"}],"stateMutability":"view","type":"function"},{"inputs":[],"name":"PLATINUM_PREMIUM","outputs":[{"internalType":"uint256","name":"","type":"uint256"}],"stateMutability":"view","type":"function"},{"inputs":[],"name":"SILVER_LTV","outputs":[{"internalType":"uint256","name":"","type":"uint256"}],"stateMutability":"view","type":"function"},{"inputs":[],"name":"SILVER_PREMIUM","outputs":[{"internalType":"uint256","name":"","type":"uint256"}],"stateMutability":"view","type":"function"},{"inputs":[],"name":"SLOPE_1","outputs":[{"internalType":"uint256","name":"","type":"uint256"}],"stateMutability":"view","type":"function"},{"inputs":[],"name":"SLOPE_2","outputs":[{"internalType":"uint256","name":"","type":"uint256"}],"stateMutability":"view","type":"function"},{"inputs":[{"internalType":"address","name":"","type":"address"}],"name":"assetConfigs","outputs":[{"internalType":"bool","name":"enabled","type":"bool"},{"internalType":"uint256","name":"totalDeposited","type":"uint256"},{"internalType":"uint256","name":"totalBorrowed","type":"uint256"},{"internalType":"uint256","name":"utilizationRate","type":"uint256"},{"internalType":"uint256","name":"borrowRate","type":"uint256"},{"internalType":"uint256","name":"supplyRate","type":"uint256"}],"stateMutability":"view","type":"function"},{"inputs":[{"internalType":"address","name":"borrowAsset","type":"address"},{"internalType":"address","name":"collateralAsset","type":"address"},{"internalType":"uint256","name":"borrowAmount","type":"uint256"},{"internalType":"uint256","name":"collateralAmount","type":"uint256"}],"name":"borrow","outputs":[],"stateMutability":"nonpayable","type":"function"},{"inputs":[],"name":"creditRegistry","outputs":[{"internalType":"contract CreditRegistryV1_1","name":"","type":"address"}],"stateMutability":"view","type":"function"},{"inputs":[{"internalType":"address","name":"asset","type":"address"},{"internalType":"uint256","name":"amount","type":"uint256"}],"name":"deposit","outputs":[],"stateMutability":"nonpayable","type":"function"},{"inputs":[{"internalType":"address","name":"asset","type":"address"},{"internalType":"bool","name":"collateral","type":"bool"},{"internalType":"bool","name":"borrowable","type":"bool"}],"name":"enableAsset","outputs":[],"stateMutability":"nonpayable","type":"function"},{"inputs":[{"internalType":"address","name":"asset","type":"address"}],"name":"getAssetConfig","outputs":[{"components":[{"internalType":"bool","name":"enabled","type":"bool"},{"internalType":"uint256","name":"totalDeposited","type":"uint256"},{"internalType":"uint256","name":"totalBorrowed","type":"uint256"},{"internalType":"uint256","name":"utilizationRate","type":"uint256"},{"internalType":"uint256","name":"borrowRate","type":"uint256"},{"internalType":"uint256","name":"supplyRate","type":"uint256"}],"internalType":"struct LendingPoolV1.AssetConfig","name":"","type":"tuple"}],"stateMutability":"view","type":"function"},{"inputs":[{"internalType":"address","name":"user","type":"address"},{"internalType":"address","name":"asset","type":"address"}],"name":"getBorrowRate","outputs":[{"internalType":"uint256","name":"","type":"uint256"}],"stateMutability":"view","type":"function"},{"inputs":[{"internalType":"address","name":"user","type":"address"},{"internalType":"address","name":"asset","type":"address"}],"name":"getPosition","outputs":[{"components":[{"internalType":"uint256","name":"collateralAmount","type":"uint256"},{"internalType":"uint256","name":"borrowedAmount","type":"uint256"},{"internalType":"address","name":"collateralAsset","type":"address"},{"internalType":"uint256","name":"lastAccrualTimestamp","type":"uint256"},{"internalType":"uint256","name":"healthFactor","type":"uint256"},{"internalType":"uint8","name":"creditTier","type":"uint8"}],"internalType":"struct LendingPoolV1.UserPosition","name":"","type":"tuple"}],"stateMutability":"view","type":"function"},{"inputs":[{"internalType":"address","name":"user","type":"address"},{"internalType":"address","name":"asset","type":"address"},{"internalType":"uint256","name":"debtAmount","type":"uint256"}],"name":"liquidate","outputs":[],"stateMutability":"nonpayable","type":"function"},{"inputs":[{"internalType":"address","name":"","type":"address"},{"internalType":"address","name":"","type":"address"}],"name":"lpDeposits","outputs":[{"internalType":"uint256","name":"","type":"uint256"}],"stateMutability":"view","type":"function"},{"inputs":[],"name":"owner","outputs":[{"internalType":"address","name":"","type":"address"}],"stateMutability":"view","type":"function"},{"inputs":[{"internalType":"address","name":"","type":"address"},{"internalType":"address","name":"","type":"address"}],"name":"positions","outputs":[{"internalType":"uint256","name":"collateralAmount","type":"uint256"},{"internalType":"uint256","name":"borrowedAmount","type":"uint256"},{"internalType":"address","name":"collateralAsset","type":"address"},{"internalType":"uint256","name":"lastAccrualTimestamp","type":"uint256"},{"internalType":"uint256","name":"healthFactor","type":"uint256"},{"internalType":"uint8","name":"creditTier","type":"uint8"}],"stateMutability":"view","type":"function"},{"inputs":[],"name":"protocolFeePercentage","outputs":[{"internalType":"uint256","name":"","type":"uint256"}],"stateMutability":"view","type":"function"},{"inputs":[],"name":"renounceOwnership","outputs":[],"stateMutability":"nonpayable","type":"function"},{"inputs":[{"internalType":"address","name":"asset","type":"address"},{"internalType":"uint256","name":"amount","type":"uint256"}],"name":"repay","outputs":[],"stateMutability":"nonpayable","type":"function"},{"inputs":[{"internalType":"uint256","name":"newFee","type":"uint256"}],"name":"setProtocolFee","outputs":[],"stateMutability":"nonpayable","type":"function"},{"inputs":[{"internalType":"address","name":"newTreasury","type":"address"}],"name":"setTreasury","outputs":[],"stateMutability":"nonpayable","type":"function"},{"inputs":[{"internalType":"uint256","name":"","type":"uint256"}],"name":"supportedBorrowable","outputs":[{"internalType":"address","name":"","type":"address"}],"stateMutability":"view","type":"function"},{"inputs":[{"internalType":"uint256","name":"","type":"uint256"}],"name":"supportedCollateral","outputs":[{"internalType":"address","name":"","type":"address"}],"stateMutability":"view","type":"function"},{"inputs":[{"internalType":"address","name":"newOwner","type":"address"}],"name":"transferOwnership","outputs":[],"stateMutability":"nonpayable","type":"function"},{"inputs":[],"name":"treasury","outputs":[{"internalType":"address","name":"","type":"address"}],"stateMutability":"view","type":"function"},{"inputs":[{"internalType":"address","name":"asset","type":"address"},{"internalType":"uint256","name":"amount","type":"uint256"}],"name":"withdraw","outputs":[],"stateMutability":"nonpayable","type":"function"}],"evm":{"bytecode":{"linkReferences":{},"object":"608060405267016345785d8a00006008553480156200001d57600080fd5b5060405162001f1638038062001f168339810160408190526200004091620001ad565b33806200006857604051631e4fbdf760e01b8152600060048201526024015b60405180910390fd5b620000738162000140565b50600180556001600160a01b038216620000c35760405162461bcd60e51b815260206004820152601060248201526f496e76616c696420726567697374727960801b60448201526064016200005f565b6001600160a01b0381166200010e5760405162461bcd60e51b815260206004820152601060248201526f496e76616c696420747265617375727960801b60448201526064016200005f565b600280546001600160a01b039384166001600160a01b03199182161790915560098054929093169116179055620001e5565b600080546001600160a01b038381166001600160a01b0319831681178455604051919092169283917f8be0079c531659141344cd1fd0a4f28419497f9722a3daafe3b4186f6b6457e09190a35050565b80516001600160a01b0381168114620001a857600080fd5b919050565b60008060408385031215620001c157600080fd5b620001cc8362000190565b9150620001dc6020840162000190565b90509250929050565b611d2180620001f56000396000f3fe608060405234801561001057600080fd5b50600436106102115760003560e01c8063816d61a811610125578063c2114499116100ad578063f0f442601161007c578063f0f44260146105b7578063f2fde38b146105ca578063f3fef3a3146105dd578063fbf37739146105f0578063ff71fa221461060357600080fd5b8063c211449914610566578063cd31a9e31461056e578063cf762dfa14610599578063ead76e89146105a857600080fd5b80639853fe45116100f45780639853fe45146104c75780639d96b832146104cf578063b015a5e8146104de578063b33dc190146104f1578063b5627e421461055757600080fd5b8063816d61a81461049c5780638d98f40a146104a55780638da5cb5b146104ad5780638e50e509146104be57600080fd5b80634bd21445116101a857806361d027b31161017757806361d027b3146103975780636ec3ab67146103aa578063715018a61461040b5780637609d7f614610413578063787dce3d1461048957600080fd5b80634bd21445146102c95780634c07b4651461036257806358e364a8146103755780635bb115e91461038857600080fd5b806338160010116101e4578063381600101461028a5780633bf42d4b1461029957806341910f90146102a857806347e7ef24146102b657600080fd5b806322867d781461021657806326c013031461022b578063287298211461023e578063321105fb1461026e575b600080fd5b610229610224366004611a2c565b610616565b005b610229610239366004611a56565b6107b4565b61025161024c366004611a92565b61095c565b6040516001600160a01b0390911681526020015b60405180910390f35b61027c668e1bc9bf04000081565b604051908152602001610265565b61027c670c7d713b49da000081565b61027c670853a0d2313c000081565b61027c66470de4df82000081565b6102296102c4366004611a2c565b610986565b6103246102d7366004611aab565b60036020818152600093845260408085209091529183529120805460018201546002830154938301546004840154600590940154929491936001600160a01b039092169290919060ff1686565b6040805196875260208701959095526001600160a01b03909316938501939093526060840152608083019190915260ff1660a082015260c001610265565b61027c610370366004611aab565b610ab8565b610229610383366004611aee565b610b7c565b61027c670905438e6001000081565b600954610251906001600160a01b031681565b6103bd6103b8366004611b31565b610d02565b6040516102659190600060c0820190508251151582526020830151602083015260408301516040830152606083015160608301526080830151608083015260a083015160a083015292915050565b610229610da3565b61045a610421366004611b31565b600460208190526000918252604090912080546001820154600283015460038401549484015460059094015460ff909316949193909286565b6040805196151587526020870195909552938501929092526060840152608083015260a082015260c001610265565b610229610497366004611a92565b610db7565b61027c61012c81565b61027c609681565b6000546001600160a01b0316610251565b61027c60085481565b61027c603281565b61027c670a688906bd8b000081565b600254610251906001600160a01b031681565b6105046104ff366004611aab565b610e0b565b604051610265919081518152602080830151908201526040808301516001600160a01b031690820152606080830151908201526080808301519082015260a09182015160ff169181019190915260c00190565b61027c670de0b6b3a764000081565b61027c600081565b61027c61057c366004611aab565b600560209081526000928352604080842090915290825290205481565b61027c670b1a2bc2ec50000081565b61027c6706f05b59d3b2000081565b6102296105c5366004611b31565b610ec4565b6102296105d8366004611b31565b610f37565b6102296105eb366004611a2c565b610f75565b6102296105fe366004611b4c565b6110e1565b610251610611366004611a92565b61141d565b61061e61142d565b3360009081526003602090815260408083206001600160a01b038616845290915281206001810154909103610665576040516254641f60e81b815260040160405180910390fd5b60006106713385611457565b905060008183600101546106859190611ba4565b905060008185116106965784610698565b815b90506106af6001600160a01b038716333084611603565b6106b98183611bb7565b600185018190554260038601556000036106f95783546002850154600080875560048701556001600160a01b03166106f281338461166a565b5050610729565b600584015460009061070d9060ff1661169b565b9050610722856000015486600101548361170d565b6004860155505b6001600160a01b03861660009081526004602052604081206002018054839290610754908490611bb7565b9091555061076390508661173f565b6040518181526001600160a01b0387169033907f05f2eeda0e08e4b437f487c8d7d29b14537d15e3488170dc3de5dbdf8dac46849060200160405180910390a3505050506107b060018055565b5050565b6107bc61142d565b6001600160a01b0380841660009081526003602090815260408083209386168352929052206107eb8484611457565b5060058101546000906108009060ff1661169b565b90506000610817836000015484600101548461170d565b9050670de0b6b3a7640000811061084157604051630879983f60e21b815260040160405180910390fd5b60006064610850866069611bca565b61085a9190611be1565b845490915081111561086a575082545b61087f6001600160a01b038716333088611603565b848460010160008282546108939190611bb7565b90915550508354819085906000906108ac908490611bb7565b90915550506001600160a01b038616600090815260046020526040812060020180548792906108dc908490611bb7565b909155506108eb90508661173f565b6002840154610904906001600160a01b0316338361166a565b604080518681526020810183905233916001600160a01b038a16917ff3fa0eaee8f258c23b013654df25d1527f98a5c7ccd5e951dd77caca400ef972910160405180910390a35050505061095760018055565b505050565b6007818154811061096c57600080fd5b6000918252602090912001546001600160a01b0316905081565b61098e61142d565b6001600160a01b03821660009081526004602052604090205460ff166109c75760405163a3bd944560e01b815260040160405180910390fd5b806000036109e85760405163162908e360e11b815260040160405180910390fd5b6109fd6001600160a01b038316333084611603565b3360009081526005602090815260408083206001600160a01b038616845290915281208054839290610a30908490611ba4565b90915550506001600160a01b03821660009081526004602052604081206001018054839290610a60908490611ba4565b90915550610a6f90508261173f565b6040518181526001600160a01b0383169033907f5548c837ab068cf56a2c2479df0882a4922fd203edb7517321831d95078c5f629060200160405180910390a36107b060018055565b600254604051630d47875d60e41b81526001600160a01b038481166004830152600092839291169063d47875d09060240160c060405180830381865afa158015610b06573d6000803e3d6000fd5b505050506040513d601f19601f82011682018060405250810190610b2a9190611c3e565b6001600160a01b03841660009081526004602052604081206003015491925090610b5390611804565b90506000610b6483602001516118cb565b9050610b708183611ba4565b93505050505b92915050565b610b84611927565b6001600160a01b038316610bcf5760405162461bcd60e51b815260206004820152600d60248201526c125b9d985b1a5908185cdcd95d609a1b60448201526064015b60405180910390fd5b6001600160a01b03831660009081526004602052604090205460ff16610cb6576001600160a01b0383166000908152600460205260409020805460ff191660011790558115610c6457600680546001810182556000919091527ff652222313e28459528d920b65115c16c04f3efc82aaedc97be59f3f377c0d3f0180546001600160a01b0319166001600160a01b0385161790555b8015610cb657600780546001810182556000919091527fa66cc928b5edb82af9bd49922954155ab7b0942694bea4ce44661d9a8736c6880180546001600160a01b0319166001600160a01b0385161790555b60408051831515815282151560208201526001600160a01b038516917f8bc71a89e23e1b1555d90680026df00c8c54166deb87792283570d478eb13b5c910160405180910390a2505050565b610d3d6040518060c0016040528060001515815260200160008152602001600081526020016000815260200160008152602001600081525090565b506001600160a01b0316600090815260046020818152604092839020835160c081018552815460ff16151581526001820154928101929092526002810154938201939093526003830154606082015290820154608082015260059091015460a082015290565b610dab611927565b610db56000611954565b565b610dbf611927565b6702c68af0bb140000811115610e065760405162461bcd60e51b815260206004820152600c60248201526b08ccaca40e8dede40d0d2ced60a31b6044820152606401610bc6565b600855565b610e506040518060c00160405280600081526020016000815260200160006001600160a01b031681526020016000815260200160008152602001600060ff1681525090565b506001600160a01b039182166000908152600360208181526040808420948616845293815291839020835160c081018552815481526001820154938101939093526002810154909416928201929092529082015460608201526004820154608082015260059091015460ff1660a082015290565b610ecc611927565b6001600160a01b038116610f155760405162461bcd60e51b815260206004820152601060248201526f496e76616c696420747265617375727960801b6044820152606401610bc6565b600980546001600160a01b0319166001600160a01b0392909216919091179055565b610f3f611927565b6001600160a01b038116610f6957604051631e4fbdf760e01b815260006004820152602401610bc6565b610f7281611954565b50565b610f7d61142d565b3360009081526005602090815260408083206001600160a01b0386168452909152902054811115610fc15760405163bb55fd2760e01b815260040160405180910390fd5b6001600160a01b03821660009081526004602052604081206002810154600190910154610fee9190611bb7565b9050818110156110115760405163bb55fd2760e01b815260040160405180910390fd5b3360009081526005602090815260408083206001600160a01b038716845290915281208054849290611044908490611bb7565b90915550506001600160a01b03831660009081526004602052604081206001018054849290611074908490611bb7565b9091555061108390508361173f565b6110976001600160a01b038416338461166a565b6040518281526001600160a01b0384169033907f9b1bfa7fa9ee420a16e124f794c35ac9f90472acc99140eb2f6447c714cad8eb9060200160405180910390a3506107b060018055565b6110e961142d565b6001600160a01b03841660009081526004602052604090205460ff166111225760405163a3bd944560e01b815260040160405180910390fd5b81158061112d575080155b1561114b5760405163162908e360e11b815260040160405180910390fd5b600254604051630d47875d60e41b81523360048201526000916001600160a01b03169063d47875d09060240160c060405180830381865afa158015611194573d6000803e3d6000fd5b505050506040513d601f19601f820116820180604052508101906111b89190611c3e565b805190915061ffff166000036111e1576040516301069b4760e21b815260040160405180910390fd5b60006111f0826020015161169b565b905060008361120786670de0b6b3a7640000611bca565b6112119190611be1565b90508181111561123457604051635296a20960e11b815260040160405180910390fd5b6001600160a01b038716600090815260046020526040812060028101546001909101546112619190611bb7565b9050858110156112845760405163bb55fd2760e01b815260040160405180910390fd5b6112996001600160a01b038816333088611603565b3360009081526003602090815260408083206001600160a01b038c16845290915281208054909187918391906112d0908490611ba4565b92505081905550868160010160008282546112eb9190611ba4565b90915550506002810180546001600160a01b0319166001600160a01b038a16179055426003820155602085015160058201805460ff191660ff90921691909117905561133886888661170d565b60048201819055670de0b6b3a764000011156113675760405163317416e560e11b815260040160405180910390fd5b6001600160a01b03891660009081526004602052604081206002018054899290611392908490611ba4565b909155506113a190508961173f565b6113b56001600160a01b038a16338961166a565b604080516001600160a01b038b811682528a1660208201529081018890526060810187905233907f96558a334f4759f0e7c423d68c84721860bd8fbf94ddc4e55158ecb125ad04b59060800160405180910390a2505050505061141760018055565b50505050565b6006818154811061096c57600080fd5b60026001540361145057604051633ee5aeb560e01b815260040160405180910390fd5b6002600155565b6001600160a01b03808316600090815260036020818152604080842094861684529390529181209182015490919082906114919042611bb7565b9050806000036114a657600092505050610b76565b600254604051630d47875d60e41b81526001600160a01b038781166004830152600092169063d47875d09060240160c060405180830381865afa1580156114f1573d6000803e3d6000fd5b505050506040513d601f19601f820116820180604052508101906115159190611c3e565b6001600160a01b0386166000908152600460205260408120600301549192509061153e90611804565b9050600061154f83602001516118cb565b9050600061155d8284611ba4565b905060006a1a1601fc4ea7109e0000008683896001015461157e9190611bca565b6115889190611bca565b6115929190611be1565b9050808760010160008282546115a89190611ba4565b90915550504260038801556040518181526001600160a01b038a811691908c16907f57e3ff78634498a95cc142cc79382787468c61ca807a728c4454e8095123e3979060200160405180910390a39998505050505050505050565b6040516001600160a01b0384811660248301528381166044830152606482018390526114179186918216906323b872dd906084015b604051602081830303815290604052915060e01b6020820180516001600160e01b0383818316178352505050506119a4565b6040516001600160a01b0383811660248301526044820183905261095791859182169063a9059cbb90606401611638565b60008160ff166004036116b75750670c7d713b49da0000919050565b8160ff166003036116d15750670a688906bd8b0000919050565b8160ff166002036116eb5750670905438e60010000919050565b8160ff1660010361170557506706f05b59d3b20000919050565b506000919050565b6000826000036117205750600019611738565b8261172b8386611bca565b6117359190611be1565b90505b9392505050565b6001600160a01b0381166000908152600460205260408120600181015490910361176f576000600382015561179b565b6001810154600282015461178b90670de0b6b3a7640000611bca565b6117959190611be1565b60038201555b6117a88160030154611804565b60048201556008546ec097ce7bc90715b34b9f1000000000906117d390670de0b6b3a7640000611bb7565b826003015483600401546117e79190611bca565b6117f19190611bca565b6117fb9190611be1565b60059091015550565b6000670b1a2bc2ec50000082101561184b57670b1a2bc2ec500000611830668e1bc9bf04000084611bca565b61183a9190611be1565b610b769066470de4df820000611ba4565b600061185f670b1a2bc2ec50000084611bb7565b9050600061187d670b1a2bc2ec500000670de0b6b3a7640000611bb7565b905080611892670853a0d2313c000084611bca565b61189c9190611be1565b6118b4668e1bc9bf04000066470de4df820000611ba4565b6118be9190611ba4565b949350505050565b919050565b60008160ff166004036118e057506000919050565b8160ff166003036118f357506032919050565b8160ff1660020361190657506096919050565b8160ff1660010361191a575061012c919050565b610b7661012c6002611bca565b6000546001600160a01b03163314610db55760405163118cdaa760e01b8152336004820152602401610bc6565b600080546001600160a01b038381166001600160a01b0319831681178455604051919092169283917f8be0079c531659141344cd1fd0a4f28419497f9722a3daafe3b4186f6b6457e09190a35050565b600080602060008451602086016000885af1806119c7576040513d6000823e3d81fd5b50506000513d915081156119df5780600114156119ec565b6001600160a01b0384163b155b1561141757604051635274afe760e01b81526001600160a01b0385166004820152602401610bc6565b80356001600160a01b03811681146118c657600080fd5b60008060408385031215611a3f57600080fd5b611a4883611a15565b946020939093013593505050565b600080600060608486031215611a6b57600080fd5b611a7484611a15565b9250611a8260208501611a15565b9150604084013590509250925092565b600060208284031215611aa457600080fd5b5035919050565b60008060408385031215611abe57600080fd5b611ac783611a15565b9150611ad560208401611a15565b90509250929050565b803580151581146118c657600080fd5b600080600060608486031215611b0357600080fd5b611b0c84611a15565b9250611b1a60208501611ade565b9150611b2860408501611ade565b90509250925092565b600060208284031215611b4357600080fd5b61173882611a15565b60008060008060808587031215611b6257600080fd5b611b6b85611a15565b9350611b7960208601611a15565b93969395505050506040820135916060013590565b634e487b7160e01b600052601160045260246000fd5b80820180821115610b7657610b76611b8e565b81810381811115610b7657610b76611b8e565b8082028115828204841417610b7657610b76611b8e565b600082611bfe57634e487b7160e01b600052601260045260246000fd5b500490565b805161ffff811681146118c657600080fd5b805160ff811681146118c657600080fd5b805167ffffffffffffffff811681146118c657600080fd5b600060c08284031215611c5057600080fd5b60405160c0810181811067ffffffffffffffff82111715611c8157634e487b7160e01b600052604160045260246000fd5b604052611c8d83611c03565b8152611c9b60208401611c15565b6020820152611cac60408401611c15565b6040820152611cbd60608401611c03565b6060820152611cce60808401611c26565b6080820152611cdf60a08401611c15565b60a0820152939250505056fea2646970667358221220bffcfe1cba4584d76ac4ffda1b8a75519f328a1d4655725109472cbaef138de164736f6c63430008140033","opcodes":"PUSH1 0x80 PUSH1 0x40 MSTORE PUSH8 0x16345785D8A0000 PUSH1 0x8 SSTORE CALLVALUE DUP1 ISZERO PUSH3 0x1D JUMPI PUSH1 0x0 DUP1 REVERT JUMPDEST POP PUSH1 0x40 MLOAD PUSH3 0x1F16 CODESIZE SUB DUP1 PUSH3 0x1F16 DUP4 CODECOPY DUP2 ADD PUSH1 0x40 DUP2 SWAP1 MSTORE PUSH3 0x40 SWAP2 PUSH3 0x1AD JUMP JUMPDEST CALLER DUP1 PUSH3 0x68 JUMPI PUSH1 0x40 MLOAD PUSH4 0x1E4FBDF7 PUSH1 0xE0 SHL DUP2 MSTORE PUSH1 0x0 PUSH1 0x4 DUP3 ADD MSTORE PUSH1 0x24 ADD JUMPDEST PUSH1 0x40 MLOAD DUP1 SWAP2 SUB SWAP1 REVERT JUMPDEST PUSH3 0x73 DUP2 PUSH3 0x140 JUMP JUMPDEST POP PUSH1 0x1 DUP1 SSTORE PUSH1 0x1 PUSH1 0x1 PUSH1 0xA0 SHL SUB DUP3 AND PUSH3 0xC3 JUMPI PUSH1 0x40 MLOAD PUSH3 0x461BCD PUSH1 0xE5 SHL DUP2 MSTORE PUSH1 0x20 PUSH1 0x4 DUP3 ADD MSTORE PUSH1 0x10 PUSH1 0x24 DUP3 ADD MSTORE PUSH16 0x496E76616C6964207265676973747279 PUSH1 0x80 SHL PUSH1 0x44 DUP3 ADD MSTORE PUSH1 0x64 ADD PUSH3 0x5F JUMP JUMPDEST PUSH1 0x1 PUSH1 0x1 PUSH1 0xA0 SHL SUB DUP2 AND PUSH3 0x10E JUMPI PUSH1 0x40 MLOAD PUSH3 0x461BCD PUSH1 0xE5 SHL DUP2 MSTORE PUSH1 0x20 PUSH1 0x4 DUP3 ADD MSTORE PUSH1 0x10 PUSH1 0x24 DUP3 ADD MSTORE PUSH16 0x496E76616C6964207472656173757279 PUSH1 0x80 SHL PUSH1 0x44 DUP3 ADD MSTORE PUSH1 0x64 ADD PUSH3 0x5F JUMP JUMPDEST PUSH1 0x2 DUP1 SLOAD PUSH1 0x1 PUSH1 0x1 PUSH1 0xA0 SHL SUB SWAP4 DUP5 AND PUSH1 0x1 PUSH1 0x1 PUSH1 0xA0 SHL SUB NOT SWAP2 DUP3 AND OR SWAP1 SWAP2 SSTORE PUSH1 0x9 DUP1 SLOAD SWAP3 SWAP1 SWAP4 AND SWAP2 AND OR SWAP1 SSTORE PUSH3 0x1E5 JUMP JUMPDEST PUSH1 0x0 DUP1 SLOAD PUSH1 0x1 PUSH1 0x1 PUSH1 0xA0 SHL SUB DUP4 DUP2 AND PUSH1 0x1 PUSH1 0x1 PUSH1 0xA0 SHL SUB NOT DUP4 AND DUP2 OR DUP5 SSTORE PUSH1 0x40 MLOAD SWAP2 SWAP1 SWAP3 AND SWAP3 DUP4 SWAP2 PUSH32 0x8BE0079C531659141344CD1FD0A4F28419497F9722A3DAAFE3B4186F6B6457E0 SWAP2 SWAP1 LOG3 POP POP JUMP JUMPDEST DUP1 MLOAD PUSH1 0x1 PUSH1 0x1 PUSH1 0xA0 SHL SUB DUP2 AND DUP2 EQ PUSH3 0x1A8 JUMPI PUSH1 0x0 DUP1 REVERT JUMPDEST SWAP2 SWAP1 POP JUMP JUMPDEST PUSH1 0x0 DUP1 PUSH1 0x40 DUP4 DUP6 SUB SLT ISZERO PUSH3 0x1C1 JUMPI PUSH1 0x0 DUP1 REVERT JUMPDEST PUSH3 0x1CC DUP4 PUSH3 0x190 JUMP JUMPDEST SWAP2 POP PUSH3 0x1DC PUSH1 0x20 DUP5 ADD PUSH3 0x190 JUMP JUMPDEST SWAP1 POP SWAP3 POP SWAP3 SWAP1 POP JUMP JUMPDEST PUSH2 0x1D21 DUP1 PUSH3 0x1F5 PUSH1 0x0 CODECOPY PUSH1 0x0 RETURN INVALID PUSH1 0x80 PUSH1 0x40 MSTORE CALLVALUE DUP1 ISZERO PUSH2 0x10 JUMPI PUSH1 0x0 DUP1 REVERT JUMPDEST POP PUSH1 0x4 CALLDATASIZE LT PUSH2 0x211 JUMPI PUSH1 0x0 CALLDATALOAD PUSH1 0xE0 SHR DUP1 PUSH4 0x816D61A8 GT PUSH2 0x125 JUMPI DUP1 PUSH4 0xC2114499 GT PUSH2 0xAD JUMPI DUP1 PUSH4 0xF0F44260 GT PUSH2 0x7C JUMPI DUP1 PUSH4 0xF0F44260 EQ PUSH2 0x5B7 JUMPI DUP1 PUSH4 0xF2FDE38B EQ PUSH2 0x5CA JUMPI DUP1 PUSH4 0xF3FEF3A3 EQ PUSH2 0x5DD JUMPI DUP1 PUSH4 0xFBF37739 EQ PUSH2 0x5F0 JUMPI DUP1 PUSH4 0xFF71FA22 EQ PUSH2 0x603 JUMPI PUSH1 0x0 DUP1 REVERT JUMPDEST DUP1 PUSH4 0xC2114499 EQ PUSH2 0x566 JUMPI DUP1 PUSH4 0xCD31A9E3 EQ PUSH2 0x56E JUMPI DUP1 PUSH4 0xCF762DFA EQ PUSH2 0x599 JUMPI DUP1 PUSH4 0xEAD76E89 EQ PUSH2 0x5A8 JUMPI PUSH1 0x0 DUP1 REVERT JUMPDEST DUP1 PUSH4 0x9853FE45 GT PUSH2 0xF4 JUMPI DUP1 PUSH4 0x9853FE45 EQ PUSH2 0x4C7 JUMPI DUP1 PUSH4 0x9D96B832 EQ PUSH2 0x4CF JUMPI DUP1 PUSH4 0xB015A5E8 EQ PUSH2 0x4DE JUMPI DUP1 PUSH4 0xB33DC190 EQ PUSH2 0x4F1 JUMPI DUP1 PUSH4 0xB5627E42 EQ PUSH2 0x557 JUMPI PUSH1 0x0 DUP1 REVERT JUMPDEST DUP1 PUSH4 0x816D61A8 EQ PUSH2 0x49C JUMPI DUP1 PUSH4 0x8D98F40A EQ PUSH2 0x4A5 JUMPI DUP1 PUSH4 0x8DA5CB5B EQ PUSH2 0x4AD JUMPI DUP1 PUSH4 0x8E50E509 EQ PUSH2 0x4BE JUMPI PUSH1 0x0 DUP1 REVERT JUMPDEST DUP1 PUSH4 0x4BD21445 GT PUSH2 0x1A8 JUMPI DUP1 PUSH4 0x61D027B3 GT PUSH2 0x177 JUMPI DUP1 PUSH4 0x61D027B3 EQ PUSH2 0x397 JUMPI DUP1 PUSH4 0x6EC3AB67 EQ PUSH2 0x3AA JUMPI DUP1 PUSH4 0x715018A6 EQ PUSH2 0x40B JUMPI DUP1 PUSH4 0x7609D7F6 EQ PUSH2 0x413 JUMPI DUP1 PUSH4 0x787DCE3D EQ PUSH2 0x489 JUMPI PUSH1 0x0 DUP1 REVERT JUMPDEST DUP1 PUSH4 0x4BD21445 EQ PUSH2 0x2C9 JUMPI DUP1 PUSH4 0x4C07B465 EQ PUSH2 0x362 JUMPI DUP1 PUSH4 0x58E364A8 EQ PUSH2 0x375 JUMPI DUP1 PUSH4 0x5BB115E9 EQ PUSH2 0x388 JUMPI PUSH1 0x0 DUP1 REVERT JUMPDEST DUP1 PUSH4 0x38160010 GT PUSH2 0x1E4 JUMPI DUP1 PUSH4 0x38160010 EQ PUSH2 0x28A JUMPI DUP1 PUSH4 0x3BF42D4B EQ PUSH2 0x299 JUMPI DUP1 PUSH4 0x41910F90 EQ PUSH2 0x2A8 JUMPI DUP1 PUSH4 0x47E7EF24 EQ PUSH2 0x2B6 JUMPI PUSH1 0x0 DUP1 REVERT JUMPDEST DUP1 PUSH4 0x22867D78 EQ PUSH2 0x216 JUMPI DUP1 PUSH4 0x26C01303 EQ PUSH2 0x22B JUMPI DUP1 PUSH4 0x28729821 EQ PUSH2 0x23E JUMPI DUP1 PUSH4 0x321105FB EQ PUSH2 0x26E JUMPI JUMPDEST PUSH1 0x0 DUP1 REVERT JUMPDEST PUSH2 0x229 PUSH2 0x224 CALLDATASIZE PUSH1 0x4 PUSH2 0x1A2C JUMP JUMPDEST PUSH2 0x616 JUMP JUMPDEST STOP JUMPDEST PUSH2 0x229 PUSH2 0x239 CALLDATASIZE PUSH1 0x4 PUSH2 0x1A56 JUMP JUMPDEST PUSH2 0x7B4 JUMP JUMPDEST PUSH2 0x251 PUSH2 0x24C CALLDATASIZE PUSH1 0x4 PUSH2 0x1A92 JUMP JUMPDEST PUSH2 0x95C JUMP JUMPDEST PUSH1 0x40 MLOAD PUSH1 0x1 PUSH1 0x1 PUSH1 0xA0 SHL SUB SWAP1 SWAP2 AND DUP2 MSTORE PUSH1 0x20 ADD JUMPDEST PUSH1 0x40 MLOAD DUP1 SWAP2 SUB SWAP1 RETURN JUMPDEST PUSH2 0x27C PUSH7 0x8E1BC9BF040000 DUP2 JUMP JUMPDEST PUSH1 0x40 MLOAD SWAP1 DUP2 MSTORE PUSH1 0x20 ADD PUSH2 0x265 JUMP JUMPDEST PUSH2 0x27C PUSH8 0xC7D713B49DA0000 DUP2 JUMP JUMPDEST PUSH2 0x27C PUSH8 0x853A0D2313C0000 DUP2 JUMP JUMPDEST PUSH2 0x27C PUSH7 0x470DE4DF820000 DUP2 JUMP JUMPDEST PUSH2 0x229 PUSH2 0x2C4 CALLDATASIZE PUSH1 0x4 PUSH2 0x1A2C JUMP JUMPDEST PUSH2 0x986 JUMP JUMPDEST PUSH2 0x324 PUSH2 0x2D7 CALLDATASIZE PUSH1 0x4 PUSH2 0x1AAB JUMP JUMPDEST PUSH1 0x3 PUSH1 0x20 DUP2 DUP2 MSTORE PUSH1 0x0 SWAP4 DUP5 MSTORE PUSH1 0x40 DUP1 DUP6 KECCAK256 SWAP1 SWAP2 MSTORE SWAP2 DUP4 MSTORE SWAP2 KECCAK256 DUP1 SLOAD PUSH1 0x1 DUP3 ADD SLOAD PUSH1 0x2 DUP4 ADD SLOAD SWAP4 DUP4 ADD SLOAD PUSH1 0x4 DUP5 ADD SLOAD PUSH1 0x5 SWAP1 SWAP5 ADD SLOAD SWAP3 SWAP5 SWAP2 SWAP4 PUSH1 0x1 PUSH1 0x1 PUSH1 0xA0 SHL SUB SWAP1 SWAP3 AND SWAP3 SWAP1 SWAP2 SWAP1 PUSH1 0xFF AND DUP7 JUMP JUMPDEST PUSH1 0x40 DUP1 MLOAD SWAP7 DUP8 MSTORE PUSH1 0x20 DUP8 ADD SWAP6 SWAP1 SWAP6 MSTORE PUSH1 0x1 PUSH1 0x1 PUSH1 0xA0 SHL SUB SWAP1 SWAP4 AND SWAP4 DUP6 ADD SWAP4 SWAP1 SWAP4 MSTORE PUSH1 0x60 DUP5 ADD MSTORE PUSH1 0x80 DUP4 ADD SWAP2 SWAP1 SWAP2 MSTORE PUSH1 0xFF AND PUSH1 0xA0 DUP3 ADD MSTORE PUSH1 0xC0 ADD PUSH2 0x265 JUMP JUMPDEST PUSH2 0x27C PUSH2 0x370 CALLDATASIZE PUSH1 0x4 PUSH2 0x1AAB JUMP JUMPDEST PUSH2 0xAB8 JUMP JUMPDEST PUSH2 0x229 PUSH2 0x383 CALLDATASIZE PUSH1 0x4 PUSH2 0x1AEE JUMP JUMPDEST PUSH2 0xB7C JUMP JUMPDEST PUSH2 0x27C PUSH8 0x905438E60010000 DUP2 JUMP JUMPDEST PUSH1 0x9 SLOAD PUSH2 0x251 SWAP1 PUSH1 0x1 PUSH1 0x1 PUSH1 0xA0 SHL SUB AND DUP2 JUMP JUMPDEST PUSH2 0x3BD PUSH2 0x3B8 CALLDATASIZE PUSH1 0x4 PUSH2 0x1B31 JUMP JUMPDEST PUSH2 0xD02 JUMP JUMPDEST PUSH1 0x40 MLOAD PUSH2 0x265 SWAP2 SWAP1 PUSH1 0x0 PUSH1 0xC0 DUP3 ADD SWAP1 POP DUP3 MLOAD ISZERO ISZERO DUP3 MSTORE PUSH1 0x20 DUP4 ADD MLOAD PUSH1 0x20 DUP4 ADD MSTORE PUSH1 0x40 DUP4 ADD MLOAD PUSH1 0x40 DUP4 ADD MSTORE PUSH1 0x60 DUP4 ADD MLOAD PUSH1 0x60 DUP4 ADD MSTORE PUSH1 0x80 DUP4 ADD MLOAD PUSH1 0x80 DUP4 ADD MSTORE PUSH1 0xA0 DUP4 ADD MLOAD PUSH1 0xA0 DUP4 ADD MSTORE SWAP3 SWAP2 POP POP JUMP JUMPDEST PUSH2 0x229 PUSH2 0xDA3 JUMP JUMPDEST PUSH2 0x45A PUSH2 0x421 CALLDATASIZE PUSH1 0x4 PUSH2 0x1B31 JUMP JUMPDEST PUSH1 0x4 PUSH1 0x20 DUP2 SWAP1 MSTORE PUSH1 0x0 SWAP2 DUP3 MSTORE PUSH1 0x40 SWAP1 SWAP2 KECCAK256 DUP1 SLOAD PUSH1 0x1 DUP3 ADD SLOAD PUSH1 0x2 DUP4 ADD SLOAD PUSH1 0x3 DUP5 ADD SLOAD SWAP5 DUP5 ADD SLOAD PUSH1 0x5 SWAP1 SWAP5 ADD SLOAD PUSH1 0xFF SWAP1 SWAP4 AND SWAP5 SWAP2 SWAP4 SWAP1 SWAP3 DUP7 JUMP JUMPDEST PUSH1 0x40 DUP1 MLOAD SWAP7 ISZERO ISZERO DUP8 MSTORE PUSH1 0x20 DUP8 ADD SWAP6 SWAP1 SWAP6 MSTORE SWAP4 DUP6 ADD SWAP3 SWAP1 SWAP3 MSTORE PUSH1 0x60 DUP5 ADD MSTORE PUSH1 0x80 DUP4 ADD MSTORE PUSH1 0xA0 DUP3 ADD MSTORE PUSH1 0xC0 ADD PUSH2 0x265 JUMP JUMPDEST PUSH2 0x229 PUSH2 0x497 CALLDATASIZE PUSH1 0x4 PUSH2 0x1A92 JUMP JUMPDEST PUSH2 0xDB7 JUMP JUMPDEST PUSH2 0x27C PUSH2 0x12C DUP2 JUMP JUMPDEST PUSH2 0x27C PUSH1 0x96 DUP2 JUMP JUMPDEST PUSH1 0x0 SLOAD PUSH1 0x1 PUSH1 0x1 PUSH1 0xA0 SHL SUB AND PUSH2 0x251 JUMP JUMPDEST PUSH2 0x27C PUSH1 0x8 SLOAD DUP2 JUMP JUMPDEST PUSH2 0x27C PUSH1 0x32 DUP2 JUMP JUMPDEST PUSH2 0x27C PUSH8 0xA688906BD8B0000 DUP2 JUMP JUMPDEST PUSH1 0x2 SLOAD PUSH2 0x251 SWAP1 PUSH1 0x1 PUSH1 0x1 PUSH1 0xA0 SHL SUB AND DUP2 JUMP JUMPDEST PUSH2 0x504 PUSH2 0x4FF CALLDATASIZE PUSH1 0x4 PUSH2 0x1AAB JUMP JUMPDEST PUSH2 0xE0B JUMP JUMPDEST PUSH1 0x40 MLOAD PUSH2 0x265 SWAP2 SWAP1 DUP2 MLOAD DUP2 MSTORE PUSH1 0x20 DUP1 DUP4 ADD MLOAD SWAP1 DUP3 ADD MSTORE PUSH1 0x40 DUP1 DUP4 ADD MLOAD PUSH1 0x1 PUSH1 0x1 PUSH1 0xA0 SHL SUB AND SWAP1 DUP3 ADD MSTORE PUSH1 0x60 DUP1 DUP4 ADD MLOAD SWAP1 DUP3 ADD MSTORE PUSH1 0x80 DUP1 DUP4 ADD MLOAD SWAP1 DUP3 ADD MSTORE PUSH1 0xA0 SWAP2 DUP3 ADD MLOAD PUSH1 0xFF AND SWAP2 DUP2 ADD SWAP2 SWAP1 SWAP2 MSTORE PUSH1 0xC0 ADD SWAP1 JUMP JUMPDEST PUSH2 0x27C PUSH8 0xDE0B6B3A7640000 DUP2 JUMP JUMPDEST PUSH2 0x27C PUSH1 0x0 DUP2 JUMP JUMPDEST PUSH2 0x27C PUSH2 0x57C CALLDATASIZE PUSH1 0x4 PUSH2 0x1AAB JUMP JUMPDEST PUSH1 0x5 PUSH1 0x20 SWAP1 DUP2 MSTORE PUSH1 0x0 SWAP3 DUP4 MSTORE PUSH1 0x40 DUP1 DUP5 KECCAK256 SWAP1 SWAP2 MSTORE SWAP1 DUP3 MSTORE SWAP1 KECCAK256 SLOAD DUP2 JUMP JUMPDEST PUSH2 0x27C PUSH8 0xB1A2BC2EC500000 DUP2 JUMP JUMPDEST PUSH2 0x27C PUSH8 0x6F05B59D3B20000 DUP2 JUMP JUMPDEST PUSH2 0x229 PUSH2 0x5C5 CALLDATASIZE PUSH1 0x4 PUSH2 0x1B31 JUMP JUMPDEST PUSH2 0xEC4 JUMP JUMPDEST PUSH2 0x229 PUSH2 0x5D8 CALLDATASIZE PUSH1 0x4 PUSH2 0x1B31 JUMP JUMPDEST PUSH2 0xF37 JUMP JUMPDEST PUSH2 0x229 PUSH2 0x5EB CALLDATASIZE PUSH1 0x4 PUSH2 0x1A2C JUMP JUMPDEST PUSH2 0xF75 JUMP JUMPDEST PUSH2 0x229 PUSH2 0x5FE CALLDATASIZE PUSH1 0x4 PUSH2 0x1B4C JUMP JUMPDEST PUSH2 0x10E1 JUMP JUMPDEST PUSH2 0x251 PUSH2 0x611 CALLDATASIZE PUSH1 0x4 PUSH2 0x1A92 JUMP JUMPDEST PUSH2 0x141D JUMP JUMPDEST PUSH2 0x61E PUSH2 0x142D JUMP JUMPDEST CALLER PUSH1 0x0 SWAP1 DUP2 MSTORE PUSH1 0x3 PUSH1 0x20 SWAP1 DUP2 MSTORE PUSH1 0x40 DUP1 DUP4 KECCAK256 PUSH1 0x1 PUSH1 0x1 PUSH1 0xA0 SHL SUB DUP7 AND DUP5 MSTORE SWAP1 SWAP2 MSTORE DUP2 KECCAK256 PUSH1 0x1 DUP2 ADD SLOAD SWAP1 SWAP2 SUB PUSH2 0x665 JUMPI PUSH1 0x40 MLOAD PUSH3 0x54641F PUSH1 0xE8 SHL DUP2 MSTORE PUSH1 0x4 ADD PUSH1 0x40 MLOAD DUP1 SWAP2 SUB SWAP1 REVERT JUMPDEST PUSH1 0x0 PUSH2 0x671 CALLER DUP6 PUSH2 0x1457 JUMP JUMPDEST SWAP1 POP PUSH1 0x0 DUP2 DUP4 PUSH1 0x1 ADD SLOAD PUSH2 0x685 SWAP2 SWAP1 PUSH2 0x1BA4 JUMP JUMPDEST SWAP1 POP PUSH1 0x0 DUP2 DUP6 GT PUSH2 0x696 JUMPI DUP5 PUSH2 0x698 JUMP JUMPDEST DUP2 JUMPDEST SWAP1 POP PUSH2 0x6AF PUSH1 0x1 PUSH1 0x1 PUSH1 0xA0 SHL SUB DUP8 AND CALLER ADDRESS DUP5 PUSH2 0x1603 JUMP JUMPDEST PUSH2 0x6B9 DUP2 DUP4 PUSH2 0x1BB7 JUMP JUMPDEST PUSH1 0x1 DUP6 ADD DUP2 SWAP1 SSTORE TIMESTAMP PUSH1 0x3 DUP7 ADD SSTORE PUSH1 0x0 SUB PUSH2 0x6F9 JUMPI DUP4 SLOAD PUSH1 0x2 DUP6 ADD SLOAD PUSH1 0x0 DUP1 DUP8 SSTORE PUSH1 0x4 DUP8 ADD SSTORE PUSH1 0x1 PUSH1 0x1 PUSH1 0xA0 SHL SUB AND PUSH2 0x6F2 DUP2 CALLER DUP5 PUSH2 0x166A JUMP JUMPDEST POP POP PUSH2 0x729 JUMP JUMPDEST PUSH1 0x5 DUP5 ADD SLOAD PUSH1 0x0 SWAP1 PUSH2 0x70D SWAP1 PUSH1 0xFF AND PUSH2 0x169B JUMP JUMPDEST SWAP1 POP PUSH2 0x722 DUP6 PUSH1 0x0 ADD SLOAD DUP7 PUSH1 0x1 ADD SLOAD DUP4 PUSH2 0x170D JUMP JUMPDEST PUSH1 0x4 DUP7 ADD SSTORE POP JUMPDEST PUSH1 0x1 PUSH1 0x1 PUSH1 0xA0 SHL SUB DUP7 AND PUSH1 0x0 SWAP1 DUP2 MSTORE PUSH1 0x4 PUSH1 0x20 MSTORE PUSH1 0x40 DUP2 KECCAK256 PUSH1 0x2 ADD DUP1 SLOAD DUP4 SWAP3 SWAP1 PUSH2 0x754 SWAP1 DUP5 SWAP1 PUSH2 0x1BB7 JUMP JUMPDEST SWAP1 SWAP2 SSTORE POP PUSH2 0x763 SWAP1 POP DUP7 PUSH2 0x173F JUMP JUMPDEST PUSH1 0x40 MLOAD DUP2 DUP2 MSTORE PUSH1 0x1 PUSH1 0x1 PUSH1 0xA0 SHL SUB DUP8 AND SWAP1 CALLER SWAP1 PUSH32 0x5F2EEDA0E08E4B437F487C8D7D29B14537D15E3488170DC3DE5DBDF8DAC4684 SWAP1 PUSH1 0x20 ADD PUSH1 0x40 MLOAD DUP1 SWAP2 SUB SWAP1 LOG3 POP POP POP POP PUSH2 0x7B0 PUSH1 0x1 DUP1 SSTORE JUMP JUMPDEST POP POP JUMP JUMPDEST PUSH2 0x7BC PUSH2 0x142D JUMP JUMPDEST PUSH1 0x1 PUSH1 0x1 PUSH1 0xA0 SHL SUB DUP1 DUP5 AND PUSH1 0x0 SWAP1 DUP2 MSTORE PUSH1 0x3 PUSH1 0x20 SWAP1 DUP2 MSTORE PUSH1 0x40 DUP1 DUP4 KECCAK256 SWAP4 DUP7 AND DUP4 MSTORE SWAP3 SWAP1 MSTORE KECCAK256 PUSH2 0x7EB DUP5 DUP5 PUSH2 0x1457 JUMP JUMPDEST POP PUSH1 0x5 DUP2 ADD SLOAD PUSH1 0x0 SWAP1 PUSH2 0x800 SWAP1 PUSH1 0xFF AND PUSH2 0x169B JUMP JUMPDEST SWAP1 POP PUSH1 0x0 PUSH2 0x817 DUP4 PUSH1 0x0 ADD SLOAD DUP5 PUSH1 0x1 ADD SLOAD DUP5 PUSH2 0x170D JUMP JUMPDEST SWAP1 POP PUSH8 0xDE0B6B3A7640000 DUP2 LT PUSH2 0x841 JUMPI PUSH1 0x40 MLOAD PUSH4 0x879983F PUSH1 0xE2 SHL DUP2 MSTORE PUSH1 0x4 ADD PUSH1 0x40 MLOAD DUP1 SWAP2 SUB SWAP1 REVERT JUMPDEST PUSH1 0x0 PUSH1 0x64 PUSH2 0x850 DUP7 PUSH1 0x69 PUSH2 0x1BCA JUMP JUMPDEST PUSH2 0x85A SWAP2 SWAP1 PUSH2 0x1BE1 JUMP JUMPDEST DUP5 SLOAD SWAP1 SWAP2 POP DUP2 GT ISZERO PUSH2 0x86A JUMPI POP DUP3 SLOAD JUMPDEST PUSH2 0x87F PUSH1 0x1 PUSH1 0x1 PUSH1 0xA0 SHL SUB DUP8 AND CALLER ADDRESS DUP9 PUSH2 0x1603 JUMP JUMPDEST DUP5 DUP5 PUSH1 0x1 ADD PUSH1 0x0 DUP3 DUP3 SLOAD PUSH2 0x893 SWAP2 SWAP1 PUSH2 0x1BB7 JUMP JUMPDEST SWAP1 SWAP2 SSTORE POP POP DUP4 SLOAD DUP2 SWAP1 DUP6 SWAP1 PUSH1 0x0 SWAP1 PUSH2 0x8AC SWAP1 DUP5 SWAP1 PUSH2 0x1BB7 JUMP JUMPDEST SWAP1 SWAP2 SSTORE POP POP PUSH1 0x1 PUSH1 0x1 PUSH1 0xA0 SHL SUB DUP7 AND PUSH1 0x0 SWAP1 DUP2 MSTORE PUSH1 0x4 PUSH1 0x20 MSTORE PUSH1 0x40 DUP2 KECCAK256 PUSH1 0x2 ADD DUP1 SLOAD DUP8 SWAP3 SWAP1 PUSH2 0x8DC SWAP1 DUP5 SWAP1 PUSH2 0x1BB7 JUMP JUMPDEST SWAP1 SWAP2 SSTORE POP PUSH2 0x8EB SWAP1 POP DUP7 PUSH2 0x173F JUMP JUMPDEST PUSH1 0x2 DUP5 ADD SLOAD PUSH2 0x904 SWAP1 PUSH1 0x1 PUSH1 0x1 PUSH1 0xA0 SHL SUB AND CALLER DUP4 PUSH2 0x166A JUMP JUMPDEST PUSH1 0x40 DUP1 MLOAD DUP7 DUP2 MSTORE PUSH1 0x20 DUP2 ADD DUP4 SWAP1 MSTORE CALLER SWAP2 PUSH1 0x1 PUSH1 0x1 PUSH1 0xA0 SHL SUB DUP11 AND SWAP2 PUSH32 0xF3FA0EAEE8F258C23B013654DF25D1527F98A5C7CCD5E951DD77CACA400EF972 SWAP2 ADD PUSH1 0x40 MLOAD DUP1 SWAP2 SUB SWAP1 LOG3 POP POP POP POP PUSH2 0x957 PUSH1 0x1 DUP1 SSTORE JUMP JUMPDEST POP POP POP JUMP JUMPDEST PUSH1 0x7 DUP2 DUP2 SLOAD DUP2 LT PUSH2 0x96C JUMPI PUSH1 0x0 DUP1 REVERT JUMPDEST PUSH1 0x0 SWAP2 DUP3 MSTORE PUSH1 0x20 SWAP1 SWAP2 KECCAK256 ADD SLOAD PUSH1 0x1 PUSH1 0x1 PUSH1 0xA0 SHL SUB AND SWAP1 POP DUP2 JUMP JUMPDEST PUSH2 0x98E PUSH2 0x142D JUMP JUMPDEST PUSH1 0x1 PUSH1 0x1 PUSH1 0xA0 SHL SUB DUP3 AND PUSH1 0x0 SWAP1 DUP2 MSTORE PUSH1 0x4 PUSH1 0x20 MSTORE PUSH1 0x40 SWAP1 KECCAK256 SLOAD PUSH1 0xFF AND PUSH2 0x9C7 JUMPI PUSH1 0x40 MLOAD PUSH4 0xA3BD9445 PUSH1 0xE0 SHL DUP2 MSTORE PUSH1 0x4 ADD PUSH1 0x40 MLOAD DUP1 SWAP2 SUB SWAP1 REVERT JUMPDEST DUP1 PUSH1 0x0 SUB PUSH2 0x9E8 JUMPI PUSH1 0x40 MLOAD PUSH4 0x162908E3 PUSH1 0xE1 SHL DUP2 MSTORE PUSH1 0x4 ADD PUSH1 0x40 MLOAD DUP1 SWAP2 SUB SWAP1 REVERT JUMPDEST PUSH2 0x9FD PUSH1 0x1 PUSH1 0x1 PUSH1 0xA0 SHL SUB DUP4 AND CALLER ADDRESS DUP5 PUSH2 0x1603 JUMP JUMPDEST CALLER PUSH1 0x0 SWAP1 DUP2 MSTORE PUSH1 0x5 PUSH1 0x20 SWAP1 DUP2 MSTORE PUSH1 0x40 DUP1 DUP4 KECCAK256 PUSH1 0x1 PUSH1 0x1 PUSH1 0xA0 SHL SUB DUP7 AND DUP5 MSTORE SWAP1 SWAP2 MSTORE DUP2 KECCAK256 DUP1 SLOAD DUP4 SWAP3 SWAP1 PUSH2 0xA30 SWAP1 DUP5 SWAP1 PUSH2 0x1BA4 JUMP JUMPDEST SWAP1 SWAP2 SSTORE POP POP PUSH1 0x1 PUSH1 0x1 PUSH1 0xA0 SHL SUB DUP3 AND PUSH1 0x0 SWAP1 DUP2 MSTORE PUSH1 0x4 PUSH1 0x20 MSTORE PUSH1 0x40 DUP2 KECCAK256 PUSH1 0x1 ADD DUP1 SLOAD DUP4 SWAP3 SWAP1 PUSH2 0xA60 SWAP1 DUP5 SWAP1 PUSH2 0x1BA4 JUMP JUMPDEST SWAP1 SWAP2 SSTORE POP PUSH2 0xA6F SWAP1 POP DUP3 PUSH2 0x173F JUMP JUMPDEST PUSH1 0x40 MLOAD DUP2 DUP2 MSTORE PUSH1 0x1 PUSH1 0x1 PUSH1 0xA0 SHL SUB DUP4 AND SWAP1 CALLER SWAP1 PUSH32 0x5548C837AB068CF56A2C2479DF0882A4922FD203EDB7517321831D95078C5F62 SWAP1 PUSH1 0x20 ADD PUSH1 0x40 MLOAD DUP1 SWAP2 SUB SWAP1 LOG3 PUSH2 0x7B0 PUSH1 0x1 DUP1 SSTORE JUMP JUMPDEST PUSH1 0x2 SLOAD PUSH1 0x40 MLOAD PUSH4 0xD47875D PUSH1 0xE4 SHL DUP2 MSTORE PUSH1 0x1 PUSH1 0x1 PUSH1 0xA0 SHL SUB DUP5 DUP2 AND PUSH1 0x4 DUP4 ADD MSTORE PUSH1 0x0 SWAP3 DUP4 SWAP3 SWAP2 AND SWAP1 PUSH4 0xD47875D0 SWAP1 PUSH1 0x24 ADD PUSH1 0xC0 PUSH1 0x40 MLOAD DUP1 DUP4 SUB DUP2 DUP7 GAS STATICCALL ISZERO DUP1 ISZERO PUSH2 0xB06 JUMPI RETURNDATASIZE PUSH1 0x0 DUP1 RETURNDATACOPY RETURNDATASIZE PUSH1 0x0 REVERT JUMPDEST POP POP POP POP PUSH1 0x40 MLOAD RETURNDATASIZE PUSH1 0x1F NOT PUSH1 0x1F DUP3 ADD AND DUP3 ADD DUP1 PUSH1 0x40 MSTORE POP DUP2 ADD SWAP1 PUSH2 0xB2A SWAP2 SWAP1 PUSH2 0x1C3E JUMP JUMPDEST PUSH1 0x1 PUSH1 0x1 PUSH1 0xA0 SHL SUB DUP5 AND PUSH1 0x0 SWAP1 DUP2 MSTORE PUSH1 0x4 PUSH1 0x20 MSTORE PUSH1 0x40 DUP2 KECCAK256 PUSH1 0x3 ADD SLOAD SWAP2 SWAP3 POP SWAP1 PUSH2 0xB53 SWAP1 PUSH2 0x1804 JUMP JUMPDEST SWAP1 POP PUSH1 0x0 PUSH2 0xB64 DUP4 PUSH1 0x20 ADD MLOAD PUSH2 0x18CB JUMP JUMPDEST SWAP1 POP PUSH2 0xB70 DUP2 DUP4 PUSH2 0x1BA4 JUMP JUMPDEST SWAP4 POP POP POP POP JUMPDEST SWAP3 SWAP2 POP POP JUMP JUMPDEST PUSH2 0xB84 PUSH2 0x1927 JUMP JUMPDEST PUSH1 0x1 PUSH1 0x1 PUSH1 0xA0 SHL SUB DUP4 AND PUSH2 0xBCF JUMPI PUSH1 0x40 MLOAD PUSH3 0x461BCD PUSH1 0xE5 SHL DUP2 MSTORE PUSH1 0x20 PUSH1 0x4 DUP3 ADD MSTORE PUSH1 0xD PUSH1 0x24 DUP3 ADD MSTORE PUSH13 0x125B9D985B1A5908185CDCD95D PUSH1 0x9A SHL PUSH1 0x44 DUP3 ADD MSTORE PUSH1 0x64 ADD JUMPDEST PUSH1 0x40 MLOAD DUP1 SWAP2 SUB SWAP1 REVERT JUMPDEST PUSH1 0x1 PUSH1 0x1 PUSH1 0xA0 SHL SUB DUP4 AND PUSH1 0x0 SWAP1 DUP2 MSTORE PUSH1 0x4 PUSH1 0x20 MSTORE PUSH1 0x40 SWAP1 KECCAK256 SLOAD PUSH1 0xFF AND PUSH2 0xCB6 JUMPI PUSH1 0x1 PUSH1 0x1 PUSH1 0xA0 SHL SUB DUP4 AND PUSH1 0x0 SWAP1 DUP2 MSTORE PUSH1 0x4 PUSH1 0x20 MSTORE PUSH1 0x40 SWAP1 KECCAK256 DUP1 SLOAD PUSH1 0xFF NOT AND PUSH1 0x1 OR SWAP1 SSTORE DUP2 ISZERO PUSH2 0xC64 JUMPI PUSH1 0x6 DUP1 SLOAD PUSH1 0x1 DUP2 ADD DUP3 SSTORE PUSH1 0x0 SWAP2 SWAP1 SWAP2 MSTORE PUSH32 0xF652222313E28459528D920B65115C16C04F3EFC82AAEDC97BE59F3F377C0D3F ADD DUP1 SLOAD PUSH1 0x1 PUSH1 0x1 PUSH1 0xA0 SHL SUB NOT AND PUSH1 0x1 PUSH1 0x1 PUSH1 0xA0 SHL SUB DUP6 AND OR SWAP1 SSTORE JUMPDEST DUP1 ISZERO PUSH2 0xCB6 JUMPI PUSH1 0x7 DUP1 SLOAD PUSH1 0x1 DUP2 ADD DUP3 SSTORE PUSH1 0x0 SWAP2 SWAP1 SWAP2 MSTORE PUSH32 0xA66CC928B5EDB82AF9BD49922954155AB7B0942694BEA4CE44661D9A8736C688 ADD DUP1 SLOAD PUSH1 0x1 PUSH1 0x1 PUSH1 0xA0 SHL SUB NOT AND PUSH1 0x1 PUSH1 0x1 PUSH1 0xA0 SHL SUB DUP6 AND OR SWAP1 SSTORE JUMPDEST PUSH1 0x40 DUP1 MLOAD DUP4 ISZERO ISZERO DUP2 MSTORE DUP3 ISZERO ISZERO PUSH1 0x20 DUP3 ADD MSTORE PUSH1 0x1 PUSH1 0x1 PUSH1 0xA0 SHL SUB DUP6 AND SWAP2 PUSH32 0x8BC71A89E23E1B1555D90680026DF00C8C54166DEB87792283570D478EB13B5C SWAP2 ADD PUSH1 0x40 MLOAD DUP1 SWAP2 SUB SWAP1 LOG2 POP POP POP JUMP JUMPDEST PUSH2 0xD3D PUSH1 0x40 MLOAD DUP1 PUSH1 0xC0 ADD PUSH1 0x40 MSTORE DUP1 PUSH1 0x0 ISZERO ISZERO DUP2 MSTORE PUSH1 0x20 ADD PUSH1 0x0 DUP2 MSTORE PUSH1 0x20 ADD PUSH1 0x0 DUP2 MSTORE PUSH1 0x20 ADD PUSH1 0x0 DUP2 MSTORE PUSH1 0x20 ADD PUSH1 0x0 DUP2 MSTORE PUSH1 0x20 ADD PUSH1 0x0 DUP2 MSTORE POP SWAP1 JUMP JUMPDEST POP PUSH1 0x1 PUSH1 0x1 PUSH1 0xA0 SHL SUB AND PUSH1 0x0 SWAP1 DUP2 MSTORE PUSH1 0x4 PUSH1 0x20 DUP2 DUP2 MSTORE PUSH1 0x40 SWAP3 DUP4 SWAP1 KECCAK256 DUP4 MLOAD PUSH1 0xC0 DUP2 ADD DUP6 MSTORE DUP2 SLOAD PUSH1 0xFF AND ISZERO ISZERO DUP2 MSTORE PUSH1 0x1 DUP3 ADD SLOAD SWAP3 DUP2 ADD SWAP3 SWAP1 SWAP3 MSTORE PUSH1 0x2 DUP2 ADD SLOAD SWAP4 DUP3 ADD SWAP4 SWAP1 SWAP4 MSTORE PUSH1 0x3 DUP4 ADD SLOAD PUSH1 0x60 DUP3 ADD MSTORE SWAP1 DUP3 ADD SLOAD PUSH1 0x80 DUP3 ADD MSTORE PUSH1 0x5 SWAP1 SWAP2 ADD SLOAD PUSH1 0xA0 DUP3 ADD MSTORE SWAP1 JUMP JUMPDEST PUSH2 0xDAB PUSH2 0x1927 JUMP JUMPDEST PUSH2 0xDB5 PUSH1 0x0 PUSH2 0x1954 JUMP JUMPDEST JUMP JUMPDEST PUSH2 0xDBF PUSH2 0x1927 JUMP JUMPDEST PUSH8 0x2C68AF0BB140000 DUP2 GT ISZERO PUSH2 0xE06 JUMPI PUSH1 0x40 MLOAD PUSH3 0x461BCD PUSH1 0xE5 SHL DUP2 MSTORE PUSH1 0x20 PUSH1 0x4 DUP3 ADD MSTORE PUSH1 0xC PUSH1 0x24 DUP3 ADD MSTORE PUSH12 0x8CCACA40E8DEDE40D0D2CED PUSH1 0xA3 SHL PUSH1 0x44 DUP3 ADD MSTORE PUSH1 0x64 ADD PUSH2 0xBC6 JUMP JUMPDEST PUSH1 0x8 SSTORE JUMP JUMPDEST PUSH2 0xE50 PUSH1 0x40 MLOAD DUP1 PUSH1 0xC0 ADD PUSH1 0x40 MSTORE DUP1 PUSH1 0x0 DUP2 MSTORE PUSH1 0x20 ADD PUSH1 0x0 DUP2 MSTORE PUSH1 0x20 ADD PUSH1 0x0 PUSH1 0x1 PUSH1 0x1 PUSH1 0xA0 SHL SUB AND DUP2 MSTORE PUSH1 0x20 ADD PUSH1 0x0 DUP2 MSTORE PUSH1 0x20 ADD PUSH1 0x0 DUP2 MSTORE PUSH1 0x20 ADD PUSH1 0x0 PUSH1 0xFF AND DUP2 MSTORE POP SWAP1 JUMP JUMPDEST POP PUSH1 0x1 PUSH1 0x1 PUSH1 0xA0 SHL SUB SWAP2 DUP3 AND PUSH1 0x0 SWAP1 DUP2 MSTORE PUSH1 0x3 PUSH1 0x20 DUP2 DUP2 MSTORE PUSH1 0x40 DUP1 DUP5 KECCAK256 SWAP5 DUP7 AND DUP5 MSTORE SWAP4 DUP2 MSTORE SWAP2 DUP4 SWAP1 KECCAK256 DUP4 MLOAD PUSH1 0xC0 DUP2 ADD DUP6 MSTORE DUP2 SLOAD DUP2 MSTORE PUSH1 0x1 DUP3 ADD SLOAD SWAP4 DUP2 ADD SWAP4 SWAP1 SWAP4 MSTORE PUSH1 0x2 DUP2 ADD SLOAD SWAP1 SWAP5 AND SWAP3 DUP3 ADD SWAP3 SWAP1 SWAP3 MSTORE SWAP1 DUP3 ADD SLOAD PUSH1 0x60 DUP3 ADD MSTORE PUSH1 0x4 DUP3 ADD SLOAD PUSH1 0x80 DUP3 ADD MSTORE PUSH1 0x5 SWAP1 SWAP2 ADD SLOAD PUSH1 0xFF AND PUSH1 0xA0 DUP3 ADD MSTORE SWAP1 JUMP JUMPDEST PUSH2 0xECC PUSH2 0x1927 JUMP JUMPDEST PUSH1 0x1 PUSH1 0x1 PUSH1 0xA0 SHL SUB DUP2 AND PUSH2 0xF15 JUMPI PUSH1 0x40 MLOAD PUSH3 0x461BCD PUSH1 0xE5 SHL DUP2 MSTORE PUSH1 0x20 PUSH1 0x4 DUP3 ADD MSTORE PUSH1 0x10 PUSH1 0x24 DUP3 ADD MSTORE PUSH16 0x496E76616C6964207472656173757279 PUSH1 0x80 SHL PUSH1 0x44 DUP3 ADD MSTORE PUSH1 0x64 ADD PUSH2 0xBC6 JUMP JUMPDEST PUSH1 0x9 DUP1 SLOAD PUSH1 0x1 PUSH1 0x1 PUSH1 0xA0 SHL SUB NOT AND PUSH1 0x1 PUSH1 0x1 PUSH1 0xA0 SHL SUB SWAP3 SWAP1 SWAP3 AND SWAP2 SWAP1 SWAP2 OR SWAP1 SSTORE JUMP JUMPDEST PUSH2 0xF3F PUSH2 0x1927 JUMP JUMPDEST PUSH1 0x1 PUSH1 0x1 PUSH1 0xA0 SHL SUB DUP2 AND PUSH2 0xF69 JUMPI PUSH1 0x40 MLOAD PUSH4 0x1E4FBDF7 PUSH1 0xE0 SHL DUP2 MSTORE PUSH1 0x0 PUSH1 0x4 DUP3 ADD MSTORE PUSH1 0x24 ADD PUSH2 0xBC6 JUMP JUMPDEST PUSH2 0xF72 DUP2 PUSH2 0x1954 JUMP JUMPDEST POP JUMP JUMPDEST PUSH2 0xF7D PUSH2 0x142D JUMP JUMPDEST CALLER PUSH1 0x0 SWAP1 DUP2 MSTORE PUSH1 0x5 PUSH1 0x20 SWAP1 DUP2 MSTORE PUSH1 0x40 DUP1 DUP4 KECCAK256 PUSH1 0x1 PUSH1 0x1 PUSH1 0xA0 SHL SUB DUP7 AND DUP5 MSTORE SWAP1 SWAP2 MSTORE SWAP1 KECCAK256 SLOAD DUP2 GT ISZERO PUSH2 0xFC1 JUMPI PUSH1 0x40 MLOAD PUSH4 0xBB55FD27 PUSH1 0xE0 SHL DUP2 MSTORE PUSH1 0x4 ADD PUSH1 0x40 MLOAD DUP1 SWAP2 SUB SWAP1 REVERT JUMPDEST PUSH1 0x1 PUSH1 0x1 PUSH1 0xA0 SHL SUB DUP3 AND PUSH1 0x0 SWAP1 DUP2 MSTORE PUSH1 0x4 PUSH1 0x20 MSTORE PUSH1 0x40 DUP2 KECCAK256 PUSH1 0x2 DUP2 ADD SLOAD PUSH1 0x1 SWAP1 SWAP2 ADD SLOAD PUSH2 0xFEE SWAP2 SWAP1 PUSH2 0x1BB7 JUMP JUMPDEST SWAP1 POP DUP2 DUP2 LT ISZERO PUSH2 0x1011 JUMPI PUSH1 0x40 MLOAD PUSH4 0xBB55FD27 PUSH1 0xE0 SHL DUP2 MSTORE PUSH1 0x4 ADD PUSH1 0x40 MLOAD DUP1 SWAP2 SUB SWAP1 REVERT JUMPDEST CALLER PUSH1 0x0 SWAP1 DUP2 MSTORE PUSH1 0x5 PUSH1 0x20 SWAP1 DUP2 MSTORE PUSH1 0x40 DUP1 DUP4 KECCAK256 PUSH1 0x1 PUSH1 0x1 PUSH1 0xA0 SHL SUB DUP8 AND DUP5 MSTORE SWAP1 SWAP2 MSTORE DUP2 KECCAK256 DUP1 SLOAD DUP5 SWAP3 SWAP1 PUSH2 0x1044 SWAP1 DUP5 SWAP1 PUSH2 0x1BB7 JUMP JUMPDEST SWAP1 SWAP2 SSTORE POP POP PUSH1 0x1 PUSH1 0x1 PUSH1 0xA0 SHL SUB DUP4 AND PUSH1 0x0 SWAP1 DUP2 MSTORE PUSH1 0x4 PUSH1 0x20 MSTORE PUSH1 0x40 DUP2 KECCAK256 PUSH1 0x1 ADD DUP1 SLOAD DUP5 SWAP3 SWAP1 PUSH2 0x1074 SWAP1 DUP5 SWAP1 PUSH2 0x1BB7 JUMP JUMPDEST SWAP1 SWAP2 SSTORE POP PUSH2 0x1083 SWAP1 POP DUP4 PUSH2 0x173F JUMP JUMPDEST PUSH2 0x1097 PUSH1 0x1 PUSH1 0x1 PUSH1 0xA0 SHL SUB DUP5 AND CALLER DUP5 PUSH2 0x166A JUMP JUMPDEST PUSH1 0x40 MLOAD DUP3 DUP2 MSTORE PUSH1 0x1 PUSH1 0x1 PUSH1 0xA0 SHL SUB DUP5 AND SWAP1 CALLER SWAP1 PUSH32 0x9B1BFA7FA9EE420A16E124F794C35AC9F90472ACC99140EB2F6447C714CAD8EB SWAP1 PUSH1 0x20 ADD PUSH1 0x40 MLOAD DUP1 SWAP2 SUB SWAP1 LOG3 POP PUSH2 0x7B0 PUSH1 0x1 DUP1 SSTORE JUMP JUMPDEST PUSH2 0x10E9 PUSH2 0x142D JUMP JUMPDEST PUSH1 0x1 PUSH1 0x1 PUSH1 0xA0 SHL SUB DUP5 AND PUSH1 0x0 SWAP1 DUP2 MSTORE PUSH1 0x4 PUSH1 0x20 MSTORE PUSH1 0x40 SWAP1 KECCAK256 SLOAD PUSH1 0xFF AND PUSH2 0x1122 JUMPI PUSH1 0x40 MLOAD PUSH4 0xA3BD9445 PUSH1 0xE0 SHL DUP2 MSTORE PUSH1 0x4 ADD PUSH1 0x40 MLOAD DUP1 SWAP2 SUB SWAP1 REVERT JUMPDEST DUP2 ISZERO DUP1 PUSH2 0x112D JUMPI POP DUP1 ISZERO JUMPDEST ISZERO PUSH2 0x114B JUMPI PUSH1 0x40 MLOAD PUSH4 0x162908E3 PUSH1 0xE1 SHL DUP2 MSTORE PUSH1 0x4 ADD PUSH1 0x40 MLOAD DUP1 SWAP2 SUB SWAP1 REVERT JUMPDEST PUSH1 0x2 SLOAD PUSH1 0x40 MLOAD PUSH4 0xD47875D PUSH1 0xE4 SHL DUP2 MSTORE CALLER PUSH1 0x4 DUP3 ADD MSTORE PUSH1 0x0 SWAP2 PUSH1 0x1 PUSH1 0x1 PUSH1 0xA0 SHL SUB AND SWAP1 PUSH4 0xD47875D0 SWAP1 PUSH1 0x24 ADD PUSH1 0xC0 PUSH1 0x40 MLOAD DUP1 DUP4 SUB DUP2 DUP7 GAS STATICCALL ISZERO DUP1 ISZERO PUSH2 0x1194 JUMPI RETURNDATASIZE PUSH1 0x0 DUP1 RETURNDATACOPY RETURNDATASIZE PUSH1 0x0 REVERT JUMPDEST POP POP POP POP PUSH1 0x40 MLOAD RETURNDATASIZE PUSH1 0x1F NOT PUSH1 0x1F DUP3 ADD AND DUP3 ADD DUP1 PUSH1 0x40 MSTORE POP DUP2 ADD SWAP1 PUSH2 0x11B8 SWAP2 SWAP1 PUSH2 0x1C3E JUMP JUMPDEST DUP1 MLOAD SWAP1 SWAP2 POP PUSH2 0xFFFF AND PUSH1 0x0 SUB PUSH2 0x11E1 JUMPI PUSH1 0x40 MLOAD PUSH4 0x1069B47 PUSH1 0xE2 SHL DUP2 MSTORE PUSH1 0x4 ADD PUSH1 0x40 MLOAD DUP1 SWAP2 SUB SWAP1 REVERT JUMPDEST PUSH1 0x0 PUSH2 0x11F0 DUP3 PUSH1 0x20 ADD MLOAD PUSH2 0x169B JUMP JUMPDEST SWAP1 POP PUSH1 0x0 DUP4 PUSH2 0x1207 DUP7 PUSH8 0xDE0B6B3A7640000 PUSH2 0x1BCA JUMP JUMPDEST PUSH2 0x1211 SWAP2 SWAP1 PUSH2 0x1BE1 JUMP JUMPDEST SWAP1 POP DUP2 DUP2 GT ISZERO PUSH2 0x1234 JUMPI PUSH1 0x40 MLOAD PUSH4 0x5296A209 PUSH1 0xE1 SHL DUP2 MSTORE PUSH1 0x4 ADD PUSH1 0x40 MLOAD DUP1 SWAP2 SUB SWAP1 REVERT JUMPDEST PUSH1 0x1 PUSH1 0x1 PUSH1 0xA0 SHL SUB DUP8 AND PUSH1 0x0 SWAP1 DUP2 MSTORE PUSH1 0x4 PUSH1 0x20 MSTORE PUSH1 0x40 DUP2 KECCAK256 PUSH1 0x2 DUP2 ADD SLOAD PUSH1 0x1 SWAP1 SWAP2 ADD SLOAD PUSH2 0x1261 SWAP2 SWAP1 PUSH2 0x1BB7 JUMP JUMPDEST SWAP1 POP DUP6 DUP2 LT ISZERO PUSH2 0x1284 JUMPI PUSH1 0x40 MLOAD PUSH4 0xBB55FD27 PUSH1 0xE0 SHL DUP2 MSTORE PUSH1 0x4 ADD PUSH1 0x40 MLOAD DUP1 SWAP2 SUB SWAP1 REVERT JUMPDEST PUSH2 0x1299 PUSH1 0x1 PUSH1 0x1 PUSH1 0xA0 SHL SUB DUP9 AND CALLER ADDRESS DUP9 PUSH2 0x1603 JUMP JUMPDEST CALLER PUSH1 0x0 SWAP1 DUP2 MSTORE PUSH1 0x3 PUSH1 0x20 SWAP1 DUP2 MSTORE PUSH1 0x40 DUP1 DUP4 KECCAK256 PUSH1 0x1 PUSH1 0x1 PUSH1 0xA0 SHL SUB DUP13 AND DUP5 MSTORE SWAP1 SWAP2 MSTORE DUP2 KECCAK256 DUP1 SLOAD SWAP1 SWAP2 DUP8 SWAP2 DUP4 SWAP2 SWAP1 PUSH2 0x12D0 SWAP1 DUP5 SWAP1 PUSH2 0x1BA4 JUMP JUMPDEST SWAP3 POP POP DUP2 SWAP1 SSTORE POP DUP7 DUP2 PUSH1 0x1 ADD PUSH1 0x0 DUP3 DUP3 SLOAD PUSH2 0x12EB SWAP2 SWAP1 PUSH2 0x1BA4 JUMP JUMPDEST SWAP1 SWAP2 SSTORE POP POP PUSH1 0x2 DUP2 ADD DUP1 SLOAD PUSH1 0x1 PUSH1 0x1 PUSH1 0xA0 SHL SUB NOT AND PUSH1 0x1 PUSH1 0x1 PUSH1 0xA0 SHL SUB DUP11 AND OR SWAP1 SSTORE TIMESTAMP PUSH1 0x3 DUP3 ADD SSTORE PUSH1 0x20 DUP6 ADD MLOAD PUSH1 0x5 DUP3 ADD DUP1 SLOAD PUSH1 0xFF NOT AND PUSH1 0xFF SWAP1 SWAP3 AND SWAP2 SWAP1 SWAP2 OR SWAP1 SSTORE PUSH2 0x1338 DUP7 DUP9 DUP7 PUSH2 0x170D JUMP JUMPDEST PUSH1 0x4 DUP3 ADD DUP2 SWAP1 SSTORE PUSH8 0xDE0B6B3A7640000 GT ISZERO PUSH2 0x1367 JUMPI PUSH1 0x40 MLOAD PUSH4 0x317416E5 PUSH1 0xE1 SHL DUP2 MSTORE PUSH1 0x4 ADD PUSH1 0x40 MLOAD DUP1 SWAP2 SUB SWAP1 REVERT JUMPDEST PUSH1 0x1 PUSH1 0x1 PUSH1 0xA0 SHL SUB DUP10 AND PUSH1 0x0 SWAP1 DUP2 MSTORE PUSH1 0x4 PUSH1 0x20 MSTORE PUSH1 0x40 DUP2 KECCAK256 PUSH1 0x2 ADD DUP1 SLOAD DUP10 SWAP3 SWAP1 PUSH2 0x1392 SWAP1 DUP5 SWAP1 PUSH2 0x1BA4 JUMP JUMPDEST SWAP1 SWAP2 SSTORE POP PUSH2 0x13A1 SWAP1 POP DUP10 PUSH2 0x173F JUMP JUMPDEST PUSH2 0x13B5 PUSH1 0x1 PUSH1 0x1 PUSH1 0xA0 SHL SUB DUP11 AND CALLER DUP10 PUSH2 0x166A JUMP JUMPDEST PUSH1 0x40 DUP1 MLOAD PUSH1 0x1 PUSH1 0x1 PUSH1 0xA0 SHL SUB DUP12 DUP2 AND DUP3 MSTORE DUP11 AND PUSH1 0x20 DUP3 ADD MSTORE SWAP1 DUP2 ADD DUP9 SWAP1 MSTORE PUSH1 0x60 DUP2 ADD DUP8 SWAP1 MSTORE CALLER SWAP1 PUSH32 0x96558A334F4759F0E7C423D68C84721860BD8FBF94DDC4E55158ECB125AD04B5 SWAP1 PUSH1 0x80 ADD PUSH1 0x40 MLOAD DUP1 SWAP2 SUB SWAP1 LOG2 POP POP POP POP POP PUSH2 0x1417 PUSH1 0x1 DUP1 SSTORE JUMP JUMPDEST POP POP POP POP JUMP JUMPDEST PUSH1 0x6 DUP2 DUP2 SLOAD DUP2 LT PUSH2 0x96C JUMPI PUSH1 0x0 DUP1 REVERT JUMPDEST PUSH1 0x2 PUSH1 0x1 SLOAD SUB PUSH2 0x1450 JUMPI PUSH1 0x40 MLOAD PUSH4 0x3EE5AEB5 PUSH1 0xE0 SHL DUP2 MSTORE PUSH1 0x4 ADD PUSH1 0x40 MLOAD DUP1 SWAP2 SUB SWAP1 REVERT JUMPDEST PUSH1 0x2 PUSH1 0x1 SSTORE JUMP JUMPDEST PUSH1 0x1 PUSH1 0x1 PUSH1 0xA0 SHL SUB DUP1 DUP4 AND PUSH1 0x0 SWAP1 DUP2 MSTORE PUSH1 0x3 PUSH1 0x20 DUP2 DUP2 MSTORE PUSH1 0x40 DUP1 DUP5 KECCAK256 SWAP5 DUP7 AND DUP5 MSTORE SWAP4 SWAP1 MSTORE SWAP2 DUP2 KECCAK256 SWAP2 DUP3 ADD SLOAD SWAP1 SWAP2 SWAP1 DUP3 SWAP1 PUSH2 0x1491 SWAP1 TIMESTAMP PUSH2 0x1BB7 JUMP JUMPDEST SWAP1 POP DUP1 PUSH1 0x0 SUB PUSH2 0x14A6 JUMPI PUSH1 0x0 SWAP3 POP POP POP PUSH2 0xB76 JUMP JUMPDEST PUSH1 0x2 SLOAD PUSH1 0x40 MLOAD PUSH4 0xD47875D PUSH1 0xE4 SHL DUP2 MSTORE PUSH1 0x1 PUSH1 0x1 PUSH1 0xA0 SHL SUB DUP8 DUP2 AND PUSH1 0x4 DUP4 ADD MSTORE PUSH1 0x0 SWAP3 AND SWAP1 PUSH4 0xD47875D0 SWAP1 PUSH1 0x24 ADD PUSH1 0xC0 PUSH1 0x40 MLOAD DUP1 DUP4 SUB DUP2 DUP7 GAS STATICCALL ISZERO DUP1 ISZERO PUSH2 0x14F1 JUMPI RETURNDATASIZE PUSH1 0x0 DUP1 RETURNDATACOPY RETURNDATASIZE PUSH1 0x0 REVERT JUMPDEST POP POP POP POP PUSH1 0x40 MLOAD RETURNDATASIZE PUSH1 0x1F NOT PUSH1 0x1F DUP3 ADD AND DUP3 ADD DUP1 PUSH1 0x40 MSTORE POP DUP2 ADD SWAP1 PUSH2 0x1515 SWAP2 SWAP1 PUSH2 0x1C3E JUMP JUMPDEST PUSH1 0x1 PUSH1 0x1 PUSH1 0xA0 SHL SUB DUP7 AND PUSH1 0x0 SWAP1 DUP2 MSTORE PUSH1 0x4 PUSH1 0x20 MSTORE PUSH1 0x40 DUP2 KECCAK256 PUSH1 0x3 ADD SLOAD SWAP2 SWAP3 POP SWAP1 PUSH2 0x153E SWAP1 PUSH2 0x1804 JUMP JUMPDEST SWAP1 POP PUSH1 0x0 PUSH2 0x154F DUP4 PUSH1 0x20 ADD MLOAD PUSH2 0x18CB JUMP JUMPDEST SWAP1 POP PUSH1 0x0 PUSH2 0x155D DUP3 DUP5 PUSH2 0x1BA4 JUMP JUMPDEST SWAP1 POP PUSH1 0x0 PUSH11 0x1A1601FC4EA7109E000000 DUP7 DUP4 DUP10 PUSH1 0x1 ADD SLOAD PUSH2 0x157E SWAP2 SWAP1 PUSH2 0x1BCA JUMP JUMPDEST PUSH2 0x1588 SWAP2 SWAP1 PUSH2 0x1BCA JUMP JUMPDEST PUSH2 0x1592 SWAP2 SWAP1 PUSH2 0x1BE1 JUMP JUMPDEST SWAP1 POP DUP1 DUP8 PUSH1 0x1 ADD PUSH1 0x0 DUP3 DUP3 SLOAD PUSH2 0x15A8 SWAP2 SWAP1 PUSH2 0x1BA4 JUMP JUMPDEST SWAP1 SWAP2 SSTORE POP POP TIMESTAMP PUSH1 0x3 DUP9 ADD SSTORE PUSH1 0x40 MLOAD DUP2 DUP2 MSTORE PUSH1 0x1 PUSH1 0x1 PUSH1 0xA0 SHL SUB DUP11 DUP2 AND SWAP2 SWAP1 DUP13 AND SWAP1 PUSH32 0x57E3FF78634498A95CC142CC79382787468C61CA807A728C4454E8095123E397 SWAP1 PUSH1 0x20 ADD PUSH1 0x40 MLOAD DUP1 SWAP2 SUB SWAP1 LOG3 SWAP10 SWAP9 POP POP POP POP POP POP POP POP POP JUMP JUMPDEST PUSH1 0x40 MLOAD PUSH1 0x1 PUSH1 0x1 PUSH1 0xA0 SHL SUB DUP5 DUP2 AND PUSH1 0x24 DUP4 ADD MSTORE DUP4 DUP2 AND PUSH1 0x44 DUP4 ADD MSTORE PUSH1 0x64 DUP3 ADD DUP4 SWAP1 MSTORE PUSH2 0x1417 SWAP2 DUP7 SWAP2 DUP3 AND SWAP1 PUSH4 0x23B872DD SWAP1 PUSH1 0x84 ADD JUMPDEST PUSH1 0x40 MLOAD PUSH1 0x20 DUP2 DUP4 SUB SUB DUP2 MSTORE SWAP1 PUSH1 0x40 MSTORE SWAP2 POP PUSH1 0xE0 SHL PUSH1 0x20 DUP3 ADD DUP1 MLOAD PUSH1 0x1 PUSH1 0x1 PUSH1 0xE0 SHL SUB DUP4 DUP2 DUP4 AND OR DUP4 MSTORE POP POP POP POP PUSH2 0x19A4 JUMP JUMPDEST PUSH1 0x40 MLOAD PUSH1 0x1 PUSH1 0x1 PUSH1 0xA0 SHL SUB DUP4 DUP2 AND PUSH1 0x24 DUP4 ADD MSTORE PUSH1 0x44 DUP3 ADD DUP4 SWAP1 MSTORE PUSH2 0x957 SWAP2 DUP6 SWAP2 DUP3 AND SWAP1 PUSH4 0xA9059CBB SWAP1 PUSH1 0x64 ADD PUSH2 0x1638 JUMP JUMPDEST PUSH1 0x0 DUP2 PUSH1 0xFF AND PUSH1 0x4 SUB PUSH2 0x16B7 JUMPI POP PUSH8 0xC7D713B49DA0000 SWAP2 SWAP1 POP JUMP JUMPDEST DUP2 PUSH1 0xFF AND PUSH1 0x3 SUB PUSH2 0x16D1 JUMPI POP PUSH8 0xA688906BD8B0000 SWAP2 SWAP1 POP JUMP JUMPDEST DUP2 PUSH1 0xFF AND PUSH1 0x2 SUB PUSH2 0x16EB JUMPI POP PUSH8 0x905438E60010000 SWAP2 SWAP1 POP JUMP JUMPDEST DUP2 PUSH1 0xFF AND PUSH1 0x1 SUB PUSH2 0x1705 JUMPI POP PUSH8 0x6F05B59D3B20000 SWAP2 SWAP1 POP JUMP JUMPDEST POP PUSH1 0x0 SWAP2 SWAP1 POP JUMP JUMPDEST PUSH1 0x0 DUP3 PUSH1 0x0 SUB PUSH2 0x1720 JUMPI POP PUSH1 0x0 NOT PUSH2 0x1738 JUMP JUMPDEST DUP3 PUSH2 0x172B DUP4 DUP7 PUSH2 0x1BCA JUMP JUMPDEST PUSH2 0x1735 SWAP2 SWAP1 PUSH2 0x1BE1 JUMP JUMPDEST SWAP1 POP JUMPDEST SWAP4 SWAP3 POP POP POP JUMP JUMPDEST PUSH1 0x1 PUSH1 0x1 PUSH1 0xA0 SHL SUB DUP2 AND PUSH1 0x0 SWAP1 DUP2 MSTORE PUSH1 0x4 PUSH1 0x20 MSTORE PUSH1 0x40 DUP2 KECCAK256 PUSH1 0x1 DUP2 ADD SLOAD SWAP1 SWAP2 SUB PUSH2 0x176F JUMPI PUSH1 0x0 PUSH1 0x3 DUP3 ADD SSTORE PUSH2 0x179B JUMP JUMPDEST PUSH1 0x1 DUP2 ADD SLOAD PUSH1 0x2 DUP3 ADD SLOAD PUSH2 0x178B SWAP1 PUSH8 0xDE0B6B3A7640000 PUSH2 0x1BCA JUMP JUMPDEST PUSH2 0x1795 SWAP2 SWAP1 PUSH2 0x1BE1 JUMP JUMPDEST PUSH1 0x3 DUP3 ADD SSTORE JUMPDEST PUSH2 0x17A8 DUP2 PUSH1 0x3 ADD SLOAD PUSH2 0x1804 JUMP JUMPDEST PUSH1 0x4 DUP3 ADD SSTORE PUSH1 0x8 SLOAD PUSH15 0xC097CE7BC90715B34B9F1000000000 SWAP1 PUSH2 0x17D3 SWAP1 PUSH8 0xDE0B6B3A7640000 PUSH2 0x1BB7 JUMP JUMPDEST DUP3 PUSH1 0x3 ADD SLOAD DUP4 PUSH1 0x4 ADD SLOAD PUSH2 0x17E7 SWAP2 SWAP1 PUSH2 0x1BCA JUMP JUMPDEST PUSH2 0x17F1 SWAP2 SWAP1 PUSH2 0x1BCA JUMP JUMPDEST PUSH2 0x17FB SWAP2 SWAP1 PUSH2 0x1BE1 JUMP JUMPDEST PUSH1 0x5 SWAP1 SWAP2 ADD SSTORE POP JUMP JUMPDEST PUSH1 0x0 PUSH8 0xB1A2BC2EC500000 DUP3 LT ISZERO PUSH2 0x184B JUMPI PUSH8 0xB1A2BC2EC500000 PUSH2 0x1830 PUSH7 0x8E1BC9BF040000 DUP5 PUSH2 0x1BCA JUMP JUMPDEST PUSH2 0x183A SWAP2 SWAP1 PUSH2 0x1BE1 JUMP JUMPDEST PUSH2 0xB76 SWAP1 PUSH7 0x470DE4DF820000 PUSH2 0x1BA4 JUMP JUMPDEST PUSH1 0x0 PUSH2 0x185F PUSH8 0xB1A2BC2EC500000 DUP5 PUSH2 0x1BB7 JUMP JUMPDEST SWAP1 POP PUSH1 0x0 PUSH2 0x187D PUSH8 0xB1A2BC2EC500000 PUSH8 0xDE0B6B3A7640000 PUSH2 0x1BB7 JUMP JUMPDEST SWAP1 POP DUP1 PUSH2 0x1892 PUSH8 0x853A0D2313C0000 DUP5 PUSH2 0x1BCA JUMP JUMPDEST PUSH2 0x189C SWAP2 SWAP1 PUSH2 0x1BE1 JUMP JUMPDEST PUSH2 0x18B4 PUSH7 0x8E1BC9BF040000 PUSH7 0x470DE4DF820000 PUSH2 0x1BA4 JUMP JUMPDEST PUSH2 0x18BE SWAP2 SWAP1 PUSH2 0x1BA4 JUMP JUMPDEST SWAP5 SWAP4 POP POP POP POP JUMP JUMPDEST SWAP2 SWAP1 POP JUMP JUMPDEST PUSH1 0x0 DUP2 PUSH1 0xFF AND PUSH1 0x4 SUB PUSH2 0x18E0 JUMPI POP PUSH1 0x0 SWAP2 SWAP1 POP JUMP JUMPDEST DUP2 PUSH1 0xFF AND PUSH1 0x3 SUB PUSH2 0x18F3 JUMPI POP PUSH1 0x32 SWAP2 SWAP1 POP JUMP JUMPDEST DUP2 PUSH1 0xFF AND PUSH1 0x2 SUB PUSH2 0x1906 JUMPI POP PUSH1 0x96 SWAP2 SWAP1 POP JUMP JUMPDEST DUP2 PUSH1 0xFF AND PUSH1 0x1 SUB PUSH2 0x191A JUMPI POP PUSH2 0x12C SWAP2 SWAP1 POP JUMP JUMPDEST PUSH2 0xB76 PUSH2 0x12C PUSH1 0x2 PUSH2 0x1BCA JUMP JUMPDEST PUSH1 0x0 SLOAD PUSH1 0x1 PUSH1 0x1 PUSH1 0xA0 SHL SUB AND CALLER EQ PUSH2 0xDB5 JUMPI PUSH1 0x40 MLOAD PUSH4 0x118CDAA7 PUSH1 0xE0 SHL DUP2 MSTORE CALLER PUSH1 0x4 DUP3 ADD MSTORE PUSH1 0x24 ADD PUSH2 0xBC6 JUMP JUMPDEST PUSH1 0x0 DUP1 SLOAD PUSH1 0x1 PUSH1 0x1 PUSH1 0xA0 SHL SUB DUP4 DUP2 AND PUSH1 0x1 PUSH1 0x1 PUSH1 0xA0 SHL SUB NOT DUP4 AND DUP2 OR DUP5 SSTORE PUSH1 0x40 MLOAD SWAP2 SWAP1 SWAP3 AND SWAP3 DUP4 SWAP2 PUSH32 0x8BE0079C531659141344CD1FD0A4F28419497F9722A3DAAFE3B4186F6B6457E0 SWAP2 SWAP1 LOG3 POP POP JUMP JUMPDEST PUSH1 0x0 DUP1 PUSH1 0x20 PUSH1 0x0 DUP5 MLOAD PUSH1 0x20 DUP7 ADD PUSH1 0x0 DUP9 GAS CALL DUP1 PUSH2 0x19C7 JUMPI PUSH1 0x40 MLOAD RETURNDATASIZE PUSH1 0x0 DUP3 RETURNDATACOPY RETURNDATASIZE DUP2 REVERT JUMPDEST POP POP PUSH1 0x0 MLOAD RETURNDATASIZE SWAP2 POP DUP2 ISZERO PUSH2 0x19DF JUMPI DUP1 PUSH1 0x1 EQ ISZERO PUSH2 0x19EC JUMP JUMPDEST PUSH1 0x1 PUSH1 0x1 PUSH1 0xA0 SHL SUB DUP5 AND EXTCODESIZE ISZERO JUMPDEST ISZERO PUSH2 0x1417 JUMPI PUSH1 0x40 MLOAD PUSH4 0x5274AFE7 PUSH1 0xE0 SHL DUP2 MSTORE PUSH1 0x1 PUSH1 0x1 PUSH1 0xA0 SHL SUB DUP6 AND PUSH1 0x4 DUP3 ADD MSTORE PUSH1 0x24 ADD PUSH2 0xBC6 JUMP JUMPDEST DUP1 CALLDATALOAD PUSH1 0x1 PUSH1 0x1 PUSH1 0xA0 SHL SUB DUP2 AND DUP2 EQ PUSH2 0x18C6 JUMPI PUSH1 0x0 DUP1 REVERT JUMPDEST PUSH1 0x0 DUP1 PUSH1 0x40 DUP4 DUP6 SUB SLT ISZERO PUSH2 0x1A3F JUMPI PUSH1 0x0 DUP1 REVERT JUMPDEST PUSH2 0x1A48 DUP4 PUSH2 0x1A15 JUMP JUMPDEST SWAP5 PUSH1 0x20 SWAP4 SWAP1 SWAP4 ADD CALLDATALOAD SWAP4 POP POP POP JUMP JUMPDEST PUSH1 0x0 DUP1 PUSH1 0x0 PUSH1 0x60 DUP5 DUP7 SUB SLT ISZERO PUSH2 0x1A6B JUMPI PUSH1 0x0 DUP1 REVERT JUMPDEST PUSH2 0x1A74 DUP5 PUSH2 0x1A15 JUMP JUMPDEST SWAP3 POP PUSH2 0x1A82 PUSH1 0x20 DUP6 ADD PUSH2 0x1A15 JUMP JUMPDEST SWAP2 POP PUSH1 0x40 DUP5 ADD CALLDATALOAD SWAP1 POP SWAP3 POP SWAP3 POP SWAP3 JUMP JUMPDEST PUSH1 0x0 PUSH1 0x20 DUP3 DUP5 SUB SLT ISZERO PUSH2 0x1AA4 JUMPI PUSH1 0x0 DUP1 REVERT JUMPDEST POP CALLDATALOAD SWAP2 SWAP1 POP JUMP JUMPDEST PUSH1 0x0 DUP1 PUSH1 0x40 DUP4 DUP6 SUB SLT ISZERO PUSH2 0x1ABE JUMPI PUSH1 0x0 DUP1 REVERT JUMPDEST PUSH2 0x1AC7 DUP4 PUSH2 0x1A15 JUMP JUMPDEST SWAP2 POP PUSH2 0x1AD5 PUSH1 0x20 DUP5 ADD PUSH2 0x1A15 JUMP JUMPDEST SWAP1 POP SWAP3 POP SWAP3 SWAP1 POP JUMP JUMPDEST DUP1 CALLDATALOAD DUP1 ISZERO ISZERO DUP2 EQ PUSH2 0x18C6 JUMPI PUSH1 0x0 DUP1 REVERT JUMPDEST PUSH1 0x0 DUP1 PUSH1 0x0 PUSH1 0x60 DUP5 DUP7 SUB SLT ISZERO PUSH2 0x1B03 JUMPI PUSH1 0x0 DUP1 REVERT JUMPDEST PUSH2 0x1B0C DUP5 PUSH2 0x1A15 JUMP JUMPDEST SWAP3 POP PUSH2 0x1B1A PUSH1 0x20 DUP6 ADD PUSH2 0x1ADE JUMP JUMPDEST SWAP2 POP PUSH2 0x1B28 PUSH1 0x40 DUP6 ADD PUSH2 0x1ADE JUMP JUMPDEST SWAP1 POP SWAP3 POP SWAP3 POP SWAP3 JUMP JUMPDEST PUSH1 0x0 PUSH1 0x20 DUP3 DUP5 SUB SLT ISZERO PUSH2 0x1B43 JUMPI PUSH1 0x0 DUP1 REVERT JUMPDEST PUSH2 0x1738 DUP3 PUSH2 0x1A15 JUMP JUMPDEST PUSH1 0x0 DUP1 PUSH1 0x0 DUP1 PUSH1 0x80 DUP6 DUP8 SUB SLT ISZERO PUSH2 0x1B62 JUMPI PUSH1 0x0 DUP1 REVERT JUMPDEST PUSH2 0x1B6B DUP6 PUSH2 0x1A15 JUMP JUMPDEST SWAP4 POP PUSH2 0x1B79 PUSH1 0x20 DUP7 ADD PUSH2 0x1A15 JUMP JUMPDEST SWAP4 SWAP7 SWAP4 SWAP6 POP POP POP POP PUSH1 0x40 DUP3 ADD CALLDATALOAD SWAP2 PUSH1 0x60 ADD CALLDATALOAD SWAP1 JUMP JUMPDEST PUSH4 0x4E487B71 PUSH1 0xE0 SHL PUSH1 0x0 MSTORE PUSH1 0x11 PUSH1 0x4 MSTORE PUSH1 0x24 PUSH1 0x0 REVERT JUMPDEST DUP1 DUP3 ADD DUP1 DUP3 GT ISZERO PUSH2 0xB76 JUMPI PUSH2 0xB76 PUSH2 0x1B8E JUMP JUMPDEST DUP2 DUP2 SUB DUP2 DUP2 GT ISZERO PUSH2 0xB76 JUMPI PUSH2 0xB76 PUSH2 0x1B8E JUMP JUMPDEST DUP1 DUP3 MUL DUP2 ISZERO DUP3 DUP3 DIV DUP5 EQ OR PUSH2 0xB76 JUMPI PUSH2 0xB76 PUSH2 0x1B8E JUMP JUMPDEST PUSH1 0x0 DUP3 PUSH2 0x1BFE JUMPI PUSH4 0x4E487B71 PUSH1 0xE0 SHL PUSH1 0x0 MSTORE PUSH1 0x12 PUSH1 0x4 MSTORE PUSH1 0x24 PUSH1 0x0 REVERT JUMPDEST POP DIV SWAP1 JUMP JUMPDEST DUP1 MLOAD PUSH2 0xFFFF DUP2 AND DUP2 EQ PUSH2 0x18C6 JUMPI PUSH1 0x0 DUP1 REVERT JUMPDEST DUP1 MLOAD PUSH1 0xFF DUP2 AND DUP2 EQ PUSH2 0x18C6 JUMPI PUSH1 0x0 DUP1 REVERT JUMPDEST DUP1 MLOAD PUSH8 0xFFFFFFFFFFFFFFFF DUP2 AND DUP2 EQ PUSH2 0x18C6 JUMPI PUSH1 0x0 DUP1 REVERT JUMPDEST PUSH1 0x0 PUSH1 0xC0 DUP3 DUP5 SUB SLT ISZERO PUSH2 0x1C50 JUMPI PUSH1 0x0 DUP1 REVERT JUMPDEST PUSH1 0x40 MLOAD PUSH1 0xC0 DUP2 ADD DUP2 DUP2 LT PUSH8 0xFFFFFFFFFFFFFFFF DUP3 GT OR ISZERO PUSH2 0x1C81 JUMPI PUSH4 0x4E487B71 PUSH1 0xE0 SHL PUSH1 0x0 MSTORE PUSH1 0x41 PUSH1 0x4 MSTORE PUSH1 0x24 PUSH1 0x0 REVERT JUMPDEST PUSH1 0x40 MSTORE PUSH2 0x1C8D DUP4 PUSH2 0x1C03 JUMP JUMPDEST DUP2 MSTORE PUSH2 0x1C9B PUSH1 0x20 DUP5 ADD PUSH2 0x1C15 JUMP JUMPDEST PUSH1 0x20 DUP3 ADD MSTORE PUSH2 0x1CAC PUSH1 0x40 DUP5 ADD PUSH2 0x1C15 JUMP JUMPDEST PUSH1 0x40 DUP3 ADD MSTORE PUSH2 0x1CBD PUSH1 0x60 DUP5 ADD PUSH2 0x1C03 JUMP JUMPDEST PUSH1 0x60 DUP3 ADD MSTORE PUSH2 0x1CCE PUSH1 0x80 DUP5 ADD PUSH2 0x1C26 JUMP JUMPDEST PUSH1 0x80 DUP3 ADD MSTORE PUSH2 0x1CDF PUSH1 0xA0 DUP5 ADD PUSH2 0x1C15 JUMP JUMPDEST PUSH1 0xA0 DUP3 ADD MSTORE SWAP4 SWAP3 POP POP POP JUMP INVALID LOG2 PUSH5 0x6970667358 0x22 SLT KECCAK256 0xBF 0xFC INVALID SHR 0xBA GASLIMIT DUP5 0xD7 PUSH11 0xC4FFDA1B8A75519F328A1D CHAINID SSTORE PUSH19 0x5109472CBAEF138DE164736F6C634300081400 CALLER "},"methodIdentifiers":{"BASE_RATE()":"41910f90","BRONZE_LTV()":"ead76e89","BRONZE_PREMIUM()":"816d61a8","GOLD_LTV()":"9d96b832","GOLD_PREMIUM()":"9853fe45","MIN_HEALTH_FACTOR()":"b5627e42","OPTIMAL_UTILIZATION()":"cf762dfa","PLATINUM_LTV()":"38160010","PLATINUM_PREMIUM()":"c2114499","SILVER_LTV()":"5bb115e9","SILVER_PREMIUM()":"8d98f40a","SLOPE_1()":"321105fb","SLOPE_2()":"3bf42d4b","assetConfigs(address)":"7609d7f6","borrow(address,address,uint256,uint256)":"fbf37739","creditRegistry()":"b015a5e8","deposit(address,uint256)":"47e7ef24","enableAsset(address,bool,bool)":"58e364a8","getAssetConfig(address)":"6ec3ab67","getBorrowRate(address,address)":"4c07b465","getPosition(address,address)":"b33dc190","liquidate(address,address,uint256)":"26c01303","lpDeposits(address,address)":"cd31a9e3","owner()":"8da5cb5b","positions(address,address)":"4bd21445","protocolFeePercentage()":"8e50e509","renounceOwnership()":"715018a6","repay(address,uint256)":"22867d78","setProtocolFee(uint256)":"787dce3d","setTreasury(address)":"f0f44260","supportedBorrowable(uint256)":"28729821","supportedCollateral(uint256)":"ff71fa22","transferOwnership(address)":"f2fde38b","treasury()":"61d027b3","withdraw(address,uint256)":"f3fef3a3"}}}}}