{"contracts/mocks/MockLendingPool.sol":{"MockLendingPool":{"abi":[{"inputs":[{"internalType":"uint256","name":"loanId","type":"uint256"}],"name":"getLoan","outputs":[{"internalType":"address","name":"borrower","type":"address"},{"internalType":"uint256","name":"collateralAmount","type":"uint256"},{"internalType":"uint256","name":"borrowedAmount","type":"uint256"},{"internalType":"uint256","name":"interestRate","type":"uint256"},{"internalType":"uint256","name":"startTime","type":"uint256"},{"internalType":"uint256","name":"duration","type":"uint256"},{"internalType":"bool","name":"isActive","type":"bool"}],"stateMutability":"view","type":"function"},{"inputs":[{"internalType":"uint256","name":"loanId","type":"uint256"},{"internalType":"address","name":"liquidator","type":"address"}],"name":"liquidateLoan","outputs":[],"stateMutability":"nonpayable","type":"function"},{"inputs":[{"internalType":"uint256","name":"","type":"uint256"}],"name":"loans","outputs":[{"internalType":"address","name":"borrower","type":"address"},{"internalType":"uint256","name":"collateralAmount","type":"uint256"},{"internalType":"uint256","name":"borrowedAmount","type":"uint256"},{"internalType":"uint256","name":"interestRate","type":"uint256"},{"internalType":"uint256","name":"startTime","type":"uint256"},{"internalType":"uint256","name":"duration","type":"uint256"},{"internalType":"bool","name":"isActive","type":"bool"}],"stateMutability":"view","type":"function"},{"inputs":[{"internalType":"uint256","name":"loanId","type":"uint256"},{"internalType":"address","name":"borrower","type":"address"},{"internalType":"uint256","name":"collateralAmount","type":"uint256"},{"internalType":"uint256","name":"borrowedAmount","type":"uint256"},{"internalType":"bool","name":"isActive","type":"bool"}],"name":"setLoan","outputs":[],"stateMutability":"nonpayable","type":"function"}],"evm":{"bytecode":{"linkReferences":{},"object":"608060405234801561001057600080fd5b5061034c806100206000396000f3fe608060405234801561001057600080fd5b506004361061004c5760003560e01c8063504006ca146100515780636cc6fdd51461012357806379b2e89f146101da578063e1ec3c6814610204575b600080fd5b6100de61005f36600461025c565b60009081526020818152604091829020825160e08101845281546001600160a01b031680825260018301549382018490526002830154948201859052600383015460608301819052600484015460808401819052600585015460a0850181905260069095015460ff16151560c090940184905291969495949093919290565b604080516001600160a01b0390981688526020880196909652948601939093526060850191909152608084015260a0830152151560c082015260e00160405180910390f35b6101d8610131366004610291565b6040805160e0810182526001600160a01b039586168152602080820195865281830194855260006060830181815242608085019081526301e1338060a0860190815296151560c086019081529a835292829052939020915182546001600160a01b0319169716969096178155935160018501559151600284015590516003830155915160048201559051600582015590516006909101805460ff1916911515919091179055565b005b6101d86101e83660046102ea565b506000908152602081905260409020600601805460ff19169055565b6100de61021236600461025c565b60006020819052908152604090208054600182015460028301546003840154600485015460058601546006909601546001600160a01b039095169593949293919290919060ff1687565b60006020828403121561026e57600080fd5b5035919050565b80356001600160a01b038116811461028c57600080fd5b919050565b600080600080600060a086880312156102a957600080fd5b853594506102b960208701610275565b93506040860135925060608601359150608086013580151581146102dc57600080fd5b809150509295509295909350565b600080604083850312156102fd57600080fd5b8235915061030d60208401610275565b9050925092905056fea26469706673582212204665f3309cd7c7305c886a67fc7fc63920e2c1745e156f06366c283cb26350db64736f6c63430008140033","opcodes":"PUSH1 0x80 PUSH1 0x40 MSTORE CALLVALUE DUP1 ISZERO PUSH2 0x10 JUMPI PUSH1 0x0 DUP1 REVERT JUMPDEST POP PUSH2 0x34C DUP1 PUSH2 0x20 PUSH1 0x0 CODECOPY PUSH1 0x0 RETURN INVALID PUSH1 0x80 PUSH1 0x40 MSTORE CALLVALUE DUP1 ISZERO PUSH2 0x10 JUMPI PUSH1 0x0 DUP1 REVERT JUMPDEST POP PUSH1 0x4 CALLDATASIZE LT PUSH2 0x4C JUMPI PUSH1 0x0 CALLDATALOAD PUSH1 0xE0 SHR DUP1 PUSH4 0x504006CA EQ PUSH2 0x51 JUMPI DUP1 PUSH4 0x6CC6FDD5 EQ PUSH2 0x123 JUMPI DUP1 PUSH4 0x79B2E89F EQ PUSH2 0x1DA JUMPI DUP1 PUSH4 0xE1EC3C68 EQ PUSH2 0x204 JUMPI JUMPDEST PUSH1 0x0 DUP1 REVERT JUMPDEST PUSH2 0xDE PUSH2 0x5F CALLDATASIZE PUSH1 0x4 PUSH2 0x25C JUMP JUMPDEST PUSH1 0x0 SWAP1 DUP2 MSTORE PUSH1 0x20 DUP2 DUP2 MSTORE PUSH1 0x40 SWAP2 DUP3 SWAP1 KECCAK256 DUP3 MLOAD PUSH1 0xE0 DUP2 ADD DUP5 MSTORE DUP2 SLOAD PUSH1 0x1 PUSH1 0x1 PUSH1 0xA0 SHL SUB AND DUP1 DUP3 MSTORE PUSH1 0x1 DUP4 ADD SLOAD SWAP4 DUP3 ADD DUP5 SWAP1 MSTORE PUSH1 0x2 DUP4 ADD SLOAD SWAP5 DUP3 ADD DUP6 SWAP1 MSTORE PUSH1 0x3 DUP4 ADD SLOAD PUSH1 0x60 DUP4 ADD DUP2 SWAP1 MSTORE PUSH1 0x4 DUP5 ADD SLOAD PUSH1 0x80 DUP5 ADD DUP2 SWAP1 MSTORE PUSH1 0x5 DUP6 ADD SLOAD PUSH1 0xA0 DUP6 ADD DUP2 SWAP1 MSTORE PUSH1 0x6 SWAP1 SWAP6 ADD SLOAD PUSH1 0xFF AND ISZERO ISZERO PUSH1 0xC0 SWAP1 SWAP5 ADD DUP5 SWAP1 MSTORE SWAP2 SWAP7 SWAP5 SWAP6 SWAP5 SWAP1 SWAP4 SWAP2 SWAP3 SWAP1 JUMP JUMPDEST PUSH1 0x40 DUP1 MLOAD PUSH1 0x1 PUSH1 0x1 PUSH1 0xA0 SHL SUB SWAP1 SWAP9 AND DUP9 MSTORE PUSH1 0x20 DUP9 ADD SWAP7 SWAP1 SWAP7 MSTORE SWAP5 DUP7 ADD SWAP4 SWAP1 SWAP4 MSTORE PUSH1 0x60 DUP6 ADD SWAP2 SWAP1 SWAP2 MSTORE PUSH1 0x80 DUP5 ADD MSTORE PUSH1 0xA0 DUP4 ADD MSTORE ISZERO ISZERO PUSH1 0xC0 DUP3 ADD MSTORE PUSH1 0xE0 ADD PUSH1 0x40 MLOAD DUP1 SWAP2 SUB SWAP1 RETURN JUMPDEST PUSH2 0x1D8 PUSH2 0x131 CALLDATASIZE PUSH1 0x4 PUSH2 0x291 JUMP JUMPDEST PUSH1 0x40 DUP1 MLOAD PUSH1 0xE0 DUP2 ADD DUP3 MSTORE PUSH1 0x1 PUSH1 0x1 PUSH1 0xA0 SHL SUB SWAP6 DUP7 AND DUP2 MSTORE PUSH1 0x20 DUP1 DUP3 ADD SWAP6 DUP7 MSTORE DUP2 DUP4 ADD SWAP5 DUP6 MSTORE PUSH1 0x0 PUSH1 0x60 DUP4 ADD DUP2 DUP2 MSTORE TIMESTAMP PUSH1 0x80 DUP6 ADD SWAP1 DUP2 MSTORE PUSH4 0x1E13380 PUSH1 0xA0 DUP7 ADD SWAP1 DUP2 MSTORE SWAP7 ISZERO ISZERO PUSH1 0xC0 DUP7 ADD SWAP1 DUP2 MSTORE SWAP11 DUP4 MSTORE SWAP3 DUP3 SWAP1 MSTORE SWAP4 SWAP1 KECCAK256 SWAP2 MLOAD DUP3 SLOAD PUSH1 0x1 PUSH1 0x1 PUSH1 0xA0 SHL SUB NOT AND SWAP8 AND SWAP7 SWAP1 SWAP7 OR DUP2 SSTORE SWAP4 MLOAD PUSH1 0x1 DUP6 ADD SSTORE SWAP2 MLOAD PUSH1 0x2 DUP5 ADD SSTORE SWAP1 MLOAD PUSH1 0x3 DUP4 ADD SSTORE SWAP2 MLOAD PUSH1 0x4 DUP3 ADD SSTORE SWAP1 MLOAD PUSH1 0x5 DUP3 ADD SSTORE SWAP1 MLOAD PUSH1 0x6 SWAP1 SWAP2 ADD DUP1 SLOAD PUSH1 0xFF NOT AND SWAP2 ISZERO ISZERO SWAP2 SWAP1 SWAP2 OR SWAP1 SSTORE JUMP JUMPDEST STOP JUMPDEST PUSH2 0x1D8 PUSH2 0x1E8 CALLDATASIZE PUSH1 0x4 PUSH2 0x2EA JUMP JUMPDEST POP PUSH1 0x0 SWAP1 DUP2 MSTORE PUSH1 0x20 DUP2 SWAP1 MSTORE PUSH1 0x40 SWAP1 KECCAK256 PUSH1 0x6 ADD DUP1 SLOAD PUSH1 0xFF NOT AND SWAP1 SSTORE JUMP JUMPDEST PUSH2 0xDE PUSH2 0x212 CALLDATASIZE PUSH1 0x4 PUSH2 0x25C JUMP JUMPDEST PUSH1 0x0 PUSH1 0x20 DUP2 SWAP1 MSTORE SWAP1 DUP2 MSTORE PUSH1 0x40 SWAP1 KECCAK256 DUP1 SLOAD PUSH1 0x1 DUP3 ADD SLOAD PUSH1 0x2 DUP4 ADD SLOAD PUSH1 0x3 DUP5 ADD SLOAD PUSH1 0x4 DUP6 ADD SLOAD PUSH1 0x5 DUP7 ADD SLOAD PUSH1 0x6 SWAP1 SWAP7 ADD SLOAD PUSH1 0x1 PUSH1 0x1 PUSH1 0xA0 SHL SUB SWAP1 SWAP6 AND SWAP6 SWAP4 SWAP5 SWAP3 SWAP4 SWAP2 SWAP3 SWAP1 SWAP2 SWAP1 PUSH1 0xFF AND DUP8 JUMP JUMPDEST PUSH1 0x0 PUSH1 0x20 DUP3 DUP5 SUB SLT ISZERO PUSH2 0x26E JUMPI PUSH1 0x0 DUP1 REVERT JUMPDEST POP CALLDATALOAD SWAP2 SWAP1 POP JUMP JUMPDEST DUP1 CALLDATALOAD PUSH1 0x1 PUSH1 0x1 PUSH1 0xA0 SHL SUB DUP2 AND DUP2 EQ PUSH2 0x28C JUMPI PUSH1 0x0 DUP1 REVERT JUMPDEST SWAP2 SWAP1 POP JUMP JUMPDEST PUSH1 0x0 DUP1 PUSH1 0x0 DUP1 PUSH1 0x0 PUSH1 0xA0 DUP7 DUP9 SUB SLT ISZERO PUSH2 0x2A9 JUMPI PUSH1 0x0 DUP1 REVERT JUMPDEST DUP6 CALLDATALOAD SWAP5 POP PUSH2 0x2B9 PUSH1 0x20 DUP8 ADD PUSH2 0x275 JUMP JUMPDEST SWAP4 POP PUSH1 0x40 DUP7 ADD CALLDATALOAD SWAP3 POP PUSH1 0x60 DUP7 ADD CALLDATALOAD SWAP2 POP PUSH1 0x80 DUP7 ADD CALLDATALOAD DUP1 ISZERO ISZERO DUP2 EQ PUSH2 0x2DC JUMPI PUSH1 0x0 DUP1 REVERT JUMPDEST DUP1 SWAP2 POP POP SWAP3 SWAP6 POP SWAP3 SWAP6 SWAP1 SWAP4 POP JUMP JUMPDEST PUSH1 0x0 DUP1 PUSH1 0x40 DUP4 DUP6 SUB SLT ISZERO PUSH2 0x2FD JUMPI PUSH1 0x0 DUP1 REVERT JUMPDEST DUP3 CALLDATALOAD SWAP2 POP PUSH2 0x30D PUSH1 0x20 DUP5 ADD PUSH2 0x275 JUMP JUMPDEST SWAP1 POP SWAP3 POP SWAP3 SWAP1 POP JUMP INVALID LOG2 PUSH5 0x6970667358 0x22 SLT KECCAK256 CHAINID PUSH6 0xF3309CD7C730 0x5C DUP9 PUSH11 0x67FC7FC63920E2C1745E15 PUSH16 0x6366C283CB26350DB64736F6C634300 ADDMOD EQ STOP CALLER "},"methodIdentifiers":{"getLoan(uint256)":"504006ca","liquidateLoan(uint256,address)":"79b2e89f","loans(uint256)":"e1ec3c68","setLoan(uint256,address,uint256,uint256,bool)":"6cc6fdd5"}}}}}