{"contracts/ScoreOraclePhase3B.sol":{"ScoreOraclePhase3B":{"abi":[{"inputs":[{"internalType":"address payable","name":"_registry","type":"address"}],"stateMutability":"nonpayable","type":"constructor"},{"inputs":[{"internalType":"address","name":"owner","type":"address"}],"name":"OwnableInvalidOwner","type":"error"},{"inputs":[{"internalType":"address","name":"account","type":"address"}],"name":"OwnableUnauthorizedAccount","type":"error"},{"anonymous":false,"inputs":[{"indexed":true,"internalType":"uint64","name":"chainSelector","type":"uint64"}],"name":"ChainSelectorAdded","type":"event"},{"anonymous":false,"inputs":[{"indexed":true,"internalType":"uint64","name":"chainSelector","type":"uint64"}],"name":"ChainSelectorRemoved","type":"event"},{"anonymous":false,"inputs":[{"indexed":true,"internalType":"address","name":"previousOwner","type":"address"},{"indexed":true,"internalType":"address","name":"newOwner","type":"address"}],"name":"OwnershipTransferred","type":"event"},{"inputs":[],"name":"TIER_GOLD","outputs":[{"internalType":"uint16","name":"","type":"uint16"}],"stateMutability":"view","type":"function"},{"inputs":[],"name":"TIER_PLATINUM","outputs":[{"internalType":"uint16","name":"","type":"uint16"}],"stateMutability":"view","type":"function"},{"inputs":[],"name":"TIER_SILVER","outputs":[{"internalType":"uint16","name":"","type":"uint16"}],"stateMutability":"view","type":"function"},{"inputs":[{"internalType":"uint64","name":"chainSelector","type":"uint64"}],"name":"addChainSelector","outputs":[],"stateMutability":"nonpayable","type":"function"},{"inputs":[{"internalType":"address","name":"subject","type":"address"}],"name":"computeScore","outputs":[{"components":[{"internalType":"uint16","name":"overall","type":"uint16"},{"internalType":"uint8","name":"s1_repayment","type":"uint8"},{"internalType":"uint8","name":"s2_collateral","type":"uint8"},{"internalType":"uint8","name":"s3_sybil","type":"uint8"},{"internalType":"uint8","name":"s4_crossChain","type":"uint8"},{"internalType":"uint8","name":"s5_governance","type":"uint8"},{"internalType":"int16","name":"s3_raw","type":"int16"}],"internalType":"struct ScoreOraclePhase3B.ScoreBreakdown","name":"","type":"tuple"}],"stateMutability":"view","type":"function"},{"inputs":[{"internalType":"uint16","name":"overall","type":"uint16"}],"name":"getAPR","outputs":[{"internalType":"uint16","name":"aprBps","type":"uint16"}],"stateMutability":"pure","type":"function"},{"inputs":[{"internalType":"uint16","name":"overall","type":"uint16"}],"name":"getScoreTier","outputs":[{"internalType":"enum ScoreOraclePhase3B.ScoreTier","name":"","type":"uint8"}],"stateMutability":"pure","type":"function"},{"inputs":[],"name":"getSupportedChainSelectors","outputs":[{"internalType":"uint64[]","name":"","type":"uint64[]"}],"stateMutability":"view","type":"function"},{"inputs":[{"internalType":"uint64","name":"","type":"uint64"}],"name":"isSupportedChain","outputs":[{"internalType":"bool","name":"","type":"bool"}],"stateMutability":"view","type":"function"},{"inputs":[],"name":"owner","outputs":[{"internalType":"address","name":"","type":"address"}],"stateMutability":"view","type":"function"},{"inputs":[],"name":"registry","outputs":[{"internalType":"contract CreditRegistryV3","name":"","type":"address"}],"stateMutability":"view","type":"function"},{"inputs":[{"internalType":"uint64","name":"chainSelector","type":"uint64"}],"name":"removeChainSelector","outputs":[],"stateMutability":"nonpayable","type":"function"},{"inputs":[],"name":"renounceOwnership","outputs":[],"stateMutability":"nonpayable","type":"function"},{"inputs":[{"internalType":"uint256","name":"","type":"uint256"}],"name":"supportedChainSelectors","outputs":[{"internalType":"uint64","name":"","type":"uint64"}],"stateMutability":"view","type":"function"},{"inputs":[{"internalType":"address","name":"newOwner","type":"address"}],"name":"transferOwnership","outputs":[],"stateMutability":"nonpayable","type":"function"}],"evm":{"bytecode":{"linkReferences":{},"object":"60806040523480156200001157600080fd5b5060405162001f3a38038062001f3a83398101604081905262000034916200020f565b33806200005c57604051631e4fbdf760e01b8152600060048201526024015b60405180910390fd5b6200006781620000c3565b50600180546001600160a01b0319166001600160a01b0383161790556200009667304611b6affba76a62000113565b620000a96748810ec3e431431f62000113565b620000bc678f90b8876dee653862000113565b5062000241565b600080546001600160a01b038381166001600160a01b0319831681178455604051919092169283917f8be0079c531659141344cd1fd0a4f28419497f9722a3daafe3b4186f6b6457e09190a35050565b6001600160401b03811660009081526003602052604090205460ff1615620001725760405162461bcd60e51b8152602060048201526011602482015270105b1c9958591e481cdd5c1c1bdc9d1959607a1b604482015260640162000053565b600280546001818101909255600481047f405787fa12a823e0f2b7631cc41b3ba8828b3321ca811111fa75cd3aa3bb5ace0180546001600160401b0380861660086003958616026101000a8181029202199092161790915560008181526020929092526040808320805460ff191690941790935591517f6ce9b4dda1a396a1e08009bbd610b75b33f10171ca06d9d261959738596364a99190a250565b6000602082840312156200022257600080fd5b81516001600160a01b03811681146200023a57600080fd5b9392505050565b611ce980620002516000396000f3fe608060405234801561001057600080fd5b50600436106100f55760003560e01c8063962b74f711610097578063d86b56f711610066578063d86b56f71461029c578063e3d3f843146102a4578063f2fde38b146102ac578063fb4ceaa3146102bf57600080fd5b8063962b74f7146101b75780639a46e412146101e25780639c0c87b5146101fd578063c5d46dfc1461021d57600080fd5b8063715018a6116100d3578063715018a6146101405780637b103999146101485780638926f54f146101735780638da5cb5b146101a657600080fd5b806339a2efb6146100fa5780635f09323d1461010f5780636bb12fd91461012d575b600080fd5b61010d610108366004611639565b6102d2565b005b6101176104c5565b6040516101249190611669565b60405180910390f35b61010d61013b366004611639565b61054f565b61010d610563565b60015461015b906001600160a01b031681565b6040516001600160a01b039091168152602001610124565b610196610181366004611639565b60036020526000908152604090205460ff1681565b6040519015158152602001610124565b6000546001600160a01b031661015b565b6101ca6101c53660046116b6565b610577565b6040516001600160401b039091168152602001610124565b6101ea603c81565b60405161ffff9091168152602001610124565b61021061020b3660046116df565b6105b4565b6040516101249190611712565b61023061022b36600461174f565b6105fa565b6040516101249190600060e08201905061ffff835116825260ff602084015116602083015260ff604084015116604083015260ff606084015116606083015260ff608084015116608083015260ff60a08401511660a083015260c083015160010b60c083015292915050565b6101ea605a81565b6101ea604b81565b61010d6102ba36600461174f565b61074a565b6101ea6102cd3660046116df565b610785565b6102da6107f9565b6001600160401b03811660009081526003602052604090205460ff166103375760405162461bcd60e51b815260206004820152600d60248201526c139bdd081cdd5c1c1bdc9d1959609a1b60448201526064015b60405180910390fd5b60005b60025481101561047b57816001600160401b0316600282815481106103615761036161176c565b6000918252602090912060048204015460039091166008026101000a90046001600160401b031603610469576002805461039d90600190611798565b815481106103ad576103ad61176c565b90600052602060002090600491828204019190066008029054906101000a90046001600160401b0316600282815481106103e9576103e961176c565b90600052602060002090600491828204019190066008026101000a8154816001600160401b0302191690836001600160401b031602179055506002805480610433576104336117b1565b60008281526020902060046000199092019182040180546001600160401b03600860038516026101000a0219169055905561047b565b80610473816117c7565b91505061033a565b506001600160401b038116600081815260036020526040808220805460ff19169055517f489cbdb4a41d0f01921ac1a9b59baf9d844209be7a4145cf4dade327c45f00969190a250565b6060600280548060200260200160405190810160405280929190818152602001828054801561054557602002820191906000526020600020906000905b82829054906101000a90046001600160401b03166001600160401b0316815260200190600801906020826007010492830192600103820291508084116105025790505b5050505050905090565b6105576107f9565b61056081610826565b50565b61056b6107f9565b6105756000610920565b565b6002818154811061058757600080fd5b9060005260206000209060049182820401919006600802915054906101000a90046001600160401b031681565b6000605a61ffff8316106105ca57506003919050565b604b61ffff8316106105de57506002919050565b603c61ffff8316106105f257506001919050565b506000919050565b6040805160e081018252600080825260208201819052918101829052606081018290526080810182905260a0810182905260c081018290529061063c83610970565b9050600061064984610b77565b9050600061065685610efb565b9050600061066382611226565b9050600061067087611297565b9050600061067d8861144a565b90506000606461069160ff8416600a6117e0565b61069f60ff8616600a6117e0565b6106ad60ff881660146117e0565b6106bb60ff8b1660146117e0565b6106c960ff8d1660286117e0565b6106d391906117f7565b6106dd91906117f7565b6106e791906117f7565b6106f191906117f7565b6106fb9190611820565b6040805160e08101825261ffff909216825260ff9889166020830152968816968101969096525091851660608501528416608084015290921660a082015260019190910b60c082015292915050565b6107526107f9565b6001600160a01b03811661077c57604051631e4fbdf760e01b81526000600482015260240161032e565b61056081610920565b6000605a61ffff83161061079c5750610190919050565b604b61ffff8316106107b15750610258919050565b603c61ffff8316106107c65750610320919050565b602d8261ffff16106107db57506103e8919050565b601e8261ffff16106107f057506104b0919050565b506105dc919050565b6000546001600160a01b031633146105755760405163118cdaa760e01b815233600482015260240161032e565b6001600160401b03811660009081526003602052604090205460ff16156108835760405162461bcd60e51b8152602060048201526011602482015270105b1c9958591e481cdd5c1c1bdc9d1959607a1b604482015260640161032e565b600280546001818101909255600481047f405787fa12a823e0f2b7631cc41b3ba8828b3321ca811111fa75cd3aa3bb5ace0180546001600160401b0380861660086003958616026101000a8181029202199092161790915560008181526020929092526040808320805460ff191690941790935591517f6ce9b4dda1a396a1e08009bbd610b75b33f10171ca06d9d261959738596364a99190a250565b600080546001600160a01b038381166001600160a01b0319831681178455604051919092169283917f8be0079c531659141344cd1fd0a4f28419497f9722a3daafe3b4186f6b6457e09190a35050565b6001546040516346dc972760e11b81526001600160a01b0383811660048301526000928392911690638db92e4e90602401600060405180830381865afa1580156109be573d6000803e3d6000fd5b505050506040513d6000823e601f3d908101601f191682016040526109e691908101906118e7565b905080516000036109fa5750603292915050565b8051600080805b8451811015610b0a5760015485516000916001600160a01b03169063504006ca90889085908110610a3457610a3461176c565b60200260200101516040518263ffffffff1660e01b8152600401610a5a91815260200190565b60e060405180830381865afa158015610a77573d6000803e3d6000fd5b505050506040513d601f19601f82011682018060405250810190610a9b9190611981565b905060028160a001516003811115610ab557610ab56116fc565b03610acc5783610ac4816117c7565b945050610af7565b60038160a001516003811115610ae457610ae46116fc565b03610af75782610af3816117c7565b9350505b5080610b02816117c7565b915050610a01565b50600083610b198460646117e0565b610b239190611820565b90506000610b328360146117e0565b610b3c9083611a01565b90506000811215610b5557506000979650505050505050565b6064811315610b6c57506064979650505050505050565b979650505050505050565b6001546040516346dc972760e11b81526001600160a01b0383811660048301526000928392911690638db92e4e90602401600060405180830381865afa158015610bc5573d6000803e3d6000fd5b505050506040513d6000823e601f3d908101601f19168201604052610bed91908101906118e7565b90508051600003610c015750603292915050565b6000806000808451905060005b8551811015610d525760015486516000916001600160a01b03169063f410879490899085908110610c4157610c4161176c565b60200260200101516040518263ffffffff1660e01b8152600401610c6791815260200190565b608060405180830381865afa158015610c84573d6000803e3d6000fd5b505050506040513d601f19601f82011682018060405250810190610ca89190611a28565b602081015190915015610d3f576020810151610cc490876117f7565b9550806040015185610cd691906117f7565b94506000816020015182604001516064610cf091906117e0565b610cfa9190611820565b90506000610d0b83606001516115f3565b61ffff1690506064610d1e82605f6117e0565b610d289190611820565b8210610d3c5785610d38816117c7565b9650505b50505b5080610d4a816117c7565b915050610c0e565b5082600003610d68575060329695505050505050565b600083610d768660646117e0565b610d809190611820565b9050600060c88210610d9457506064610dc8565b60968210610da45750604b610dc8565b60788210610db457506032610dc8565b60648210610dc457506019610dc8565b5060005b600083610dd68660646117e0565b610de09190611820565b90506000604b821115610df557506028610e02565b6032821115610e02575060145b600154604051632dd91bb760e11b81526001600160a01b038d811660048301526000921690635bb2376e90602401600060405180830381865afa158015610e4d573d6000803e3d6000fd5b505050506040513d6000823e601f3d908101601f19168201604052610e759190810190611a7f565b905060006003825110610e8a57506014610e97565b6002825110610e975750600a5b600081610ea48588611a01565b610eae9190611b0d565b90506000811215610ecd575060009d9c50505050505050505050505050565b6064811315610eea575060649d9c50505050505050505050505050565b9d9c50505050505050505050505050565b600154604051632a5bb1b760e11b81526001600160a01b03838116600483015260009283929116906354b7636e90602401602060405180830381865afa158015610f49573d6000803e3d6000fd5b505050506040513d601f19601f82011682018060405250810190610f6d9190611b35565b15610f8457610f7d609682611b0d565b9050610f92565b610f8f609682611a01565b90505b600154604051630e470e6560e21b81526001600160a01b038581166004830152600092169063391c399490602401602060405180830381865afa158015610fdd573d6000803e3d6000fd5b505050506040513d601f19601f820116820180604052508101906110019190611b57565b90508060000361101e5761101761012c83611a01565b9150611092565b600061102a8242611798565b905062278d0081101561104a5761104361012c84611a01565b9250611090565b6276a7008110156110605761104360c884611a01565b62ed4e0081101561107657611043606484611a01565b6301e133808110156110905761108d603284611a01565b92505b505b60015460405163c345315360e01b81526001600160a01b038681166004830152600092169063c3453153906024016040805180830381865afa1580156110dc573d6000803e3d6000fd5b505050506040513d601f19601f820116820180604052508101906111009190611b70565b9050683635c9adc5dea0000081600001511061112857611121604b84611b0d565b9250611163565b8051681b1ae4d6e2ef5000001161114457611121603284611b0d565b805168056bc75e2d631000001161116357611160601984611b0d565b92505b6001546040516346dc972760e11b81526001600160a01b0387811660048301526000921690638db92e4e90602401600060405180830381865afa1580156111ae573d6000803e3d6000fd5b505050506040513d6000823e601f3d908101601f191682016040526111d691908101906118e7565b519050600a81106111f3576111ec603285611b0d565b935061121c565b60058110611206576111ec601e85611b0d565b6003811061121c57611219600f85611b0d565b93505b5091949350505050565b60006101c1196101278261123a8383611a01565b905060008161124d85600189900b611a01565b611258906064611bbe565b6112629190611bee565b905060008112156112795750600095945050505050565b606481131561128e5750606495945050505050565b95945050505050565b60008080805b6002548110156113a0576000600282815481106112bc576112bc61176c565b6000918252602082206004808304909101546001546040516340c7e39d60e01b81526001600160a01b038c81169482019490945260039094166008026101000a9091046001600160401b031660248401819052945016906340c7e39d90604401608060405180830381865afa158015611339573d6000803e3d6000fd5b505050506040513d601f19601f8201168201806040525081019061135d9190611c1c565b60608101519091501561138b5784611374816117c7565b8251909650611388915061ffff16856117f7565b93505b50508080611398906117c7565b91505061129d565b50816000036113b3575060009392505050565b60006113bf8383611820565b90506000604b82106113d357506064611407565b603c82106113e35750604b611407565b602d82106113f357506032611407565b601e821061140357506019611407565b5060005b60006003851061141957506014611425565b600285106114255750600a5b600061143182846117f7565b90506064811115610b6c57506064979650505050505050565b6001546040516302a5ef7960e21b81526001600160a01b0383811660048301526000928392911690630a97bde490602401608060405180830381865afa158015611498573d6000803e3d6000fd5b505050506040513d601f19601f820116820180604052508101906114bc9190611c6d565b9050600060148260000151106114de576114d76028826117f7565b905061151d565b8151600a116114f2576114d7601e826117f7565b8151600511611506576114d76014826117f7565b815160011161151d5761151a600a826117f7565b90505b600582602001511061153b57611534601e826117f7565b905061156c565b6003826020015110611552576115346014826117f7565b600182602001511061156c57611569600a826117f7565b90505b600082604001514261157e9190611798565b6040840151909150156115d75762278d008110156115a8576115a1601e836117f7565b91506115d7565b6276a7008110156115be576115a16014836117f7565b62ed4e008110156115d7576115d4600a836117f7565b91505b60648211156115eb57506064949350505050565b509392505050565b6000605a61ffff8316106116095750605a919050565b604b61ffff83161061161d57506050919050565b603c61ffff83161061163157506046919050565b506032919050565b60006020828403121561164b57600080fd5b81356001600160401b038116811461166257600080fd5b9392505050565b6020808252825182820181905260009190848201906040850190845b818110156116aa5783516001600160401b031683529284019291840191600101611685565b50909695505050505050565b6000602082840312156116c857600080fd5b5035919050565b61ffff8116811461056057600080fd5b6000602082840312156116f157600080fd5b8135611662816116cf565b634e487b7160e01b600052602160045260246000fd5b602081016004831061173457634e487b7160e01b600052602160045260246000fd5b91905290565b6001600160a01b038116811461056057600080fd5b60006020828403121561176157600080fd5b81356116628161173a565b634e487b7160e01b600052603260045260246000fd5b634e487b7160e01b600052601160045260246000fd5b818103818111156117ab576117ab611782565b92915050565b634e487b7160e01b600052603160045260246000fd5b6000600182016117d9576117d9611782565b5060010190565b80820281158282048414176117ab576117ab611782565b808201808211156117ab576117ab611782565b634e487b7160e01b600052601260045260246000fd5b60008261182f5761182f61180a565b500490565b634e487b7160e01b600052604160045260246000fd5b60405160e081016001600160401b038111828210171561186c5761186c611834565b60405290565b604051608081016001600160401b038111828210171561186c5761186c611834565b604051601f8201601f191681016001600160401b03811182821017156118bc576118bc611834565b604052919050565b60006001600160401b038211156118dd576118dd611834565b5060051b60200190565b600060208083850312156118fa57600080fd5b82516001600160401b0381111561191057600080fd5b8301601f8101851361192157600080fd5b805161193461192f826118c4565b611894565b81815260059190911b8201830190838101908783111561195357600080fd5b928401925b82841015610b6c57835182529284019290840190611958565b805161197c8161173a565b919050565b600060e0828403121561199357600080fd5b61199b61184a565b8251815260208301516119ad8161173a565b8060208301525060408301516040820152606083015160608201526080830151608082015260a0830151600481106119e457600080fd5b60a08201526119f560c08401611971565b60c08201529392505050565b8181036000831280158383131683831282161715611a2157611a21611782565b5092915050565b600060808284031215611a3a57600080fd5b611a42611872565b8251611a4d8161173a565b8082525060208301516020820152604083015160408201526060830151611a73816116cf565b60608201529392505050565b60006020808385031215611a9257600080fd5b82516001600160401b03811115611aa857600080fd5b8301601f81018513611ab957600080fd5b8051611ac761192f826118c4565b81815260059190911b82018301908381019087831115611ae657600080fd5b928401925b82841015610b6c578351611afe8161173a565b82529284019290840190611aeb565b8082018281126000831280158216821582161715611b2d57611b2d611782565b505092915050565b600060208284031215611b4757600080fd5b8151801515811461166257600080fd5b600060208284031215611b6957600080fd5b5051919050565b600060408284031215611b8257600080fd5b604051604081018181106001600160401b0382111715611ba457611ba4611834565b604052825181526020928301519281019290925250919050565b80820260008212600160ff1b84141615611bda57611bda611782565b81810583148215176117ab576117ab611782565b600082611bfd57611bfd61180a565b600160ff1b821460001984141615611c1757611c17611782565b500590565b600060808284031215611c2e57600080fd5b611c36611872565b8251611c41816116cf565b808252506020830151602082015260408301516040820152606083015160608201528091505092915050565b600060808284031215611c7f57600080fd5b611c87611872565b82518152602083015160208201526040830151604082015260608301516060820152809150509291505056fea26469706673582212204ecb396893711d485d2aa95476c0c3bfabce67ba7ac724271a71f7b0f8b0bb7f64736f6c63430008140033","opcodes":"PUSH1 0x80 PUSH1 0x40 MSTORE CALLVALUE DUP1 ISZERO PUSH3 0x11 JUMPI PUSH1 0x0 DUP1 REVERT JUMPDEST POP PUSH1 0x40 MLOAD PUSH3 0x1F3A CODESIZE SUB DUP1 PUSH3 0x1F3A DUP4 CODECOPY DUP2 ADD PUSH1 0x40 DUP2 SWAP1 MSTORE PUSH3 0x34 SWAP2 PUSH3 0x20F JUMP JUMPDEST CALLER DUP1 PUSH3 0x5C JUMPI PUSH1 0x40 MLOAD PUSH4 0x1E4FBDF7 PUSH1 0xE0 SHL DUP2 MSTORE PUSH1 0x0 PUSH1 0x4 DUP3 ADD MSTORE PUSH1 0x24 ADD JUMPDEST PUSH1 0x40 MLOAD DUP1 SWAP2 SUB SWAP1 REVERT JUMPDEST PUSH3 0x67 DUP2 PUSH3 0xC3 JUMP JUMPDEST POP PUSH1 0x1 DUP1 SLOAD PUSH1 0x1 PUSH1 0x1 PUSH1 0xA0 SHL SUB NOT AND PUSH1 0x1 PUSH1 0x1 PUSH1 0xA0 SHL SUB DUP4 AND OR SWAP1 SSTORE PUSH3 0x96 PUSH8 0x304611B6AFFBA76A PUSH3 0x113 JUMP JUMPDEST PUSH3 0xA9 PUSH8 0x48810EC3E431431F PUSH3 0x113 JUMP JUMPDEST PUSH3 0xBC PUSH8 0x8F90B8876DEE6538 PUSH3 0x113 JUMP JUMPDEST POP PUSH3 0x241 JUMP JUMPDEST PUSH1 0x0 DUP1 SLOAD PUSH1 0x1 PUSH1 0x1 PUSH1 0xA0 SHL SUB DUP4 DUP2 AND PUSH1 0x1 PUSH1 0x1 PUSH1 0xA0 SHL SUB NOT DUP4 AND DUP2 OR DUP5 SSTORE PUSH1 0x40 MLOAD SWAP2 SWAP1 SWAP3 AND SWAP3 DUP4 SWAP2 PUSH32 0x8BE0079C531659141344CD1FD0A4F28419497F9722A3DAAFE3B4186F6B6457E0 SWAP2 SWAP1 LOG3 POP POP JUMP JUMPDEST PUSH1 0x1 PUSH1 0x1 PUSH1 0x40 SHL SUB DUP2 AND PUSH1 0x0 SWAP1 DUP2 MSTORE PUSH1 0x3 PUSH1 0x20 MSTORE PUSH1 0x40 SWAP1 KECCAK256 SLOAD PUSH1 0xFF AND ISZERO PUSH3 0x172 JUMPI PUSH1 0x40 MLOAD PUSH3 0x461BCD PUSH1 0xE5 SHL DUP2 MSTORE PUSH1 0x20 PUSH1 0x4 DUP3 ADD MSTORE PUSH1 0x11 PUSH1 0x24 DUP3 ADD MSTORE PUSH17 0x105B1C9958591E481CDD5C1C1BDC9D1959 PUSH1 0x7A SHL PUSH1 0x44 DUP3 ADD MSTORE PUSH1 0x64 ADD PUSH3 0x53 JUMP JUMPDEST PUSH1 0x2 DUP1 SLOAD PUSH1 0x1 DUP2 DUP2 ADD SWAP1 SWAP3 SSTORE PUSH1 0x4 DUP2 DIV PUSH32 0x405787FA12A823E0F2B7631CC41B3BA8828B3321CA811111FA75CD3AA3BB5ACE ADD DUP1 SLOAD PUSH1 0x1 PUSH1 0x1 PUSH1 0x40 SHL SUB DUP1 DUP7 AND PUSH1 0x8 PUSH1 0x3 SWAP6 DUP7 AND MUL PUSH2 0x100 EXP DUP2 DUP2 MUL SWAP3 MUL NOT SWAP1 SWAP3 AND OR SWAP1 SWAP2 SSTORE PUSH1 0x0 DUP2 DUP2 MSTORE PUSH1 0x20 SWAP3 SWAP1 SWAP3 MSTORE PUSH1 0x40 DUP1 DUP4 KECCAK256 DUP1 SLOAD PUSH1 0xFF NOT AND SWAP1 SWAP5 OR SWAP1 SWAP4 SSTORE SWAP2 MLOAD PUSH32 0x6CE9B4DDA1A396A1E08009BBD610B75B33F10171CA06D9D261959738596364A9 SWAP2 SWAP1 LOG2 POP JUMP JUMPDEST PUSH1 0x0 PUSH1 0x20 DUP3 DUP5 SUB SLT ISZERO PUSH3 0x222 JUMPI PUSH1 0x0 DUP1 REVERT JUMPDEST DUP2 MLOAD PUSH1 0x1 PUSH1 0x1 PUSH1 0xA0 SHL SUB DUP2 AND DUP2 EQ PUSH3 0x23A JUMPI PUSH1 0x0 DUP1 REVERT JUMPDEST SWAP4 SWAP3 POP POP POP JUMP JUMPDEST PUSH2 0x1CE9 DUP1 PUSH3 0x251 PUSH1 0x0 CODECOPY PUSH1 0x0 RETURN INVALID PUSH1 0x80 PUSH1 0x40 MSTORE CALLVALUE DUP1 ISZERO PUSH2 0x10 JUMPI PUSH1 0x0 DUP1 REVERT JUMPDEST POP PUSH1 0x4 CALLDATASIZE LT PUSH2 0xF5 JUMPI PUSH1 0x0 CALLDATALOAD PUSH1 0xE0 SHR DUP1 PUSH4 0x962B74F7 GT PUSH2 0x97 JUMPI DUP1 PUSH4 0xD86B56F7 GT PUSH2 0x66 JUMPI DUP1 PUSH4 0xD86B56F7 EQ PUSH2 0x29C JUMPI DUP1 PUSH4 0xE3D3F843 EQ PUSH2 0x2A4 JUMPI DUP1 PUSH4 0xF2FDE38B EQ PUSH2 0x2AC JUMPI DUP1 PUSH4 0xFB4CEAA3 EQ PUSH2 0x2BF JUMPI PUSH1 0x0 DUP1 REVERT JUMPDEST DUP1 PUSH4 0x962B74F7 EQ PUSH2 0x1B7 JUMPI DUP1 PUSH4 0x9A46E412 EQ PUSH2 0x1E2 JUMPI DUP1 PUSH4 0x9C0C87B5 EQ PUSH2 0x1FD JUMPI DUP1 PUSH4 0xC5D46DFC EQ PUSH2 0x21D JUMPI PUSH1 0x0 DUP1 REVERT JUMPDEST DUP1 PUSH4 0x715018A6 GT PUSH2 0xD3 JUMPI DUP1 PUSH4 0x715018A6 EQ PUSH2 0x140 JUMPI DUP1 PUSH4 0x7B103999 EQ PUSH2 0x148 JUMPI DUP1 PUSH4 0x8926F54F EQ PUSH2 0x173 JUMPI DUP1 PUSH4 0x8DA5CB5B EQ PUSH2 0x1A6 JUMPI PUSH1 0x0 DUP1 REVERT JUMPDEST DUP1 PUSH4 0x39A2EFB6 EQ PUSH2 0xFA JUMPI DUP1 PUSH4 0x5F09323D EQ PUSH2 0x10F JUMPI DUP1 PUSH4 0x6BB12FD9 EQ PUSH2 0x12D JUMPI JUMPDEST PUSH1 0x0 DUP1 REVERT JUMPDEST PUSH2 0x10D PUSH2 0x108 CALLDATASIZE PUSH1 0x4 PUSH2 0x1639 JUMP JUMPDEST PUSH2 0x2D2 JUMP JUMPDEST STOP JUMPDEST PUSH2 0x117 PUSH2 0x4C5 JUMP JUMPDEST PUSH1 0x40 MLOAD PUSH2 0x124 SWAP2 SWAP1 PUSH2 0x1669 JUMP JUMPDEST PUSH1 0x40 MLOAD DUP1 SWAP2 SUB SWAP1 RETURN JUMPDEST PUSH2 0x10D PUSH2 0x13B CALLDATASIZE PUSH1 0x4 PUSH2 0x1639 JUMP JUMPDEST PUSH2 0x54F JUMP JUMPDEST PUSH2 0x10D PUSH2 0x563 JUMP JUMPDEST PUSH1 0x1 SLOAD PUSH2 0x15B SWAP1 PUSH1 0x1 PUSH1 0x1 PUSH1 0xA0 SHL SUB AND DUP2 JUMP JUMPDEST PUSH1 0x40 MLOAD PUSH1 0x1 PUSH1 0x1 PUSH1 0xA0 SHL SUB SWAP1 SWAP2 AND DUP2 MSTORE PUSH1 0x20 ADD PUSH2 0x124 JUMP JUMPDEST PUSH2 0x196 PUSH2 0x181 CALLDATASIZE PUSH1 0x4 PUSH2 0x1639 JUMP JUMPDEST PUSH1 0x3 PUSH1 0x20 MSTORE PUSH1 0x0 SWAP1 DUP2 MSTORE PUSH1 0x40 SWAP1 KECCAK256 SLOAD PUSH1 0xFF AND DUP2 JUMP JUMPDEST PUSH1 0x40 MLOAD SWAP1 ISZERO ISZERO DUP2 MSTORE PUSH1 0x20 ADD PUSH2 0x124 JUMP JUMPDEST PUSH1 0x0 SLOAD PUSH1 0x1 PUSH1 0x1 PUSH1 0xA0 SHL SUB AND PUSH2 0x15B JUMP JUMPDEST PUSH2 0x1CA PUSH2 0x1C5 CALLDATASIZE PUSH1 0x4 PUSH2 0x16B6 JUMP JUMPDEST PUSH2 0x577 JUMP JUMPDEST PUSH1 0x40 MLOAD PUSH1 0x1 PUSH1 0x1 PUSH1 0x40 SHL SUB SWAP1 SWAP2 AND DUP2 MSTORE PUSH1 0x20 ADD PUSH2 0x124 JUMP JUMPDEST PUSH2 0x1EA PUSH1 0x3C DUP2 JUMP JUMPDEST PUSH1 0x40 MLOAD PUSH2 0xFFFF SWAP1 SWAP2 AND DUP2 MSTORE PUSH1 0x20 ADD PUSH2 0x124 JUMP JUMPDEST PUSH2 0x210 PUSH2 0x20B CALLDATASIZE PUSH1 0x4 PUSH2 0x16DF JUMP JUMPDEST PUSH2 0x5B4 JUMP JUMPDEST PUSH1 0x40 MLOAD PUSH2 0x124 SWAP2 SWAP1 PUSH2 0x1712 JUMP JUMPDEST PUSH2 0x230 PUSH2 0x22B CALLDATASIZE PUSH1 0x4 PUSH2 0x174F JUMP JUMPDEST PUSH2 0x5FA JUMP JUMPDEST PUSH1 0x40 MLOAD PUSH2 0x124 SWAP2 SWAP1 PUSH1 0x0 PUSH1 0xE0 DUP3 ADD SWAP1 POP PUSH2 0xFFFF DUP4 MLOAD AND DUP3 MSTORE PUSH1 0xFF PUSH1 0x20 DUP5 ADD MLOAD AND PUSH1 0x20 DUP4 ADD MSTORE PUSH1 0xFF PUSH1 0x40 DUP5 ADD MLOAD AND PUSH1 0x40 DUP4 ADD MSTORE PUSH1 0xFF PUSH1 0x60 DUP5 ADD MLOAD AND PUSH1 0x60 DUP4 ADD MSTORE PUSH1 0xFF PUSH1 0x80 DUP5 ADD MLOAD AND PUSH1 0x80 DUP4 ADD MSTORE PUSH1 0xFF PUSH1 0xA0 DUP5 ADD MLOAD AND PUSH1 0xA0 DUP4 ADD MSTORE PUSH1 0xC0 DUP4 ADD MLOAD PUSH1 0x1 SIGNEXTEND PUSH1 0xC0 DUP4 ADD MSTORE SWAP3 SWAP2 POP POP JUMP JUMPDEST PUSH2 0x1EA PUSH1 0x5A DUP2 JUMP JUMPDEST PUSH2 0x1EA PUSH1 0x4B DUP2 JUMP JUMPDEST PUSH2 0x10D PUSH2 0x2BA CALLDATASIZE PUSH1 0x4 PUSH2 0x174F JUMP JUMPDEST PUSH2 0x74A JUMP JUMPDEST PUSH2 0x1EA PUSH2 0x2CD CALLDATASIZE PUSH1 0x4 PUSH2 0x16DF JUMP JUMPDEST PUSH2 0x785 JUMP JUMPDEST PUSH2 0x2DA PUSH2 0x7F9 JUMP JUMPDEST PUSH1 0x1 PUSH1 0x1 PUSH1 0x40 SHL SUB DUP2 AND PUSH1 0x0 SWAP1 DUP2 MSTORE PUSH1 0x3 PUSH1 0x20 MSTORE PUSH1 0x40 SWAP1 KECCAK256 SLOAD PUSH1 0xFF AND PUSH2 0x337 JUMPI PUSH1 0x40 MLOAD PUSH3 0x461BCD PUSH1 0xE5 SHL DUP2 MSTORE PUSH1 0x20 PUSH1 0x4 DUP3 ADD MSTORE PUSH1 0xD PUSH1 0x24 DUP3 ADD MSTORE PUSH13 0x139BDD081CDD5C1C1BDC9D1959 PUSH1 0x9A SHL PUSH1 0x44 DUP3 ADD MSTORE PUSH1 0x64 ADD JUMPDEST PUSH1 0x40 MLOAD DUP1 SWAP2 SUB SWAP1 REVERT JUMPDEST PUSH1 0x0 JUMPDEST PUSH1 0x2 SLOAD DUP2 LT ISZERO PUSH2 0x47B JUMPI DUP2 PUSH1 0x1 PUSH1 0x1 PUSH1 0x40 SHL SUB AND PUSH1 0x2 DUP3 DUP2 SLOAD DUP2 LT PUSH2 0x361 JUMPI PUSH2 0x361 PUSH2 0x176C JUMP JUMPDEST PUSH1 0x0 SWAP2 DUP3 MSTORE PUSH1 0x20 SWAP1 SWAP2 KECCAK256 PUSH1 0x4 DUP3 DIV ADD SLOAD PUSH1 0x3 SWAP1 SWAP2 AND PUSH1 0x8 MUL PUSH2 0x100 EXP SWAP1 DIV PUSH1 0x1 PUSH1 0x1 PUSH1 0x40 SHL SUB AND SUB PUSH2 0x469 JUMPI PUSH1 0x2 DUP1 SLOAD PUSH2 0x39D SWAP1 PUSH1 0x1 SWAP1 PUSH2 0x1798 JUMP JUMPDEST DUP2 SLOAD DUP2 LT PUSH2 0x3AD JUMPI PUSH2 0x3AD PUSH2 0x176C JUMP JUMPDEST SWAP1 PUSH1 0x0 MSTORE PUSH1 0x20 PUSH1 0x0 KECCAK256 SWAP1 PUSH1 0x4 SWAP2 DUP3 DUP3 DIV ADD SWAP2 SWAP1 MOD PUSH1 0x8 MUL SWAP1 SLOAD SWAP1 PUSH2 0x100 EXP SWAP1 DIV PUSH1 0x1 PUSH1 0x1 PUSH1 0x40 SHL SUB AND PUSH1 0x2 DUP3 DUP2 SLOAD DUP2 LT PUSH2 0x3E9 JUMPI PUSH2 0x3E9 PUSH2 0x176C JUMP JUMPDEST SWAP1 PUSH1 0x0 MSTORE PUSH1 0x20 PUSH1 0x0 KECCAK256 SWAP1 PUSH1 0x4 SWAP2 DUP3 DUP3 DIV ADD SWAP2 SWAP1 MOD PUSH1 0x8 MUL PUSH2 0x100 EXP DUP2 SLOAD DUP2 PUSH1 0x1 PUSH1 0x1 PUSH1 0x40 SHL SUB MUL NOT AND SWAP1 DUP4 PUSH1 0x1 PUSH1 0x1 PUSH1 0x40 SHL SUB AND MUL OR SWAP1 SSTORE POP PUSH1 0x2 DUP1 SLOAD DUP1 PUSH2 0x433 JUMPI PUSH2 0x433 PUSH2 0x17B1 JUMP JUMPDEST PUSH1 0x0 DUP3 DUP2 MSTORE PUSH1 0x20 SWAP1 KECCAK256 PUSH1 0x4 PUSH1 0x0 NOT SWAP1 SWAP3 ADD SWAP2 DUP3 DIV ADD DUP1 SLOAD PUSH1 0x1 PUSH1 0x1 PUSH1 0x40 SHL SUB PUSH1 0x8 PUSH1 0x3 DUP6 AND MUL PUSH2 0x100 EXP MUL NOT AND SWAP1 SSTORE SWAP1 SSTORE PUSH2 0x47B JUMP JUMPDEST DUP1 PUSH2 0x473 DUP2 PUSH2 0x17C7 JUMP JUMPDEST SWAP2 POP POP PUSH2 0x33A JUMP JUMPDEST POP PUSH1 0x1 PUSH1 0x1 PUSH1 0x40 SHL SUB DUP2 AND PUSH1 0x0 DUP2 DUP2 MSTORE PUSH1 0x3 PUSH1 0x20 MSTORE PUSH1 0x40 DUP1 DUP3 KECCAK256 DUP1 SLOAD PUSH1 0xFF NOT AND SWAP1 SSTORE MLOAD PUSH32 0x489CBDB4A41D0F01921AC1A9B59BAF9D844209BE7A4145CF4DADE327C45F0096 SWAP2 SWAP1 LOG2 POP JUMP JUMPDEST PUSH1 0x60 PUSH1 0x2 DUP1 SLOAD DUP1 PUSH1 0x20 MUL PUSH1 0x20 ADD PUSH1 0x40 MLOAD SWAP1 DUP2 ADD PUSH1 0x40 MSTORE DUP1 SWAP3 SWAP2 SWAP1 DUP2 DUP2 MSTORE PUSH1 0x20 ADD DUP3 DUP1 SLOAD DUP1 ISZERO PUSH2 0x545 JUMPI PUSH1 0x20 MUL DUP3 ADD SWAP2 SWAP1 PUSH1 0x0 MSTORE PUSH1 0x20 PUSH1 0x0 KECCAK256 SWAP1 PUSH1 0x0 SWAP1 JUMPDEST DUP3 DUP3 SWAP1 SLOAD SWAP1 PUSH2 0x100 EXP SWAP1 DIV PUSH1 0x1 PUSH1 0x1 PUSH1 0x40 SHL SUB AND PUSH1 0x1 PUSH1 0x1 PUSH1 0x40 SHL SUB AND DUP2 MSTORE PUSH1 0x20 ADD SWAP1 PUSH1 0x8 ADD SWAP1 PUSH1 0x20 DUP3 PUSH1 0x7 ADD DIV SWAP3 DUP4 ADD SWAP3 PUSH1 0x1 SUB DUP3 MUL SWAP2 POP DUP1 DUP5 GT PUSH2 0x502 JUMPI SWAP1 POP JUMPDEST POP POP POP POP POP SWAP1 POP SWAP1 JUMP JUMPDEST PUSH2 0x557 PUSH2 0x7F9 JUMP JUMPDEST PUSH2 0x560 DUP2 PUSH2 0x826 JUMP JUMPDEST POP JUMP JUMPDEST PUSH2 0x56B PUSH2 0x7F9 JUMP JUMPDEST PUSH2 0x575 PUSH1 0x0 PUSH2 0x920 JUMP JUMPDEST JUMP JUMPDEST PUSH1 0x2 DUP2 DUP2 SLOAD DUP2 LT PUSH2 0x587 JUMPI PUSH1 0x0 DUP1 REVERT JUMPDEST SWAP1 PUSH1 0x0 MSTORE PUSH1 0x20 PUSH1 0x0 KECCAK256 SWAP1 PUSH1 0x4 SWAP2 DUP3 DUP3 DIV ADD SWAP2 SWAP1 MOD PUSH1 0x8 MUL SWAP2 POP SLOAD SWAP1 PUSH2 0x100 EXP SWAP1 DIV PUSH1 0x1 PUSH1 0x1 PUSH1 0x40 SHL SUB AND DUP2 JUMP JUMPDEST PUSH1 0x0 PUSH1 0x5A PUSH2 0xFFFF DUP4 AND LT PUSH2 0x5CA JUMPI POP PUSH1 0x3 SWAP2 SWAP1 POP JUMP JUMPDEST PUSH1 0x4B PUSH2 0xFFFF DUP4 AND LT PUSH2 0x5DE JUMPI POP PUSH1 0x2 SWAP2 SWAP1 POP JUMP JUMPDEST PUSH1 0x3C PUSH2 0xFFFF DUP4 AND LT PUSH2 0x5F2 JUMPI POP PUSH1 0x1 SWAP2 SWAP1 POP JUMP JUMPDEST POP PUSH1 0x0 SWAP2 SWAP1 POP JUMP JUMPDEST PUSH1 0x40 DUP1 MLOAD PUSH1 0xE0 DUP2 ADD DUP3 MSTORE PUSH1 0x0 DUP1 DUP3 MSTORE PUSH1 0x20 DUP3 ADD DUP2 SWAP1 MSTORE SWAP2 DUP2 ADD DUP3 SWAP1 MSTORE PUSH1 0x60 DUP2 ADD DUP3 SWAP1 MSTORE PUSH1 0x80 DUP2 ADD DUP3 SWAP1 MSTORE PUSH1 0xA0 DUP2 ADD DUP3 SWAP1 MSTORE PUSH1 0xC0 DUP2 ADD DUP3 SWAP1 MSTORE SWAP1 PUSH2 0x63C DUP4 PUSH2 0x970 JUMP JUMPDEST SWAP1 POP PUSH1 0x0 PUSH2 0x649 DUP5 PUSH2 0xB77 JUMP JUMPDEST SWAP1 POP PUSH1 0x0 PUSH2 0x656 DUP6 PUSH2 0xEFB JUMP JUMPDEST SWAP1 POP PUSH1 0x0 PUSH2 0x663 DUP3 PUSH2 0x1226 JUMP JUMPDEST SWAP1 POP PUSH1 0x0 PUSH2 0x670 DUP8 PUSH2 0x1297 JUMP JUMPDEST SWAP1 POP PUSH1 0x0 PUSH2 0x67D DUP9 PUSH2 0x144A JUMP JUMPDEST SWAP1 POP PUSH1 0x0 PUSH1 0x64 PUSH2 0x691 PUSH1 0xFF DUP5 AND PUSH1 0xA PUSH2 0x17E0 JUMP JUMPDEST PUSH2 0x69F PUSH1 0xFF DUP7 AND PUSH1 0xA PUSH2 0x17E0 JUMP JUMPDEST PUSH2 0x6AD PUSH1 0xFF DUP9 AND PUSH1 0x14 PUSH2 0x17E0 JUMP JUMPDEST PUSH2 0x6BB PUSH1 0xFF DUP12 AND PUSH1 0x14 PUSH2 0x17E0 JUMP JUMPDEST PUSH2 0x6C9 PUSH1 0xFF DUP14 AND PUSH1 0x28 PUSH2 0x17E0 JUMP JUMPDEST PUSH2 0x6D3 SWAP2 SWAP1 PUSH2 0x17F7 JUMP JUMPDEST PUSH2 0x6DD SWAP2 SWAP1 PUSH2 0x17F7 JUMP JUMPDEST PUSH2 0x6E7 SWAP2 SWAP1 PUSH2 0x17F7 JUMP JUMPDEST PUSH2 0x6F1 SWAP2 SWAP1 PUSH2 0x17F7 JUMP JUMPDEST PUSH2 0x6FB SWAP2 SWAP1 PUSH2 0x1820 JUMP JUMPDEST PUSH1 0x40 DUP1 MLOAD PUSH1 0xE0 DUP2 ADD DUP3 MSTORE PUSH2 0xFFFF SWAP1 SWAP3 AND DUP3 MSTORE PUSH1 0xFF SWAP9 DUP10 AND PUSH1 0x20 DUP4 ADD MSTORE SWAP7 DUP9 AND SWAP7 DUP2 ADD SWAP7 SWAP1 SWAP7 MSTORE POP SWAP2 DUP6 AND PUSH1 0x60 DUP6 ADD MSTORE DUP5 AND PUSH1 0x80 DUP5 ADD MSTORE SWAP1 SWAP3 AND PUSH1 0xA0 DUP3 ADD MSTORE PUSH1 0x1 SWAP2 SWAP1 SWAP2 SIGNEXTEND PUSH1 0xC0 DUP3 ADD MSTORE SWAP3 SWAP2 POP POP JUMP JUMPDEST PUSH2 0x752 PUSH2 0x7F9 JUMP JUMPDEST PUSH1 0x1 PUSH1 0x1 PUSH1 0xA0 SHL SUB DUP2 AND PUSH2 0x77C JUMPI PUSH1 0x40 MLOAD PUSH4 0x1E4FBDF7 PUSH1 0xE0 SHL DUP2 MSTORE PUSH1 0x0 PUSH1 0x4 DUP3 ADD MSTORE PUSH1 0x24 ADD PUSH2 0x32E JUMP JUMPDEST PUSH2 0x560 DUP2 PUSH2 0x920 JUMP JUMPDEST PUSH1 0x0 PUSH1 0x5A PUSH2 0xFFFF DUP4 AND LT PUSH2 0x79C JUMPI POP PUSH2 0x190 SWAP2 SWAP1 POP JUMP JUMPDEST PUSH1 0x4B PUSH2 0xFFFF DUP4 AND LT PUSH2 0x7B1 JUMPI POP PUSH2 0x258 SWAP2 SWAP1 POP JUMP JUMPDEST PUSH1 0x3C PUSH2 0xFFFF DUP4 AND LT PUSH2 0x7C6 JUMPI POP PUSH2 0x320 SWAP2 SWAP1 POP JUMP JUMPDEST PUSH1 0x2D DUP3 PUSH2 0xFFFF AND LT PUSH2 0x7DB JUMPI POP PUSH2 0x3E8 SWAP2 SWAP1 POP JUMP JUMPDEST PUSH1 0x1E DUP3 PUSH2 0xFFFF AND LT PUSH2 0x7F0 JUMPI POP PUSH2 0x4B0 SWAP2 SWAP1 POP JUMP JUMPDEST POP PUSH2 0x5DC SWAP2 SWAP1 POP JUMP JUMPDEST PUSH1 0x0 SLOAD PUSH1 0x1 PUSH1 0x1 PUSH1 0xA0 SHL SUB AND CALLER EQ PUSH2 0x575 JUMPI PUSH1 0x40 MLOAD PUSH4 0x118CDAA7 PUSH1 0xE0 SHL DUP2 MSTORE CALLER PUSH1 0x4 DUP3 ADD MSTORE PUSH1 0x24 ADD PUSH2 0x32E JUMP JUMPDEST PUSH1 0x1 PUSH1 0x1 PUSH1 0x40 SHL SUB DUP2 AND PUSH1 0x0 SWAP1 DUP2 MSTORE PUSH1 0x3 PUSH1 0x20 MSTORE PUSH1 0x40 SWAP1 KECCAK256 SLOAD PUSH1 0xFF AND ISZERO PUSH2 0x883 JUMPI PUSH1 0x40 MLOAD PUSH3 0x461BCD PUSH1 0xE5 SHL DUP2 MSTORE PUSH1 0x20 PUSH1 0x4 DUP3 ADD MSTORE PUSH1 0x11 PUSH1 0x24 DUP3 ADD MSTORE PUSH17 0x105B1C9958591E481CDD5C1C1BDC9D1959 PUSH1 0x7A SHL PUSH1 0x44 DUP3 ADD MSTORE PUSH1 0x64 ADD PUSH2 0x32E JUMP JUMPDEST PUSH1 0x2 DUP1 SLOAD PUSH1 0x1 DUP2 DUP2 ADD SWAP1 SWAP3 SSTORE PUSH1 0x4 DUP2 DIV PUSH32 0x405787FA12A823E0F2B7631CC41B3BA8828B3321CA811111FA75CD3AA3BB5ACE ADD DUP1 SLOAD PUSH1 0x1 PUSH1 0x1 PUSH1 0x40 SHL SUB DUP1 DUP7 AND PUSH1 0x8 PUSH1 0x3 SWAP6 DUP7 AND MUL PUSH2 0x100 EXP DUP2 DUP2 MUL SWAP3 MUL NOT SWAP1 SWAP3 AND OR SWAP1 SWAP2 SSTORE PUSH1 0x0 DUP2 DUP2 MSTORE PUSH1 0x20 SWAP3 SWAP1 SWAP3 MSTORE PUSH1 0x40 DUP1 DUP4 KECCAK256 DUP1 SLOAD PUSH1 0xFF NOT AND SWAP1 SWAP5 OR SWAP1 SWAP4 SSTORE SWAP2 MLOAD PUSH32 0x6CE9B4DDA1A396A1E08009BBD610B75B33F10171CA06D9D261959738596364A9 SWAP2 SWAP1 LOG2 POP JUMP JUMPDEST PUSH1 0x0 DUP1 SLOAD PUSH1 0x1 PUSH1 0x1 PUSH1 0xA0 SHL SUB DUP4 DUP2 AND PUSH1 0x1 PUSH1 0x1 PUSH1 0xA0 SHL SUB NOT DUP4 AND DUP2 OR DUP5 SSTORE PUSH1 0x40 MLOAD SWAP2 SWAP1 SWAP3 AND SWAP3 DUP4 SWAP2 PUSH32 0x8BE0079C531659141344CD1FD0A4F28419497F9722A3DAAFE3B4186F6B6457E0 SWAP2 SWAP1 LOG3 POP POP JUMP JUMPDEST PUSH1 0x1 SLOAD PUSH1 0x40 MLOAD PUSH4 0x46DC9727 PUSH1 0xE1 SHL DUP2 MSTORE PUSH1 0x1 PUSH1 0x1 PUSH1 0xA0 SHL SUB DUP4 DUP2 AND PUSH1 0x4 DUP4 ADD MSTORE PUSH1 0x0 SWAP3 DUP4 SWAP3 SWAP2 AND SWAP1 PUSH4 0x8DB92E4E SWAP1 PUSH1 0x24 ADD PUSH1 0x0 PUSH1 0x40 MLOAD DUP1 DUP4 SUB DUP2 DUP7 GAS STATICCALL ISZERO DUP1 ISZERO PUSH2 0x9BE JUMPI RETURNDATASIZE PUSH1 0x0 DUP1 RETURNDATACOPY RETURNDATASIZE PUSH1 0x0 REVERT JUMPDEST POP POP POP POP PUSH1 0x40 MLOAD RETURNDATASIZE PUSH1 0x0 DUP3 RETURNDATACOPY PUSH1 0x1F RETURNDATASIZE SWAP1 DUP2 ADD PUSH1 0x1F NOT AND DUP3 ADD PUSH1 0x40 MSTORE PUSH2 0x9E6 SWAP2 SWAP1 DUP2 ADD SWAP1 PUSH2 0x18E7 JUMP JUMPDEST SWAP1 POP DUP1 MLOAD PUSH1 0x0 SUB PUSH2 0x9FA JUMPI POP PUSH1 0x32 SWAP3 SWAP2 POP POP JUMP JUMPDEST DUP1 MLOAD PUSH1 0x0 DUP1 DUP1 JUMPDEST DUP5 MLOAD DUP2 LT ISZERO PUSH2 0xB0A JUMPI PUSH1 0x1 SLOAD DUP6 MLOAD PUSH1 0x0 SWAP2 PUSH1 0x1 PUSH1 0x1 PUSH1 0xA0 SHL SUB AND SWAP1 PUSH4 0x504006CA SWAP1 DUP9 SWAP1 DUP6 SWAP1 DUP2 LT PUSH2 0xA34 JUMPI PUSH2 0xA34 PUSH2 0x176C JUMP JUMPDEST PUSH1 0x20 MUL PUSH1 0x20 ADD ADD MLOAD PUSH1 0x40 MLOAD DUP3 PUSH4 0xFFFFFFFF AND PUSH1 0xE0 SHL DUP2 MSTORE PUSH1 0x4 ADD PUSH2 0xA5A SWAP2 DUP2 MSTORE PUSH1 0x20 ADD SWAP1 JUMP JUMPDEST PUSH1 0xE0 PUSH1 0x40 MLOAD DUP1 DUP4 SUB DUP2 DUP7 GAS STATICCALL ISZERO DUP1 ISZERO PUSH2 0xA77 JUMPI RETURNDATASIZE PUSH1 0x0 DUP1 RETURNDATACOPY RETURNDATASIZE PUSH1 0x0 REVERT JUMPDEST POP POP POP POP PUSH1 0x40 MLOAD RETURNDATASIZE PUSH1 0x1F NOT PUSH1 0x1F DUP3 ADD AND DUP3 ADD DUP1 PUSH1 0x40 MSTORE POP DUP2 ADD SWAP1 PUSH2 0xA9B SWAP2 SWAP1 PUSH2 0x1981 JUMP JUMPDEST SWAP1 POP PUSH1 0x2 DUP2 PUSH1 0xA0 ADD MLOAD PUSH1 0x3 DUP2 GT ISZERO PUSH2 0xAB5 JUMPI PUSH2 0xAB5 PUSH2 0x16FC JUMP JUMPDEST SUB PUSH2 0xACC JUMPI DUP4 PUSH2 0xAC4 DUP2 PUSH2 0x17C7 JUMP JUMPDEST SWAP5 POP POP PUSH2 0xAF7 JUMP JUMPDEST PUSH1 0x3 DUP2 PUSH1 0xA0 ADD MLOAD PUSH1 0x3 DUP2 GT ISZERO PUSH2 0xAE4 JUMPI PUSH2 0xAE4 PUSH2 0x16FC JUMP JUMPDEST SUB PUSH2 0xAF7 JUMPI DUP3 PUSH2 0xAF3 DUP2 PUSH2 0x17C7 JUMP JUMPDEST SWAP4 POP POP JUMPDEST POP DUP1 PUSH2 0xB02 DUP2 PUSH2 0x17C7 JUMP JUMPDEST SWAP2 POP POP PUSH2 0xA01 JUMP JUMPDEST POP PUSH1 0x0 DUP4 PUSH2 0xB19 DUP5 PUSH1 0x64 PUSH2 0x17E0 JUMP JUMPDEST PUSH2 0xB23 SWAP2 SWAP1 PUSH2 0x1820 JUMP JUMPDEST SWAP1 POP PUSH1 0x0 PUSH2 0xB32 DUP4 PUSH1 0x14 PUSH2 0x17E0 JUMP JUMPDEST PUSH2 0xB3C SWAP1 DUP4 PUSH2 0x1A01 JUMP JUMPDEST SWAP1 POP PUSH1 0x0 DUP2 SLT ISZERO PUSH2 0xB55 JUMPI POP PUSH1 0x0 SWAP8 SWAP7 POP POP POP POP POP POP POP JUMP JUMPDEST PUSH1 0x64 DUP2 SGT ISZERO PUSH2 0xB6C JUMPI POP PUSH1 0x64 SWAP8 SWAP7 POP POP POP POP POP POP POP JUMP JUMPDEST SWAP8 SWAP7 POP POP POP POP POP POP POP JUMP JUMPDEST PUSH1 0x1 SLOAD PUSH1 0x40 MLOAD PUSH4 0x46DC9727 PUSH1 0xE1 SHL DUP2 MSTORE PUSH1 0x1 PUSH1 0x1 PUSH1 0xA0 SHL SUB DUP4 DUP2 AND PUSH1 0x4 DUP4 ADD MSTORE PUSH1 0x0 SWAP3 DUP4 SWAP3 SWAP2 AND SWAP1 PUSH4 0x8DB92E4E SWAP1 PUSH1 0x24 ADD PUSH1 0x0 PUSH1 0x40 MLOAD DUP1 DUP4 SUB DUP2 DUP7 GAS STATICCALL ISZERO DUP1 ISZERO PUSH2 0xBC5 JUMPI RETURNDATASIZE PUSH1 0x0 DUP1 RETURNDATACOPY RETURNDATASIZE PUSH1 0x0 REVERT JUMPDEST POP POP POP POP PUSH1 0x40 MLOAD RETURNDATASIZE PUSH1 0x0 DUP3 RETURNDATACOPY PUSH1 0x1F RETURNDATASIZE SWAP1 DUP2 ADD PUSH1 0x1F NOT AND DUP3 ADD PUSH1 0x40 MSTORE PUSH2 0xBED SWAP2 SWAP1 DUP2 ADD SWAP1 PUSH2 0x18E7 JUMP JUMPDEST SWAP1 POP DUP1 MLOAD PUSH1 0x0 SUB PUSH2 0xC01 JUMPI POP PUSH1 0x32 SWAP3 SWAP2 POP POP JUMP JUMPDEST PUSH1 0x0 DUP1 PUSH1 0x0 DUP1 DUP5 MLOAD SWAP1 POP PUSH1 0x0 JUMPDEST DUP6 MLOAD DUP2 LT ISZERO PUSH2 0xD52 JUMPI PUSH1 0x1 SLOAD DUP7 MLOAD PUSH1 0x0 SWAP2 PUSH1 0x1 PUSH1 0x1 PUSH1 0xA0 SHL SUB AND SWAP1 PUSH4 0xF4108794 SWAP1 DUP10 SWAP1 DUP6 SWAP1 DUP2 LT PUSH2 0xC41 JUMPI PUSH2 0xC41 PUSH2 0x176C JUMP JUMPDEST PUSH1 0x20 MUL PUSH1 0x20 ADD ADD MLOAD PUSH1 0x40 MLOAD DUP3 PUSH4 0xFFFFFFFF AND PUSH1 0xE0 SHL DUP2 MSTORE PUSH1 0x4 ADD PUSH2 0xC67 SWAP2 DUP2 MSTORE PUSH1 0x20 ADD SWAP1 JUMP JUMPDEST PUSH1 0x80 PUSH1 0x40 MLOAD DUP1 DUP4 SUB DUP2 DUP7 GAS STATICCALL ISZERO DUP1 ISZERO PUSH2 0xC84 JUMPI RETURNDATASIZE PUSH1 0x0 DUP1 RETURNDATACOPY RETURNDATASIZE PUSH1 0x0 REVERT JUMPDEST POP POP POP POP PUSH1 0x40 MLOAD RETURNDATASIZE PUSH1 0x1F NOT PUSH1 0x1F DUP3 ADD AND DUP3 ADD DUP1 PUSH1 0x40 MSTORE POP DUP2 ADD SWAP1 PUSH2 0xCA8 SWAP2 SWAP1 PUSH2 0x1A28 JUMP JUMPDEST PUSH1 0x20 DUP2 ADD MLOAD SWAP1 SWAP2 POP ISZERO PUSH2 0xD3F JUMPI PUSH1 0x20 DUP2 ADD MLOAD PUSH2 0xCC4 SWAP1 DUP8 PUSH2 0x17F7 JUMP JUMPDEST SWAP6 POP DUP1 PUSH1 0x40 ADD MLOAD DUP6 PUSH2 0xCD6 SWAP2 SWAP1 PUSH2 0x17F7 JUMP JUMPDEST SWAP5 POP PUSH1 0x0 DUP2 PUSH1 0x20 ADD MLOAD DUP3 PUSH1 0x40 ADD MLOAD PUSH1 0x64 PUSH2 0xCF0 SWAP2 SWAP1 PUSH2 0x17E0 JUMP JUMPDEST PUSH2 0xCFA SWAP2 SWAP1 PUSH2 0x1820 JUMP JUMPDEST SWAP1 POP PUSH1 0x0 PUSH2 0xD0B DUP4 PUSH1 0x60 ADD MLOAD PUSH2 0x15F3 JUMP JUMPDEST PUSH2 0xFFFF AND SWAP1 POP PUSH1 0x64 PUSH2 0xD1E DUP3 PUSH1 0x5F PUSH2 0x17E0 JUMP JUMPDEST PUSH2 0xD28 SWAP2 SWAP1 PUSH2 0x1820 JUMP JUMPDEST DUP3 LT PUSH2 0xD3C JUMPI DUP6 PUSH2 0xD38 DUP2 PUSH2 0x17C7 JUMP JUMPDEST SWAP7 POP POP JUMPDEST POP POP JUMPDEST POP DUP1 PUSH2 0xD4A DUP2 PUSH2 0x17C7 JUMP JUMPDEST SWAP2 POP POP PUSH2 0xC0E JUMP JUMPDEST POP DUP3 PUSH1 0x0 SUB PUSH2 0xD68 JUMPI POP PUSH1 0x32 SWAP7 SWAP6 POP POP POP POP POP POP JUMP JUMPDEST PUSH1 0x0 DUP4 PUSH2 0xD76 DUP7 PUSH1 0x64 PUSH2 0x17E0 JUMP JUMPDEST PUSH2 0xD80 SWAP2 SWAP1 PUSH2 0x1820 JUMP JUMPDEST SWAP1 POP PUSH1 0x0 PUSH1 0xC8 DUP3 LT PUSH2 0xD94 JUMPI POP PUSH1 0x64 PUSH2 0xDC8 JUMP JUMPDEST PUSH1 0x96 DUP3 LT PUSH2 0xDA4 JUMPI POP PUSH1 0x4B PUSH2 0xDC8 JUMP JUMPDEST PUSH1 0x78 DUP3 LT PUSH2 0xDB4 JUMPI POP PUSH1 0x32 PUSH2 0xDC8 JUMP JUMPDEST PUSH1 0x64 DUP3 LT PUSH2 0xDC4 JUMPI POP PUSH1 0x19 PUSH2 0xDC8 JUMP JUMPDEST POP PUSH1 0x0 JUMPDEST PUSH1 0x0 DUP4 PUSH2 0xDD6 DUP7 PUSH1 0x64 PUSH2 0x17E0 JUMP JUMPDEST PUSH2 0xDE0 SWAP2 SWAP1 PUSH2 0x1820 JUMP JUMPDEST SWAP1 POP PUSH1 0x0 PUSH1 0x4B DUP3 GT ISZERO PUSH2 0xDF5 JUMPI POP PUSH1 0x28 PUSH2 0xE02 JUMP JUMPDEST PUSH1 0x32 DUP3 GT ISZERO PUSH2 0xE02 JUMPI POP PUSH1 0x14 JUMPDEST PUSH1 0x1 SLOAD PUSH1 0x40 MLOAD PUSH4 0x2DD91BB7 PUSH1 0xE1 SHL DUP2 MSTORE PUSH1 0x1 PUSH1 0x1 PUSH1 0xA0 SHL SUB DUP14 DUP2 AND PUSH1 0x4 DUP4 ADD MSTORE PUSH1 0x0 SWAP3 AND SWAP1 PUSH4 0x5BB2376E SWAP1 PUSH1 0x24 ADD PUSH1 0x0 PUSH1 0x40 MLOAD DUP1 DUP4 SUB DUP2 DUP7 GAS STATICCALL ISZERO DUP1 ISZERO PUSH2 0xE4D JUMPI RETURNDATASIZE PUSH1 0x0 DUP1 RETURNDATACOPY RETURNDATASIZE PUSH1 0x0 REVERT JUMPDEST POP POP POP POP PUSH1 0x40 MLOAD RETURNDATASIZE PUSH1 0x0 DUP3 RETURNDATACOPY PUSH1 0x1F RETURNDATASIZE SWAP1 DUP2 ADD PUSH1 0x1F NOT AND DUP3 ADD PUSH1 0x40 MSTORE PUSH2 0xE75 SWAP2 SWAP1 DUP2 ADD SWAP1 PUSH2 0x1A7F JUMP JUMPDEST SWAP1 POP PUSH1 0x0 PUSH1 0x3 DUP3 MLOAD LT PUSH2 0xE8A JUMPI POP PUSH1 0x14 PUSH2 0xE97 JUMP JUMPDEST PUSH1 0x2 DUP3 MLOAD LT PUSH2 0xE97 JUMPI POP PUSH1 0xA JUMPDEST PUSH1 0x0 DUP2 PUSH2 0xEA4 DUP6 DUP9 PUSH2 0x1A01 JUMP JUMPDEST PUSH2 0xEAE SWAP2 SWAP1 PUSH2 0x1B0D JUMP JUMPDEST SWAP1 POP PUSH1 0x0 DUP2 SLT ISZERO PUSH2 0xECD JUMPI POP PUSH1 0x0 SWAP14 SWAP13 POP POP POP POP POP POP POP POP POP POP POP POP POP JUMP JUMPDEST PUSH1 0x64 DUP2 SGT ISZERO PUSH2 0xEEA JUMPI POP PUSH1 0x64 SWAP14 SWAP13 POP POP POP POP POP POP POP POP POP POP POP POP POP JUMP JUMPDEST SWAP14 SWAP13 POP POP POP POP POP POP POP POP POP POP POP POP POP JUMP JUMPDEST PUSH1 0x1 SLOAD PUSH1 0x40 MLOAD PUSH4 0x2A5BB1B7 PUSH1 0xE1 SHL DUP2 MSTORE PUSH1 0x1 PUSH1 0x1 PUSH1 0xA0 SHL SUB DUP4 DUP2 AND PUSH1 0x4 DUP4 ADD MSTORE PUSH1 0x0 SWAP3 DUP4 SWAP3 SWAP2 AND SWAP1 PUSH4 0x54B7636E SWAP1 PUSH1 0x24 ADD PUSH1 0x20 PUSH1 0x40 MLOAD DUP1 DUP4 SUB DUP2 DUP7 GAS STATICCALL ISZERO DUP1 ISZERO PUSH2 0xF49 JUMPI RETURNDATASIZE PUSH1 0x0 DUP1 RETURNDATACOPY RETURNDATASIZE PUSH1 0x0 REVERT JUMPDEST POP POP POP POP PUSH1 0x40 MLOAD RETURNDATASIZE PUSH1 0x1F NOT PUSH1 0x1F DUP3 ADD AND DUP3 ADD DUP1 PUSH1 0x40 MSTORE POP DUP2 ADD SWAP1 PUSH2 0xF6D SWAP2 SWAP1 PUSH2 0x1B35 JUMP JUMPDEST ISZERO PUSH2 0xF84 JUMPI PUSH2 0xF7D PUSH1 0x96 DUP3 PUSH2 0x1B0D JUMP JUMPDEST SWAP1 POP PUSH2 0xF92 JUMP JUMPDEST PUSH2 0xF8F PUSH1 0x96 DUP3 PUSH2 0x1A01 JUMP JUMPDEST SWAP1 POP JUMPDEST PUSH1 0x1 SLOAD PUSH1 0x40 MLOAD PUSH4 0xE470E65 PUSH1 0xE2 SHL DUP2 MSTORE PUSH1 0x1 PUSH1 0x1 PUSH1 0xA0 SHL SUB DUP6 DUP2 AND PUSH1 0x4 DUP4 ADD MSTORE PUSH1 0x0 SWAP3 AND SWAP1 PUSH4 0x391C3994 SWAP1 PUSH1 0x24 ADD PUSH1 0x20 PUSH1 0x40 MLOAD DUP1 DUP4 SUB DUP2 DUP7 GAS STATICCALL ISZERO DUP1 ISZERO PUSH2 0xFDD JUMPI RETURNDATASIZE PUSH1 0x0 DUP1 RETURNDATACOPY RETURNDATASIZE PUSH1 0x0 REVERT JUMPDEST POP POP POP POP PUSH1 0x40 MLOAD RETURNDATASIZE PUSH1 0x1F NOT PUSH1 0x1F DUP3 ADD AND DUP3 ADD DUP1 PUSH1 0x40 MSTORE POP DUP2 ADD SWAP1 PUSH2 0x1001 SWAP2 SWAP1 PUSH2 0x1B57 JUMP JUMPDEST SWAP1 POP DUP1 PUSH1 0x0 SUB PUSH2 0x101E JUMPI PUSH2 0x1017 PUSH2 0x12C DUP4 PUSH2 0x1A01 JUMP JUMPDEST SWAP2 POP PUSH2 0x1092 JUMP JUMPDEST PUSH1 0x0 PUSH2 0x102A DUP3 TIMESTAMP PUSH2 0x1798 JUMP JUMPDEST SWAP1 POP PUSH3 0x278D00 DUP2 LT ISZERO PUSH2 0x104A JUMPI PUSH2 0x1043 PUSH2 0x12C DUP5 PUSH2 0x1A01 JUMP JUMPDEST SWAP3 POP PUSH2 0x1090 JUMP JUMPDEST PUSH3 0x76A700 DUP2 LT ISZERO PUSH2 0x1060 JUMPI PUSH2 0x1043 PUSH1 0xC8 DUP5 PUSH2 0x1A01 JUMP JUMPDEST PUSH3 0xED4E00 DUP2 LT ISZERO PUSH2 0x1076 JUMPI PUSH2 0x1043 PUSH1 0x64 DUP5 PUSH2 0x1A01 JUMP JUMPDEST PUSH4 0x1E13380 DUP2 LT ISZERO PUSH2 0x1090 JUMPI PUSH2 0x108D PUSH1 0x32 DUP5 PUSH2 0x1A01 JUMP JUMPDEST SWAP3 POP JUMPDEST POP JUMPDEST PUSH1 0x1 SLOAD PUSH1 0x40 MLOAD PUSH4 0xC3453153 PUSH1 0xE0 SHL DUP2 MSTORE PUSH1 0x1 PUSH1 0x1 PUSH1 0xA0 SHL SUB DUP7 DUP2 AND PUSH1 0x4 DUP4 ADD MSTORE PUSH1 0x0 SWAP3 AND SWAP1 PUSH4 0xC3453153 SWAP1 PUSH1 0x24 ADD PUSH1 0x40 DUP1 MLOAD DUP1 DUP4 SUB DUP2 DUP7 GAS STATICCALL ISZERO DUP1 ISZERO PUSH2 0x10DC JUMPI RETURNDATASIZE PUSH1 0x0 DUP1 RETURNDATACOPY RETURNDATASIZE PUSH1 0x0 REVERT JUMPDEST POP POP POP POP PUSH1 0x40 MLOAD RETURNDATASIZE PUSH1 0x1F NOT PUSH1 0x1F DUP3 ADD AND DUP3 ADD DUP1 PUSH1 0x40 MSTORE POP DUP2 ADD SWAP1 PUSH2 0x1100 SWAP2 SWAP1 PUSH2 0x1B70 JUMP JUMPDEST SWAP1 POP PUSH9 0x3635C9ADC5DEA00000 DUP2 PUSH1 0x0 ADD MLOAD LT PUSH2 0x1128 JUMPI PUSH2 0x1121 PUSH1 0x4B DUP5 PUSH2 0x1B0D JUMP JUMPDEST SWAP3 POP PUSH2 0x1163 JUMP JUMPDEST DUP1 MLOAD PUSH9 0x1B1AE4D6E2EF500000 GT PUSH2 0x1144 JUMPI PUSH2 0x1121 PUSH1 0x32 DUP5 PUSH2 0x1B0D JUMP JUMPDEST DUP1 MLOAD PUSH9 0x56BC75E2D63100000 GT PUSH2 0x1163 JUMPI PUSH2 0x1160 PUSH1 0x19 DUP5 PUSH2 0x1B0D JUMP JUMPDEST SWAP3 POP JUMPDEST PUSH1 0x1 SLOAD PUSH1 0x40 MLOAD PUSH4 0x46DC9727 PUSH1 0xE1 SHL DUP2 MSTORE PUSH1 0x1 PUSH1 0x1 PUSH1 0xA0 SHL SUB DUP8 DUP2 AND PUSH1 0x4 DUP4 ADD MSTORE PUSH1 0x0 SWAP3 AND SWAP1 PUSH4 0x8DB92E4E SWAP1 PUSH1 0x24 ADD PUSH1 0x0 PUSH1 0x40 MLOAD DUP1 DUP4 SUB DUP2 DUP7 GAS STATICCALL ISZERO DUP1 ISZERO PUSH2 0x11AE JUMPI RETURNDATASIZE PUSH1 0x0 DUP1 RETURNDATACOPY RETURNDATASIZE PUSH1 0x0 REVERT JUMPDEST POP POP POP POP PUSH1 0x40 MLOAD RETURNDATASIZE PUSH1 0x0 DUP3 RETURNDATACOPY PUSH1 0x1F RETURNDATASIZE SWAP1 DUP2 ADD PUSH1 0x1F NOT AND DUP3 ADD PUSH1 0x40 MSTORE PUSH2 0x11D6 SWAP2 SWAP1 DUP2 ADD SWAP1 PUSH2 0x18E7 JUMP JUMPDEST MLOAD SWAP1 POP PUSH1 0xA DUP2 LT PUSH2 0x11F3 JUMPI PUSH2 0x11EC PUSH1 0x32 DUP6 PUSH2 0x1B0D JUMP JUMPDEST SWAP4 POP PUSH2 0x121C JUMP JUMPDEST PUSH1 0x5 DUP2 LT PUSH2 0x1206 JUMPI PUSH2 0x11EC PUSH1 0x1E DUP6 PUSH2 0x1B0D JUMP JUMPDEST PUSH1 0x3 DUP2 LT PUSH2 0x121C JUMPI PUSH2 0x1219 PUSH1 0xF DUP6 PUSH2 0x1B0D JUMP JUMPDEST SWAP4 POP JUMPDEST POP SWAP2 SWAP5 SWAP4 POP POP POP POP JUMP JUMPDEST PUSH1 0x0 PUSH2 0x1C1 NOT PUSH2 0x127 DUP3 PUSH2 0x123A DUP4 DUP4 PUSH2 0x1A01 JUMP JUMPDEST SWAP1 POP PUSH1 0x0 DUP2 PUSH2 0x124D DUP6 PUSH1 0x1 DUP10 SWAP1 SIGNEXTEND PUSH2 0x1A01 JUMP JUMPDEST PUSH2 0x1258 SWAP1 PUSH1 0x64 PUSH2 0x1BBE JUMP JUMPDEST PUSH2 0x1262 SWAP2 SWAP1 PUSH2 0x1BEE JUMP JUMPDEST SWAP1 POP PUSH1 0x0 DUP2 SLT ISZERO PUSH2 0x1279 JUMPI POP PUSH1 0x0 SWAP6 SWAP5 POP POP POP POP POP JUMP JUMPDEST PUSH1 0x64 DUP2 SGT ISZERO PUSH2 0x128E JUMPI POP PUSH1 0x64 SWAP6 SWAP5 POP POP POP POP POP JUMP JUMPDEST SWAP6 SWAP5 POP POP POP POP POP JUMP JUMPDEST PUSH1 0x0 DUP1 DUP1 DUP1 JUMPDEST PUSH1 0x2 SLOAD DUP2 LT ISZERO PUSH2 0x13A0 JUMPI PUSH1 0x0 PUSH1 0x2 DUP3 DUP2 SLOAD DUP2 LT PUSH2 0x12BC JUMPI PUSH2 0x12BC PUSH2 0x176C JUMP JUMPDEST PUSH1 0x0 SWAP2 DUP3 MSTORE PUSH1 0x20 DUP3 KECCAK256 PUSH1 0x4 DUP1 DUP4 DIV SWAP1 SWAP2 ADD SLOAD PUSH1 0x1 SLOAD PUSH1 0x40 MLOAD PUSH4 0x40C7E39D PUSH1 0xE0 SHL DUP2 MSTORE PUSH1 0x1 PUSH1 0x1 PUSH1 0xA0 SHL SUB DUP13 DUP2 AND SWAP5 DUP3 ADD SWAP5 SWAP1 SWAP5 MSTORE PUSH1 0x3 SWAP1 SWAP5 AND PUSH1 0x8 MUL PUSH2 0x100 EXP SWAP1 SWAP2 DIV PUSH1 0x1 PUSH1 0x1 PUSH1 0x40 SHL SUB AND PUSH1 0x24 DUP5 ADD DUP2 SWAP1 MSTORE SWAP5 POP AND SWAP1 PUSH4 0x40C7E39D SWAP1 PUSH1 0x44 ADD PUSH1 0x80 PUSH1 0x40 MLOAD DUP1 DUP4 SUB DUP2 DUP7 GAS STATICCALL ISZERO DUP1 ISZERO PUSH2 0x1339 JUMPI RETURNDATASIZE PUSH1 0x0 DUP1 RETURNDATACOPY RETURNDATASIZE PUSH1 0x0 REVERT JUMPDEST POP POP POP POP PUSH1 0x40 MLOAD RETURNDATASIZE PUSH1 0x1F NOT PUSH1 0x1F DUP3 ADD AND DUP3 ADD DUP1 PUSH1 0x40 MSTORE POP DUP2 ADD SWAP1 PUSH2 0x135D SWAP2 SWAP1 PUSH2 0x1C1C JUMP JUMPDEST PUSH1 0x60 DUP2 ADD MLOAD SWAP1 SWAP2 POP ISZERO PUSH2 0x138B JUMPI DUP5 PUSH2 0x1374 DUP2 PUSH2 0x17C7 JUMP JUMPDEST DUP3 MLOAD SWAP1 SWAP7 POP PUSH2 0x1388 SWAP2 POP PUSH2 0xFFFF AND DUP6 PUSH2 0x17F7 JUMP JUMPDEST SWAP4 POP JUMPDEST POP POP DUP1 DUP1 PUSH2 0x1398 SWAP1 PUSH2 0x17C7 JUMP JUMPDEST SWAP2 POP POP PUSH2 0x129D JUMP JUMPDEST POP DUP2 PUSH1 0x0 SUB PUSH2 0x13B3 JUMPI POP PUSH1 0x0 SWAP4 SWAP3 POP POP POP JUMP JUMPDEST PUSH1 0x0 PUSH2 0x13BF DUP4 DUP4 PUSH2 0x1820 JUMP JUMPDEST SWAP1 POP PUSH1 0x0 PUSH1 0x4B DUP3 LT PUSH2 0x13D3 JUMPI POP PUSH1 0x64 PUSH2 0x1407 JUMP JUMPDEST PUSH1 0x3C DUP3 LT PUSH2 0x13E3 JUMPI POP PUSH1 0x4B PUSH2 0x1407 JUMP JUMPDEST PUSH1 0x2D DUP3 LT PUSH2 0x13F3 JUMPI POP PUSH1 0x32 PUSH2 0x1407 JUMP JUMPDEST PUSH1 0x1E DUP3 LT PUSH2 0x1403 JUMPI POP PUSH1 0x19 PUSH2 0x1407 JUMP JUMPDEST POP PUSH1 0x0 JUMPDEST PUSH1 0x0 PUSH1 0x3 DUP6 LT PUSH2 0x1419 JUMPI POP PUSH1 0x14 PUSH2 0x1425 JUMP JUMPDEST PUSH1 0x2 DUP6 LT PUSH2 0x1425 JUMPI POP PUSH1 0xA JUMPDEST PUSH1 0x0 PUSH2 0x1431 DUP3 DUP5 PUSH2 0x17F7 JUMP JUMPDEST SWAP1 POP PUSH1 0x64 DUP2 GT ISZERO PUSH2 0xB6C JUMPI POP PUSH1 0x64 SWAP8 SWAP7 POP POP POP POP POP POP POP JUMP JUMPDEST PUSH1 0x1 SLOAD PUSH1 0x40 MLOAD PUSH4 0x2A5EF79 PUSH1 0xE2 SHL DUP2 MSTORE PUSH1 0x1 PUSH1 0x1 PUSH1 0xA0 SHL SUB DUP4 DUP2 AND PUSH1 0x4 DUP4 ADD MSTORE PUSH1 0x0 SWAP3 DUP4 SWAP3 SWAP2 AND SWAP1 PUSH4 0xA97BDE4 SWAP1 PUSH1 0x24 ADD PUSH1 0x80 PUSH1 0x40 MLOAD DUP1 DUP4 SUB DUP2 DUP7 GAS STATICCALL ISZERO DUP1 ISZERO PUSH2 0x1498 JUMPI RETURNDATASIZE PUSH1 0x0 DUP1 RETURNDATACOPY RETURNDATASIZE PUSH1 0x0 REVERT JUMPDEST POP POP POP POP PUSH1 0x40 MLOAD RETURNDATASIZE PUSH1 0x1F NOT PUSH1 0x1F DUP3 ADD AND DUP3 ADD DUP1 PUSH1 0x40 MSTORE POP DUP2 ADD SWAP1 PUSH2 0x14BC SWAP2 SWAP1 PUSH2 0x1C6D JUMP JUMPDEST SWAP1 POP PUSH1 0x0 PUSH1 0x14 DUP3 PUSH1 0x0 ADD MLOAD LT PUSH2 0x14DE JUMPI PUSH2 0x14D7 PUSH1 0x28 DUP3 PUSH2 0x17F7 JUMP JUMPDEST SWAP1 POP PUSH2 0x151D JUMP JUMPDEST DUP2 MLOAD PUSH1 0xA GT PUSH2 0x14F2 JUMPI PUSH2 0x14D7 PUSH1 0x1E DUP3 PUSH2 0x17F7 JUMP JUMPDEST DUP2 MLOAD PUSH1 0x5 GT PUSH2 0x1506 JUMPI PUSH2 0x14D7 PUSH1 0x14 DUP3 PUSH2 0x17F7 JUMP JUMPDEST DUP2 MLOAD PUSH1 0x1 GT PUSH2 0x151D JUMPI PUSH2 0x151A PUSH1 0xA DUP3 PUSH2 0x17F7 JUMP JUMPDEST SWAP1 POP JUMPDEST PUSH1 0x5 DUP3 PUSH1 0x20 ADD MLOAD LT PUSH2 0x153B JUMPI PUSH2 0x1534 PUSH1 0x1E DUP3 PUSH2 0x17F7 JUMP JUMPDEST SWAP1 POP PUSH2 0x156C JUMP JUMPDEST PUSH1 0x3 DUP3 PUSH1 0x20 ADD MLOAD LT PUSH2 0x1552 JUMPI PUSH2 0x1534 PUSH1 0x14 DUP3 PUSH2 0x17F7 JUMP JUMPDEST PUSH1 0x1 DUP3 PUSH1 0x20 ADD MLOAD LT PUSH2 0x156C JUMPI PUSH2 0x1569 PUSH1 0xA DUP3 PUSH2 0x17F7 JUMP JUMPDEST SWAP1 POP JUMPDEST PUSH1 0x0 DUP3 PUSH1 0x40 ADD MLOAD TIMESTAMP PUSH2 0x157E SWAP2 SWAP1 PUSH2 0x1798 JUMP JUMPDEST PUSH1 0x40 DUP5 ADD MLOAD SWAP1 SWAP2 POP ISZERO PUSH2 0x15D7 JUMPI PUSH3 0x278D00 DUP2 LT ISZERO PUSH2 0x15A8 JUMPI PUSH2 0x15A1 PUSH1 0x1E DUP4 PUSH2 0x17F7 JUMP JUMPDEST SWAP2 POP PUSH2 0x15D7 JUMP JUMPDEST PUSH3 0x76A700 DUP2 LT ISZERO PUSH2 0x15BE JUMPI PUSH2 0x15A1 PUSH1 0x14 DUP4 PUSH2 0x17F7 JUMP JUMPDEST PUSH3 0xED4E00 DUP2 LT ISZERO PUSH2 0x15D7 JUMPI PUSH2 0x15D4 PUSH1 0xA DUP4 PUSH2 0x17F7 JUMP JUMPDEST SWAP2 POP JUMPDEST PUSH1 0x64 DUP3 GT ISZERO PUSH2 0x15EB JUMPI POP PUSH1 0x64 SWAP5 SWAP4 POP POP POP POP JUMP JUMPDEST POP SWAP4 SWAP3 POP POP POP JUMP JUMPDEST PUSH1 0x0 PUSH1 0x5A PUSH2 0xFFFF DUP4 AND LT PUSH2 0x1609 JUMPI POP PUSH1 0x5A SWAP2 SWAP1 POP JUMP JUMPDEST PUSH1 0x4B PUSH2 0xFFFF DUP4 AND LT PUSH2 0x161D JUMPI POP PUSH1 0x50 SWAP2 SWAP1 POP JUMP JUMPDEST PUSH1 0x3C PUSH2 0xFFFF DUP4 AND LT PUSH2 0x1631 JUMPI POP PUSH1 0x46 SWAP2 SWAP1 POP JUMP JUMPDEST POP PUSH1 0x32 SWAP2 SWAP1 POP JUMP JUMPDEST PUSH1 0x0 PUSH1 0x20 DUP3 DUP5 SUB SLT ISZERO PUSH2 0x164B JUMPI PUSH1 0x0 DUP1 REVERT JUMPDEST DUP2 CALLDATALOAD PUSH1 0x1 PUSH1 0x1 PUSH1 0x40 SHL SUB DUP2 AND DUP2 EQ PUSH2 0x1662 JUMPI PUSH1 0x0 DUP1 REVERT JUMPDEST SWAP4 SWAP3 POP POP POP JUMP JUMPDEST PUSH1 0x20 DUP1 DUP3 MSTORE DUP3 MLOAD DUP3 DUP3 ADD DUP2 SWAP1 MSTORE PUSH1 0x0 SWAP2 SWAP1 DUP5 DUP3 ADD SWAP1 PUSH1 0x40 DUP6 ADD SWAP1 DUP5 JUMPDEST DUP2 DUP2 LT ISZERO PUSH2 0x16AA JUMPI DUP4 MLOAD PUSH1 0x1 PUSH1 0x1 PUSH1 0x40 SHL SUB AND DUP4 MSTORE SWAP3 DUP5 ADD SWAP3 SWAP2 DUP5 ADD SWAP2 PUSH1 0x1 ADD PUSH2 0x1685 JUMP JUMPDEST POP SWAP1 SWAP7 SWAP6 POP POP POP POP POP POP JUMP JUMPDEST PUSH1 0x0 PUSH1 0x20 DUP3 DUP5 SUB SLT ISZERO PUSH2 0x16C8 JUMPI PUSH1 0x0 DUP1 REVERT JUMPDEST POP CALLDATALOAD SWAP2 SWAP1 POP JUMP JUMPDEST PUSH2 0xFFFF DUP2 AND DUP2 EQ PUSH2 0x560 JUMPI PUSH1 0x0 DUP1 REVERT JUMPDEST PUSH1 0x0 PUSH1 0x20 DUP3 DUP5 SUB SLT ISZERO PUSH2 0x16F1 JUMPI PUSH1 0x0 DUP1 REVERT JUMPDEST DUP2 CALLDATALOAD PUSH2 0x1662 DUP2 PUSH2 0x16CF JUMP JUMPDEST PUSH4 0x4E487B71 PUSH1 0xE0 SHL PUSH1 0x0 MSTORE PUSH1 0x21 PUSH1 0x4 MSTORE PUSH1 0x24 PUSH1 0x0 REVERT JUMPDEST PUSH1 0x20 DUP2 ADD PUSH1 0x4 DUP4 LT PUSH2 0x1734 JUMPI PUSH4 0x4E487B71 PUSH1 0xE0 SHL PUSH1 0x0 MSTORE PUSH1 0x21 PUSH1 0x4 MSTORE PUSH1 0x24 PUSH1 0x0 REVERT JUMPDEST SWAP2 SWAP1 MSTORE SWAP1 JUMP JUMPDEST PUSH1 0x1 PUSH1 0x1 PUSH1 0xA0 SHL SUB DUP2 AND DUP2 EQ PUSH2 0x560 JUMPI PUSH1 0x0 DUP1 REVERT JUMPDEST PUSH1 0x0 PUSH1 0x20 DUP3 DUP5 SUB SLT ISZERO PUSH2 0x1761 JUMPI PUSH1 0x0 DUP1 REVERT JUMPDEST DUP2 CALLDATALOAD PUSH2 0x1662 DUP2 PUSH2 0x173A JUMP JUMPDEST PUSH4 0x4E487B71 PUSH1 0xE0 SHL PUSH1 0x0 MSTORE PUSH1 0x32 PUSH1 0x4 MSTORE PUSH1 0x24 PUSH1 0x0 REVERT JUMPDEST PUSH4 0x4E487B71 PUSH1 0xE0 SHL PUSH1 0x0 MSTORE PUSH1 0x11 PUSH1 0x4 MSTORE PUSH1 0x24 PUSH1 0x0 REVERT JUMPDEST DUP2 DUP2 SUB DUP2 DUP2 GT ISZERO PUSH2 0x17AB JUMPI PUSH2 0x17AB PUSH2 0x1782 JUMP JUMPDEST SWAP3 SWAP2 POP POP JUMP JUMPDEST PUSH4 0x4E487B71 PUSH1 0xE0 SHL PUSH1 0x0 MSTORE PUSH1 0x31 PUSH1 0x4 MSTORE PUSH1 0x24 PUSH1 0x0 REVERT JUMPDEST PUSH1 0x0 PUSH1 0x1 DUP3 ADD PUSH2 0x17D9 JUMPI PUSH2 0x17D9 PUSH2 0x1782 JUMP JUMPDEST POP PUSH1 0x1 ADD SWAP1 JUMP JUMPDEST DUP1 DUP3 MUL DUP2 ISZERO DUP3 DUP3 DIV DUP5 EQ OR PUSH2 0x17AB JUMPI PUSH2 0x17AB PUSH2 0x1782 JUMP JUMPDEST DUP1 DUP3 ADD DUP1 DUP3 GT ISZERO PUSH2 0x17AB JUMPI PUSH2 0x17AB PUSH2 0x1782 JUMP JUMPDEST PUSH4 0x4E487B71 PUSH1 0xE0 SHL PUSH1 0x0 MSTORE PUSH1 0x12 PUSH1 0x4 MSTORE PUSH1 0x24 PUSH1 0x0 REVERT JUMPDEST PUSH1 0x0 DUP3 PUSH2 0x182F JUMPI PUSH2 0x182F PUSH2 0x180A JUMP JUMPDEST POP DIV SWAP1 JUMP JUMPDEST PUSH4 0x4E487B71 PUSH1 0xE0 SHL PUSH1 0x0 MSTORE PUSH1 0x41 PUSH1 0x4 MSTORE PUSH1 0x24 PUSH1 0x0 REVERT JUMPDEST PUSH1 0x40 MLOAD PUSH1 0xE0 DUP2 ADD PUSH1 0x1 PUSH1 0x1 PUSH1 0x40 SHL SUB DUP2 GT DUP3 DUP3 LT OR ISZERO PUSH2 0x186C JUMPI PUSH2 0x186C PUSH2 0x1834 JUMP JUMPDEST PUSH1 0x40 MSTORE SWAP1 JUMP JUMPDEST PUSH1 0x40 MLOAD PUSH1 0x80 DUP2 ADD PUSH1 0x1 PUSH1 0x1 PUSH1 0x40 SHL SUB DUP2 GT DUP3 DUP3 LT OR ISZERO PUSH2 0x186C JUMPI PUSH2 0x186C PUSH2 0x1834 JUMP JUMPDEST PUSH1 0x40 MLOAD PUSH1 0x1F DUP3 ADD PUSH1 0x1F NOT AND DUP2 ADD PUSH1 0x1 PUSH1 0x1 PUSH1 0x40 SHL SUB DUP2 GT DUP3 DUP3 LT OR ISZERO PUSH2 0x18BC JUMPI PUSH2 0x18BC PUSH2 0x1834 JUMP JUMPDEST PUSH1 0x40 MSTORE SWAP2 SWAP1 POP JUMP JUMPDEST PUSH1 0x0 PUSH1 0x1 PUSH1 0x1 PUSH1 0x40 SHL SUB DUP3 GT ISZERO PUSH2 0x18DD JUMPI PUSH2 0x18DD PUSH2 0x1834 JUMP JUMPDEST POP PUSH1 0x5 SHL PUSH1 0x20 ADD SWAP1 JUMP JUMPDEST PUSH1 0x0 PUSH1 0x20 DUP1 DUP4 DUP6 SUB SLT ISZERO PUSH2 0x18FA JUMPI PUSH1 0x0 DUP1 REVERT JUMPDEST DUP3 MLOAD PUSH1 0x1 PUSH1 0x1 PUSH1 0x40 SHL SUB DUP2 GT ISZERO PUSH2 0x1910 JUMPI PUSH1 0x0 DUP1 REVERT JUMPDEST DUP4 ADD PUSH1 0x1F DUP2 ADD DUP6 SGT PUSH2 0x1921 JUMPI PUSH1 0x0 DUP1 REVERT JUMPDEST DUP1 MLOAD PUSH2 0x1934 PUSH2 0x192F DUP3 PUSH2 0x18C4 JUMP JUMPDEST PUSH2 0x1894 JUMP JUMPDEST DUP2 DUP2 MSTORE PUSH1 0x5 SWAP2 SWAP1 SWAP2 SHL DUP3 ADD DUP4 ADD SWAP1 DUP4 DUP2 ADD SWAP1 DUP8 DUP4 GT ISZERO PUSH2 0x1953 JUMPI PUSH1 0x0 DUP1 REVERT JUMPDEST SWAP3 DUP5 ADD SWAP3 JUMPDEST DUP3 DUP5 LT ISZERO PUSH2 0xB6C JUMPI DUP4 MLOAD DUP3 MSTORE SWAP3 DUP5 ADD SWAP3 SWAP1 DUP5 ADD SWAP1 PUSH2 0x1958 JUMP JUMPDEST DUP1 MLOAD PUSH2 0x197C DUP2 PUSH2 0x173A JUMP JUMPDEST SWAP2 SWAP1 POP JUMP JUMPDEST PUSH1 0x0 PUSH1 0xE0 DUP3 DUP5 SUB SLT ISZERO PUSH2 0x1993 JUMPI PUSH1 0x0 DUP1 REVERT JUMPDEST PUSH2 0x199B PUSH2 0x184A JUMP JUMPDEST DUP3 MLOAD DUP2 MSTORE PUSH1 0x20 DUP4 ADD MLOAD PUSH2 0x19AD DUP2 PUSH2 0x173A JUMP JUMPDEST DUP1 PUSH1 0x20 DUP4 ADD MSTORE POP PUSH1 0x40 DUP4 ADD MLOAD PUSH1 0x40 DUP3 ADD MSTORE PUSH1 0x60 DUP4 ADD MLOAD PUSH1 0x60 DUP3 ADD MSTORE PUSH1 0x80 DUP4 ADD MLOAD PUSH1 0x80 DUP3 ADD MSTORE PUSH1 0xA0 DUP4 ADD MLOAD PUSH1 0x4 DUP2 LT PUSH2 0x19E4 JUMPI PUSH1 0x0 DUP1 REVERT JUMPDEST PUSH1 0xA0 DUP3 ADD MSTORE PUSH2 0x19F5 PUSH1 0xC0 DUP5 ADD PUSH2 0x1971 JUMP JUMPDEST PUSH1 0xC0 DUP3 ADD MSTORE SWAP4 SWAP3 POP POP POP JUMP JUMPDEST DUP2 DUP2 SUB PUSH1 0x0 DUP4 SLT DUP1 ISZERO DUP4 DUP4 SGT AND DUP4 DUP4 SLT DUP3 AND OR ISZERO PUSH2 0x1A21 JUMPI PUSH2 0x1A21 PUSH2 0x1782 JUMP JUMPDEST POP SWAP3 SWAP2 POP POP JUMP JUMPDEST PUSH1 0x0 PUSH1 0x80 DUP3 DUP5 SUB SLT ISZERO PUSH2 0x1A3A JUMPI PUSH1 0x0 DUP1 REVERT JUMPDEST PUSH2 0x1A42 PUSH2 0x1872 JUMP JUMPDEST DUP3 MLOAD PUSH2 0x1A4D DUP2 PUSH2 0x173A JUMP JUMPDEST DUP1 DUP3 MSTORE POP PUSH1 0x20 DUP4 ADD MLOAD PUSH1 0x20 DUP3 ADD MSTORE PUSH1 0x40 DUP4 ADD MLOAD PUSH1 0x40 DUP3 ADD MSTORE PUSH1 0x60 DUP4 ADD MLOAD PUSH2 0x1A73 DUP2 PUSH2 0x16CF JUMP JUMPDEST PUSH1 0x60 DUP3 ADD MSTORE SWAP4 SWAP3 POP POP POP JUMP JUMPDEST PUSH1 0x0 PUSH1 0x20 DUP1 DUP4 DUP6 SUB SLT ISZERO PUSH2 0x1A92 JUMPI PUSH1 0x0 DUP1 REVERT JUMPDEST DUP3 MLOAD PUSH1 0x1 PUSH1 0x1 PUSH1 0x40 SHL SUB DUP2 GT ISZERO PUSH2 0x1AA8 JUMPI PUSH1 0x0 DUP1 REVERT JUMPDEST DUP4 ADD PUSH1 0x1F DUP2 ADD DUP6 SGT PUSH2 0x1AB9 JUMPI PUSH1 0x0 DUP1 REVERT JUMPDEST DUP1 MLOAD PUSH2 0x1AC7 PUSH2 0x192F DUP3 PUSH2 0x18C4 JUMP JUMPDEST DUP2 DUP2 MSTORE PUSH1 0x5 SWAP2 SWAP1 SWAP2 SHL DUP3 ADD DUP4 ADD SWAP1 DUP4 DUP2 ADD SWAP1 DUP8 DUP4 GT ISZERO PUSH2 0x1AE6 JUMPI PUSH1 0x0 DUP1 REVERT JUMPDEST SWAP3 DUP5 ADD SWAP3 JUMPDEST DUP3 DUP5 LT ISZERO PUSH2 0xB6C JUMPI DUP4 MLOAD PUSH2 0x1AFE DUP2 PUSH2 0x173A JUMP JUMPDEST DUP3 MSTORE SWAP3 DUP5 ADD SWAP3 SWAP1 DUP5 ADD SWAP1 PUSH2 0x1AEB JUMP JUMPDEST DUP1 DUP3 ADD DUP3 DUP2 SLT PUSH1 0x0 DUP4 SLT DUP1 ISZERO DUP3 AND DUP3 ISZERO DUP3 AND OR ISZERO PUSH2 0x1B2D JUMPI PUSH2 0x1B2D PUSH2 0x1782 JUMP JUMPDEST POP POP SWAP3 SWAP2 POP POP JUMP JUMPDEST PUSH1 0x0 PUSH1 0x20 DUP3 DUP5 SUB SLT ISZERO PUSH2 0x1B47 JUMPI PUSH1 0x0 DUP1 REVERT JUMPDEST DUP2 MLOAD DUP1 ISZERO ISZERO DUP2 EQ PUSH2 0x1662 JUMPI PUSH1 0x0 DUP1 REVERT JUMPDEST PUSH1 0x0 PUSH1 0x20 DUP3 DUP5 SUB SLT ISZERO PUSH2 0x1B69 JUMPI PUSH1 0x0 DUP1 REVERT JUMPDEST POP MLOAD SWAP2 SWAP1 POP JUMP JUMPDEST PUSH1 0x0 PUSH1 0x40 DUP3 DUP5 SUB SLT ISZERO PUSH2 0x1B82 JUMPI PUSH1 0x0 DUP1 REVERT JUMPDEST PUSH1 0x40 MLOAD PUSH1 0x40 DUP2 ADD DUP2 DUP2 LT PUSH1 0x1 PUSH1 0x1 PUSH1 0x40 SHL SUB DUP3 GT OR ISZERO PUSH2 0x1BA4 JUMPI PUSH2 0x1BA4 PUSH2 0x1834 JUMP JUMPDEST PUSH1 0x40 MSTORE DUP3 MLOAD DUP2 MSTORE PUSH1 0x20 SWAP3 DUP4 ADD MLOAD SWAP3 DUP2 ADD SWAP3 SWAP1 SWAP3 MSTORE POP SWAP2 SWAP1 POP JUMP JUMPDEST DUP1 DUP3 MUL PUSH1 0x0 DUP3 SLT PUSH1 0x1 PUSH1 0xFF SHL DUP5 EQ AND ISZERO PUSH2 0x1BDA JUMPI PUSH2 0x1BDA PUSH2 0x1782 JUMP JUMPDEST DUP2 DUP2 SDIV DUP4 EQ DUP3 ISZERO OR PUSH2 0x17AB JUMPI PUSH2 0x17AB PUSH2 0x1782 JUMP JUMPDEST PUSH1 0x0 DUP3 PUSH2 0x1BFD JUMPI PUSH2 0x1BFD PUSH2 0x180A JUMP JUMPDEST PUSH1 0x1 PUSH1 0xFF SHL DUP3 EQ PUSH1 0x0 NOT DUP5 EQ AND ISZERO PUSH2 0x1C17 JUMPI PUSH2 0x1C17 PUSH2 0x1782 JUMP JUMPDEST POP SDIV SWAP1 JUMP JUMPDEST PUSH1 0x0 PUSH1 0x80 DUP3 DUP5 SUB SLT ISZERO PUSH2 0x1C2E JUMPI PUSH1 0x0 DUP1 REVERT JUMPDEST PUSH2 0x1C36 PUSH2 0x1872 JUMP JUMPDEST DUP3 MLOAD PUSH2 0x1C41 DUP2 PUSH2 0x16CF JUMP JUMPDEST DUP1 DUP3 MSTORE POP PUSH1 0x20 DUP4 ADD MLOAD PUSH1 0x20 DUP3 ADD MSTORE PUSH1 0x40 DUP4 ADD MLOAD PUSH1 0x40 DUP3 ADD MSTORE PUSH1 0x60 DUP4 ADD MLOAD PUSH1 0x60 DUP3 ADD MSTORE DUP1 SWAP2 POP POP SWAP3 SWAP2 POP POP JUMP JUMPDEST PUSH1 0x0 PUSH1 0x80 DUP3 DUP5 SUB SLT ISZERO PUSH2 0x1C7F JUMPI PUSH1 0x0 DUP1 REVERT JUMPDEST PUSH2 0x1C87 PUSH2 0x1872 JUMP JUMPDEST DUP3 MLOAD DUP2 MSTORE PUSH1 0x20 DUP4 ADD MLOAD PUSH1 0x20 DUP3 ADD MSTORE PUSH1 0x40 DUP4 ADD MLOAD PUSH1 0x40 DUP3 ADD MSTORE PUSH1 0x60 DUP4 ADD MLOAD PUSH1 0x60 DUP3 ADD MSTORE DUP1 SWAP2 POP POP SWAP3 SWAP2 POP POP JUMP INVALID LOG2 PUSH5 0x6970667358 0x22 SLT KECCAK256 0x4E 0xCB CODECOPY PUSH9 0x93711D485D2AA95476 0xC0 0xC3 0xBF 0xAB 0xCE PUSH8 0xBA7AC724271A71F7 0xB0 0xF8 0xB0 0xBB PUSH32 0x64736F6C63430008140033000000000000000000000000000000000000000000 "},"methodIdentifiers":{"TIER_GOLD()":"e3d3f843","TIER_PLATINUM()":"d86b56f7","TIER_SILVER()":"9a46e412","addChainSelector(uint64)":"6bb12fd9","computeScore(address)":"c5d46dfc","getAPR(uint16)":"fb4ceaa3","getScoreTier(uint16)":"9c0c87b5","getSupportedChainSelectors()":"5f09323d","isSupportedChain(uint64)":"8926f54f","owner()":"8da5cb5b","registry()":"7b103999","removeChainSelector(uint64)":"39a2efb6","renounceOwnership()":"715018a6","supportedChainSelectors(uint256)":"962b74f7","transferOwnership(address)":"f2fde38b"}}}}}