{
  "_format": "hh-sol-artifact-1",
  "contractName": "CreditVaultV2",
  "sourceName": "contracts/CreditVaultV2.sol",
  "abi": [
    {
      "inputs": [
        {
          "internalType": "address payable",
          "name": "_registry",
          "type": "address"
        },
        {
          "internalType": "address",
          "name": "_oracle",
          "type": "address"
        }
      ],
      "stateMutability": "nonpayable",
      "type": "constructor"
    },
    {
      "inputs": [
        {
          "internalType": "address",
          "name": "target",
          "type": "address"
        }
      ],
      "name": "AddressEmptyCode",
      "type": "error"
    },
    {
      "inputs": [
        {
          "internalType": "address",
          "name": "account",
          "type": "address"
        }
      ],
      "name": "AddressInsufficientBalance",
      "type": "error"
    },
    {
      "inputs": [],
      "name": "EnforcedPause",
      "type": "error"
    },
    {
      "inputs": [],
      "name": "ExpectedPause",
      "type": "error"
    },
    {
      "inputs": [],
      "name": "FailedInnerCall",
      "type": "error"
    },
    {
      "inputs": [
        {
          "internalType": "address",
          "name": "owner",
          "type": "address"
        }
      ],
      "name": "OwnableInvalidOwner",
      "type": "error"
    },
    {
      "inputs": [
        {
          "internalType": "address",
          "name": "account",
          "type": "address"
        }
      ],
      "name": "OwnableUnauthorizedAccount",
      "type": "error"
    },
    {
      "inputs": [],
      "name": "ReentrancyGuardReentrantCall",
      "type": "error"
    },
    {
      "inputs": [
        {
          "internalType": "address",
          "name": "token",
          "type": "address"
        }
      ],
      "name": "SafeERC20FailedOperation",
      "type": "error"
    },
    {
      "anonymous": false,
      "inputs": [
        {
          "indexed": true,
          "internalType": "address",
          "name": "token",
          "type": "address"
        },
        {
          "indexed": false,
          "internalType": "address",
          "name": "priceFeed",
          "type": "address"
        },
        {
          "indexed": false,
          "internalType": "bool",
          "name": "allowed",
          "type": "bool"
        }
      ],
      "name": "AssetConfigured",
      "type": "event"
    },
    {
      "anonymous": false,
      "inputs": [
        {
          "indexed": true,
          "internalType": "address",
          "name": "user",
          "type": "address"
        },
        {
          "indexed": true,
          "internalType": "address",
          "name": "token",
          "type": "address"
        },
        {
          "indexed": false,
          "internalType": "uint256",
          "name": "amount",
          "type": "uint256"
        },
        {
          "indexed": false,
          "internalType": "uint256",
          "name": "usdValue",
          "type": "uint256"
        }
      ],
      "name": "CollateralDeposited",
      "type": "event"
    },
    {
      "anonymous": false,
      "inputs": [
        {
          "indexed": true,
          "internalType": "address",
          "name": "user",
          "type": "address"
        },
        {
          "indexed": true,
          "internalType": "address",
          "name": "token",
          "type": "address"
        },
        {
          "indexed": false,
          "internalType": "uint256",
          "name": "amount",
          "type": "uint256"
        },
        {
          "indexed": false,
          "internalType": "uint256",
          "name": "usdValue",
          "type": "uint256"
        }
      ],
      "name": "CollateralWithdrawn",
      "type": "event"
    },
    {
      "anonymous": false,
      "inputs": [
        {
          "indexed": true,
          "internalType": "uint256",
          "name": "loanId",
          "type": "uint256"
        },
        {
          "indexed": false,
          "internalType": "uint256",
          "name": "timestamp",
          "type": "uint256"
        }
      ],
      "name": "GracePeriodStarted",
      "type": "event"
    },
    {
      "anonymous": false,
      "inputs": [
        {
          "indexed": true,
          "internalType": "address",
          "name": "pool",
          "type": "address"
        }
      ],
      "name": "InsurancePoolSet",
      "type": "event"
    },
    {
      "anonymous": false,
      "inputs": [
        {
          "indexed": true,
          "internalType": "uint256",
          "name": "loanId",
          "type": "uint256"
        },
        {
          "indexed": true,
          "internalType": "address",
          "name": "borrower",
          "type": "address"
        },
        {
          "indexed": false,
          "internalType": "uint256",
          "name": "principal",
          "type": "uint256"
        },
        {
          "indexed": false,
          "internalType": "uint256",
          "name": "collateral",
          "type": "uint256"
        },
        {
          "indexed": false,
          "internalType": "address",
          "name": "collateralToken",
          "type": "address"
        }
      ],
      "name": "LoanCreated",
      "type": "event"
    },
    {
      "anonymous": false,
      "inputs": [
        {
          "indexed": true,
          "internalType": "uint256",
          "name": "loanId",
          "type": "uint256"
        },
        {
          "indexed": true,
          "internalType": "address",
          "name": "borrower",
          "type": "address"
        },
        {
          "indexed": true,
          "internalType": "address",
          "name": "liquidator",
          "type": "address"
        },
        {
          "indexed": false,
          "internalType": "uint256",
          "name": "collateralSeized",
          "type": "uint256"
        }
      ],
      "name": "LoanLiquidated",
      "type": "event"
    },
    {
      "anonymous": false,
      "inputs": [
        {
          "indexed": true,
          "internalType": "uint256",
          "name": "loanId",
          "type": "uint256"
        },
        {
          "indexed": true,
          "internalType": "address",
          "name": "borrower",
          "type": "address"
        },
        {
          "indexed": false,
          "internalType": "uint256",
          "name": "amount",
          "type": "uint256"
        },
        {
          "indexed": false,
          "internalType": "uint256",
          "name": "remaining",
          "type": "uint256"
        }
      ],
      "name": "LoanRepaid",
      "type": "event"
    },
    {
      "anonymous": false,
      "inputs": [
        {
          "indexed": true,
          "internalType": "address",
          "name": "newOracle",
          "type": "address"
        }
      ],
      "name": "OracleUpdated",
      "type": "event"
    },
    {
      "anonymous": false,
      "inputs": [
        {
          "indexed": true,
          "internalType": "address",
          "name": "previousOwner",
          "type": "address"
        },
        {
          "indexed": true,
          "internalType": "address",
          "name": "newOwner",
          "type": "address"
        }
      ],
      "name": "OwnershipTransferred",
      "type": "event"
    },
    {
      "anonymous": false,
      "inputs": [
        {
          "indexed": false,
          "internalType": "address",
          "name": "account",
          "type": "address"
        }
      ],
      "name": "Paused",
      "type": "event"
    },
    {
      "anonymous": false,
      "inputs": [
        {
          "indexed": false,
          "internalType": "address",
          "name": "account",
          "type": "address"
        }
      ],
      "name": "Unpaused",
      "type": "event"
    },
    {
      "inputs": [],
      "name": "GRACE_BRONZE",
      "outputs": [
        {
          "internalType": "uint256",
          "name": "",
          "type": "uint256"
        }
      ],
      "stateMutability": "view",
      "type": "function"
    },
    {
      "inputs": [],
      "name": "GRACE_GOLD",
      "outputs": [
        {
          "internalType": "uint256",
          "name": "",
          "type": "uint256"
        }
      ],
      "stateMutability": "view",
      "type": "function"
    },
    {
      "inputs": [],
      "name": "GRACE_PLATINUM",
      "outputs": [
        {
          "internalType": "uint256",
          "name": "",
          "type": "uint256"
        }
      ],
      "stateMutability": "view",
      "type": "function"
    },
    {
      "inputs": [],
      "name": "GRACE_SILVER",
      "outputs": [
        {
          "internalType": "uint256",
          "name": "",
          "type": "uint256"
        }
      ],
      "stateMutability": "view",
      "type": "function"
    },
    {
      "inputs": [],
      "name": "INSURANCE_SHARE_BPS",
      "outputs": [
        {
          "internalType": "uint16",
          "name": "",
          "type": "uint16"
        }
      ],
      "stateMutability": "view",
      "type": "function"
    },
    {
      "inputs": [],
      "name": "LIQUIDATION_PENALTY_BPS",
      "outputs": [
        {
          "internalType": "uint16",
          "name": "",
          "type": "uint16"
        }
      ],
      "stateMutability": "view",
      "type": "function"
    },
    {
      "inputs": [],
      "name": "LIQUIDATOR_SHARE_BPS",
      "outputs": [
        {
          "internalType": "uint16",
          "name": "",
          "type": "uint16"
        }
      ],
      "stateMutability": "view",
      "type": "function"
    },
    {
      "inputs": [],
      "name": "LTV_BRONZE",
      "outputs": [
        {
          "internalType": "uint16",
          "name": "",
          "type": "uint16"
        }
      ],
      "stateMutability": "view",
      "type": "function"
    },
    {
      "inputs": [],
      "name": "LTV_GOLD",
      "outputs": [
        {
          "internalType": "uint16",
          "name": "",
          "type": "uint16"
        }
      ],
      "stateMutability": "view",
      "type": "function"
    },
    {
      "inputs": [],
      "name": "LTV_PLATINUM",
      "outputs": [
        {
          "internalType": "uint16",
          "name": "",
          "type": "uint16"
        }
      ],
      "stateMutability": "view",
      "type": "function"
    },
    {
      "inputs": [],
      "name": "LTV_SILVER",
      "outputs": [
        {
          "internalType": "uint16",
          "name": "",
          "type": "uint16"
        }
      ],
      "stateMutability": "view",
      "type": "function"
    },
    {
      "inputs": [],
      "name": "MIN_HEALTH_FACTOR",
      "outputs": [
        {
          "internalType": "uint256",
          "name": "",
          "type": "uint256"
        }
      ],
      "stateMutability": "view",
      "type": "function"
    },
    {
      "inputs": [
        {
          "internalType": "address",
          "name": "",
          "type": "address"
        }
      ],
      "name": "assets",
      "outputs": [
        {
          "internalType": "bool",
          "name": "allowed",
          "type": "bool"
        },
        {
          "internalType": "address",
          "name": "priceFeed",
          "type": "address"
        }
      ],
      "stateMutability": "view",
      "type": "function"
    },
    {
      "inputs": [
        {
          "internalType": "address",
          "name": "collateralToken",
          "type": "address"
        },
        {
          "internalType": "uint256",
          "name": "collateralAmount",
          "type": "uint256"
        },
        {
          "internalType": "uint256",
          "name": "principalUsd18",
          "type": "uint256"
        }
      ],
      "name": "borrow",
      "outputs": [
        {
          "internalType": "uint256",
          "name": "loanId",
          "type": "uint256"
        }
      ],
      "stateMutability": "nonpayable",
      "type": "function"
    },
    {
      "inputs": [
        {
          "internalType": "uint256",
          "name": "loanId",
          "type": "uint256"
        }
      ],
      "name": "calculateDebt",
      "outputs": [
        {
          "internalType": "uint256",
          "name": "",
          "type": "uint256"
        }
      ],
      "stateMutability": "view",
      "type": "function"
    },
    {
      "inputs": [
        {
          "internalType": "address",
          "name": "token",
          "type": "address"
        },
        {
          "internalType": "uint256",
          "name": "amount",
          "type": "uint256"
        }
      ],
      "name": "depositCollateral",
      "outputs": [],
      "stateMutability": "nonpayable",
      "type": "function"
    },
    {
      "inputs": [
        {
          "internalType": "uint256",
          "name": "loanId",
          "type": "uint256"
        }
      ],
      "name": "getHealthFactor",
      "outputs": [
        {
          "internalType": "uint256",
          "name": "",
          "type": "uint256"
        }
      ],
      "stateMutability": "view",
      "type": "function"
    },
    {
      "inputs": [
        {
          "internalType": "address",
          "name": "user",
          "type": "address"
        }
      ],
      "name": "getUserHealthFactor",
      "outputs": [
        {
          "internalType": "uint256",
          "name": "",
          "type": "uint256"
        }
      ],
      "stateMutability": "view",
      "type": "function"
    },
    {
      "inputs": [
        {
          "internalType": "uint256",
          "name": "loanId",
          "type": "uint256"
        }
      ],
      "name": "getVaultLoanData",
      "outputs": [
        {
          "components": [
            {
              "internalType": "address",
              "name": "collateralToken",
              "type": "address"
            },
            {
              "internalType": "uint256",
              "name": "collateralAmount",
              "type": "uint256"
            },
            {
              "internalType": "uint256",
              "name": "aprBps",
              "type": "uint256"
            },
            {
              "internalType": "uint256",
              "name": "startTimestamp",
              "type": "uint256"
            },
            {
              "internalType": "uint256",
              "name": "graceStart",
              "type": "uint256"
            },
            {
              "internalType": "bool",
              "name": "exists",
              "type": "bool"
            }
          ],
          "internalType": "struct CreditVaultV2.VaultLoanData",
          "name": "",
          "type": "tuple"
        }
      ],
      "stateMutability": "view",
      "type": "function"
    },
    {
      "inputs": [],
      "name": "insurancePool",
      "outputs": [
        {
          "internalType": "address",
          "name": "",
          "type": "address"
        }
      ],
      "stateMutability": "view",
      "type": "function"
    },
    {
      "inputs": [
        {
          "internalType": "uint256",
          "name": "loanId",
          "type": "uint256"
        }
      ],
      "name": "liquidate",
      "outputs": [],
      "stateMutability": "nonpayable",
      "type": "function"
    },
    {
      "inputs": [],
      "name": "oracle",
      "outputs": [
        {
          "internalType": "contract ScoreOraclePhase3",
          "name": "",
          "type": "address"
        }
      ],
      "stateMutability": "view",
      "type": "function"
    },
    {
      "inputs": [],
      "name": "owner",
      "outputs": [
        {
          "internalType": "address",
          "name": "",
          "type": "address"
        }
      ],
      "stateMutability": "view",
      "type": "function"
    },
    {
      "inputs": [],
      "name": "pause",
      "outputs": [],
      "stateMutability": "nonpayable",
      "type": "function"
    },
    {
      "inputs": [],
      "name": "paused",
      "outputs": [
        {
          "internalType": "bool",
          "name": "",
          "type": "bool"
        }
      ],
      "stateMutability": "view",
      "type": "function"
    },
    {
      "inputs": [],
      "name": "registry",
      "outputs": [
        {
          "internalType": "contract CreditRegistryV2",
          "name": "",
          "type": "address"
        }
      ],
      "stateMutability": "view",
      "type": "function"
    },
    {
      "inputs": [],
      "name": "renounceOwnership",
      "outputs": [],
      "stateMutability": "nonpayable",
      "type": "function"
    },
    {
      "inputs": [
        {
          "internalType": "uint256",
          "name": "loanId",
          "type": "uint256"
        },
        {
          "internalType": "uint256",
          "name": "amountUsd18",
          "type": "uint256"
        }
      ],
      "name": "repay",
      "outputs": [],
      "stateMutability": "nonpayable",
      "type": "function"
    },
    {
      "inputs": [
        {
          "internalType": "address",
          "name": "token",
          "type": "address"
        },
        {
          "internalType": "address",
          "name": "priceFeed",
          "type": "address"
        },
        {
          "internalType": "bool",
          "name": "allowed",
          "type": "bool"
        }
      ],
      "name": "setAsset",
      "outputs": [],
      "stateMutability": "nonpayable",
      "type": "function"
    },
    {
      "inputs": [
        {
          "internalType": "address",
          "name": "_pool",
          "type": "address"
        }
      ],
      "name": "setInsurancePool",
      "outputs": [],
      "stateMutability": "nonpayable",
      "type": "function"
    },
    {
      "inputs": [
        {
          "internalType": "address",
          "name": "_oracle",
          "type": "address"
        }
      ],
      "name": "setOracle",
      "outputs": [],
      "stateMutability": "nonpayable",
      "type": "function"
    },
    {
      "inputs": [
        {
          "internalType": "address",
          "name": "newOwner",
          "type": "address"
        }
      ],
      "name": "transferOwnership",
      "outputs": [],
      "stateMutability": "nonpayable",
      "type": "function"
    },
    {
      "inputs": [],
      "name": "unpause",
      "outputs": [],
      "stateMutability": "nonpayable",
      "type": "function"
    },
    {
      "inputs": [
        {
          "internalType": "address",
          "name": "",
          "type": "address"
        }
      ],
      "name": "userCollateral",
      "outputs": [
        {
          "internalType": "uint256",
          "name": "",
          "type": "uint256"
        }
      ],
      "stateMutability": "view",
      "type": "function"
    },
    {
      "inputs": [
        {
          "internalType": "uint256",
          "name": "",
          "type": "uint256"
        }
      ],
      "name": "vaultLoans",
      "outputs": [
        {
          "internalType": "address",
          "name": "collateralToken",
          "type": "address"
        },
        {
          "internalType": "uint256",
          "name": "collateralAmount",
          "type": "uint256"
        },
        {
          "internalType": "uint256",
          "name": "aprBps",
          "type": "uint256"
        },
        {
          "internalType": "uint256",
          "name": "startTimestamp",
          "type": "uint256"
        },
        {
          "internalType": "uint256",
          "name": "graceStart",
          "type": "uint256"
        },
        {
          "internalType": "bool",
          "name": "exists",
          "type": "bool"
        }
      ],
      "stateMutability": "view",
      "type": "function"
    },
    {
      "inputs": [
        {
          "internalType": "address",
          "name": "token",
          "type": "address"
        },
        {
          "internalType": "uint256",
          "name": "amount",
          "type": "uint256"
        }
      ],
      "name": "withdrawCollateral",
      "outputs": [],
      "stateMutability": "nonpayable",
      "type": "function"
    }
  ],
  "bytecode": "0x60a06040523480156200001157600080fd5b5060405162002c7338038062002c738339810160408190526200003491620001a3565b33806200005c57604051631e4fbdf760e01b8152600060048201526024015b60405180910390fd5b62000067816200013a565b50600180556002805460ff191690556001600160a01b038216620000c15760405162461bcd60e51b815260206004820152601060248201526f496e76616c696420726567697374727960801b604482015260640162000053565b6001600160a01b0381166200010a5760405162461bcd60e51b815260206004820152600e60248201526d496e76616c6964206f7261636c6560901b604482015260640162000053565b6001600160a01b03918216608052600280549190921661010002610100600160a81b0319909116179055620001e2565b600080546001600160a01b038381166001600160a01b0319831681178455604051919092169283917f8be0079c531659141344cd1fd0a4f28419497f9722a3daafe3b4186f6b6457e09190a35050565b6001600160a01b0381168114620001a057600080fd5b50565b60008060408385031215620001b757600080fd5b8251620001c4816200018a565b6020840151909250620001d7816200018a565b809150509250929050565b608051612a366200023d600039600081816103fa015281816106d501528181610a5c0152818161108d015281816113a8015281816115040152818161170b01528181611a3901528181611abb0152611f340152612a366000f3fe608060405234801561001057600080fd5b506004361061021c5760003560e01c80638da5cb5b11610125578063d850342f116100ad578063f11b81881161007c578063f11b81881461050c578063f1e35f131461055e578063f2fde38b14610566578063f69f1e4a14610579578063fc54ddfb1461059957600080fd5b8063d850342f146104dd578063d8aed145146104e7578063dd949328146104fa578063eb32bd9d1461050457600080fd5b8063b32a5314116100f4578063b32a53141461049e578063b5627e42146104a8578063c1bce0b7146104b7578063c41c22fc146102cf578063cb0dc99d146104ca57600080fd5b80638da5cb5b14610454578063a5d5db0c14610465578063a94c487e14610478578063ab2adc001461048b57600080fd5b80634f0f29f4116101a857806371cbfc981161017757806371cbfc98146103cf5780637adbf973146103e25780637b103999146103f55780637dc0d1d0146104345780638456cb591461044c57600080fd5b80634f0f29f41461031b5780635c975abb1461032557806364ca1c691461033b578063715018a6146103c757600080fd5b80631d1a54ce116101ef5780631d1a54ce146102cf57806328cd5a99146102d8578063350c35e9146102eb5780633f4ba83a14610300578063415f12401461030857600080fd5b806306057c5c146102215780630943a954146102415780630f863aba1461024957806317845c69146102ae575b600080fd5b610229604681565b60405161ffff90911681526020015b60405180910390f35b610229605081565b61025c61025736600461233d565b6105a2565b604051610238919081516001600160a01b031681526020808301519082015260408083015190820152606080830151908201526080808301519082015260a09182015115159181019190915260c00190565b6102c16102bc36600461233d565b61064c565b604051908152602001610238565b6102296101f481565b6102c16102e636600461233d565b6107bb565b6102fe6102f936600461236b565b6107cc565b005b6102fe6109ce565b6102fe61031636600461233d565b6109e0565b6102c16202a30081565b60025460ff166040519015158152602001610238565b61038e61034936600461233d565b60036020819052600091825260409091208054600182015460028301549383015460048401546005909401546001600160a01b03909316949193919290919060ff1686565b604080516001600160a01b03909716875260208701959095529385019290925260608401526080830152151560a082015260c001610238565b6102fe610b67565b6102c16103dd366004612397565b610b79565b6102fe6103f0366004612397565b610bd7565b61041c7f000000000000000000000000000000000000000000000000000000000000000081565b6040516001600160a01b039091168152602001610238565b60025461041c9061010090046001600160a01b031681565b6102fe610c78565b6000546001600160a01b031661041c565b6102fe61047336600461236b565b610c88565b6102fe610486366004612397565b610d8a565b60065461041c906001600160a01b031681565b6102c16201518081565b6102c16710a741a46278000081565b6102c16104c53660046123b4565b610e21565b6102fe6104d83660046123f7565b6111f2565b6102c16203f48081565b6102fe6104f5366004612442565b61132c565b6102c16201fa4081565b610229605a81565b61053f61051a366004612397565b60046020526000908152604090205460ff81169061010090046001600160a01b031682565b6040805192151583526001600160a01b03909116602083015201610238565b610229603281565b6102fe610574366004612397565b611647565b6102c1610587366004612397565b60056020526000908152604090205481565b6102296103e881565b6105e66040518060c0016040528060006001600160a01b03168152602001600081526020016000815260200160008152602001600081526020016000151581525090565b50600090815260036020818152604092839020835160c08101855281546001600160a01b031681526001820154928101929092526002810154938201939093529082015460608201526004820154608082015260059091015460ff16151560a082015290565b6000818152600360208181526040808420815160c08101835281546001600160a01b031681526001820154938101939093526002810154918301919091529182015460608201526004820154608082015260059091015460ff16151560a082018190526106bc5750600092915050565b604051632820036560e11b8152600481018490526000907f00000000000000000000000000000000000000000000000000000000000000006001600160a01b03169063504006ca9060240160e060405180830381865afa158015610724573d6000803e3d6000fd5b505050506040513d601f19601f8201168201806040525081019061074891906124df565b905060018160a0015160038111156107625761076261255f565b14610771575060009392505050565b600061077c85611682565b90506000610792846000015185602001516117fe565b9050816107a782670de0b6b3a764000061258b565b6107b191906125a2565b9695505050505050565b60006107c682611682565b92915050565b6107d46119c7565b6107dc6119f1565b6001600160a01b03821660009081526004602052604090205460ff1661081d5760405162461bcd60e51b8152600401610814906125c4565b60405180910390fd5b6000811161083d5760405162461bcd60e51b8152600401610814906125ef565b600061084983836117fe565b336000908152600560205260409020549091508111156108ab5760405162461bcd60e51b815260206004820152601760248201527f496e73756666696369656e7420636f6c6c61746572616c0000000000000000006044820152606401610814565b33600090815260056020526040812080548392906108ca908490612614565b90915550600090506108db33611a15565b905080156109655733600090815260056020526040812054829061090790670de0b6b3a764000061258b565b61091191906125a2565b90506710a741a4627800008110156109635760405162461bcd60e51b81526020600482015260156024820152744865616c746820666163746f7220746f6f206c6f7760581b6044820152606401610814565b505b6109796001600160a01b0385163385611bca565b60408051848152602081018490526001600160a01b0386169133917f4700a5c58c58ea6536703185e43dae38bfd4158ee5330c70988f02a65562a36e910160405180910390a350506109ca60018055565b5050565b6109d6611c2e565b6109de611c5b565b565b6109e86119c7565b6109f06119f1565b6000818152600360205260409020600581015460ff16610a435760405162461bcd60e51b815260206004820152600e60248201526d131bd85b881b9bdd08199bdd5b9960921b6044820152606401610814565b604051632820036560e11b8152600481018390526000907f00000000000000000000000000000000000000000000000000000000000000006001600160a01b03169063504006ca9060240160e060405180830381865afa158015610aab573d6000803e3d6000fd5b505050506040513d601f19601f82011682018060405250810190610acf91906124df565b905060018160a001516003811115610ae957610ae961255f565b14610b285760405162461bcd60e51b815260206004820152600f60248201526e4c6f616e206e6f742061637469766560881b6044820152606401610814565b6000610b3984848460200151611cad565b905080610b4857505050610b5b565b610b5784848460200151611e49565b5050505b610b6460018055565b50565b610b6f611c2e565b6109de6000611ff2565b600080610b8583611a15565b905080600003610b99575060001992915050565b6001600160a01b0383166000908152600560205260409020548190610bc690670de0b6b3a764000061258b565b610bd091906125a2565b9392505050565b610bdf611c2e565b6001600160a01b038116610c265760405162461bcd60e51b815260206004820152600e60248201526d496e76616c6964206f7261636c6560901b6044820152606401610814565b60028054610100600160a81b0319166101006001600160a01b038416908102919091179091556040517f3df77beb5db05fcdd70a30fc8adf3f83f9501b68579455adbd100b818094039490600090a250565b610c80611c2e565b6109de612042565b610c906119c7565b610c986119f1565b6001600160a01b03821660009081526004602052604090205460ff16610cd05760405162461bcd60e51b8152600401610814906125c4565b60008111610cf05760405162461bcd60e51b8152600401610814906125ef565b610d056001600160a01b03831633308461207f565b6000610d1183836117fe565b33600090815260056020526040812080549293508392909190610d35908490612627565b909155505060408051838152602081018390526001600160a01b0385169133917f95d16db8c4932fcf5d6de67364791e7178ec505c7d3829a8b34d18959c01552c910160405180910390a3506109ca60018055565b610d92611c2e565b6001600160a01b038116610dd75760405162461bcd60e51b815260206004820152600c60248201526b125b9d985b1a59081c1bdbdb60a21b6044820152606401610814565b600680546001600160a01b0319166001600160a01b0383169081179091556040517fdb94373ec3215b3142c9088cb1f834141c88090d24a7172315200cd92b85306590600090a250565b6000610e2b6119c7565b610e336119f1565b6001600160a01b03841660009081526004602052604090205460ff16610e6b5760405162461bcd60e51b8152600401610814906125c4565b60008311610ead5760405162461bcd60e51b815260206004820152600f60248201526e16995c9bc818dbdb1b185d195c985b608a1b6044820152606401610814565b60008211610eee5760405162461bcd60e51b815260206004820152600e60248201526d16995c9bc81c1c9a5b98da5c185b60921b6044820152606401610814565b6002546040516331751b7f60e21b815233600482015260009161010090046001600160a01b03169063c5d46dfc9060240160c060405180830381865afa158015610f3c573d6000803e3d6000fd5b505050506040513d601f19601f82011682018060405250810190610f60919061265d565b90506000610f718260a001516120be565b90506000610f7f87876117fe565b9050610f8f61ffff83168261258b565b610f9a86606461258b565b1115610fde5760405162461bcd60e51b815260206004820152601360248201527222bc31b2b2b2399030b63637bbb2b210262a2b60691b6044820152606401610814565b60025460a084015160405163fb4ceaa360e01b815261ffff909116600482015260009161010090046001600160a01b03169063fb4ceaa390602401602060405180830381865afa158015611036573d6000803e3d6000fd5b505050506040513d601f19601f8201168201806040525081019061105a9190612704565b90506110716001600160a01b03891633308a61207f565b60405163026668bd60e61b8152336004820152602481018790527f00000000000000000000000000000000000000000000000000000000000000006001600160a01b03169063999a2f40906044016020604051808303816000875af11580156110de573d6000803e3d6000fd5b505050506040513d601f19601f82011682018060405250810190611102919061271f565b6040805160c0810182526001600160a01b038b811680835260208084018d815261ffff8816858701908152426060808801918252600060808901818152600160a08b018181528d84526003808a52938d90209b518c546001600160a01b0319169b169a909a178b559551958a0195909555925160028901559051918701919091559051600486015592516005909401805460ff19169415159490941790935583518b81529283018c905292820192909252919650339187917fc64023e02d0cb6f8d0b71a27b868cf100ab2b029455da648672e0522de0f4ce5910160405180910390a350505050610bd060018055565b6111fa611c2e565b6001600160a01b0383166112405760405162461bcd60e51b815260206004820152600d60248201526c24b73b30b634b2103a37b5b2b760991b6044820152606401610814565b6001600160a01b03821661128b5760405162461bcd60e51b8152602060048201526012602482015271125b9d985b1a59081c1c9a58d9481999595960721b6044820152606401610814565b6040805180820182528215158082526001600160a01b0385811660208085018281528984166000818152600484528890209651875492516001600160a81b0319909316901515610100600160a81b03191617610100929095169190910293909317909455845190815292830191909152917f93c63ede467bb2aab36216973fe7ae0908f66f1f5de14fe7f1b754f58798060b910160405180910390a2505050565b6113346119c7565b61133c6119f1565b6000828152600360205260409020600581015460ff1661138f5760405162461bcd60e51b815260206004820152600e60248201526d131bd85b881b9bdd08199bdd5b9960921b6044820152606401610814565b604051632820036560e11b8152600481018490526000907f00000000000000000000000000000000000000000000000000000000000000006001600160a01b03169063504006ca9060240160e060405180830381865afa1580156113f7573d6000803e3d6000fd5b505050506040513d601f19601f8201168201806040525081019061141b91906124df565b905060018160a0015160038111156114355761143561255f565b146114745760405162461bcd60e51b815260206004820152600f60248201526e4c6f616e206e6f742061637469766560881b6044820152606401610814565b600083116114945760405162461bcd60e51b8152600401610814906125ef565b600061149f85611682565b9050808411156114e75760405162461bcd60e51b8152602060048201526013602482015272105b5bdd5b9d08195e18d959591cc81919589d606a1b6044820152606401610814565b604051638ef6dce960e01b815260048101869052602481018590527f00000000000000000000000000000000000000000000000000000000000000006001600160a01b031690638ef6dce990604401600060405180830381600087803b15801561155057600080fd5b505af1158015611564573d6000803e3d6000fd5b505050508084106115e757602082015160018401548454611590926001600160a01b0390911691611bca565b81602001516001600160a01b0316857f553c9087bff5b534e499a66dac3fa9db2962cd252ea01165239755836ae5345e8660006040516115da929190918252602082015260400190565b60405180910390a361163b565b60208201516001600160a01b0316857f553c9087bff5b534e499a66dac3fa9db2962cd252ea01165239755836ae5345e866116228186612614565b6040805192835260208301919091520160405180910390a35b5050506109ca60018055565b61164f611c2e565b6001600160a01b03811661167957604051631e4fbdf760e01b815260006004820152602401610814565b610b6481611ff2565b6000818152600360208181526040808420815160c08101835281546001600160a01b031681526001820154938101939093526002810154918301919091529182015460608201526004820154608082015260059091015460ff16151560a082018190526116f25750600092915050565b604051632820036560e11b8152600481018490526000907f00000000000000000000000000000000000000000000000000000000000000006001600160a01b03169063504006ca9060240160e060405180830381865afa15801561175a573d6000803e3d6000fd5b505050506040513d601f19601f8201168201806040525081019061177e91906124df565b905060018160a0015160038111156117985761179861255f565b146117a7575060009392505050565b60008260600151426117b99190612614565b9050600064496cebb80082856040015185604001516117d8919061258b565b6117e2919061258b565b6117ec91906125a2565b90508083604001516107b19190612627565b6001600160a01b03808316600090815260046020908152604080832081518083019092525460ff8116151580835261010090910490941691810191909152909161185a5760405162461bcd60e51b8152600401610814906125c4565b6000816020015190506000816001600160a01b031663feaf968c6040518163ffffffff1660e01b815260040160a060405180830381865afa1580156118a3573d6000803e3d6000fd5b505050506040513d601f19601f820116820180604052508101906118c79190612752565b5050509150506000811361190d5760405162461bcd60e51b815260206004820152600d60248201526c496e76616c696420707269636560981b6044820152606401610814565b6000826001600160a01b031663313ce5676040518163ffffffff1660e01b8152600401602060405180830381865afa15801561194d573d6000803e3d6000fd5b505050506040513d601f19601f8201168201806040525081019061197191906127a2565b9050600061197e88612104565b905061198a82826127bd565b61199590600a6128ba565b61199f848961258b565b6119b190670de0b6b3a764000061258b565b6119bb91906125a2565b98975050505050505050565b6002600154036119ea57604051633ee5aeb560e01b815260040160405180910390fd5b6002600155565b60025460ff16156109de5760405163d93c066560e01b815260040160405180910390fd5b6040516346dc972760e11b81526001600160a01b03828116600483015260009182917f00000000000000000000000000000000000000000000000000000000000000001690638db92e4e90602401600060405180830381865afa158015611a80573d6000803e3d6000fd5b505050506040513d6000823e601f3d908101601f19168201604052611aa891908101906128c9565b90506000805b8251811015611bc25760007f00000000000000000000000000000000000000000000000000000000000000006001600160a01b031663504006ca858481518110611afa57611afa612963565b60200260200101516040518263ffffffff1660e01b8152600401611b2091815260200190565b60e060405180830381865afa158015611b3d573d6000803e3d6000fd5b505050506040513d601f19601f82011682018060405250810190611b6191906124df565b905060018160a001516003811115611b7b57611b7b61255f565b03611baf57611ba2848381518110611b9557611b95612963565b6020026020010151611682565b611bac9084612627565b92505b5080611bba81612979565b915050611aae565b509392505050565b6040516001600160a01b03838116602483015260448201839052611c2991859182169063a9059cbb906064015b604051602081830303815290604052915060e01b6020820180516001600160e01b038381831617835250505050612171565b505050565b6000546001600160a01b031633146109de5760405163118cdaa760e01b8152336004820152602401610814565b611c636121d4565b6002805460ff191690557f5db9ee0a495bf2e6ff9c91a7834c1ba4fdd244a5e8aa4e537bd38aeae4b073aa335b6040516001600160a01b03909116815260200160405180910390a1565b600080611cb985611682565b84546001860154919250600091611cd9916001600160a01b0316906117fe565b6002546040516331751b7f60e21b81526001600160a01b0387811660048301529293506000926101009092049091169063c5d46dfc9060240160c060405180830381865afa158015611d2f573d6000803e3d6000fd5b505050506040513d601f19601f82011682018060405250810190611d53919061265d565b90506000611d648260a001516120be565b90506000611d7382600a612992565b61ffff1690506000611d85828661258b565b611d9087606461258b565b1190508015611da85760019650505050505050610bd0565b6000611db78560a001516121f7565b90508960040154600003611e12574260048b018190556040519081528b907f850e821388cbf246fb93b12357651e23887c72f848742c21dbff137031b1356b9060200160405180910390a26000975050505050505050610bd0565b808a60040154611e229190612627565b4210611e38576001975050505050505050610bd0565b5060009a9950505050505050505050565b600182015482546001600160a01b03166000612710611e6a6101f48561258b565b611e7491906125a2565b90506000612710611e876101f48661258b565b611e9191906125a2565b90506000611e9f8284612627565b90506000611ead8287612614565b9050611ec36001600160a01b0386163386611bca565b6006546001600160a01b031615611eee57600654611eee906001600160a01b03878116911685611bca565b8015611f0857611f086001600160a01b0386168883611bca565b6000611f1486846117fe565b60405163134d564f60e21b8152600481018c9052602481018290529091507f00000000000000000000000000000000000000000000000000000000000000006001600160a01b031690634d35593c90604401600060405180830381600087803b158015611f8057600080fd5b505af1158015611f94573d6000803e3d6000fd5b50505050336001600160a01b0316886001600160a01b03168b7fe4b3cb24da49cbaa1989989a720518b9c8c12f4a6e0d848853745d9271104b0f8a604051611fde91815260200190565b60405180910390a450505050505050505050565b600080546001600160a01b038381166001600160a01b0319831681178455604051919092169283917f8be0079c531659141344cd1fd0a4f28419497f9722a3daafe3b4186f6b6457e09190a35050565b61204a6119f1565b6002805460ff191660011790557f62e78cea01bee320cd4e420270b5ea74000d11b0c9f74754ebdbfc544b05a258611c903390565b6040516001600160a01b0384811660248301528381166044830152606482018390526120b89186918216906323b872dd90608401611bf7565b50505050565b6000605a8261ffff16106120d45750605a919050565b604b8261ffff16106120e857506050919050565b603c8261ffff16106120fc57506046919050565b506032919050565b6000816001600160a01b031663313ce5676040518163ffffffff1660e01b8152600401602060405180830381865afa925050508015612160575060408051601f3d908101601f1916820190925261215d918101906127a2565b60015b6107c657506012919050565b919050565b60006121866001600160a01b03841683612245565b905080516000141580156121ab5750808060200190518101906121a991906129b4565b155b15611c2957604051635274afe760e01b81526001600160a01b0384166004820152602401610814565b60025460ff166109de57604051638dfc202b60e01b815260040160405180910390fd5b6000605a8261ffff161061220f57506203f480919050565b604b8261ffff161061222557506202a300919050565b603c8261ffff161061223b57506201fa40919050565b5062015180919050565b6060610bd08383600084600080856001600160a01b0316848660405161226b91906129d1565b60006040518083038185875af1925050503d80600081146122a8576040519150601f19603f3d011682016040523d82523d6000602084013e6122ad565b606091505b50915091506107b18683836060826122cd576122c882612314565b610bd0565b81511580156122e457506001600160a01b0384163b155b1561230d57604051639996b31560e01b81526001600160a01b0385166004820152602401610814565b5080610bd0565b8051156123245780518082602001fd5b604051630a12f52160e11b815260040160405180910390fd5b60006020828403121561234f57600080fd5b5035919050565b6001600160a01b0381168114610b6457600080fd5b6000806040838503121561237e57600080fd5b823561238981612356565b946020939093013593505050565b6000602082840312156123a957600080fd5b8135610bd081612356565b6000806000606084860312156123c957600080fd5b83356123d481612356565b95602085013595506040909401359392505050565b8015158114610b6457600080fd5b60008060006060848603121561240c57600080fd5b833561241781612356565b9250602084013561242781612356565b91506040840135612437816123e9565b809150509250925092565b6000806040838503121561245557600080fd5b50508035926020909101359150565b634e487b7160e01b600052604160045260246000fd5b60405160e0810167ffffffffffffffff8111828210171561249d5761249d612464565b60405290565b604051601f8201601f1916810167ffffffffffffffff811182821017156124cc576124cc612464565b604052919050565b805161216c81612356565b600060e082840312156124f157600080fd5b6124f961247a565b82518152602083015161250b81612356565b8060208301525060408301516040820152606083015160608201526080830151608082015260a08301516004811061254257600080fd5b60a082015261255360c084016124d4565b60c08201529392505050565b634e487b7160e01b600052602160045260246000fd5b634e487b7160e01b600052601160045260246000fd5b80820281158282048414176107c6576107c6612575565b6000826125bf57634e487b7160e01b600052601260045260246000fd5b500490565b602080825260119082015270105cdcd95d081b9bdd08185b1b1bddd959607a1b604082015260600190565b6020808252600b908201526a16995c9bc8185b5bdd5b9d60aa1b604082015260600190565b818103818111156107c6576107c6612575565b808201808211156107c6576107c6612575565b805160ff8116811461216c57600080fd5b805161ffff8116811461216c57600080fd5b600060c0828403121561266f57600080fd5b60405160c0810181811067ffffffffffffffff8211171561269257612692612464565b60405261269e8361263a565b81526126ac6020840161263a565b602082015260408301518060010b81146126c557600080fd5b60408201526126d66060840161263a565b60608201526126e76080840161263a565b60808201526126f860a0840161264b565b60a08201529392505050565b60006020828403121561271657600080fd5b610bd08261264b565b60006020828403121561273157600080fd5b5051919050565b805169ffffffffffffffffffff8116811461216c57600080fd5b600080600080600060a0868803121561276a57600080fd5b61277386612738565b945060208601519350604086015192506060860151915061279660808701612738565b90509295509295909350565b6000602082840312156127b457600080fd5b610bd08261263a565b60ff81811683821601908111156107c6576107c6612575565b600181815b808511156128115781600019048211156127f7576127f7612575565b8085161561280457918102915b93841c93908002906127db565b509250929050565b600082612828575060016107c6565b81612835575060006107c6565b816001811461284b576002811461285557612871565b60019150506107c6565b60ff84111561286657612866612575565b50506001821b6107c6565b5060208310610133831016604e8410600b8410161715612894575081810a6107c6565b61289e83836127d6565b80600019048211156128b2576128b2612575565b029392505050565b6000610bd060ff841683612819565b600060208083850312156128dc57600080fd5b825167ffffffffffffffff808211156128f457600080fd5b818501915085601f83011261290857600080fd5b81518181111561291a5761291a612464565b8060051b915061292b8483016124a3565b818152918301840191848101908884111561294557600080fd5b938501935b838510156119bb5784518252938501939085019061294a565b634e487b7160e01b600052603260045260246000fd5b60006001820161298b5761298b612575565b5060010190565b61ffff8181168382160190808211156129ad576129ad612575565b5092915050565b6000602082840312156129c657600080fd5b8151610bd0816123e9565b6000825160005b818110156129f257602081860181015185830152016129d8565b50600092019182525091905056fea2646970667358221220f59834db998d1e557e5863b217d52785a278435f3249d3897d794bac3152e29964736f6c63430008140033",
  "linkReferences": {},
  "deployedLinkReferences": {}
}