{
  "_format": "hh-sol-artifact-1",
  "contractName": "CreditVaultV2",
  "sourceName": "contracts/CreditVaultV2.sol",
  "abi": [
    {
      "inputs": [
        {
          "internalType": "address payable",
          "name": "_registry",
          "type": "address"
        },
        {
          "internalType": "address",
          "name": "_oracle",
          "type": "address"
        }
      ],
      "stateMutability": "nonpayable",
      "type": "constructor"
    },
    {
      "inputs": [],
      "name": "EnforcedPause",
      "type": "error"
    },
    {
      "inputs": [],
      "name": "ExpectedPause",
      "type": "error"
    },
    {
      "inputs": [
        {
          "internalType": "address",
          "name": "owner",
          "type": "address"
        }
      ],
      "name": "OwnableInvalidOwner",
      "type": "error"
    },
    {
      "inputs": [
        {
          "internalType": "address",
          "name": "account",
          "type": "address"
        }
      ],
      "name": "OwnableUnauthorizedAccount",
      "type": "error"
    },
    {
      "inputs": [],
      "name": "ReentrancyGuardReentrantCall",
      "type": "error"
    },
    {
      "inputs": [
        {
          "internalType": "address",
          "name": "token",
          "type": "address"
        }
      ],
      "name": "SafeERC20FailedOperation",
      "type": "error"
    },
    {
      "anonymous": false,
      "inputs": [
        {
          "indexed": true,
          "internalType": "address",
          "name": "token",
          "type": "address"
        },
        {
          "indexed": false,
          "internalType": "address",
          "name": "priceFeed",
          "type": "address"
        },
        {
          "indexed": false,
          "internalType": "bool",
          "name": "allowed",
          "type": "bool"
        }
      ],
      "name": "AssetConfigured",
      "type": "event"
    },
    {
      "anonymous": false,
      "inputs": [
        {
          "indexed": true,
          "internalType": "address",
          "name": "user",
          "type": "address"
        },
        {
          "indexed": true,
          "internalType": "address",
          "name": "token",
          "type": "address"
        },
        {
          "indexed": false,
          "internalType": "uint256",
          "name": "amount",
          "type": "uint256"
        },
        {
          "indexed": false,
          "internalType": "uint256",
          "name": "usdValue",
          "type": "uint256"
        }
      ],
      "name": "CollateralDeposited",
      "type": "event"
    },
    {
      "anonymous": false,
      "inputs": [
        {
          "indexed": true,
          "internalType": "address",
          "name": "user",
          "type": "address"
        },
        {
          "indexed": true,
          "internalType": "address",
          "name": "token",
          "type": "address"
        },
        {
          "indexed": false,
          "internalType": "uint256",
          "name": "amount",
          "type": "uint256"
        },
        {
          "indexed": false,
          "internalType": "uint256",
          "name": "usdValue",
          "type": "uint256"
        }
      ],
      "name": "CollateralWithdrawn",
      "type": "event"
    },
    {
      "anonymous": false,
      "inputs": [
        {
          "indexed": true,
          "internalType": "uint256",
          "name": "loanId",
          "type": "uint256"
        },
        {
          "indexed": false,
          "internalType": "uint256",
          "name": "timestamp",
          "type": "uint256"
        }
      ],
      "name": "GracePeriodStarted",
      "type": "event"
    },
    {
      "anonymous": false,
      "inputs": [
        {
          "indexed": true,
          "internalType": "address",
          "name": "pool",
          "type": "address"
        }
      ],
      "name": "InsurancePoolSet",
      "type": "event"
    },
    {
      "anonymous": false,
      "inputs": [
        {
          "indexed": true,
          "internalType": "uint256",
          "name": "loanId",
          "type": "uint256"
        },
        {
          "indexed": true,
          "internalType": "address",
          "name": "borrower",
          "type": "address"
        },
        {
          "indexed": false,
          "internalType": "uint256",
          "name": "principal",
          "type": "uint256"
        },
        {
          "indexed": false,
          "internalType": "uint256",
          "name": "collateral",
          "type": "uint256"
        },
        {
          "indexed": false,
          "internalType": "address",
          "name": "collateralToken",
          "type": "address"
        }
      ],
      "name": "LoanCreated",
      "type": "event"
    },
    {
      "anonymous": false,
      "inputs": [
        {
          "indexed": true,
          "internalType": "uint256",
          "name": "loanId",
          "type": "uint256"
        },
        {
          "indexed": true,
          "internalType": "address",
          "name": "borrower",
          "type": "address"
        },
        {
          "indexed": true,
          "internalType": "address",
          "name": "liquidator",
          "type": "address"
        },
        {
          "indexed": false,
          "internalType": "uint256",
          "name": "collateralSeized",
          "type": "uint256"
        }
      ],
      "name": "LoanLiquidated",
      "type": "event"
    },
    {
      "anonymous": false,
      "inputs": [
        {
          "indexed": true,
          "internalType": "uint256",
          "name": "loanId",
          "type": "uint256"
        },
        {
          "indexed": true,
          "internalType": "address",
          "name": "borrower",
          "type": "address"
        },
        {
          "indexed": false,
          "internalType": "uint256",
          "name": "amount",
          "type": "uint256"
        },
        {
          "indexed": false,
          "internalType": "uint256",
          "name": "remaining",
          "type": "uint256"
        }
      ],
      "name": "LoanRepaid",
      "type": "event"
    },
    {
      "anonymous": false,
      "inputs": [
        {
          "indexed": true,
          "internalType": "address",
          "name": "newOracle",
          "type": "address"
        }
      ],
      "name": "OracleUpdated",
      "type": "event"
    },
    {
      "anonymous": false,
      "inputs": [
        {
          "indexed": true,
          "internalType": "address",
          "name": "previousOwner",
          "type": "address"
        },
        {
          "indexed": true,
          "internalType": "address",
          "name": "newOwner",
          "type": "address"
        }
      ],
      "name": "OwnershipTransferred",
      "type": "event"
    },
    {
      "anonymous": false,
      "inputs": [
        {
          "indexed": false,
          "internalType": "address",
          "name": "account",
          "type": "address"
        }
      ],
      "name": "Paused",
      "type": "event"
    },
    {
      "anonymous": false,
      "inputs": [
        {
          "indexed": false,
          "internalType": "address",
          "name": "account",
          "type": "address"
        }
      ],
      "name": "Unpaused",
      "type": "event"
    },
    {
      "inputs": [],
      "name": "GRACE_BRONZE",
      "outputs": [
        {
          "internalType": "uint256",
          "name": "",
          "type": "uint256"
        }
      ],
      "stateMutability": "view",
      "type": "function"
    },
    {
      "inputs": [],
      "name": "GRACE_GOLD",
      "outputs": [
        {
          "internalType": "uint256",
          "name": "",
          "type": "uint256"
        }
      ],
      "stateMutability": "view",
      "type": "function"
    },
    {
      "inputs": [],
      "name": "GRACE_PLATINUM",
      "outputs": [
        {
          "internalType": "uint256",
          "name": "",
          "type": "uint256"
        }
      ],
      "stateMutability": "view",
      "type": "function"
    },
    {
      "inputs": [],
      "name": "GRACE_SILVER",
      "outputs": [
        {
          "internalType": "uint256",
          "name": "",
          "type": "uint256"
        }
      ],
      "stateMutability": "view",
      "type": "function"
    },
    {
      "inputs": [],
      "name": "INSURANCE_SHARE_BPS",
      "outputs": [
        {
          "internalType": "uint16",
          "name": "",
          "type": "uint16"
        }
      ],
      "stateMutability": "view",
      "type": "function"
    },
    {
      "inputs": [],
      "name": "LIQUIDATION_PENALTY_BPS",
      "outputs": [
        {
          "internalType": "uint16",
          "name": "",
          "type": "uint16"
        }
      ],
      "stateMutability": "view",
      "type": "function"
    },
    {
      "inputs": [],
      "name": "LIQUIDATOR_SHARE_BPS",
      "outputs": [
        {
          "internalType": "uint16",
          "name": "",
          "type": "uint16"
        }
      ],
      "stateMutability": "view",
      "type": "function"
    },
    {
      "inputs": [],
      "name": "LTV_BRONZE",
      "outputs": [
        {
          "internalType": "uint16",
          "name": "",
          "type": "uint16"
        }
      ],
      "stateMutability": "view",
      "type": "function"
    },
    {
      "inputs": [],
      "name": "LTV_GOLD",
      "outputs": [
        {
          "internalType": "uint16",
          "name": "",
          "type": "uint16"
        }
      ],
      "stateMutability": "view",
      "type": "function"
    },
    {
      "inputs": [],
      "name": "LTV_PLATINUM",
      "outputs": [
        {
          "internalType": "uint16",
          "name": "",
          "type": "uint16"
        }
      ],
      "stateMutability": "view",
      "type": "function"
    },
    {
      "inputs": [],
      "name": "LTV_SILVER",
      "outputs": [
        {
          "internalType": "uint16",
          "name": "",
          "type": "uint16"
        }
      ],
      "stateMutability": "view",
      "type": "function"
    },
    {
      "inputs": [],
      "name": "MIN_HEALTH_FACTOR",
      "outputs": [
        {
          "internalType": "uint256",
          "name": "",
          "type": "uint256"
        }
      ],
      "stateMutability": "view",
      "type": "function"
    },
    {
      "inputs": [
        {
          "internalType": "address",
          "name": "",
          "type": "address"
        }
      ],
      "name": "assets",
      "outputs": [
        {
          "internalType": "bool",
          "name": "allowed",
          "type": "bool"
        },
        {
          "internalType": "address",
          "name": "priceFeed",
          "type": "address"
        }
      ],
      "stateMutability": "view",
      "type": "function"
    },
    {
      "inputs": [
        {
          "internalType": "address",
          "name": "collateralToken",
          "type": "address"
        },
        {
          "internalType": "uint256",
          "name": "collateralAmount",
          "type": "uint256"
        },
        {
          "internalType": "uint256",
          "name": "principalUsd18",
          "type": "uint256"
        }
      ],
      "name": "borrow",
      "outputs": [
        {
          "internalType": "uint256",
          "name": "loanId",
          "type": "uint256"
        }
      ],
      "stateMutability": "nonpayable",
      "type": "function"
    },
    {
      "inputs": [
        {
          "internalType": "uint256",
          "name": "loanId",
          "type": "uint256"
        }
      ],
      "name": "calculateDebt",
      "outputs": [
        {
          "internalType": "uint256",
          "name": "",
          "type": "uint256"
        }
      ],
      "stateMutability": "view",
      "type": "function"
    },
    {
      "inputs": [
        {
          "internalType": "address",
          "name": "token",
          "type": "address"
        },
        {
          "internalType": "uint256",
          "name": "amount",
          "type": "uint256"
        }
      ],
      "name": "depositCollateral",
      "outputs": [],
      "stateMutability": "nonpayable",
      "type": "function"
    },
    {
      "inputs": [
        {
          "internalType": "uint256",
          "name": "loanId",
          "type": "uint256"
        }
      ],
      "name": "getHealthFactor",
      "outputs": [
        {
          "internalType": "uint256",
          "name": "",
          "type": "uint256"
        }
      ],
      "stateMutability": "view",
      "type": "function"
    },
    {
      "inputs": [
        {
          "internalType": "address",
          "name": "user",
          "type": "address"
        }
      ],
      "name": "getUserHealthFactor",
      "outputs": [
        {
          "internalType": "uint256",
          "name": "",
          "type": "uint256"
        }
      ],
      "stateMutability": "view",
      "type": "function"
    },
    {
      "inputs": [
        {
          "internalType": "uint256",
          "name": "loanId",
          "type": "uint256"
        }
      ],
      "name": "getVaultLoanData",
      "outputs": [
        {
          "components": [
            {
              "internalType": "address",
              "name": "collateralToken",
              "type": "address"
            },
            {
              "internalType": "uint256",
              "name": "collateralAmount",
              "type": "uint256"
            },
            {
              "internalType": "uint256",
              "name": "aprBps",
              "type": "uint256"
            },
            {
              "internalType": "uint256",
              "name": "startTimestamp",
              "type": "uint256"
            },
            {
              "internalType": "uint256",
              "name": "graceStart",
              "type": "uint256"
            },
            {
              "internalType": "bool",
              "name": "exists",
              "type": "bool"
            }
          ],
          "internalType": "struct CreditVaultV2.VaultLoanData",
          "name": "",
          "type": "tuple"
        }
      ],
      "stateMutability": "view",
      "type": "function"
    },
    {
      "inputs": [],
      "name": "insurancePool",
      "outputs": [
        {
          "internalType": "address",
          "name": "",
          "type": "address"
        }
      ],
      "stateMutability": "view",
      "type": "function"
    },
    {
      "inputs": [
        {
          "internalType": "uint256",
          "name": "loanId",
          "type": "uint256"
        }
      ],
      "name": "liquidate",
      "outputs": [],
      "stateMutability": "nonpayable",
      "type": "function"
    },
    {
      "inputs": [],
      "name": "oracle",
      "outputs": [
        {
          "internalType": "contract ScoreOraclePhase3",
          "name": "",
          "type": "address"
        }
      ],
      "stateMutability": "view",
      "type": "function"
    },
    {
      "inputs": [],
      "name": "owner",
      "outputs": [
        {
          "internalType": "address",
          "name": "",
          "type": "address"
        }
      ],
      "stateMutability": "view",
      "type": "function"
    },
    {
      "inputs": [],
      "name": "pause",
      "outputs": [],
      "stateMutability": "nonpayable",
      "type": "function"
    },
    {
      "inputs": [],
      "name": "paused",
      "outputs": [
        {
          "internalType": "bool",
          "name": "",
          "type": "bool"
        }
      ],
      "stateMutability": "view",
      "type": "function"
    },
    {
      "inputs": [],
      "name": "registry",
      "outputs": [
        {
          "internalType": "contract CreditRegistryV2",
          "name": "",
          "type": "address"
        }
      ],
      "stateMutability": "view",
      "type": "function"
    },
    {
      "inputs": [],
      "name": "renounceOwnership",
      "outputs": [],
      "stateMutability": "nonpayable",
      "type": "function"
    },
    {
      "inputs": [
        {
          "internalType": "uint256",
          "name": "loanId",
          "type": "uint256"
        },
        {
          "internalType": "uint256",
          "name": "amountUsd18",
          "type": "uint256"
        }
      ],
      "name": "repay",
      "outputs": [],
      "stateMutability": "nonpayable",
      "type": "function"
    },
    {
      "inputs": [
        {
          "internalType": "address",
          "name": "token",
          "type": "address"
        },
        {
          "internalType": "address",
          "name": "priceFeed",
          "type": "address"
        },
        {
          "internalType": "bool",
          "name": "allowed",
          "type": "bool"
        }
      ],
      "name": "setAsset",
      "outputs": [],
      "stateMutability": "nonpayable",
      "type": "function"
    },
    {
      "inputs": [
        {
          "internalType": "address",
          "name": "_pool",
          "type": "address"
        }
      ],
      "name": "setInsurancePool",
      "outputs": [],
      "stateMutability": "nonpayable",
      "type": "function"
    },
    {
      "inputs": [
        {
          "internalType": "address",
          "name": "_oracle",
          "type": "address"
        }
      ],
      "name": "setOracle",
      "outputs": [],
      "stateMutability": "nonpayable",
      "type": "function"
    },
    {
      "inputs": [
        {
          "internalType": "address",
          "name": "newOwner",
          "type": "address"
        }
      ],
      "name": "transferOwnership",
      "outputs": [],
      "stateMutability": "nonpayable",
      "type": "function"
    },
    {
      "inputs": [],
      "name": "unpause",
      "outputs": [],
      "stateMutability": "nonpayable",
      "type": "function"
    },
    {
      "inputs": [
        {
          "internalType": "address",
          "name": "",
          "type": "address"
        }
      ],
      "name": "userCollateral",
      "outputs": [
        {
          "internalType": "uint256",
          "name": "",
          "type": "uint256"
        }
      ],
      "stateMutability": "view",
      "type": "function"
    },
    {
      "inputs": [
        {
          "internalType": "uint256",
          "name": "",
          "type": "uint256"
        }
      ],
      "name": "vaultLoans",
      "outputs": [
        {
          "internalType": "address",
          "name": "collateralToken",
          "type": "address"
        },
        {
          "internalType": "uint256",
          "name": "collateralAmount",
          "type": "uint256"
        },
        {
          "internalType": "uint256",
          "name": "aprBps",
          "type": "uint256"
        },
        {
          "internalType": "uint256",
          "name": "startTimestamp",
          "type": "uint256"
        },
        {
          "internalType": "uint256",
          "name": "graceStart",
          "type": "uint256"
        },
        {
          "internalType": "bool",
          "name": "exists",
          "type": "bool"
        }
      ],
      "stateMutability": "view",
      "type": "function"
    },
    {
      "inputs": [
        {
          "internalType": "address",
          "name": "token",
          "type": "address"
        },
        {
          "internalType": "uint256",
          "name": "amount",
          "type": "uint256"
        }
      ],
      "name": "withdrawCollateral",
      "outputs": [],
      "stateMutability": "nonpayable",
      "type": "function"
    }
  ],
  "bytecode": "0x60a06040523480156200001157600080fd5b5060405162002b2a38038062002b2a833981016040819052620000349162000199565b33806200005c57604051631e4fbdf760e01b8152600060048201526024015b60405180910390fd5b620000678162000130565b50600180556001600160a01b038216620000b75760405162461bcd60e51b815260206004820152601060248201526f496e76616c696420726567697374727960801b604482015260640162000053565b6001600160a01b038116620001005760405162461bcd60e51b815260206004820152600e60248201526d496e76616c6964206f7261636c6560901b604482015260640162000053565b6001600160a01b03918216608052600280549190921661010002610100600160a81b0319909116179055620001d8565b600080546001600160a01b038381166001600160a01b0319831681178455604051919092169283917f8be0079c531659141344cd1fd0a4f28419497f9722a3daafe3b4186f6b6457e09190a35050565b6001600160a01b03811681146200019657600080fd5b50565b60008060408385031215620001ad57600080fd5b8251620001ba8162000180565b6020840151909250620001cd8162000180565b809150509250929050565b6080516128f762000233600039600081816103fa015281816106d501528181610a5c0152818161108d015281816113a8015281816115040152818161170b01528181611a3901528181611abb0152611f3401526128f76000f3fe608060405234801561001057600080fd5b506004361061021c5760003560e01c80638da5cb5b11610125578063d850342f116100ad578063f11b81881161007c578063f11b81881461050c578063f1e35f131461055e578063f2fde38b14610566578063f69f1e4a14610579578063fc54ddfb1461059957600080fd5b8063d850342f146104dd578063d8aed145146104e7578063dd949328146104fa578063eb32bd9d1461050457600080fd5b8063b32a5314116100f4578063b32a53141461049e578063b5627e42146104a8578063c1bce0b7146104b7578063c41c22fc146102cf578063cb0dc99d146104ca57600080fd5b80638da5cb5b14610454578063a5d5db0c14610465578063a94c487e14610478578063ab2adc001461048b57600080fd5b80634f0f29f4116101a857806371cbfc981161017757806371cbfc98146103cf5780637adbf973146103e25780637b103999146103f55780637dc0d1d0146104345780638456cb591461044c57600080fd5b80634f0f29f41461031b5780635c975abb1461032557806364ca1c691461033b578063715018a6146103c757600080fd5b80631d1a54ce116101ef5780631d1a54ce146102cf57806328cd5a99146102d8578063350c35e9146102eb5780633f4ba83a14610300578063415f12401461030857600080fd5b806306057c5c146102215780630943a954146102415780630f863aba1461024957806317845c69146102ae575b600080fd5b610229604681565b60405161ffff90911681526020015b60405180910390f35b610229605081565b61025c610257366004612253565b6105a2565b604051610238919081516001600160a01b031681526020808301519082015260408083015190820152606080830151908201526080808301519082015260a09182015115159181019190915260c00190565b6102c16102bc366004612253565b61064c565b604051908152602001610238565b6102296101f481565b6102c16102e6366004612253565b6107bb565b6102fe6102f9366004612281565b6107cc565b005b6102fe6109ce565b6102fe610316366004612253565b6109e0565b6102c16202a30081565b60025460ff166040519015158152602001610238565b61038e610349366004612253565b60036020819052600091825260409091208054600182015460028301549383015460048401546005909401546001600160a01b03909316949193919290919060ff1686565b604080516001600160a01b03909716875260208701959095529385019290925260608401526080830152151560a082015260c001610238565b6102fe610b67565b6102c16103dd3660046122ad565b610b79565b6102fe6103f03660046122ad565b610bd7565b61041c7f000000000000000000000000000000000000000000000000000000000000000081565b6040516001600160a01b039091168152602001610238565b60025461041c9061010090046001600160a01b031681565b6102fe610c78565b6000546001600160a01b031661041c565b6102fe610473366004612281565b610c88565b6102fe6104863660046122ad565b610d8a565b60065461041c906001600160a01b031681565b6102c16201518081565b6102c16710a741a46278000081565b6102c16104c53660046122ca565b610e21565b6102fe6104d83660046122ff565b6111f2565b6102c16203f48081565b6102fe6104f536600461234f565b61132c565b6102c16201fa4081565b610229605a81565b61053f61051a3660046122ad565b60046020526000908152604090205460ff81169061010090046001600160a01b031682565b6040805192151583526001600160a01b03909116602083015201610238565b610229603281565b6102fe6105743660046122ad565b611647565b6102c16105873660046122ad565b60056020526000908152604090205481565b6102296103e881565b6105e66040518060c0016040528060006001600160a01b03168152602001600081526020016000815260200160008152602001600081526020016000151581525090565b50600090815260036020818152604092839020835160c08101855281546001600160a01b031681526001820154928101929092526002810154938201939093529082015460608201526004820154608082015260059091015460ff16151560a082015290565b6000818152600360208181526040808420815160c08101835281546001600160a01b031681526001820154938101939093526002810154918301919091529182015460608201526004820154608082015260059091015460ff16151560a082018190526106bc5750600092915050565b604051632820036560e11b8152600481018490526000907f00000000000000000000000000000000000000000000000000000000000000006001600160a01b03169063504006ca9060240160e060405180830381865afa158015610724573d6000803e3d6000fd5b505050506040513d601f19601f8201168201806040525081019061074891906123ec565b905060018160a0015160038111156107625761076261246c565b14610771575060009392505050565b600061077c85611682565b90506000610792846000015185602001516117fe565b9050816107a782670de0b6b3a7640000612498565b6107b191906124af565b9695505050505050565b60006107c682611682565b92915050565b6107d46119c7565b6107dc6119f1565b6001600160a01b03821660009081526004602052604090205460ff1661081d5760405162461bcd60e51b8152600401610814906124d1565b60405180910390fd5b6000811161083d5760405162461bcd60e51b8152600401610814906124fc565b600061084983836117fe565b336000908152600560205260409020549091508111156108ab5760405162461bcd60e51b815260206004820152601760248201527f496e73756666696369656e7420636f6c6c61746572616c0000000000000000006044820152606401610814565b33600090815260056020526040812080548392906108ca908490612521565b90915550600090506108db33611a15565b905080156109655733600090815260056020526040812054829061090790670de0b6b3a7640000612498565b61091191906124af565b90506710a741a4627800008110156109635760405162461bcd60e51b81526020600482015260156024820152744865616c746820666163746f7220746f6f206c6f7760581b6044820152606401610814565b505b6109796001600160a01b0385163385611bca565b60408051848152602081018490526001600160a01b0386169133917f4700a5c58c58ea6536703185e43dae38bfd4158ee5330c70988f02a65562a36e910160405180910390a350506109ca60018055565b5050565b6109d6611c2e565b6109de611c5b565b565b6109e86119c7565b6109f06119f1565b6000818152600360205260409020600581015460ff16610a435760405162461bcd60e51b815260206004820152600e60248201526d131bd85b881b9bdd08199bdd5b9960921b6044820152606401610814565b604051632820036560e11b8152600481018390526000907f00000000000000000000000000000000000000000000000000000000000000006001600160a01b03169063504006ca9060240160e060405180830381865afa158015610aab573d6000803e3d6000fd5b505050506040513d601f19601f82011682018060405250810190610acf91906123ec565b905060018160a001516003811115610ae957610ae961246c565b14610b285760405162461bcd60e51b815260206004820152600f60248201526e4c6f616e206e6f742061637469766560881b6044820152606401610814565b6000610b3984848460200151611cad565b905080610b4857505050610b5b565b610b5784848460200151611e49565b5050505b610b6460018055565b50565b610b6f611c2e565b6109de6000611ff2565b600080610b8583611a15565b905080600003610b99575060001992915050565b6001600160a01b0383166000908152600560205260409020548190610bc690670de0b6b3a7640000612498565b610bd091906124af565b9392505050565b610bdf611c2e565b6001600160a01b038116610c265760405162461bcd60e51b815260206004820152600e60248201526d496e76616c6964206f7261636c6560901b6044820152606401610814565b60028054610100600160a81b0319166101006001600160a01b038416908102919091179091556040517f3df77beb5db05fcdd70a30fc8adf3f83f9501b68579455adbd100b818094039490600090a250565b610c80611c2e565b6109de612042565b610c906119c7565b610c986119f1565b6001600160a01b03821660009081526004602052604090205460ff16610cd05760405162461bcd60e51b8152600401610814906124d1565b60008111610cf05760405162461bcd60e51b8152600401610814906124fc565b610d056001600160a01b03831633308461207f565b6000610d1183836117fe565b33600090815260056020526040812080549293508392909190610d35908490612534565b909155505060408051838152602081018390526001600160a01b0385169133917f95d16db8c4932fcf5d6de67364791e7178ec505c7d3829a8b34d18959c01552c910160405180910390a3506109ca60018055565b610d92611c2e565b6001600160a01b038116610dd75760405162461bcd60e51b815260206004820152600c60248201526b125b9d985b1a59081c1bdbdb60a21b6044820152606401610814565b600680546001600160a01b0319166001600160a01b0383169081179091556040517fdb94373ec3215b3142c9088cb1f834141c88090d24a7172315200cd92b85306590600090a250565b6000610e2b6119c7565b610e336119f1565b6001600160a01b03841660009081526004602052604090205460ff16610e6b5760405162461bcd60e51b8152600401610814906124d1565b60008311610ead5760405162461bcd60e51b815260206004820152600f60248201526e16995c9bc818dbdb1b185d195c985b608a1b6044820152606401610814565b60008211610eee5760405162461bcd60e51b815260206004820152600e60248201526d16995c9bc81c1c9a5b98da5c185b60921b6044820152606401610814565b6002546040516331751b7f60e21b815233600482015260009161010090046001600160a01b03169063c5d46dfc9060240160c060405180830381865afa158015610f3c573d6000803e3d6000fd5b505050506040513d601f19601f82011682018060405250810190610f60919061256a565b90506000610f718260a001516120be565b90506000610f7f87876117fe565b9050610f8f61ffff831682612498565b610f9a866064612498565b1115610fde5760405162461bcd60e51b815260206004820152601360248201527222bc31b2b2b2399030b63637bbb2b210262a2b60691b6044820152606401610814565b60025460a084015160405163fb4ceaa360e01b815261ffff909116600482015260009161010090046001600160a01b03169063fb4ceaa390602401602060405180830381865afa158015611036573d6000803e3d6000fd5b505050506040513d601f19601f8201168201806040525081019061105a9190612611565b90506110716001600160a01b03891633308a61207f565b60405163026668bd60e61b8152336004820152602481018790527f00000000000000000000000000000000000000000000000000000000000000006001600160a01b03169063999a2f40906044016020604051808303816000875af11580156110de573d6000803e3d6000fd5b505050506040513d601f19601f82011682018060405250810190611102919061262c565b6040805160c0810182526001600160a01b038b811680835260208084018d815261ffff8816858701908152426060808801918252600060808901818152600160a08b018181528d84526003808a52938d90209b518c546001600160a01b0319169b169a909a178b559551958a0195909555925160028901559051918701919091559051600486015592516005909401805460ff19169415159490941790935583518b81529283018c905292820192909252919650339187917fc64023e02d0cb6f8d0b71a27b868cf100ab2b029455da648672e0522de0f4ce5910160405180910390a350505050610bd060018055565b6111fa611c2e565b6001600160a01b0383166112405760405162461bcd60e51b815260206004820152600d60248201526c24b73b30b634b2103a37b5b2b760991b6044820152606401610814565b6001600160a01b03821661128b5760405162461bcd60e51b8152602060048201526012602482015271125b9d985b1a59081c1c9a58d9481999595960721b6044820152606401610814565b6040805180820182528215158082526001600160a01b0385811660208085018281528984166000818152600484528890209651875492516001600160a81b0319909316901515610100600160a81b03191617610100929095169190910293909317909455845190815292830191909152917f93c63ede467bb2aab36216973fe7ae0908f66f1f5de14fe7f1b754f58798060b910160405180910390a2505050565b6113346119c7565b61133c6119f1565b6000828152600360205260409020600581015460ff1661138f5760405162461bcd60e51b815260206004820152600e60248201526d131bd85b881b9bdd08199bdd5b9960921b6044820152606401610814565b604051632820036560e11b8152600481018490526000907f00000000000000000000000000000000000000000000000000000000000000006001600160a01b03169063504006ca9060240160e060405180830381865afa1580156113f7573d6000803e3d6000fd5b505050506040513d601f19601f8201168201806040525081019061141b91906123ec565b905060018160a0015160038111156114355761143561246c565b146114745760405162461bcd60e51b815260206004820152600f60248201526e4c6f616e206e6f742061637469766560881b6044820152606401610814565b600083116114945760405162461bcd60e51b8152600401610814906124fc565b600061149f85611682565b9050808411156114e75760405162461bcd60e51b8152602060048201526013602482015272105b5bdd5b9d08195e18d959591cc81919589d606a1b6044820152606401610814565b604051638ef6dce960e01b815260048101869052602481018590527f00000000000000000000000000000000000000000000000000000000000000006001600160a01b031690638ef6dce990604401600060405180830381600087803b15801561155057600080fd5b505af1158015611564573d6000803e3d6000fd5b505050508084106115e757602082015160018401548454611590926001600160a01b0390911691611bca565b81602001516001600160a01b0316857f553c9087bff5b534e499a66dac3fa9db2962cd252ea01165239755836ae5345e8660006040516115da929190918252602082015260400190565b60405180910390a361163b565b60208201516001600160a01b0316857f553c9087bff5b534e499a66dac3fa9db2962cd252ea01165239755836ae5345e866116228186612521565b6040805192835260208301919091520160405180910390a35b5050506109ca60018055565b61164f611c2e565b6001600160a01b03811661167957604051631e4fbdf760e01b815260006004820152602401610814565b610b6481611ff2565b6000818152600360208181526040808420815160c08101835281546001600160a01b031681526001820154938101939093526002810154918301919091529182015460608201526004820154608082015260059091015460ff16151560a082018190526116f25750600092915050565b604051632820036560e11b8152600481018490526000907f00000000000000000000000000000000000000000000000000000000000000006001600160a01b03169063504006ca9060240160e060405180830381865afa15801561175a573d6000803e3d6000fd5b505050506040513d601f19601f8201168201806040525081019061177e91906123ec565b905060018160a0015160038111156117985761179861246c565b146117a7575060009392505050565b60008260600151426117b99190612521565b9050600064496cebb80082856040015185604001516117d89190612498565b6117e29190612498565b6117ec91906124af565b90508083604001516107b19190612534565b6001600160a01b03808316600090815260046020908152604080832081518083019092525460ff8116151580835261010090910490941691810191909152909161185a5760405162461bcd60e51b8152600401610814906124d1565b6000816020015190506000816001600160a01b031663feaf968c6040518163ffffffff1660e01b815260040160a060405180830381865afa1580156118a3573d6000803e3d6000fd5b505050506040513d601f19601f820116820180604052508101906118c7919061265f565b5050509150506000811361190d5760405162461bcd60e51b815260206004820152600d60248201526c496e76616c696420707269636560981b6044820152606401610814565b6000826001600160a01b031663313ce5676040518163ffffffff1660e01b8152600401602060405180830381865afa15801561194d573d6000803e3d6000fd5b505050506040513d601f19601f8201168201806040525081019061197191906126af565b9050600061197e88612104565b905061198a82826126ca565b61199590600a6127c7565b61199f8489612498565b6119b190670de0b6b3a7640000612498565b6119bb91906124af565b98975050505050505050565b6002600154036119ea57604051633ee5aeb560e01b815260040160405180910390fd5b6002600155565b60025460ff16156109de5760405163d93c066560e01b815260040160405180910390fd5b6040516346dc972760e11b81526001600160a01b03828116600483015260009182917f00000000000000000000000000000000000000000000000000000000000000001690638db92e4e90602401600060405180830381865afa158015611a80573d6000803e3d6000fd5b505050506040513d6000823e601f3d908101601f19168201604052611aa891908101906127d6565b90506000805b8251811015611bc25760007f00000000000000000000000000000000000000000000000000000000000000006001600160a01b031663504006ca858481518110611afa57611afa612870565b60200260200101516040518263ffffffff1660e01b8152600401611b2091815260200190565b60e060405180830381865afa158015611b3d573d6000803e3d6000fd5b505050506040513d601f19601f82011682018060405250810190611b6191906123ec565b905060018160a001516003811115611b7b57611b7b61246c565b03611baf57611ba2848381518110611b9557611b95612870565b6020026020010151611682565b611bac9084612534565b92505b5080611bba81612886565b915050611aae565b509392505050565b6040516001600160a01b03838116602483015260448201839052611c2991859182169063a9059cbb906064015b604051602081830303815290604052915060e01b6020820180516001600160e01b038381831617835250505050612171565b505050565b6000546001600160a01b031633146109de5760405163118cdaa760e01b8152336004820152602401610814565b611c636121e2565b6002805460ff191690557f5db9ee0a495bf2e6ff9c91a7834c1ba4fdd244a5e8aa4e537bd38aeae4b073aa335b6040516001600160a01b03909116815260200160405180910390a1565b600080611cb985611682565b84546001860154919250600091611cd9916001600160a01b0316906117fe565b6002546040516331751b7f60e21b81526001600160a01b0387811660048301529293506000926101009092049091169063c5d46dfc9060240160c060405180830381865afa158015611d2f573d6000803e3d6000fd5b505050506040513d601f19601f82011682018060405250810190611d53919061256a565b90506000611d648260a001516120be565b90506000611d7382600a61289f565b61ffff1690506000611d858286612498565b611d90876064612498565b1190508015611da85760019650505050505050610bd0565b6000611db78560a00151612205565b90508960040154600003611e12574260048b018190556040519081528b907f850e821388cbf246fb93b12357651e23887c72f848742c21dbff137031b1356b9060200160405180910390a26000975050505050505050610bd0565b808a60040154611e229190612534565b4210611e38576001975050505050505050610bd0565b5060009a9950505050505050505050565b600182015482546001600160a01b03166000612710611e6a6101f485612498565b611e7491906124af565b90506000612710611e876101f486612498565b611e9191906124af565b90506000611e9f8284612534565b90506000611ead8287612521565b9050611ec36001600160a01b0386163386611bca565b6006546001600160a01b031615611eee57600654611eee906001600160a01b03878116911685611bca565b8015611f0857611f086001600160a01b0386168883611bca565b6000611f1486846117fe565b60405163134d564f60e21b8152600481018c9052602481018290529091507f00000000000000000000000000000000000000000000000000000000000000006001600160a01b031690634d35593c90604401600060405180830381600087803b158015611f8057600080fd5b505af1158015611f94573d6000803e3d6000fd5b50505050336001600160a01b0316886001600160a01b03168b7fe4b3cb24da49cbaa1989989a720518b9c8c12f4a6e0d848853745d9271104b0f8a604051611fde91815260200190565b60405180910390a450505050505050505050565b600080546001600160a01b038381166001600160a01b0319831681178455604051919092169283917f8be0079c531659141344cd1fd0a4f28419497f9722a3daafe3b4186f6b6457e09190a35050565b61204a6119f1565b6002805460ff191660011790557f62e78cea01bee320cd4e420270b5ea74000d11b0c9f74754ebdbfc544b05a258611c903390565b6040516001600160a01b0384811660248301528381166044830152606482018390526120b89186918216906323b872dd90608401611bf7565b50505050565b6000605a8261ffff16106120d45750605a919050565b604b8261ffff16106120e857506050919050565b603c8261ffff16106120fc57506046919050565b506032919050565b6000816001600160a01b031663313ce5676040518163ffffffff1660e01b8152600401602060405180830381865afa925050508015612160575060408051601f3d908101601f1916820190925261215d918101906126af565b60015b6107c657506012919050565b919050565b600080602060008451602086016000885af180612194576040513d6000823e3d81fd5b50506000513d915081156121ac5780600114156121b9565b6001600160a01b0384163b155b156120b857604051635274afe760e01b81526001600160a01b0385166004820152602401610814565b60025460ff166109de57604051638dfc202b60e01b815260040160405180910390fd5b6000605a8261ffff161061221d57506203f480919050565b604b8261ffff161061223357506202a300919050565b603c8261ffff161061224957506201fa40919050565b5062015180919050565b60006020828403121561226557600080fd5b5035919050565b6001600160a01b0381168114610b6457600080fd5b6000806040838503121561229457600080fd5b823561229f8161226c565b946020939093013593505050565b6000602082840312156122bf57600080fd5b8135610bd08161226c565b6000806000606084860312156122df57600080fd5b83356122ea8161226c565b95602085013595506040909401359392505050565b60008060006060848603121561231457600080fd5b833561231f8161226c565b9250602084013561232f8161226c565b91506040840135801515811461234457600080fd5b809150509250925092565b6000806040838503121561236257600080fd5b50508035926020909101359150565b634e487b7160e01b600052604160045260246000fd5b60405160e0810167ffffffffffffffff811182821017156123aa576123aa612371565b60405290565b604051601f8201601f1916810167ffffffffffffffff811182821017156123d9576123d9612371565b604052919050565b805161216c8161226c565b600060e082840312156123fe57600080fd5b612406612387565b8251815260208301516124188161226c565b8060208301525060408301516040820152606083015160608201526080830151608082015260a08301516004811061244f57600080fd5b60a082015261246060c084016123e1565b60c08201529392505050565b634e487b7160e01b600052602160045260246000fd5b634e487b7160e01b600052601160045260246000fd5b80820281158282048414176107c6576107c6612482565b6000826124cc57634e487b7160e01b600052601260045260246000fd5b500490565b602080825260119082015270105cdcd95d081b9bdd08185b1b1bddd959607a1b604082015260600190565b6020808252600b908201526a16995c9bc8185b5bdd5b9d60aa1b604082015260600190565b818103818111156107c6576107c6612482565b808201808211156107c6576107c6612482565b805160ff8116811461216c57600080fd5b805161ffff8116811461216c57600080fd5b600060c0828403121561257c57600080fd5b60405160c0810181811067ffffffffffffffff8211171561259f5761259f612371565b6040526125ab83612547565b81526125b960208401612547565b602082015260408301518060010b81146125d257600080fd5b60408201526125e360608401612547565b60608201526125f460808401612547565b608082015261260560a08401612558565b60a08201529392505050565b60006020828403121561262357600080fd5b610bd082612558565b60006020828403121561263e57600080fd5b5051919050565b805169ffffffffffffffffffff8116811461216c57600080fd5b600080600080600060a0868803121561267757600080fd5b61268086612645565b94506020860151935060408601519250606086015191506126a360808701612645565b90509295509295909350565b6000602082840312156126c157600080fd5b610bd082612547565b60ff81811683821601908111156107c6576107c6612482565b600181815b8085111561271e57816000190482111561270457612704612482565b8085161561271157918102915b93841c93908002906126e8565b509250929050565b600082612735575060016107c6565b81612742575060006107c6565b816001811461275857600281146127625761277e565b60019150506107c6565b60ff84111561277357612773612482565b50506001821b6107c6565b5060208310610133831016604e8410600b84101617156127a1575081810a6107c6565b6127ab83836126e3565b80600019048211156127bf576127bf612482565b029392505050565b6000610bd060ff841683612726565b600060208083850312156127e957600080fd5b825167ffffffffffffffff8082111561280157600080fd5b818501915085601f83011261281557600080fd5b81518181111561282757612827612371565b8060051b91506128388483016123b0565b818152918301840191848101908884111561285257600080fd5b938501935b838510156119bb57845182529385019390850190612857565b634e487b7160e01b600052603260045260246000fd5b60006001820161289857612898612482565b5060010190565b61ffff8181168382160190808211156128ba576128ba612482565b509291505056fea2646970667358221220b10e167a8dd3888fc711d04c6b27bf9c5ee3b5324f4e4b517cd09ea3900027ad64736f6c63430008140033",
  "linkReferences": {},
  "deployedLinkReferences": {}
}