{
  "_format": "hh-sol-artifact-1",
  "contractName": "ScoreOraclePhase3B",
  "sourceName": "contracts/ScoreOraclePhase3B.sol",
  "abi": [
    {
      "inputs": [
        {
          "internalType": "address payable",
          "name": "_registry",
          "type": "address"
        }
      ],
      "stateMutability": "nonpayable",
      "type": "constructor"
    },
    {
      "inputs": [
        {
          "internalType": "address",
          "name": "owner",
          "type": "address"
        }
      ],
      "name": "OwnableInvalidOwner",
      "type": "error"
    },
    {
      "inputs": [
        {
          "internalType": "address",
          "name": "account",
          "type": "address"
        }
      ],
      "name": "OwnableUnauthorizedAccount",
      "type": "error"
    },
    {
      "anonymous": false,
      "inputs": [
        {
          "indexed": true,
          "internalType": "uint64",
          "name": "chainSelector",
          "type": "uint64"
        }
      ],
      "name": "ChainSelectorAdded",
      "type": "event"
    },
    {
      "anonymous": false,
      "inputs": [
        {
          "indexed": true,
          "internalType": "uint64",
          "name": "chainSelector",
          "type": "uint64"
        }
      ],
      "name": "ChainSelectorRemoved",
      "type": "event"
    },
    {
      "anonymous": false,
      "inputs": [
        {
          "indexed": true,
          "internalType": "address",
          "name": "previousOwner",
          "type": "address"
        },
        {
          "indexed": true,
          "internalType": "address",
          "name": "newOwner",
          "type": "address"
        }
      ],
      "name": "OwnershipTransferred",
      "type": "event"
    },
    {
      "inputs": [],
      "name": "TIER_GOLD",
      "outputs": [
        {
          "internalType": "uint16",
          "name": "",
          "type": "uint16"
        }
      ],
      "stateMutability": "view",
      "type": "function"
    },
    {
      "inputs": [],
      "name": "TIER_PLATINUM",
      "outputs": [
        {
          "internalType": "uint16",
          "name": "",
          "type": "uint16"
        }
      ],
      "stateMutability": "view",
      "type": "function"
    },
    {
      "inputs": [],
      "name": "TIER_SILVER",
      "outputs": [
        {
          "internalType": "uint16",
          "name": "",
          "type": "uint16"
        }
      ],
      "stateMutability": "view",
      "type": "function"
    },
    {
      "inputs": [
        {
          "internalType": "uint64",
          "name": "chainSelector",
          "type": "uint64"
        }
      ],
      "name": "addChainSelector",
      "outputs": [],
      "stateMutability": "nonpayable",
      "type": "function"
    },
    {
      "inputs": [
        {
          "internalType": "address",
          "name": "subject",
          "type": "address"
        }
      ],
      "name": "computeScore",
      "outputs": [
        {
          "components": [
            {
              "internalType": "uint16",
              "name": "overall",
              "type": "uint16"
            },
            {
              "internalType": "uint8",
              "name": "s1_repayment",
              "type": "uint8"
            },
            {
              "internalType": "uint8",
              "name": "s2_collateral",
              "type": "uint8"
            },
            {
              "internalType": "uint8",
              "name": "s3_sybil",
              "type": "uint8"
            },
            {
              "internalType": "uint8",
              "name": "s4_crossChain",
              "type": "uint8"
            },
            {
              "internalType": "uint8",
              "name": "s5_governance",
              "type": "uint8"
            },
            {
              "internalType": "int16",
              "name": "s3_raw",
              "type": "int16"
            }
          ],
          "internalType": "struct ScoreOraclePhase3B.ScoreBreakdown",
          "name": "",
          "type": "tuple"
        }
      ],
      "stateMutability": "view",
      "type": "function"
    },
    {
      "inputs": [
        {
          "internalType": "uint16",
          "name": "overall",
          "type": "uint16"
        }
      ],
      "name": "getAPR",
      "outputs": [
        {
          "internalType": "uint16",
          "name": "aprBps",
          "type": "uint16"
        }
      ],
      "stateMutability": "pure",
      "type": "function"
    },
    {
      "inputs": [
        {
          "internalType": "uint16",
          "name": "overall",
          "type": "uint16"
        }
      ],
      "name": "getScoreTier",
      "outputs": [
        {
          "internalType": "enum ScoreOraclePhase3B.ScoreTier",
          "name": "",
          "type": "uint8"
        }
      ],
      "stateMutability": "pure",
      "type": "function"
    },
    {
      "inputs": [],
      "name": "getSupportedChainSelectors",
      "outputs": [
        {
          "internalType": "uint64[]",
          "name": "",
          "type": "uint64[]"
        }
      ],
      "stateMutability": "view",
      "type": "function"
    },
    {
      "inputs": [
        {
          "internalType": "uint64",
          "name": "",
          "type": "uint64"
        }
      ],
      "name": "isSupportedChain",
      "outputs": [
        {
          "internalType": "bool",
          "name": "",
          "type": "bool"
        }
      ],
      "stateMutability": "view",
      "type": "function"
    },
    {
      "inputs": [],
      "name": "owner",
      "outputs": [
        {
          "internalType": "address",
          "name": "",
          "type": "address"
        }
      ],
      "stateMutability": "view",
      "type": "function"
    },
    {
      "inputs": [],
      "name": "registry",
      "outputs": [
        {
          "internalType": "contract CreditRegistryV3",
          "name": "",
          "type": "address"
        }
      ],
      "stateMutability": "view",
      "type": "function"
    },
    {
      "inputs": [
        {
          "internalType": "uint64",
          "name": "chainSelector",
          "type": "uint64"
        }
      ],
      "name": "removeChainSelector",
      "outputs": [],
      "stateMutability": "nonpayable",
      "type": "function"
    },
    {
      "inputs": [],
      "name": "renounceOwnership",
      "outputs": [],
      "stateMutability": "nonpayable",
      "type": "function"
    },
    {
      "inputs": [
        {
          "internalType": "uint256",
          "name": "",
          "type": "uint256"
        }
      ],
      "name": "supportedChainSelectors",
      "outputs": [
        {
          "internalType": "uint64",
          "name": "",
          "type": "uint64"
        }
      ],
      "stateMutability": "view",
      "type": "function"
    },
    {
      "inputs": [
        {
          "internalType": "address",
          "name": "newOwner",
          "type": "address"
        }
      ],
      "name": "transferOwnership",
      "outputs": [],
      "stateMutability": "nonpayable",
      "type": "function"
    }
  ],
  "bytecode": "0x6080346200032957601f620019cd38819003918201601f1916830192916001600160401b039190828511848610176200032e57808492604096875283396020938491810103126200032957516001600160a01b039182821691829003620003295733156200031157600091825460018060a01b031994338683161785553391167f8be0079c531659141344cd1fd0a4f28419497f9722a3daafe3b4186f6b6457e08580a360019384541617835567304611b6affba76a928383526003855260ff8684205416620002d9576002948554680100000000000000009081811015620002c557838101808955811015620002b15787865282862081891c019060c082549160061b16908689831b921b1916179055858552600382528785209360ff199484868254161790557f6ce9b4dda1a396a1e08009bbd610b75b33f10171ca06d9d261959738596364a996878780a26748810ec3e431431f80875260ff8a8820541662000251578854838110156200029d57858101808b558110156200028957898852848820818b1c019060c082549160061b16908484831b921b1916179055808752600384528987208587825416179055878780a2678f90b8876dee65389788875260ff8a8820541662000251578054928310156200023d57848301808255831015620002295790816003949392885282848920911c019160c083549160061b16918a831b921b1916179055868552528583209182541617905580a2516116889081620003458239f35b634e487b7160e01b87526032600452602487fd5b634e487b7160e01b87526041600452602487fd5b895162461bcd60e51b8152600481018590526011602482015270105b1c9958591e481cdd5c1c1bdc9d1959607a1b6044820152606490fd5b634e487b7160e01b88526032600452602488fd5b634e487b7160e01b88526041600452602488fd5b634e487b7160e01b86526032600452602486fd5b634e487b7160e01b86526041600452602486fd5b855162461bcd60e51b8152600481018690526011602482015270105b1c9958591e481cdd5c1c1bdc9d1959607a1b6044820152606490fd5b8451631e4fbdf760e01b815260006004820152602490fd5b600080fd5b634e487b7160e01b600052604160045260246000fdfe6040608081526004908136101561001557600080fd5b600091823560e01c806339a2efb614610a445780635f09323d146108c75780636bb12fd9146107b5578063715018a61461075b5780637b103999146107325780638926f54f146106f55780638da5cb5b146106cd578063962b74f71461068c5780639a46e412146106705780639c0c87b514610620578063c5d46dfc146101cb578063d86b56f7146101af578063e3d3f8431461018f578063f2fde38b146101015763fb4ceaa3146100c657600080fd5b346100fd5760203660031901126100fd57359161ffff9081841684036100fa57506100f26020936115fa565b915191168152f35b80fd5b8280fd5b5090346100fd5760203660031901126100fd576001600160a01b0382358181169391929084900361018b57610134610c09565b831561017557505082546001600160a01b0319811683178455167f8be0079c531659141344cd1fd0a4f28419497f9722a3daafe3b4186f6b6457e08380a380f35b51631e4fbdf760e01b8152908101849052602490fd5b8480fd5b5050346101ab57816003193601126101ab5760209051604b8152f35b5080fd5b5050346101ab57816003193601126101ab5760209051605a8152f35b508290346101ab5760203660031901126101ab578035926001600160a01b0392838516928386036101ab578160c0845161020481610c35565b82815282602082015282868201528260608201528260808201528260a0820152015261022f86610e06565b9261023987610f03565b600196875416958251809781926326d9995d60e11b8352868301526101a092839160249a8b915afa9182156106165786926105e9575b505084610100820151846020820151151591826105dc575b5050156105d2576096810190866096831291129080158216911516176104e757905b60e0810151806105495750906102be90610dda565b905b61012081015151683635c9adc5dea0000081106104f9575090604b81019086604b831291129080158216911516176104e757905b51600a811061047a575061030790610ee6565b870b95610313876111dd565b936103266103208b61122c565b9a6113de565b60ff8098169260288402948486046028148515171561046857891694601486029086820460141487151715610456578a9161036091610ca2565b971696601488029088820460141489151715610456578a9161038191610ca2565b9c169b600a8d02908d808304600a1490151715610456578a916103a391610ca2565b921697600a890293898504600a148a151715610446575050508a8860c0978c97828d9881809961ffff60e09f9a6103dd606491859c610ca2565b04169d8e8651906103ed82610c35565b8152602081019283528681019485526060810197885260808101998a5260a081019b8c52019b8c5284519d8e52511660208d01525116908a01525116606088015251166080860152511660a084015251900b60c0820152f35b634e487b7160e01b825260119052fd5b634e487b7160e01b8a5260118552828afd5b50634e487b7160e01b88526011835287fd5b600581106104b45750601e81019085601e831291129080158216911516176104a2575b610307565b634e487b7160e01b8552601184528685fd5b60031161030757600f81019085600f831291129080158216911516171561049d57634e487b7160e01b8552601184528685fd5b634e487b7160e01b8652601185528786fd5b681b1ae4d6e2ef500000811061051a57509061051490610ee6565b906102f4565b68056bc75e2d63100000116102f457906019810190866019831291129080158216911516176104e757906102f4565b61055390426111d0565b62278d0081101561057057509061056990610dda565b905b6102c0565b6276a70081101561059157509060c719810190811389166104e757906102c0565b62ed4e008110156105b2575090606319810190811389166104e757906102c0565b6301e13380111561056b5790603119810190811389166104e757906102c0565b50609519906102a9565b015142109050848c610287565b6106089250803d1061060f575b6106008183610c81565b810190610ce5565b898061026f565b503d6105f6565b84513d88823e3d90fd5b509190346101ab5760203660031901126101ab57823561ffff811681036100fd5761064a906115c6565b9051918382101561065d57602083838152f35b634e487b7160e01b815260218452602490fd5b5050346101ab57816003193601126101ab5760209051603c8152f35b50346100fd5760203660031901126100fd5735916002548310156100fa57506001600160401b036106be602093610bb3565b92905490519260031b1c168152f35b5050346101ab57816003193601126101ab57905490516001600160a01b039091168152602090f35b50346100fd5760203660031901126100fd57356001600160401b0381168091036100fd57818360ff92602095526003855220541690519015158152f35b5050346101ab57816003193601126101ab5760015490516001600160a01b039091168152602090f35b83346100fa57806003193601126100fa57610774610c09565b80546001600160a01b03198116825581906001600160a01b03167f8be0079c531659141344cd1fd0a4f28419497f9722a3daafe3b4186f6b6457e08280a380f35b5090346100fd5760203660031901126100fd5781356001600160401b0381169283820361018b576107e4610c09565b838552600360205260ff838620541661089057600254906801000000000000000082101561087d5750906108218260016108419401600255610bb3565b90919082549060031b916001600160401b03809116831b921b1916179055565b81835260036020528220805460ff191660011790557f6ce9b4dda1a396a1e08009bbd610b75b33f10171ca06d9d261959738596364a98280a280f35b634e487b7160e01b865260419052602485fd5b606490602084519162461bcd60e51b83528201526011602482015270105b1c9958591e481cdd5c1c1bdc9d1959607a1b6044820152fd5b5082346100fa57806003193601126100fa5782518091600254808352836020808095018097600286527f405787fa12a823e0f2b7631cc41b3ba8828b3321ca811111fa75cd3aa3bb5ace9486915b8160038401106109fb5750610958955491848282106109e2575b8c8383106109c6575b508282106109aa575b501061099c575b5090509695949293960382610c81565b83519485948186019282875251809352850193925b82811061097c57505050500390f35b83516001600160401b03168552869550938101939281019260010161096d565b60c01c815201849089610948565b600191946001600160401b038560801c16815201930184610941565b946001600160401b0385600194971c168152019301848c610938565b600191946001600160401b03851681520193018461092f565b945092509060018491865490818d6001600160401b0393849182821685521c168b8301528d60809382851c169083015260c01c6060820152019501910186928894959295610915565b5090346100fd5760203660031901126100fd578135906001600160401b0380831680930361018b57610a74610c09565b8285526003908160205260ff838720541615610b8057855b6002805480831015610b73578684610aa385610bb3565b905490881b1c1614610abf575050610aba9061121d565b610a8c565b916000979193949596971992838101908111610b60579061082186610ae6610af394610bb3565b9054908a1b1c1691610bb3565b8254908115610b4d57500191610b0883610bb3565b9091825491861b1b19169055555b8284526020528220805460ff191690557f489cbdb4a41d0f01921ac1a9b59baf9d844209be7a4145cf4dade327c45f00968280a280f35b634e487b7160e01b895260319052602488fd5b634e487b7160e01b8a526011835260248afd5b5050505090919250610b16565b825162461bcd60e51b8152602081870152600d60248201526c139bdd081cdd5c1c1bdc9d1959609a1b6044820152606490fd5b90600254821015610bf357600260005260188260021c7f405787fa12a823e0f2b7631cc41b3ba8828b3321ca811111fa75cd3aa3bb5ace019260031b1690565b634e487b7160e01b600052603260045260246000fd5b6000546001600160a01b03163303610c1d57565b60405163118cdaa760e01b8152336004820152602490fd5b60e081019081106001600160401b03821117610c5057604052565b634e487b7160e01b600052604160045260246000fd5b608081019081106001600160401b03821117610c5057604052565b90601f801991011681019081106001600160401b03821117610c5057604052565b91908201809211610caf57565b634e487b7160e01b600052601160045260246000fd5b8115610ccf570490565b634e487b7160e01b600052601260045260246000fd5b8091036101a08112610dd55760409182519261014091828501936001600160401b039486811086821117610c5057835281518652602082015160208701528282015183870152606082015160608701526080820151608087015260a082015160a087015260c082015160c087015260e082015160e0870152606060ff19820112610dd557825190606082019180831087841117610c505784928352610100808501518252610120968786015160208401528501518483015288015261015f190112610dd55781519384830190811185821017610c5057610180925261016081015184520151602083015282015290565b600080fd5b9061012b198201918213600116610caf57565b81810392916000138015828513169184121617610caf57565b6001546040516326d9995d60e11b81526001600160a01b0392831660048201526101a0929091839183916024918391165afa918215610eda57600092610ebd575b5050805115610eb7576020810151606481029080820460641490151715610caf57610e76604091835190610cc5565b910151601481029080820460141490151715610caf57610e9591610ded565b60008112610eb15760648113610eab5760ff1690565b50606490565b50600090565b50603290565b610ed39250803d1061060f576106008183610c81565b3880610e47565b6040513d6000823e3d90fd5b9060328201916000603284129112908015821691151617610caf57565b6001546040516326d9995d60e11b81526001600160a01b039283166004808301829052928416936101a09360249390929190858186818a5afa958615610eda576000966111b1575b50508451156111a65760a085019586511561119a576080860151606497888202918083048a149015171561114c5751610f8391610cc5565b600090889060c8811061116057509050955b60c081015190888202918083048a149015171561114c5751610fb691610cc5565b600090604b81111561112f57505060006028935b8660405180948193632dd91bb760e11b8352898301525afa918215610eda5760009261107b575b5050516000906003811061105b57505061100d90601494610ded565b60008482019485129112908015821691151617611048575050600081126110415781811361103d5760ff91501690565b5090565b5050600090565b601190634e487b7160e01b600052526000fd5b6002909591951015611072575b9061100d91610ded565b600a9450611068565b90913d8082853e61108c8185610c81565b83019060209283858403126101ab5784516001600160401b039586821161112b57019183601f840112156100fa578251958611611119578560051b92604051966110d887860189610c81565b875285808801948201019485116101ab578501925b848410611101575050505050503880610ff1565b835183811681036100fd5781529285019285016110ed565b634e487b7160e01b8152604188528890fd5b8380fd5b60329094919411611143575b600090610fca565b6014935061113b565b86601187634e487b7160e01b600052526000fd5b6096811061117357505050604b95610f95565b6078811061118657505050603295610f95565b106111945750601995610f95565b95610f95565b50505050505050603290565b505050505050603290565b6111c8929650803d1061060f576106008183610c81565b933880610f4b565b91908203918211610caf57565b60010b6101c28101908112600116610caf57606481029080820560641490151715610caf576102e9900560008112610eb15760648113610eab5760ff1690565b6000198114610caf5760010190565b6002546001546000928392916001600160a01b0391908216845b8481106112de5750505050508015611041576112658161128a93610cc5565b600090604b81106112a857505060645b60009160038110611298575060149150610ca2565b60648111610eab5760ff1690565b600211610ca257600a9150610ca2565b603c81106112b9575050604b611275565b602d81106112ca5750506032611275565b601e116112d957506019611275565b611275565b6112e781610bb3565b9054906001600160401b036040928351926340c7e39d60e01b8452888816600485015260031b1c1660248201526080918282604481885afa9283156113d35760009361136f575b505050606081015161134a575b506113459061121d565b611246565b95611345919761ffff61135f6113689361121d565b98511690610ca2565b969061133b565b82813d83116113cc575b6113838183610c81565b810103126100fd5780519261139784610c66565b82519061ffff821682036100fa575083526020808301519084015280820151908301526060809101519082015238808061132e565b503d611379565b50513d6000823e3d90fd5b60018060a01b03806001541691604060808151809581956302a5ef7960e21b8352600495168583015260249586915afa9384156113d357600094611569575b508351600090601481106115275750602881018091116114dc575b6020850151600581106114f05750601e81018091116114dc57935b0161145f8151426111d0565b9051611477575b50505060648111610eab5760ff1690565b62278d008110156114995750601e83018093116110485750505b388080611466565b6276a7008110156114b7575060148301809311611048575050611491565b62ed4e00116114c8575b5050611491565b600a830180931161104857505038806114c1565b83601184634e487b7160e01b600052526000fd5b6003811061150a5750601481018091116114dc5793611453565b600190959195106114535793600a81018091116114dc5793611453565b600a81106115415750601e81018091116114dc575b611438565b6005811061155a5750601481018091116114dc57611438565b60011161153c5750600a611438565b90936080823d82116115be575b8161158360809383610c81565b810103126100fa5750606084519161159a83610c66565b8051835260208101516020840152858101518684015201516060820152923861141d565b3d9150611576565b61ffff16605a8110156115f457604b8110156115ee57603c11156115e957600090565b600190565b50600290565b50600390565b61ffff16605a81101561164b57604b81101561164457603c81101561163d57602d81101561163657601e1115611630576105dc90565b6104b090565b506103e890565b5061032090565b5061025890565b506101909056fea264697066735822122069a112e82c04a24a11a944ced49a8253c8b84a672fc6e0069de4bf482f3da7a364736f6c63430008140033",
  "linkReferences": {},
  "deployedLinkReferences": {}
}