{
  "_format": "hh-sol-artifact-1",
  "contractName": "ScoreAttestor",
  "sourceName": "contracts/ScoreAttestor.sol",
  "abi": [
    {
      "inputs": [],
      "stateMutability": "nonpayable",
      "type": "constructor"
    },
    {
      "inputs": [
        {
          "internalType": "address",
          "name": "target",
          "type": "address"
        }
      ],
      "name": "AddressEmptyCode",
      "type": "error"
    },
    {
      "inputs": [],
      "name": "AttestationFailed",
      "type": "error"
    },
    {
      "inputs": [
        {
          "internalType": "address",
          "name": "implementation",
          "type": "address"
        }
      ],
      "name": "ERC1967InvalidImplementation",
      "type": "error"
    },
    {
      "inputs": [],
      "name": "ERC1967NonPayable",
      "type": "error"
    },
    {
      "inputs": [],
      "name": "FailedInnerCall",
      "type": "error"
    },
    {
      "inputs": [],
      "name": "InvalidInitialization",
      "type": "error"
    },
    {
      "inputs": [],
      "name": "InvalidScore",
      "type": "error"
    },
    {
      "inputs": [],
      "name": "NotInitializing",
      "type": "error"
    },
    {
      "inputs": [
        {
          "internalType": "address",
          "name": "owner",
          "type": "address"
        }
      ],
      "name": "OwnableInvalidOwner",
      "type": "error"
    },
    {
      "inputs": [
        {
          "internalType": "address",
          "name": "account",
          "type": "address"
        }
      ],
      "name": "OwnableUnauthorizedAccount",
      "type": "error"
    },
    {
      "inputs": [],
      "name": "UUPSUnauthorizedCallContext",
      "type": "error"
    },
    {
      "inputs": [
        {
          "internalType": "bytes32",
          "name": "slot",
          "type": "bytes32"
        }
      ],
      "name": "UUPSUnsupportedProxiableUUID",
      "type": "error"
    },
    {
      "inputs": [],
      "name": "UnauthorizedCaller",
      "type": "error"
    },
    {
      "anonymous": false,
      "inputs": [
        {
          "indexed": true,
          "internalType": "address",
          "name": "user",
          "type": "address"
        },
        {
          "indexed": true,
          "internalType": "bytes32",
          "name": "uid",
          "type": "bytes32"
        },
        {
          "indexed": false,
          "internalType": "uint256",
          "name": "score",
          "type": "uint256"
        },
        {
          "indexed": false,
          "internalType": "string",
          "name": "tier",
          "type": "string"
        },
        {
          "indexed": false,
          "internalType": "uint256",
          "name": "timestamp",
          "type": "uint256"
        }
      ],
      "name": "AttestationCreated",
      "type": "event"
    },
    {
      "anonymous": false,
      "inputs": [
        {
          "indexed": false,
          "internalType": "uint64",
          "name": "version",
          "type": "uint64"
        }
      ],
      "name": "Initialized",
      "type": "event"
    },
    {
      "anonymous": false,
      "inputs": [
        {
          "indexed": true,
          "internalType": "address",
          "name": "oldOracle",
          "type": "address"
        },
        {
          "indexed": true,
          "internalType": "address",
          "name": "newOracle",
          "type": "address"
        }
      ],
      "name": "OracleUpdated",
      "type": "event"
    },
    {
      "anonymous": false,
      "inputs": [
        {
          "indexed": true,
          "internalType": "address",
          "name": "previousOwner",
          "type": "address"
        },
        {
          "indexed": true,
          "internalType": "address",
          "name": "newOwner",
          "type": "address"
        }
      ],
      "name": "OwnershipTransferred",
      "type": "event"
    },
    {
      "anonymous": false,
      "inputs": [
        {
          "indexed": true,
          "internalType": "bytes32",
          "name": "oldSchema",
          "type": "bytes32"
        },
        {
          "indexed": true,
          "internalType": "bytes32",
          "name": "newSchema",
          "type": "bytes32"
        }
      ],
      "name": "SchemaUpdated",
      "type": "event"
    },
    {
      "anonymous": false,
      "inputs": [
        {
          "indexed": true,
          "internalType": "address",
          "name": "implementation",
          "type": "address"
        }
      ],
      "name": "Upgraded",
      "type": "event"
    },
    {
      "inputs": [],
      "name": "UPGRADE_INTERFACE_VERSION",
      "outputs": [
        {
          "internalType": "string",
          "name": "",
          "type": "string"
        }
      ],
      "stateMutability": "view",
      "type": "function"
    },
    {
      "inputs": [
        {
          "internalType": "address",
          "name": "user",
          "type": "address"
        },
        {
          "internalType": "uint256",
          "name": "score",
          "type": "uint256"
        },
        {
          "internalType": "string",
          "name": "tier",
          "type": "string"
        }
      ],
      "name": "attestScore",
      "outputs": [
        {
          "internalType": "bytes32",
          "name": "uid",
          "type": "bytes32"
        }
      ],
      "stateMutability": "nonpayable",
      "type": "function"
    },
    {
      "inputs": [
        {
          "internalType": "address",
          "name": "",
          "type": "address"
        },
        {
          "internalType": "uint256",
          "name": "",
          "type": "uint256"
        }
      ],
      "name": "attestationHistory",
      "outputs": [
        {
          "internalType": "bytes32",
          "name": "",
          "type": "bytes32"
        }
      ],
      "stateMutability": "view",
      "type": "function"
    },
    {
      "inputs": [],
      "name": "creditScoreSchema",
      "outputs": [
        {
          "internalType": "bytes32",
          "name": "",
          "type": "bytes32"
        }
      ],
      "stateMutability": "view",
      "type": "function"
    },
    {
      "inputs": [
        {
          "internalType": "bytes32",
          "name": "uid",
          "type": "bytes32"
        }
      ],
      "name": "decodeAttestation",
      "outputs": [
        {
          "internalType": "address",
          "name": "user",
          "type": "address"
        },
        {
          "internalType": "uint256",
          "name": "score",
          "type": "uint256"
        },
        {
          "internalType": "string",
          "name": "tier",
          "type": "string"
        },
        {
          "internalType": "uint256",
          "name": "timestamp",
          "type": "uint256"
        }
      ],
      "stateMutability": "view",
      "type": "function"
    },
    {
      "inputs": [],
      "name": "eas",
      "outputs": [
        {
          "internalType": "contract IEAS",
          "name": "",
          "type": "address"
        }
      ],
      "stateMutability": "view",
      "type": "function"
    },
    {
      "inputs": [
        {
          "internalType": "address",
          "name": "user",
          "type": "address"
        }
      ],
      "name": "getAttestationHistory",
      "outputs": [
        {
          "internalType": "bytes32[]",
          "name": "",
          "type": "bytes32[]"
        }
      ],
      "stateMutability": "view",
      "type": "function"
    },
    {
      "inputs": [
        {
          "internalType": "address",
          "name": "user",
          "type": "address"
        }
      ],
      "name": "getLatestAttestation",
      "outputs": [
        {
          "internalType": "bytes32",
          "name": "",
          "type": "bytes32"
        }
      ],
      "stateMutability": "view",
      "type": "function"
    },
    {
      "inputs": [
        {
          "internalType": "address",
          "name": "_easAddress",
          "type": "address"
        },
        {
          "internalType": "bytes32",
          "name": "_schemaUID",
          "type": "bytes32"
        },
        {
          "internalType": "address",
          "name": "_scoreOracle",
          "type": "address"
        }
      ],
      "name": "initialize",
      "outputs": [],
      "stateMutability": "nonpayable",
      "type": "function"
    },
    {
      "inputs": [
        {
          "internalType": "address",
          "name": "",
          "type": "address"
        }
      ],
      "name": "latestAttestation",
      "outputs": [
        {
          "internalType": "bytes32",
          "name": "",
          "type": "bytes32"
        }
      ],
      "stateMutability": "view",
      "type": "function"
    },
    {
      "inputs": [],
      "name": "owner",
      "outputs": [
        {
          "internalType": "address",
          "name": "",
          "type": "address"
        }
      ],
      "stateMutability": "view",
      "type": "function"
    },
    {
      "inputs": [],
      "name": "proxiableUUID",
      "outputs": [
        {
          "internalType": "bytes32",
          "name": "",
          "type": "bytes32"
        }
      ],
      "stateMutability": "view",
      "type": "function"
    },
    {
      "inputs": [],
      "name": "renounceOwnership",
      "outputs": [],
      "stateMutability": "nonpayable",
      "type": "function"
    },
    {
      "inputs": [],
      "name": "scoreOracle",
      "outputs": [
        {
          "internalType": "address",
          "name": "",
          "type": "address"
        }
      ],
      "stateMutability": "view",
      "type": "function"
    },
    {
      "inputs": [
        {
          "internalType": "address",
          "name": "newOwner",
          "type": "address"
        }
      ],
      "name": "transferOwnership",
      "outputs": [],
      "stateMutability": "nonpayable",
      "type": "function"
    },
    {
      "inputs": [
        {
          "internalType": "address",
          "name": "newOracle",
          "type": "address"
        }
      ],
      "name": "updateOracle",
      "outputs": [],
      "stateMutability": "nonpayable",
      "type": "function"
    },
    {
      "inputs": [
        {
          "internalType": "bytes32",
          "name": "newSchema",
          "type": "bytes32"
        }
      ],
      "name": "updateSchema",
      "outputs": [],
      "stateMutability": "nonpayable",
      "type": "function"
    },
    {
      "inputs": [
        {
          "internalType": "address",
          "name": "newImplementation",
          "type": "address"
        },
        {
          "internalType": "bytes",
          "name": "data",
          "type": "bytes"
        }
      ],
      "name": "upgradeToAndCall",
      "outputs": [],
      "stateMutability": "payable",
      "type": "function"
    },
    {
      "inputs": [
        {
          "internalType": "bytes32",
          "name": "uid",
          "type": "bytes32"
        }
      ],
      "name": "verifyAttestation",
      "outputs": [
        {
          "internalType": "bool",
          "name": "valid",
          "type": "bool"
        }
      ],
      "stateMutability": "view",
      "type": "function"
    }
  ],
  "bytecode": "0x60a06040523060805234801561001457600080fd5b5061001d610022565b6100d4565b7ff0c57e16840df040f15088dc2f81fe391c3923bec73e23a9662efc9c229c6a00805468010000000000000000900460ff16156100725760405163f92ee8a960e01b815260040160405180910390fd5b80546001600160401b03908116146100d15780546001600160401b0319166001600160401b0390811782556040519081527fc7f505b2f371ae2175ee4913f4499e1f2633a7b5936321eed1cdaeb6115181d29060200160405180910390a15b50565b6080516115df6100fd60003960008181610aa401528181610acd0152610c1301526115df6000f3fe6080604052600436106101145760003560e01c806358ff2232116100a0578063ad3cb1cc11610064578063ad3cb1cc14610339578063d26b3e6e14610377578063d4ed4dd714610397578063f2fde38b146103c4578063fb3aca4b146103e457600080fd5b806358ff223214610279578063641bba6014610299578063715018a6146102af5780638150864d146102c45780638da5cb5b146102fc57600080fd5b806325ec019a116100e757806325ec019a146101d4578063275e6df71461020157806347f83d1e146102215780634f1ef2861461025157806352d1902d1461026457600080fd5b8063080f522c1461011957806308f469571461016257806315fa777c146101925780631cb44dfc146101b2575b600080fd5b34801561012557600080fd5b5061014f610134366004610f16565b6001600160a01b031660009081526003602052604090205490565b6040519081526020015b60405180910390f35b34801561016e57600080fd5b5061018261017d366004610f33565b610404565b6040519015158152602001610159565b34801561019e57600080fd5b5061014f6101ad366004610f4c565b6104ad565b3480156101be57600080fd5b506101d26101cd366004610f16565b61067e565b005b3480156101e057600080fd5b506101f46101ef366004610f16565b6106d8565b6040516101599190610fd5565b34801561020d57600080fd5b5061014f61021c366004611019565b610744565b34801561022d57600080fd5b5061024161023c366004610f33565b610775565b6040516101599493929190611095565b6101d261025f366004611166565b61081b565b34801561027057600080fd5b5061014f61083a565b34801561028557600080fd5b506101d2610294366004610f33565b610857565b3480156102a557600080fd5b5061014f60015481565b3480156102bb57600080fd5b506101d2610898565b3480156102d057600080fd5b506000546102e4906001600160a01b031681565b6040516001600160a01b039091168152602001610159565b34801561030857600080fd5b507f9016d09d72d40fdae2fd8ceac6b6234c7706214fd39c1cd1e609a0528c199300546001600160a01b03166102e4565b34801561034557600080fd5b5061036a604051806040016040528060058152602001640352e302e360dc1b81525081565b60405161015991906111f9565b34801561038357600080fd5b506101d261039236600461120c565b6108ac565b3480156103a357600080fd5b5061014f6103b2366004610f16565b60036020526000908152604090205481565b3480156103d057600080fd5b506101d26103df366004610f16565b6109fb565b3480156103f057600080fd5b506002546102e4906001600160a01b031681565b600080546040516328c44a9960e21b81526004810184905282916001600160a01b03169063a3112a6490602401600060405180830381865afa15801561044e573d6000803e3d6000fd5b505050506040513d6000823e601f3d908101601f1916820160405261047691908101906112d6565b80519091508314801561048e57506001548160200151145b80156104a65750608081015167ffffffffffffffff16155b9392505050565b6002546000906001600160a01b031633146104db57604051635c427cd960e01b815260040160405180910390fd5b6103e88411156104fe57604051631556136560e01b815260040160405180910390fd5b600085858585426040516020016105199594939291906113f6565b60408051601f1981840301815282820182526001548352815160c0810183526001600160a01b03808b16825260006020838101829052838601829052606084018290526080840185905260a084018290528601929092529054925163f17325e760e01b8152919450919091169063f17325e79061059a908490600401611430565b6020604051808303816000875af11580156105b9573d6000803e3d6000fd5b505050506040513d601f19601f820116820180604052508101906105dd91906114b3565b9250826105fd57604051630c7ae0a360e31b815260040160405180910390fd5b6001600160a01b03871660008181526003602090815260408083208790556004825280832080546001810182559084529190922001859055518491907f990bc4b5b9e66931e3888b4b41b554e3e942d2ed37c589cef8ad62ff4092310e9061066c908a908a908a9042906114cc565b60405180910390a35050949350505050565b610686610a3e565b600280546001600160a01b038381166001600160a01b0319831681179093556040519116919082907f078c3b417dadf69374a59793b829c52001247130433427049317bde56607b1b790600090a35050565b6001600160a01b03811660009081526004602090815260409182902080548351818402810184019094528084526060939283018282801561073857602002820191906000526020600020905b815481526020019060010190808311610724575b50505050509050919050565b6004602052816000526040600020818154811061076057600080fd5b90600052602060002001600091509150505481565b600080546040516328c44a9960e21b8152600481018490528291606091839182916001600160a01b039091169063a3112a6490602401600060405180830381865afa1580156107c8573d6000803e3d6000fd5b505050506040513d6000823e601f3d908101601f191682016040526107f091908101906112d6565b905080610120015180602001905181019061080b91906114f7565b9299919850965090945092505050565b610823610a99565b61082c82610b3e565b6108368282610b46565b5050565b6000610844610c08565b5060008051602061158a83398151915290565b61085f610a3e565b6001805490829055604051829082907f60a69dcf338b6e806f3eb1a247b2339b15272728725f7f93d72ef25b534e22e090600090a35050565b6108a0610a3e565b6108aa6000610c51565b565b7ff0c57e16840df040f15088dc2f81fe391c3923bec73e23a9662efc9c229c6a008054600160401b810460ff16159067ffffffffffffffff166000811580156108f25750825b905060008267ffffffffffffffff16600114801561090f5750303b155b90508115801561091d575080155b1561093b5760405163f92ee8a960e01b815260040160405180910390fd5b845467ffffffffffffffff19166001178555831561096557845460ff60401b1916600160401b1785555b61096e33610cc2565b610976610cd3565b600080546001600160a01b03808b166001600160a01b0319928316179092556001899055600280549289169290911691909117905583156109f157845460ff60401b19168555604051600181527fc7f505b2f371ae2175ee4913f4499e1f2633a7b5936321eed1cdaeb6115181d29060200160405180910390a15b5050505050505050565b610a03610a3e565b6001600160a01b038116610a3257604051631e4fbdf760e01b8152600060048201526024015b60405180910390fd5b610a3b81610c51565b50565b33610a707f9016d09d72d40fdae2fd8ceac6b6234c7706214fd39c1cd1e609a0528c199300546001600160a01b031690565b6001600160a01b0316146108aa5760405163118cdaa760e01b8152336004820152602401610a29565b306001600160a01b037f0000000000000000000000000000000000000000000000000000000000000000161480610b2057507f00000000000000000000000000000000000000000000000000000000000000006001600160a01b0316610b1460008051602061158a833981519152546001600160a01b031690565b6001600160a01b031614155b156108aa5760405163703e46dd60e11b815260040160405180910390fd5b610a3b610a3e565b816001600160a01b03166352d1902d6040518163ffffffff1660e01b8152600401602060405180830381865afa925050508015610ba0575060408051601f3d908101601f19168201909252610b9d918101906114b3565b60015b610bc857604051634c9c8ce360e01b81526001600160a01b0383166004820152602401610a29565b60008051602061158a8339815191528114610bf957604051632a87526960e21b815260048101829052602401610a29565b610c038383610cdb565b505050565b306001600160a01b037f000000000000000000000000000000000000000000000000000000000000000016146108aa5760405163703e46dd60e11b815260040160405180910390fd5b7f9016d09d72d40fdae2fd8ceac6b6234c7706214fd39c1cd1e609a0528c19930080546001600160a01b031981166001600160a01b03848116918217845560405192169182907f8be0079c531659141344cd1fd0a4f28419497f9722a3daafe3b4186f6b6457e090600090a3505050565b610cca610d31565b610a3b81610d7a565b6108aa610d31565b610ce482610d82565b6040516001600160a01b038316907fbc7cd75a20ee27fd9adebab32041f755214dbc6bffa90cc0225b39da2e5c2d3b90600090a2805115610d2957610c038282610de7565b610836610e5d565b7ff0c57e16840df040f15088dc2f81fe391c3923bec73e23a9662efc9c229c6a0054600160401b900460ff166108aa57604051631afcd79f60e31b815260040160405180910390fd5b610a03610d31565b806001600160a01b03163b600003610db857604051634c9c8ce360e01b81526001600160a01b0382166004820152602401610a29565b60008051602061158a83398151915280546001600160a01b0319166001600160a01b0392909216919091179055565b6060600080846001600160a01b031684604051610e04919061156d565b600060405180830381855af49150503d8060008114610e3f576040519150601f19603f3d011682016040523d82523d6000602084013e610e44565b606091505b5091509150610e54858383610e7c565b95945050505050565b34156108aa5760405163b398979f60e01b815260040160405180910390fd5b606082610e9157610e8c82610ed8565b6104a6565b8151158015610ea857506001600160a01b0384163b155b15610ed157604051639996b31560e01b81526001600160a01b0385166004820152602401610a29565b5092915050565b805115610ee85780518082602001fd5b604051630a12f52160e11b815260040160405180910390fd5b6001600160a01b0381168114610a3b57600080fd5b600060208284031215610f2857600080fd5b81356104a681610f01565b600060208284031215610f4557600080fd5b5035919050565b60008060008060608587031215610f6257600080fd5b8435610f6d81610f01565b935060208501359250604085013567ffffffffffffffff80821115610f9157600080fd5b818701915087601f830112610fa557600080fd5b813581811115610fb457600080fd5b886020828501011115610fc657600080fd5b95989497505060200194505050565b6020808252825182820181905260009190848201906040850190845b8181101561100d57835183529284019291840191600101610ff1565b50909695505050505050565b6000806040838503121561102c57600080fd5b823561103781610f01565b946020939093013593505050565b60005b83811015611060578181015183820152602001611048565b50506000910152565b60008151808452611081816020860160208601611045565b601f01601f19169290920160200192915050565b60018060a01b03851681528360208201526080604082015260006110bc6080830185611069565b905082606083015295945050505050565b634e487b7160e01b600052604160045260246000fd5b604051610140810167ffffffffffffffff81118282101715611107576111076110cd565b60405290565b604051601f8201601f1916810167ffffffffffffffff81118282101715611136576111366110cd565b604052919050565b600067ffffffffffffffff821115611158576111586110cd565b50601f01601f191660200190565b6000806040838503121561117957600080fd5b823561118481610f01565b9150602083013567ffffffffffffffff8111156111a057600080fd5b8301601f810185136111b157600080fd5b80356111c46111bf8261113e565b61110d565b8181528660208385010111156111d957600080fd5b816020840160208301376000602083830101528093505050509250929050565b6020815260006104a66020830184611069565b60008060006060848603121561122157600080fd5b833561122c81610f01565b925060208401359150604084013561124381610f01565b809150509250925092565b805167ffffffffffffffff8116811461126657600080fd5b919050565b805161126681610f01565b8051801515811461126657600080fd5b60006112946111bf8461113e565b90508281528383830111156112a857600080fd5b6104a6836020830184611045565b600082601f8301126112c757600080fd5b6104a683835160208501611286565b6000602082840312156112e857600080fd5b815167ffffffffffffffff8082111561130057600080fd5b90830190610140828603121561131557600080fd5b61131d6110e3565b82518152602083015160208201526113376040840161124e565b60408201526113486060840161124e565b60608201526113596080840161124e565b608082015260a083015160a082015261137460c0840161126b565b60c082015261138560e0840161126b565b60e0820152610100611398818501611276565b9082015261012083810151838111156113b057600080fd5b6113bc888287016112b6565b918301919091525095945050505050565b81835281816020850137506000828201602090810191909152601f909101601f19169091010190565b60018060a01b038616815284602082015260806040820152600061141e6080830185876113cd565b90508260608301529695505050505050565b60208152815160208201526000602083015160408084015260018060a01b03815116606084015267ffffffffffffffff60208201511660808401526040810151151560a0840152606081015160c0840152608081015160c060e085015261149b610120850182611069565b905060a0820151610100850152809250505092915050565b6000602082840312156114c557600080fd5b5051919050565b8481526060602082015260006114e66060830185876113cd565b905082604083015295945050505050565b6000806000806080858703121561150d57600080fd5b845161151881610f01565b60208601516040870151919550935067ffffffffffffffff81111561153c57600080fd5b8501601f8101871361154d57600080fd5b61155c87825160208401611286565b606096909601519497939650505050565b6000825161157f818460208701611045565b919091019291505056fe360894a13ba1a3210667c828492db98dca3e2076cc3735a920a3ca505d382bbca2646970667358221220dea4a1853a45ede8cf5a94d218820906f7208c093a01c47783b6310bdea7d56564736f6c63430008140033",
  "linkReferences": {},
  "deployedLinkReferences": {}
}