{
  "_format": "hh-sol-artifact-1",
  "contractName": "HealthFactorMonitor",
  "sourceName": "contracts/HealthFactorMonitor.sol",
  "abi": [
    {
      "inputs": [
        {
          "internalType": "address",
          "name": "_reputationScorer",
          "type": "address"
        },
        {
          "internalType": "address",
          "name": "_lendingPool",
          "type": "address"
        },
        {
          "internalType": "address",
          "name": "_priceOracle",
          "type": "address"
        }
      ],
      "stateMutability": "nonpayable",
      "type": "constructor"
    },
    {
      "inputs": [
        {
          "internalType": "address",
          "name": "owner",
          "type": "address"
        }
      ],
      "name": "OwnableInvalidOwner",
      "type": "error"
    },
    {
      "inputs": [
        {
          "internalType": "address",
          "name": "account",
          "type": "address"
        }
      ],
      "name": "OwnableUnauthorizedAccount",
      "type": "error"
    },
    {
      "anonymous": false,
      "inputs": [
        {
          "indexed": true,
          "internalType": "address",
          "name": "borrower",
          "type": "address"
        },
        {
          "indexed": true,
          "internalType": "uint256",
          "name": "loanId",
          "type": "uint256"
        },
        {
          "indexed": false,
          "internalType": "uint256",
          "name": "healthFactor",
          "type": "uint256"
        }
      ],
      "name": "HealthFactorCritical",
      "type": "event"
    },
    {
      "anonymous": false,
      "inputs": [
        {
          "indexed": true,
          "internalType": "address",
          "name": "borrower",
          "type": "address"
        },
        {
          "indexed": true,
          "internalType": "uint256",
          "name": "loanId",
          "type": "uint256"
        },
        {
          "indexed": false,
          "internalType": "uint256",
          "name": "healthFactor",
          "type": "uint256"
        },
        {
          "indexed": false,
          "internalType": "bool",
          "name": "liquidatable",
          "type": "bool"
        }
      ],
      "name": "HealthFactorUpdated",
      "type": "event"
    },
    {
      "anonymous": false,
      "inputs": [
        {
          "indexed": true,
          "internalType": "address",
          "name": "newOracle",
          "type": "address"
        }
      ],
      "name": "OracleUpdated",
      "type": "event"
    },
    {
      "anonymous": false,
      "inputs": [
        {
          "indexed": true,
          "internalType": "address",
          "name": "previousOwner",
          "type": "address"
        },
        {
          "indexed": true,
          "internalType": "address",
          "name": "newOwner",
          "type": "address"
        }
      ],
      "name": "OwnershipTransferred",
      "type": "event"
    },
    {
      "anonymous": false,
      "inputs": [
        {
          "indexed": false,
          "internalType": "uint256",
          "name": "newThreshold",
          "type": "uint256"
        }
      ],
      "name": "ThresholdUpdated",
      "type": "event"
    },
    {
      "inputs": [],
      "name": "LIQUIDATION_THRESHOLD",
      "outputs": [
        {
          "internalType": "uint256",
          "name": "",
          "type": "uint256"
        }
      ],
      "stateMutability": "view",
      "type": "function"
    },
    {
      "inputs": [],
      "name": "PRECISION",
      "outputs": [
        {
          "internalType": "uint256",
          "name": "",
          "type": "uint256"
        }
      ],
      "stateMutability": "view",
      "type": "function"
    },
    {
      "inputs": [
        {
          "internalType": "address[]",
          "name": "borrowers",
          "type": "address[]"
        },
        {
          "internalType": "uint256[]",
          "name": "loanIds",
          "type": "uint256[]"
        }
      ],
      "name": "batchCalculateHealthFactors",
      "outputs": [],
      "stateMutability": "nonpayable",
      "type": "function"
    },
    {
      "inputs": [
        {
          "internalType": "address",
          "name": "borrower",
          "type": "address"
        },
        {
          "internalType": "uint256",
          "name": "loanId",
          "type": "uint256"
        }
      ],
      "name": "calculateHealthFactor",
      "outputs": [
        {
          "internalType": "uint256",
          "name": "",
          "type": "uint256"
        }
      ],
      "stateMutability": "nonpayable",
      "type": "function"
    },
    {
      "inputs": [
        {
          "internalType": "address",
          "name": "borrower",
          "type": "address"
        },
        {
          "internalType": "uint256",
          "name": "loanId",
          "type": "uint256"
        }
      ],
      "name": "getHealthStatus",
      "outputs": [
        {
          "components": [
            {
              "internalType": "uint256",
              "name": "collateralValue",
              "type": "uint256"
            },
            {
              "internalType": "uint256",
              "name": "debtValue",
              "type": "uint256"
            },
            {
              "internalType": "uint256",
              "name": "dynamicLTV",
              "type": "uint256"
            },
            {
              "internalType": "uint256",
              "name": "healthFactor",
              "type": "uint256"
            },
            {
              "internalType": "bool",
              "name": "liquidatable",
              "type": "bool"
            },
            {
              "internalType": "uint256",
              "name": "lastUpdate",
              "type": "uint256"
            }
          ],
          "internalType": "struct HealthFactorMonitor.HealthStatus",
          "name": "",
          "type": "tuple"
        }
      ],
      "stateMutability": "view",
      "type": "function"
    },
    {
      "inputs": [
        {
          "internalType": "address",
          "name": "borrower",
          "type": "address"
        },
        {
          "internalType": "uint256",
          "name": "loanId",
          "type": "uint256"
        },
        {
          "internalType": "uint256",
          "name": "targetHF",
          "type": "uint256"
        }
      ],
      "name": "getRequiredCollateral",
      "outputs": [
        {
          "internalType": "uint256",
          "name": "",
          "type": "uint256"
        }
      ],
      "stateMutability": "view",
      "type": "function"
    },
    {
      "inputs": [
        {
          "internalType": "address",
          "name": "borrower",
          "type": "address"
        },
        {
          "internalType": "uint256",
          "name": "loanId",
          "type": "uint256"
        }
      ],
      "name": "getRiskLevel",
      "outputs": [
        {
          "internalType": "uint8",
          "name": "",
          "type": "uint8"
        }
      ],
      "stateMutability": "view",
      "type": "function"
    },
    {
      "inputs": [
        {
          "internalType": "address",
          "name": "",
          "type": "address"
        },
        {
          "internalType": "uint256",
          "name": "",
          "type": "uint256"
        }
      ],
      "name": "healthStatuses",
      "outputs": [
        {
          "internalType": "uint256",
          "name": "collateralValue",
          "type": "uint256"
        },
        {
          "internalType": "uint256",
          "name": "debtValue",
          "type": "uint256"
        },
        {
          "internalType": "uint256",
          "name": "dynamicLTV",
          "type": "uint256"
        },
        {
          "internalType": "uint256",
          "name": "healthFactor",
          "type": "uint256"
        },
        {
          "internalType": "bool",
          "name": "liquidatable",
          "type": "bool"
        },
        {
          "internalType": "uint256",
          "name": "lastUpdate",
          "type": "uint256"
        }
      ],
      "stateMutability": "view",
      "type": "function"
    },
    {
      "inputs": [
        {
          "internalType": "address",
          "name": "borrower",
          "type": "address"
        },
        {
          "internalType": "uint256",
          "name": "loanId",
          "type": "uint256"
        }
      ],
      "name": "isLiquidatable",
      "outputs": [
        {
          "internalType": "bool",
          "name": "",
          "type": "bool"
        }
      ],
      "stateMutability": "view",
      "type": "function"
    },
    {
      "inputs": [],
      "name": "lendingPool",
      "outputs": [
        {
          "internalType": "contract ILendingPool",
          "name": "",
          "type": "address"
        }
      ],
      "stateMutability": "view",
      "type": "function"
    },
    {
      "inputs": [],
      "name": "owner",
      "outputs": [
        {
          "internalType": "address",
          "name": "",
          "type": "address"
        }
      ],
      "stateMutability": "view",
      "type": "function"
    },
    {
      "inputs": [],
      "name": "priceOracle",
      "outputs": [
        {
          "internalType": "contract IPriceOracle",
          "name": "",
          "type": "address"
        }
      ],
      "stateMutability": "view",
      "type": "function"
    },
    {
      "inputs": [],
      "name": "renounceOwnership",
      "outputs": [],
      "stateMutability": "nonpayable",
      "type": "function"
    },
    {
      "inputs": [],
      "name": "reputationScorer",
      "outputs": [
        {
          "internalType": "contract IReputationScorer",
          "name": "",
          "type": "address"
        }
      ],
      "stateMutability": "view",
      "type": "function"
    },
    {
      "inputs": [
        {
          "internalType": "address",
          "name": "_lendingPool",
          "type": "address"
        }
      ],
      "name": "setLendingPool",
      "outputs": [],
      "stateMutability": "nonpayable",
      "type": "function"
    },
    {
      "inputs": [
        {
          "internalType": "address",
          "name": "_priceOracle",
          "type": "address"
        }
      ],
      "name": "setPriceOracle",
      "outputs": [],
      "stateMutability": "nonpayable",
      "type": "function"
    },
    {
      "inputs": [
        {
          "internalType": "address",
          "name": "_reputationScorer",
          "type": "address"
        }
      ],
      "name": "setReputationScorer",
      "outputs": [],
      "stateMutability": "nonpayable",
      "type": "function"
    },
    {
      "inputs": [
        {
          "internalType": "address",
          "name": "newOwner",
          "type": "address"
        }
      ],
      "name": "transferOwnership",
      "outputs": [],
      "stateMutability": "nonpayable",
      "type": "function"
    },
    {
      "inputs": [
        {
          "internalType": "uint256",
          "name": "newThreshold",
          "type": "uint256"
        }
      ],
      "name": "updateLiquidationThreshold",
      "outputs": [],
      "stateMutability": "nonpayable",
      "type": "function"
    },
    {
      "inputs": [
        {
          "internalType": "address",
          "name": "newOracle",
          "type": "address"
        }
      ],
      "name": "updateOracle",
      "outputs": [],
      "stateMutability": "nonpayable",
      "type": "function"
    }
  ],
  "bytecode": "0x6080604052670d2f13f7789f000060055534801561001c57600080fd5b50604051620010f9380380620010f983398101604081905261003d9161011b565b338061006357604051631e4fbdf760e01b81526000600482015260240160405180910390fd5b61006c816100af565b50600180546001600160a01b039485166001600160a01b03199182161790915560028054938516938216939093179092556003805491909316911617905561015e565b600080546001600160a01b038381166001600160a01b0319831681178455604051919092169283917f8be0079c531659141344cd1fd0a4f28419497f9722a3daafe3b4186f6b6457e09190a35050565b80516001600160a01b038116811461011657600080fd5b919050565b60008060006060848603121561013057600080fd5b610139846100ff565b9250610147602085016100ff565b9150610155604085016100ff565b90509250925092565b610f8b806200016e6000396000f3fe608060405234801561001057600080fd5b506004361061012c5760003560e01c806373c84d21116100ad578063aaf5eb6811610071578063aaf5eb681461032f578063cea80b0b1461033e578063d3b5be1a14610363578063e9725c2114610376578063f2fde38b1461038957600080fd5b806373c84d21146102dc57806384f7baeb146102ef5780638da5cb5b1461030257806390a8ae9b14610313578063a59a99731461031c57600080fd5b80633fdfb2aa116100f45780633fdfb2aa1461022a57806344d8f73d1461024d578063515bc19414610260578063530e784f146102c1578063715018a6146102d457600080fd5b80630d40851214610131578063113aa8b1146101575780631cb44dfc1461016c5780632630c12f1461017f57806334d98ef7146101aa575b600080fd5b61014461013f366004610cec565b61039c565b6040519081526020015b60405180910390f35b61016a610165366004610d18565b610698565b005b61016a61017a366004610d18565b6106c2565b600354610192906001600160a01b031681565b6040516001600160a01b03909116815260200161014e565b6101fb6101b8366004610cec565b6004602081815260009384526040808520909152918352912080546001820154600283015460038401549484015460059094015492949193909260ff9091169086565b6040805196875260208701959095529385019290925260608401521515608083015260a082015260c00161014e565b61023d610238366004610cec565b610714565b604051901515815260200161014e565b61016a61025b366004610d81565b6107a2565b61027361026e366004610cec565b6108c3565b60405161014e9190600060c0820190508251825260208301516020830152604083015160408301526060830151606083015260808301511515608083015260a083015160a083015292915050565b61016a6102cf366004610d18565b61096f565b61016a610999565b600154610192906001600160a01b031681565b6101446102fd366004610ded565b6109ad565b6000546001600160a01b0316610192565b61014460055481565b600254610192906001600160a01b031681565b610144670de0b6b3a764000081565b61035161034c366004610cec565b610a95565b60405160ff909116815260200161014e565b61016a610371366004610e22565b610b57565b61016a610384366004610d18565b610bf2565b61016a610397366004610d18565b610c1c565b600254604051632820036560e11b8152600481018390526000918291829182916001600160a01b039091169063504006ca9060240160e060405180830381865afa1580156103ee573d6000803e3d6000fd5b505050506040513d601f19601f820116820180604052508101906104129190610e3b565b96505050509350935050806104605760405162461bcd60e51b815260206004820152600f60248201526e4c6f616e206e6f742061637469766560881b60448201526064015b60405180910390fd5b60015460405163119c5bab60e01b81526001600160a01b038881166004830152600092169063119c5bab90602401602060405180830381865afa1580156104ab573d6000803e3d6000fd5b505050506040513d601f19601f820116820180604052508101906104cf9190610eab565b9050838360008181036104e5575060001961052a565b866000036104f55750600061052a565b610500826064610eda565b670de0b6b3a76400006105138686610eda565b61051d9190610eda565b6105279190610ef1565b90505b600060055482111590506040518060c00160405280858152602001848152602001868152602001838152602001821515815260200142815250600460008d6001600160a01b03166001600160a01b0316815260200190815260200160002060008c81526020019081526020016000206000820151816000015560208201518160010155604082015181600201556060820151816003015560808201518160040160006101000a81548160ff02191690831515021790555060a08201518160050155905050898b6001600160a01b03167f966e6bf90fddaea0695a4dadb7b5aa6057c059cbabbfcedb606fd4b009eb2cb484846040516106359291909182521515602082015260400190565b60405180910390a3801561068857898b6001600160a01b03167fb1f74c90ed655bd3d85dc2e16561beb79164f37655678246c216c33ff90aa6cd8460405161067f91815260200190565b60405180910390a35b5096505050505050505b92915050565b6106a0610c5a565b600280546001600160a01b0319166001600160a01b0392909216919091179055565b6106ca610c5a565b600380546001600160a01b0319166001600160a01b0383169081179091556040517f3df77beb5db05fcdd70a30fc8adf3f83f9501b68579455adbd100b818094039490600090a250565b6001600160a01b03821660009081526004602081815260408084208585528252808420815160c08101835281548152600182015493810193909352600281015491830191909152600381015460608301529182015460ff161515608082015260059091015460a082018190528203610790576000915050610692565b60055460609091015111159392505050565b8281146107e95760405162461bcd60e51b8152602060048201526015602482015274082e4e4c2f240d8cadccee8d040dad2e6dac2e8c6d605b1b6044820152606401610457565b60005b838110156108bc5730630d40851286868481811061080c5761080c610f13565b90506020020160208101906108219190610d18565b85858581811061083357610833610f13565b6040516001600160e01b031960e087901b1681526001600160a01b03909416600485015260200291909101356024830152506044016020604051808303816000875af19250505080156108a3575060408051601f3d908101601f191682019092526108a091810190610eab565b60015b156108aa57505b806108b481610f29565b9150506107ec565b5050505050565b6108fe6040518060c0016040528060008152602001600081526020016000815260200160008152602001600015158152602001600081525090565b506001600160a01b0391909116600090815260046020818152604080842094845293815291839020835160c081018552815481526001820154938101939093526002810154938301939093526003830154606083015282015460ff161515608082015260059091015460a082015290565b610977610c5a565b600380546001600160a01b0319166001600160a01b0392909216919091179055565b6109a1610c5a565b6109ab6000610c87565b565b6001600160a01b03831660009081526004602081815260408084208685528252808420815160c081018352815481526001820154938101939093526002810154918301919091526003810154606083018190529281015460ff16151560808301526005015460a0820152908311610a28576000915050610a8e565b6000670de0b6b3a76400008260400151610a429190610eda565b6020830151610a519086610eda565b610a5c906064610eda565b610a669190610ef1565b9050600082600001518211610a7c576000610a88565b8251610a889083610f42565b93505050505b9392505050565b6001600160a01b03821660009081526004602081815260408084208585528252808420815160c081018352815481526001820154938101939093526002810154918301919091526003810154606083018190529281015460ff16151560808301526005015460a0820152906710a741a46278000011610b18576000915050610692565b670e92596fd6290000816060015110610b35576001915050610692565b60055481606001511115610b4d576002915050610692565b6003915050610692565b610b5f610c5a565b600081118015610b775750670de0b6b3a76400008111155b610bb75760405162461bcd60e51b8152602060048201526011602482015270125b9d985b1a59081d1a1c995cda1bdb19607a1b6044820152606401610457565b60058190556040518181527fadfa8ecb21b6962ebcd0adbd9ab985b7b4c5b5eb3b0dead683171565c7bfe1719060200160405180910390a150565b610bfa610c5a565b600180546001600160a01b0319166001600160a01b0392909216919091179055565b610c24610c5a565b6001600160a01b038116610c4e57604051631e4fbdf760e01b815260006004820152602401610457565b610c5781610c87565b50565b6000546001600160a01b031633146109ab5760405163118cdaa760e01b8152336004820152602401610457565b600080546001600160a01b038381166001600160a01b0319831681178455604051919092169283917f8be0079c531659141344cd1fd0a4f28419497f9722a3daafe3b4186f6b6457e09190a35050565b6001600160a01b0381168114610c5757600080fd5b60008060408385031215610cff57600080fd5b8235610d0a81610cd7565b946020939093013593505050565b600060208284031215610d2a57600080fd5b8135610a8e81610cd7565b60008083601f840112610d4757600080fd5b50813567ffffffffffffffff811115610d5f57600080fd5b6020830191508360208260051b8501011115610d7a57600080fd5b9250929050565b60008060008060408587031215610d9757600080fd5b843567ffffffffffffffff80821115610daf57600080fd5b610dbb88838901610d35565b90965094506020870135915080821115610dd457600080fd5b50610de187828801610d35565b95989497509550505050565b600080600060608486031215610e0257600080fd5b8335610e0d81610cd7565b95602085013595506040909401359392505050565b600060208284031215610e3457600080fd5b5035919050565b600080600080600080600060e0888a031215610e5657600080fd5b8751610e6181610cd7565b809750506020880151955060408801519450606088015193506080880151925060a0880151915060c08801518015158114610e9b57600080fd5b8091505092959891949750929550565b600060208284031215610ebd57600080fd5b5051919050565b634e487b7160e01b600052601160045260246000fd5b808202811582820484141761069257610692610ec4565b600082610f0e57634e487b7160e01b600052601260045260246000fd5b500490565b634e487b7160e01b600052603260045260246000fd5b600060018201610f3b57610f3b610ec4565b5060010190565b8181038181111561069257610692610ec456fea264697066735822122013c70baa5407ad1e6e7c9a9db120f526817838d8875ce1b3c9d4888e1336258364736f6c63430008140033",
  "linkReferences": {},
  "deployedLinkReferences": {}
}