{
  "_format": "hh-sol-artifact-1",
  "contractName": "MockV3Aggregator",
  "sourceName": "contracts/mocks/MockV3Aggregator.sol",
  "abi": [
    {
      "inputs": [
        {
          "internalType": "uint8",
          "name": "_decimals",
          "type": "uint8"
        },
        {
          "internalType": "int256",
          "name": "_initialAnswer",
          "type": "int256"
        }
      ],
      "stateMutability": "nonpayable",
      "type": "constructor"
    },
    {
      "inputs": [],
      "name": "decimals",
      "outputs": [
        {
          "internalType": "uint8",
          "name": "",
          "type": "uint8"
        }
      ],
      "stateMutability": "view",
      "type": "function"
    },
    {
      "inputs": [],
      "name": "description",
      "outputs": [
        {
          "internalType": "string",
          "name": "",
          "type": "string"
        }
      ],
      "stateMutability": "pure",
      "type": "function"
    },
    {
      "inputs": [
        {
          "internalType": "uint256",
          "name": "",
          "type": "uint256"
        }
      ],
      "name": "getAnswer",
      "outputs": [
        {
          "internalType": "int256",
          "name": "",
          "type": "int256"
        }
      ],
      "stateMutability": "view",
      "type": "function"
    },
    {
      "inputs": [
        {
          "internalType": "uint80",
          "name": "_roundId",
          "type": "uint80"
        }
      ],
      "name": "getRoundData",
      "outputs": [
        {
          "internalType": "uint80",
          "name": "roundId",
          "type": "uint80"
        },
        {
          "internalType": "int256",
          "name": "answer",
          "type": "int256"
        },
        {
          "internalType": "uint256",
          "name": "startedAt",
          "type": "uint256"
        },
        {
          "internalType": "uint256",
          "name": "updatedAt",
          "type": "uint256"
        },
        {
          "internalType": "uint80",
          "name": "answeredInRound",
          "type": "uint80"
        }
      ],
      "stateMutability": "view",
      "type": "function"
    },
    {
      "inputs": [
        {
          "internalType": "uint256",
          "name": "",
          "type": "uint256"
        }
      ],
      "name": "getTimestamp",
      "outputs": [
        {
          "internalType": "uint256",
          "name": "",
          "type": "uint256"
        }
      ],
      "stateMutability": "view",
      "type": "function"
    },
    {
      "inputs": [],
      "name": "latestAnswer",
      "outputs": [
        {
          "internalType": "int256",
          "name": "",
          "type": "int256"
        }
      ],
      "stateMutability": "view",
      "type": "function"
    },
    {
      "inputs": [],
      "name": "latestRound",
      "outputs": [
        {
          "internalType": "uint256",
          "name": "",
          "type": "uint256"
        }
      ],
      "stateMutability": "view",
      "type": "function"
    },
    {
      "inputs": [],
      "name": "latestRoundData",
      "outputs": [
        {
          "internalType": "uint80",
          "name": "roundId",
          "type": "uint80"
        },
        {
          "internalType": "int256",
          "name": "answer",
          "type": "int256"
        },
        {
          "internalType": "uint256",
          "name": "startedAt",
          "type": "uint256"
        },
        {
          "internalType": "uint256",
          "name": "updatedAt",
          "type": "uint256"
        },
        {
          "internalType": "uint80",
          "name": "answeredInRound",
          "type": "uint80"
        }
      ],
      "stateMutability": "view",
      "type": "function"
    },
    {
      "inputs": [],
      "name": "latestTimestamp",
      "outputs": [
        {
          "internalType": "uint256",
          "name": "",
          "type": "uint256"
        }
      ],
      "stateMutability": "view",
      "type": "function"
    },
    {
      "inputs": [
        {
          "internalType": "int256",
          "name": "_answer",
          "type": "int256"
        }
      ],
      "name": "updateAnswer",
      "outputs": [],
      "stateMutability": "nonpayable",
      "type": "function"
    },
    {
      "inputs": [
        {
          "internalType": "uint80",
          "name": "_roundId",
          "type": "uint80"
        },
        {
          "internalType": "int256",
          "name": "_answer",
          "type": "int256"
        },
        {
          "internalType": "uint256",
          "name": "_timestamp",
          "type": "uint256"
        },
        {
          "internalType": "uint256",
          "name": "_startedAt",
          "type": "uint256"
        }
      ],
      "name": "updateRoundData",
      "outputs": [],
      "stateMutability": "nonpayable",
      "type": "function"
    }
  ],
  "bytecode": "0x6080346100c35761050590601f38839003908101601f19168201906001600160401b038211838310176100c857808391604095869485528339810103126100c35780519060ff82168092036100c3576020015160009160ff19835416178255806001554260025560035460001981146100af576001018060035582526004602052828220556003548152600560205242828220556003548152600660205281429120555161042690816100df8239f35b634e487b7160e01b83526011600452602483fd5b600080fd5b634e487b7160e01b600052604160045260246000fdfe60806040908082526004908136101561001757600080fd5b600091823560e01c918263313ce567146103b5575081634aa2011f1461034d57816350d25bcd1461032e578163668a0f021461030f5781637284e4161461025a5781638205bf6a146102375781639a6fc8f5146101c3578163a87a20ce14610154578163b5ab58dc1461012c578163b633620c146100ff575063feaf968c1461009f57600080fd5b346100fc57806003193601126100fc57600354600154818352600660209081529284902054600254945169ffffffffffffffffffff9093168084529383019190915260408201526060810192909252608082015260a090f35b0390f35b80fd5b839150346101285760203660031901126101285760209282913581526005845220549051908152f35b8280fd5b8391503461012857602036600319011261012857602092818392358252845220549051908152f35b8391503461012857602036600319011261012857803590816001554260025560035460001981146101b0576001018060035584526020528183205560035482526005602052428183205560035482526006602052429082205580f35b634e487b7160e01b855260118252602485fd5b83915034610128576020366003190112610128576100f8906101e36103d2565b69ffffffffffffffffffff16808552602091825283852054600683528486205460058452958590205494518281529283015260408201949094526060810192909252608082019290925290819060a0820190565b8284346102565781600319360112610256576020906002549051908152f35b5080fd5b839150346101285782600319360112610128578151908282019082821067ffffffffffffffff8311176102fc57508252601f81526020907f76302e382f74657374732f4d6f636b563341676772656761746f722e736f6c008282015282519382859384528251928382860152825b8481106102e657505050828201840152601f01601f19168101030190f35b81810183015188820188015287955082016102c8565b634e487b7160e01b855260419052602484fd5b8284346102565781600319360112610256576020906003549051908152f35b8284346102565781600319360112610256576020906001549051908152f35b83915034610128576080366003190112610128576103696103d2565b906024359069ffffffffffffffffffff60443593168060035582600155836002558552602052828420556003548352600560205281832055600354825260066020526064359082205580f35b83903461025657816003193601126102565760ff60209254168152f35b6004359069ffffffffffffffffffff821682036103eb57565b600080fdfea2646970667358221220ac255406149ac859ead8749a22c0c5f04fe88538fa150558ac90265bef31a9e264736f6c63430008140033",
  "linkReferences": {},
  "deployedLinkReferences": {}
}