{
  "_format": "hh-sol-artifact-1",
  "contractName": "ScoreOracleMultiWallet",
  "sourceName": "contracts/ScoreOracleMultiWallet.sol",
  "abi": [
    {
      "inputs": [
        {
          "internalType": "address payable",
          "name": "_registry",
          "type": "address"
        },
        {
          "internalType": "address",
          "name": "_userRegistry",
          "type": "address"
        }
      ],
      "stateMutability": "nonpayable",
      "type": "constructor"
    },
    {
      "inputs": [
        {
          "internalType": "address",
          "name": "owner",
          "type": "address"
        }
      ],
      "name": "OwnableInvalidOwner",
      "type": "error"
    },
    {
      "inputs": [
        {
          "internalType": "address",
          "name": "account",
          "type": "address"
        }
      ],
      "name": "OwnableUnauthorizedAccount",
      "type": "error"
    },
    {
      "anonymous": false,
      "inputs": [
        {
          "indexed": true,
          "internalType": "address",
          "name": "previousOwner",
          "type": "address"
        },
        {
          "indexed": true,
          "internalType": "address",
          "name": "newOwner",
          "type": "address"
        }
      ],
      "name": "OwnershipTransferred",
      "type": "event"
    },
    {
      "anonymous": false,
      "inputs": [
        {
          "indexed": true,
          "internalType": "address",
          "name": "oldRegistry",
          "type": "address"
        },
        {
          "indexed": true,
          "internalType": "address",
          "name": "newRegistry",
          "type": "address"
        }
      ],
      "name": "UserRegistryUpdated",
      "type": "event"
    },
    {
      "inputs": [],
      "name": "TIER_GOLD",
      "outputs": [
        {
          "internalType": "uint16",
          "name": "",
          "type": "uint16"
        }
      ],
      "stateMutability": "view",
      "type": "function"
    },
    {
      "inputs": [],
      "name": "TIER_PLATINUM",
      "outputs": [
        {
          "internalType": "uint16",
          "name": "",
          "type": "uint16"
        }
      ],
      "stateMutability": "view",
      "type": "function"
    },
    {
      "inputs": [],
      "name": "TIER_SILVER",
      "outputs": [
        {
          "internalType": "uint16",
          "name": "",
          "type": "uint16"
        }
      ],
      "stateMutability": "view",
      "type": "function"
    },
    {
      "inputs": [
        {
          "internalType": "address",
          "name": "wallet",
          "type": "address"
        }
      ],
      "name": "computeScore",
      "outputs": [
        {
          "components": [
            {
              "internalType": "uint16",
              "name": "overall",
              "type": "uint16"
            },
            {
              "internalType": "uint8",
              "name": "s1_repayment",
              "type": "uint8"
            },
            {
              "internalType": "uint8",
              "name": "s2_collateral",
              "type": "uint8"
            },
            {
              "internalType": "uint8",
              "name": "s3_sybil",
              "type": "uint8"
            },
            {
              "internalType": "uint8",
              "name": "s4_crossChain",
              "type": "uint8"
            },
            {
              "internalType": "uint8",
              "name": "s5_governance",
              "type": "uint8"
            },
            {
              "internalType": "int16",
              "name": "s3_raw",
              "type": "int16"
            },
            {
              "internalType": "bool",
              "name": "isAggregate",
              "type": "bool"
            },
            {
              "internalType": "uint8",
              "name": "walletCount",
              "type": "uint8"
            }
          ],
          "internalType": "struct ScoreOracleMultiWallet.ScoreBreakdown",
          "name": "",
          "type": "tuple"
        }
      ],
      "stateMutability": "view",
      "type": "function"
    },
    {
      "inputs": [
        {
          "internalType": "uint16",
          "name": "overall",
          "type": "uint16"
        }
      ],
      "name": "getAPR",
      "outputs": [
        {
          "internalType": "uint16",
          "name": "aprBps",
          "type": "uint16"
        }
      ],
      "stateMutability": "pure",
      "type": "function"
    },
    {
      "inputs": [
        {
          "internalType": "uint16",
          "name": "overall",
          "type": "uint16"
        }
      ],
      "name": "getScoreTier",
      "outputs": [
        {
          "internalType": "enum ScoreOracleMultiWallet.ScoreTier",
          "name": "",
          "type": "uint8"
        }
      ],
      "stateMutability": "pure",
      "type": "function"
    },
    {
      "inputs": [
        {
          "internalType": "uint64",
          "name": "",
          "type": "uint64"
        }
      ],
      "name": "isSupportedChain",
      "outputs": [
        {
          "internalType": "bool",
          "name": "",
          "type": "bool"
        }
      ],
      "stateMutability": "view",
      "type": "function"
    },
    {
      "inputs": [],
      "name": "owner",
      "outputs": [
        {
          "internalType": "address",
          "name": "",
          "type": "address"
        }
      ],
      "stateMutability": "view",
      "type": "function"
    },
    {
      "inputs": [],
      "name": "registry",
      "outputs": [
        {
          "internalType": "contract CreditRegistryV3",
          "name": "",
          "type": "address"
        }
      ],
      "stateMutability": "view",
      "type": "function"
    },
    {
      "inputs": [],
      "name": "renounceOwnership",
      "outputs": [],
      "stateMutability": "nonpayable",
      "type": "function"
    },
    {
      "inputs": [
        {
          "internalType": "address",
          "name": "_userRegistry",
          "type": "address"
        }
      ],
      "name": "setUserRegistry",
      "outputs": [],
      "stateMutability": "nonpayable",
      "type": "function"
    },
    {
      "inputs": [
        {
          "internalType": "uint256",
          "name": "",
          "type": "uint256"
        }
      ],
      "name": "supportedChainSelectors",
      "outputs": [
        {
          "internalType": "uint64",
          "name": "",
          "type": "uint64"
        }
      ],
      "stateMutability": "view",
      "type": "function"
    },
    {
      "inputs": [
        {
          "internalType": "address",
          "name": "newOwner",
          "type": "address"
        }
      ],
      "name": "transferOwnership",
      "outputs": [],
      "stateMutability": "nonpayable",
      "type": "function"
    },
    {
      "inputs": [],
      "name": "userRegistry",
      "outputs": [
        {
          "internalType": "contract UserRegistry",
          "name": "",
          "type": "address"
        }
      ],
      "stateMutability": "view",
      "type": "function"
    }
  ],
  "bytecode": "0x6080346200026c576001600160401b03906200199b90601f38839003908101601f1916820190848211838310176200027157808391604095869485528339810103126200026c5780516001600160a01b03808216918290036200026c576020809301518181168091036200026c573315620002545760008054336001600160a01b03198083168217845592949091167f8be0079c531659141344cd1fd0a4f28419497f9722a3daafe3b4186f6b6457e08580a360019381855416178455600254161760025560039485549368010000000000000000948581101562000240578481018089558110156200022c578784528184208160021c0160c081549260061b1667304611b6affba76a928584831b921b191617905583526004918282528684209560ff199686888254161790558854818110156200021957868101808b5581101562000206578986528386208160021c0160c081549260061b166748810ec3e431431f928584831b921b191617905585528383528785208688825416179055885490811015620001f357858101808a55811015620001e05787988598969798528285208160021c019060c082549160061b1690678f90b8876dee65389384831b921b19161790558352522091825416179055516117139081620002888239f35b634e487b7160e01b855260328452602485fd5b634e487b7160e01b855260418452602485fd5b634e487b7160e01b865260328552602486fd5b634e487b7160e01b865260418552602486fd5b634e487b7160e01b84526032600452602484fd5b634e487b7160e01b84526041600452602484fd5b8451631e4fbdf760e01b815260006004820152602490fd5b600080fd5b634e487b7160e01b600052604160045260246000fdfe6080604081815260048036101561001557600080fd5b600092833560e01c9081635c7460d61461046e57508063715018a6146104145780637b103999146103eb5780638926f54f146103a95780638da5cb5b14610381578063962b74f71461033f5780639a46e412146103235780639c0c87b5146102d3578063b0d5451b14610262578063c5d46dfc146101c2578063d86b56f7146101a6578063e3d3f84314610186578063f2fde38b146100f85763fb4ceaa3146100bd57600080fd5b346100f45760203660031901126100f457359161ffff9081841684036100f157506100e9602093611685565b915191168152f35b80fd5b8280fd5b5090346100f45760203660031901126100f4576001600160a01b038235818116939192908490036101825761012b6104e9565b831561016c57505082546001600160a01b0319811683178455167f8be0079c531659141344cd1fd0a4f28419497f9722a3daafe3b4186f6b6457e08380a380f35b51631e4fbdf760e01b8152908101849052602490fd5b8480fd5b5050346101a257816003193601126101a25760209051604b8152f35b5080fd5b5050346101a257816003193601126101a25760209051605a8152f35b50346100f45760203660031901126100f45735916001600160a01b03831683036100f157506101f361012092610676565b81519161ffff825116835260ff90816020840151166020850152818184015116908401528060608301511660608401528060808301511660808401528060a08301511660a084015260c082015160010b60c084015260e0820151151560e0840152610100809201511690820152f35b8382346101a25760203660031901126101a257356001600160a01b03818116918290036100f4576102916104e9565b600254826bffffffffffffffffffffffff60a01b821617600255167fbcae71b01af1bc1e942f7862d443fd4b3bf302dbb324e957ce1ffdffa650cfaa8380a380f35b509190346101a25760203660031901126101a257823561ffff811681036100f4576102fd90611651565b9051918382101561031057602083838152f35b634e487b7160e01b815260218452602490fd5b5050346101a257816003193601126101a25760209051603c8152f35b50346100f45760203660031901126100f45735916003548310156100f1575067ffffffffffffffff610372602093610493565b90549060031b1c169051908152f35b5050346101a257816003193601126101a257905490516001600160a01b039091168152602090f35b50346100f45760203660031901126100f457803567ffffffffffffffff81168091036103e7578360ff92849260209652855220541690519015158152f35b8380fd5b5050346101a257816003193601126101a25760015490516001600160a01b039091168152602090f35b83346100f157806003193601126100f15761042d6104e9565b80546001600160a01b03198116825581906001600160a01b03167f8be0079c531659141344cd1fd0a4f28419497f9722a3daafe3b4186f6b6457e08280a380f35b8490346101a257816003193601126101a2576002546001600160a01b03168152602090f35b906003548210156104d357600360005260188260021c7fc2575a0e9e593c00f959f8c92f12db2869c3395a3b0502d05e2516446f71f85b019260031b1690565b634e487b7160e01b600052603260045260246000fd5b6000546001600160a01b031633036104fd57565b60405163118cdaa760e01b8152336004820152602490fd5b610120810190811067ffffffffffffffff82111761053257604052565b634e487b7160e01b600052604160045260246000fd5b6080810190811067ffffffffffffffff82111761053257604052565b90601f8019910116810190811067ffffffffffffffff82111761053257604052565b6040519061059382610515565b816101006000918281528260208201528260408201528260608201528260808201528260a08201528260c08201528260e08201520152565b51906001600160a01b03821682036105df57565b600080fd5b9080601f830112156105df5781519067ffffffffffffffff8211610532578160051b6040519360209361061985840187610564565b855283808601928201019283116105df578301905b82821061063c575050505090565b838091610648846105cb565b81520191019061062e565b9190820180921161066057565b634e487b7160e01b600052601160045260246000fd5b61067e610586565b5060025460405163ea56639d60e01b81526001600160a01b038381166004830152909116926024926020929083828681895afa9182156109c7576000926109e2575b5081156109d357506000908460405180978193632e58246f60e21b835260048301525afa9081156109c7576000948592610976575b5081516001018060011161093a5760ff1694600186146109645760ff93849384936107298594610723610586565b50610a79565b9a93999297919890991696169660010b97169716986000995b83518b10156107c65760058b901b8401850151610767906001600160a01b0316610a79565b9c9360ff909c939c9b929a919b1661077e91610653565b9a60ff1661078b91610653565b9760010b61079891610a2e565b9760ff166107a591610653565b9860ff166107b291610653565b996107bc90610a4a565b9996949596610742565b9460ff80939b508299959a979894506107e3836107ea9493610a59565b1697610a59565b1690861561094f57600160ff1b811460001988141661093a5786900560010b9460ff61082b88826108248261081e8c611446565b98610a59565b1696610a59565b16946028820282810460281483151715610925576014840290848204601414851517156109105760ff9161085e91610653565b941693601485029085820460141486151715610910579061087e91610653565b600a860290868204600a1487151715610910579061089b91610653565b600a870291878304600a14881517156108fc57506108be61ffff92606492610653565b041697604051986108ce8a610515565b895288015260408701526060860152608085015260a084015260c0830152600160e083015261010082015290565b634e487b7160e01b60009081526011600452fd5b82634e487b7160e01b60005260116004526000fd5b50634e487b7160e01b60009081526011600452fd5b84634e487b7160e01b60005260116004526000fd5b84634e487b7160e01b60005260126004526000fd5b92509350506109739150610f21565b90565b949091503d8082873e6109898187610564565b8501906040868303126100f15761099f866105cb565b95848101519167ffffffffffffffff83116100f157506109c09291016105e4565b90386106f5565b6040513d6000823e3d90fd5b92505092506109739150610f21565b90918482813d8311610a0a575b6109f98183610564565b810103126100f157505190386106c0565b503d6109ef565b906032820191600060328412911290801582169115161761066057565b9190916000838201938412911290801582169115161761066057565b60001981146106605760010190565b8115610a63570490565b634e487b7160e01b600052601260045260246000fd5b610a828161113e565b91610a8c82611212565b9260018060a01b0391600193838554166040948551906326d9995d60e11b825283169560049087828401526101a060249381818681895afa918215610f1657600092610ee9575b5050600061010082015183602082015115159182610edc575b505015610ed25760968101906000609683129112908015821691151617610de457905b60e081015180610e49575090610b2490611112565b905b61012081015151683635c9adc5dea000008110610df8575090604b8101906000604b83129112908015821691151617610de457905b51600a8110610d7c5750610b79610b73608092610a11565b96611486565b98848351809781936302a5ef7960e21b8352878301525afa938415610d7157600094610d14575b5083516000908a9060148110610cd257505060288101809111610c89575b60208501518a9060058110610c9d575050601e8101809111610c8957935b01610be8815142611439565b9051610c11575b5050506064811115610c0857506064925b95940b929190565b60ff1692610c00565b62278d00811015610c465750601e8301809311610c335750505b388080610bef565b601190634e487b7160e01b600052526000fd5b6276a700811015610c64575060148301809311610c33575050610c2b565b62ed4e0011610c75575b5050610c2b565b600a8301809311610c335750503880610c6e565b83601184634e487b7160e01b600052526000fd5b60038110610cb857505060148101809111610c895793610bdc565b95919510610bdc5793600a8101809111610c895793610bdc565b600a8110610ced575050601e8101809111610c89575b610bbe565b60058110610d0757505060148101809111610c8957610bbe565b10610ce85750600a610bbe565b90936080823d8211610d69575b81610d2e60809383610564565b810103126100f157506060845191610d4583610548565b80518352602081015160208401528581015186840152015160608201529238610ba0565b3d9150610d21565b50513d6000823e3d90fd5b60058110610dab5750601e8101906000601e83129112908015821691151617610c8957610b7960809196611486565b6003909691961015610dc3575b610b79608091611486565b94600f8101906000600f83129112908015821691151617610c895794610db8565b84601185634e487b7160e01b600052526000fd5b681b1ae4d6e2ef5000008110610e19575090610e1390610a11565b90610b5b565b68056bc75e2d6310000011610b5b579060198101906000601983129112908015821691151617610de45790610b5b565b610e539042611439565b62278d00811015610e70575090610e6990611112565b905b610b26565b6276a700811015610e9157509060c71981019081138b16610de45790610b26565b62ed4e00811015610eb257509060631981019081138b16610de45790610b26565b6301e133801115610e6b579060311981019081138b16610de45790610b26565b5060951990610b0f565b0151421090508338610aec565b610f089250803d10610f0f575b610f008183610564565b810190611021565b3880610ad3565b503d610ef6565b83513d6000823e3d90fd5b610f2d90610723610586565b91929360ff610f3b85611446565b9116946028860290868204602814871517156106605760ff16906014820290828204601414831517156106605760ff91610f7491610653565b9216916014830290838204601414841517156106605760ff91610f9691610653565b931692600a840290848204600a14851517156106605760ff91610fb891610653565b941693600a8502858104600a148615171561066057610fdc60649161ffff93610653565b04169560405196610fec88610515565b8752602087015260408601526060850152608084015260a083015260010b60c0820152600060e0820152600161010082015290565b8091036101a081126105df57604091825192610140918285019367ffffffffffffffff948681108682111761053257835281518652602082015160208701528282015183870152606082015160608701526080820151608087015260a082015160a087015260c082015160c087015260e082015160e0870152606060ff198201126105df578251906060820191808310878411176105325784928352610100808501518252610120968786015160208401528501518483015288015261015f1901126105df578151938483019081118582101761053257610180925261016081015184520151602083015282015290565b9061012b19820191821360011661066057565b8181039291600013801582851316918412161761066057565b6001546040516326d9995d60e11b81526001600160a01b0392831660048201526101a0929091839183916024918391165afa9182156109c7576000926111f5575b50508051156111ef576020810151606481029080820460641490151715610660576111ae604091835190610a59565b910151601481029080820460141490151715610660576111cd91611125565b600081126111e957606481136111e35760ff1690565b50606490565b50600090565b50603290565b61120b9250803d10610f0f57610f008183610564565b388061117f565b6001546040516326d9995d60e11b81526001600160a01b039283166004820181905291909216916101a0908181602481875afa9182156109c75760009261141c575b50508051158015611410575b61140857608081015192606493848102908082048614901517156106605760a083015161128c91610a59565b600090859060c881106113ce57509050915b60c081015185810290808204871490151715610660576112bf915190610a59565b600090604b8111156113b257505060006028935b602460405180948193632dd91bb760e11b835260048301525afa9081156109c757600091611365575b50516113289291611323916000906003811061134a57505060ff8060145b16931690611125565b610a2e565b600081126113435781811361133f5760ff91501690565b5090565b5050600090565b60021161135c575060ff80600a61131a565b60ff809161131a565b903d8082843e6113758184610564565b8201916020818403126101a25780519167ffffffffffffffff83116100f15750611323926113289594926113a992016105e4565b915091926112fc565b603210156113c65750600060145b936112d3565b6000906113c0565b609681106113e157505050604b9161129e565b607881106113f45750505060329161129e565b10611402575060199161129e565b9161129e565b505050603290565b5060a081015115611260565b6114329250803d10610f0f57610f008183610564565b3880611254565b9190820391821161066057565b60010b6101c2810190811260011661066057606481029080820560641490151715610660576102e99005600081126111e957606481136111e35760ff1690565b60038054600154600093849392916001600160a01b039190821690855b84811061155c5750505050508115611554576114c2826114ec94610a59565b600090604b811061151c5750506064915b600091811061150157505060ff8060145b169116610653565b60648111156114fb5750606490565b60ff1690565b600211611513575060ff80600a6114e4565b60ff80916114e4565b603c811061152f575050604b5b916114d3565b602d81106115405750506032611529565b601e1161154f57506019611529565b611529565b505050600090565b67ffffffffffffffff61156e82610493565b905490881b1c166040908151906340c7e39d60e01b8252868516600483015260248201526080918282604481895afa928315610d71576000936115ed575b50505060608101516115c8575b506115c390610a4a565b6114a3565b966115c3919861ffff6115dd6115e693610a4a565b99511690610653565b97906115b9565b82813d831161164a575b6116018183610564565b810103126100f45780519261161584610548565b82519061ffff821682036100f157508352602080830151908401528082015190830152606080910151908201523880806115ac565b503d6115f7565b61ffff16605a81101561167f57604b81101561167957603c111561167457600090565b600190565b50600290565b50600390565b61ffff16605a8110156116d657604b8110156116cf57603c8110156116c857602d8110156116c157601e11156116bb576105dc90565b6104b090565b506103e890565b5061032090565b5061025890565b506101909056fea2646970667358221220763896427ec2a76964448d77d09bbf5e3d2a855757d124709a7cf1e0946b782a64736f6c63430008140033",
  "linkReferences": {},
  "deployedLinkReferences": {}
}