{
  "_format": "hh-sol-artifact-1",
  "contractName": "CreditRegistryV1_1",
  "sourceName": "contracts/CreditRegistryV1_1.sol",
  "abi": [
    {
      "inputs": [
        {
          "internalType": "address",
          "name": "_treasury",
          "type": "address"
        }
      ],
      "stateMutability": "nonpayable",
      "type": "constructor"
    },
    {
      "inputs": [],
      "name": "AlreadyChallenged",
      "type": "error"
    },
    {
      "inputs": [],
      "name": "AlreadyResolved",
      "type": "error"
    },
    {
      "inputs": [],
      "name": "AttestationPending",
      "type": "error"
    },
    {
      "inputs": [],
      "name": "ChallengeNotFound",
      "type": "error"
    },
    {
      "inputs": [],
      "name": "ChallengePeriodNotExpired",
      "type": "error"
    },
    {
      "inputs": [],
      "name": "InsufficientBond",
      "type": "error"
    },
    {
      "inputs": [],
      "name": "InvalidLTV",
      "type": "error"
    },
    {
      "inputs": [],
      "name": "InvalidMerkleProof",
      "type": "error"
    },
    {
      "inputs": [],
      "name": "InvalidScore",
      "type": "error"
    },
    {
      "inputs": [],
      "name": "InvalidTier",
      "type": "error"
    },
    {
      "inputs": [],
      "name": "NoPendingAttestation",
      "type": "error"
    },
    {
      "inputs": [
        {
          "internalType": "address",
          "name": "owner",
          "type": "address"
        }
      ],
      "name": "OwnableInvalidOwner",
      "type": "error"
    },
    {
      "inputs": [
        {
          "internalType": "address",
          "name": "account",
          "type": "address"
        }
      ],
      "name": "OwnableUnauthorizedAccount",
      "type": "error"
    },
    {
      "inputs": [],
      "name": "ReentrancyGuardReentrantCall",
      "type": "error"
    },
    {
      "inputs": [],
      "name": "UnauthorizedAttester",
      "type": "error"
    },
    {
      "anonymous": false,
      "inputs": [
        {
          "indexed": true,
          "internalType": "address",
          "name": "attester",
          "type": "address"
        },
        {
          "indexed": false,
          "internalType": "bool",
          "name": "authorized",
          "type": "bool"
        }
      ],
      "name": "AttesterAuthorized",
      "type": "event"
    },
    {
      "anonymous": false,
      "inputs": [
        {
          "indexed": false,
          "internalType": "uint256",
          "name": "newBond",
          "type": "uint256"
        }
      ],
      "name": "ChallengeBondUpdated",
      "type": "event"
    },
    {
      "anonymous": false,
      "inputs": [
        {
          "indexed": false,
          "internalType": "uint256",
          "name": "newPeriod",
          "type": "uint256"
        }
      ],
      "name": "ChallengePeriodUpdated",
      "type": "event"
    },
    {
      "anonymous": false,
      "inputs": [
        {
          "indexed": true,
          "internalType": "address",
          "name": "user",
          "type": "address"
        },
        {
          "indexed": true,
          "internalType": "address",
          "name": "challenger",
          "type": "address"
        },
        {
          "indexed": false,
          "internalType": "bool",
          "name": "successful",
          "type": "bool"
        },
        {
          "indexed": false,
          "internalType": "uint256",
          "name": "reward",
          "type": "uint256"
        }
      ],
      "name": "ChallengeResolved",
      "type": "event"
    },
    {
      "anonymous": false,
      "inputs": [
        {
          "indexed": true,
          "internalType": "address",
          "name": "previousOwner",
          "type": "address"
        },
        {
          "indexed": true,
          "internalType": "address",
          "name": "newOwner",
          "type": "address"
        }
      ],
      "name": "OwnershipTransferred",
      "type": "event"
    },
    {
      "anonymous": false,
      "inputs": [
        {
          "indexed": true,
          "internalType": "address",
          "name": "user",
          "type": "address"
        },
        {
          "indexed": false,
          "internalType": "uint16",
          "name": "score",
          "type": "uint16"
        },
        {
          "indexed": false,
          "internalType": "uint8",
          "name": "tier",
          "type": "uint8"
        },
        {
          "indexed": false,
          "internalType": "bytes32",
          "name": "merkleRoot",
          "type": "bytes32"
        },
        {
          "indexed": true,
          "internalType": "address",
          "name": "attester",
          "type": "address"
        },
        {
          "indexed": false,
          "internalType": "uint64",
          "name": "challengeDeadline",
          "type": "uint64"
        }
      ],
      "name": "ScoreAttested",
      "type": "event"
    },
    {
      "anonymous": false,
      "inputs": [
        {
          "indexed": true,
          "internalType": "address",
          "name": "user",
          "type": "address"
        },
        {
          "indexed": true,
          "internalType": "address",
          "name": "challenger",
          "type": "address"
        },
        {
          "indexed": false,
          "internalType": "uint256",
          "name": "bond",
          "type": "uint256"
        },
        {
          "indexed": false,
          "internalType": "uint8",
          "name": "reason",
          "type": "uint8"
        }
      ],
      "name": "ScoreChallenged",
      "type": "event"
    },
    {
      "anonymous": false,
      "inputs": [
        {
          "indexed": true,
          "internalType": "address",
          "name": "user",
          "type": "address"
        },
        {
          "indexed": false,
          "internalType": "uint16",
          "name": "score",
          "type": "uint16"
        },
        {
          "indexed": false,
          "internalType": "uint8",
          "name": "tier",
          "type": "uint8"
        },
        {
          "indexed": false,
          "internalType": "uint8",
          "name": "ltv",
          "type": "uint8"
        }
      ],
      "name": "ScoreFinalized",
      "type": "event"
    },
    {
      "inputs": [
        {
          "internalType": "address",
          "name": "user",
          "type": "address"
        },
        {
          "internalType": "uint16",
          "name": "score",
          "type": "uint16"
        },
        {
          "internalType": "uint8",
          "name": "tier",
          "type": "uint8"
        },
        {
          "internalType": "uint8",
          "name": "ltv",
          "type": "uint8"
        },
        {
          "internalType": "uint16",
          "name": "interestRateMultiplier",
          "type": "uint16"
        },
        {
          "internalType": "uint8",
          "name": "dataQuality",
          "type": "uint8"
        },
        {
          "internalType": "bytes32",
          "name": "merkleRoot",
          "type": "bytes32"
        }
      ],
      "name": "attestScore",
      "outputs": [],
      "stateMutability": "nonpayable",
      "type": "function"
    },
    {
      "inputs": [
        {
          "internalType": "address",
          "name": "",
          "type": "address"
        }
      ],
      "name": "authorizedAttesters",
      "outputs": [
        {
          "internalType": "bool",
          "name": "",
          "type": "bool"
        }
      ],
      "stateMutability": "view",
      "type": "function"
    },
    {
      "inputs": [],
      "name": "challengeBond",
      "outputs": [
        {
          "internalType": "uint256",
          "name": "",
          "type": "uint256"
        }
      ],
      "stateMutability": "view",
      "type": "function"
    },
    {
      "inputs": [],
      "name": "challengePeriod",
      "outputs": [
        {
          "internalType": "uint256",
          "name": "",
          "type": "uint256"
        }
      ],
      "stateMutability": "view",
      "type": "function"
    },
    {
      "inputs": [],
      "name": "challengeRewardBps",
      "outputs": [
        {
          "internalType": "uint256",
          "name": "",
          "type": "uint256"
        }
      ],
      "stateMutability": "view",
      "type": "function"
    },
    {
      "inputs": [
        {
          "internalType": "address",
          "name": "user",
          "type": "address"
        },
        {
          "internalType": "uint8",
          "name": "reason",
          "type": "uint8"
        }
      ],
      "name": "challengeScore",
      "outputs": [],
      "stateMutability": "payable",
      "type": "function"
    },
    {
      "inputs": [
        {
          "internalType": "address",
          "name": "",
          "type": "address"
        }
      ],
      "name": "challenges",
      "outputs": [
        {
          "internalType": "address",
          "name": "challenger",
          "type": "address"
        },
        {
          "internalType": "uint256",
          "name": "bond",
          "type": "uint256"
        },
        {
          "internalType": "uint8",
          "name": "reason",
          "type": "uint8"
        },
        {
          "internalType": "bool",
          "name": "resolved",
          "type": "bool"
        },
        {
          "internalType": "bool",
          "name": "successful",
          "type": "bool"
        }
      ],
      "stateMutability": "view",
      "type": "function"
    },
    {
      "inputs": [],
      "name": "emergencyWithdraw",
      "outputs": [],
      "stateMutability": "nonpayable",
      "type": "function"
    },
    {
      "inputs": [
        {
          "internalType": "address",
          "name": "user",
          "type": "address"
        },
        {
          "internalType": "uint16",
          "name": "score",
          "type": "uint16"
        },
        {
          "internalType": "uint8",
          "name": "tier",
          "type": "uint8"
        },
        {
          "internalType": "uint8",
          "name": "ltv",
          "type": "uint8"
        },
        {
          "internalType": "uint16",
          "name": "interestRateMultiplier",
          "type": "uint16"
        },
        {
          "internalType": "uint8",
          "name": "dataQuality",
          "type": "uint8"
        }
      ],
      "name": "finalizeScore",
      "outputs": [],
      "stateMutability": "nonpayable",
      "type": "function"
    },
    {
      "inputs": [
        {
          "internalType": "address",
          "name": "user",
          "type": "address"
        }
      ],
      "name": "getScore",
      "outputs": [
        {
          "components": [
            {
              "internalType": "uint16",
              "name": "score",
              "type": "uint16"
            },
            {
              "internalType": "uint8",
              "name": "tier",
              "type": "uint8"
            },
            {
              "internalType": "uint8",
              "name": "ltv",
              "type": "uint8"
            },
            {
              "internalType": "uint16",
              "name": "interestRateMultiplier",
              "type": "uint16"
            },
            {
              "internalType": "uint64",
              "name": "lastUpdated",
              "type": "uint64"
            },
            {
              "internalType": "uint8",
              "name": "dataQuality",
              "type": "uint8"
            }
          ],
          "internalType": "struct CreditRegistryV1_1.CreditScore",
          "name": "",
          "type": "tuple"
        }
      ],
      "stateMutability": "view",
      "type": "function"
    },
    {
      "inputs": [
        {
          "internalType": "address",
          "name": "user",
          "type": "address"
        },
        {
          "internalType": "uint256",
          "name": "maxAge",
          "type": "uint256"
        }
      ],
      "name": "hasValidScore",
      "outputs": [
        {
          "internalType": "bool",
          "name": "",
          "type": "bool"
        }
      ],
      "stateMutability": "view",
      "type": "function"
    },
    {
      "inputs": [],
      "name": "owner",
      "outputs": [
        {
          "internalType": "address",
          "name": "",
          "type": "address"
        }
      ],
      "stateMutability": "view",
      "type": "function"
    },
    {
      "inputs": [
        {
          "internalType": "address",
          "name": "",
          "type": "address"
        }
      ],
      "name": "pendingAttestations",
      "outputs": [
        {
          "internalType": "bytes32",
          "name": "scoreHash",
          "type": "bytes32"
        },
        {
          "internalType": "bytes32",
          "name": "merkleRoot",
          "type": "bytes32"
        },
        {
          "internalType": "address",
          "name": "attester",
          "type": "address"
        },
        {
          "internalType": "uint64",
          "name": "timestamp",
          "type": "uint64"
        },
        {
          "internalType": "uint64",
          "name": "challengeDeadline",
          "type": "uint64"
        },
        {
          "internalType": "bool",
          "name": "challenged",
          "type": "bool"
        },
        {
          "internalType": "bool",
          "name": "finalized",
          "type": "bool"
        }
      ],
      "stateMutability": "view",
      "type": "function"
    },
    {
      "inputs": [],
      "name": "renounceOwnership",
      "outputs": [],
      "stateMutability": "nonpayable",
      "type": "function"
    },
    {
      "inputs": [
        {
          "internalType": "address",
          "name": "user",
          "type": "address"
        },
        {
          "internalType": "uint16",
          "name": "score",
          "type": "uint16"
        },
        {
          "internalType": "uint8",
          "name": "tier",
          "type": "uint8"
        },
        {
          "internalType": "uint8",
          "name": "ltv",
          "type": "uint8"
        },
        {
          "internalType": "uint16",
          "name": "interestRateMultiplier",
          "type": "uint16"
        },
        {
          "internalType": "uint8",
          "name": "dataQuality",
          "type": "uint8"
        },
        {
          "internalType": "bytes32[]",
          "name": "proof",
          "type": "bytes32[]"
        }
      ],
      "name": "resolveChallenge",
      "outputs": [],
      "stateMutability": "nonpayable",
      "type": "function"
    },
    {
      "inputs": [
        {
          "internalType": "address",
          "name": "",
          "type": "address"
        }
      ],
      "name": "scores",
      "outputs": [
        {
          "internalType": "uint16",
          "name": "score",
          "type": "uint16"
        },
        {
          "internalType": "uint8",
          "name": "tier",
          "type": "uint8"
        },
        {
          "internalType": "uint8",
          "name": "ltv",
          "type": "uint8"
        },
        {
          "internalType": "uint16",
          "name": "interestRateMultiplier",
          "type": "uint16"
        },
        {
          "internalType": "uint64",
          "name": "lastUpdated",
          "type": "uint64"
        },
        {
          "internalType": "uint8",
          "name": "dataQuality",
          "type": "uint8"
        }
      ],
      "stateMutability": "view",
      "type": "function"
    },
    {
      "inputs": [
        {
          "internalType": "address",
          "name": "attester",
          "type": "address"
        },
        {
          "internalType": "bool",
          "name": "authorized",
          "type": "bool"
        }
      ],
      "name": "setAuthorizedAttester",
      "outputs": [],
      "stateMutability": "nonpayable",
      "type": "function"
    },
    {
      "inputs": [
        {
          "internalType": "uint256",
          "name": "newBond",
          "type": "uint256"
        }
      ],
      "name": "setChallengeBond",
      "outputs": [],
      "stateMutability": "nonpayable",
      "type": "function"
    },
    {
      "inputs": [
        {
          "internalType": "uint256",
          "name": "newPeriod",
          "type": "uint256"
        }
      ],
      "name": "setChallengePeriod",
      "outputs": [],
      "stateMutability": "nonpayable",
      "type": "function"
    },
    {
      "inputs": [
        {
          "internalType": "address",
          "name": "newTreasury",
          "type": "address"
        }
      ],
      "name": "setTreasury",
      "outputs": [],
      "stateMutability": "nonpayable",
      "type": "function"
    },
    {
      "inputs": [
        {
          "internalType": "address",
          "name": "newOwner",
          "type": "address"
        }
      ],
      "name": "transferOwnership",
      "outputs": [],
      "stateMutability": "nonpayable",
      "type": "function"
    },
    {
      "inputs": [],
      "name": "treasury",
      "outputs": [
        {
          "internalType": "address",
          "name": "",
          "type": "address"
        }
      ],
      "stateMutability": "view",
      "type": "function"
    },
    {
      "stateMutability": "payable",
      "type": "receive"
    }
  ],
  "bytecode": "0x6080604052610e10600655631dcd65006007556113886008553480156200002557600080fd5b5060405162001d8438038062001d8483398101604081905262000048916200018e565b33806200007057604051631e4fbdf760e01b8152600060048201526024015b60405180910390fd5b6200007b816200013e565b50600180556001600160a01b038116620000cb5760405162461bcd60e51b815260206004820152601060248201526f496e76616c696420747265617375727960801b604482015260640162000067565b600980546001600160a01b0319166001600160a01b03831617905533600081815260056020908152604091829020805460ff1916600190811790915591519182527fb6c3b420153e57fd944cf3c7ac2c4cba781c9af1227e308bcfd198f6d772863c910160405180910390a250620001c0565b600080546001600160a01b038381166001600160a01b0319831681178455604051919092169283917f8be0079c531659141344cd1fd0a4f28419497f9722a3daafe3b4186f6b6457e09190a35050565b600060208284031215620001a157600080fd5b81516001600160a01b0381168114620001b957600080fd5b9392505050565b611bb480620001d06000396000f3fe6080604052600436106101395760003560e01c80638da5cb5b116100ab578063d47875d01161006f578063d47875d014610520578063db2e21bc14610658578063ea1fe4ae1461066d578063f0f4426014610680578063f2fde38b146106a0578063f3f480d9146106c057600080fd5b80638da5cb5b1461047c5780639b0d80be1461049a578063bd6b124f146104ba578063cf1c63c3146104da578063d1b0a19e146104f057600080fd5b80636c73151a116100fd5780636c73151a14610280578063715018a6146102b0578063722e656f146102c5578063723b765a1461038b57806376dd110f146103ab5780638b1c96b71461045c57600080fd5b806308b43a191461014557806318c281a6146101e257806352305151146102045780635d475fdd1461022857806361d027b31461024857600080fd5b3661014057005b600080fd5b34801561015157600080fd5b506101a16101603660046117d2565b6004602052600090815260409020805460018201546002909201546001600160a01b03909116919060ff808216916101008104821691620100009091041685565b604080516001600160a01b039096168652602086019490945260ff9092169284019290925290151560608301521515608082015260a0015b60405180910390f35b3480156101ee57600080fd5b506102026101fd3660046117ed565b6106d6565b005b34801561021057600080fd5b5061021a60075481565b6040519081526020016101d9565b34801561023457600080fd5b506102026102433660046117ed565b610773565b34801561025457600080fd5b50600954610268906001600160a01b031681565b6040516001600160a01b0390911681526020016101d9565b34801561028c57600080fd5b506102a061029b366004611806565b610802565b60405190151581526020016101d9565b3480156102bc57600080fd5b506102026108c9565b3480156102d157600080fd5b5061033d6102e03660046117d2565b600360208190526000918252604090912080546001820154600283015492909301549092916001600160a01b038116916001600160401b03600160a01b90920482169181169060ff600160401b8204811691600160481b90041687565b6040805197885260208801969096526001600160a01b03909416948601949094526001600160401b03918216606086015216608084015290151560a0830152151560c082015260e0016101d9565b34801561039757600080fd5b506102026103a6366004611853565b6108dd565b3480156103b757600080fd5b506104196103c63660046117d2565b60026020526000908152604090205461ffff8082169160ff620100008204811692630100000083048216926401000000008104909116916001600160401b03600160301b83041691600160701b90041686565b6040805161ffff978816815260ff9687166020820152948616908501529490911660608301526001600160401b03166080820152911660a082015260c0016101d9565b34801561046857600080fd5b506102026104773660046118d2565b610c50565b34801561048857600080fd5b506000546001600160a01b0316610268565b3480156104a657600080fd5b506102026104b536600461190e565b610cb7565b3480156104c657600080fd5b506102026104d53660046119e6565b6110c8565b3480156104e657600080fd5b5061021a60085481565b3480156104fc57600080fd5b506102a061050b3660046117d2565b60056020526000908152604090205460ff1681565b34801561052c57600080fd5b506105f261053b3660046117d2565b6040805160c081018252600080825260208201819052918101829052606081018290526080810182905260a0810191909152506001600160a01b0316600090815260026020908152604091829020825160c081018452905461ffff808216835260ff62010000830481169484019490945263010000008204841694830194909452640100000000810490931660608201526001600160401b03600160301b8404166080820152600160701b9092041660a082015290565b6040516101d99190600060c08201905061ffff80845116835260ff602085015116602084015260ff6040850151166040840152806060850151166060840152506001600160401b03608084015116608083015260ff60a08401511660a083015292915050565b34801561066457600080fd5b50610202611210565b61020261067b366004611a5a565b611254565b34801561068c57600080fd5b5061020261069b3660046117d2565b611409565b3480156106ac57600080fd5b506102026106bb3660046117d2565b61147c565b3480156106cc57600080fd5b5061021a60065481565b6106de6114b7565b6305f5e10081101580156106f757506402540be4008111155b6107375760405162461bcd60e51b815260206004820152600c60248201526b125b9d985b1a5908189bdb9960a21b60448201526064015b60405180910390fd5b60078190556040518181527fbdd6134a9b5faf6ac7dc896c17bb4bfa13292688a9626596ad2c19452039c5ed906020015b60405180910390a150565b61077b6114b7565b61025881101580156107905750620151808111155b6107cd5760405162461bcd60e51b815260206004820152600e60248201526d125b9d985b1a59081c195c9a5bd960921b604482015260640161072e565b60068190556040518181527f51df27ef8d4882ded82aa403cd74bcd8aaa267c36dc91cab36ed396f8dbfd2e190602001610768565b6001600160a01b0382166000908152600260209081526040808320815160c081018352905461ffff80821680845260ff6201000084048116968501969096526301000000830486169484019490945264010000000082041660608301526001600160401b03600160301b8204166080830152600160701b900490921660a083015282036108935760009150506108c3565b8281608001516001600160401b0316426108ad9190611aa3565b11156108bd5760009150506108c3565b60019150505b92915050565b6108d16114b7565b6108db60006114e4565b565b3360009081526005602052604090205460ff1661090d576040516343d774c960e11b815260040160405180910390fd5b61012c8661ffff16108061092657506103528661ffff16115b1561094457604051631556136560e01b815260040160405180910390fd5b60048560ff1611156109695760405163e142361760e01b815260040160405180910390fd5b605a8460ff16111561098e57604051632f2a24a960e11b815260040160405180910390fd5b6001600160a01b0387811660009081526003602052604090206002015416158015906109de57506001600160a01b03871660009081526003602081905260409091200154600160481b900460ff16155b156109fc576040516361fefcff60e01b815260040160405180910390fd5b604080516001600160a01b038916602082015261ffff8089169282019290925260ff8088166060830152808716608083015291851660a082015290831660c08201524260e082015260009061010001604051602081830303815290604052805190602001209050600060065442610a739190611ab6565b90506040518060e00160405280838152602001848152602001336001600160a01b03168152602001426001600160401b03168152602001826001600160401b0316815260200160001515815260200160001515815250600360008b6001600160a01b03166001600160a01b03168152602001908152602001600020600082015181600001556020820151816001015560408201518160020160006101000a8154816001600160a01b0302191690836001600160a01b0316021790555060608201518160020160146101000a8154816001600160401b0302191690836001600160401b0316021790555060808201518160030160006101000a8154816001600160401b0302191690836001600160401b0316021790555060a08201518160030160086101000a81548160ff02191690831515021790555060c08201518160030160096101000a81548160ff021916908315150217905550905050336001600160a01b0316896001600160a01b03167f86370ec3bcf6cf60b6641ec113b7a2dd72b5055e90cb4164d3758f30e1c5e3cb8a8a8786604051610c3d949392919061ffff94909416845260ff92909216602084015260408301526001600160401b0316606082015260800190565b60405180910390a3505050505050505050565b610c586114b7565b6001600160a01b038216600081815260056020908152604091829020805460ff191685151590811790915591519182527fb6c3b420153e57fd944cf3c7ac2c4cba781c9af1227e308bcfd198f6d772863c910160405180910390a25050565b6001600160a01b0388166000908152600360208181526040808420600490925290922090820154600160401b900460ff16610d0557604051632b8829ff60e21b815260040160405180910390fd5b6002810154610100900460ff1615610d30576040516336ab81e160e11b815260040160405180910390fd5b60008a8a8a8a8a8a8860020160149054906101000a90046001600160401b0316604051602001610d669796959493929190611ac9565b60405160208183030381529060405280519060200120905082600001548114610dc75760405162461bcd60e51b81526020600482015260136024820152720a6c6dee4ca40d0c2e6d040dad2e6dac2e8c6d606b1b604482015260640161072e565b6040516bffffffffffffffffffffffff1960608d901b1660208201526001600160f01b031960f08c901b1660348201526000906036016040516020818303038152906040528051906020012090506000610e58878780806020026020016040519081016040528093929190818152602001838360200280828437600092019190915250505050600187015484611534565b60028501805461ff00191661010017905590508015610fad5760028401805462ff000019169055600854600185015460009161271091610e989190611b16565b610ea29190611b2d565b855460018701549192506001600160a01b0316906108fc90610ec5908490611aa3565b6040518115909202916000818181858888f19350505050158015610eed573d6000803e3d6000fd5b506009546040516001600160a01b039091169082156108fc029083906000818181858888f19350505050158015610f28573d6000803e3d6000fd5b50610f378e8e8e8e8e8e61154a565b8460000160009054906101000a90046001600160a01b03166001600160a01b03168e6001600160a01b03167fea6ff40b0b821a4cc9fc8c79fb87ad66e80e945f30564ff6cb05dcd524703703600080604051610f9f9291909115158252602082015260400190565b60405180910390a3506110b9565b60028401805462ff0000191662010000179055600854600185015460009161271091610fd99190611b16565b610fe39190611b2d565b8560010154610ff29190611ab6565b85546040519192506001600160a01b03169082156108fc029083906000818181858888f1935050505015801561102c573d6000803e3d6000fd5b506001600160a01b038e811660008181526003602081815260408084208481556001808201959095556002810180546001600160e01b0319169055909201805469ffffffffffffffffffff1916905589548251938452908301869052909316927fea6ff40b0b821a4cc9fc8c79fb87ad66e80e945f30564ff6cb05dcd524703703910160405180910390a3505b50505050505050505050505050565b6001600160a01b038087166000908152600360205260409020600281015490911661110657604051635945318160e11b815260040160405180910390fd5b60038101546001600160401b03164210156111345760405163fb861a6960e01b815260040160405180910390fd5b6003810154600160401b900460ff16156111615760405163f1082a9360e01b815260040160405180910390fd5b60008787878787878760020160149054906101000a90046001600160401b03166040516020016111979796959493929190611ac9565b604051602081830303815290604052805190602001209050816000015481146111f85760405162461bcd60e51b81526020600482015260136024820152720a6c6dee4ca40d0c2e6d040dad2e6dac2e8c6d606b1b604482015260640161072e565b61120688888888888861154a565b5050505050505050565b6112186114b7565b6009546040516001600160a01b03909116904780156108fc02916000818181858888f19350505050158015611251573d6000803e3d6000fd5b50565b6001600160a01b038083166000908152600360205260409020600281015490911661129257604051635945318160e11b815260040160405180910390fd5b6003810154600160401b900460ff16156112bf5760405163f1082a9360e01b815260040160405180910390fd5b60038101546001600160401b031642106112ec5760405163fb861a6960e01b815260040160405180910390fd5b60075434101561130f5760405163e92c469f60e01b815260040160405180910390fd5b60038101805468ff00000000000000001916600160401b1790556040805160a0810182523380825234602080840182815260ff88811686880181815260006060890181815260808a018281526001600160a01b038f811680855260048a52938d90209b518c5491166001600160a01b0319909116178b55955160018b0155915160029099018054925195511515620100000262ff0000199615156101000261ffff199094169a9095169990991791909117939093169190911790955585519283529082019390935290927ffabbc9b7d88a4a5b977137933e7c075a62463c021af08bf795a1458c54bf9504910160405180910390a3505050565b6114116114b7565b6001600160a01b03811661145a5760405162461bcd60e51b815260206004820152601060248201526f496e76616c696420747265617375727960801b604482015260640161072e565b600980546001600160a01b0319166001600160a01b0392909216919091179055565b6114846114b7565b6001600160a01b0381166114ae57604051631e4fbdf760e01b81526000600482015260240161072e565b611251816114e4565b6000546001600160a01b031633146108db5760405163118cdaa760e01b815233600482015260240161072e565b600080546001600160a01b038381166001600160a01b0319831681178455604051919092169283917f8be0079c531659141344cd1fd0a4f28419497f9722a3daafe3b4186f6b6457e09190a35050565b6000826115418584611737565b14949350505050565b6040518060c001604052808661ffff1681526020018560ff1681526020018460ff1681526020018361ffff168152602001426001600160401b031681526020018260ff1681525060026000886001600160a01b03166001600160a01b0316815260200190815260200160002060008201518160000160006101000a81548161ffff021916908361ffff16021790555060208201518160000160026101000a81548160ff021916908360ff16021790555060408201518160000160036101000a81548160ff021916908360ff16021790555060608201518160000160046101000a81548161ffff021916908361ffff16021790555060808201518160000160066101000a8154816001600160401b0302191690836001600160401b0316021790555060a082015181600001600e6101000a81548160ff021916908360ff160217905550905050600160036000886001600160a01b03166001600160a01b0316815260200190815260200160002060030160096101000a81548160ff021916908315150217905550856001600160a01b03167f149773c7916483969786a0e25f508f30a3c84ecc41756b81c34a468219ca87e38686866040516117279392919061ffff93909316835260ff918216602084015216604082015260600190565b60405180910390a2505050505050565b600081815b845181101561177c576117688286838151811061175b5761175b611b4f565b6020026020010151611784565b91508061177481611b65565b91505061173c565b509392505050565b60008183106117a05760008281526020849052604090206117af565b60008381526020839052604090205b9392505050565b80356001600160a01b03811681146117cd57600080fd5b919050565b6000602082840312156117e457600080fd5b6117af826117b6565b6000602082840312156117ff57600080fd5b5035919050565b6000806040838503121561181957600080fd5b611822836117b6565b946020939093013593505050565b803561ffff811681146117cd57600080fd5b803560ff811681146117cd57600080fd5b600080600080600080600060e0888a03121561186e57600080fd5b611877886117b6565b965061188560208901611830565b955061189360408901611842565b94506118a160608901611842565b93506118af60808901611830565b92506118bd60a08901611842565b915060c0880135905092959891949750929550565b600080604083850312156118e557600080fd5b6118ee836117b6565b91506020830135801515811461190357600080fd5b809150509250929050565b60008060008060008060008060e0898b03121561192a57600080fd5b611933896117b6565b975061194160208a01611830565b965061194f60408a01611842565b955061195d60608a01611842565b945061196b60808a01611830565b935061197960a08a01611842565b925060c08901356001600160401b038082111561199557600080fd5b818b0191508b601f8301126119a957600080fd5b8135818111156119b857600080fd5b8c60208260051b85010111156119cd57600080fd5b6020830194508093505050509295985092959890939650565b60008060008060008060c087890312156119ff57600080fd5b611a08876117b6565b9550611a1660208801611830565b9450611a2460408801611842565b9350611a3260608801611842565b9250611a4060808801611830565b9150611a4e60a08801611842565b90509295509295509295565b60008060408385031215611a6d57600080fd5b611a76836117b6565b9150611a8460208401611842565b90509250929050565b634e487b7160e01b600052601160045260246000fd5b818103818111156108c3576108c3611a8d565b808201808211156108c3576108c3611a8d565b6001600160a01b0397909716875261ffff958616602088015260ff9485166040880152928416606087015293166080850152911660a08301526001600160401b031660c082015260e00190565b80820281158282048414176108c3576108c3611a8d565b600082611b4a57634e487b7160e01b600052601260045260246000fd5b500490565b634e487b7160e01b600052603260045260246000fd5b600060018201611b7757611b77611a8d565b506001019056fea2646970667358221220e05e8a95eba0cec5c71f09fb9f6ace93f95d5ec2a8d207b75a1e6b8a0e44c0b564736f6c63430008140033",
  "linkReferences": {},
  "deployedLinkReferences": {}
}