{
  "_format": "hh-sol-artifact-1",
  "contractName": "CreditRegistryV3",
  "sourceName": "contracts/CreditRegistryV3.sol",
  "abi": [
    {
      "inputs": [
        {
          "internalType": "address",
          "name": "_stakingToken",
          "type": "address"
        },
        {
          "internalType": "address",
          "name": "_kycIssuer",
          "type": "address"
        }
      ],
      "stateMutability": "nonpayable",
      "type": "constructor"
    },
    {
      "inputs": [],
      "name": "ECDSAInvalidSignature",
      "type": "error"
    },
    {
      "inputs": [
        {
          "internalType": "uint256",
          "name": "length",
          "type": "uint256"
        }
      ],
      "name": "ECDSAInvalidSignatureLength",
      "type": "error"
    },
    {
      "inputs": [
        {
          "internalType": "bytes32",
          "name": "s",
          "type": "bytes32"
        }
      ],
      "name": "ECDSAInvalidSignatureS",
      "type": "error"
    },
    {
      "inputs": [
        {
          "internalType": "address",
          "name": "owner",
          "type": "address"
        }
      ],
      "name": "OwnableInvalidOwner",
      "type": "error"
    },
    {
      "inputs": [
        {
          "internalType": "address",
          "name": "account",
          "type": "address"
        }
      ],
      "name": "OwnableUnauthorizedAccount",
      "type": "error"
    },
    {
      "inputs": [],
      "name": "ReentrancyGuardReentrantCall",
      "type": "error"
    },
    {
      "anonymous": false,
      "inputs": [
        {
          "indexed": true,
          "internalType": "address",
          "name": "sender",
          "type": "address"
        },
        {
          "indexed": false,
          "internalType": "bool",
          "name": "allowed",
          "type": "bool"
        }
      ],
      "name": "CCIPSenderAuthorized",
      "type": "event"
    },
    {
      "anonymous": false,
      "inputs": [
        {
          "indexed": true,
          "internalType": "uint256",
          "name": "loanId",
          "type": "uint256"
        },
        {
          "indexed": true,
          "internalType": "address",
          "name": "collateralToken",
          "type": "address"
        },
        {
          "indexed": false,
          "internalType": "uint256",
          "name": "collateralValueUsd18",
          "type": "uint256"
        },
        {
          "indexed": false,
          "internalType": "uint16",
          "name": "userScore",
          "type": "uint16"
        }
      ],
      "name": "CollateralDataRecorded",
      "type": "event"
    },
    {
      "anonymous": false,
      "inputs": [
        {
          "indexed": true,
          "internalType": "address",
          "name": "user",
          "type": "address"
        },
        {
          "indexed": true,
          "internalType": "uint64",
          "name": "sourceChainSelector",
          "type": "uint64"
        },
        {
          "indexed": false,
          "internalType": "uint16",
          "name": "score",
          "type": "uint16"
        },
        {
          "indexed": false,
          "internalType": "uint256",
          "name": "timestamp",
          "type": "uint256"
        }
      ],
      "name": "CrossChainReputationReceived",
      "type": "event"
    },
    {
      "anonymous": false,
      "inputs": [
        {
          "indexed": true,
          "internalType": "address",
          "name": "wallet",
          "type": "address"
        },
        {
          "indexed": false,
          "internalType": "uint256",
          "name": "timestamp",
          "type": "uint256"
        }
      ],
      "name": "FirstSeenRecorded",
      "type": "event"
    },
    {
      "anonymous": false,
      "inputs": [
        {
          "indexed": true,
          "internalType": "address",
          "name": "governance",
          "type": "address"
        },
        {
          "indexed": false,
          "internalType": "bool",
          "name": "allowed",
          "type": "bool"
        }
      ],
      "name": "GovernanceAuthorized",
      "type": "event"
    },
    {
      "anonymous": false,
      "inputs": [
        {
          "indexed": true,
          "internalType": "address",
          "name": "user",
          "type": "address"
        },
        {
          "indexed": false,
          "internalType": "bytes32",
          "name": "credentialHash",
          "type": "bytes32"
        },
        {
          "indexed": false,
          "internalType": "uint256",
          "name": "expiresAt",
          "type": "uint256"
        }
      ],
      "name": "KYCVerified",
      "type": "event"
    },
    {
      "anonymous": false,
      "inputs": [
        {
          "indexed": true,
          "internalType": "address",
          "name": "lender",
          "type": "address"
        },
        {
          "indexed": false,
          "internalType": "bool",
          "name": "allowed",
          "type": "bool"
        }
      ],
      "name": "LenderAuthorized",
      "type": "event"
    },
    {
      "anonymous": false,
      "inputs": [
        {
          "indexed": true,
          "internalType": "address",
          "name": "borrower",
          "type": "address"
        },
        {
          "indexed": true,
          "internalType": "uint256",
          "name": "loanId",
          "type": "uint256"
        },
        {
          "indexed": false,
          "internalType": "uint256",
          "name": "amountUsd18",
          "type": "uint256"
        },
        {
          "indexed": false,
          "internalType": "uint256",
          "name": "timestamp",
          "type": "uint256"
        },
        {
          "indexed": true,
          "internalType": "address",
          "name": "liquidator",
          "type": "address"
        }
      ],
      "name": "LiquidationRegistered",
      "type": "event"
    },
    {
      "anonymous": false,
      "inputs": [
        {
          "indexed": true,
          "internalType": "address",
          "name": "borrower",
          "type": "address"
        },
        {
          "indexed": true,
          "internalType": "uint256",
          "name": "loanId",
          "type": "uint256"
        },
        {
          "indexed": false,
          "internalType": "uint256",
          "name": "principalUsd18",
          "type": "uint256"
        },
        {
          "indexed": false,
          "internalType": "uint256",
          "name": "timestamp",
          "type": "uint256"
        },
        {
          "indexed": true,
          "internalType": "address",
          "name": "lender",
          "type": "address"
        }
      ],
      "name": "LoanRegistered",
      "type": "event"
    },
    {
      "anonymous": false,
      "inputs": [
        {
          "indexed": true,
          "internalType": "address",
          "name": "previousOwner",
          "type": "address"
        },
        {
          "indexed": true,
          "internalType": "address",
          "name": "newOwner",
          "type": "address"
        }
      ],
      "name": "OwnershipTransferred",
      "type": "event"
    },
    {
      "anonymous": false,
      "inputs": [
        {
          "indexed": true,
          "internalType": "address",
          "name": "proposer",
          "type": "address"
        },
        {
          "indexed": true,
          "internalType": "uint256",
          "name": "proposalId",
          "type": "uint256"
        },
        {
          "indexed": false,
          "internalType": "uint256",
          "name": "timestamp",
          "type": "uint256"
        }
      ],
      "name": "ProposalRecorded",
      "type": "event"
    },
    {
      "anonymous": false,
      "inputs": [
        {
          "indexed": true,
          "internalType": "address",
          "name": "borrower",
          "type": "address"
        },
        {
          "indexed": true,
          "internalType": "uint256",
          "name": "loanId",
          "type": "uint256"
        },
        {
          "indexed": false,
          "internalType": "uint256",
          "name": "amountUsd18",
          "type": "uint256"
        },
        {
          "indexed": false,
          "internalType": "uint256",
          "name": "timestamp",
          "type": "uint256"
        },
        {
          "indexed": true,
          "internalType": "address",
          "name": "payer",
          "type": "address"
        }
      ],
      "name": "RepaymentRegistered",
      "type": "event"
    },
    {
      "anonymous": false,
      "inputs": [
        {
          "indexed": true,
          "internalType": "address",
          "name": "staker",
          "type": "address"
        },
        {
          "indexed": false,
          "internalType": "uint256",
          "name": "amount",
          "type": "uint256"
        },
        {
          "indexed": false,
          "internalType": "uint256",
          "name": "lockUntil",
          "type": "uint256"
        }
      ],
      "name": "StakeDeposited",
      "type": "event"
    },
    {
      "anonymous": false,
      "inputs": [
        {
          "indexed": true,
          "internalType": "address",
          "name": "staker",
          "type": "address"
        },
        {
          "indexed": false,
          "internalType": "uint256",
          "name": "amount",
          "type": "uint256"
        }
      ],
      "name": "StakeWithdrawn",
      "type": "event"
    },
    {
      "anonymous": false,
      "inputs": [
        {
          "indexed": true,
          "internalType": "address",
          "name": "voter",
          "type": "address"
        },
        {
          "indexed": true,
          "internalType": "uint256",
          "name": "proposalId",
          "type": "uint256"
        },
        {
          "indexed": false,
          "internalType": "uint256",
          "name": "timestamp",
          "type": "uint256"
        }
      ],
      "name": "VoteRecorded",
      "type": "event"
    },
    {
      "inputs": [
        {
          "internalType": "address",
          "name": "",
          "type": "address"
        }
      ],
      "name": "authorizedCCIPSenders",
      "outputs": [
        {
          "internalType": "bool",
          "name": "",
          "type": "bool"
        }
      ],
      "stateMutability": "view",
      "type": "function"
    },
    {
      "inputs": [
        {
          "internalType": "address",
          "name": "",
          "type": "address"
        }
      ],
      "name": "authorizedGovernance",
      "outputs": [
        {
          "internalType": "bool",
          "name": "",
          "type": "bool"
        }
      ],
      "stateMutability": "view",
      "type": "function"
    },
    {
      "inputs": [
        {
          "internalType": "address",
          "name": "",
          "type": "address"
        }
      ],
      "name": "authorizedLenders",
      "outputs": [
        {
          "internalType": "bool",
          "name": "",
          "type": "bool"
        }
      ],
      "stateMutability": "view",
      "type": "function"
    },
    {
      "inputs": [
        {
          "internalType": "address",
          "name": "",
          "type": "address"
        },
        {
          "internalType": "uint64",
          "name": "",
          "type": "uint64"
        }
      ],
      "name": "crossChainScores",
      "outputs": [
        {
          "internalType": "uint16",
          "name": "overallScore",
          "type": "uint16"
        },
        {
          "internalType": "uint256",
          "name": "totalLoans",
          "type": "uint256"
        },
        {
          "internalType": "uint256",
          "name": "repaidLoans",
          "type": "uint256"
        },
        {
          "internalType": "uint256",
          "name": "updatedAt",
          "type": "uint256"
        }
      ],
      "stateMutability": "view",
      "type": "function"
    },
    {
      "inputs": [
        {
          "internalType": "uint256",
          "name": "loanId",
          "type": "uint256"
        }
      ],
      "name": "getCollateralData",
      "outputs": [
        {
          "components": [
            {
              "internalType": "address",
              "name": "collateralToken",
              "type": "address"
            },
            {
              "internalType": "uint256",
              "name": "collateralValueUsd18",
              "type": "uint256"
            },
            {
              "internalType": "uint256",
              "name": "principalUsd18",
              "type": "uint256"
            },
            {
              "internalType": "uint16",
              "name": "userScoreAtBorrow",
              "type": "uint16"
            }
          ],
          "internalType": "struct CreditRegistryV3.CollateralData",
          "name": "",
          "type": "tuple"
        }
      ],
      "stateMutability": "view",
      "type": "function"
    },
    {
      "inputs": [
        {
          "internalType": "address",
          "name": "user",
          "type": "address"
        },
        {
          "internalType": "uint64",
          "name": "chainSelector",
          "type": "uint64"
        }
      ],
      "name": "getCrossChainScore",
      "outputs": [
        {
          "components": [
            {
              "internalType": "uint16",
              "name": "overallScore",
              "type": "uint16"
            },
            {
              "internalType": "uint256",
              "name": "totalLoans",
              "type": "uint256"
            },
            {
              "internalType": "uint256",
              "name": "repaidLoans",
              "type": "uint256"
            },
            {
              "internalType": "uint256",
              "name": "updatedAt",
              "type": "uint256"
            }
          ],
          "internalType": "struct CreditRegistryV3.CrossChainScore",
          "name": "",
          "type": "tuple"
        }
      ],
      "stateMutability": "view",
      "type": "function"
    },
    {
      "inputs": [
        {
          "internalType": "address",
          "name": "wallet",
          "type": "address"
        }
      ],
      "name": "getFirstSeen",
      "outputs": [
        {
          "internalType": "uint256",
          "name": "",
          "type": "uint256"
        }
      ],
      "stateMutability": "view",
      "type": "function"
    },
    {
      "inputs": [
        {
          "internalType": "address",
          "name": "user",
          "type": "address"
        }
      ],
      "name": "getGovernanceActivity",
      "outputs": [
        {
          "components": [
            {
              "internalType": "uint256",
              "name": "voteCount",
              "type": "uint256"
            },
            {
              "internalType": "uint256",
              "name": "proposalCount",
              "type": "uint256"
            },
            {
              "internalType": "uint256",
              "name": "lastVoteTimestamp",
              "type": "uint256"
            },
            {
              "internalType": "uint256",
              "name": "lastProposalTimestamp",
              "type": "uint256"
            }
          ],
          "internalType": "struct CreditRegistryV3.GovernanceActivity",
          "name": "",
          "type": "tuple"
        }
      ],
      "stateMutability": "view",
      "type": "function"
    },
    {
      "inputs": [
        {
          "internalType": "address",
          "name": "user",
          "type": "address"
        }
      ],
      "name": "getKYCProof",
      "outputs": [
        {
          "components": [
            {
              "internalType": "bytes32",
              "name": "credentialHash",
              "type": "bytes32"
            },
            {
              "internalType": "uint256",
              "name": "verifiedAt",
              "type": "uint256"
            },
            {
              "internalType": "uint256",
              "name": "expiresAt",
              "type": "uint256"
            }
          ],
          "internalType": "struct CreditRegistryV3.KYCProof",
          "name": "",
          "type": "tuple"
        }
      ],
      "stateMutability": "view",
      "type": "function"
    },
    {
      "inputs": [
        {
          "internalType": "uint256",
          "name": "loanId",
          "type": "uint256"
        }
      ],
      "name": "getLoan",
      "outputs": [
        {
          "components": [
            {
              "internalType": "uint256",
              "name": "loanId",
              "type": "uint256"
            },
            {
              "internalType": "address",
              "name": "borrower",
              "type": "address"
            },
            {
              "internalType": "uint256",
              "name": "principalUsd18",
              "type": "uint256"
            },
            {
              "internalType": "uint256",
              "name": "repaidUsd18",
              "type": "uint256"
            },
            {
              "internalType": "uint256",
              "name": "timestamp",
              "type": "uint256"
            },
            {
              "internalType": "enum CreditRegistryV3.LoanStatus",
              "name": "status",
              "type": "uint8"
            },
            {
              "internalType": "address",
              "name": "lender",
              "type": "address"
            }
          ],
          "internalType": "struct CreditRegistryV3.LoanRecord",
          "name": "",
          "type": "tuple"
        }
      ],
      "stateMutability": "view",
      "type": "function"
    },
    {
      "inputs": [
        {
          "internalType": "address",
          "name": "borrower",
          "type": "address"
        }
      ],
      "name": "getLoanIdsByBorrower",
      "outputs": [
        {
          "internalType": "uint256[]",
          "name": "",
          "type": "uint256[]"
        }
      ],
      "stateMutability": "view",
      "type": "function"
    },
    {
      "inputs": [
        {
          "internalType": "address",
          "name": "user",
          "type": "address"
        }
      ],
      "name": "getStakeInfo",
      "outputs": [
        {
          "components": [
            {
              "internalType": "uint256",
              "name": "amount",
              "type": "uint256"
            },
            {
              "internalType": "uint256",
              "name": "lockUntil",
              "type": "uint256"
            }
          ],
          "internalType": "struct CreditRegistryV3.StakeInfo",
          "name": "",
          "type": "tuple"
        }
      ],
      "stateMutability": "view",
      "type": "function"
    },
    {
      "inputs": [
        {
          "internalType": "address",
          "name": "user",
          "type": "address"
        }
      ],
      "name": "getUserCollateralAssets",
      "outputs": [
        {
          "internalType": "address[]",
          "name": "",
          "type": "address[]"
        }
      ],
      "stateMutability": "view",
      "type": "function"
    },
    {
      "inputs": [
        {
          "internalType": "address",
          "name": "",
          "type": "address"
        }
      ],
      "name": "governanceActivity",
      "outputs": [
        {
          "internalType": "uint256",
          "name": "voteCount",
          "type": "uint256"
        },
        {
          "internalType": "uint256",
          "name": "proposalCount",
          "type": "uint256"
        },
        {
          "internalType": "uint256",
          "name": "lastVoteTimestamp",
          "type": "uint256"
        },
        {
          "internalType": "uint256",
          "name": "lastProposalTimestamp",
          "type": "uint256"
        }
      ],
      "stateMutability": "view",
      "type": "function"
    },
    {
      "inputs": [
        {
          "internalType": "address",
          "name": "user",
          "type": "address"
        }
      ],
      "name": "isKYCVerified",
      "outputs": [
        {
          "internalType": "bool",
          "name": "",
          "type": "bool"
        }
      ],
      "stateMutability": "view",
      "type": "function"
    },
    {
      "inputs": [],
      "name": "kycIssuer",
      "outputs": [
        {
          "internalType": "address",
          "name": "",
          "type": "address"
        }
      ],
      "stateMutability": "view",
      "type": "function"
    },
    {
      "inputs": [
        {
          "internalType": "address",
          "name": "",
          "type": "address"
        }
      ],
      "name": "kycProofs",
      "outputs": [
        {
          "internalType": "bytes32",
          "name": "credentialHash",
          "type": "bytes32"
        },
        {
          "internalType": "uint256",
          "name": "verifiedAt",
          "type": "uint256"
        },
        {
          "internalType": "uint256",
          "name": "expiresAt",
          "type": "uint256"
        }
      ],
      "stateMutability": "view",
      "type": "function"
    },
    {
      "inputs": [
        {
          "internalType": "uint256",
          "name": "",
          "type": "uint256"
        }
      ],
      "name": "loanCollateralData",
      "outputs": [
        {
          "internalType": "address",
          "name": "collateralToken",
          "type": "address"
        },
        {
          "internalType": "uint256",
          "name": "collateralValueUsd18",
          "type": "uint256"
        },
        {
          "internalType": "uint256",
          "name": "principalUsd18",
          "type": "uint256"
        },
        {
          "internalType": "uint16",
          "name": "userScoreAtBorrow",
          "type": "uint16"
        }
      ],
      "stateMutability": "view",
      "type": "function"
    },
    {
      "inputs": [],
      "name": "owner",
      "outputs": [
        {
          "internalType": "address",
          "name": "",
          "type": "address"
        }
      ],
      "stateMutability": "view",
      "type": "function"
    },
    {
      "inputs": [
        {
          "internalType": "address",
          "name": "user",
          "type": "address"
        },
        {
          "internalType": "uint64",
          "name": "sourceChainSelector",
          "type": "uint64"
        },
        {
          "internalType": "uint16",
          "name": "overallScore",
          "type": "uint16"
        },
        {
          "internalType": "uint256",
          "name": "totalLoans",
          "type": "uint256"
        },
        {
          "internalType": "uint256",
          "name": "repaidLoans",
          "type": "uint256"
        }
      ],
      "name": "receiveCrossChainReputation",
      "outputs": [],
      "stateMutability": "nonpayable",
      "type": "function"
    },
    {
      "inputs": [
        {
          "internalType": "uint256",
          "name": "loanId",
          "type": "uint256"
        },
        {
          "internalType": "address",
          "name": "collateralToken",
          "type": "address"
        },
        {
          "internalType": "uint256",
          "name": "collateralValueUsd18",
          "type": "uint256"
        },
        {
          "internalType": "uint16",
          "name": "userScore",
          "type": "uint16"
        }
      ],
      "name": "recordCollateralData",
      "outputs": [],
      "stateMutability": "nonpayable",
      "type": "function"
    },
    {
      "inputs": [
        {
          "internalType": "address",
          "name": "proposer",
          "type": "address"
        },
        {
          "internalType": "uint256",
          "name": "proposalId",
          "type": "uint256"
        }
      ],
      "name": "recordProposal",
      "outputs": [],
      "stateMutability": "nonpayable",
      "type": "function"
    },
    {
      "inputs": [
        {
          "internalType": "address",
          "name": "voter",
          "type": "address"
        },
        {
          "internalType": "uint256",
          "name": "proposalId",
          "type": "uint256"
        }
      ],
      "name": "recordVote",
      "outputs": [],
      "stateMutability": "nonpayable",
      "type": "function"
    },
    {
      "inputs": [
        {
          "internalType": "uint256",
          "name": "loanId",
          "type": "uint256"
        },
        {
          "internalType": "uint256",
          "name": "recoveredUsd18",
          "type": "uint256"
        }
      ],
      "name": "registerLiquidation",
      "outputs": [],
      "stateMutability": "nonpayable",
      "type": "function"
    },
    {
      "inputs": [
        {
          "internalType": "address",
          "name": "borrower",
          "type": "address"
        },
        {
          "internalType": "uint256",
          "name": "principalUsd18",
          "type": "uint256"
        }
      ],
      "name": "registerLoan",
      "outputs": [
        {
          "internalType": "uint256",
          "name": "",
          "type": "uint256"
        }
      ],
      "stateMutability": "nonpayable",
      "type": "function"
    },
    {
      "inputs": [
        {
          "internalType": "uint256",
          "name": "loanId",
          "type": "uint256"
        },
        {
          "internalType": "uint256",
          "name": "amountUsd18",
          "type": "uint256"
        }
      ],
      "name": "registerRepayment",
      "outputs": [],
      "stateMutability": "nonpayable",
      "type": "function"
    },
    {
      "inputs": [],
      "name": "renounceOwnership",
      "outputs": [],
      "stateMutability": "nonpayable",
      "type": "function"
    },
    {
      "inputs": [
        {
          "internalType": "address",
          "name": "sender",
          "type": "address"
        },
        {
          "internalType": "bool",
          "name": "allowed",
          "type": "bool"
        }
      ],
      "name": "setAuthorizedCCIPSender",
      "outputs": [],
      "stateMutability": "nonpayable",
      "type": "function"
    },
    {
      "inputs": [
        {
          "internalType": "address",
          "name": "governance",
          "type": "address"
        },
        {
          "internalType": "bool",
          "name": "allowed",
          "type": "bool"
        }
      ],
      "name": "setAuthorizedGovernance",
      "outputs": [],
      "stateMutability": "nonpayable",
      "type": "function"
    },
    {
      "inputs": [
        {
          "internalType": "address",
          "name": "lender",
          "type": "address"
        },
        {
          "internalType": "bool",
          "name": "allowed",
          "type": "bool"
        }
      ],
      "name": "setAuthorizedLender",
      "outputs": [],
      "stateMutability": "nonpayable",
      "type": "function"
    },
    {
      "inputs": [
        {
          "internalType": "address",
          "name": "_kycIssuer",
          "type": "address"
        }
      ],
      "name": "setKYCIssuer",
      "outputs": [],
      "stateMutability": "nonpayable",
      "type": "function"
    },
    {
      "inputs": [
        {
          "internalType": "uint256",
          "name": "amount",
          "type": "uint256"
        }
      ],
      "name": "stake",
      "outputs": [],
      "stateMutability": "nonpayable",
      "type": "function"
    },
    {
      "inputs": [
        {
          "internalType": "address",
          "name": "",
          "type": "address"
        }
      ],
      "name": "stakes",
      "outputs": [
        {
          "internalType": "uint256",
          "name": "amount",
          "type": "uint256"
        },
        {
          "internalType": "uint256",
          "name": "lockUntil",
          "type": "uint256"
        }
      ],
      "stateMutability": "view",
      "type": "function"
    },
    {
      "inputs": [],
      "name": "stakingToken",
      "outputs": [
        {
          "internalType": "contract IERC20",
          "name": "",
          "type": "address"
        }
      ],
      "stateMutability": "view",
      "type": "function"
    },
    {
      "inputs": [
        {
          "internalType": "bytes32",
          "name": "credentialHash",
          "type": "bytes32"
        },
        {
          "internalType": "uint256",
          "name": "expiresAt",
          "type": "uint256"
        },
        {
          "internalType": "bytes",
          "name": "signature",
          "type": "bytes"
        }
      ],
      "name": "submitKYCProof",
      "outputs": [],
      "stateMutability": "nonpayable",
      "type": "function"
    },
    {
      "inputs": [
        {
          "internalType": "address",
          "name": "newOwner",
          "type": "address"
        }
      ],
      "name": "transferOwnership",
      "outputs": [],
      "stateMutability": "nonpayable",
      "type": "function"
    },
    {
      "inputs": [
        {
          "internalType": "uint256",
          "name": "amount",
          "type": "uint256"
        }
      ],
      "name": "unstake",
      "outputs": [],
      "stateMutability": "nonpayable",
      "type": "function"
    },
    {
      "inputs": [
        {
          "internalType": "address",
          "name": "",
          "type": "address"
        }
      ],
      "name": "walletFirstSeen",
      "outputs": [
        {
          "internalType": "uint256",
          "name": "",
          "type": "uint256"
        }
      ],
      "stateMutability": "view",
      "type": "function"
    }
  ],
  "bytecode": "0x608060405260016004553480156200001657600080fd5b50604051620025743803806200257483398101604081905262000039916200010f565b33806200006057604051631e4fbdf760e01b81526000600482015260240160405180910390fd5b6200006b81620000a2565b5060018055600a80546001600160a01b039384166001600160a01b031991821617909155600b805492909316911617905562000147565b600080546001600160a01b038381166001600160a01b0319831681178455604051919092169283917f8be0079c531659141344cd1fd0a4f28419497f9722a3daafe3b4186f6b6457e09190a35050565b80516001600160a01b03811681146200010a57600080fd5b919050565b600080604083850312156200012357600080fd5b6200012e83620000f2565b91506200013e60208401620000f2565b90509250929050565b61241d80620001576000396000f3fe608060405234801561001057600080fd5b50600436106102325760003560e01c806386160a1611610130578063b297482e116100b8578063dac3d3081161007c578063dac3d308146107d9578063dcce2e08146107ec578063f2fde38b146107ff578063f410879414610812578063fcc23004146108d057600080fd5b8063b297482e146106e6578063b41436f6146106f9578063c345315314610743578063c45831a9146107b3578063ced3c981146107c657600080fd5b8063999a2f40116100ff578063999a2f401461067a5780639b44f1111461068d578063a446b900146106ad578063a694fc3a146106c0578063b1707394146106d357600080fd5b806386160a16146105cc5780638da5cb5b146106365780638db92e4e146106475780638ef6dce91461066757600080fd5b806340c7e39d116101be578063715018a611610182578063715018a61461055057806372f702f3146105585780637644dd17146105835780637ee43c8a146105a657806380225f7e146105b957600080fd5b806340c7e39d146104a05780634d35593c146104ea578063504006ca146104fd57806354b7636e1461051d5780635bb2376e1461053057600080fd5b80632c287f98116102055780632c287f981461032c5780632e17de781461035f5780632ff18c0c146103725780633539ff15146103f8578063391c39941461046957600080fd5b80630a97bde4146102375780630d9439c11461028657806316934fc4146102db57806316b5b09c14610317575b600080fd5b61024a610245366004611f50565b6108f3565b60405161027d91908151815260208083015190820152604080830151908201526060918201519181019190915260800190565b60405180910390f35b6102bb610294366004611f50565b600d6020526000908152604090208054600182015460028301546003909301549192909184565b60408051948552602085019390935291830152606082015260800161027d565b6103026102e9366004611f50565b6009602052600090815260409020805460019091015482565b6040805192835260208301919091520161027d565b61032a610325366004611f95565b61096c565b005b61034f61033a366004611f50565b60106020526000908152604090205460ff1681565b604051901515815260200161027d565b61032a61036d366004611fea565b610a9c565b6103d6610380366004611f50565b6040805160608082018352600080835260208084018290529284018190526001600160a01b0394909416845260088252928290208251938401835280548452600181015491840191909152600201549082015290565b604080518251815260208084015190820152918101519082015260600161027d565b61043b610406366004611fea565b60056020526000908152604090208054600182015460028301546003909301546001600160a01b0390921692909161ffff1684565b604080516001600160a01b03909516855260208501939093529183015261ffff16606082015260800161027d565b610492610477366004611f50565b6001600160a01b031660009081526007602052604090205490565b60405190815260200161027d565b6104b36104ae366004612003565b610c63565b60405161027d9190815161ffff16815260208083015190820152604080830151908201526060918201519181019190915260800190565b61032a6104f8366004612036565b610cfb565b61051061050b366004611fea565b610e3f565b60405161027d919061206e565b61034f61052b366004611f50565b610eed565b61054361053e366004611f50565b610f45565b60405161027d91906120f3565b61032a610fbb565b600a5461056b906001600160a01b031681565b6040516001600160a01b03909116815260200161027d565b61034f610591366004611f50565b600e6020526000908152604090205460ff1681565b61032a6105b436600461214e565b610fcf565b61032a6105c7366004611f50565b611037565b6106116105da366004612003565b600c602090815260009283526040808420909152908252902080546001820154600283015460039093015461ffff90921692909184565b6040805161ffff9095168552602085019390935291830152606082015260800161027d565b6000546001600160a01b031661056b565b61065a610655366004611f50565b611061565b60405161027d9190612185565b61032a610675366004612036565b6110cc565b6104926106883660046121bd565b611213565b61049261069b366004611f50565b60076020526000908152604090205481565b61032a6106bb3660046121bd565b611420565b61032a6106ce366004611fea565b611506565b61032a6106e13660046121fd565b611648565b61032a6106f436600461214e565b6117ee565b610728610707366004611f50565b60086020526000908152604090208054600182015460029092015490919083565b6040805193845260208401929092529082015260600161027d565b610798610751366004611f50565b6040805180820190915260008082526020820152506001600160a01b0316600090815260096020908152604091829020825180840190935280548352600101549082015290565b6040805182518152602092830151928101929092520161027d565b61032a6107c13660046121bd565b61184e565b61032a6107d436600461214e565b61192b565b600b5461056b906001600160a01b031681565b61032a6107fa3660046122c1565b61198b565b61032a61080d366004611f50565b611b24565b610890610820366004611fea565b6040805160808082018352600080835260208084018290528385018290526060938401829052948152600585528390208351918201845280546001600160a01b0316825260018101549482019490945260028401549281019290925260039092015461ffff169181019190915290565b60405161027d919081516001600160a01b03168152602080830151908201526040808301519082015260609182015161ffff169181019190915260800190565b61034f6108de366004611f50565b600f6020526000908152604090205460ff1681565b61091e6040518060800160405280600081526020016000815260200160008152602001600081525090565b506001600160a01b03166000908152600d6020908152604091829020825160808101845281548152600182015492810192909252600281015492820192909252600390910154606082015290565b336000908152600f602052604090205460ff166109d05760405162461bcd60e51b815260206004820152601a60248201527f4e6f7420617574686f72697a656420434349502073656e64657200000000000060448201526064015b60405180910390fd5b6040805160808101825261ffff8086168252602080830186815283850186815242606086018181526001600160a01b038d166000818152600c875289812067ffffffffffffffff8f16808352975289902097518854971661ffff1990971696909617875592516001870155905160028601559051600390940193909355925190917f86b1a1128d1675cb8789d3c397aa7ced426435a7255ef0d2bb8f32957a5ecb6491610a8d91889161ffff929092168252602082015260400190565b60405180910390a35050505050565b610aa4611b5f565b60008111610ae25760405162461bcd60e51b815260206004820152600b60248201526a16995c9bc8185b5bdd5b9d60aa1b60448201526064016109c7565b33600090815260096020526040902054811115610b365760405162461bcd60e51b8152602060048201526012602482015271496e73756666696369656e74207374616b6560701b60448201526064016109c7565b33600090815260096020526040902060010154421015610b875760405162461bcd60e51b815260206004820152600c60248201526b14dd185ad9481b1bd8dad95960a21b60448201526064016109c7565b3360009081526009602052604081208054839290610ba690849061231d565b9091555050600a5460405163a9059cbb60e01b8152336004820152602481018390526001600160a01b039091169063a9059cbb906044016020604051808303816000875af1158015610bfc573d6000803e3d6000fd5b505050506040513d601f19601f82011682018060405250810190610c209190612330565b5060405181815233907f8108595eb6bad3acefa9da467d90cc2217686d5c5ac85460f8b7849c840645fc906020015b60405180910390a2610c6060018055565b50565b610c926040518060800160405280600061ffff1681526020016000815260200160008152602001600081525090565b506001600160a01b0382166000908152600c6020908152604080832067ffffffffffffffff851684528252918290208251608081018452815461ffff16815260018201549281019290925260028101549282019290925260039091015460608201525b92915050565b336000908152600e602052604090205460ff16610d2a5760405162461bcd60e51b81526004016109c79061234d565b60008281526002602052604090206001600582015460ff166003811115610d5357610d53612058565b14610d705760405162461bcd60e51b81526004016109c79061237c565b600581015461010090046001600160a01b03163314610dc05760405162461bcd60e51b815260206004820152600c60248201526b2bb937b733903632b73232b960a11b60448201526064016109c7565b60058101805460ff1916600390811790915581018054839190600090610de79084906123a5565b9091555050600181015460408051848152426020820152339286926001600160a01b03909116917fc9f19e0158ee81ee65e2efd94386349a13bc4f2957e0b9eacaef4a8acd181d0f91015b60405180910390a4505050565b610e47611edd565b600082815260026020818152604092839020835160e0810185528154815260018201546001600160a01b0316928101929092529182015492810192909252600380820154606084015260048201546080840152600582015460a084019160ff90911690811115610eb957610eb9612058565b6003811115610eca57610eca612058565b81526005919091015461010090046001600160a01b031660209091015292915050565b6001600160a01b03811660009081526008602090815260408083208151606081018352815481526001820154938101849052600290910154918101919091529015801590610f3e5750428160400151115b9392505050565b6001600160a01b038116600090815260066020908152604091829020805483518184028101840190945280845260609392830182828015610faf57602002820191906000526020600020905b81546001600160a01b03168152600190910190602001808311610f91575b50505050509050919050565b610fc3611b89565b610fcd6000611bb6565b565b610fd7611b89565b6001600160a01b0382166000818152600e6020908152604091829020805460ff191685151590811790915591519182527f854b7acf01e906a6a59a420e42dbfeb0c32d87790e2a7f4779581d899aed81d191015b60405180910390a25050565b61103f611b89565b600b80546001600160a01b0319166001600160a01b0392909216919091179055565b6001600160a01b038116600090815260036020908152604091829020805483518184028101840190945280845260609392830182828015610faf57602002820191906000526020600020905b8154815260200190600101908083116110ad5750505050509050919050565b336000908152600e602052604090205460ff166110fb5760405162461bcd60e51b81526004016109c79061234d565b60008281526002602052604090206001600582015460ff16600381111561112457611124612058565b146111415760405162461bcd60e51b81526004016109c79061237c565b600581015461010090046001600160a01b031633146111915760405162461bcd60e51b815260206004820152600c60248201526b2bb937b733903632b73232b960a11b60448201526064016109c7565b818160030160008282546111a591906123a5565b909155505060028101546003820154106111c95760058101805460ff191660021790555b600181015460408051848152426020820152339286926001600160a01b03909116917fd393845a15e253c2056008d7581a313611dad1db01b660bb2e4e4a09dd22b3539101610e32565b336000908152600e602052604081205460ff166112425760405162461bcd60e51b81526004016109c79061234d565b6004805460009182611253836123b8565b909155506040805160e0810182528281526001600160a01b03871660208201529081018590526000606082015242608082015290915060a081016001815233602091820152600083815260028083526040918290208451815592840151600180850180546001600160a01b0319166001600160a01b0390931692909217909155918401519083015560608301516003808401919091556080840151600484015560a08401516005840180549193909260ff1990921691849081111561131a5761131a612058565b021790555060c0919091015160059091018054610100600160a81b0319166101006001600160a01b039384160217905584166000818152600360209081526040808320805460018101825590845282842001859055928252600790529081205490036113d2576001600160a01b038416600081815260076020908152604091829020429081905591519182527f786c11af1c6b4162ea93236e732e32873d8ac3a6ea0d1ae32b38840ecd375a2a910160405180910390a25b60408051848152426020820152339183916001600160a01b038816917f8f4051137ee17dad566f459b318cc7bf9781d5afa1cd9b5262c2b1231b3f2e85910160405180910390a49392505050565b3360009081526010602052604090205460ff1661147b5760405162461bcd60e51b81526020600482015260196024820152784e6f7420617574686f72697a656420676f7665726e616e636560381b60448201526064016109c7565b6001600160a01b0382166000908152600d6020526040812080549161149f836123b8565b90915550506001600160a01b0382166000818152600d60205260409081902042600290910181905590518392917f30befe21dd895620c3a73403f6e63aea5c3c6729202dbdc8eef2e8f8bd78de80916114fa91815260200190565b60405180910390a35050565b61150e611b5f565b6000811161154c5760405162461bcd60e51b815260206004820152600b60248201526a16995c9bc8185b5bdd5b9d60aa1b60448201526064016109c7565b600a546040516323b872dd60e01b8152336004820152306024820152604481018390526001600160a01b03909116906323b872dd906064016020604051808303816000875af11580156115a3573d6000803e3d6000fd5b505050506040513d601f19601f820116820180604052508101906115c79190612330565b5033600090815260096020526040812080548392906115e79084906123a5565b909155506115fa90504262278d006123a5565b33600081815260096020526040908190206001018390555190917f05cce4a371bf9816b1a7594f1d76c98eba4ed025ff3e471234ae598f17899bd491610c4f91858252602082015260400190565b6040516bffffffffffffffffffffffff193360601b166020820152603481018490526054810183905260009060740160405160208183030381529060405280519060200120905060006116c8827f19457468657265756d205369676e6564204d6573736167653a0a3332000000006000908152601c91909152603c902090565b905060006116d68285611c06565b600b549091506001600160a01b0380831691161461172e5760405162461bcd60e51b8152602060048201526015602482015274496e76616c6964204b5943207369676e617475726560581b60448201526064016109c7565b4285116117715760405162461bcd60e51b815260206004820152601160248201527012d650c81c1c9bdbd988195e1c1a5c9959607a1b60448201526064016109c7565b60408051606081018252878152426020808301918252828401898152336000818152600884528690209451855592516001850155516002909301929092558251898152918201889052917ff79bdf1b7d434a5250254c74d2900f9edaf4d76396642ddaddcb2d0e65255868910160405180910390a2505050505050565b6117f6611b89565b6001600160a01b038216600081815260106020908152604091829020805460ff191685151590811790915591519182527faf3b5a9cdec6c86041c875d4433b97a76f4ba0faa73ee88c830c699a3d76ef0c910161102b565b3360009081526010602052604090205460ff166118a95760405162461bcd60e51b81526020600482015260196024820152784e6f7420617574686f72697a656420676f7665726e616e636560381b60448201526064016109c7565b6001600160a01b0382166000908152600d602052604081206001018054916118d0836123b8565b90915550506001600160a01b0382166000818152600d60205260409081902042600390910181905590518392917f831900954074f7455449f3209f747f130bf3b7cda14d3f736f158370ffc51400916114fa91815260200190565b611933611b89565b6001600160a01b0382166000818152600f6020908152604091829020805460ff191685151590811790915591519182527f70c00f8b1add5e4221a3aa6b3a55a3a0746ddb7c4c9a7f23187f816c56ac2bad910161102b565b336000908152600e602052604090205460ff166119ba5760405162461bcd60e51b81526004016109c79061234d565b600160008581526002602052604090206005015460ff1660038111156119e2576119e2612058565b146119ff5760405162461bcd60e51b81526004016109c79061237c565b604080516080810182526001600160a01b0385811682526020808301868152600089815260028084528682208082015487890190815261ffff8a811660608a019081528e86526005885299909420975188546001600160a01b031916908816178855935160018089019190915593518783015596516003909601805461ffff19169690921695909517905592905291015416611a9b8185611c30565b611ade576001600160a01b0381811660009081526006602090815260408220805460018101825590835291200180546001600160a01b0319169186169190911790555b6040805184815261ffff841660208201526001600160a01b0386169187917f9441d3414c1707a23ed1588ab029d3d4c740bf06fc0163357b45cd352f990f709101610a8d565b611b2c611b89565b6001600160a01b038116611b5657604051631e4fbdf760e01b8152600060048201526024016109c7565b610c6081611bb6565b600260015403611b8257604051633ee5aeb560e01b815260040160405180910390fd5b6002600155565b6000546001600160a01b03163314610fcd5760405163118cdaa760e01b81523360048201526024016109c7565b600080546001600160a01b038381166001600160a01b0319831681178455604051919092169283917f8be0079c531659141344cd1fd0a4f28419497f9722a3daafe3b4186f6b6457e09190a35050565b600080600080611c168686611d04565b925092509250611c268282611d51565b5090949350505050565b6001600160a01b038216600090815260066020908152604080832080548251818502810185019093528083528493830182828015611c9757602002820191906000526020600020905b81546001600160a01b03168152600190910190602001808311611c79575b5050505050905060005b8151811015611cf957836001600160a01b0316828281518110611cc657611cc66123d1565b60200260200101516001600160a01b031603611ce757600192505050610cf5565b80611cf1816123b8565b915050611ca1565b506000949350505050565b60008060008351604103611d3e5760208401516040850151606086015160001a611d3088828585611e0e565b955095509550505050611d4a565b50508151600091506002905b9250925092565b6000826003811115611d6557611d65612058565b03611d6e575050565b6001826003811115611d8257611d82612058565b03611da05760405163f645eedf60e01b815260040160405180910390fd5b6002826003811115611db457611db4612058565b03611dd55760405163fce698f760e01b8152600481018290526024016109c7565b6003826003811115611de957611de9612058565b03611e0a576040516335e2f38360e21b8152600481018290526024016109c7565b5050565b600080807f7fffffffffffffffffffffffffffffff5d576e7357a4501ddfe92f46681b20a0841115611e495750600091506003905082611ed3565b604080516000808252602082018084528a905260ff891692820192909252606081018790526080810186905260019060a0016020604051602081039080840390855afa158015611e9d573d6000803e3d6000fd5b5050604051601f1901519150506001600160a01b038116611ec957506000925060019150829050611ed3565b9250600091508190505b9450945094915050565b6040518060e001604052806000815260200160006001600160a01b0316815260200160008152602001600081526020016000815260200160006003811115611f2757611f27612058565b8152600060209091015290565b80356001600160a01b0381168114611f4b57600080fd5b919050565b600060208284031215611f6257600080fd5b610f3e82611f34565b803567ffffffffffffffff81168114611f4b57600080fd5b803561ffff81168114611f4b57600080fd5b600080600080600060a08688031215611fad57600080fd5b611fb686611f34565b9450611fc460208701611f6b565b9350611fd260408701611f83565b94979396509394606081013594506080013592915050565b600060208284031215611ffc57600080fd5b5035919050565b6000806040838503121561201657600080fd5b61201f83611f34565b915061202d60208401611f6b565b90509250929050565b6000806040838503121561204957600080fd5b50508035926020909101359150565b634e487b7160e01b600052602160045260246000fd5b815181526020808301516001600160a01b03169082015260408083015190820152606080830151908201526080808301519082015260a082015160e0820190600481106120cb57634e487b7160e01b600052602160045260246000fd5b8060a08401525060c08301516120ec60c08401826001600160a01b03169052565b5092915050565b6020808252825182820181905260009190848201906040850190845b818110156121345783516001600160a01b03168352928401929184019160010161210f565b50909695505050505050565b8015158114610c6057600080fd5b6000806040838503121561216157600080fd5b61216a83611f34565b9150602083013561217a81612140565b809150509250929050565b6020808252825182820181905260009190848201906040850190845b81811015612134578351835292840192918401916001016121a1565b600080604083850312156121d057600080fd5b6121d983611f34565b946020939093013593505050565b634e487b7160e01b600052604160045260246000fd5b60008060006060848603121561221257600080fd5b8335925060208401359150604084013567ffffffffffffffff8082111561223857600080fd5b818601915086601f83011261224c57600080fd5b81358181111561225e5761225e6121e7565b604051601f8201601f19908116603f01168101908382118183101715612286576122866121e7565b8160405282815289602084870101111561229f57600080fd5b8260208601602083013760006020848301015280955050505050509250925092565b600080600080608085870312156122d757600080fd5b843593506122e760208601611f34565b9250604085013591506122fc60608601611f83565b905092959194509250565b634e487b7160e01b600052601160045260246000fd5b81810381811115610cf557610cf5612307565b60006020828403121561234257600080fd5b8151610f3e81612140565b6020808252601590820152742737ba1030baba3437b934bd32b2103632b73232b960591b604082015260600190565b6020808252600f908201526e4c6f616e206e6f742061637469766560881b604082015260600190565b80820180821115610cf557610cf5612307565b6000600182016123ca576123ca612307565b5060010190565b634e487b7160e01b600052603260045260246000fdfea264697066735822122012a03e8e443a1e9cb85863709f825bfa5c751552b856010ffae1da1af9c199ae64736f6c63430008140033",
  "linkReferences": {},
  "deployedLinkReferences": {}
}