{
  "_format": "hh-sol-artifact-1",
  "contractName": "CreditRegistryV3",
  "sourceName": "contracts/CreditRegistryV3.sol",
  "abi": [
    {
      "inputs": [
        {
          "internalType": "address",
          "name": "_stakingToken",
          "type": "address"
        },
        {
          "internalType": "address",
          "name": "_kycIssuer",
          "type": "address"
        }
      ],
      "stateMutability": "nonpayable",
      "type": "constructor"
    },
    {
      "inputs": [],
      "name": "ECDSAInvalidSignature",
      "type": "error"
    },
    {
      "inputs": [
        {
          "internalType": "uint256",
          "name": "length",
          "type": "uint256"
        }
      ],
      "name": "ECDSAInvalidSignatureLength",
      "type": "error"
    },
    {
      "inputs": [
        {
          "internalType": "bytes32",
          "name": "s",
          "type": "bytes32"
        }
      ],
      "name": "ECDSAInvalidSignatureS",
      "type": "error"
    },
    {
      "inputs": [
        {
          "internalType": "address",
          "name": "owner",
          "type": "address"
        }
      ],
      "name": "OwnableInvalidOwner",
      "type": "error"
    },
    {
      "inputs": [
        {
          "internalType": "address",
          "name": "account",
          "type": "address"
        }
      ],
      "name": "OwnableUnauthorizedAccount",
      "type": "error"
    },
    {
      "inputs": [],
      "name": "ReentrancyGuardReentrantCall",
      "type": "error"
    },
    {
      "anonymous": false,
      "inputs": [
        {
          "indexed": true,
          "internalType": "address",
          "name": "sender",
          "type": "address"
        },
        {
          "indexed": false,
          "internalType": "bool",
          "name": "allowed",
          "type": "bool"
        }
      ],
      "name": "CCIPSenderAuthorized",
      "type": "event"
    },
    {
      "anonymous": false,
      "inputs": [
        {
          "indexed": true,
          "internalType": "uint256",
          "name": "loanId",
          "type": "uint256"
        },
        {
          "indexed": true,
          "internalType": "address",
          "name": "collateralToken",
          "type": "address"
        },
        {
          "indexed": false,
          "internalType": "uint256",
          "name": "collateralValueUsd18",
          "type": "uint256"
        },
        {
          "indexed": false,
          "internalType": "uint16",
          "name": "userScore",
          "type": "uint16"
        }
      ],
      "name": "CollateralDataRecorded",
      "type": "event"
    },
    {
      "anonymous": false,
      "inputs": [
        {
          "indexed": true,
          "internalType": "address",
          "name": "user",
          "type": "address"
        },
        {
          "indexed": true,
          "internalType": "uint64",
          "name": "sourceChainSelector",
          "type": "uint64"
        },
        {
          "indexed": false,
          "internalType": "uint16",
          "name": "score",
          "type": "uint16"
        },
        {
          "indexed": false,
          "internalType": "uint256",
          "name": "timestamp",
          "type": "uint256"
        }
      ],
      "name": "CrossChainReputationReceived",
      "type": "event"
    },
    {
      "anonymous": false,
      "inputs": [
        {
          "indexed": true,
          "internalType": "address",
          "name": "wallet",
          "type": "address"
        },
        {
          "indexed": false,
          "internalType": "uint256",
          "name": "timestamp",
          "type": "uint256"
        }
      ],
      "name": "FirstSeenRecorded",
      "type": "event"
    },
    {
      "anonymous": false,
      "inputs": [
        {
          "indexed": true,
          "internalType": "address",
          "name": "governance",
          "type": "address"
        },
        {
          "indexed": false,
          "internalType": "bool",
          "name": "allowed",
          "type": "bool"
        }
      ],
      "name": "GovernanceAuthorized",
      "type": "event"
    },
    {
      "anonymous": false,
      "inputs": [
        {
          "indexed": true,
          "internalType": "address",
          "name": "user",
          "type": "address"
        },
        {
          "indexed": false,
          "internalType": "bytes32",
          "name": "credentialHash",
          "type": "bytes32"
        },
        {
          "indexed": false,
          "internalType": "uint256",
          "name": "expiresAt",
          "type": "uint256"
        }
      ],
      "name": "KYCVerified",
      "type": "event"
    },
    {
      "anonymous": false,
      "inputs": [
        {
          "indexed": true,
          "internalType": "address",
          "name": "lender",
          "type": "address"
        },
        {
          "indexed": false,
          "internalType": "bool",
          "name": "allowed",
          "type": "bool"
        }
      ],
      "name": "LenderAuthorized",
      "type": "event"
    },
    {
      "anonymous": false,
      "inputs": [
        {
          "indexed": true,
          "internalType": "address",
          "name": "borrower",
          "type": "address"
        },
        {
          "indexed": true,
          "internalType": "uint256",
          "name": "loanId",
          "type": "uint256"
        },
        {
          "indexed": false,
          "internalType": "uint256",
          "name": "amountUsd18",
          "type": "uint256"
        },
        {
          "indexed": false,
          "internalType": "uint256",
          "name": "timestamp",
          "type": "uint256"
        },
        {
          "indexed": true,
          "internalType": "address",
          "name": "liquidator",
          "type": "address"
        }
      ],
      "name": "LiquidationRegistered",
      "type": "event"
    },
    {
      "anonymous": false,
      "inputs": [
        {
          "indexed": true,
          "internalType": "address",
          "name": "borrower",
          "type": "address"
        },
        {
          "indexed": true,
          "internalType": "uint256",
          "name": "loanId",
          "type": "uint256"
        },
        {
          "indexed": false,
          "internalType": "uint256",
          "name": "principalUsd18",
          "type": "uint256"
        },
        {
          "indexed": false,
          "internalType": "uint256",
          "name": "timestamp",
          "type": "uint256"
        },
        {
          "indexed": true,
          "internalType": "address",
          "name": "lender",
          "type": "address"
        }
      ],
      "name": "LoanRegistered",
      "type": "event"
    },
    {
      "anonymous": false,
      "inputs": [
        {
          "indexed": true,
          "internalType": "address",
          "name": "previousOwner",
          "type": "address"
        },
        {
          "indexed": true,
          "internalType": "address",
          "name": "newOwner",
          "type": "address"
        }
      ],
      "name": "OwnershipTransferred",
      "type": "event"
    },
    {
      "anonymous": false,
      "inputs": [
        {
          "indexed": true,
          "internalType": "address",
          "name": "proposer",
          "type": "address"
        },
        {
          "indexed": true,
          "internalType": "uint256",
          "name": "proposalId",
          "type": "uint256"
        },
        {
          "indexed": false,
          "internalType": "uint256",
          "name": "timestamp",
          "type": "uint256"
        }
      ],
      "name": "ProposalRecorded",
      "type": "event"
    },
    {
      "anonymous": false,
      "inputs": [
        {
          "indexed": true,
          "internalType": "address",
          "name": "borrower",
          "type": "address"
        },
        {
          "indexed": true,
          "internalType": "uint256",
          "name": "loanId",
          "type": "uint256"
        },
        {
          "indexed": false,
          "internalType": "uint256",
          "name": "amountUsd18",
          "type": "uint256"
        },
        {
          "indexed": false,
          "internalType": "uint256",
          "name": "timestamp",
          "type": "uint256"
        },
        {
          "indexed": true,
          "internalType": "address",
          "name": "payer",
          "type": "address"
        }
      ],
      "name": "RepaymentRegistered",
      "type": "event"
    },
    {
      "anonymous": false,
      "inputs": [
        {
          "indexed": true,
          "internalType": "address",
          "name": "staker",
          "type": "address"
        },
        {
          "indexed": false,
          "internalType": "uint256",
          "name": "amount",
          "type": "uint256"
        },
        {
          "indexed": false,
          "internalType": "uint256",
          "name": "lockUntil",
          "type": "uint256"
        }
      ],
      "name": "StakeDeposited",
      "type": "event"
    },
    {
      "anonymous": false,
      "inputs": [
        {
          "indexed": true,
          "internalType": "address",
          "name": "staker",
          "type": "address"
        },
        {
          "indexed": false,
          "internalType": "uint256",
          "name": "amount",
          "type": "uint256"
        }
      ],
      "name": "StakeWithdrawn",
      "type": "event"
    },
    {
      "anonymous": false,
      "inputs": [
        {
          "indexed": true,
          "internalType": "address",
          "name": "voter",
          "type": "address"
        },
        {
          "indexed": true,
          "internalType": "uint256",
          "name": "proposalId",
          "type": "uint256"
        },
        {
          "indexed": false,
          "internalType": "uint256",
          "name": "timestamp",
          "type": "uint256"
        }
      ],
      "name": "VoteRecorded",
      "type": "event"
    },
    {
      "inputs": [
        {
          "internalType": "address",
          "name": "",
          "type": "address"
        }
      ],
      "name": "aggregateCreditData",
      "outputs": [
        {
          "internalType": "uint256",
          "name": "totalLoans",
          "type": "uint256"
        },
        {
          "internalType": "uint256",
          "name": "repaidLoans",
          "type": "uint256"
        },
        {
          "internalType": "uint256",
          "name": "liquidatedLoans",
          "type": "uint256"
        },
        {
          "internalType": "uint256",
          "name": "activeLoans",
          "type": "uint256"
        },
        {
          "internalType": "uint256",
          "name": "totalCollateralUsd18",
          "type": "uint256"
        },
        {
          "internalType": "uint256",
          "name": "totalBorrowedUsd18",
          "type": "uint256"
        },
        {
          "internalType": "uint256",
          "name": "maxLtvBorrowCount",
          "type": "uint256"
        },
        {
          "internalType": "uint256",
          "name": "firstSeen",
          "type": "uint256"
        },
        {
          "components": [
            {
              "internalType": "bytes32",
              "name": "credentialHash",
              "type": "bytes32"
            },
            {
              "internalType": "uint256",
              "name": "verifiedAt",
              "type": "uint256"
            },
            {
              "internalType": "uint256",
              "name": "expiresAt",
              "type": "uint256"
            }
          ],
          "internalType": "struct CreditRegistryV3.KYCProof",
          "name": "kyc",
          "type": "tuple"
        },
        {
          "components": [
            {
              "internalType": "uint256",
              "name": "amount",
              "type": "uint256"
            },
            {
              "internalType": "uint256",
              "name": "lockUntil",
              "type": "uint256"
            }
          ],
          "internalType": "struct CreditRegistryV3.StakeInfo",
          "name": "stake",
          "type": "tuple"
        }
      ],
      "stateMutability": "view",
      "type": "function"
    },
    {
      "inputs": [
        {
          "internalType": "address",
          "name": "",
          "type": "address"
        }
      ],
      "name": "authorizedCCIPSenders",
      "outputs": [
        {
          "internalType": "bool",
          "name": "",
          "type": "bool"
        }
      ],
      "stateMutability": "view",
      "type": "function"
    },
    {
      "inputs": [
        {
          "internalType": "address",
          "name": "",
          "type": "address"
        }
      ],
      "name": "authorizedGovernance",
      "outputs": [
        {
          "internalType": "bool",
          "name": "",
          "type": "bool"
        }
      ],
      "stateMutability": "view",
      "type": "function"
    },
    {
      "inputs": [
        {
          "internalType": "address",
          "name": "",
          "type": "address"
        }
      ],
      "name": "authorizedLenders",
      "outputs": [
        {
          "internalType": "bool",
          "name": "",
          "type": "bool"
        }
      ],
      "stateMutability": "view",
      "type": "function"
    },
    {
      "inputs": [
        {
          "internalType": "address",
          "name": "",
          "type": "address"
        },
        {
          "internalType": "uint64",
          "name": "",
          "type": "uint64"
        }
      ],
      "name": "crossChainScores",
      "outputs": [
        {
          "internalType": "uint16",
          "name": "overallScore",
          "type": "uint16"
        },
        {
          "internalType": "uint256",
          "name": "totalLoans",
          "type": "uint256"
        },
        {
          "internalType": "uint256",
          "name": "repaidLoans",
          "type": "uint256"
        },
        {
          "internalType": "uint256",
          "name": "updatedAt",
          "type": "uint256"
        }
      ],
      "stateMutability": "view",
      "type": "function"
    },
    {
      "inputs": [
        {
          "internalType": "address",
          "name": "user",
          "type": "address"
        }
      ],
      "name": "getAggregateCreditData",
      "outputs": [
        {
          "components": [
            {
              "internalType": "uint256",
              "name": "totalLoans",
              "type": "uint256"
            },
            {
              "internalType": "uint256",
              "name": "repaidLoans",
              "type": "uint256"
            },
            {
              "internalType": "uint256",
              "name": "liquidatedLoans",
              "type": "uint256"
            },
            {
              "internalType": "uint256",
              "name": "activeLoans",
              "type": "uint256"
            },
            {
              "internalType": "uint256",
              "name": "totalCollateralUsd18",
              "type": "uint256"
            },
            {
              "internalType": "uint256",
              "name": "totalBorrowedUsd18",
              "type": "uint256"
            },
            {
              "internalType": "uint256",
              "name": "maxLtvBorrowCount",
              "type": "uint256"
            },
            {
              "internalType": "uint256",
              "name": "firstSeen",
              "type": "uint256"
            },
            {
              "components": [
                {
                  "internalType": "bytes32",
                  "name": "credentialHash",
                  "type": "bytes32"
                },
                {
                  "internalType": "uint256",
                  "name": "verifiedAt",
                  "type": "uint256"
                },
                {
                  "internalType": "uint256",
                  "name": "expiresAt",
                  "type": "uint256"
                }
              ],
              "internalType": "struct CreditRegistryV3.KYCProof",
              "name": "kyc",
              "type": "tuple"
            },
            {
              "components": [
                {
                  "internalType": "uint256",
                  "name": "amount",
                  "type": "uint256"
                },
                {
                  "internalType": "uint256",
                  "name": "lockUntil",
                  "type": "uint256"
                }
              ],
              "internalType": "struct CreditRegistryV3.StakeInfo",
              "name": "stake",
              "type": "tuple"
            }
          ],
          "internalType": "struct CreditRegistryV3.AggregateCreditData",
          "name": "",
          "type": "tuple"
        }
      ],
      "stateMutability": "view",
      "type": "function"
    },
    {
      "inputs": [
        {
          "internalType": "uint256",
          "name": "loanId",
          "type": "uint256"
        }
      ],
      "name": "getCollateralData",
      "outputs": [
        {
          "components": [
            {
              "internalType": "address",
              "name": "collateralToken",
              "type": "address"
            },
            {
              "internalType": "uint256",
              "name": "collateralValueUsd18",
              "type": "uint256"
            },
            {
              "internalType": "uint256",
              "name": "principalUsd18",
              "type": "uint256"
            },
            {
              "internalType": "uint16",
              "name": "userScoreAtBorrow",
              "type": "uint16"
            }
          ],
          "internalType": "struct CreditRegistryV3.CollateralData",
          "name": "",
          "type": "tuple"
        }
      ],
      "stateMutability": "view",
      "type": "function"
    },
    {
      "inputs": [
        {
          "internalType": "address",
          "name": "user",
          "type": "address"
        },
        {
          "internalType": "uint64",
          "name": "chainSelector",
          "type": "uint64"
        }
      ],
      "name": "getCrossChainScore",
      "outputs": [
        {
          "components": [
            {
              "internalType": "uint16",
              "name": "overallScore",
              "type": "uint16"
            },
            {
              "internalType": "uint256",
              "name": "totalLoans",
              "type": "uint256"
            },
            {
              "internalType": "uint256",
              "name": "repaidLoans",
              "type": "uint256"
            },
            {
              "internalType": "uint256",
              "name": "updatedAt",
              "type": "uint256"
            }
          ],
          "internalType": "struct CreditRegistryV3.CrossChainScore",
          "name": "",
          "type": "tuple"
        }
      ],
      "stateMutability": "view",
      "type": "function"
    },
    {
      "inputs": [
        {
          "internalType": "address",
          "name": "wallet",
          "type": "address"
        }
      ],
      "name": "getFirstSeen",
      "outputs": [
        {
          "internalType": "uint256",
          "name": "",
          "type": "uint256"
        }
      ],
      "stateMutability": "view",
      "type": "function"
    },
    {
      "inputs": [
        {
          "internalType": "address",
          "name": "user",
          "type": "address"
        }
      ],
      "name": "getGovernanceActivity",
      "outputs": [
        {
          "components": [
            {
              "internalType": "uint256",
              "name": "voteCount",
              "type": "uint256"
            },
            {
              "internalType": "uint256",
              "name": "proposalCount",
              "type": "uint256"
            },
            {
              "internalType": "uint256",
              "name": "lastVoteTimestamp",
              "type": "uint256"
            },
            {
              "internalType": "uint256",
              "name": "lastProposalTimestamp",
              "type": "uint256"
            }
          ],
          "internalType": "struct CreditRegistryV3.GovernanceActivity",
          "name": "",
          "type": "tuple"
        }
      ],
      "stateMutability": "view",
      "type": "function"
    },
    {
      "inputs": [
        {
          "internalType": "address",
          "name": "user",
          "type": "address"
        }
      ],
      "name": "getKYCProof",
      "outputs": [
        {
          "components": [
            {
              "internalType": "bytes32",
              "name": "credentialHash",
              "type": "bytes32"
            },
            {
              "internalType": "uint256",
              "name": "verifiedAt",
              "type": "uint256"
            },
            {
              "internalType": "uint256",
              "name": "expiresAt",
              "type": "uint256"
            }
          ],
          "internalType": "struct CreditRegistryV3.KYCProof",
          "name": "",
          "type": "tuple"
        }
      ],
      "stateMutability": "view",
      "type": "function"
    },
    {
      "inputs": [
        {
          "internalType": "uint256",
          "name": "loanId",
          "type": "uint256"
        }
      ],
      "name": "getLoan",
      "outputs": [
        {
          "components": [
            {
              "internalType": "uint256",
              "name": "loanId",
              "type": "uint256"
            },
            {
              "internalType": "address",
              "name": "borrower",
              "type": "address"
            },
            {
              "internalType": "uint256",
              "name": "principalUsd18",
              "type": "uint256"
            },
            {
              "internalType": "uint256",
              "name": "repaidUsd18",
              "type": "uint256"
            },
            {
              "internalType": "uint256",
              "name": "timestamp",
              "type": "uint256"
            },
            {
              "internalType": "enum CreditRegistryV3.LoanStatus",
              "name": "status",
              "type": "uint8"
            },
            {
              "internalType": "address",
              "name": "lender",
              "type": "address"
            }
          ],
          "internalType": "struct CreditRegistryV3.LoanRecord",
          "name": "",
          "type": "tuple"
        }
      ],
      "stateMutability": "view",
      "type": "function"
    },
    {
      "inputs": [
        {
          "internalType": "address",
          "name": "borrower",
          "type": "address"
        }
      ],
      "name": "getLoanIdsByBorrower",
      "outputs": [
        {
          "internalType": "uint256[]",
          "name": "",
          "type": "uint256[]"
        }
      ],
      "stateMutability": "view",
      "type": "function"
    },
    {
      "inputs": [
        {
          "internalType": "address",
          "name": "user",
          "type": "address"
        }
      ],
      "name": "getStakeInfo",
      "outputs": [
        {
          "components": [
            {
              "internalType": "uint256",
              "name": "amount",
              "type": "uint256"
            },
            {
              "internalType": "uint256",
              "name": "lockUntil",
              "type": "uint256"
            }
          ],
          "internalType": "struct CreditRegistryV3.StakeInfo",
          "name": "",
          "type": "tuple"
        }
      ],
      "stateMutability": "view",
      "type": "function"
    },
    {
      "inputs": [
        {
          "internalType": "address",
          "name": "user",
          "type": "address"
        }
      ],
      "name": "getUserCollateralAssets",
      "outputs": [
        {
          "internalType": "address[]",
          "name": "",
          "type": "address[]"
        }
      ],
      "stateMutability": "view",
      "type": "function"
    },
    {
      "inputs": [
        {
          "internalType": "address",
          "name": "",
          "type": "address"
        }
      ],
      "name": "governanceActivity",
      "outputs": [
        {
          "internalType": "uint256",
          "name": "voteCount",
          "type": "uint256"
        },
        {
          "internalType": "uint256",
          "name": "proposalCount",
          "type": "uint256"
        },
        {
          "internalType": "uint256",
          "name": "lastVoteTimestamp",
          "type": "uint256"
        },
        {
          "internalType": "uint256",
          "name": "lastProposalTimestamp",
          "type": "uint256"
        }
      ],
      "stateMutability": "view",
      "type": "function"
    },
    {
      "inputs": [
        {
          "internalType": "address",
          "name": "user",
          "type": "address"
        }
      ],
      "name": "isKYCVerified",
      "outputs": [
        {
          "internalType": "bool",
          "name": "",
          "type": "bool"
        }
      ],
      "stateMutability": "view",
      "type": "function"
    },
    {
      "inputs": [],
      "name": "kycIssuer",
      "outputs": [
        {
          "internalType": "address",
          "name": "",
          "type": "address"
        }
      ],
      "stateMutability": "view",
      "type": "function"
    },
    {
      "inputs": [
        {
          "internalType": "uint256",
          "name": "",
          "type": "uint256"
        }
      ],
      "name": "loanCollateralData",
      "outputs": [
        {
          "internalType": "address",
          "name": "collateralToken",
          "type": "address"
        },
        {
          "internalType": "uint256",
          "name": "collateralValueUsd18",
          "type": "uint256"
        },
        {
          "internalType": "uint256",
          "name": "principalUsd18",
          "type": "uint256"
        },
        {
          "internalType": "uint16",
          "name": "userScoreAtBorrow",
          "type": "uint16"
        }
      ],
      "stateMutability": "view",
      "type": "function"
    },
    {
      "inputs": [],
      "name": "owner",
      "outputs": [
        {
          "internalType": "address",
          "name": "",
          "type": "address"
        }
      ],
      "stateMutability": "view",
      "type": "function"
    },
    {
      "inputs": [
        {
          "internalType": "address",
          "name": "user",
          "type": "address"
        },
        {
          "internalType": "uint64",
          "name": "sourceChainSelector",
          "type": "uint64"
        },
        {
          "internalType": "uint16",
          "name": "overallScore",
          "type": "uint16"
        },
        {
          "internalType": "uint256",
          "name": "totalLoans",
          "type": "uint256"
        },
        {
          "internalType": "uint256",
          "name": "repaidLoans",
          "type": "uint256"
        }
      ],
      "name": "receiveCrossChainReputation",
      "outputs": [],
      "stateMutability": "nonpayable",
      "type": "function"
    },
    {
      "inputs": [
        {
          "internalType": "uint256",
          "name": "loanId",
          "type": "uint256"
        },
        {
          "internalType": "address",
          "name": "collateralToken",
          "type": "address"
        },
        {
          "internalType": "uint256",
          "name": "collateralValueUsd18",
          "type": "uint256"
        },
        {
          "internalType": "uint16",
          "name": "userScore",
          "type": "uint16"
        }
      ],
      "name": "recordCollateralData",
      "outputs": [],
      "stateMutability": "nonpayable",
      "type": "function"
    },
    {
      "inputs": [
        {
          "internalType": "address",
          "name": "proposer",
          "type": "address"
        },
        {
          "internalType": "uint256",
          "name": "proposalId",
          "type": "uint256"
        }
      ],
      "name": "recordProposal",
      "outputs": [],
      "stateMutability": "nonpayable",
      "type": "function"
    },
    {
      "inputs": [
        {
          "internalType": "address",
          "name": "voter",
          "type": "address"
        },
        {
          "internalType": "uint256",
          "name": "proposalId",
          "type": "uint256"
        }
      ],
      "name": "recordVote",
      "outputs": [],
      "stateMutability": "nonpayable",
      "type": "function"
    },
    {
      "inputs": [
        {
          "internalType": "uint256",
          "name": "loanId",
          "type": "uint256"
        },
        {
          "internalType": "uint256",
          "name": "recoveredUsd18",
          "type": "uint256"
        }
      ],
      "name": "registerLiquidation",
      "outputs": [],
      "stateMutability": "nonpayable",
      "type": "function"
    },
    {
      "inputs": [
        {
          "internalType": "address",
          "name": "borrower",
          "type": "address"
        },
        {
          "internalType": "uint256",
          "name": "principalUsd18",
          "type": "uint256"
        }
      ],
      "name": "registerLoan",
      "outputs": [
        {
          "internalType": "uint256",
          "name": "",
          "type": "uint256"
        }
      ],
      "stateMutability": "nonpayable",
      "type": "function"
    },
    {
      "inputs": [
        {
          "internalType": "uint256",
          "name": "loanId",
          "type": "uint256"
        },
        {
          "internalType": "uint256",
          "name": "amountUsd18",
          "type": "uint256"
        }
      ],
      "name": "registerRepayment",
      "outputs": [],
      "stateMutability": "nonpayable",
      "type": "function"
    },
    {
      "inputs": [],
      "name": "renounceOwnership",
      "outputs": [],
      "stateMutability": "nonpayable",
      "type": "function"
    },
    {
      "inputs": [
        {
          "internalType": "address",
          "name": "sender",
          "type": "address"
        },
        {
          "internalType": "bool",
          "name": "allowed",
          "type": "bool"
        }
      ],
      "name": "setAuthorizedCCIPSender",
      "outputs": [],
      "stateMutability": "nonpayable",
      "type": "function"
    },
    {
      "inputs": [
        {
          "internalType": "address",
          "name": "governance",
          "type": "address"
        },
        {
          "internalType": "bool",
          "name": "allowed",
          "type": "bool"
        }
      ],
      "name": "setAuthorizedGovernance",
      "outputs": [],
      "stateMutability": "nonpayable",
      "type": "function"
    },
    {
      "inputs": [
        {
          "internalType": "address",
          "name": "lender",
          "type": "address"
        },
        {
          "internalType": "bool",
          "name": "allowed",
          "type": "bool"
        }
      ],
      "name": "setAuthorizedLender",
      "outputs": [],
      "stateMutability": "nonpayable",
      "type": "function"
    },
    {
      "inputs": [
        {
          "internalType": "address",
          "name": "_kycIssuer",
          "type": "address"
        }
      ],
      "name": "setKYCIssuer",
      "outputs": [],
      "stateMutability": "nonpayable",
      "type": "function"
    },
    {
      "inputs": [
        {
          "internalType": "uint256",
          "name": "amount",
          "type": "uint256"
        }
      ],
      "name": "stake",
      "outputs": [],
      "stateMutability": "nonpayable",
      "type": "function"
    },
    {
      "inputs": [],
      "name": "stakingToken",
      "outputs": [
        {
          "internalType": "contract IERC20",
          "name": "",
          "type": "address"
        }
      ],
      "stateMutability": "view",
      "type": "function"
    },
    {
      "inputs": [
        {
          "internalType": "bytes32",
          "name": "credentialHash",
          "type": "bytes32"
        },
        {
          "internalType": "uint256",
          "name": "expiresAt",
          "type": "uint256"
        },
        {
          "internalType": "bytes",
          "name": "signature",
          "type": "bytes"
        }
      ],
      "name": "submitKYCProof",
      "outputs": [],
      "stateMutability": "nonpayable",
      "type": "function"
    },
    {
      "inputs": [
        {
          "internalType": "address",
          "name": "newOwner",
          "type": "address"
        }
      ],
      "name": "transferOwnership",
      "outputs": [],
      "stateMutability": "nonpayable",
      "type": "function"
    },
    {
      "inputs": [
        {
          "internalType": "uint256",
          "name": "amount",
          "type": "uint256"
        }
      ],
      "name": "unstake",
      "outputs": [],
      "stateMutability": "nonpayable",
      "type": "function"
    }
  ],
  "bytecode": "0x608034620000f557601f6200238238819003918201601f19168301916001600160401b03831184841017620000fa578084926040948552833981010312620000f5576200005a6020620000528362000110565b920162000110565b3315620000dc5760008054336001600160a01b0319808316821784556040519590946001600160a01b03949093859391908416907f8be0079c531659141344cd1fd0a4f28419497f9722a3daafe3b4186f6b6457e09080a3600180556001600555168360085416176008551690600954161760095561225c9081620001268239f35b604051631e4fbdf760e01b815260006004820152602490fd5b600080fd5b634e487b7160e01b600052604160045260246000fd5b51906001600160a01b0382168203620000f55756fe6080604052600436101561001257600080fd5b60e0600035811c9081630a97bde414611ba85781630d9439c114611b4c57816316b5b09c14611a165781632c287f98146119d75781632e17de78146118835781632ff18c0c1461181c5781633539ff15146117c2578163391c39941461178557816340c7e39d146116d95781634d35593c146115ef5781634db332ba1461145e578163504006ca1461135e57816354b7636e146112fc5781635bb2376e14611249578163715018a6146111f057816372f702f3146111c75781637644dd17146111885781637ee43c8a1461112257816380225f7e146110df57816386160a16146110615781638da5cb5b146110385781638db92e4e14610f845781638ef6dce914610e82578163999a2f4014610c8d578163a446b90014610bf2578163a694fc3a14610ae1578163b1707394146108f0578163b297482e1461088a578163c345315314610829578163c45831a91461078b578163ced3c9811461071e578163dac3d308146106f5578163dcce2e08146103e3578163eb905ce81461030f57508063f2fde38b14610286578063f4108794146101fa5763fcc23004146101b657600080fd5b346101f55760203660031901126101f5576001600160a01b036101d7611c31565b16600052600d602052602060ff604060002054166040519015158152f35b600080fd5b346101f55760203660031901126101f557610213612201565b50600435600052600660205260806040600020600360405161023481611cc3565b60018060a01b038354169283825260018101546020830190815260606002830154926040850193845261ffff958691015416930192835260405194855251602085015251604084015251166060820152f35b346101f55760203660031901126101f55761029f611c31565b6102a7611db8565b6001600160a01b039081169081156102f657600054826001600160601b0360a01b821617600055167f8be0079c531659141344cd1fd0a4f28419497f9722a3daafe3b4186f6b6457e0600080a3005b604051631e4fbdf760e01b815260006004820152602490fd5b346101f55760203660031901126101f5576101a0906001600160a01b03610334611c31565b16600052600260205260206040600020916103d18354936001810154926002820154906003830154600484015460058501549060068601549260078701549561038b600b61038460088b01611d72565b9901611d9a565b996040519c8d528b8d015260408c015260608b015260808a015260a089015260c08801528601526101008501906040809180518452602081015160208501520151910152565b80516101608401520151610180820152f35b346101f55760803660031901126101f5576024356001600160a01b038116908181036101f5576064359061ffff821682036101f55733600052600c60205261043260ff60406000205416611de4565b600435600052600360205261045d600160ff6005604060002001541661045781611c74565b14611e65565b600435600052600360205260406000209060056040519261047d84611cfc565b8054845260018101546001600160a01b03166020850152600281015460408501526003810154606085015260048101546080850152015460ff81166104c181611c74565b60a084015260081c6001600160a01b031660c0830152604080830151905161ffff906003906104ef81611cc3565b878152604435602082015260408101938452606081019383881685526004356000526006602052602060406000209260018060a01b038151166001600160601b0360a01b855416178455015160018301555160028201550191511661ffff1982541617905560018060a01b036020830151166000526002602052604060002090600482016105806044358254611ede565b9055604083015161059660058401918254611ede565b90556040830151916064830292808404606414901517156106c957604435156106df5761ffff6105c586611ef8565b1692605f840293808504605f14901517156106c9576064610602940490604435900410156106b4575b5060208301516001600160a01b0316611f2c565b15610645575b5061ffff6040519160443583521660208201527f9441d3414c1707a23ed1588ab029d3d4c740bf06fc0163357b45cd352f990f70604060043592a3005b602060018060a01b0391015116600052600760205260406000208054600160401b81101561069e5761067c91600182018155611e37565b81546001600160a01b0360039290921b91821b19169084901b17905582610608565b634e487b7160e01b600052604160045260246000fd5b6006016106c18154611e28565b9055856105ee565b634e487b7160e01b600052601160045260246000fd5b634e487b7160e01b600052601260045260246000fd5b346101f55760003660031901126101f5576009546040516001600160a01b039091168152602090f35b346101f55760207f70c00f8b1add5e4221a3aa6b3a55a3a0746ddb7c4c9a7f23187f816c56ac2bad61074f36611c94565b9290610759611db8565b6001600160a01b03166000818152600d835260409020805460ff191660ff86151516179055925b6040519015158152a2005b346101f55760403660031901126101f5576107a4611c31565b33600052600e6020526107be60ff60406000205416612196565b6001600160a01b03166000818152600b6020526040902060010180546107e390611e28565b905580600052600b60205242600360406000200155604051904282527f831900954074f7455449f3209f747f130bf3b7cda14d3f736f158370ffc51400602060243593a3005b346101f55760203660031901126101f557610842611c31565b6000602060405161085281611d34565b828152015260018060a01b031660005260026020526040610878600b8260002001611d9a565b60208251918051835201516020820152f35b346101f55760207faf3b5a9cdec6c86041c875d4433b97a76f4ba0faa73ee88c830c699a3d76ef0c6108bb36611c94565b92906108c5611db8565b6001600160a01b03166000818152600e835260409020805460ff191660ff8615151617905592610780565b346101f55760603660031901126101f55760043560248035906044359067ffffffffffffffff8083116101f557366023840112156101f5578260040135908111610acc576040516020939061094e601f8401601f1916860182611d50565b828152368484840101116101f557600085846109d595876109cc96018386013783010152604051858101903360601b82528860348201528760548201526054815261099881611cc3565b5190207f19457468657265756d205369676e6564204d6573736167653a0a333200000000600052601c52603c600020611fca565b90929192612096565b6009546001600160a01b03908116911603610a915742831115610a5a5750336000526002815281600a60406000208260408051610a1181611d18565b8881524287820152015285600882015542600982015501556040519283528201527ff79bdf1b7d434a5250254c74d2900f9edaf4d76396642ddaddcb2d0e6525586860403392a2005b9060116064926040519262461bcd60e51b845260048401528201527012d650c81c1c9bdbd988195e1c1a5c9959607a1b6044820152fd5b9060156064926040519262461bcd60e51b8452600484015282015274496e76616c6964204b5943207369676e617475726560581b6044820152fd5b50634e487b7160e01b60009081526041600452fd5b346101f5576020806003193601126101f55760043590610aff612173565b610b0a821515612121565b6008546040516323b872dd60e01b815233600482015230602482015260448101849052908290829060649082906000906001600160a01b03165af18015610be657610bb9575b503360005260028152604060002090600b8201610b6e848254611ede565b905562278d004201918242116106c957600c839101556040519283528201527f05cce4a371bf9816b1a7594f1d76c98eba4ed025ff3e471234ae598f17899bd460403392a260018055005b610bd890823d8411610bdf575b610bd08183611d50565b81019061215b565b5082610b50565b503d610bc6565b6040513d6000823e3d90fd5b346101f55760403660031901126101f557610c0b611c31565b33600052600e602052610c2560ff60406000205416612196565b6001600160a01b03166000818152600b602052604090208054610c4790611e28565b905580600052600b60205242600260406000200155604051904282527f30befe21dd895620c3a73403f6e63aea5c3c6729202dbdc8eef2e8f8bd78de80602060243593a3005b346101f55760403660031901126101f557610ca6611c31565b6024359033600052602091600c8352610cc660ff60406000205416611de4565b60055491610cd383611e28565b60055560405190610ce382611cfc565b83825284820190600560018060a01b0380921693848452604081018681526060820160008152608083019142835260a08401966001885260c08501963388528b60005260038d52604060002095518655600186019151166001600160601b0360a01b82541617905551600284015551600383015551600482015501915190610d6a82611c74565b610d7382611c74565b60ff835491610100600160a81b03905160081b169216906affffffffffffffffffffff60a81b16171790558060005260048452604060002090815491600160401b83101561069e5782610dcc9160018795018155611e37565b81549060031b9084821b91600019901b1916179055806000526002855260076040600020610dfa8154611e28565b815560038101610e0a8154611e28565b905501805415610e4f575b5060405192835242858401527f8f4051137ee17dad566f459b318cc7bf9781d5afa1cd9b5262c2b1231b3f2e8560403394a4604051908152f35b429055807f786c11af1c6b4162ea93236e732e32873d8ac3a6ea0d1ae32b38840ecd375a2a86604051428152a285610e15565b346101f557610e9036611c5e565b9033600052600c602052610eab60ff60406000205416611de4565b806000526003602052604060002060016005820191825492610ed48360ff861661045781611c74565b828060a01b0393610eeb33868360081c1614611ea3565b60038301610efa888254611ede565b80915560028401541115610f42575b50500154166040519283524260208401527fd393845a15e253c2056008d7581a313611dad1db01b660bb2e4e4a09dd22b35360403394a4005b60029060ff1916179055828282015416600052600260205260036040600020838101610f6e8154611e28565b905501610f7b8154611eeb565b90558580610f09565b346101f5576020806003193601126101f5576001600160a01b03610fa6611c31565b1660005260048152604060002060405190818382549182815201908192600052846000209060005b86828210611024578686610fe482880383611d50565b604051928392818401908285525180915260408401929160005b82811061100d57505050500390f35b835185528695509381019392810192600101610ffe565b835485529093019260019283019201610fce565b346101f55760003660031901126101f5576000546040516001600160a01b039091168152602090f35b346101f55760403660031901126101f55761107a611c31565b611082611c47565b9060018060a01b0316600052600a60205267ffffffffffffffff604060002091166000526020526080604060002061ffff815416906001810154906003600282015491015491604051938452602084015260408301526060820152f35b346101f55760203660031901126101f5576110f8611c31565b611100611db8565b600980546001600160a01b0319166001600160a01b0392909216919091179055005b346101f55760207f854b7acf01e906a6a59a420e42dbfeb0c32d87790e2a7f4779581d899aed81d161115336611c94565b929061115d611db8565b6001600160a01b03166000818152600c835260409020805460ff191660ff8615151617905592610780565b346101f55760203660031901126101f5576001600160a01b036111a9611c31565b16600052600c602052602060ff604060002054166040519015158152f35b346101f55760003660031901126101f5576008546040516001600160a01b039091168152602090f35b346101f55760003660031901126101f557611209611db8565b600080546001600160a01b0319811682556001600160a01b03167f8be0079c531659141344cd1fd0a4f28419497f9722a3daafe3b4186f6b6457e08280a3005b346101f5576020806003193601126101f5576001600160a01b03908161126d611c31565b1660005260078152604060002060405191828183549182815201908193600052826000209060005b8181106112e657505050836112ab910384611d50565b60405192818401908285525180915260408401929160005b8281106112d05785850386f35b83518716855293810193928101926001016112c3565b8254881684529284019260019283019201611295565b346101f55760203660031901126101f5576001600160a01b0361131d611c31565b16600052600260205260206113386008604060002001611d72565b8181015115159081611350575b506040519015158152f35b604091500151421082611345565b346101f55760203660031901126101f557600060c060405161137f81611cfc565b8281528260208201528260408201528260608201528260808201528260a0820152015260043560005260036020526040600020604051906113bf82611cfc565b8054825260018060a01b03908160018201541660208401908152600282015491604085019283526003810154606086019081526005600483015492608088019384520154938560ff86169460a089019561141881611c74565b86528160c08a019760081c16875260405198518952511660208801525160408701525160608601525160808501525161145081611c74565b60a0840152511660c0820152f35b346101f557602090816003193601126101f5576101a09161147d611c31565b6115dc6040519161148d83611cdf565b60008352600084840152600060408401526000606084015260006080840152600060a0840152600060c08401526000858401526114c86121e2565b9061010091828501526040516114dd81611d34565b600081526000868201526101208095015260018060a01b03166000526002845260406000206040519561150f87611cdf565b8154875260018201549686810197885260028301546040820190815260038401546060830190815260048501546080840190815260058601549160a0850192835260068701549360c08601948552600788015495878101968752611587600b61157a60088c01611d72565b9a8c84019b8c5201611d9a565b9b81019b8c528c6040519e8f92518352519101525160408d01525160608c01525160808b01525160a08a01525160c0890152519087015251908501906040809180518452602081015160208501520151910152565b5180516101608401520151610180820152f35b346101f5576115fd36611c5e565b9033600052600c60205261161860ff60406000205416611de4565b8060005260036020526040600020600160058201918254926116418360ff861661045781611c74565b6003838060a01b039461165a33878360081c1614611ea3565b60ff191617905560038101611670868254611ede565b90550181815416600052600260205260036040600020600281016116948154611e28565b9055016116a18154611eeb565b905554166040519283524260208401527fc9f19e0158ee81ee65e2efd94386349a13bc4f2957e0b9eacaef4a8acd181d0f60403394a4005b346101f55760403660031901126101f5576116f2611c31565b6116fa611c47565b90611703612201565b5060018060a01b0316600052600a60205267ffffffffffffffff604060002091166000526020526080604060002060405161173d81611cc3565b61ffff82541691828252600181015460208301908152606060036002840154936040860194855201549301928352604051938452516020840152516040830152516060820152f35b346101f55760203660031901126101f5576001600160a01b036117a6611c31565b1660005260026020526020600760406000200154604051908152f35b346101f55760203660031901126101f55760043560005260066020526080604060002060018060a01b038154169060018101549061ffff600360028301549201541691604051938452602084015260408301526060820152f35b346101f55760203660031901126101f557611835611c31565b61183d6121e2565b5060018060a01b0316600052600260205260606118606008604060002001611d72565b61188160405180926040809180518452602081015160208501520151910152565bf35b346101f5576020806003193601126101f557600435906118a1612173565b6118ac821515612121565b3360005260028152604060002090600b82019182549084821061199d57600c01544210611969578381039081116106c957600092558060018060a01b036008541660446040518095819363a9059cbb60e01b83523360048401528860248401525af1918215610be6577f8108595eb6bad3acefa9da467d90cc2217686d5c5ac85460f8b7849c840645fc9261194c575b506040519283523392a260018055005b61196290823d8411610bdf57610bd08183611d50565b508361193c565b60405162461bcd60e51b815260048101839052600c60248201526b14dd185ad9481b1bd8dad95960a21b6044820152606490fd5b60405162461bcd60e51b8152600481018490526012602482015271496e73756666696369656e74207374616b6560701b6044820152606490fd5b346101f55760203660031901126101f5576001600160a01b036119f8611c31565b16600052600e602052602060ff604060002054166040519015158152f35b346101f55760a03660031901126101f557611a2f611c31565b611a37611c47565b9060443561ffff918282168092036101f55733600052602090600d825260ff6040600020541615611b0757916040917f86b1a1128d1675cb8789d3c397aa7ced426435a7255ef0d2bb8f32957a5ecb64936003845191611a9683611cc3565b8483528383016064358152868401906084358252606085019242845260018060a01b0316998a600052600a875267ffffffffffffffff896000209c169b8c60005287528860002095511661ffff198654161785555160018501555160028401555191015582519182524290820152a3005b60405162461bcd60e51b815260048101839052601a60248201527f4e6f7420617574686f72697a656420434349502073656e6465720000000000006044820152606490fd5b346101f55760203660031901126101f5576001600160a01b03611b6d611c31565b16600052600b602052608060406000208054906001810154906003600282015491015491604051938452602084015260408301526060820152f35b346101f55760203660031901126101f557611bc1611c31565b611bc9612201565b5060018060a01b0316600052600b60205260806040600020604051611bed81611cc3565b815491828252600181015460208301908152606060036002840154936040860194855201549301928352604051938452516020840152516040830152516060820152f35b600435906001600160a01b03821682036101f557565b6024359067ffffffffffffffff821682036101f557565b60409060031901126101f5576004359060243590565b60041115611c7e57565b634e487b7160e01b600052602160045260246000fd5b60409060031901126101f5576004356001600160a01b03811681036101f5579060243580151581036101f55790565b6080810190811067ffffffffffffffff82111761069e57604052565b610140810190811067ffffffffffffffff82111761069e57604052565b60e0810190811067ffffffffffffffff82111761069e57604052565b6060810190811067ffffffffffffffff82111761069e57604052565b6040810190811067ffffffffffffffff82111761069e57604052565b90601f8019910116810190811067ffffffffffffffff82111761069e57604052565b90604051611d7f81611d18565b60406002829480548452600181015460208501520154910152565b90604051611da781611d34565b602060018294805484520154910152565b6000546001600160a01b03163303611dcc57565b60405163118cdaa760e01b8152336004820152602490fd5b15611deb57565b60405162461bcd60e51b81526020600482015260156024820152742737ba1030baba3437b934bd32b2103632b73232b960591b6044820152606490fd5b60001981146106c95760010190565b8054821015611e4f5760005260206000200190600090565b634e487b7160e01b600052603260045260246000fd5b15611e6c57565b60405162461bcd60e51b815260206004820152600f60248201526e4c6f616e206e6f742061637469766560881b6044820152606490fd5b15611eaa57565b60405162461bcd60e51b815260206004820152600c60248201526b2bb937b733903632b73232b960a11b6044820152606490fd5b919082018092116106c957565b80156106c9576000190190565b61ffff16605a811015611f2657604b811015611f2057603c1115611f1b57603290565b604690565b50605090565b50605a90565b9060018060a01b038060009316835260206007815260408420604051808284829454938481520190885284882092885b86828210611fb257505050611f7392500382611d50565b845b8151811015611faa5783838260051b840101511684861614611f9f57611f9a90611e28565b611f75565b505050505050600190565b505050505090565b85548916845260019586019587955093019201611f5c565b8151919060418303611ffb57611ff492506020820151906060604084015193015160001a90612006565b9192909190565b505060009160029190565b91907f7fffffffffffffffffffffffffffffff5d576e7357a4501ddfe92f46681b20a0841161208a57926020929160ff608095604051948552168484015260408301526060820152600092839182805260015afa1561207e5780516001600160a01b0381161561207557918190565b50809160019190565b604051903d90823e3d90fd5b50505060009160039190565b61209f81611c74565b806120a8575050565b6120b181611c74565b600181036120cb5760405163f645eedf60e01b8152600490fd5b6120d481611c74565b600281036120f55760405163fce698f760e01b815260048101839052602490fd5b80612101600392611c74565b146121095750565b602490604051906335e2f38360e21b82526004820152fd5b1561212857565b60405162461bcd60e51b815260206004820152600b60248201526a16995c9bc8185b5bdd5b9d60aa1b6044820152606490fd5b908160209103126101f5575180151581036101f55790565b600260015414612184576002600155565b604051633ee5aeb560e01b8152600490fd5b1561219d57565b60405162461bcd60e51b815260206004820152601960248201527f4e6f7420617574686f72697a656420676f7665726e616e6365000000000000006044820152606490fd5b604051906121ef82611d18565b60006040838281528260208201520152565b6040519061220e82611cc3565b6000606083828152826020820152826040820152015256fea264697066735822122000cbc0de9643da976275783aa3b176f01b910becf668fe8538039551fe4e4d5a64736f6c63430008140033",
  "linkReferences": {},
  "deployedLinkReferences": {}
}