{
  "_format": "hh-sol-artifact-1",
  "contractName": "CreditRegistryV3",
  "sourceName": "contracts/CreditRegistryV3.sol",
  "abi": [
    {
      "inputs": [
        {
          "internalType": "address",
          "name": "_stakingToken",
          "type": "address"
        },
        {
          "internalType": "address",
          "name": "_kycIssuer",
          "type": "address"
        }
      ],
      "stateMutability": "nonpayable",
      "type": "constructor"
    },
    {
      "inputs": [],
      "name": "ECDSAInvalidSignature",
      "type": "error"
    },
    {
      "inputs": [
        {
          "internalType": "uint256",
          "name": "length",
          "type": "uint256"
        }
      ],
      "name": "ECDSAInvalidSignatureLength",
      "type": "error"
    },
    {
      "inputs": [
        {
          "internalType": "bytes32",
          "name": "s",
          "type": "bytes32"
        }
      ],
      "name": "ECDSAInvalidSignatureS",
      "type": "error"
    },
    {
      "inputs": [
        {
          "internalType": "address",
          "name": "owner",
          "type": "address"
        }
      ],
      "name": "OwnableInvalidOwner",
      "type": "error"
    },
    {
      "inputs": [
        {
          "internalType": "address",
          "name": "account",
          "type": "address"
        }
      ],
      "name": "OwnableUnauthorizedAccount",
      "type": "error"
    },
    {
      "inputs": [],
      "name": "ReentrancyGuardReentrantCall",
      "type": "error"
    },
    {
      "anonymous": false,
      "inputs": [
        {
          "indexed": true,
          "internalType": "address",
          "name": "sender",
          "type": "address"
        },
        {
          "indexed": false,
          "internalType": "bool",
          "name": "allowed",
          "type": "bool"
        }
      ],
      "name": "CCIPSenderAuthorized",
      "type": "event"
    },
    {
      "anonymous": false,
      "inputs": [
        {
          "indexed": true,
          "internalType": "uint256",
          "name": "loanId",
          "type": "uint256"
        },
        {
          "indexed": true,
          "internalType": "address",
          "name": "collateralToken",
          "type": "address"
        },
        {
          "indexed": false,
          "internalType": "uint256",
          "name": "collateralValueUsd18",
          "type": "uint256"
        },
        {
          "indexed": false,
          "internalType": "uint16",
          "name": "userScore",
          "type": "uint16"
        }
      ],
      "name": "CollateralDataRecorded",
      "type": "event"
    },
    {
      "anonymous": false,
      "inputs": [
        {
          "indexed": true,
          "internalType": "address",
          "name": "user",
          "type": "address"
        },
        {
          "indexed": true,
          "internalType": "uint64",
          "name": "sourceChainSelector",
          "type": "uint64"
        },
        {
          "indexed": false,
          "internalType": "uint16",
          "name": "score",
          "type": "uint16"
        },
        {
          "indexed": false,
          "internalType": "uint256",
          "name": "timestamp",
          "type": "uint256"
        }
      ],
      "name": "CrossChainReputationReceived",
      "type": "event"
    },
    {
      "anonymous": false,
      "inputs": [
        {
          "indexed": true,
          "internalType": "address",
          "name": "wallet",
          "type": "address"
        },
        {
          "indexed": false,
          "internalType": "uint256",
          "name": "timestamp",
          "type": "uint256"
        }
      ],
      "name": "FirstSeenRecorded",
      "type": "event"
    },
    {
      "anonymous": false,
      "inputs": [
        {
          "indexed": true,
          "internalType": "address",
          "name": "governance",
          "type": "address"
        },
        {
          "indexed": false,
          "internalType": "bool",
          "name": "allowed",
          "type": "bool"
        }
      ],
      "name": "GovernanceAuthorized",
      "type": "event"
    },
    {
      "anonymous": false,
      "inputs": [
        {
          "indexed": true,
          "internalType": "address",
          "name": "user",
          "type": "address"
        },
        {
          "indexed": false,
          "internalType": "bytes32",
          "name": "credentialHash",
          "type": "bytes32"
        },
        {
          "indexed": false,
          "internalType": "uint256",
          "name": "expiresAt",
          "type": "uint256"
        }
      ],
      "name": "KYCVerified",
      "type": "event"
    },
    {
      "anonymous": false,
      "inputs": [
        {
          "indexed": true,
          "internalType": "address",
          "name": "lender",
          "type": "address"
        },
        {
          "indexed": false,
          "internalType": "bool",
          "name": "allowed",
          "type": "bool"
        }
      ],
      "name": "LenderAuthorized",
      "type": "event"
    },
    {
      "anonymous": false,
      "inputs": [
        {
          "indexed": true,
          "internalType": "address",
          "name": "borrower",
          "type": "address"
        },
        {
          "indexed": true,
          "internalType": "uint256",
          "name": "loanId",
          "type": "uint256"
        },
        {
          "indexed": false,
          "internalType": "uint256",
          "name": "amountUsd18",
          "type": "uint256"
        },
        {
          "indexed": false,
          "internalType": "uint256",
          "name": "timestamp",
          "type": "uint256"
        },
        {
          "indexed": true,
          "internalType": "address",
          "name": "liquidator",
          "type": "address"
        }
      ],
      "name": "LiquidationRegistered",
      "type": "event"
    },
    {
      "anonymous": false,
      "inputs": [
        {
          "indexed": true,
          "internalType": "address",
          "name": "borrower",
          "type": "address"
        },
        {
          "indexed": true,
          "internalType": "uint256",
          "name": "loanId",
          "type": "uint256"
        },
        {
          "indexed": false,
          "internalType": "uint256",
          "name": "principalUsd18",
          "type": "uint256"
        },
        {
          "indexed": false,
          "internalType": "uint256",
          "name": "timestamp",
          "type": "uint256"
        },
        {
          "indexed": true,
          "internalType": "address",
          "name": "lender",
          "type": "address"
        }
      ],
      "name": "LoanRegistered",
      "type": "event"
    },
    {
      "anonymous": false,
      "inputs": [
        {
          "indexed": true,
          "internalType": "address",
          "name": "previousOwner",
          "type": "address"
        },
        {
          "indexed": true,
          "internalType": "address",
          "name": "newOwner",
          "type": "address"
        }
      ],
      "name": "OwnershipTransferred",
      "type": "event"
    },
    {
      "anonymous": false,
      "inputs": [
        {
          "indexed": true,
          "internalType": "address",
          "name": "proposer",
          "type": "address"
        },
        {
          "indexed": true,
          "internalType": "uint256",
          "name": "proposalId",
          "type": "uint256"
        },
        {
          "indexed": false,
          "internalType": "uint256",
          "name": "timestamp",
          "type": "uint256"
        }
      ],
      "name": "ProposalRecorded",
      "type": "event"
    },
    {
      "anonymous": false,
      "inputs": [
        {
          "indexed": true,
          "internalType": "address",
          "name": "borrower",
          "type": "address"
        },
        {
          "indexed": true,
          "internalType": "uint256",
          "name": "loanId",
          "type": "uint256"
        },
        {
          "indexed": false,
          "internalType": "uint256",
          "name": "amountUsd18",
          "type": "uint256"
        },
        {
          "indexed": false,
          "internalType": "uint256",
          "name": "timestamp",
          "type": "uint256"
        },
        {
          "indexed": true,
          "internalType": "address",
          "name": "payer",
          "type": "address"
        }
      ],
      "name": "RepaymentRegistered",
      "type": "event"
    },
    {
      "anonymous": false,
      "inputs": [
        {
          "indexed": true,
          "internalType": "address",
          "name": "staker",
          "type": "address"
        },
        {
          "indexed": false,
          "internalType": "uint256",
          "name": "amount",
          "type": "uint256"
        },
        {
          "indexed": false,
          "internalType": "uint256",
          "name": "lockUntil",
          "type": "uint256"
        }
      ],
      "name": "StakeDeposited",
      "type": "event"
    },
    {
      "anonymous": false,
      "inputs": [
        {
          "indexed": true,
          "internalType": "address",
          "name": "staker",
          "type": "address"
        },
        {
          "indexed": false,
          "internalType": "uint256",
          "name": "amount",
          "type": "uint256"
        }
      ],
      "name": "StakeWithdrawn",
      "type": "event"
    },
    {
      "anonymous": false,
      "inputs": [
        {
          "indexed": true,
          "internalType": "address",
          "name": "voter",
          "type": "address"
        },
        {
          "indexed": true,
          "internalType": "uint256",
          "name": "proposalId",
          "type": "uint256"
        },
        {
          "indexed": false,
          "internalType": "uint256",
          "name": "timestamp",
          "type": "uint256"
        }
      ],
      "name": "VoteRecorded",
      "type": "event"
    },
    {
      "inputs": [
        {
          "internalType": "address",
          "name": "",
          "type": "address"
        }
      ],
      "name": "aggregateCreditData",
      "outputs": [
        {
          "internalType": "uint256",
          "name": "totalLoans",
          "type": "uint256"
        },
        {
          "internalType": "uint256",
          "name": "repaidLoans",
          "type": "uint256"
        },
        {
          "internalType": "uint256",
          "name": "liquidatedLoans",
          "type": "uint256"
        },
        {
          "internalType": "uint256",
          "name": "activeLoans",
          "type": "uint256"
        },
        {
          "internalType": "uint256",
          "name": "totalCollateralUsd18",
          "type": "uint256"
        },
        {
          "internalType": "uint256",
          "name": "totalBorrowedUsd18",
          "type": "uint256"
        },
        {
          "internalType": "uint256",
          "name": "maxLtvBorrowCount",
          "type": "uint256"
        },
        {
          "internalType": "uint256",
          "name": "firstSeen",
          "type": "uint256"
        },
        {
          "components": [
            {
              "internalType": "bytes32",
              "name": "credentialHash",
              "type": "bytes32"
            },
            {
              "internalType": "uint256",
              "name": "verifiedAt",
              "type": "uint256"
            },
            {
              "internalType": "uint256",
              "name": "expiresAt",
              "type": "uint256"
            }
          ],
          "internalType": "struct CreditRegistryV3.KYCProof",
          "name": "kyc",
          "type": "tuple"
        },
        {
          "components": [
            {
              "internalType": "uint256",
              "name": "amount",
              "type": "uint256"
            },
            {
              "internalType": "uint256",
              "name": "lockUntil",
              "type": "uint256"
            }
          ],
          "internalType": "struct CreditRegistryV3.StakeInfo",
          "name": "stake",
          "type": "tuple"
        }
      ],
      "stateMutability": "view",
      "type": "function"
    },
    {
      "inputs": [
        {
          "internalType": "address",
          "name": "",
          "type": "address"
        }
      ],
      "name": "authorizedCCIPSenders",
      "outputs": [
        {
          "internalType": "bool",
          "name": "",
          "type": "bool"
        }
      ],
      "stateMutability": "view",
      "type": "function"
    },
    {
      "inputs": [
        {
          "internalType": "address",
          "name": "",
          "type": "address"
        }
      ],
      "name": "authorizedGovernance",
      "outputs": [
        {
          "internalType": "bool",
          "name": "",
          "type": "bool"
        }
      ],
      "stateMutability": "view",
      "type": "function"
    },
    {
      "inputs": [
        {
          "internalType": "address",
          "name": "",
          "type": "address"
        }
      ],
      "name": "authorizedLenders",
      "outputs": [
        {
          "internalType": "bool",
          "name": "",
          "type": "bool"
        }
      ],
      "stateMutability": "view",
      "type": "function"
    },
    {
      "inputs": [
        {
          "internalType": "address",
          "name": "",
          "type": "address"
        },
        {
          "internalType": "uint64",
          "name": "",
          "type": "uint64"
        }
      ],
      "name": "crossChainScores",
      "outputs": [
        {
          "internalType": "uint16",
          "name": "overallScore",
          "type": "uint16"
        },
        {
          "internalType": "uint256",
          "name": "totalLoans",
          "type": "uint256"
        },
        {
          "internalType": "uint256",
          "name": "repaidLoans",
          "type": "uint256"
        },
        {
          "internalType": "uint256",
          "name": "updatedAt",
          "type": "uint256"
        }
      ],
      "stateMutability": "view",
      "type": "function"
    },
    {
      "inputs": [
        {
          "internalType": "address",
          "name": "user",
          "type": "address"
        }
      ],
      "name": "getAggregateCreditData",
      "outputs": [
        {
          "components": [
            {
              "internalType": "uint256",
              "name": "totalLoans",
              "type": "uint256"
            },
            {
              "internalType": "uint256",
              "name": "repaidLoans",
              "type": "uint256"
            },
            {
              "internalType": "uint256",
              "name": "liquidatedLoans",
              "type": "uint256"
            },
            {
              "internalType": "uint256",
              "name": "activeLoans",
              "type": "uint256"
            },
            {
              "internalType": "uint256",
              "name": "totalCollateralUsd18",
              "type": "uint256"
            },
            {
              "internalType": "uint256",
              "name": "totalBorrowedUsd18",
              "type": "uint256"
            },
            {
              "internalType": "uint256",
              "name": "maxLtvBorrowCount",
              "type": "uint256"
            },
            {
              "internalType": "uint256",
              "name": "firstSeen",
              "type": "uint256"
            },
            {
              "components": [
                {
                  "internalType": "bytes32",
                  "name": "credentialHash",
                  "type": "bytes32"
                },
                {
                  "internalType": "uint256",
                  "name": "verifiedAt",
                  "type": "uint256"
                },
                {
                  "internalType": "uint256",
                  "name": "expiresAt",
                  "type": "uint256"
                }
              ],
              "internalType": "struct CreditRegistryV3.KYCProof",
              "name": "kyc",
              "type": "tuple"
            },
            {
              "components": [
                {
                  "internalType": "uint256",
                  "name": "amount",
                  "type": "uint256"
                },
                {
                  "internalType": "uint256",
                  "name": "lockUntil",
                  "type": "uint256"
                }
              ],
              "internalType": "struct CreditRegistryV3.StakeInfo",
              "name": "stake",
              "type": "tuple"
            }
          ],
          "internalType": "struct CreditRegistryV3.AggregateCreditData",
          "name": "",
          "type": "tuple"
        }
      ],
      "stateMutability": "view",
      "type": "function"
    },
    {
      "inputs": [
        {
          "internalType": "uint256",
          "name": "loanId",
          "type": "uint256"
        }
      ],
      "name": "getCollateralData",
      "outputs": [
        {
          "components": [
            {
              "internalType": "address",
              "name": "collateralToken",
              "type": "address"
            },
            {
              "internalType": "uint256",
              "name": "collateralValueUsd18",
              "type": "uint256"
            },
            {
              "internalType": "uint256",
              "name": "principalUsd18",
              "type": "uint256"
            },
            {
              "internalType": "uint16",
              "name": "userScoreAtBorrow",
              "type": "uint16"
            }
          ],
          "internalType": "struct CreditRegistryV3.CollateralData",
          "name": "",
          "type": "tuple"
        }
      ],
      "stateMutability": "view",
      "type": "function"
    },
    {
      "inputs": [
        {
          "internalType": "address",
          "name": "user",
          "type": "address"
        },
        {
          "internalType": "uint64",
          "name": "chainSelector",
          "type": "uint64"
        }
      ],
      "name": "getCrossChainScore",
      "outputs": [
        {
          "components": [
            {
              "internalType": "uint16",
              "name": "overallScore",
              "type": "uint16"
            },
            {
              "internalType": "uint256",
              "name": "totalLoans",
              "type": "uint256"
            },
            {
              "internalType": "uint256",
              "name": "repaidLoans",
              "type": "uint256"
            },
            {
              "internalType": "uint256",
              "name": "updatedAt",
              "type": "uint256"
            }
          ],
          "internalType": "struct CreditRegistryV3.CrossChainScore",
          "name": "",
          "type": "tuple"
        }
      ],
      "stateMutability": "view",
      "type": "function"
    },
    {
      "inputs": [
        {
          "internalType": "address",
          "name": "wallet",
          "type": "address"
        }
      ],
      "name": "getFirstSeen",
      "outputs": [
        {
          "internalType": "uint256",
          "name": "",
          "type": "uint256"
        }
      ],
      "stateMutability": "view",
      "type": "function"
    },
    {
      "inputs": [
        {
          "internalType": "address",
          "name": "user",
          "type": "address"
        }
      ],
      "name": "getGovernanceActivity",
      "outputs": [
        {
          "components": [
            {
              "internalType": "uint256",
              "name": "voteCount",
              "type": "uint256"
            },
            {
              "internalType": "uint256",
              "name": "proposalCount",
              "type": "uint256"
            },
            {
              "internalType": "uint256",
              "name": "lastVoteTimestamp",
              "type": "uint256"
            },
            {
              "internalType": "uint256",
              "name": "lastProposalTimestamp",
              "type": "uint256"
            }
          ],
          "internalType": "struct CreditRegistryV3.GovernanceActivity",
          "name": "",
          "type": "tuple"
        }
      ],
      "stateMutability": "view",
      "type": "function"
    },
    {
      "inputs": [
        {
          "internalType": "address",
          "name": "user",
          "type": "address"
        }
      ],
      "name": "getKYCProof",
      "outputs": [
        {
          "components": [
            {
              "internalType": "bytes32",
              "name": "credentialHash",
              "type": "bytes32"
            },
            {
              "internalType": "uint256",
              "name": "verifiedAt",
              "type": "uint256"
            },
            {
              "internalType": "uint256",
              "name": "expiresAt",
              "type": "uint256"
            }
          ],
          "internalType": "struct CreditRegistryV3.KYCProof",
          "name": "",
          "type": "tuple"
        }
      ],
      "stateMutability": "view",
      "type": "function"
    },
    {
      "inputs": [
        {
          "internalType": "uint256",
          "name": "loanId",
          "type": "uint256"
        }
      ],
      "name": "getLoan",
      "outputs": [
        {
          "components": [
            {
              "internalType": "uint256",
              "name": "loanId",
              "type": "uint256"
            },
            {
              "internalType": "address",
              "name": "borrower",
              "type": "address"
            },
            {
              "internalType": "uint256",
              "name": "principalUsd18",
              "type": "uint256"
            },
            {
              "internalType": "uint256",
              "name": "repaidUsd18",
              "type": "uint256"
            },
            {
              "internalType": "uint256",
              "name": "timestamp",
              "type": "uint256"
            },
            {
              "internalType": "enum CreditRegistryV3.LoanStatus",
              "name": "status",
              "type": "uint8"
            },
            {
              "internalType": "address",
              "name": "lender",
              "type": "address"
            }
          ],
          "internalType": "struct CreditRegistryV3.LoanRecord",
          "name": "",
          "type": "tuple"
        }
      ],
      "stateMutability": "view",
      "type": "function"
    },
    {
      "inputs": [
        {
          "internalType": "address",
          "name": "borrower",
          "type": "address"
        }
      ],
      "name": "getLoanIdsByBorrower",
      "outputs": [
        {
          "internalType": "uint256[]",
          "name": "",
          "type": "uint256[]"
        }
      ],
      "stateMutability": "view",
      "type": "function"
    },
    {
      "inputs": [
        {
          "internalType": "address",
          "name": "user",
          "type": "address"
        }
      ],
      "name": "getStakeInfo",
      "outputs": [
        {
          "components": [
            {
              "internalType": "uint256",
              "name": "amount",
              "type": "uint256"
            },
            {
              "internalType": "uint256",
              "name": "lockUntil",
              "type": "uint256"
            }
          ],
          "internalType": "struct CreditRegistryV3.StakeInfo",
          "name": "",
          "type": "tuple"
        }
      ],
      "stateMutability": "view",
      "type": "function"
    },
    {
      "inputs": [
        {
          "internalType": "address",
          "name": "user",
          "type": "address"
        }
      ],
      "name": "getUserCollateralAssets",
      "outputs": [
        {
          "internalType": "address[]",
          "name": "",
          "type": "address[]"
        }
      ],
      "stateMutability": "view",
      "type": "function"
    },
    {
      "inputs": [
        {
          "internalType": "address",
          "name": "",
          "type": "address"
        }
      ],
      "name": "governanceActivity",
      "outputs": [
        {
          "internalType": "uint256",
          "name": "voteCount",
          "type": "uint256"
        },
        {
          "internalType": "uint256",
          "name": "proposalCount",
          "type": "uint256"
        },
        {
          "internalType": "uint256",
          "name": "lastVoteTimestamp",
          "type": "uint256"
        },
        {
          "internalType": "uint256",
          "name": "lastProposalTimestamp",
          "type": "uint256"
        }
      ],
      "stateMutability": "view",
      "type": "function"
    },
    {
      "inputs": [
        {
          "internalType": "address",
          "name": "user",
          "type": "address"
        }
      ],
      "name": "isKYCVerified",
      "outputs": [
        {
          "internalType": "bool",
          "name": "",
          "type": "bool"
        }
      ],
      "stateMutability": "view",
      "type": "function"
    },
    {
      "inputs": [],
      "name": "kycIssuer",
      "outputs": [
        {
          "internalType": "address",
          "name": "",
          "type": "address"
        }
      ],
      "stateMutability": "view",
      "type": "function"
    },
    {
      "inputs": [
        {
          "internalType": "uint256",
          "name": "",
          "type": "uint256"
        }
      ],
      "name": "loanCollateralData",
      "outputs": [
        {
          "internalType": "address",
          "name": "collateralToken",
          "type": "address"
        },
        {
          "internalType": "uint256",
          "name": "collateralValueUsd18",
          "type": "uint256"
        },
        {
          "internalType": "uint256",
          "name": "principalUsd18",
          "type": "uint256"
        },
        {
          "internalType": "uint16",
          "name": "userScoreAtBorrow",
          "type": "uint16"
        }
      ],
      "stateMutability": "view",
      "type": "function"
    },
    {
      "inputs": [],
      "name": "owner",
      "outputs": [
        {
          "internalType": "address",
          "name": "",
          "type": "address"
        }
      ],
      "stateMutability": "view",
      "type": "function"
    },
    {
      "inputs": [
        {
          "internalType": "address",
          "name": "user",
          "type": "address"
        },
        {
          "internalType": "uint64",
          "name": "sourceChainSelector",
          "type": "uint64"
        },
        {
          "internalType": "uint16",
          "name": "overallScore",
          "type": "uint16"
        },
        {
          "internalType": "uint256",
          "name": "totalLoans",
          "type": "uint256"
        },
        {
          "internalType": "uint256",
          "name": "repaidLoans",
          "type": "uint256"
        }
      ],
      "name": "receiveCrossChainReputation",
      "outputs": [],
      "stateMutability": "nonpayable",
      "type": "function"
    },
    {
      "inputs": [
        {
          "internalType": "uint256",
          "name": "loanId",
          "type": "uint256"
        },
        {
          "internalType": "address",
          "name": "collateralToken",
          "type": "address"
        },
        {
          "internalType": "uint256",
          "name": "collateralValueUsd18",
          "type": "uint256"
        },
        {
          "internalType": "uint16",
          "name": "userScore",
          "type": "uint16"
        }
      ],
      "name": "recordCollateralData",
      "outputs": [],
      "stateMutability": "nonpayable",
      "type": "function"
    },
    {
      "inputs": [
        {
          "internalType": "address",
          "name": "proposer",
          "type": "address"
        },
        {
          "internalType": "uint256",
          "name": "proposalId",
          "type": "uint256"
        }
      ],
      "name": "recordProposal",
      "outputs": [],
      "stateMutability": "nonpayable",
      "type": "function"
    },
    {
      "inputs": [
        {
          "internalType": "address",
          "name": "voter",
          "type": "address"
        },
        {
          "internalType": "uint256",
          "name": "proposalId",
          "type": "uint256"
        }
      ],
      "name": "recordVote",
      "outputs": [],
      "stateMutability": "nonpayable",
      "type": "function"
    },
    {
      "inputs": [
        {
          "internalType": "uint256",
          "name": "loanId",
          "type": "uint256"
        },
        {
          "internalType": "uint256",
          "name": "recoveredUsd18",
          "type": "uint256"
        }
      ],
      "name": "registerLiquidation",
      "outputs": [],
      "stateMutability": "nonpayable",
      "type": "function"
    },
    {
      "inputs": [
        {
          "internalType": "address",
          "name": "borrower",
          "type": "address"
        },
        {
          "internalType": "uint256",
          "name": "principalUsd18",
          "type": "uint256"
        }
      ],
      "name": "registerLoan",
      "outputs": [
        {
          "internalType": "uint256",
          "name": "",
          "type": "uint256"
        }
      ],
      "stateMutability": "nonpayable",
      "type": "function"
    },
    {
      "inputs": [
        {
          "internalType": "uint256",
          "name": "loanId",
          "type": "uint256"
        },
        {
          "internalType": "uint256",
          "name": "amountUsd18",
          "type": "uint256"
        }
      ],
      "name": "registerRepayment",
      "outputs": [],
      "stateMutability": "nonpayable",
      "type": "function"
    },
    {
      "inputs": [],
      "name": "renounceOwnership",
      "outputs": [],
      "stateMutability": "nonpayable",
      "type": "function"
    },
    {
      "inputs": [
        {
          "internalType": "address",
          "name": "sender",
          "type": "address"
        },
        {
          "internalType": "bool",
          "name": "allowed",
          "type": "bool"
        }
      ],
      "name": "setAuthorizedCCIPSender",
      "outputs": [],
      "stateMutability": "nonpayable",
      "type": "function"
    },
    {
      "inputs": [
        {
          "internalType": "address",
          "name": "governance",
          "type": "address"
        },
        {
          "internalType": "bool",
          "name": "allowed",
          "type": "bool"
        }
      ],
      "name": "setAuthorizedGovernance",
      "outputs": [],
      "stateMutability": "nonpayable",
      "type": "function"
    },
    {
      "inputs": [
        {
          "internalType": "address",
          "name": "lender",
          "type": "address"
        },
        {
          "internalType": "bool",
          "name": "allowed",
          "type": "bool"
        }
      ],
      "name": "setAuthorizedLender",
      "outputs": [],
      "stateMutability": "nonpayable",
      "type": "function"
    },
    {
      "inputs": [
        {
          "internalType": "address",
          "name": "_kycIssuer",
          "type": "address"
        }
      ],
      "name": "setKYCIssuer",
      "outputs": [],
      "stateMutability": "nonpayable",
      "type": "function"
    },
    {
      "inputs": [
        {
          "internalType": "uint256",
          "name": "amount",
          "type": "uint256"
        }
      ],
      "name": "stake",
      "outputs": [],
      "stateMutability": "nonpayable",
      "type": "function"
    },
    {
      "inputs": [],
      "name": "stakingToken",
      "outputs": [
        {
          "internalType": "contract IERC20",
          "name": "",
          "type": "address"
        }
      ],
      "stateMutability": "view",
      "type": "function"
    },
    {
      "inputs": [
        {
          "internalType": "bytes32",
          "name": "credentialHash",
          "type": "bytes32"
        },
        {
          "internalType": "uint256",
          "name": "expiresAt",
          "type": "uint256"
        },
        {
          "internalType": "bytes",
          "name": "signature",
          "type": "bytes"
        }
      ],
      "name": "submitKYCProof",
      "outputs": [],
      "stateMutability": "nonpayable",
      "type": "function"
    },
    {
      "inputs": [
        {
          "internalType": "address",
          "name": "newOwner",
          "type": "address"
        }
      ],
      "name": "transferOwnership",
      "outputs": [],
      "stateMutability": "nonpayable",
      "type": "function"
    },
    {
      "inputs": [
        {
          "internalType": "uint256",
          "name": "amount",
          "type": "uint256"
        }
      ],
      "name": "unstake",
      "outputs": [],
      "stateMutability": "nonpayable",
      "type": "function"
    }
  ],
  "bytecode": "0x608060405260016005553480156200001657600080fd5b5060405162002a9538038062002a9583398101604081905262000039916200010f565b33806200006057604051631e4fbdf760e01b81526000600482015260240160405180910390fd5b6200006b81620000a2565b5060018055600880546001600160a01b039384166001600160a01b0319918216179091556009805492909316911617905562000147565b600080546001600160a01b038381166001600160a01b0319831681178455604051919092169283917f8be0079c531659141344cd1fd0a4f28419497f9722a3daafe3b4186f6b6457e09190a35050565b80516001600160a01b03811681146200010a57600080fd5b919050565b600080604083850312156200012357600080fd5b6200012e83620000f2565b91506200013e60208401620000f2565b90509250929050565b61293e80620001576000396000f3fe608060405234801561001057600080fd5b50600436106102275760003560e01c806380225f7e11610130578063b297482e116100b8578063dcce2e081161007c578063dcce2e0814610741578063eb905ce814610754578063f2fde38b146107fc578063f41087941461080f578063fcc23004146108cd57600080fd5b8063b297482e14610690578063c3453153146106a3578063c45831a914610708578063ced3c9811461071b578063dac3d3081461072e57600080fd5b80638ef6dce9116100ff5780638ef6dce914610631578063999a2f4014610644578063a446b90014610657578063a694fc3a1461066a578063b17073941461067d57600080fd5b806380225f7e1461058357806386160a16146105965780638da5cb5b146106005780638db92e4e1461061157600080fd5b80634d35593c116101b35780635bb2376e116101825780635bb2376e146104fa578063715018a61461051a57806372f702f3146105225780637644dd171461054d5780637ee43c8a1461057057600080fd5b80634d35593c146104945780634db332ba146104a7578063504006ca146104c757806354b7636e146104e757600080fd5b80632e17de78116101fa5780632e17de78146103185780632ff18c0c1461032b5780633539ff151461039f578063391c39941461041057806340c7e39d1461044a57600080fd5b80630a97bde41461022c5780630d9439c11461027b57806316b5b09c146102d05780632c287f98146102e5575b600080fd5b61023f61023a3660046122d9565b6108f0565b60405161027291908151815260208083015190820152604080830151908201526060918201519181019190915260800190565b60405180910390f35b6102b06102893660046122d9565b600b6020526000908152604090208054600182015460028301546003909301549192909184565b604080519485526020850193909352918301526060820152608001610272565b6102e36102de36600461231e565b610969565b005b6103086102f33660046122d9565b600e6020526000908152604090205460ff1681565b6040519015158152602001610272565b6102e3610326366004612373565b610a99565b6103926103393660046122d9565b6040805160608082018352600080835260208084018290529284018190526001600160a01b0394909416845260028252928290208251938401835260088101548452600981015491840191909152600a01549082015290565b604051610272919061238c565b6103e26103ad366004612373565b60066020526000908152604090208054600182015460028301546003909301546001600160a01b0390921692909161ffff1684565b604080516001600160a01b03909516855260208501939093529183015261ffff166060820152608001610272565b61043c61041e3660046122d9565b6001600160a01b031660009081526002602052604090206007015490565b604051908152602001610272565b61045d6104583660046123ad565b610c4f565b6040516102729190815161ffff16815260208083015190820152604080830151908201526060918201519181019190915260800190565b6102e36104a23660046123e0565b610ce7565b6104ba6104b53660046122d9565b610e75565b6040516102729190612402565b6104da6104d5366004612373565b610f36565b60405161027291906124b5565b6103086104f53660046122d9565b610fe4565b61050d6105083660046122d9565b61103f565b6040516102729190612533565b6102e36110b5565b600854610535906001600160a01b031681565b6040516001600160a01b039091168152602001610272565b61030861055b3660046122d9565b600c6020526000908152604090205460ff1681565b6102e361057e36600461258e565b6110c9565b6102e36105913660046122d9565b611131565b6105db6105a43660046123ad565b600a602090815260009283526040808420909152908252902080546001820154600283015460039093015461ffff90921692909184565b6040805161ffff90951685526020850193909352918301526060820152608001610272565b6000546001600160a01b0316610535565b61062461061f3660046122d9565b61115b565b60405161027291906125c5565b6102e361063f3660046123e0565b6111c6565b61043c6106523660046125fd565b611365565b6102e36106653660046125fd565b611584565b6102e3610678366004612373565b61166a565b6102e361068b36600461263d565b6117a3565b6102e361069e36600461258e565b61194b565b6106fb6106b13660046122d9565b6040805180820190915260008082526020820152506001600160a01b03166000908152600260209081526040918290208251808401909352600b8101548352600c01549082015290565b6040516102729190612701565b6102e36107163660046125fd565b6119ab565b6102e361072936600461258e565b611a88565b600954610535906001600160a01b031681565b6102e361074f366004612718565b611ae8565b6107e66107623660046122d9565b6002602081815260009283526040928390208054600182015493820154600383015460048401546005850154600686015460078701548a51606081018c52600889015481526009890154818b0152600a890154818d01528b51808d01909c52600b8901548c52600c90980154988b019890985294989396929591949093909291908a565b6040516102729a9998979695949392919061275e565b6102e361080a3660046122d9565b611dd5565b61088d61081d366004612373565b6040805160808082018352600080835260208084018290528385018290526060938401829052948152600685528390208351918201845280546001600160a01b0316825260018101549482019490945260028401549281019290925260039092015461ffff169181019190915290565b604051610272919081516001600160a01b03168152602080830151908201526040808301519082015260609182015161ffff169181019190915260800190565b6103086108db3660046122d9565b600d6020526000908152604090205460ff1681565b61091b6040518060800160405280600081526020016000815260200160008152602001600081525090565b506001600160a01b03166000908152600b6020908152604091829020825160808101845281548152600182015492810192909252600281015492820192909252600390910154606082015290565b336000908152600d602052604090205460ff166109cd5760405162461bcd60e51b815260206004820152601a60248201527f4e6f7420617574686f72697a656420434349502073656e64657200000000000060448201526064015b60405180910390fd5b6040805160808101825261ffff8086168252602080830186815283850186815242606086018181526001600160a01b038d166000818152600a875289812067ffffffffffffffff8f16808352975289902097518854971661ffff1990971696909617875592516001870155905160028601559051600390940193909355925190917f86b1a1128d1675cb8789d3c397aa7ced426435a7255ef0d2bb8f32957a5ecb6491610a8a91889161ffff929092168252602082015260400190565b60405180910390a35050505050565b610aa1611e10565b60008111610adf5760405162461bcd60e51b815260206004820152600b60248201526a16995c9bc8185b5bdd5b9d60aa1b60448201526064016109c4565b336000908152600260205260409020600b810154821115610b375760405162461bcd60e51b8152602060048201526012602482015271496e73756666696369656e74207374616b6560701b60448201526064016109c4565b600c810154421015610b7a5760405162461bcd60e51b815260206004820152600c60248201526b14dd185ad9481b1bd8dad95960a21b60448201526064016109c4565b8181600b016000016000828254610b9191906127ee565b909155505060085460405163a9059cbb60e01b8152336004820152602481018490526001600160a01b039091169063a9059cbb906044016020604051808303816000875af1158015610be7573d6000803e3d6000fd5b505050506040513d601f19601f82011682018060405250810190610c0b9190612801565b5060405182815233907f8108595eb6bad3acefa9da467d90cc2217686d5c5ac85460f8b7849c840645fc906020015b60405180910390a250610c4c60018055565b50565b610c7e6040518060800160405280600061ffff1681526020016000815260200160008152602001600081525090565b506001600160a01b0382166000908152600a6020908152604080832067ffffffffffffffff851684528252918290208251608081018452815461ffff16815260018201549281019290925260028101549282019290925260039091015460608201525b92915050565b336000908152600c602052604090205460ff16610d165760405162461bcd60e51b81526004016109c49061281e565b60008281526003602052604090206001600582015460ff166003811115610d3f57610d3f61249f565b14610d5c5760405162461bcd60e51b81526004016109c49061284d565b600581015461010090046001600160a01b03163314610dac5760405162461bcd60e51b815260206004820152600c60248201526b2bb937b733903632b73232b960a11b60448201526064016109c4565b60058101805460ff1916600390811790915581018054839190600090610dd3908490612876565b909155505060018101546001600160a01b03166000908152600260208190526040822090810180549192610e0683612889565b9091555050600381018054906000610e1d836128a2565b9091555050600182015460408051858152426020820152339287926001600160a01b03909116917fc9f19e0158ee81ee65e2efd94386349a13bc4f2957e0b9eacaef4a8acd181d0f910160405180910390a450505050565b610e7d6121d4565b506001600160a01b0316600090815260026020818152604092839020835161014081018552815481526001820154818401529281015483850152600381015460608085019190915260048201546080850152600582015460a0850152600682015460c0850152600782015460e08501528451908101855260088201548152600982015481840152600a820154818601526101008401528351808501909452600b8101548452600c01549083015261012081019190915290565b610f3e612266565b600082815260036020818152604092839020835160e0810185528154815260018201546001600160a01b03169281019290925260028101549382019390935282820154606082015260048301546080820152600583015490929160a084019160ff1690811115610fb057610fb061249f565b6003811115610fc157610fc161249f565b81526005919091015461010090046001600160a01b031660209091015292915050565b6001600160a01b03811660009081526002602090815260408083208151606081018352600882015481526009820154938101849052600a909101549181019190915290158015906110385750428160400151115b9392505050565b6001600160a01b0381166000908152600760209081526040918290208054835181840281018401909452808452606093928301828280156110a957602002820191906000526020600020905b81546001600160a01b0316815260019091019060200180831161108b575b50505050509050919050565b6110bd611e3a565b6110c76000611e67565b565b6110d1611e3a565b6001600160a01b0382166000818152600c6020908152604091829020805460ff191685151590811790915591519182527f854b7acf01e906a6a59a420e42dbfeb0c32d87790e2a7f4779581d899aed81d191015b60405180910390a25050565b611139611e3a565b600980546001600160a01b0319166001600160a01b0392909216919091179055565b6001600160a01b0381166000908152600460209081526040918290208054835181840281018401909452808452606093928301828280156110a957602002820191906000526020600020905b8154815260200190600101908083116111a75750505050509050919050565b336000908152600c602052604090205460ff166111f55760405162461bcd60e51b81526004016109c49061281e565b60008281526003602052604090206001600582015460ff16600381111561121e5761121e61249f565b1461123b5760405162461bcd60e51b81526004016109c49061284d565b600581015461010090046001600160a01b0316331461128b5760405162461bcd60e51b815260206004820152600c60248201526b2bb937b733903632b73232b960a11b60448201526064016109c4565b8181600301600082825461129f9190612876565b90915550506002810154600382015410611313576005810180546002919060ff191660018302179055506001808201546001600160a01b031660009081526002602052604081209182018054916112f583612889565b909155505060038101805490600061130c836128a2565b9190505550505b600181015460408051848152426020820152339286926001600160a01b03909116917fd393845a15e253c2056008d7581a313611dad1db01b660bb2e4e4a09dd22b353910160405180910390a4505050565b336000908152600c602052604081205460ff166113945760405162461bcd60e51b81526004016109c49061281e565b60058054600091826113a583612889565b909155506040805160e0810182528281526001600160a01b0387811660208084019182528385018981526000606086018181524260808801908152600160a089018181523360c08b01528b85526003968790529990932088518155955186840180546001600160a01b0319169190981617909655915160028501559051838301559251600483015593516005820180549697509395919490939260ff19909216919084908111156114585761145861249f565b021790555060c0919091015160059091018054610100600160a81b0319166101006001600160a01b039384160217905584166000818152600460209081526040808320805460018101825590845282842001859055928252600290529081208054909182906114c683612889565b90915550506003810180549060006114dd83612889565b919050555080600701546000036115355742600782018190556040519081526001600160a01b038616907f786c11af1c6b4162ea93236e732e32873d8ac3a6ea0d1ae32b38840ecd375a2a9060200160405180910390a25b60408051858152426020820152339184916001600160a01b038916917f8f4051137ee17dad566f459b318cc7bf9781d5afa1cd9b5262c2b1231b3f2e85910160405180910390a4509392505050565b336000908152600e602052604090205460ff166115df5760405162461bcd60e51b81526020600482015260196024820152784e6f7420617574686f72697a656420676f7665726e616e636560381b60448201526064016109c4565b6001600160a01b0382166000908152600b6020526040812080549161160383612889565b90915550506001600160a01b0382166000818152600b60205260409081902042600290910181905590518392917f30befe21dd895620c3a73403f6e63aea5c3c6729202dbdc8eef2e8f8bd78de809161165e91815260200190565b60405180910390a35050565b611672611e10565b600081116116b05760405162461bcd60e51b815260206004820152600b60248201526a16995c9bc8185b5bdd5b9d60aa1b60448201526064016109c4565b6008546040516323b872dd60e01b8152336004820152306024820152604481018390526001600160a01b03909116906323b872dd906064016020604051808303816000875af1158015611707573d6000803e3d6000fd5b505050506040513d601f19601f8201168201806040525081019061172b9190612801565b50336000908152600260205260408120600b8101805491928492611750908490612876565b9091555061176390504262278d00612876565b600c820181905560405133917f05cce4a371bf9816b1a7594f1d76c98eba4ed025ff3e471234ae598f17899bd491610c3a91868252602082015260400190565b6040516bffffffffffffffffffffffff193360601b16602082015260348101849052605481018390526000906074016040516020818303038152906040528051906020012090506000611823827f19457468657265756d205369676e6564204d6573736167653a0a3332000000006000908152601c91909152603c902090565b905060006118318285611eb7565b6009549091506001600160a01b038083169116146118895760405162461bcd60e51b8152602060048201526015602482015274496e76616c6964204b5943207369676e617475726560581b60448201526064016109c4565b4285116118cc5760405162461bcd60e51b815260206004820152601160248201527012d650c81c1c9bdbd988195e1c1a5c9959607a1b60448201526064016109c4565b3360008181526002602090815260409182902082516060810184528a8152428184018190529084018a9052600882018b90556009820155600a810189905582518a815291820189905292917ff79bdf1b7d434a5250254c74d2900f9edaf4d76396642ddaddcb2d0e65255868910160405180910390a250505050505050565b611953611e3a565b6001600160a01b0382166000818152600e6020908152604091829020805460ff191685151590811790915591519182527faf3b5a9cdec6c86041c875d4433b97a76f4ba0faa73ee88c830c699a3d76ef0c9101611125565b336000908152600e602052604090205460ff16611a065760405162461bcd60e51b81526020600482015260196024820152784e6f7420617574686f72697a656420676f7665726e616e636560381b60448201526064016109c4565b6001600160a01b0382166000908152600b60205260408120600101805491611a2d83612889565b90915550506001600160a01b0382166000818152600b60205260409081902042600390910181905590518392917f831900954074f7455449f3209f747f130bf3b7cda14d3f736f158370ffc514009161165e91815260200190565b611a90611e3a565b6001600160a01b0382166000818152600d6020908152604091829020805460ff191685151590811790915591519182527f70c00f8b1add5e4221a3aa6b3a55a3a0746ddb7c4c9a7f23187f816c56ac2bad9101611125565b336000908152600c602052604090205460ff16611b175760405162461bcd60e51b81526004016109c49061281e565b600160008581526003602081905260409091206005015460ff1690811115611b4157611b4161249f565b14611b5e5760405162461bcd60e51b81526004016109c49061284d565b6000848152600360208181526040808420815160e0810183528154815260018201546001600160a01b0316938101939093526002810154918301919091528083015460608301526004810154608083015260058101549192909160a084019160ff90911690811115611bd257611bd261249f565b6003811115611be357611be361249f565b81526005919091015461010090046001600160a01b039081166020928301526040805160808101825288831681528084018881528583015182840190815261ffff8981166060850190815260008e815260068952868120955186546001600160a01b03191690891617865593516001860155915160028086019190915591516003909401805461ffff191694909116939093179092558585015190931683529092529081206004810180549394509092869290611ca1908490612876565b90915550506040820151600582018054600090611cbf908490612876565b909155505060408201516000908590611cd99060646128b9565b611ce391906128d0565b90506000611cf085611ee1565b61ffff1690506064611d0382605f6128b9565b611d0d91906128d0565b8210611d2b57600683018054906000611d2583612889565b91905055505b611d39846020015188611f27565b611d82576020848101516001600160a01b0390811660009081526007835260408120805460018101825590825292902090910180546001600160a01b0319169189169190911790555b6040805187815261ffff871660208201526001600160a01b038916918a917f9441d3414c1707a23ed1588ab029d3d4c740bf06fc0163357b45cd352f990f70910160405180910390a35050505050505050565b611ddd611e3a565b6001600160a01b038116611e0757604051631e4fbdf760e01b8152600060048201526024016109c4565b610c4c81611e67565b600260015403611e3357604051633ee5aeb560e01b815260040160405180910390fd5b6002600155565b6000546001600160a01b031633146110c75760405163118cdaa760e01b81523360048201526024016109c4565b600080546001600160a01b038381166001600160a01b0319831681178455604051919092169283917f8be0079c531659141344cd1fd0a4f28419497f9722a3daafe3b4186f6b6457e09190a35050565b600080600080611ec78686611ffb565b925092509250611ed78282612048565b5090949350505050565b6000605a8261ffff1610611ef75750605a919050565b604b8261ffff1610611f0b57506050919050565b603c8261ffff1610611f1f57506046919050565b506032919050565b6001600160a01b038216600090815260076020908152604080832080548251818502810185019093528083528493830182828015611f8e57602002820191906000526020600020905b81546001600160a01b03168152600190910190602001808311611f70575b5050505050905060005b8151811015611ff057836001600160a01b0316828281518110611fbd57611fbd6128f2565b60200260200101516001600160a01b031603611fde57600192505050610ce1565b80611fe881612889565b915050611f98565b506000949350505050565b600080600083516041036120355760208401516040850151606086015160001a61202788828585612105565b955095509550505050612041565b50508151600091506002905b9250925092565b600082600381111561205c5761205c61249f565b03612065575050565b60018260038111156120795761207961249f565b036120975760405163f645eedf60e01b815260040160405180910390fd5b60028260038111156120ab576120ab61249f565b036120cc5760405163fce698f760e01b8152600481018290526024016109c4565b60038260038111156120e0576120e061249f565b03612101576040516335e2f38360e21b8152600481018290526024016109c4565b5050565b600080807f7fffffffffffffffffffffffffffffff5d576e7357a4501ddfe92f46681b20a084111561214057506000915060039050826121ca565b604080516000808252602082018084528a905260ff891692820192909252606081018790526080810186905260019060a0016020604051602081039080840390855afa158015612194573d6000803e3d6000fd5b5050604051601f1901519150506001600160a01b0381166121c0575060009250600191508290506121ca565b9250600091508190505b9450945094915050565b604051806101400160405280600081526020016000815260200160008152602001600081526020016000815260200160008152602001600081526020016000815260200161223f60405180606001604052806000801916815260200160008152602001600081525090565b8152602001612261604051806040016040528060008152602001600081525090565b905290565b6040518060e001604052806000815260200160006001600160a01b03168152602001600081526020016000815260200160008152602001600060038111156122b0576122b061249f565b8152600060209091015290565b80356001600160a01b03811681146122d457600080fd5b919050565b6000602082840312156122eb57600080fd5b611038826122bd565b803567ffffffffffffffff811681146122d457600080fd5b803561ffff811681146122d457600080fd5b600080600080600060a0868803121561233657600080fd5b61233f866122bd565b945061234d602087016122f4565b935061235b6040870161230c565b94979396509394606081013594506080013592915050565b60006020828403121561238557600080fd5b5035919050565b81518152602080830151908201526040808301519082015260608101610ce1565b600080604083850312156123c057600080fd5b6123c9836122bd565b91506123d7602084016122f4565b90509250929050565b600080604083850312156123f357600080fd5b50508035926020909101359150565b60006101a082019050825182526020830151602083015260408301516040830152606083015160608301526080830151608083015260a083015160a083015260c083015160c083015260e083015160e08301526101008084015161247c828501828051825260208082015190830152604090810151910152565b5050610120830151805161016084015260208101516101808401525b5092915050565b634e487b7160e01b600052602160045260246000fd5b815181526020808301516001600160a01b03169082015260408083015190820152606080830151908201526080808301519082015260a082015160e08201906004811061251257634e487b7160e01b600052602160045260246000fd5b8060a08401525060c083015161249860c08401826001600160a01b03169052565b6020808252825182820181905260009190848201906040850190845b818110156125745783516001600160a01b03168352928401929184019160010161254f565b50909695505050505050565b8015158114610c4c57600080fd5b600080604083850312156125a157600080fd5b6125aa836122bd565b915060208301356125ba81612580565b809150509250929050565b6020808252825182820181905260009190848201906040850190845b81811015612574578351835292840192918401916001016125e1565b6000806040838503121561261057600080fd5b612619836122bd565b946020939093013593505050565b634e487b7160e01b600052604160045260246000fd5b60008060006060848603121561265257600080fd5b8335925060208401359150604084013567ffffffffffffffff8082111561267857600080fd5b818601915086601f83011261268c57600080fd5b81358181111561269e5761269e612627565b604051601f8201601f19908116603f011681019083821181831017156126c6576126c6612627565b816040528281528960208487010111156126df57600080fd5b8260208601602083013760006020848301015280955050505050509250925092565b815181526020808301519082015260408101610ce1565b6000806000806080858703121561272e57600080fd5b8435935061273e602086016122bd565b9250604085013591506127536060860161230c565b905092959194509250565b60006101a0820190508b82528a60208301528960408301528860608301528760808301528660a08301528560c08301528460e08301526127b66101008301858051825260208082015190830152604090810151910152565b825161016083015260208301516101808301529b9a5050505050505050505050565b634e487b7160e01b600052601160045260246000fd5b81810381811115610ce157610ce16127d8565b60006020828403121561281357600080fd5b815161103881612580565b6020808252601590820152742737ba1030baba3437b934bd32b2103632b73232b960591b604082015260600190565b6020808252600f908201526e4c6f616e206e6f742061637469766560881b604082015260600190565b80820180821115610ce157610ce16127d8565b60006001820161289b5761289b6127d8565b5060010190565b6000816128b1576128b16127d8565b506000190190565b8082028115828204841417610ce157610ce16127d8565b6000826128ed57634e487b7160e01b600052601260045260246000fd5b500490565b634e487b7160e01b600052603260045260246000fdfea2646970667358221220d7f53216b26966d676178d730af714d85d8e7c2a72434854f159ab957d5fa30e64736f6c63430008140033",
  "linkReferences": {},
  "deployedLinkReferences": {}
}