{
  "_format": "hh-sol-artifact-1",
  "contractName": "CreditVault",
  "sourceName": "contracts/CreditVault.sol",
  "abi": [
    {
      "inputs": [
        {
          "internalType": "address payable",
          "name": "_registry",
          "type": "address"
        },
        {
          "internalType": "address",
          "name": "_oracle",
          "type": "address"
        }
      ],
      "stateMutability": "nonpayable",
      "type": "constructor"
    },
    {
      "inputs": [],
      "name": "EnforcedPause",
      "type": "error"
    },
    {
      "inputs": [],
      "name": "ExpectedPause",
      "type": "error"
    },
    {
      "inputs": [
        {
          "internalType": "address",
          "name": "owner",
          "type": "address"
        }
      ],
      "name": "OwnableInvalidOwner",
      "type": "error"
    },
    {
      "inputs": [
        {
          "internalType": "address",
          "name": "account",
          "type": "address"
        }
      ],
      "name": "OwnableUnauthorizedAccount",
      "type": "error"
    },
    {
      "inputs": [],
      "name": "ReentrancyGuardReentrantCall",
      "type": "error"
    },
    {
      "inputs": [
        {
          "internalType": "address",
          "name": "token",
          "type": "address"
        }
      ],
      "name": "SafeERC20FailedOperation",
      "type": "error"
    },
    {
      "anonymous": false,
      "inputs": [
        {
          "indexed": true,
          "internalType": "address",
          "name": "token",
          "type": "address"
        },
        {
          "indexed": false,
          "internalType": "address",
          "name": "priceFeed",
          "type": "address"
        },
        {
          "indexed": false,
          "internalType": "bool",
          "name": "allowed",
          "type": "bool"
        }
      ],
      "name": "AssetConfigured",
      "type": "event"
    },
    {
      "anonymous": false,
      "inputs": [
        {
          "indexed": true,
          "internalType": "address",
          "name": "user",
          "type": "address"
        },
        {
          "indexed": true,
          "internalType": "address",
          "name": "token",
          "type": "address"
        },
        {
          "indexed": false,
          "internalType": "uint256",
          "name": "amount",
          "type": "uint256"
        },
        {
          "indexed": false,
          "internalType": "uint256",
          "name": "usdValue",
          "type": "uint256"
        }
      ],
      "name": "CollateralDeposited",
      "type": "event"
    },
    {
      "anonymous": false,
      "inputs": [
        {
          "indexed": true,
          "internalType": "address",
          "name": "user",
          "type": "address"
        },
        {
          "indexed": true,
          "internalType": "address",
          "name": "token",
          "type": "address"
        },
        {
          "indexed": false,
          "internalType": "uint256",
          "name": "amount",
          "type": "uint256"
        },
        {
          "indexed": false,
          "internalType": "uint256",
          "name": "usdValue",
          "type": "uint256"
        }
      ],
      "name": "CollateralWithdrawn",
      "type": "event"
    },
    {
      "anonymous": false,
      "inputs": [
        {
          "indexed": true,
          "internalType": "uint256",
          "name": "loanId",
          "type": "uint256"
        },
        {
          "indexed": false,
          "internalType": "uint256",
          "name": "timestamp",
          "type": "uint256"
        }
      ],
      "name": "GracePeriodStarted",
      "type": "event"
    },
    {
      "anonymous": false,
      "inputs": [
        {
          "indexed": true,
          "internalType": "address",
          "name": "pool",
          "type": "address"
        }
      ],
      "name": "InsurancePoolSet",
      "type": "event"
    },
    {
      "anonymous": false,
      "inputs": [
        {
          "indexed": true,
          "internalType": "uint256",
          "name": "loanId",
          "type": "uint256"
        },
        {
          "indexed": true,
          "internalType": "address",
          "name": "borrower",
          "type": "address"
        },
        {
          "indexed": false,
          "internalType": "uint256",
          "name": "principal",
          "type": "uint256"
        },
        {
          "indexed": false,
          "internalType": "uint256",
          "name": "collateral",
          "type": "uint256"
        },
        {
          "indexed": false,
          "internalType": "address",
          "name": "collateralToken",
          "type": "address"
        }
      ],
      "name": "LoanCreated",
      "type": "event"
    },
    {
      "anonymous": false,
      "inputs": [
        {
          "indexed": true,
          "internalType": "uint256",
          "name": "loanId",
          "type": "uint256"
        },
        {
          "indexed": true,
          "internalType": "address",
          "name": "borrower",
          "type": "address"
        },
        {
          "indexed": true,
          "internalType": "address",
          "name": "liquidator",
          "type": "address"
        },
        {
          "indexed": false,
          "internalType": "uint256",
          "name": "collateralSeized",
          "type": "uint256"
        }
      ],
      "name": "LoanLiquidated",
      "type": "event"
    },
    {
      "anonymous": false,
      "inputs": [
        {
          "indexed": true,
          "internalType": "uint256",
          "name": "loanId",
          "type": "uint256"
        },
        {
          "indexed": true,
          "internalType": "address",
          "name": "borrower",
          "type": "address"
        },
        {
          "indexed": false,
          "internalType": "uint256",
          "name": "amount",
          "type": "uint256"
        },
        {
          "indexed": false,
          "internalType": "uint256",
          "name": "remaining",
          "type": "uint256"
        }
      ],
      "name": "LoanRepaid",
      "type": "event"
    },
    {
      "anonymous": false,
      "inputs": [
        {
          "indexed": true,
          "internalType": "address",
          "name": "newOracle",
          "type": "address"
        }
      ],
      "name": "OracleUpdated",
      "type": "event"
    },
    {
      "anonymous": false,
      "inputs": [
        {
          "indexed": true,
          "internalType": "address",
          "name": "previousOwner",
          "type": "address"
        },
        {
          "indexed": true,
          "internalType": "address",
          "name": "newOwner",
          "type": "address"
        }
      ],
      "name": "OwnershipTransferred",
      "type": "event"
    },
    {
      "anonymous": false,
      "inputs": [
        {
          "indexed": false,
          "internalType": "address",
          "name": "account",
          "type": "address"
        }
      ],
      "name": "Paused",
      "type": "event"
    },
    {
      "anonymous": false,
      "inputs": [
        {
          "indexed": false,
          "internalType": "address",
          "name": "account",
          "type": "address"
        }
      ],
      "name": "Unpaused",
      "type": "event"
    },
    {
      "inputs": [],
      "name": "GRACE_BRONZE",
      "outputs": [
        {
          "internalType": "uint256",
          "name": "",
          "type": "uint256"
        }
      ],
      "stateMutability": "view",
      "type": "function"
    },
    {
      "inputs": [],
      "name": "GRACE_GOLD",
      "outputs": [
        {
          "internalType": "uint256",
          "name": "",
          "type": "uint256"
        }
      ],
      "stateMutability": "view",
      "type": "function"
    },
    {
      "inputs": [],
      "name": "GRACE_PLATINUM",
      "outputs": [
        {
          "internalType": "uint256",
          "name": "",
          "type": "uint256"
        }
      ],
      "stateMutability": "view",
      "type": "function"
    },
    {
      "inputs": [],
      "name": "GRACE_SILVER",
      "outputs": [
        {
          "internalType": "uint256",
          "name": "",
          "type": "uint256"
        }
      ],
      "stateMutability": "view",
      "type": "function"
    },
    {
      "inputs": [],
      "name": "INSURANCE_SHARE_BPS",
      "outputs": [
        {
          "internalType": "uint16",
          "name": "",
          "type": "uint16"
        }
      ],
      "stateMutability": "view",
      "type": "function"
    },
    {
      "inputs": [],
      "name": "LIQUIDATION_PENALTY_BPS",
      "outputs": [
        {
          "internalType": "uint16",
          "name": "",
          "type": "uint16"
        }
      ],
      "stateMutability": "view",
      "type": "function"
    },
    {
      "inputs": [],
      "name": "LIQUIDATOR_SHARE_BPS",
      "outputs": [
        {
          "internalType": "uint16",
          "name": "",
          "type": "uint16"
        }
      ],
      "stateMutability": "view",
      "type": "function"
    },
    {
      "inputs": [],
      "name": "LTV_BRONZE",
      "outputs": [
        {
          "internalType": "uint16",
          "name": "",
          "type": "uint16"
        }
      ],
      "stateMutability": "view",
      "type": "function"
    },
    {
      "inputs": [],
      "name": "LTV_GOLD",
      "outputs": [
        {
          "internalType": "uint16",
          "name": "",
          "type": "uint16"
        }
      ],
      "stateMutability": "view",
      "type": "function"
    },
    {
      "inputs": [],
      "name": "LTV_PLATINUM",
      "outputs": [
        {
          "internalType": "uint16",
          "name": "",
          "type": "uint16"
        }
      ],
      "stateMutability": "view",
      "type": "function"
    },
    {
      "inputs": [],
      "name": "LTV_SILVER",
      "outputs": [
        {
          "internalType": "uint16",
          "name": "",
          "type": "uint16"
        }
      ],
      "stateMutability": "view",
      "type": "function"
    },
    {
      "inputs": [],
      "name": "MIN_HEALTH_FACTOR",
      "outputs": [
        {
          "internalType": "uint256",
          "name": "",
          "type": "uint256"
        }
      ],
      "stateMutability": "view",
      "type": "function"
    },
    {
      "inputs": [
        {
          "internalType": "address",
          "name": "",
          "type": "address"
        }
      ],
      "name": "assets",
      "outputs": [
        {
          "internalType": "bool",
          "name": "allowed",
          "type": "bool"
        },
        {
          "internalType": "address",
          "name": "priceFeed",
          "type": "address"
        }
      ],
      "stateMutability": "view",
      "type": "function"
    },
    {
      "inputs": [
        {
          "internalType": "address",
          "name": "collateralToken",
          "type": "address"
        },
        {
          "internalType": "uint256",
          "name": "collateralAmount",
          "type": "uint256"
        },
        {
          "internalType": "uint256",
          "name": "principalUsd18",
          "type": "uint256"
        }
      ],
      "name": "borrow",
      "outputs": [
        {
          "internalType": "uint256",
          "name": "loanId",
          "type": "uint256"
        }
      ],
      "stateMutability": "nonpayable",
      "type": "function"
    },
    {
      "inputs": [
        {
          "internalType": "uint256",
          "name": "loanId",
          "type": "uint256"
        }
      ],
      "name": "calculateDebt",
      "outputs": [
        {
          "internalType": "uint256",
          "name": "",
          "type": "uint256"
        }
      ],
      "stateMutability": "view",
      "type": "function"
    },
    {
      "inputs": [
        {
          "internalType": "address",
          "name": "token",
          "type": "address"
        },
        {
          "internalType": "uint256",
          "name": "amount",
          "type": "uint256"
        }
      ],
      "name": "depositCollateral",
      "outputs": [],
      "stateMutability": "nonpayable",
      "type": "function"
    },
    {
      "inputs": [
        {
          "internalType": "uint256",
          "name": "loanId",
          "type": "uint256"
        }
      ],
      "name": "getHealthFactor",
      "outputs": [
        {
          "internalType": "uint256",
          "name": "",
          "type": "uint256"
        }
      ],
      "stateMutability": "view",
      "type": "function"
    },
    {
      "inputs": [
        {
          "internalType": "uint256",
          "name": "loanId",
          "type": "uint256"
        }
      ],
      "name": "getLoan",
      "outputs": [
        {
          "components": [
            {
              "internalType": "address",
              "name": "borrower",
              "type": "address"
            },
            {
              "internalType": "uint256",
              "name": "principal",
              "type": "uint256"
            },
            {
              "internalType": "uint256",
              "name": "collateralAmount",
              "type": "uint256"
            },
            {
              "internalType": "address",
              "name": "collateralToken",
              "type": "address"
            },
            {
              "internalType": "uint256",
              "name": "aprBps",
              "type": "uint256"
            },
            {
              "internalType": "uint256",
              "name": "startTimestamp",
              "type": "uint256"
            },
            {
              "internalType": "bool",
              "name": "active",
              "type": "bool"
            },
            {
              "internalType": "uint256",
              "name": "graceStart",
              "type": "uint256"
            }
          ],
          "internalType": "struct CreditVault.Loan",
          "name": "",
          "type": "tuple"
        }
      ],
      "stateMutability": "view",
      "type": "function"
    },
    {
      "inputs": [
        {
          "internalType": "address",
          "name": "user",
          "type": "address"
        }
      ],
      "name": "getUserHealthFactor",
      "outputs": [
        {
          "internalType": "uint256",
          "name": "",
          "type": "uint256"
        }
      ],
      "stateMutability": "view",
      "type": "function"
    },
    {
      "inputs": [],
      "name": "insurancePool",
      "outputs": [
        {
          "internalType": "address",
          "name": "",
          "type": "address"
        }
      ],
      "stateMutability": "view",
      "type": "function"
    },
    {
      "inputs": [
        {
          "internalType": "uint256",
          "name": "loanId",
          "type": "uint256"
        }
      ],
      "name": "liquidate",
      "outputs": [],
      "stateMutability": "nonpayable",
      "type": "function"
    },
    {
      "inputs": [
        {
          "internalType": "uint256",
          "name": "",
          "type": "uint256"
        }
      ],
      "name": "loans",
      "outputs": [
        {
          "internalType": "address",
          "name": "borrower",
          "type": "address"
        },
        {
          "internalType": "uint256",
          "name": "principal",
          "type": "uint256"
        },
        {
          "internalType": "uint256",
          "name": "collateralAmount",
          "type": "uint256"
        },
        {
          "internalType": "address",
          "name": "collateralToken",
          "type": "address"
        },
        {
          "internalType": "uint256",
          "name": "aprBps",
          "type": "uint256"
        },
        {
          "internalType": "uint256",
          "name": "startTimestamp",
          "type": "uint256"
        },
        {
          "internalType": "bool",
          "name": "active",
          "type": "bool"
        },
        {
          "internalType": "uint256",
          "name": "graceStart",
          "type": "uint256"
        }
      ],
      "stateMutability": "view",
      "type": "function"
    },
    {
      "inputs": [],
      "name": "nextLoanId",
      "outputs": [
        {
          "internalType": "uint256",
          "name": "",
          "type": "uint256"
        }
      ],
      "stateMutability": "view",
      "type": "function"
    },
    {
      "inputs": [],
      "name": "oracle",
      "outputs": [
        {
          "internalType": "contract ScoreOracleSimple",
          "name": "",
          "type": "address"
        }
      ],
      "stateMutability": "view",
      "type": "function"
    },
    {
      "inputs": [],
      "name": "owner",
      "outputs": [
        {
          "internalType": "address",
          "name": "",
          "type": "address"
        }
      ],
      "stateMutability": "view",
      "type": "function"
    },
    {
      "inputs": [],
      "name": "pause",
      "outputs": [],
      "stateMutability": "nonpayable",
      "type": "function"
    },
    {
      "inputs": [],
      "name": "paused",
      "outputs": [
        {
          "internalType": "bool",
          "name": "",
          "type": "bool"
        }
      ],
      "stateMutability": "view",
      "type": "function"
    },
    {
      "inputs": [],
      "name": "registry",
      "outputs": [
        {
          "internalType": "contract CreditRegistryV1_1",
          "name": "",
          "type": "address"
        }
      ],
      "stateMutability": "view",
      "type": "function"
    },
    {
      "inputs": [],
      "name": "renounceOwnership",
      "outputs": [],
      "stateMutability": "nonpayable",
      "type": "function"
    },
    {
      "inputs": [
        {
          "internalType": "uint256",
          "name": "loanId",
          "type": "uint256"
        },
        {
          "internalType": "uint256",
          "name": "amountUsd18",
          "type": "uint256"
        }
      ],
      "name": "repay",
      "outputs": [],
      "stateMutability": "nonpayable",
      "type": "function"
    },
    {
      "inputs": [
        {
          "internalType": "address",
          "name": "token",
          "type": "address"
        },
        {
          "internalType": "address",
          "name": "priceFeed",
          "type": "address"
        },
        {
          "internalType": "bool",
          "name": "allowed",
          "type": "bool"
        }
      ],
      "name": "setAsset",
      "outputs": [],
      "stateMutability": "nonpayable",
      "type": "function"
    },
    {
      "inputs": [
        {
          "internalType": "address",
          "name": "_pool",
          "type": "address"
        }
      ],
      "name": "setInsurancePool",
      "outputs": [],
      "stateMutability": "nonpayable",
      "type": "function"
    },
    {
      "inputs": [
        {
          "internalType": "address",
          "name": "_oracle",
          "type": "address"
        }
      ],
      "name": "setOracle",
      "outputs": [],
      "stateMutability": "nonpayable",
      "type": "function"
    },
    {
      "inputs": [
        {
          "internalType": "address",
          "name": "newOwner",
          "type": "address"
        }
      ],
      "name": "transferOwnership",
      "outputs": [],
      "stateMutability": "nonpayable",
      "type": "function"
    },
    {
      "inputs": [],
      "name": "unpause",
      "outputs": [],
      "stateMutability": "nonpayable",
      "type": "function"
    },
    {
      "inputs": [
        {
          "internalType": "address",
          "name": "",
          "type": "address"
        }
      ],
      "name": "userCollateral",
      "outputs": [
        {
          "internalType": "uint256",
          "name": "",
          "type": "uint256"
        }
      ],
      "stateMutability": "view",
      "type": "function"
    },
    {
      "inputs": [
        {
          "internalType": "address",
          "name": "token",
          "type": "address"
        },
        {
          "internalType": "uint256",
          "name": "amount",
          "type": "uint256"
        }
      ],
      "name": "withdrawCollateral",
      "outputs": [],
      "stateMutability": "nonpayable",
      "type": "function"
    }
  ],
  "bytecode": "0x60a06040523480156200001157600080fd5b50604051620024c1380380620024c1833981016040819052620000349162000199565b33806200005c57604051631e4fbdf760e01b8152600060048201526024015b60405180910390fd5b620000678162000130565b50600180556001600160a01b038216620000b75760405162461bcd60e51b815260206004820152601060248201526f496e76616c696420726567697374727960801b604482015260640162000053565b6001600160a01b038116620001005760405162461bcd60e51b815260206004820152600e60248201526d496e76616c6964206f7261636c6560901b604482015260640162000053565b6001600160a01b03918216608052600280549190921661010002610100600160a81b0319909116179055620001d8565b600080546001600160a01b038381166001600160a01b0319831681178455604051919092169283917f8be0079c531659141344cd1fd0a4f28419497f9722a3daafe3b4186f6b6457e09190a35050565b6001600160a01b03811681146200019657600080fd5b50565b60008060408385031215620001ad57600080fd5b8251620001ba8162000180565b6020840151909250620001cd8162000180565b809150509250929050565b6080516122cd620001f4600039600061039601526122cd6000f3fe608060405234801561001057600080fd5b50600436106102275760003560e01c80638da5cb5b11610130578063d850342f116100b8578063f11b81881161007c578063f11b81881461055f578063f1e35f13146105b1578063f2fde38b146105b9578063f69f1e4a146105cc578063fc54ddfb146105ec57600080fd5b8063d850342f14610482578063d8aed1451461048c578063dd9493281461049f578063e1ec3c68146104a9578063eb32bd9d1461055757600080fd5b8063b32a5314116100ff578063b32a531414610443578063b5627e421461044d578063c1bce0b71461045c578063c41c22fc14610275578063cb0dc99d1461046f57600080fd5b80638da5cb5b146103f9578063a5d5db0c1461040a578063a94c487e1461041d578063ab2adc001461043057600080fd5b8063504006ca116101b35780637adbf973116101825780637adbf9731461037e5780637b103999146103915780637dc0d1d0146103d05780638456cb59146103e857806387c51459146103f057600080fd5b8063504006ca146102cb5780635c975abb1461034d578063715018a61461036357806371cbfc981461036b57600080fd5b806328cd5a99116101fa57806328cd5a991461027e578063350c35e9146102915780633f4ba83a146102a6578063415f1240146102ae5780634f0f29f4146102c157600080fd5b806306057c5c1461022c5780630943a9541461024c57806317845c69146102545780631d1a54ce14610275575b600080fd5b610234604681565b60405161ffff90911681526020015b60405180910390f35b610234605081565b610267610262366004611dfa565b6105f5565b604051908152602001610243565b6102346101f481565b61026761028c366004611dfa565b6106c9565b6102a461029f366004611e2a565b6106da565b005b6102a46108dd565b6102a46102bc366004611dfa565b6108ef565b6102676202a30081565b6102de6102d9366004611dfa565b610c9a565b604051610243919060006101008201905060018060a01b038084511683526020840151602084015260408401516040840152806060850151166060840152506080830151608083015260a083015160a083015260c0830151151560c083015260e083015160e083015292915050565b60025460ff166040519015158152602001610243565b6102a4610d72565b610267610379366004611e54565b610d84565b6102a461038c366004611e54565b610de2565b6103b87f000000000000000000000000000000000000000000000000000000000000000081565b6040516001600160a01b039091168152602001610243565b6002546103b89061010090046001600160a01b031681565b6102a4610e83565b61026760075481565b6000546001600160a01b03166103b8565b6102a4610418366004611e2a565b610e93565b6102a461042b366004611e54565b610f95565b6006546103b8906001600160a01b031681565b6102676201518081565b6102676710a741a46278000081565b61026761046a366004611e6f565b61102c565b6102a461047d366004611ea2565b6113ae565b6102676203f48081565b6102a461049a366004611eee565b6114e8565b6102676201fa4081565b61050c6104b7366004611dfa565b6003602081905260009182526040909120805460018201546002830154938301546004840154600585015460068601546007909601546001600160a01b039586169794969495909316939192909160ff169088565b604080516001600160a01b03998a1681526020810198909852870195909552959092166060850152608084015260a083015291151560c082015260e081019190915261010001610243565b610234605a81565b61059261056d366004611e54565b60046020526000908152604090205460ff81169061010090046001600160a01b031682565b6040805192151583526001600160a01b03909116602083015201610243565b610234603281565b6102a46105c7366004611e54565b61169c565b6102676105da366004611e54565b60056020526000908152604090205481565b6102346103e881565b600081815260036020818152604080842081516101008101835281546001600160a01b03908116825260018301549482019490945260028201549281019290925292830154909116606082015260048201546080820152600582015460a0820152600682015460ff16151560c0820181905260079092015460e0820152906106805750600092915050565b600061068b846116d7565b905060006106a1836060015184604001516117b9565b9050816106b682670de0b6b3a7640000611f26565b6106c09190611f3d565b95945050505050565b60006106d4826116d7565b92915050565b6106e2611982565b6106ea6119ac565b6001600160a01b03821660009081526004602052604090205460ff1661072b5760405162461bcd60e51b815260040161072290611f5f565b60405180910390fd5b6000811161074b5760405162461bcd60e51b815260040161072290611f8a565b600061075783836117b9565b336000908152600560205260409020549091508111156107b95760405162461bcd60e51b815260206004820152601760248201527f496e73756666696369656e7420636f6c6c61746572616c0000000000000000006044820152606401610722565b33600090815260056020526040812080548392906107d8908490611faf565b90915550600090506107e9336119d0565b905080156108735733600090815260056020526040812054829061081590670de0b6b3a7640000611f26565b61081f9190611f3d565b90506710a741a4627800008110156108715760405162461bcd60e51b81526020600482015260156024820152744865616c746820666163746f7220746f6f206c6f7760581b6044820152606401610722565b505b6108876001600160a01b0385163385611ab0565b60408051848152602081018490526001600160a01b0386169133917f4700a5c58c58ea6536703185e43dae38bfd4158ee5330c70988f02a65562a36e91015b60405180910390a350506108d960018055565b5050565b6108e5611b14565b6108ed611b41565b565b6108f7611982565b6108ff6119ac565b6000818152600360205260409020600681015460ff166109535760405162461bcd60e51b815260206004820152600f60248201526e4c6f616e206e6f742061637469766560881b6044820152606401610722565b600061095e836116d7565b60038301546002840154919250600091610981916001600160a01b0316906117b9565b60025484546040516331751b7f60e21b81526001600160a01b039182166004820152929350600092610100909204169063c5d46dfc9060240160c060405180830381865afa1580156109d7573d6000803e3d6000fd5b505050506040513d601f19601f820116820180604052508101906109fb9190611ff7565b90506000610a0c8260a00151611b93565b90506000610a1b82600a6120a4565b61ffff1690506000610a2d8286611f26565b610a38876064611f26565b11905080610b3a576000610a4f8560a00151611bdc565b90508760070154600003610ad957426007890181905560405190815289907f850e821388cbf246fb93b12357651e23887c72f848742c21dbff137031b1356b9060200160405180910390a260405162461bcd60e51b815260206004820152601460248201527311dc9858d9481c195c9a5bd9081cdd185c9d195960621b6044820152606401610722565b808860070154610ae991906120bf565b421015610b385760405162461bcd60e51b815260206004820152601860248201527f477261636520706572696f64206e6f74206578706972656400000000000000006044820152606401610722565b505b60068701805460ff19169055600287015460009061271090610b5f906103e890611f26565b610b699190611f3d565b905060006127106101f461ffff168a60020154610b869190611f26565b610b909190611f3d565b905060006127106101f461ffff168b60020154610bad9190611f26565b610bb79190611f3d565b90506000838b60020154610bcb9190611faf565b60038c0154909150610be7906001600160a01b03163385611ab0565b6006546001600160a01b031615610c175760065460038c0154610c17916001600160a01b03918216911684611ab0565b8015610c3b578a5460038c0154610c3b916001600160a01b03918216911683611ab0565b8a5460028c015460405190815233916001600160a01b0316908e907fe4b3cb24da49cbaa1989989a720518b9c8c12f4a6e0d848853745d9271104b0f9060200160405180910390a45050505050505050505050610c9760018055565b50565b610cf660405180610100016040528060006001600160a01b03168152602001600081526020016000815260200160006001600160a01b031681526020016000815260200160008152602001600015158152602001600081525090565b5060009081526003602081815260409283902083516101008101855281546001600160a01b0390811682526001830154938201939093526002820154948101949094529182015416606083015260048101546080830152600581015460a0830152600681015460ff16151560c08301526007015460e082015290565b610d7a611b14565b6108ed6000611c2d565b600080610d90836119d0565b905080600003610da4575060001992915050565b6001600160a01b0383166000908152600560205260409020548190610dd190670de0b6b3a7640000611f26565b610ddb9190611f3d565b9392505050565b610dea611b14565b6001600160a01b038116610e315760405162461bcd60e51b815260206004820152600e60248201526d496e76616c6964206f7261636c6560901b6044820152606401610722565b60028054610100600160a81b0319166101006001600160a01b038416908102919091179091556040517f3df77beb5db05fcdd70a30fc8adf3f83f9501b68579455adbd100b818094039490600090a250565b610e8b611b14565b6108ed611c7d565b610e9b611982565b610ea36119ac565b6001600160a01b03821660009081526004602052604090205460ff16610edb5760405162461bcd60e51b815260040161072290611f5f565b60008111610efb5760405162461bcd60e51b815260040161072290611f8a565b610f106001600160a01b038316333084611cba565b6000610f1c83836117b9565b33600090815260056020526040812080549293508392909190610f409084906120bf565b909155505060408051838152602081018390526001600160a01b0385169133917f95d16db8c4932fcf5d6de67364791e7178ec505c7d3829a8b34d18959c01552c910160405180910390a3506108d960018055565b610f9d611b14565b6001600160a01b038116610fe25760405162461bcd60e51b815260206004820152600c60248201526b125b9d985b1a59081c1bdbdb60a21b6044820152606401610722565b600680546001600160a01b0319166001600160a01b0383169081179091556040517fdb94373ec3215b3142c9088cb1f834141c88090d24a7172315200cd92b85306590600090a250565b6000611036611982565b61103e6119ac565b6001600160a01b03841660009081526004602052604090205460ff166110765760405162461bcd60e51b815260040161072290611f5f565b600083116110b85760405162461bcd60e51b815260206004820152600f60248201526e16995c9bc818dbdb1b185d195c985b608a1b6044820152606401610722565b600082116110f95760405162461bcd60e51b815260206004820152600e60248201526d16995c9bc81c1c9a5b98da5c185b60921b6044820152606401610722565b6002546040516331751b7f60e21b815233600482015260009161010090046001600160a01b03169063c5d46dfc9060240160c060405180830381865afa158015611147573d6000803e3d6000fd5b505050506040513d601f19601f8201168201806040525081019061116b9190611ff7565b9050600061117c8260a00151611b93565b9050600061118a87876117b9565b905061119a61ffff831682611f26565b6111a5866064611f26565b11156111e95760405162461bcd60e51b815260206004820152601360248201527222bc31b2b2b2399030b63637bbb2b210262a2b60691b6044820152606401610722565b60025460a084015160405163fb4ceaa360e01b815261ffff909116600482015260009161010090046001600160a01b03169063fb4ceaa390602401602060405180830381865afa158015611241573d6000803e3d6000fd5b505050506040513d601f19601f8201168201806040525081019061126591906120d2565b600780549192506000611277836120ed565b9091555060408051610100810182523380825260208083018b81528385018d81526001600160a01b038f81166060870181815261ffff8b16608089019081524260a08a01908152600160c08b01818152600060e08d018181528f825260039b8c90529d90209b518c546001600160a01b0319908116918916919091178d559851918c0191909155955160028b015591519689018054909616969093169590951790935551600486015591516005850155905160068401805460ff1916911515919091179055925160079092019190915591965061135591308a611cba565b60408051878152602081018990526001600160a01b038a16818301529051339187917fc64023e02d0cb6f8d0b71a27b868cf100ab2b029455da648672e0522de0f4ce59181900360600190a350505050610ddb60018055565b6113b6611b14565b6001600160a01b0383166113fc5760405162461bcd60e51b815260206004820152600d60248201526c24b73b30b634b2103a37b5b2b760991b6044820152606401610722565b6001600160a01b0382166114475760405162461bcd60e51b8152602060048201526012602482015271125b9d985b1a59081c1c9a58d9481999595960721b6044820152606401610722565b6040805180820182528215158082526001600160a01b0385811660208085018281528984166000818152600484528890209651875492516001600160a81b0319909316901515610100600160a81b03191617610100929095169190910293909317909455845190815292830191909152917f93c63ede467bb2aab36216973fe7ae0908f66f1f5de14fe7f1b754f58798060b910160405180910390a2505050565b6114f0611982565b6114f86119ac565b6000828152600360205260409020600681015460ff1661154c5760405162461bcd60e51b815260206004820152600f60248201526e4c6f616e206e6f742061637469766560881b6044820152606401610722565b6000821161156c5760405162461bcd60e51b815260040161072290611f8a565b6000611577846116d7565b9050808311156115bf5760405162461bcd60e51b8152602060048201526013602482015272105b5bdd5b9d08195e18d959591cc81919589d606a1b6044820152606401610722565b8083106116445760068201805460ff191690558154600283015460038401546115f6926001600160a01b0391821692911690611ab0565b815460408051858152600060208201526001600160a01b039092169186917f553c9087bff5b534e499a66dac3fa9db2962cd252ea01165239755836ae5345e910160405180910390a3611691565b81546001600160a01b0316847f553c9087bff5b534e499a66dac3fa9db2962cd252ea01165239755836ae5345e8561167c8186611faf565b604080519283526020830191909152016108c6565b50506108d960018055565b6116a4611b14565b6001600160a01b0381166116ce57604051631e4fbdf760e01b815260006004820152602401610722565b610c9781611c2d565b600081815260036020818152604080842081516101008101835281546001600160a01b03908116825260018301549482019490945260028201549281019290925292830154909116606082015260048201546080820152600582015460a0820152600682015460ff16151560c0820181905260079092015460e0820152906117625750600092915050565b60008160a00151426117749190611faf565b9050600064496cebb80082846080015185602001516117939190611f26565b61179d9190611f26565b6117a79190611f3d565b90508083602001516106c091906120bf565b6001600160a01b03808316600090815260046020908152604080832081518083019092525460ff811615158083526101009091049094169181019190915290916118155760405162461bcd60e51b815260040161072290611f5f565b6000816020015190506000816001600160a01b031663feaf968c6040518163ffffffff1660e01b815260040160a060405180830381865afa15801561185e573d6000803e3d6000fd5b505050506040513d601f19601f820116820180604052508101906118829190612120565b505050915050600081136118c85760405162461bcd60e51b815260206004820152600d60248201526c496e76616c696420707269636560981b6044820152606401610722565b6000826001600160a01b031663313ce5676040518163ffffffff1660e01b8152600401602060405180830381865afa158015611908573d6000803e3d6000fd5b505050506040513d601f19601f8201168201806040525081019061192c9190612170565b9050600061193988611cf9565b9050611945828261218b565b61195090600a612288565b61195a8489611f26565b61196c90670de0b6b3a7640000611f26565b6119769190611f3d565b98975050505050505050565b6002600154036119a557604051633ee5aeb560e01b815260040160405180910390fd5b6002600155565b60025460ff16156108ed5760405163d93c066560e01b815260040160405180910390fd5b600080805b600754811015611aa95760008181526003602081815260409283902083516101008101855281546001600160a01b0390811682526001830154938201939093526002820154948101949094529182015416606083015260048101546080830152600581015460a0830152600681015460ff1615801560c0840181905260079092015460e0840152611a7b5750846001600160a01b031681600001516001600160a01b0316145b15611a9657611a89826116d7565b611a9390846120bf565b92505b5080611aa1816120ed565b9150506119d5565b5092915050565b6040516001600160a01b03838116602483015260448201839052611b0f91859182169063a9059cbb906064015b604051602081830303815290604052915060e01b6020820180516001600160e01b038381831617835250505050611d66565b505050565b6000546001600160a01b031633146108ed5760405163118cdaa760e01b8152336004820152602401610722565b611b49611dd7565b6002805460ff191690557f5db9ee0a495bf2e6ff9c91a7834c1ba4fdd244a5e8aa4e537bd38aeae4b073aa335b6040516001600160a01b03909116815260200160405180910390a1565b60006102e48261ffff1610611baa5750605a919050565b61029e8261ffff1610611bbf57506050919050565b6102448261ffff1610611bd457506046919050565b506032919050565b60006102e48261ffff1610611bf557506203f480919050565b61029e8261ffff1610611c0c57506202a300919050565b6102448261ffff1610611c2357506201fa40919050565b5062015180919050565b600080546001600160a01b038381166001600160a01b0319831681178455604051919092169283917f8be0079c531659141344cd1fd0a4f28419497f9722a3daafe3b4186f6b6457e09190a35050565b611c856119ac565b6002805460ff191660011790557f62e78cea01bee320cd4e420270b5ea74000d11b0c9f74754ebdbfc544b05a258611b763390565b6040516001600160a01b038481166024830152838116604483015260648201839052611cf39186918216906323b872dd90608401611add565b50505050565b6000816001600160a01b031663313ce5676040518163ffffffff1660e01b8152600401602060405180830381865afa925050508015611d55575060408051601f3d908101601f19168201909252611d5291810190612170565b60015b6106d457506012919050565b919050565b600080602060008451602086016000885af180611d89576040513d6000823e3d81fd5b50506000513d91508115611da1578060011415611dae565b6001600160a01b0384163b155b15611cf357604051635274afe760e01b81526001600160a01b0385166004820152602401610722565b60025460ff166108ed57604051638dfc202b60e01b815260040160405180910390fd5b600060208284031215611e0c57600080fd5b5035919050565b80356001600160a01b0381168114611d6157600080fd5b60008060408385031215611e3d57600080fd5b611e4683611e13565b946020939093013593505050565b600060208284031215611e6657600080fd5b610ddb82611e13565b600080600060608486031215611e8457600080fd5b611e8d84611e13565b95602085013595506040909401359392505050565b600080600060608486031215611eb757600080fd5b611ec084611e13565b9250611ece60208501611e13565b915060408401358015158114611ee357600080fd5b809150509250925092565b60008060408385031215611f0157600080fd5b50508035926020909101359150565b634e487b7160e01b600052601160045260246000fd5b80820281158282048414176106d4576106d4611f10565b600082611f5a57634e487b7160e01b600052601260045260246000fd5b500490565b602080825260119082015270105cdcd95d081b9bdd08185b1b1bddd959607a1b604082015260600190565b6020808252600b908201526a16995c9bc8185b5bdd5b9d60aa1b604082015260600190565b818103818111156106d4576106d4611f10565b805160ff81168114611d6157600080fd5b8051600181900b8114611d6157600080fd5b805161ffff81168114611d6157600080fd5b600060c0828403121561200957600080fd5b60405160c0810181811067ffffffffffffffff8211171561203a57634e487b7160e01b600052604160045260246000fd5b60405261204683611fc2565b815261205460208401611fc2565b602082015261206560408401611fd3565b604082015261207660608401611fc2565b606082015261208760808401611fc2565b608082015261209860a08401611fe5565b60a08201529392505050565b61ffff818116838216019080821115611aa957611aa9611f10565b808201808211156106d4576106d4611f10565b6000602082840312156120e457600080fd5b610ddb82611fe5565b6000600182016120ff576120ff611f10565b5060010190565b805169ffffffffffffffffffff81168114611d6157600080fd5b600080600080600060a0868803121561213857600080fd5b61214186612106565b945060208601519350604086015192506060860151915061216460808701612106565b90509295509295909350565b60006020828403121561218257600080fd5b610ddb82611fc2565b60ff81811683821601908111156106d4576106d4611f10565b600181815b808511156121df5781600019048211156121c5576121c5611f10565b808516156121d257918102915b93841c93908002906121a9565b509250929050565b6000826121f6575060016106d4565b81612203575060006106d4565b816001811461221957600281146122235761223f565b60019150506106d4565b60ff84111561223457612234611f10565b50506001821b6106d4565b5060208310610133831016604e8410600b8410161715612262575081810a6106d4565b61226c83836121a4565b806000190482111561228057612280611f10565b029392505050565b6000610ddb60ff8416836121e756fea2646970667358221220fe290f44c28775a701a8ef6fffaae8c7d1589a5cac32c7a8b72434bdb14df2dd64736f6c63430008140033",
  "linkReferences": {},
  "deployedLinkReferences": {}
}