{
  "_format": "hh-sol-artifact-1",
  "contractName": "ScoreOraclePhase3B_V2",
  "sourceName": "contracts/ScoreOraclePhase3B_V2.sol",
  "abi": [
    {
      "inputs": [
        {
          "internalType": "address payable",
          "name": "_registry",
          "type": "address"
        }
      ],
      "stateMutability": "nonpayable",
      "type": "constructor"
    },
    {
      "inputs": [
        {
          "internalType": "address",
          "name": "owner",
          "type": "address"
        }
      ],
      "name": "OwnableInvalidOwner",
      "type": "error"
    },
    {
      "inputs": [
        {
          "internalType": "address",
          "name": "account",
          "type": "address"
        }
      ],
      "name": "OwnableUnauthorizedAccount",
      "type": "error"
    },
    {
      "anonymous": false,
      "inputs": [
        {
          "indexed": true,
          "internalType": "uint64",
          "name": "chainSelector",
          "type": "uint64"
        }
      ],
      "name": "ChainSelectorAdded",
      "type": "event"
    },
    {
      "anonymous": false,
      "inputs": [
        {
          "indexed": true,
          "internalType": "uint64",
          "name": "chainSelector",
          "type": "uint64"
        }
      ],
      "name": "ChainSelectorRemoved",
      "type": "event"
    },
    {
      "anonymous": false,
      "inputs": [
        {
          "indexed": true,
          "internalType": "address",
          "name": "previousOwner",
          "type": "address"
        },
        {
          "indexed": true,
          "internalType": "address",
          "name": "newOwner",
          "type": "address"
        }
      ],
      "name": "OwnershipTransferred",
      "type": "event"
    },
    {
      "inputs": [],
      "name": "MIN_COLLATERAL_FOR_DIVERSITY",
      "outputs": [
        {
          "internalType": "uint256",
          "name": "",
          "type": "uint256"
        }
      ],
      "stateMutability": "view",
      "type": "function"
    },
    {
      "inputs": [],
      "name": "TIER_GOLD",
      "outputs": [
        {
          "internalType": "uint16",
          "name": "",
          "type": "uint16"
        }
      ],
      "stateMutability": "view",
      "type": "function"
    },
    {
      "inputs": [],
      "name": "TIER_PLATINUM",
      "outputs": [
        {
          "internalType": "uint16",
          "name": "",
          "type": "uint16"
        }
      ],
      "stateMutability": "view",
      "type": "function"
    },
    {
      "inputs": [],
      "name": "TIER_SILVER",
      "outputs": [
        {
          "internalType": "uint16",
          "name": "",
          "type": "uint16"
        }
      ],
      "stateMutability": "view",
      "type": "function"
    },
    {
      "inputs": [
        {
          "internalType": "uint64",
          "name": "chainSelector",
          "type": "uint64"
        }
      ],
      "name": "addChainSelector",
      "outputs": [],
      "stateMutability": "nonpayable",
      "type": "function"
    },
    {
      "inputs": [
        {
          "internalType": "address",
          "name": "subject",
          "type": "address"
        }
      ],
      "name": "computeScore",
      "outputs": [
        {
          "components": [
            {
              "internalType": "uint16",
              "name": "overall",
              "type": "uint16"
            },
            {
              "internalType": "uint8",
              "name": "s1_repayment",
              "type": "uint8"
            },
            {
              "internalType": "uint8",
              "name": "s2_collateral",
              "type": "uint8"
            },
            {
              "internalType": "uint8",
              "name": "s3_sybil",
              "type": "uint8"
            },
            {
              "internalType": "uint8",
              "name": "s4_crossChain",
              "type": "uint8"
            },
            {
              "internalType": "uint8",
              "name": "s5_governance",
              "type": "uint8"
            },
            {
              "internalType": "int16",
              "name": "s3_raw",
              "type": "int16"
            }
          ],
          "internalType": "struct ScoreOraclePhase3B_V2.ScoreBreakdown",
          "name": "",
          "type": "tuple"
        }
      ],
      "stateMutability": "view",
      "type": "function"
    },
    {
      "inputs": [
        {
          "internalType": "uint16",
          "name": "overall",
          "type": "uint16"
        }
      ],
      "name": "getAPR",
      "outputs": [
        {
          "internalType": "uint16",
          "name": "aprBps",
          "type": "uint16"
        }
      ],
      "stateMutability": "pure",
      "type": "function"
    },
    {
      "inputs": [
        {
          "internalType": "uint16",
          "name": "overall",
          "type": "uint16"
        }
      ],
      "name": "getScoreTier",
      "outputs": [
        {
          "internalType": "enum ScoreOraclePhase3B_V2.ScoreTier",
          "name": "",
          "type": "uint8"
        }
      ],
      "stateMutability": "pure",
      "type": "function"
    },
    {
      "inputs": [],
      "name": "getSupportedChainSelectors",
      "outputs": [
        {
          "internalType": "uint64[]",
          "name": "",
          "type": "uint64[]"
        }
      ],
      "stateMutability": "view",
      "type": "function"
    },
    {
      "inputs": [
        {
          "internalType": "uint64",
          "name": "",
          "type": "uint64"
        }
      ],
      "name": "isSupportedChain",
      "outputs": [
        {
          "internalType": "bool",
          "name": "",
          "type": "bool"
        }
      ],
      "stateMutability": "view",
      "type": "function"
    },
    {
      "inputs": [],
      "name": "owner",
      "outputs": [
        {
          "internalType": "address",
          "name": "",
          "type": "address"
        }
      ],
      "stateMutability": "view",
      "type": "function"
    },
    {
      "inputs": [],
      "name": "registry",
      "outputs": [
        {
          "internalType": "contract CreditRegistryV3",
          "name": "",
          "type": "address"
        }
      ],
      "stateMutability": "view",
      "type": "function"
    },
    {
      "inputs": [
        {
          "internalType": "uint64",
          "name": "chainSelector",
          "type": "uint64"
        }
      ],
      "name": "removeChainSelector",
      "outputs": [],
      "stateMutability": "nonpayable",
      "type": "function"
    },
    {
      "inputs": [],
      "name": "renounceOwnership",
      "outputs": [],
      "stateMutability": "nonpayable",
      "type": "function"
    },
    {
      "inputs": [
        {
          "internalType": "uint256",
          "name": "",
          "type": "uint256"
        }
      ],
      "name": "supportedChainSelectors",
      "outputs": [
        {
          "internalType": "uint64",
          "name": "",
          "type": "uint64"
        }
      ],
      "stateMutability": "view",
      "type": "function"
    },
    {
      "inputs": [
        {
          "internalType": "address",
          "name": "newOwner",
          "type": "address"
        }
      ],
      "name": "transferOwnership",
      "outputs": [],
      "stateMutability": "nonpayable",
      "type": "function"
    }
  ],
  "bytecode": "0x6080346200032957601f620019f538819003918201601f1916830192916001600160401b039190828511848610176200032e57808492604096875283396020938491810103126200032957516001600160a01b039182821691829003620003295733156200031157600091825460018060a01b031994338683161785553391167f8be0079c531659141344cd1fd0a4f28419497f9722a3daafe3b4186f6b6457e08580a360019384541617835567304611b6affba76a928383526003855260ff8684205416620002d9576002948554680100000000000000009081811015620002c557838101808955811015620002b15787865282862081891c019060c082549160061b16908689831b921b1916179055858552600382528785209360ff199484868254161790557f6ce9b4dda1a396a1e08009bbd610b75b33f10171ca06d9d261959738596364a996878780a26748810ec3e431431f80875260ff8a8820541662000251578854838110156200029d57858101808b558110156200028957898852848820818b1c019060c082549160061b16908484831b921b1916179055808752600384528987208587825416179055878780a2678f90b8876dee65389788875260ff8a8820541662000251578054928310156200023d57848301808255831015620002295790816003949392885282848920911c019160c083549160061b16918a831b921b1916179055868552528583209182541617905580a2516116b09081620003458239f35b634e487b7160e01b87526032600452602487fd5b634e487b7160e01b87526041600452602487fd5b895162461bcd60e51b8152600481018590526011602482015270105b1c9958591e481cdd5c1c1bdc9d1959607a1b6044820152606490fd5b634e487b7160e01b88526032600452602488fd5b634e487b7160e01b88526041600452602488fd5b634e487b7160e01b86526032600452602486fd5b634e487b7160e01b86526041600452602486fd5b855162461bcd60e51b8152600481018690526011602482015270105b1c9958591e481cdd5c1c1bdc9d1959607a1b6044820152606490fd5b8451631e4fbdf760e01b815260006004820152602490fd5b600080fd5b634e487b7160e01b600052604160045260246000fdfe6040608081526004908136101561001557600080fd5b600091823560e01c806339a2efb614610a315780635f09323d146108b45780636bb12fd9146107a2578063715018a6146107485780637b1039991461071f5780638050fe6a146106fb5780638926f54f146106be5780638da5cb5b14610696578063962b74f7146106555780639a46e412146106395780639c0c87b5146105e9578063c5d46dfc146101d6578063d86b56f7146101ba578063e3d3f8431461019a578063f2fde38b1461010c5763fb4ceaa3146100d157600080fd5b3461010857602036600319011261010857359161ffff90818416840361010557506100fd602093611622565b915191168152f35b80fd5b8280fd5b509034610108576020366003190112610108576001600160a01b038235818116939192908490036101965761013f610bf6565b831561018057505082546001600160a01b0319811683178455167f8be0079c531659141344cd1fd0a4f28419497f9722a3daafe3b4186f6b6457e08380a380f35b51631e4fbdf760e01b8152908101849052602490fd5b8480fd5b5050346101b657816003193601126101b65760209051604b8152f35b5080fd5b5050346101b657816003193601126101b65760209051605a8152f35b509034610108576020366003190112610108576001600160a01b039282358481169391908481036101b6578160c0855161020f81610c22565b82815282602082015282878201528260608201528260808201528260a0820152015261023a81610df2565b9261024482610efe565b9660015416958551809781926326d9995d60e11b8352848301526101a092839160249a8b915afa9182156105df5785926105b2575b50508390610100810151876020820151151591826105a5575b505061059c575b60e0810151806105335750906102ae90610dc7565b905b6101208101515168056bc75e2d6310000081106104e4575090604b81019085604b831291129080158216911516176104d257905b51600a811061046557506102f790610ee1565b60010b9461030486611215565b9161031761031185611254565b94611406565b60ff8097169860288a029a8a8c046028148b1517156104535788169a60148c02908c82046014148d15171561044157899161035191610c8f565b95169460148602908682046014148715171561044157899161037291610c8f565b961695600a870290878204600a148815171561044157899161039391610c8f565b921696600a880293888504600a148915171561043157505050918660e09a8161ffff60646103c5839a99978499610c8f565b04169b60c08d8651906103d782610c22565b8152602081019283528681019485526060810197885260808101998a5260a081019b8c52019b8c5284519c8d52511660208c01525116908901525116606087015251166080850152511660a08301525160010b60c0820152f35b634e487b7160e01b825260119052fd5b634e487b7160e01b8952601185528289fd5b50634e487b7160e01b87526011835286fd5b6005811061049f5750601e81019084601e8312911290801582169115161761048d575b6102f7565b634e487b7160e01b8452601182528684fd5b6003116102f757600f81019084600f831291129080158216911516171561048857634e487b7160e01b8452601182528684fd5b634e487b7160e01b8552601183528785fd5b6802b5e3af16b188000081106105055750906104ff90610ee1565b906102e4565b678ac7230489e80000116102e457906019810190856019831291129080158216911516176104d257906102e4565b61053d9042611208565b62278d0081101561055a57509061055390610dc7565b905b6102b0565b6276a70081101561057c575090601d1981019081136001166104d257906102b0565b62ed4e001115610555579060091981019081136001166104d257906102b0565b60649150610299565b0151421090508738610292565b6105d19250803d106105d8575b6105c98183610c6e565b810190610cd2565b3880610279565b503d6105bf565b87513d87823e3d90fd5b509190346101b65760203660031901126101b657823561ffff8116810361010857610613906115ee565b9051918382101561062657602083838152f35b634e487b7160e01b815260218452602490fd5b5050346101b657816003193601126101b65760209051603c8152f35b503461010857602036600319011261010857359160025483101561010557506001600160401b03610687602093610ba0565b92905490519260031b1c168152f35b5050346101b657816003193601126101b657905490516001600160a01b039091168152602090f35b503461010857602036600319011261010857356001600160401b03811680910361010857818360ff92602095526003855220541690519015158152f35b5050346101b657816003193601126101b6576020905168056bc75e2d631000008152f35b5050346101b657816003193601126101b65760015490516001600160a01b039091168152602090f35b8334610105578060031936011261010557610761610bf6565b80546001600160a01b03198116825581906001600160a01b03167f8be0079c531659141344cd1fd0a4f28419497f9722a3daafe3b4186f6b6457e08280a380f35b5090346101085760203660031901126101085781356001600160401b03811692838203610196576107d1610bf6565b838552600360205260ff838620541661087d57600254906801000000000000000082101561086a57509061080e82600161082e9401600255610ba0565b90919082549060031b916001600160401b03809116831b921b1916179055565b81835260036020528220805460ff191660011790557f6ce9b4dda1a396a1e08009bbd610b75b33f10171ca06d9d261959738596364a98280a280f35b634e487b7160e01b865260419052602485fd5b606490602084519162461bcd60e51b83528201526011602482015270105b1c9958591e481cdd5c1c1bdc9d1959607a1b6044820152fd5b50823461010557806003193601126101055782518091600254808352836020808095018097600286527f405787fa12a823e0f2b7631cc41b3ba8828b3321ca811111fa75cd3aa3bb5ace9486915b8160038401106109e85750610945955491848282106109cf575b8c8383106109b3575b50828210610997575b5010610989575b5090509695949293960382610c6e565b83519485948186019282875251809352850193925b82811061096957505050500390f35b83516001600160401b03168552869550938101939281019260010161095a565b60c01c815201849089610935565b600191946001600160401b038560801c1681520193018461092e565b946001600160401b0385600194971c168152019301848c610925565b600191946001600160401b03851681520193018461091c565b945092509060018491865490818d6001600160401b0393849182821685521c168b8301528d60809382851c169083015260c01c6060820152019501910186928894959295610902565b509034610108576020366003190112610108578135906001600160401b0380831680930361019657610a61610bf6565b8285526003908160205260ff838720541615610b6d57855b6002805480831015610b60578684610a9085610ba0565b905490881b1c1614610aac575050610aa790610ed2565b610a79565b916000979193949596971992838101908111610b4d579061080e86610ad3610ae094610ba0565b9054908a1b1c1691610ba0565b8254908115610b3a57500191610af583610ba0565b9091825491861b1b19169055555b8284526020528220805460ff191690557f489cbdb4a41d0f01921ac1a9b59baf9d844209be7a4145cf4dade327c45f00968280a280f35b634e487b7160e01b895260319052602488fd5b634e487b7160e01b8a526011835260248afd5b5050505090919250610b03565b825162461bcd60e51b8152602081870152600d60248201526c139bdd081cdd5c1c1bdc9d1959609a1b6044820152606490fd5b90600254821015610be057600260005260188260021c7f405787fa12a823e0f2b7631cc41b3ba8828b3321ca811111fa75cd3aa3bb5ace019260031b1690565b634e487b7160e01b600052603260045260246000fd5b6000546001600160a01b03163303610c0a57565b60405163118cdaa760e01b8152336004820152602490fd5b60e081019081106001600160401b03821117610c3d57604052565b634e487b7160e01b600052604160045260246000fd5b608081019081106001600160401b03821117610c3d57604052565b90601f801991011681019081106001600160401b03821117610c3d57604052565b91908201809211610c9c57565b634e487b7160e01b600052601160045260246000fd5b8115610cbc570490565b634e487b7160e01b600052601260045260246000fd5b8091036101a08112610dc25760409182519261014091828501936001600160401b039486811086821117610c3d57835281518652602082015160208701528282015183870152606082015160608701526080820151608087015260a082015160a087015260c082015160c087015260e082015160e0870152606060ff19820112610dc257825190606082019180831087841117610c3d5784928352610100808501518252610120968786015160208401528501518483015288015261015f190112610dc25781519384830190811185821017610c3d57610180925261016081015184520151602083015282015290565b600080fd5b906031198201918213600116610c9c57565b81810392916000138015828513169184121617610c9c57565b6001546040516326d9995d60e11b81526001600160a01b0392831660048201526101a0929091839183916024918391165afa918215610ec657600092610ea9575b5050805115610ea3576020810151606481029080820460641490151715610c9c57610e62604091835190610cb2565b910151601481029080820460141490151715610c9c57610e8191610dd9565b60008112610e9d5760648113610e975760ff1690565b50606490565b50600090565b50603290565b610ebf9250803d106105d8576105c98183610c6e565b3880610e33565b6040513d6000823e3d90fd5b6000198114610c9c5760010190565b9060328201916000603284129112908015821691151617610c9c57565b600180546040516326d9995d60e11b81526001600160a01b039384166004808301829052928516946101a09460249493909190868187818b5afa968715610ec6576000976111e9575b50508551156111dd5760a08601968751156111d0576080870151606498898202918083048b14901517156111825751610f7f91610cb2565b600090899060c8811061119657509050965b60c081015190898202918083048b14901517156111825751610fb291610cb2565b600090604b81111561116557505060006028945b8760405180948193632dd91bb760e11b83528a8301525afa918215610ec6576000926110b1575b505060009180839284925b611085575b505060038210905061106557505061101790601494610dd9565b600084820194851291129080158216911516176110525750506000811261104b578181136110475760ff91501690565b5090565b5050600090565b601190634e487b7160e01b600052526000fd5b600290959195101561107c575b9061101791610dd9565b600a9450611072565b90919281518410156110ab5761109d6110a391610ed2565b93610ed2565b919081610ff8565b92610ffd565b90913d8082853e6110c28185610c6e565b83019060209283858403126101b65784516001600160401b039586821161116157019183601f8401121561010557825195861161114f578560051b926040519661110e87860189610c6e565b875285808801948201019485116101b6578501925b848410611137575050505050503880610fed565b83518381168103610108578152928501928501611123565b634e487b7160e01b8152604189528990fd5b8380fd5b60329095919511611179575b600090610fc6565b60149450611171565b87601188634e487b7160e01b600052526000fd5b609681106111a957505050604b96610f91565b607881106111bc57505050603296610f91565b106111ca5750601996610f91565b96610f91565b5050505050505050603290565b50505050505050603290565b611200929750803d106105d8576105c98183610c6e565b943880610f47565b91908203918211610c9c57565b60010b60328101908112600116610c9c57606481029080820560641490151715610c9c57610113900560008112610e9d5760648113610e975760ff1690565b6002546001546000928392916001600160a01b0391908216845b848110611306575050505050801561104b5761128d816112b293610cb2565b600090604b81106112d057505060645b600091600381106112c0575060149150610c8f565b60648111610e975760ff1690565b600211610c8f57600a9150610c8f565b603c81106112e1575050604b61129d565b602d81106112f2575050603261129d565b601e116113015750601961129d565b61129d565b61130f81610ba0565b9054906001600160401b036040928351926340c7e39d60e01b8452888816600485015260031b1c1660248201526080918282604481885afa9283156113fb57600093611397575b5050506060810151611372575b5061136d90610ed2565b61126e565b9561136d919761ffff61138761139093610ed2565b98511690610c8f565b9690611363565b82813d83116113f4575b6113ab8183610c6e565b81010312610108578051926113bf84610c53565b82519061ffff821682036101055750835260208083015190840152808201519083015260608091015190820152388080611356565b503d6113a1565b50513d6000823e3d90fd5b60018060a01b03806001541691604060808151809581956302a5ef7960e21b8352600495168583015260249586915afa9384156113fb57600094611591575b5083516000906014811061154f575060288101809111611504575b6020850151600581106115185750601e810180911161150457935b01611487815142611208565b905161149f575b50505060648111610e975760ff1690565b62278d008110156114c15750601e83018093116110525750505b38808061148e565b6276a7008110156114df5750601483018093116110525750506114b9565b62ed4e00116114f0575b50506114b9565b600a830180931161105257505038806114e9565b83601184634e487b7160e01b600052526000fd5b60038110611532575060148101809111611504579361147b565b6001909591951061147b5793600a8101809111611504579361147b565b600a81106115695750601e8101809111611504575b611460565b6005811061158257506014810180911161150457611460565b6001116115645750600a611460565b90936080823d82116115e6575b816115ab60809383610c6e565b81010312610105575060608451916115c283610c53565b80518352602081015160208401528581015186840152015160608201529238611445565b3d915061159e565b61ffff16605a81101561161c57604b81101561161657603c111561161157600090565b600190565b50600290565b50600390565b61ffff16605a81101561167357604b81101561166c57603c81101561166557602d81101561165e57601e1115611658576105dc90565b6104b090565b506103e890565b5061032090565b5061025890565b506101909056fea2646970667358221220d0f24facb58c21a303ecc12e20fcb940a66b129ad361136c3b3456b0f456d2d164736f6c63430008140033",
  "linkReferences": {},
  "deployedLinkReferences": {}
}