{
  "_format": "hh-sol-artifact-1",
  "contractName": "InsuranceFund",
  "sourceName": "contracts/InsuranceFund.sol",
  "abi": [
    {
      "inputs": [
        {
          "internalType": "address",
          "name": "_stablecoin",
          "type": "address"
        }
      ],
      "stateMutability": "nonpayable",
      "type": "constructor"
    },
    {
      "inputs": [
        {
          "internalType": "address",
          "name": "owner",
          "type": "address"
        }
      ],
      "name": "OwnableInvalidOwner",
      "type": "error"
    },
    {
      "inputs": [
        {
          "internalType": "address",
          "name": "account",
          "type": "address"
        }
      ],
      "name": "OwnableUnauthorizedAccount",
      "type": "error"
    },
    {
      "inputs": [],
      "name": "ReentrancyGuardReentrantCall",
      "type": "error"
    },
    {
      "inputs": [
        {
          "internalType": "address",
          "name": "token",
          "type": "address"
        }
      ],
      "name": "SafeERC20FailedOperation",
      "type": "error"
    },
    {
      "anonymous": false,
      "inputs": [
        {
          "indexed": true,
          "internalType": "address",
          "name": "requestor",
          "type": "address"
        },
        {
          "indexed": false,
          "internalType": "bool",
          "name": "authorized",
          "type": "bool"
        }
      ],
      "name": "AuthorizedRequestorSet",
      "type": "event"
    },
    {
      "anonymous": false,
      "inputs": [
        {
          "indexed": true,
          "internalType": "address",
          "name": "depositor",
          "type": "address"
        },
        {
          "indexed": false,
          "internalType": "uint256",
          "name": "amount",
          "type": "uint256"
        }
      ],
      "name": "Deposit",
      "type": "event"
    },
    {
      "anonymous": false,
      "inputs": [
        {
          "indexed": true,
          "internalType": "address",
          "name": "recipient",
          "type": "address"
        },
        {
          "indexed": false,
          "internalType": "uint256",
          "name": "amount",
          "type": "uint256"
        }
      ],
      "name": "EmergencyWithdrawal",
      "type": "event"
    },
    {
      "anonymous": false,
      "inputs": [
        {
          "indexed": true,
          "internalType": "address",
          "name": "depositor",
          "type": "address"
        },
        {
          "indexed": false,
          "internalType": "uint256",
          "name": "amount",
          "type": "uint256"
        },
        {
          "indexed": false,
          "internalType": "uint256",
          "name": "newTotal",
          "type": "uint256"
        }
      ],
      "name": "FundsDeposited",
      "type": "event"
    },
    {
      "anonymous": false,
      "inputs": [
        {
          "indexed": true,
          "internalType": "uint256",
          "name": "loanId",
          "type": "uint256"
        },
        {
          "indexed": true,
          "internalType": "address",
          "name": "lender",
          "type": "address"
        },
        {
          "indexed": false,
          "internalType": "uint256",
          "name": "lossAmount",
          "type": "uint256"
        },
        {
          "indexed": false,
          "internalType": "uint256",
          "name": "coveredAmount",
          "type": "uint256"
        }
      ],
      "name": "LossCovered",
      "type": "event"
    },
    {
      "anonymous": false,
      "inputs": [
        {
          "indexed": true,
          "internalType": "address",
          "name": "previousOwner",
          "type": "address"
        },
        {
          "indexed": true,
          "internalType": "address",
          "name": "newOwner",
          "type": "address"
        }
      ],
      "name": "OwnershipTransferred",
      "type": "event"
    },
    {
      "anonymous": false,
      "inputs": [
        {
          "indexed": false,
          "internalType": "uint256",
          "name": "protocolRevenue",
          "type": "uint256"
        },
        {
          "indexed": false,
          "internalType": "uint256",
          "name": "allocationAmount",
          "type": "uint256"
        }
      ],
      "name": "RevenueAllocated",
      "type": "event"
    },
    {
      "inputs": [],
      "name": "BASIS_POINTS",
      "outputs": [
        {
          "internalType": "uint256",
          "name": "",
          "type": "uint256"
        }
      ],
      "stateMutability": "view",
      "type": "function"
    },
    {
      "inputs": [],
      "name": "MAX_COVERAGE_BPS",
      "outputs": [
        {
          "internalType": "uint256",
          "name": "",
          "type": "uint256"
        }
      ],
      "stateMutability": "view",
      "type": "function"
    },
    {
      "inputs": [],
      "name": "MAX_COVERAGE_PERCENT",
      "outputs": [
        {
          "internalType": "uint256",
          "name": "",
          "type": "uint256"
        }
      ],
      "stateMutability": "view",
      "type": "function"
    },
    {
      "inputs": [],
      "name": "PERCENTAGE_DENOMINATOR",
      "outputs": [
        {
          "internalType": "uint256",
          "name": "",
          "type": "uint256"
        }
      ],
      "stateMutability": "view",
      "type": "function"
    },
    {
      "inputs": [],
      "name": "REVENUE_ALLOCATION_PERCENT",
      "outputs": [
        {
          "internalType": "uint256",
          "name": "",
          "type": "uint256"
        }
      ],
      "stateMutability": "view",
      "type": "function"
    },
    {
      "inputs": [],
      "name": "REVENUE_PERCENTAGE",
      "outputs": [
        {
          "internalType": "uint256",
          "name": "",
          "type": "uint256"
        }
      ],
      "stateMutability": "view",
      "type": "function"
    },
    {
      "inputs": [
        {
          "internalType": "uint256",
          "name": "protocolRevenue",
          "type": "uint256"
        }
      ],
      "name": "allocateRevenue",
      "outputs": [],
      "stateMutability": "nonpayable",
      "type": "function"
    },
    {
      "inputs": [
        {
          "internalType": "address",
          "name": "",
          "type": "address"
        }
      ],
      "name": "authorizedRequestors",
      "outputs": [
        {
          "internalType": "bool",
          "name": "",
          "type": "bool"
        }
      ],
      "stateMutability": "view",
      "type": "function"
    },
    {
      "inputs": [
        {
          "internalType": "uint256",
          "name": "principal",
          "type": "uint256"
        }
      ],
      "name": "canCoverLoss",
      "outputs": [
        {
          "internalType": "bool",
          "name": "",
          "type": "bool"
        }
      ],
      "stateMutability": "view",
      "type": "function"
    },
    {
      "inputs": [
        {
          "internalType": "address",
          "name": "lender",
          "type": "address"
        },
        {
          "internalType": "uint256",
          "name": "loanId",
          "type": "uint256"
        },
        {
          "internalType": "uint256",
          "name": "principal",
          "type": "uint256"
        },
        {
          "internalType": "uint256",
          "name": "lossAmount",
          "type": "uint256"
        }
      ],
      "name": "coverLoss",
      "outputs": [
        {
          "internalType": "uint256",
          "name": "",
          "type": "uint256"
        }
      ],
      "stateMutability": "nonpayable",
      "type": "function"
    },
    {
      "inputs": [
        {
          "internalType": "uint256",
          "name": "",
          "type": "uint256"
        }
      ],
      "name": "coverageHistory",
      "outputs": [
        {
          "internalType": "uint256",
          "name": "loanId",
          "type": "uint256"
        },
        {
          "internalType": "address",
          "name": "lender",
          "type": "address"
        },
        {
          "internalType": "uint256",
          "name": "lossAmount",
          "type": "uint256"
        },
        {
          "internalType": "uint256",
          "name": "coveredAmount",
          "type": "uint256"
        },
        {
          "internalType": "uint256",
          "name": "timestamp",
          "type": "uint256"
        }
      ],
      "stateMutability": "view",
      "type": "function"
    },
    {
      "inputs": [
        {
          "internalType": "uint256",
          "name": "amount",
          "type": "uint256"
        }
      ],
      "name": "deposit",
      "outputs": [],
      "stateMutability": "nonpayable",
      "type": "function"
    },
    {
      "inputs": [
        {
          "internalType": "uint256",
          "name": "amount",
          "type": "uint256"
        }
      ],
      "name": "emergencyWithdraw",
      "outputs": [],
      "stateMutability": "nonpayable",
      "type": "function"
    },
    {
      "inputs": [
        {
          "internalType": "uint256",
          "name": "principal",
          "type": "uint256"
        }
      ],
      "name": "getAvailableCoverage",
      "outputs": [
        {
          "internalType": "uint256",
          "name": "",
          "type": "uint256"
        }
      ],
      "stateMutability": "view",
      "type": "function"
    },
    {
      "inputs": [
        {
          "internalType": "uint256",
          "name": "startIndex",
          "type": "uint256"
        },
        {
          "internalType": "uint256",
          "name": "count",
          "type": "uint256"
        }
      ],
      "name": "getCoverageHistory",
      "outputs": [
        {
          "components": [
            {
              "internalType": "uint256",
              "name": "loanId",
              "type": "uint256"
            },
            {
              "internalType": "address",
              "name": "lender",
              "type": "address"
            },
            {
              "internalType": "uint256",
              "name": "lossAmount",
              "type": "uint256"
            },
            {
              "internalType": "uint256",
              "name": "coveredAmount",
              "type": "uint256"
            },
            {
              "internalType": "uint256",
              "name": "timestamp",
              "type": "uint256"
            }
          ],
          "internalType": "struct InsuranceFund.CoverageRecord[]",
          "name": "",
          "type": "tuple[]"
        }
      ],
      "stateMutability": "view",
      "type": "function"
    },
    {
      "inputs": [],
      "name": "getCoverageHistoryCount",
      "outputs": [
        {
          "internalType": "uint256",
          "name": "",
          "type": "uint256"
        }
      ],
      "stateMutability": "view",
      "type": "function"
    },
    {
      "inputs": [
        {
          "internalType": "uint256",
          "name": "loanId",
          "type": "uint256"
        }
      ],
      "name": "getDefaultHistory",
      "outputs": [
        {
          "components": [
            {
              "internalType": "uint256",
              "name": "loanId",
              "type": "uint256"
            },
            {
              "internalType": "address",
              "name": "lender",
              "type": "address"
            },
            {
              "internalType": "uint256",
              "name": "lossAmount",
              "type": "uint256"
            },
            {
              "internalType": "uint256",
              "name": "coveredAmount",
              "type": "uint256"
            },
            {
              "internalType": "uint256",
              "name": "timestamp",
              "type": "uint256"
            }
          ],
          "internalType": "struct InsuranceFund.CoverageRecord",
          "name": "",
          "type": "tuple"
        }
      ],
      "stateMutability": "view",
      "type": "function"
    },
    {
      "inputs": [
        {
          "internalType": "uint256",
          "name": "principal",
          "type": "uint256"
        }
      ],
      "name": "getMaxCoveragePercent",
      "outputs": [
        {
          "internalType": "uint256",
          "name": "",
          "type": "uint256"
        }
      ],
      "stateMutability": "pure",
      "type": "function"
    },
    {
      "inputs": [],
      "name": "getStatistics",
      "outputs": [
        {
          "internalType": "uint256",
          "name": "_totalFunds",
          "type": "uint256"
        },
        {
          "internalType": "uint256",
          "name": "_totalCovered",
          "type": "uint256"
        },
        {
          "internalType": "uint256",
          "name": "_totalDefaults",
          "type": "uint256"
        },
        {
          "internalType": "uint256",
          "name": "_utilizationRate",
          "type": "uint256"
        }
      ],
      "stateMutability": "view",
      "type": "function"
    },
    {
      "inputs": [
        {
          "internalType": "address",
          "name": "",
          "type": "address"
        }
      ],
      "name": "lenderContributions",
      "outputs": [
        {
          "internalType": "uint256",
          "name": "",
          "type": "uint256"
        }
      ],
      "stateMutability": "view",
      "type": "function"
    },
    {
      "inputs": [],
      "name": "owner",
      "outputs": [
        {
          "internalType": "address",
          "name": "",
          "type": "address"
        }
      ],
      "stateMutability": "view",
      "type": "function"
    },
    {
      "inputs": [],
      "name": "renounceOwnership",
      "outputs": [],
      "stateMutability": "nonpayable",
      "type": "function"
    },
    {
      "inputs": [
        {
          "internalType": "address",
          "name": "requestor",
          "type": "address"
        },
        {
          "internalType": "bool",
          "name": "authorized",
          "type": "bool"
        }
      ],
      "name": "setAuthorizedRequestor",
      "outputs": [],
      "stateMutability": "nonpayable",
      "type": "function"
    },
    {
      "inputs": [],
      "name": "stablecoin",
      "outputs": [
        {
          "internalType": "contract IERC20",
          "name": "",
          "type": "address"
        }
      ],
      "stateMutability": "view",
      "type": "function"
    },
    {
      "inputs": [],
      "name": "totalCovered",
      "outputs": [
        {
          "internalType": "uint256",
          "name": "",
          "type": "uint256"
        }
      ],
      "stateMutability": "view",
      "type": "function"
    },
    {
      "inputs": [],
      "name": "totalDefaults",
      "outputs": [
        {
          "internalType": "uint256",
          "name": "",
          "type": "uint256"
        }
      ],
      "stateMutability": "view",
      "type": "function"
    },
    {
      "inputs": [],
      "name": "totalFunds",
      "outputs": [
        {
          "internalType": "uint256",
          "name": "",
          "type": "uint256"
        }
      ],
      "stateMutability": "view",
      "type": "function"
    },
    {
      "inputs": [
        {
          "internalType": "address",
          "name": "newOwner",
          "type": "address"
        }
      ],
      "name": "transferOwnership",
      "outputs": [],
      "stateMutability": "nonpayable",
      "type": "function"
    }
  ],
  "bytecode": "0x60a060405234801561001057600080fd5b506040516114ec3803806114ec83398101604081905261002f916100c4565b338061005557604051631e4fbdf760e01b81526000600482015260240160405180910390fd5b61005e81610074565b50600180556001600160a01b03166080526100f4565b600080546001600160a01b038381166001600160a01b0319831681178455604051919092169283917f8be0079c531659141344cd1fd0a4f28419497f9722a3daafe3b4186f6b6457e09190a35050565b6000602082840312156100d657600080fd5b81516001600160a01b03811681146100ed57600080fd5b9392505050565b6080516113c161012b600039600081816103f30152818161054a0152818161069601528181610a2f0152610d9401526113c16000f3fe608060405234801561001057600080fd5b50600436106101c45760003560e01c8063905ab15e116100f9578063b97fbee711610097578063e1f1c4a711610071578063e1f1c4a7146103dc578063e31e271c146103e5578063e9cbd822146103ee578063f2fde38b1461041557600080fd5b8063b97fbee7146103ad578063c3e06f1b146103c0578063dc0bfcb5146103d357600080fd5b8063a1fafc98116100d3578063a1fafc981461035f578063acfd5c9114610372578063b3cd425414610392578063b6b55f251461039a57600080fd5b8063905ab15e1461034d578063968ed600146103565780639da1a8631461021a57600080fd5b80635312ea8e1161016657806374c4385d1161014057806374c4385d146102a25780637baa65aa146102e55780637f8c5517146103055780638da5cb5b1461032857600080fd5b80635312ea8e146102675780635c8d40ac1461027a578063715018a61461029a57600080fd5b80632aa7a168116101a25780632aa7a1681461021a578063303ea1b714610222578063372d6b27146102375780633c65ddd31461025f57600080fd5b806303fdd167146101c95780631008a61d146101f1578063110282db14610212575b600080fd5b6101dc6101d736600461112d565b610428565b60405190151581526020015b60405180910390f35b6102046101ff36600461112d565b61043b565b6040519081526020016101e8565b610204600581565b610204601981565b61023561023036600461112d565b61046b565b005b61023f6105cf565b6040805194855260208501939093529183015260608201526080016101e8565b600754610204565b61023561027536600461112d565b61061a565b610204610288366004611162565b60066020526000908152604090205481565b6102356106fc565b6102b56102b036600461112d565b610710565b604080519586526001600160a01b039094166020860152928401919091526060830152608082015260a0016101e8565b6102f86102f336600461112d565b61075b565b6040516101e8919061117d565b6101dc610313366004611162565b60056020526000908152604090205460ff1681565b6000546001600160a01b03165b6040516001600160a01b0390911681526020016101e8565b61020460045481565b61020460025481565b61020461036d3660046111bb565b61084e565b6103856103803660046111f4565b610bc4565b6040516101e89190611216565b610204606481565b6102356103a836600461112d565b610d3a565b6102356103bb366004611295565b610e68565b6102046103ce36600461112d565b610ecf565b61020460035481565b61020461271081565b6102046101f481565b6103357f000000000000000000000000000000000000000000000000000000000000000081565b610235610423366004611162565b610ee9565b6000806104348361043b565b1192915050565b60008061271061044c6019856112e7565b61045691906112fe565b905061046460025482610f24565b9392505050565b3360009081526005602052604090205460ff168061049357506000546001600160a01b031633145b6104d55760405162461bcd60e51b815260206004820152600e60248201526d139bdd08185d5d1a1bdc9a5e995960921b60448201526064015b60405180910390fd5b6104dd610f3a565b600081116105225760405162461bcd60e51b81526020600482015260126024820152710416d6f756e74206d757374206265203e20360741b60448201526064016104cc565b600060646105316005846112e7565b61053b91906112fe565b90506105726001600160a01b037f000000000000000000000000000000000000000000000000000000000000000016333084610f64565b80600260008282546105849190611320565b909155505060408051838152602081018390527fcc20df2e6115f65d438c80b313a169bcb1838118c200233b3f7c86762a6968a8910160405180910390a1506105cc60018055565b50565b6002546003546004546000806105e58486611320565b9050600081116105f6576000610611565b8061271060035461060791906112e7565b61061191906112fe565b91505090919293565b610622610fd1565b61062a610f3a565b6002548111156106715760405162461bcd60e51b8152602060048201526012602482015271496e73756666696369656e742066756e647360701b60448201526064016104cc565b80600260008282546106839190611333565b909155506106bd90506001600160a01b037f0000000000000000000000000000000000000000000000000000000000000000163383610ffe565b60405181815233907f23d6711a1d031134a36921253c75aa59e967d38e369ac625992824315e204f20906020015b60405180910390a26105cc60018055565b610704610fd1565b61070e6000611034565b565b6007818154811061072057600080fd5b6000918252602090912060059091020180546001820154600283015460038401546004909401549294506001600160a01b0390911692909185565b6107636110f5565b60005b60075481101561081157826007828154811061078457610784611346565b9060005260206000209060050201600001540361080957600781815481106107ae576107ae611346565b60009182526020918290206040805160a08101825260059093029091018054835260018101546001600160a01b0316938301939093526002830154908201526003820154606082015260049091015460808201529392505050565b600101610766565b506040518060a001604052806000815260200160006001600160a01b03168152602001600081526020016000815260200160008152509050919050565b3360009081526005602052604081205460ff168061087657506000546001600160a01b031633145b6108b35760405162461bcd60e51b815260206004820152600e60248201526d139bdd08185d5d1a1bdc9a5e995960921b60448201526064016104cc565b6108bb610f3a565b6001600160a01b03851661090a5760405162461bcd60e51b8152602060048201526016602482015275496e76616c6964206c656e646572206164647265737360501b60448201526064016104cc565b6000821161095a5760405162461bcd60e51b815260206004820152601760248201527f4c6f737320616d6f756e74206d757374206265203e203000000000000000000060448201526064016104cc565b600061271061096a6019866112e7565b61097491906112fe565b9050600061098d61098760025484610f24565b85610f24565b90506002548111156109d65760405162461bcd60e51b8152602060048201526012602482015271496e73756666696369656e742066756e647360701b60448201526064016104cc565b8015610bb05780600260008282546109ee9190611333565b925050819055508060036000828254610a079190611320565b909155505060048054906000610a1c8361135c565b90915550610a5690506001600160a01b037f0000000000000000000000000000000000000000000000000000000000000000168883610ffe565b6040805160a0810182528781526001600160a01b0389811660208084018281528486018a81526060860188815242608088019081526007805460018101825560009190915297517fa66cc928b5edb82af9bd49922954155ab7b0942694bea4ce44661d9a8736c68860059099029889015592517fa66cc928b5edb82af9bd49922954155ab7b0942694bea4ce44661d9a8736c689880180546001600160a01b0319169190971617909555517fa66cc928b5edb82af9bd49922954155ab7b0942694bea4ce44661d9a8736c68a86015592517fa66cc928b5edb82af9bd49922954155ab7b0942694bea4ce44661d9a8736c68b85015591517fa66cc928b5edb82af9bd49922954155ab7b0942694bea4ce44661d9a8736c68c909301929092558251878152908101849052909188917f42a55bd777a4e159cfa82f37ae454ed6ef8f578d2bc41a32f966ec2ddc6d044b910160405180910390a35b915050610bbc60018055565b949350505050565b6007546060908310610c0e5760405162461bcd60e51b8152602060048201526013602482015272092dcecc2d8d2c840e6e8c2e4e840d2dcc8caf606b1b60448201526064016104cc565b6000610c25610c1d8486611320565b600754610f24565b90506000610c338583611333565b905060008167ffffffffffffffff811115610c5057610c50611375565b604051908082528060200260200182016040528015610c8957816020015b610c766110f5565b815260200190600190039081610c6e5790505b50905060005b82811015610d2e576007610ca38289611320565b81548110610cb357610cb3611346565b60009182526020918290206040805160a08101825260059093029091018054835260018101546001600160a01b0316938301939093526002830154908201526003820154606082015260049091015460808201528251839083908110610d1b57610d1b611346565b6020908102919091010152600101610c8f565b50925050505b92915050565b610d42610f3a565b60008111610d875760405162461bcd60e51b81526020600482015260126024820152710416d6f756e74206d757374206265203e20360741b60448201526064016104cc565b610dbc6001600160a01b037f000000000000000000000000000000000000000000000000000000000000000016333084610f64565b8060026000828254610dce9190611320565b90915550503360009081526006602052604081208054839290610df2908490611320565b909155505060405181815233907fe1fffcc4923d04b559f4d29a8bfc6cda04eb5b0d3c460751c2402c5c5cc9109c9060200160405180910390a260025460405133917fbee4fe3675934fca827426c793623996a3079255089bda3a717019ffc5db2765916106eb91858252602082015260400190565b610e70610fd1565b6001600160a01b038216600081815260056020908152604091829020805460ff191685151590811790915591519182527f088de5fc2816de687704debc52f916fa2796f3ebf3fd2af51e81a105cc70d710910160405180910390a25050565b6000612710610edf6019846112e7565b610d3491906112fe565b610ef1610fd1565b6001600160a01b038116610f1b57604051631e4fbdf760e01b8152600060048201526024016104cc565b6105cc81611034565b6000818310610f335781610464565b5090919050565b600260015403610f5d57604051633ee5aeb560e01b815260040160405180910390fd5b6002600155565b6040516001600160a01b038481166024830152838116604483015260648201839052610fcb9186918216906323b872dd906084015b604051602081830303815290604052915060e01b6020820180516001600160e01b038381831617835250505050611084565b50505050565b6000546001600160a01b0316331461070e5760405163118cdaa760e01b81523360048201526024016104cc565b6040516001600160a01b0383811660248301526044820183905261102f91859182169063a9059cbb90606401610f99565b505050565b600080546001600160a01b038381166001600160a01b0319831681178455604051919092169283917f8be0079c531659141344cd1fd0a4f28419497f9722a3daafe3b4186f6b6457e09190a35050565b600080602060008451602086016000885af1806110a7576040513d6000823e3d81fd5b50506000513d915081156110bf5780600114156110cc565b6001600160a01b0384163b155b15610fcb57604051635274afe760e01b81526001600160a01b03851660048201526024016104cc565b6040518060a001604052806000815260200160006001600160a01b031681526020016000815260200160008152602001600081525090565b60006020828403121561113f57600080fd5b5035919050565b80356001600160a01b038116811461115d57600080fd5b919050565b60006020828403121561117457600080fd5b61046482611146565b815181526020808301516001600160a01b03169082015260408083015190820152606080830151908201526080808301519082015260a08101610d34565b600080600080608085870312156111d157600080fd5b6111da85611146565b966020860135965060408601359560600135945092505050565b6000806040838503121561120757600080fd5b50508035926020909101359150565b6020808252825182820181905260009190848201906040850190845b8181101561128957611276838551805182526020808201516001600160a01b0316908301526040808201519083015260608082015190830152608090810151910152565b9284019260a09290920191600101611232565b50909695505050505050565b600080604083850312156112a857600080fd5b6112b183611146565b9150602083013580151581146112c657600080fd5b809150509250929050565b634e487b7160e01b600052601160045260246000fd5b8082028115828204841417610d3457610d346112d1565b60008261131b57634e487b7160e01b600052601260045260246000fd5b500490565b80820180821115610d3457610d346112d1565b81810381811115610d3457610d346112d1565b634e487b7160e01b600052603260045260246000fd5b60006001820161136e5761136e6112d1565b5060010190565b634e487b7160e01b600052604160045260246000fdfea264697066735822122005cc9f3add52e7b3ced11a393209304b5b5dcf6a0562ac2a1b3080494be92c1564736f6c63430008160033",
  "linkReferences": {},
  "deployedLinkReferences": {}
}